{
	"resource.sol": {
		"Resource": {
			"abi": [
				{
					"inputs": [
						{
							"internalType": "string",
							"name": "name",
							"type": "string"
						},
						{
							"internalType": "string",
							"name": "symbol",
							"type": "string"
						},
						{
							"internalType": "address",
							"name": "_unlimitedAllowanceAddress",
							"type": "address"
						},
						{
							"internalType": "enum Resource.Levels",
							"name": "level_",
							"type": "uint8"
						}
					],
					"stateMutability": "nonpayable",
					"type": "constructor"
				},
				{
					"inputs": [
						{
							"internalType": "address",
							"name": "spender",
							"type": "address"
						},
						{
							"internalType": "uint256",
							"name": "allowance",
							"type": "uint256"
						},
						{
							"internalType": "uint256",
							"name": "needed",
							"type": "uint256"
						}
					],
					"name": "ERC20InsufficientAllowance",
					"type": "error"
				},
				{
					"inputs": [
						{
							"internalType": "address",
							"name": "sender",
							"type": "address"
						},
						{
							"internalType": "uint256",
							"name": "balance",
							"type": "uint256"
						},
						{
							"internalType": "uint256",
							"name": "needed",
							"type": "uint256"
						}
					],
					"name": "ERC20InsufficientBalance",
					"type": "error"
				},
				{
					"inputs": [
						{
							"internalType": "address",
							"name": "approver",
							"type": "address"
						}
					],
					"name": "ERC20InvalidApprover",
					"type": "error"
				},
				{
					"inputs": [
						{
							"internalType": "address",
							"name": "receiver",
							"type": "address"
						}
					],
					"name": "ERC20InvalidReceiver",
					"type": "error"
				},
				{
					"inputs": [
						{
							"internalType": "address",
							"name": "sender",
							"type": "address"
						}
					],
					"name": "ERC20InvalidSender",
					"type": "error"
				},
				{
					"inputs": [
						{
							"internalType": "address",
							"name": "spender",
							"type": "address"
						}
					],
					"name": "ERC20InvalidSpender",
					"type": "error"
				},
				{
					"inputs": [
						{
							"internalType": "address",
							"name": "owner",
							"type": "address"
						}
					],
					"name": "OwnableInvalidOwner",
					"type": "error"
				},
				{
					"inputs": [
						{
							"internalType": "address",
							"name": "account",
							"type": "address"
						}
					],
					"name": "OwnableUnauthorizedAccount",
					"type": "error"
				},
				{
					"anonymous": false,
					"inputs": [
						{
							"indexed": true,
							"internalType": "address",
							"name": "owner",
							"type": "address"
						},
						{
							"indexed": true,
							"internalType": "address",
							"name": "spender",
							"type": "address"
						},
						{
							"indexed": false,
							"internalType": "uint256",
							"name": "value",
							"type": "uint256"
						}
					],
					"name": "Approval",
					"type": "event"
				},
				{
					"anonymous": false,
					"inputs": [
						{
							"indexed": true,
							"internalType": "address",
							"name": "previousOwner",
							"type": "address"
						},
						{
							"indexed": true,
							"internalType": "address",
							"name": "newOwner",
							"type": "address"
						}
					],
					"name": "OwnershipTransferred",
					"type": "event"
				},
				{
					"anonymous": false,
					"inputs": [
						{
							"indexed": true,
							"internalType": "address",
							"name": "from",
							"type": "address"
						},
						{
							"indexed": true,
							"internalType": "address",
							"name": "to",
							"type": "address"
						},
						{
							"indexed": false,
							"internalType": "uint256",
							"name": "value",
							"type": "uint256"
						}
					],
					"name": "Transfer",
					"type": "event"
				},
				{
					"inputs": [
						{
							"internalType": "address",
							"name": "owner",
							"type": "address"
						},
						{
							"internalType": "address",
							"name": "spender",
							"type": "address"
						}
					],
					"name": "allowance",
					"outputs": [
						{
							"internalType": "uint256",
							"name": "",
							"type": "uint256"
						}
					],
					"stateMutability": "view",
					"type": "function"
				},
				{
					"inputs": [
						{
							"internalType": "address",
							"name": "spender",
							"type": "address"
						},
						{
							"internalType": "uint256",
							"name": "value",
							"type": "uint256"
						}
					],
					"name": "approve",
					"outputs": [
						{
							"internalType": "bool",
							"name": "",
							"type": "bool"
						}
					],
					"stateMutability": "nonpayable",
					"type": "function"
				},
				{
					"inputs": [
						{
							"internalType": "address",
							"name": "account",
							"type": "address"
						}
					],
					"name": "balanceOf",
					"outputs": [
						{
							"internalType": "uint256",
							"name": "",
							"type": "uint256"
						}
					],
					"stateMutability": "view",
					"type": "function"
				},
				{
					"inputs": [
						{
							"internalType": "address",
							"name": "from",
							"type": "address"
						},
						{
							"internalType": "uint256",
							"name": "amount",
							"type": "uint256"
						}
					],
					"name": "burn",
					"outputs": [],
					"stateMutability": "nonpayable",
					"type": "function"
				},
				{
					"inputs": [],
					"name": "decimals",
					"outputs": [
						{
							"internalType": "uint8",
							"name": "",
							"type": "uint8"
						}
					],
					"stateMutability": "pure",
					"type": "function"
				},
				{
					"inputs": [],
					"name": "isFirstLevel",
					"outputs": [
						{
							"internalType": "bool",
							"name": "",
							"type": "bool"
						}
					],
					"stateMutability": "view",
					"type": "function"
				},
				{
					"inputs": [
						{
							"internalType": "address",
							"name": "to",
							"type": "address"
						},
						{
							"internalType": "uint256",
							"name": "amount",
							"type": "uint256"
						}
					],
					"name": "mint",
					"outputs": [],
					"stateMutability": "nonpayable",
					"type": "function"
				},
				{
					"inputs": [],
					"name": "name",
					"outputs": [
						{
							"internalType": "string",
							"name": "",
							"type": "string"
						}
					],
					"stateMutability": "view",
					"type": "function"
				},
				{
					"inputs": [],
					"name": "owner",
					"outputs": [
						{
							"internalType": "address",
							"name": "",
							"type": "address"
						}
					],
					"stateMutability": "view",
					"type": "function"
				},
				{
					"inputs": [],
					"name": "renounceOwnership",
					"outputs": [],
					"stateMutability": "nonpayable",
					"type": "function"
				},
				{
					"inputs": [
						{
							"internalType": "enum Resource.Levels",
							"name": "level_",
							"type": "uint8"
						}
					],
					"name": "setLevel",
					"outputs": [],
					"stateMutability": "nonpayable",
					"type": "function"
				},
				{
					"inputs": [],
					"name": "symbol",
					"outputs": [
						{
							"internalType": "string",
							"name": "",
							"type": "string"
						}
					],
					"stateMutability": "view",
					"type": "function"
				},
				{
					"inputs": [],
					"name": "totalSupply",
					"outputs": [
						{
							"internalType": "uint256",
							"name": "",
							"type": "uint256"
						}
					],
					"stateMutability": "view",
					"type": "function"
				},
				{
					"inputs": [
						{
							"internalType": "address",
							"name": "to",
							"type": "address"
						},
						{
							"internalType": "uint256",
							"name": "value",
							"type": "uint256"
						}
					],
					"name": "transfer",
					"outputs": [
						{
							"internalType": "bool",
							"name": "",
							"type": "bool"
						}
					],
					"stateMutability": "nonpayable",
					"type": "function"
				},
				{
					"inputs": [
						{
							"internalType": "address",
							"name": "from",
							"type": "address"
						},
						{
							"internalType": "address",
							"name": "to",
							"type": "address"
						},
						{
							"internalType": "uint256",
							"name": "value",
							"type": "uint256"
						}
					],
					"name": "transferFrom",
					"outputs": [
						{
							"internalType": "bool",
							"name": "",
							"type": "bool"
						}
					],
					"stateMutability": "nonpayable",
					"type": "function"
				},
				{
					"inputs": [
						{
							"internalType": "address",
							"name": "newOwner",
							"type": "address"
						}
					],
					"name": "transferOwnership",
					"outputs": [],
					"stateMutability": "nonpayable",
					"type": "function"
				},
				{
					"inputs": [],
					"name": "unlimitedAllowanceAddress",
					"outputs": [
						{
							"internalType": "address",
							"name": "",
							"type": "address"
						}
					],
					"stateMutability": "view",
					"type": "function"
				}
			],
			"devdoc": {
				"errors": {
					"ERC20InsufficientAllowance(address,uint256,uint256)": [
						{
							"details": "Indicates a failure with the `spender`’s `allowance`. Used in transfers.",
							"params": {
								"allowance": "Amount of tokens a `spender` is allowed to operate with.",
								"needed": "Minimum amount required to perform a transfer.",
								"spender": "Address that may be allowed to operate on tokens without being their owner."
							}
						}
					],
					"ERC20InsufficientBalance(address,uint256,uint256)": [
						{
							"details": "Indicates an error related to the current `balance` of a `sender`. Used in transfers.",
							"params": {
								"balance": "Current balance for the interacting account.",
								"needed": "Minimum amount required to perform a transfer.",
								"sender": "Address whose tokens are being transferred."
							}
						}
					],
					"ERC20InvalidApprover(address)": [
						{
							"details": "Indicates a failure with the `approver` of a token to be approved. Used in approvals.",
							"params": {
								"approver": "Address initiating an approval operation."
							}
						}
					],
					"ERC20InvalidReceiver(address)": [
						{
							"details": "Indicates a failure with the token `receiver`. Used in transfers.",
							"params": {
								"receiver": "Address to which tokens are being transferred."
							}
						}
					],
					"ERC20InvalidSender(address)": [
						{
							"details": "Indicates a failure with the token `sender`. Used in transfers.",
							"params": {
								"sender": "Address whose tokens are being transferred."
							}
						}
					],
					"ERC20InvalidSpender(address)": [
						{
							"details": "Indicates a failure with the `spender` to be approved. Used in approvals.",
							"params": {
								"spender": "Address that may be allowed to operate on tokens without being their owner."
							}
						}
					],
					"OwnableInvalidOwner(address)": [
						{
							"details": "The owner is not a valid owner account. (eg. `address(0)`)"
						}
					],
					"OwnableUnauthorizedAccount(address)": [
						{
							"details": "The caller account is not authorized to perform an operation."
						}
					]
				},
				"events": {
					"Approval(address,address,uint256)": {
						"details": "Emitted when the allowance of a `spender` for an `owner` is set by a call to {approve}. `value` is the new allowance."
					},
					"Transfer(address,address,uint256)": {
						"details": "Emitted when `value` tokens are moved from one account (`from`) to another (`to`). Note that `value` may be zero."
					}
				},
				"kind": "dev",
				"methods": {
					"allowance(address,address)": {
						"details": "See {IERC20-allowance}."
					},
					"approve(address,uint256)": {
						"details": "See {IERC20-approve}. NOTE: If `value` is the maximum `uint256`, the allowance is not updated on `transferFrom`. This is semantically equivalent to an infinite approval. Requirements: - `spender` cannot be the zero address."
					},
					"balanceOf(address)": {
						"details": "See {IERC20-balanceOf}."
					},
					"decimals()": {
						"details": "Returns the number of decimals used to get its user representation. For example, if `decimals` equals `2`, a balance of `505` tokens should be displayed to a user as `5.05` (`505 / 10 ** 2`). Tokens usually opt for a value of 18, imitating the relationship between Ether and Wei. This is the default value returned by this function, unless it's overridden. NOTE: This information is only used for _display_ purposes: it in no way affects any of the arithmetic of the contract, including {IERC20-balanceOf} and {IERC20-transfer}."
					},
					"name()": {
						"details": "Returns the name of the token."
					},
					"owner()": {
						"details": "Returns the address of the current owner."
					},
					"renounceOwnership()": {
						"details": "Leaves the contract without owner. It will not be possible to call `onlyOwner` functions. Can only be called by the current owner. NOTE: Renouncing ownership will leave the contract without an owner, thereby disabling any functionality that is only available to the owner."
					},
					"symbol()": {
						"details": "Returns the symbol of the token, usually a shorter version of the name."
					},
					"totalSupply()": {
						"details": "See {IERC20-totalSupply}."
					},
					"transfer(address,uint256)": {
						"details": "See {IERC20-transfer}. Requirements: - `to` cannot be the zero address. - the caller must have a balance of at least `value`."
					},
					"transferFrom(address,address,uint256)": {
						"details": "See {IERC20-transferFrom}. Emits an {Approval} event indicating the updated allowance. This is not required by the EIP. See the note at the beginning of {ERC20}. NOTE: Does not update the allowance if the current allowance is the maximum `uint256`. Requirements: - `from` and `to` cannot be the zero address. - `from` must have a balance of at least `value`. - the caller must have allowance for ``from``'s tokens of at least `value`."
					},
					"transferOwnership(address)": {
						"details": "Transfers ownership of the contract to a new account (`newOwner`). Can only be called by the current owner."
					}
				},
				"version": 1
			},
			"evm": {
				"assembly": "    /* \"resource.sol\":234:1516  contract Resource is ERC20, Ownable {... */\n  mstore(0x40, 0xa0)\n    /* \"resource.sol\":437:888  constructor(... */\n  callvalue\n  dup1\n  iszero\n  tag_1\n  jumpi\n  0x00\n  dup1\n  revert\ntag_1:\n  pop\n  mload(0x40)\n  sub(codesize, bytecodeSize)\n  dup1\n  bytecodeSize\n  dup4\n  codecopy\n  dup2\n  dup2\n  add\n  0x40\n  mstore\n  dup2\n  add\n  swap1\n  tag_2\n  swap2\n  swap1\n  tag_3\n  jump\t// in\ntag_2:\n    /* \"resource.sol\":608:634  _unlimitedAllowanceAddress */\n  dup2\n    /* \"resource.sol\":586:590  name */\n  dup5\n    /* \"resource.sol\":592:598  symbol */\n  dup5\n    /* \"@openzeppelin/contracts/token/ERC20/ERC20.sol\":1970:1975  name_ */\n  dup2\n    /* \"@openzeppelin/contracts/token/ERC20/ERC20.sol\":1962:1967  _name */\n  0x03\n    /* \"@openzeppelin/contracts/token/ERC20/ERC20.sol\":1962:1975  _name = name_ */\n  swap1\n  dup2\n  tag_8\n  swap2\n  swap1\n  tag_9\n  jump\t// in\ntag_8:\n  pop\n    /* \"@openzeppelin/contracts/token/ERC20/ERC20.sol\":1995:2002  symbol_ */\n  dup1\n    /* \"@openzeppelin/contracts/token/ERC20/ERC20.sol\":1985:1992  _symbol */\n  0x04\n    /* \"@openzeppelin/contracts/token/ERC20/ERC20.sol\":1985:2002  _symbol = symbol_ */\n  swap1\n  dup2\n  tag_10\n  swap2\n  swap1\n  tag_9\n  jump\t// in\ntag_10:\n  pop\n    /* \"@openzeppelin/contracts/token/ERC20/ERC20.sol\":1896:2009  constructor(string memory name_, string memory symbol_) {... */\n  pop\n  pop\n    /* \"@openzeppelin/contracts/access/Ownable.sol\":1297:1298  0 */\n  0x00\n    /* \"@openzeppelin/contracts/access/Ownable.sol\":1273:1299  initialOwner == address(0) */\n  0xffffffffffffffffffffffffffffffffffffffff\n  and\n    /* \"@openzeppelin/contracts/access/Ownable.sol\":1273:1285  initialOwner */\n  dup2\n    /* \"@openzeppelin/contracts/access/Ownable.sol\":1273:1299  initialOwner == address(0) */\n  0xffffffffffffffffffffffffffffffffffffffff\n  and\n  sub\n    /* \"@openzeppelin/contracts/access/Ownable.sol\":1269:1364  if (initialOwner == address(0)) {... */\n  tag_12\n  jumpi\n    /* \"@openzeppelin/contracts/access/Ownable.sol\":1350:1351  0 */\n  0x00\n    /* \"@openzeppelin/contracts/access/Ownable.sol\":1322:1353  OwnableInvalidOwner(address(0)) */\n  mload(0x40)\n  0x1e4fbdf700000000000000000000000000000000000000000000000000000000\n  dup2\n  mstore\n  0x04\n  add\n  tag_13\n  swap2\n  swap1\n  tag_14\n  jump\t// in\ntag_13:\n  mload(0x40)\n  dup1\n  swap2\n  sub\n  swap1\n  revert\n    /* \"@openzeppelin/contracts/access/Ownable.sol\":1269:1364  if (initialOwner == address(0)) {... */\ntag_12:\n    /* \"@openzeppelin/contracts/access/Ownable.sol\":1373:1405  _transferOwnership(initialOwner) */\n  tag_15\n    /* \"@openzeppelin/contracts/access/Ownable.sol\":1392:1404  initialOwner */\n  dup2\n    /* \"@openzeppelin/contracts/access/Ownable.sol\":1373:1391  _transferOwnership */\n  shl(0x20, tag_16)\n    /* \"@openzeppelin/contracts/access/Ownable.sol\":1373:1405  _transferOwnership(initialOwner) */\n  0x20\n  shr\n  jump\t// in\ntag_15:\n    /* \"@openzeppelin/contracts/access/Ownable.sol\":1225:1412  constructor(address initialOwner) {... */\n  pop\n    /* \"resource.sol\":692:693  0 */\n  0x00\n    /* \"resource.sol\":654:694  _unlimitedAllowanceAddress != address(0) */\n  0xffffffffffffffffffffffffffffffffffffffff\n  and\n    /* \"resource.sol\":654:680  _unlimitedAllowanceAddress */\n  dup3\n    /* \"resource.sol\":654:694  _unlimitedAllowanceAddress != address(0) */\n  0xffffffffffffffffffffffffffffffffffffffff\n  and\n  sub\n    /* \"resource.sol\":646:714  require(_unlimitedAllowanceAddress != address(0), \"Invalid address\") */\n  tag_18\n  jumpi\n  mload(0x40)\n  0x08c379a000000000000000000000000000000000000000000000000000000000\n  dup2\n  mstore\n  0x04\n  add\n  tag_19\n  swap1\n  tag_20\n  jump\t// in\ntag_19:\n  mload(0x40)\n  dup1\n  swap2\n  sub\n  swap1\n  revert\ntag_18:\n    /* \"resource.sol\":752:778  _unlimitedAllowanceAddress */\n  dup2\n    /* \"resource.sol\":724:778  unlimitedAllowanceAddress = _unlimitedAllowanceAddress */\n  0xffffffffffffffffffffffffffffffffffffffff\n  and\n  0x80\n  dup2\n  0xffffffffffffffffffffffffffffffffffffffff\n  and\n  dup2\n  mstore\n  pop\n  pop\n    /* \"resource.sol\":788:857  _approve(address(this), unlimitedAllowanceAddress, type(uint256).max) */\n  tag_21\n    /* \"resource.sol\":805:809  this */\n  address\n    /* \"resource.sol\":812:837  unlimitedAllowanceAddress */\n  mload(0x80)\n    /* \"resource.sol\":839:856  type(uint256).max */\n  0xffffffffffffffffffffffffffffffffffffffffffffffffffffffffffffffff\n    /* \"resource.sol\":788:796  _approve */\n  shl(0x20, tag_22)\n    /* \"resource.sol\":788:857  _approve(address(this), unlimitedAllowanceAddress, type(uint256).max) */\n  0x20\n  shr\n  jump\t// in\ntag_21:\n    /* \"resource.sol\":875:881  level_ */\n  dup1\n    /* \"resource.sol\":867:872  level */\n  0x05\n  0x14\n    /* \"resource.sol\":867:881  level = level_ */\n  0x0100\n  exp\n  dup2\n  sload\n  dup2\n  0xff\n  mul\n  not\n  and\n  swap1\n  dup4\n  0x04\n  dup2\n  gt\n  iszero\n  tag_23\n  jumpi\n  tag_24\n  tag_25\n  jump\t// in\ntag_24:\ntag_23:\n  mul\n  or\n  swap1\n  sstore\n  pop\n    /* \"resource.sol\":437:888  constructor(... */\n  pop\n  pop\n  pop\n  pop\n    /* \"resource.sol\":234:1516  contract Resource is ERC20, Ownable {... */\n  jump(tag_26)\n    /* \"@openzeppelin/contracts/access/Ownable.sol\":2912:3099  function _transferOwnership(address newOwner) internal virtual {... */\ntag_16:\n    /* \"@openzeppelin/contracts/access/Ownable.sol\":2985:3001  address oldOwner */\n  0x00\n    /* \"@openzeppelin/contracts/access/Ownable.sol\":3004:3010  _owner */\n  0x05\n  0x00\n  swap1\n  sload\n  swap1\n  0x0100\n  exp\n  swap1\n  div\n  0xffffffffffffffffffffffffffffffffffffffff\n  and\n    /* \"@openzeppelin/contracts/access/Ownable.sol\":2985:3010  address oldOwner = _owner */\n  swap1\n  pop\n    /* \"@openzeppelin/contracts/access/Ownable.sol\":3029:3037  newOwner */\n  dup2\n    /* \"@openzeppelin/contracts/access/Ownable.sol\":3020:3026  _owner */\n  0x05\n  0x00\n    /* \"@openzeppelin/contracts/access/Ownable.sol\":3020:3037  _owner = newOwner */\n  0x0100\n  exp\n  dup2\n  sload\n  dup2\n  0xffffffffffffffffffffffffffffffffffffffff\n  mul\n  not\n  and\n  swap1\n  dup4\n  0xffffffffffffffffffffffffffffffffffffffff\n  and\n  mul\n  or\n  swap1\n  sstore\n  pop\n    /* \"@openzeppelin/contracts/access/Ownable.sol\":3083:3091  newOwner */\n  dup2\n    /* \"@openzeppelin/contracts/access/Ownable.sol\":3052:3092  OwnershipTransferred(oldOwner, newOwner) */\n  0xffffffffffffffffffffffffffffffffffffffff\n  and\n    /* \"@openzeppelin/contracts/access/Ownable.sol\":3073:3081  oldOwner */\n  dup2\n    /* \"@openzeppelin/contracts/access/Ownable.sol\":3052:3092  OwnershipTransferred(oldOwner, newOwner) */\n  0xffffffffffffffffffffffffffffffffffffffff\n  and\n  0x8be0079c531659141344cd1fd0a4f28419497f9722a3daafe3b4186f6b6457e0\n  mload(0x40)\n  mload(0x40)\n  dup1\n  swap2\n  sub\n  swap1\n  log3\n    /* \"@openzeppelin/contracts/access/Ownable.sol\":2975:3099  {... */\n  pop\n    /* \"@openzeppelin/contracts/access/Ownable.sol\":2912:3099  function _transferOwnership(address newOwner) internal virtual {... */\n  pop\n  jump\t// out\n    /* \"@openzeppelin/contracts/token/ERC20/ERC20.sol\":8989:9117  function _approve(address owner, address spender, uint256 value) internal {... */\ntag_22:\n    /* \"@openzeppelin/contracts/token/ERC20/ERC20.sol\":9073:9110  _approve(owner, spender, value, true) */\n  tag_29\n    /* \"@openzeppelin/contracts/token/ERC20/ERC20.sol\":9082:9087  owner */\n  dup4\n    /* \"@openzeppelin/contracts/token/ERC20/ERC20.sol\":9089:9096  spender */\n  dup4\n    /* \"@openzeppelin/contracts/token/ERC20/ERC20.sol\":9098:9103  value */\n  dup4\n    /* \"@openzeppelin/contracts/token/ERC20/ERC20.sol\":9105:9109  true */\n  0x01\n    /* \"@openzeppelin/contracts/token/ERC20/ERC20.sol\":9073:9081  _approve */\n  shl(0x20, tag_30)\n    /* \"@openzeppelin/contracts/token/ERC20/ERC20.sol\":9073:9110  _approve(owner, spender, value, true) */\n  0x20\n  shr\n  jump\t// in\ntag_29:\n    /* \"@openzeppelin/contracts/token/ERC20/ERC20.sol\":8989:9117  function _approve(address owner, address spender, uint256 value) internal {... */\n  pop\n  pop\n  pop\n  jump\t// out\n    /* \"@openzeppelin/contracts/token/ERC20/ERC20.sol\":9949:10381  function _approve(address owner, address spender, uint256 value, bool emitEvent) internal virtual {... */\ntag_30:\n    /* \"@openzeppelin/contracts/token/ERC20/ERC20.sol\":10078:10079  0 */\n  0x00\n    /* \"@openzeppelin/contracts/token/ERC20/ERC20.sol\":10061:10080  owner == address(0) */\n  0xffffffffffffffffffffffffffffffffffffffff\n  and\n    /* \"@openzeppelin/contracts/token/ERC20/ERC20.sol\":10061:10066  owner */\n  dup5\n    /* \"@openzeppelin/contracts/token/ERC20/ERC20.sol\":10061:10080  owner == address(0) */\n  0xffffffffffffffffffffffffffffffffffffffff\n  and\n  sub\n    /* \"@openzeppelin/contracts/token/ERC20/ERC20.sol\":10057:10146  if (owner == address(0)) {... */\n  tag_32\n  jumpi\n    /* \"@openzeppelin/contracts/token/ERC20/ERC20.sol\":10132:10133  0 */\n  0x00\n    /* \"@openzeppelin/contracts/token/ERC20/ERC20.sol\":10103:10135  ERC20InvalidApprover(address(0)) */\n  mload(0x40)\n  0xe602df0500000000000000000000000000000000000000000000000000000000\n  dup2\n  mstore\n  0x04\n  add\n  tag_33\n  swap2\n  swap1\n  tag_14\n  jump\t// in\ntag_33:\n  mload(0x40)\n  dup1\n  swap2\n  sub\n  swap1\n  revert\n    /* \"@openzeppelin/contracts/token/ERC20/ERC20.sol\":10057:10146  if (owner == address(0)) {... */\ntag_32:\n    /* \"@openzeppelin/contracts/token/ERC20/ERC20.sol\":10178:10179  0 */\n  0x00\n    /* \"@openzeppelin/contracts/token/ERC20/ERC20.sol\":10159:10180  spender == address(0) */\n  0xffffffffffffffffffffffffffffffffffffffff\n  and\n    /* \"@openzeppelin/contracts/token/ERC20/ERC20.sol\":10159:10166  spender */\n  dup4\n    /* \"@openzeppelin/contracts/token/ERC20/ERC20.sol\":10159:10180  spender == address(0) */\n  0xffffffffffffffffffffffffffffffffffffffff\n  and\n  sub\n    /* \"@openzeppelin/contracts/token/ERC20/ERC20.sol\":10155:10245  if (spender == address(0)) {... */\n  tag_34\n  jumpi\n    /* \"@openzeppelin/contracts/token/ERC20/ERC20.sol\":10231:10232  0 */\n  0x00\n    /* \"@openzeppelin/contracts/token/ERC20/ERC20.sol\":10203:10234  ERC20InvalidSpender(address(0)) */\n  mload(0x40)\n  0x94280d6200000000000000000000000000000000000000000000000000000000\n  dup2\n  mstore\n  0x04\n  add\n  tag_35\n  swap2\n  swap1\n  tag_14\n  jump\t// in\ntag_35:\n  mload(0x40)\n  dup1\n  swap2\n  sub\n  swap1\n  revert\n    /* \"@openzeppelin/contracts/token/ERC20/ERC20.sol\":10155:10245  if (spender == address(0)) {... */\ntag_34:\n    /* \"@openzeppelin/contracts/token/ERC20/ERC20.sol\":10284:10289  value */\n  dup2\n    /* \"@openzeppelin/contracts/token/ERC20/ERC20.sol\":10254:10265  _allowances */\n  0x01\n    /* \"@openzeppelin/contracts/token/ERC20/ERC20.sol\":10254:10272  _allowances[owner] */\n  0x00\n    /* \"@openzeppelin/contracts/token/ERC20/ERC20.sol\":10266:10271  owner */\n  dup7\n    /* \"@openzeppelin/contracts/token/ERC20/ERC20.sol\":10254:10272  _allowances[owner] */\n  0xffffffffffffffffffffffffffffffffffffffff\n  and\n  0xffffffffffffffffffffffffffffffffffffffff\n  and\n  dup2\n  mstore\n  0x20\n  add\n  swap1\n  dup2\n  mstore\n  0x20\n  add\n  0x00\n  keccak256\n    /* \"@openzeppelin/contracts/token/ERC20/ERC20.sol\":10254:10281  _allowances[owner][spender] */\n  0x00\n    /* \"@openzeppelin/contracts/token/ERC20/ERC20.sol\":10273:10280  spender */\n  dup6\n    /* \"@openzeppelin/contracts/token/ERC20/ERC20.sol\":10254:10281  _allowances[owner][spender] */\n  0xffffffffffffffffffffffffffffffffffffffff\n  and\n  0xffffffffffffffffffffffffffffffffffffffff\n  and\n  dup2\n  mstore\n  0x20\n  add\n  swap1\n  dup2\n  mstore\n  0x20\n  add\n  0x00\n  keccak256\n    /* \"@openzeppelin/contracts/token/ERC20/ERC20.sol\":10254:10289  _allowances[owner][spender] = value */\n  dup2\n  swap1\n  sstore\n  pop\n    /* \"@openzeppelin/contracts/token/ERC20/ERC20.sol\":10303:10312  emitEvent */\n  dup1\n    /* \"@openzeppelin/contracts/token/ERC20/ERC20.sol\":10299:10375  if (emitEvent) {... */\n  iszero\n  tag_36\n  jumpi\n    /* \"@openzeppelin/contracts/token/ERC20/ERC20.sol\":10349:10356  spender */\n  dup3\n    /* \"@openzeppelin/contracts/token/ERC20/ERC20.sol\":10333:10364  Approval(owner, spender, value) */\n  0xffffffffffffffffffffffffffffffffffffffff\n  and\n    /* \"@openzeppelin/contracts/token/ERC20/ERC20.sol\":10342:10347  owner */\n  dup5\n    /* \"@openzeppelin/contracts/token/ERC20/ERC20.sol\":10333:10364  Approval(owner, spender, value) */\n  0xffffffffffffffffffffffffffffffffffffffff\n  and\n  0x8c5be1e5ebec7d5bd14f71427d1e84f3dd0314c0f7b2291e5b200ac8c7c3b925\n    /* \"@openzeppelin/contracts/token/ERC20/ERC20.sol\":10358:10363  value */\n  dup5\n    /* \"@openzeppelin/contracts/token/ERC20/ERC20.sol\":10333:10364  Approval(owner, spender, value) */\n  mload(0x40)\n  tag_37\n  swap2\n  swap1\n  tag_38\n  jump\t// in\ntag_37:\n  mload(0x40)\n  dup1\n  swap2\n  sub\n  swap1\n  log3\n    /* \"@openzeppelin/contracts/token/ERC20/ERC20.sol\":10299:10375  if (emitEvent) {... */\ntag_36:\n    /* \"@openzeppelin/contracts/token/ERC20/ERC20.sol\":9949:10381  function _approve(address owner, address spender, uint256 value, bool emitEvent) internal virtual {... */\n  pop\n  pop\n  pop\n  pop\n  jump\t// out\n    /* \"#utility.yul\":7:82   */\ntag_39:\n    /* \"#utility.yul\":40:46   */\n  0x00\n    /* \"#utility.yul\":73:75   */\n  0x40\n    /* \"#utility.yul\":67:76   */\n  mload\n    /* \"#utility.yul\":57:76   */\n  swap1\n  pop\n    /* \"#utility.yul\":7:82   */\n  swap1\n  jump\t// out\n    /* \"#utility.yul\":88:205   */\ntag_40:\n    /* \"#utility.yul\":197:198   */\n  0x00\n    /* \"#utility.yul\":194:195   */\n  dup1\n    /* \"#utility.yul\":187:199   */\n  revert\n    /* \"#utility.yul\":211:328   */\ntag_41:\n    /* \"#utility.yul\":320:321   */\n  0x00\n    /* \"#utility.yul\":317:318   */\n  dup1\n    /* \"#utility.yul\":310:322   */\n  revert\n    /* \"#utility.yul\":334:451   */\ntag_42:\n    /* \"#utility.yul\":443:444   */\n  0x00\n    /* \"#utility.yul\":440:441   */\n  dup1\n    /* \"#utility.yul\":433:445   */\n  revert\n    /* \"#utility.yul\":457:574   */\ntag_43:\n    /* \"#utility.yul\":566:567   */\n  0x00\n    /* \"#utility.yul\":563:564   */\n  dup1\n    /* \"#utility.yul\":556:568   */\n  revert\n    /* \"#utility.yul\":580:682   */\ntag_44:\n    /* \"#utility.yul\":621:627   */\n  0x00\n    /* \"#utility.yul\":672:674   */\n  0x1f\n    /* \"#utility.yul\":668:675   */\n  not\n    /* \"#utility.yul\":663:665   */\n  0x1f\n    /* \"#utility.yul\":656:661   */\n  dup4\n    /* \"#utility.yul\":652:666   */\n  add\n    /* \"#utility.yul\":648:676   */\n  and\n    /* \"#utility.yul\":638:676   */\n  swap1\n  pop\n    /* \"#utility.yul\":580:682   */\n  swap2\n  swap1\n  pop\n  jump\t// out\n    /* \"#utility.yul\":688:868   */\ntag_45:\n    /* \"#utility.yul\":736:813   */\n  0x4e487b7100000000000000000000000000000000000000000000000000000000\n    /* \"#utility.yul\":733:734   */\n  0x00\n    /* \"#utility.yul\":726:814   */\n  mstore\n    /* \"#utility.yul\":833:837   */\n  0x41\n    /* \"#utility.yul\":830:831   */\n  0x04\n    /* \"#utility.yul\":823:838   */\n  mstore\n    /* \"#utility.yul\":857:861   */\n  0x24\n    /* \"#utility.yul\":854:855   */\n  0x00\n    /* \"#utility.yul\":847:862   */\n  revert\n    /* \"#utility.yul\":874:1155   */\ntag_46:\n    /* \"#utility.yul\":957:984   */\n  tag_91\n    /* \"#utility.yul\":979:983   */\n  dup3\n    /* \"#utility.yul\":957:984   */\n  tag_44\n  jump\t// in\ntag_91:\n    /* \"#utility.yul\":949:955   */\n  dup2\n    /* \"#utility.yul\":945:985   */\n  add\n    /* \"#utility.yul\":1087:1093   */\n  dup2\n    /* \"#utility.yul\":1075:1085   */\n  dup2\n    /* \"#utility.yul\":1072:1094   */\n  lt\n    /* \"#utility.yul\":1051:1069   */\n  0xffffffffffffffff\n    /* \"#utility.yul\":1039:1049   */\n  dup3\n    /* \"#utility.yul\":1036:1070   */\n  gt\n    /* \"#utility.yul\":1033:1095   */\n  or\n    /* \"#utility.yul\":1030:1118   */\n  iszero\n  tag_92\n  jumpi\n    /* \"#utility.yul\":1098:1116   */\n  tag_93\n  tag_45\n  jump\t// in\ntag_93:\n    /* \"#utility.yul\":1030:1118   */\ntag_92:\n    /* \"#utility.yul\":1138:1148   */\n  dup1\n    /* \"#utility.yul\":1134:1136   */\n  0x40\n    /* \"#utility.yul\":1127:1149   */\n  mstore\n    /* \"#utility.yul\":917:1155   */\n  pop\n    /* \"#utility.yul\":874:1155   */\n  pop\n  pop\n  jump\t// out\n    /* \"#utility.yul\":1161:1290   */\ntag_47:\n    /* \"#utility.yul\":1195:1201   */\n  0x00\n    /* \"#utility.yul\":1222:1242   */\n  tag_95\n  tag_39\n  jump\t// in\ntag_95:\n    /* \"#utility.yul\":1212:1242   */\n  swap1\n  pop\n    /* \"#utility.yul\":1251:1284   */\n  tag_96\n    /* \"#utility.yul\":1279:1283   */\n  dup3\n    /* \"#utility.yul\":1271:1277   */\n  dup3\n    /* \"#utility.yul\":1251:1284   */\n  tag_46\n  jump\t// in\ntag_96:\n    /* \"#utility.yul\":1161:1290   */\n  swap2\n  swap1\n  pop\n  jump\t// out\n    /* \"#utility.yul\":1296:1604   */\ntag_48:\n    /* \"#utility.yul\":1358:1362   */\n  0x00\n    /* \"#utility.yul\":1448:1466   */\n  0xffffffffffffffff\n    /* \"#utility.yul\":1440:1446   */\n  dup3\n    /* \"#utility.yul\":1437:1467   */\n  gt\n    /* \"#utility.yul\":1434:1490   */\n  iszero\n  tag_98\n  jumpi\n    /* \"#utility.yul\":1470:1488   */\n  tag_99\n  tag_45\n  jump\t// in\ntag_99:\n    /* \"#utility.yul\":1434:1490   */\ntag_98:\n    /* \"#utility.yul\":1508:1537   */\n  tag_100\n    /* \"#utility.yul\":1530:1536   */\n  dup3\n    /* \"#utility.yul\":1508:1537   */\n  tag_44\n  jump\t// in\ntag_100:\n    /* \"#utility.yul\":1500:1537   */\n  swap1\n  pop\n    /* \"#utility.yul\":1592:1596   */\n  0x20\n    /* \"#utility.yul\":1586:1590   */\n  dup2\n    /* \"#utility.yul\":1582:1597   */\n  add\n    /* \"#utility.yul\":1574:1597   */\n  swap1\n  pop\n    /* \"#utility.yul\":1296:1604   */\n  swap2\n  swap1\n  pop\n  jump\t// out\n    /* \"#utility.yul\":1610:1856   */\ntag_49:\n    /* \"#utility.yul\":1691:1692   */\n  0x00\n    /* \"#utility.yul\":1701:1814   */\ntag_102:\n    /* \"#utility.yul\":1715:1721   */\n  dup4\n    /* \"#utility.yul\":1712:1713   */\n  dup2\n    /* \"#utility.yul\":1709:1722   */\n  lt\n    /* \"#utility.yul\":1701:1814   */\n  iszero\n  tag_104\n  jumpi\n    /* \"#utility.yul\":1800:1801   */\n  dup1\n    /* \"#utility.yul\":1795:1798   */\n  dup3\n    /* \"#utility.yul\":1791:1802   */\n  add\n    /* \"#utility.yul\":1785:1803   */\n  mload\n    /* \"#utility.yul\":1781:1782   */\n  dup2\n    /* \"#utility.yul\":1776:1779   */\n  dup5\n    /* \"#utility.yul\":1772:1783   */\n  add\n    /* \"#utility.yul\":1765:1804   */\n  mstore\n    /* \"#utility.yul\":1737:1739   */\n  0x20\n    /* \"#utility.yul\":1734:1735   */\n  dup2\n    /* \"#utility.yul\":1730:1740   */\n  add\n    /* \"#utility.yul\":1725:1740   */\n  swap1\n  pop\n    /* \"#utility.yul\":1701:1814   */\n  jump(tag_102)\ntag_104:\n    /* \"#utility.yul\":1848:1849   */\n  0x00\n    /* \"#utility.yul\":1839:1845   */\n  dup5\n    /* \"#utility.yul\":1834:1837   */\n  dup5\n    /* \"#utility.yul\":1830:1846   */\n  add\n    /* \"#utility.yul\":1823:1850   */\n  mstore\n    /* \"#utility.yul\":1672:1856   */\n  pop\n    /* \"#utility.yul\":1610:1856   */\n  pop\n  pop\n  pop\n  jump\t// out\n    /* \"#utility.yul\":1862:2296   */\ntag_50:\n    /* \"#utility.yul\":1951:1956   */\n  0x00\n    /* \"#utility.yul\":1976:2042   */\n  tag_106\n    /* \"#utility.yul\":1992:2041   */\n  tag_107\n    /* \"#utility.yul\":2034:2040   */\n  dup5\n    /* \"#utility.yul\":1992:2041   */\n  tag_48\n  jump\t// in\ntag_107:\n    /* \"#utility.yul\":1976:2042   */\n  tag_47\n  jump\t// in\ntag_106:\n    /* \"#utility.yul\":1967:2042   */\n  swap1\n  pop\n    /* \"#utility.yul\":2065:2071   */\n  dup3\n    /* \"#utility.yul\":2058:2063   */\n  dup2\n    /* \"#utility.yul\":2051:2072   */\n  mstore\n    /* \"#utility.yul\":2103:2107   */\n  0x20\n    /* \"#utility.yul\":2096:2101   */\n  dup2\n    /* \"#utility.yul\":2092:2108   */\n  add\n    /* \"#utility.yul\":2141:2144   */\n  dup5\n    /* \"#utility.yul\":2132:2138   */\n  dup5\n    /* \"#utility.yul\":2127:2130   */\n  dup5\n    /* \"#utility.yul\":2123:2139   */\n  add\n    /* \"#utility.yul\":2120:2145   */\n  gt\n    /* \"#utility.yul\":2117:2229   */\n  iszero\n  tag_108\n  jumpi\n    /* \"#utility.yul\":2148:2227   */\n  tag_109\n  tag_43\n  jump\t// in\ntag_109:\n    /* \"#utility.yul\":2117:2229   */\ntag_108:\n    /* \"#utility.yul\":2238:2290   */\n  tag_110\n    /* \"#utility.yul\":2283:2289   */\n  dup5\n    /* \"#utility.yul\":2278:2281   */\n  dup3\n    /* \"#utility.yul\":2273:2276   */\n  dup6\n    /* \"#utility.yul\":2238:2290   */\n  tag_49\n  jump\t// in\ntag_110:\n    /* \"#utility.yul\":1957:2296   */\n  pop\n    /* \"#utility.yul\":1862:2296   */\n  swap4\n  swap3\n  pop\n  pop\n  pop\n  jump\t// out\n    /* \"#utility.yul\":2316:2671   */\ntag_51:\n    /* \"#utility.yul\":2383:2388   */\n  0x00\n    /* \"#utility.yul\":2432:2435   */\n  dup3\n    /* \"#utility.yul\":2425:2429   */\n  0x1f\n    /* \"#utility.yul\":2417:2423   */\n  dup4\n    /* \"#utility.yul\":2413:2430   */\n  add\n    /* \"#utility.yul\":2409:2436   */\n  slt\n    /* \"#utility.yul\":2399:2521   */\n  tag_112\n  jumpi\n    /* \"#utility.yul\":2440:2519   */\n  tag_113\n  tag_42\n  jump\t// in\ntag_113:\n    /* \"#utility.yul\":2399:2521   */\ntag_112:\n    /* \"#utility.yul\":2550:2556   */\n  dup2\n    /* \"#utility.yul\":2544:2557   */\n  mload\n    /* \"#utility.yul\":2575:2665   */\n  tag_114\n    /* \"#utility.yul\":2661:2664   */\n  dup5\n    /* \"#utility.yul\":2653:2659   */\n  dup3\n    /* \"#utility.yul\":2646:2650   */\n  0x20\n    /* \"#utility.yul\":2638:2644   */\n  dup7\n    /* \"#utility.yul\":2634:2651   */\n  add\n    /* \"#utility.yul\":2575:2665   */\n  tag_50\n  jump\t// in\ntag_114:\n    /* \"#utility.yul\":2566:2665   */\n  swap2\n  pop\n    /* \"#utility.yul\":2389:2671   */\n  pop\n    /* \"#utility.yul\":2316:2671   */\n  swap3\n  swap2\n  pop\n  pop\n  jump\t// out\n    /* \"#utility.yul\":2677:2803   */\ntag_52:\n    /* \"#utility.yul\":2714:2721   */\n  0x00\n    /* \"#utility.yul\":2754:2796   */\n  0xffffffffffffffffffffffffffffffffffffffff\n    /* \"#utility.yul\":2747:2752   */\n  dup3\n    /* \"#utility.yul\":2743:2797   */\n  and\n    /* \"#utility.yul\":2732:2797   */\n  swap1\n  pop\n    /* \"#utility.yul\":2677:2803   */\n  swap2\n  swap1\n  pop\n  jump\t// out\n    /* \"#utility.yul\":2809:2905   */\ntag_53:\n    /* \"#utility.yul\":2846:2853   */\n  0x00\n    /* \"#utility.yul\":2875:2899   */\n  tag_117\n    /* \"#utility.yul\":2893:2898   */\n  dup3\n    /* \"#utility.yul\":2875:2899   */\n  tag_52\n  jump\t// in\ntag_117:\n    /* \"#utility.yul\":2864:2899   */\n  swap1\n  pop\n    /* \"#utility.yul\":2809:2905   */\n  swap2\n  swap1\n  pop\n  jump\t// out\n    /* \"#utility.yul\":2911:3033   */\ntag_54:\n    /* \"#utility.yul\":2984:3008   */\n  tag_119\n    /* \"#utility.yul\":3002:3007   */\n  dup2\n    /* \"#utility.yul\":2984:3008   */\n  tag_53\n  jump\t// in\ntag_119:\n    /* \"#utility.yul\":2977:2982   */\n  dup2\n    /* \"#utility.yul\":2974:3009   */\n  eq\n    /* \"#utility.yul\":2964:3027   */\n  tag_120\n  jumpi\n    /* \"#utility.yul\":3023:3024   */\n  0x00\n    /* \"#utility.yul\":3020:3021   */\n  dup1\n    /* \"#utility.yul\":3013:3025   */\n  revert\n    /* \"#utility.yul\":2964:3027   */\ntag_120:\n    /* \"#utility.yul\":2911:3033   */\n  pop\n  jump\t// out\n    /* \"#utility.yul\":3039:3182   */\ntag_55:\n    /* \"#utility.yul\":3096:3101   */\n  0x00\n    /* \"#utility.yul\":3127:3133   */\n  dup2\n    /* \"#utility.yul\":3121:3134   */\n  mload\n    /* \"#utility.yul\":3112:3134   */\n  swap1\n  pop\n    /* \"#utility.yul\":3143:3176   */\n  tag_122\n    /* \"#utility.yul\":3170:3175   */\n  dup2\n    /* \"#utility.yul\":3143:3176   */\n  tag_54\n  jump\t// in\ntag_122:\n    /* \"#utility.yul\":3039:3182   */\n  swap3\n  swap2\n  pop\n  pop\n  jump\t// out\n    /* \"#utility.yul\":3188:3298   */\ntag_56:\n    /* \"#utility.yul\":3272:3273   */\n  0x05\n    /* \"#utility.yul\":3265:3270   */\n  dup2\n    /* \"#utility.yul\":3262:3274   */\n  lt\n    /* \"#utility.yul\":3252:3292   */\n  tag_124\n  jumpi\n    /* \"#utility.yul\":3288:3289   */\n  0x00\n    /* \"#utility.yul\":3285:3286   */\n  dup1\n    /* \"#utility.yul\":3278:3290   */\n  revert\n    /* \"#utility.yul\":3252:3292   */\ntag_124:\n    /* \"#utility.yul\":3188:3298   */\n  pop\n  jump\t// out\n    /* \"#utility.yul\":3304:3469   */\ntag_57:\n    /* \"#utility.yul\":3372:3377   */\n  0x00\n    /* \"#utility.yul\":3403:3409   */\n  dup2\n    /* \"#utility.yul\":3397:3410   */\n  mload\n    /* \"#utility.yul\":3388:3410   */\n  swap1\n  pop\n    /* \"#utility.yul\":3419:3463   */\n  tag_126\n    /* \"#utility.yul\":3457:3462   */\n  dup2\n    /* \"#utility.yul\":3419:3463   */\n  tag_56\n  jump\t// in\ntag_126:\n    /* \"#utility.yul\":3304:3469   */\n  swap3\n  swap2\n  pop\n  pop\n  jump\t// out\n    /* \"#utility.yul\":3475:4663   */\ntag_3:\n    /* \"#utility.yul\":3603:3609   */\n  0x00\n    /* \"#utility.yul\":3611:3617   */\n  dup1\n    /* \"#utility.yul\":3619:3625   */\n  0x00\n    /* \"#utility.yul\":3627:3633   */\n  dup1\n    /* \"#utility.yul\":3676:3679   */\n  0x80\n    /* \"#utility.yul\":3664:3673   */\n  dup6\n    /* \"#utility.yul\":3655:3662   */\n  dup8\n    /* \"#utility.yul\":3651:3674   */\n  sub\n    /* \"#utility.yul\":3647:3680   */\n  slt\n    /* \"#utility.yul\":3644:3764   */\n  iszero\n  tag_128\n  jumpi\n    /* \"#utility.yul\":3683:3762   */\n  tag_129\n  tag_40\n  jump\t// in\ntag_129:\n    /* \"#utility.yul\":3644:3764   */\ntag_128:\n    /* \"#utility.yul\":3824:3825   */\n  0x00\n    /* \"#utility.yul\":3813:3822   */\n  dup6\n    /* \"#utility.yul\":3809:3826   */\n  add\n    /* \"#utility.yul\":3803:3827   */\n  mload\n    /* \"#utility.yul\":3854:3872   */\n  0xffffffffffffffff\n    /* \"#utility.yul\":3846:3852   */\n  dup2\n    /* \"#utility.yul\":3843:3873   */\n  gt\n    /* \"#utility.yul\":3840:3957   */\n  iszero\n  tag_130\n  jumpi\n    /* \"#utility.yul\":3876:3955   */\n  tag_131\n  tag_41\n  jump\t// in\ntag_131:\n    /* \"#utility.yul\":3840:3957   */\ntag_130:\n    /* \"#utility.yul\":3981:4055   */\n  tag_132\n    /* \"#utility.yul\":4047:4054   */\n  dup8\n    /* \"#utility.yul\":4038:4044   */\n  dup3\n    /* \"#utility.yul\":4027:4036   */\n  dup9\n    /* \"#utility.yul\":4023:4045   */\n  add\n    /* \"#utility.yul\":3981:4055   */\n  tag_51\n  jump\t// in\ntag_132:\n    /* \"#utility.yul\":3971:4055   */\n  swap5\n  pop\n    /* \"#utility.yul\":3774:4065   */\n  pop\n    /* \"#utility.yul\":4125:4127   */\n  0x20\n    /* \"#utility.yul\":4114:4123   */\n  dup6\n    /* \"#utility.yul\":4110:4128   */\n  add\n    /* \"#utility.yul\":4104:4129   */\n  mload\n    /* \"#utility.yul\":4156:4174   */\n  0xffffffffffffffff\n    /* \"#utility.yul\":4148:4154   */\n  dup2\n    /* \"#utility.yul\":4145:4175   */\n  gt\n    /* \"#utility.yul\":4142:4259   */\n  iszero\n  tag_133\n  jumpi\n    /* \"#utility.yul\":4178:4257   */\n  tag_134\n  tag_41\n  jump\t// in\ntag_134:\n    /* \"#utility.yul\":4142:4259   */\ntag_133:\n    /* \"#utility.yul\":4283:4357   */\n  tag_135\n    /* \"#utility.yul\":4349:4356   */\n  dup8\n    /* \"#utility.yul\":4340:4346   */\n  dup3\n    /* \"#utility.yul\":4329:4338   */\n  dup9\n    /* \"#utility.yul\":4325:4347   */\n  add\n    /* \"#utility.yul\":4283:4357   */\n  tag_51\n  jump\t// in\ntag_135:\n    /* \"#utility.yul\":4273:4357   */\n  swap4\n  pop\n    /* \"#utility.yul\":4075:4367   */\n  pop\n    /* \"#utility.yul\":4406:4408   */\n  0x40\n    /* \"#utility.yul\":4432:4496   */\n  tag_136\n    /* \"#utility.yul\":4488:4495   */\n  dup8\n    /* \"#utility.yul\":4479:4485   */\n  dup3\n    /* \"#utility.yul\":4468:4477   */\n  dup9\n    /* \"#utility.yul\":4464:4486   */\n  add\n    /* \"#utility.yul\":4432:4496   */\n  tag_55\n  jump\t// in\ntag_136:\n    /* \"#utility.yul\":4422:4496   */\n  swap3\n  pop\n    /* \"#utility.yul\":4377:4506   */\n  pop\n    /* \"#utility.yul\":4545:4547   */\n  0x60\n    /* \"#utility.yul\":4571:4646   */\n  tag_137\n    /* \"#utility.yul\":4638:4645   */\n  dup8\n    /* \"#utility.yul\":4629:4635   */\n  dup3\n    /* \"#utility.yul\":4618:4627   */\n  dup9\n    /* \"#utility.yul\":4614:4636   */\n  add\n    /* \"#utility.yul\":4571:4646   */\n  tag_57\n  jump\t// in\ntag_137:\n    /* \"#utility.yul\":4561:4646   */\n  swap2\n  pop\n    /* \"#utility.yul\":4516:4656   */\n  pop\n    /* \"#utility.yul\":3475:4663   */\n  swap3\n  swap6\n  swap2\n  swap5\n  pop\n  swap3\n  pop\n  jump\t// out\n    /* \"#utility.yul\":4669:4768   */\ntag_58:\n    /* \"#utility.yul\":4721:4727   */\n  0x00\n    /* \"#utility.yul\":4755:4760   */\n  dup2\n    /* \"#utility.yul\":4749:4761   */\n  mload\n    /* \"#utility.yul\":4739:4761   */\n  swap1\n  pop\n    /* \"#utility.yul\":4669:4768   */\n  swap2\n  swap1\n  pop\n  jump\t// out\n    /* \"#utility.yul\":4774:4954   */\ntag_59:\n    /* \"#utility.yul\":4822:4899   */\n  0x4e487b7100000000000000000000000000000000000000000000000000000000\n    /* \"#utility.yul\":4819:4820   */\n  0x00\n    /* \"#utility.yul\":4812:4900   */\n  mstore\n    /* \"#utility.yul\":4919:4923   */\n  0x22\n    /* \"#utility.yul\":4916:4917   */\n  0x04\n    /* \"#utility.yul\":4909:4924   */\n  mstore\n    /* \"#utility.yul\":4943:4947   */\n  0x24\n    /* \"#utility.yul\":4940:4941   */\n  0x00\n    /* \"#utility.yul\":4933:4948   */\n  revert\n    /* \"#utility.yul\":4960:5280   */\ntag_60:\n    /* \"#utility.yul\":5004:5010   */\n  0x00\n    /* \"#utility.yul\":5041:5042   */\n  0x02\n    /* \"#utility.yul\":5035:5039   */\n  dup3\n    /* \"#utility.yul\":5031:5043   */\n  div\n    /* \"#utility.yul\":5021:5043   */\n  swap1\n  pop\n    /* \"#utility.yul\":5088:5089   */\n  0x01\n    /* \"#utility.yul\":5082:5086   */\n  dup3\n    /* \"#utility.yul\":5078:5090   */\n  and\n    /* \"#utility.yul\":5109:5127   */\n  dup1\n    /* \"#utility.yul\":5099:5180   */\n  tag_141\n  jumpi\n    /* \"#utility.yul\":5165:5169   */\n  0x7f\n    /* \"#utility.yul\":5157:5163   */\n  dup3\n    /* \"#utility.yul\":5153:5170   */\n  and\n    /* \"#utility.yul\":5143:5170   */\n  swap2\n  pop\n    /* \"#utility.yul\":5099:5180   */\ntag_141:\n    /* \"#utility.yul\":5227:5229   */\n  0x20\n    /* \"#utility.yul\":5219:5225   */\n  dup3\n    /* \"#utility.yul\":5216:5230   */\n  lt\n    /* \"#utility.yul\":5196:5214   */\n  dup2\n    /* \"#utility.yul\":5193:5231   */\n  sub\n    /* \"#utility.yul\":5190:5274   */\n  tag_142\n  jumpi\n    /* \"#utility.yul\":5246:5264   */\n  tag_143\n  tag_59\n  jump\t// in\ntag_143:\n    /* \"#utility.yul\":5190:5274   */\ntag_142:\n    /* \"#utility.yul\":5011:5280   */\n  pop\n    /* \"#utility.yul\":4960:5280   */\n  swap2\n  swap1\n  pop\n  jump\t// out\n    /* \"#utility.yul\":5286:5427   */\ntag_61:\n    /* \"#utility.yul\":5335:5339   */\n  0x00\n    /* \"#utility.yul\":5358:5361   */\n  dup2\n    /* \"#utility.yul\":5350:5361   */\n  swap1\n  pop\n    /* \"#utility.yul\":5381:5384   */\n  dup2\n    /* \"#utility.yul\":5378:5379   */\n  0x00\n    /* \"#utility.yul\":5371:5385   */\n  mstore\n    /* \"#utility.yul\":5415:5419   */\n  0x20\n    /* \"#utility.yul\":5412:5413   */\n  0x00\n    /* \"#utility.yul\":5402:5420   */\n  keccak256\n    /* \"#utility.yul\":5394:5420   */\n  swap1\n  pop\n    /* \"#utility.yul\":5286:5427   */\n  swap2\n  swap1\n  pop\n  jump\t// out\n    /* \"#utility.yul\":5433:5526   */\ntag_62:\n    /* \"#utility.yul\":5470:5476   */\n  0x00\n    /* \"#utility.yul\":5517:5519   */\n  0x20\n    /* \"#utility.yul\":5512:5514   */\n  0x1f\n    /* \"#utility.yul\":5505:5510   */\n  dup4\n    /* \"#utility.yul\":5501:5515   */\n  add\n    /* \"#utility.yul\":5497:5520   */\n  div\n    /* \"#utility.yul\":5487:5520   */\n  swap1\n  pop\n    /* \"#utility.yul\":5433:5526   */\n  swap2\n  swap1\n  pop\n  jump\t// out\n    /* \"#utility.yul\":5532:5639   */\ntag_63:\n    /* \"#utility.yul\":5576:5584   */\n  0x00\n    /* \"#utility.yul\":5626:5631   */\n  dup3\n    /* \"#utility.yul\":5620:5624   */\n  dup3\n    /* \"#utility.yul\":5616:5632   */\n  shl\n    /* \"#utility.yul\":5595:5632   */\n  swap1\n  pop\n    /* \"#utility.yul\":5532:5639   */\n  swap3\n  swap2\n  pop\n  pop\n  jump\t// out\n    /* \"#utility.yul\":5645:6038   */\ntag_64:\n    /* \"#utility.yul\":5714:5720   */\n  0x00\n    /* \"#utility.yul\":5764:5765   */\n  0x08\n    /* \"#utility.yul\":5752:5762   */\n  dup4\n    /* \"#utility.yul\":5748:5766   */\n  mul\n    /* \"#utility.yul\":5787:5884   */\n  tag_148\n    /* \"#utility.yul\":5817:5883   */\n  0xffffffffffffffffffffffffffffffffffffffffffffffffffffffffffffffff\n    /* \"#utility.yul\":5806:5815   */\n  dup3\n    /* \"#utility.yul\":5787:5884   */\n  tag_63\n  jump\t// in\ntag_148:\n    /* \"#utility.yul\":5905:5944   */\n  tag_149\n    /* \"#utility.yul\":5935:5943   */\n  dup7\n    /* \"#utility.yul\":5924:5933   */\n  dup4\n    /* \"#utility.yul\":5905:5944   */\n  tag_63\n  jump\t// in\ntag_149:\n    /* \"#utility.yul\":5893:5944   */\n  swap6\n  pop\n    /* \"#utility.yul\":5977:5981   */\n  dup1\n    /* \"#utility.yul\":5973:5982   */\n  not\n    /* \"#utility.yul\":5966:5971   */\n  dup5\n    /* \"#utility.yul\":5962:5983   */\n  and\n    /* \"#utility.yul\":5953:5983   */\n  swap4\n  pop\n    /* \"#utility.yul\":6026:6030   */\n  dup1\n    /* \"#utility.yul\":6016:6024   */\n  dup7\n    /* \"#utility.yul\":6012:6031   */\n  and\n    /* \"#utility.yul\":6005:6010   */\n  dup5\n    /* \"#utility.yul\":6002:6032   */\n  or\n    /* \"#utility.yul\":5992:6032   */\n  swap3\n  pop\n    /* \"#utility.yul\":5721:6038   */\n  pop\n  pop\n    /* \"#utility.yul\":5645:6038   */\n  swap4\n  swap3\n  pop\n  pop\n  pop\n  jump\t// out\n    /* \"#utility.yul\":6044:6121   */\ntag_65:\n    /* \"#utility.yul\":6081:6088   */\n  0x00\n    /* \"#utility.yul\":6110:6115   */\n  dup2\n    /* \"#utility.yul\":6099:6115   */\n  swap1\n  pop\n    /* \"#utility.yul\":6044:6121   */\n  swap2\n  swap1\n  pop\n  jump\t// out\n    /* \"#utility.yul\":6127:6187   */\ntag_66:\n    /* \"#utility.yul\":6155:6158   */\n  0x00\n    /* \"#utility.yul\":6176:6181   */\n  dup2\n    /* \"#utility.yul\":6169:6181   */\n  swap1\n  pop\n    /* \"#utility.yul\":6127:6187   */\n  swap2\n  swap1\n  pop\n  jump\t// out\n    /* \"#utility.yul\":6193:6335   */\ntag_67:\n    /* \"#utility.yul\":6243:6252   */\n  0x00\n    /* \"#utility.yul\":6276:6329   */\n  tag_153\n    /* \"#utility.yul\":6294:6328   */\n  tag_154\n    /* \"#utility.yul\":6303:6327   */\n  tag_155\n    /* \"#utility.yul\":6321:6326   */\n  dup5\n    /* \"#utility.yul\":6303:6327   */\n  tag_65\n  jump\t// in\ntag_155:\n    /* \"#utility.yul\":6294:6328   */\n  tag_66\n  jump\t// in\ntag_154:\n    /* \"#utility.yul\":6276:6329   */\n  tag_65\n  jump\t// in\ntag_153:\n    /* \"#utility.yul\":6263:6329   */\n  swap1\n  pop\n    /* \"#utility.yul\":6193:6335   */\n  swap2\n  swap1\n  pop\n  jump\t// out\n    /* \"#utility.yul\":6341:6416   */\ntag_68:\n    /* \"#utility.yul\":6384:6387   */\n  0x00\n    /* \"#utility.yul\":6405:6410   */\n  dup2\n    /* \"#utility.yul\":6398:6410   */\n  swap1\n  pop\n    /* \"#utility.yul\":6341:6416   */\n  swap2\n  swap1\n  pop\n  jump\t// out\n    /* \"#utility.yul\":6422:6691   */\ntag_69:\n    /* \"#utility.yul\":6532:6571   */\n  tag_158\n    /* \"#utility.yul\":6563:6570   */\n  dup4\n    /* \"#utility.yul\":6532:6571   */\n  tag_67\n  jump\t// in\ntag_158:\n    /* \"#utility.yul\":6593:6684   */\n  tag_159\n    /* \"#utility.yul\":6642:6683   */\n  tag_160\n    /* \"#utility.yul\":6666:6682   */\n  dup3\n    /* \"#utility.yul\":6642:6683   */\n  tag_68\n  jump\t// in\ntag_160:\n    /* \"#utility.yul\":6634:6640   */\n  dup5\n    /* \"#utility.yul\":6627:6631   */\n  dup5\n    /* \"#utility.yul\":6621:6632   */\n  sload\n    /* \"#utility.yul\":6593:6684   */\n  tag_64\n  jump\t// in\ntag_159:\n    /* \"#utility.yul\":6587:6591   */\n  dup3\n    /* \"#utility.yul\":6580:6685   */\n  sstore\n    /* \"#utility.yul\":6498:6691   */\n  pop\n    /* \"#utility.yul\":6422:6691   */\n  pop\n  pop\n  pop\n  jump\t// out\n    /* \"#utility.yul\":6697:6770   */\ntag_70:\n    /* \"#utility.yul\":6742:6745   */\n  0x00\n    /* \"#utility.yul\":6697:6770   */\n  swap1\n  jump\t// out\n    /* \"#utility.yul\":6776:6965   */\ntag_71:\n    /* \"#utility.yul\":6853:6885   */\n  tag_163\n  tag_70\n  jump\t// in\ntag_163:\n    /* \"#utility.yul\":6894:6959   */\n  tag_164\n    /* \"#utility.yul\":6952:6958   */\n  dup2\n    /* \"#utility.yul\":6944:6950   */\n  dup5\n    /* \"#utility.yul\":6938:6942   */\n  dup5\n    /* \"#utility.yul\":6894:6959   */\n  tag_69\n  jump\t// in\ntag_164:\n    /* \"#utility.yul\":6829:6965   */\n  pop\n    /* \"#utility.yul\":6776:6965   */\n  pop\n  pop\n  jump\t// out\n    /* \"#utility.yul\":6971:7157   */\ntag_72:\n    /* \"#utility.yul\":7031:7151   */\ntag_166:\n    /* \"#utility.yul\":7048:7051   */\n  dup2\n    /* \"#utility.yul\":7041:7046   */\n  dup2\n    /* \"#utility.yul\":7038:7052   */\n  lt\n    /* \"#utility.yul\":7031:7151   */\n  iszero\n  tag_168\n  jumpi\n    /* \"#utility.yul\":7102:7141   */\n  tag_169\n    /* \"#utility.yul\":7139:7140   */\n  0x00\n    /* \"#utility.yul\":7132:7137   */\n  dup3\n    /* \"#utility.yul\":7102:7141   */\n  tag_71\n  jump\t// in\ntag_169:\n    /* \"#utility.yul\":7075:7076   */\n  0x01\n    /* \"#utility.yul\":7068:7073   */\n  dup2\n    /* \"#utility.yul\":7064:7077   */\n  add\n    /* \"#utility.yul\":7055:7077   */\n  swap1\n  pop\n    /* \"#utility.yul\":7031:7151   */\n  jump(tag_166)\ntag_168:\n    /* \"#utility.yul\":6971:7157   */\n  pop\n  pop\n  jump\t// out\n    /* \"#utility.yul\":7163:7706   */\ntag_73:\n    /* \"#utility.yul\":7264:7266   */\n  0x1f\n    /* \"#utility.yul\":7259:7262   */\n  dup3\n    /* \"#utility.yul\":7256:7267   */\n  gt\n    /* \"#utility.yul\":7253:7699   */\n  iszero\n  tag_171\n  jumpi\n    /* \"#utility.yul\":7298:7336   */\n  tag_172\n    /* \"#utility.yul\":7330:7335   */\n  dup2\n    /* \"#utility.yul\":7298:7336   */\n  tag_61\n  jump\t// in\ntag_172:\n    /* \"#utility.yul\":7382:7411   */\n  tag_173\n    /* \"#utility.yul\":7400:7410   */\n  dup5\n    /* \"#utility.yul\":7382:7411   */\n  tag_62\n  jump\t// in\ntag_173:\n    /* \"#utility.yul\":7372:7380   */\n  dup2\n    /* \"#utility.yul\":7368:7412   */\n  add\n    /* \"#utility.yul\":7565:7567   */\n  0x20\n    /* \"#utility.yul\":7553:7563   */\n  dup6\n    /* \"#utility.yul\":7550:7568   */\n  lt\n    /* \"#utility.yul\":7547:7596   */\n  iszero\n  tag_174\n  jumpi\n    /* \"#utility.yul\":7586:7594   */\n  dup2\n    /* \"#utility.yul\":7571:7594   */\n  swap1\n  pop\n    /* \"#utility.yul\":7547:7596   */\ntag_174:\n    /* \"#utility.yul\":7609:7689   */\n  tag_175\n    /* \"#utility.yul\":7665:7687   */\n  tag_176\n    /* \"#utility.yul\":7683:7686   */\n  dup6\n    /* \"#utility.yul\":7665:7687   */\n  tag_62\n  jump\t// in\ntag_176:\n    /* \"#utility.yul\":7655:7663   */\n  dup4\n    /* \"#utility.yul\":7651:7688   */\n  add\n    /* \"#utility.yul\":7638:7649   */\n  dup3\n    /* \"#utility.yul\":7609:7689   */\n  tag_72\n  jump\t// in\ntag_175:\n    /* \"#utility.yul\":7268:7699   */\n  pop\n  pop\n    /* \"#utility.yul\":7253:7699   */\ntag_171:\n    /* \"#utility.yul\":7163:7706   */\n  pop\n  pop\n  pop\n  jump\t// out\n    /* \"#utility.yul\":7712:7829   */\ntag_74:\n    /* \"#utility.yul\":7766:7774   */\n  0x00\n    /* \"#utility.yul\":7816:7821   */\n  dup3\n    /* \"#utility.yul\":7810:7814   */\n  dup3\n    /* \"#utility.yul\":7806:7822   */\n  shr\n    /* \"#utility.yul\":7785:7822   */\n  swap1\n  pop\n    /* \"#utility.yul\":7712:7829   */\n  swap3\n  swap2\n  pop\n  pop\n  jump\t// out\n    /* \"#utility.yul\":7835:8004   */\ntag_75:\n    /* \"#utility.yul\":7879:7885   */\n  0x00\n    /* \"#utility.yul\":7912:7963   */\n  tag_179\n    /* \"#utility.yul\":7960:7961   */\n  0x00\n    /* \"#utility.yul\":7956:7962   */\n  not\n    /* \"#utility.yul\":7948:7953   */\n  dup5\n    /* \"#utility.yul\":7945:7946   */\n  0x08\n    /* \"#utility.yul\":7941:7954   */\n  mul\n    /* \"#utility.yul\":7912:7963   */\n  tag_74\n  jump\t// in\ntag_179:\n    /* \"#utility.yul\":7908:7964   */\n  not\n    /* \"#utility.yul\":7993:7997   */\n  dup1\n    /* \"#utility.yul\":7987:7991   */\n  dup4\n    /* \"#utility.yul\":7983:7998   */\n  and\n    /* \"#utility.yul\":7973:7998   */\n  swap2\n  pop\n    /* \"#utility.yul\":7886:8004   */\n  pop\n    /* \"#utility.yul\":7835:8004   */\n  swap3\n  swap2\n  pop\n  pop\n  jump\t// out\n    /* \"#utility.yul\":8009:8304   */\ntag_76:\n    /* \"#utility.yul\":8085:8089   */\n  0x00\n    /* \"#utility.yul\":8231:8260   */\n  tag_181\n    /* \"#utility.yul\":8256:8259   */\n  dup4\n    /* \"#utility.yul\":8250:8254   */\n  dup4\n    /* \"#utility.yul\":8231:8260   */\n  tag_75\n  jump\t// in\ntag_181:\n    /* \"#utility.yul\":8223:8260   */\n  swap2\n  pop\n    /* \"#utility.yul\":8293:8296   */\n  dup3\n    /* \"#utility.yul\":8290:8291   */\n  0x02\n    /* \"#utility.yul\":8286:8297   */\n  mul\n    /* \"#utility.yul\":8280:8284   */\n  dup3\n    /* \"#utility.yul\":8277:8298   */\n  or\n    /* \"#utility.yul\":8269:8298   */\n  swap1\n  pop\n    /* \"#utility.yul\":8009:8304   */\n  swap3\n  swap2\n  pop\n  pop\n  jump\t// out\n    /* \"#utility.yul\":8309:9704   */\ntag_9:\n    /* \"#utility.yul\":8426:8463   */\n  tag_183\n    /* \"#utility.yul\":8459:8462   */\n  dup3\n    /* \"#utility.yul\":8426:8463   */\n  tag_58\n  jump\t// in\ntag_183:\n    /* \"#utility.yul\":8528:8546   */\n  0xffffffffffffffff\n    /* \"#utility.yul\":8520:8526   */\n  dup2\n    /* \"#utility.yul\":8517:8547   */\n  gt\n    /* \"#utility.yul\":8514:8570   */\n  iszero\n  tag_184\n  jumpi\n    /* \"#utility.yul\":8550:8568   */\n  tag_185\n  tag_45\n  jump\t// in\ntag_185:\n    /* \"#utility.yul\":8514:8570   */\ntag_184:\n    /* \"#utility.yul\":8594:8632   */\n  tag_186\n    /* \"#utility.yul\":8626:8630   */\n  dup3\n    /* \"#utility.yul\":8620:8631   */\n  sload\n    /* \"#utility.yul\":8594:8632   */\n  tag_60\n  jump\t// in\ntag_186:\n    /* \"#utility.yul\":8679:8746   */\n  tag_187\n    /* \"#utility.yul\":8739:8745   */\n  dup3\n    /* \"#utility.yul\":8731:8737   */\n  dup3\n    /* \"#utility.yul\":8725:8729   */\n  dup6\n    /* \"#utility.yul\":8679:8746   */\n  tag_73\n  jump\t// in\ntag_187:\n    /* \"#utility.yul\":8773:8774   */\n  0x00\n    /* \"#utility.yul\":8797:8801   */\n  0x20\n    /* \"#utility.yul\":8784:8801   */\n  swap1\n  pop\n    /* \"#utility.yul\":8829:8831   */\n  0x1f\n    /* \"#utility.yul\":8821:8827   */\n  dup4\n    /* \"#utility.yul\":8818:8832   */\n  gt\n    /* \"#utility.yul\":8846:8847   */\n  0x01\n    /* \"#utility.yul\":8841:9459   */\n  dup2\n  eq\n  tag_189\n  jumpi\n    /* \"#utility.yul\":9503:9504   */\n  0x00\n    /* \"#utility.yul\":9520:9526   */\n  dup5\n    /* \"#utility.yul\":9517:9594   */\n  iszero\n  tag_190\n  jumpi\n    /* \"#utility.yul\":9569:9578   */\n  dup3\n    /* \"#utility.yul\":9564:9567   */\n  dup8\n    /* \"#utility.yul\":9560:9579   */\n  add\n    /* \"#utility.yul\":9554:9580   */\n  mload\n    /* \"#utility.yul\":9545:9580   */\n  swap1\n  pop\n    /* \"#utility.yul\":9517:9594   */\ntag_190:\n    /* \"#utility.yul\":9620:9687   */\n  tag_191\n    /* \"#utility.yul\":9680:9686   */\n  dup6\n    /* \"#utility.yul\":9673:9678   */\n  dup3\n    /* \"#utility.yul\":9620:9687   */\n  tag_76\n  jump\t// in\ntag_191:\n    /* \"#utility.yul\":9614:9618   */\n  dup7\n    /* \"#utility.yul\":9607:9688   */\n  sstore\n    /* \"#utility.yul\":9476:9698   */\n  pop\n    /* \"#utility.yul\":8811:9698   */\n  jump(tag_188)\n    /* \"#utility.yul\":8841:9459   */\ntag_189:\n    /* \"#utility.yul\":8893:8897   */\n  0x1f\n    /* \"#utility.yul\":8889:8898   */\n  not\n    /* \"#utility.yul\":8881:8887   */\n  dup5\n    /* \"#utility.yul\":8877:8899   */\n  and\n    /* \"#utility.yul\":8927:8964   */\n  tag_192\n    /* \"#utility.yul\":8959:8963   */\n  dup7\n    /* \"#utility.yul\":8927:8964   */\n  tag_61\n  jump\t// in\ntag_192:\n    /* \"#utility.yul\":8986:8987   */\n  0x00\n    /* \"#utility.yul\":9000:9208   */\ntag_193:\n    /* \"#utility.yul\":9014:9021   */\n  dup3\n    /* \"#utility.yul\":9011:9012   */\n  dup2\n    /* \"#utility.yul\":9008:9022   */\n  lt\n    /* \"#utility.yul\":9000:9208   */\n  iszero\n  tag_195\n  jumpi\n    /* \"#utility.yul\":9093:9102   */\n  dup5\n    /* \"#utility.yul\":9088:9091   */\n  dup10\n    /* \"#utility.yul\":9084:9103   */\n  add\n    /* \"#utility.yul\":9078:9104   */\n  mload\n    /* \"#utility.yul\":9070:9076   */\n  dup3\n    /* \"#utility.yul\":9063:9105   */\n  sstore\n    /* \"#utility.yul\":9144:9145   */\n  0x01\n    /* \"#utility.yul\":9136:9142   */\n  dup3\n    /* \"#utility.yul\":9132:9146   */\n  add\n    /* \"#utility.yul\":9122:9146   */\n  swap2\n  pop\n    /* \"#utility.yul\":9191:9193   */\n  0x20\n    /* \"#utility.yul\":9180:9189   */\n  dup6\n    /* \"#utility.yul\":9176:9194   */\n  add\n    /* \"#utility.yul\":9163:9194   */\n  swap5\n  pop\n    /* \"#utility.yul\":9037:9041   */\n  0x20\n    /* \"#utility.yul\":9034:9035   */\n  dup2\n    /* \"#utility.yul\":9030:9042   */\n  add\n    /* \"#utility.yul\":9025:9042   */\n  swap1\n  pop\n    /* \"#utility.yul\":9000:9208   */\n  jump(tag_193)\ntag_195:\n    /* \"#utility.yul\":9236:9242   */\n  dup7\n    /* \"#utility.yul\":9227:9234   */\n  dup4\n    /* \"#utility.yul\":9224:9243   */\n  lt\n    /* \"#utility.yul\":9221:9400   */\n  iszero\n  tag_196\n  jumpi\n    /* \"#utility.yul\":9294:9303   */\n  dup5\n    /* \"#utility.yul\":9289:9292   */\n  dup10\n    /* \"#utility.yul\":9285:9304   */\n  add\n    /* \"#utility.yul\":9279:9305   */\n  mload\n    /* \"#utility.yul\":9337:9385   */\n  tag_197\n    /* \"#utility.yul\":9379:9383   */\n  0x1f\n    /* \"#utility.yul\":9371:9377   */\n  dup10\n    /* \"#utility.yul\":9367:9384   */\n  and\n    /* \"#utility.yul\":9356:9365   */\n  dup3\n    /* \"#utility.yul\":9337:9385   */\n  tag_75\n  jump\t// in\ntag_197:\n    /* \"#utility.yul\":9329:9335   */\n  dup4\n    /* \"#utility.yul\":9322:9386   */\n  sstore\n    /* \"#utility.yul\":9244:9400   */\n  pop\n    /* \"#utility.yul\":9221:9400   */\ntag_196:\n    /* \"#utility.yul\":9446:9447   */\n  0x01\n    /* \"#utility.yul\":9442:9443   */\n  0x02\n    /* \"#utility.yul\":9434:9440   */\n  dup9\n    /* \"#utility.yul\":9430:9444   */\n  mul\n    /* \"#utility.yul\":9426:9448   */\n  add\n    /* \"#utility.yul\":9420:9424   */\n  dup9\n    /* \"#utility.yul\":9413:9449   */\n  sstore\n    /* \"#utility.yul\":8848:9459   */\n  pop\n  pop\n  pop\n    /* \"#utility.yul\":8811:9698   */\ntag_188:\n  pop\n    /* \"#utility.yul\":8401:9704   */\n  pop\n  pop\n  pop\n    /* \"#utility.yul\":8309:9704   */\n  pop\n  pop\n  jump\t// out\n    /* \"#utility.yul\":9710:9828   */\ntag_77:\n    /* \"#utility.yul\":9797:9821   */\n  tag_199\n    /* \"#utility.yul\":9815:9820   */\n  dup2\n    /* \"#utility.yul\":9797:9821   */\n  tag_53\n  jump\t// in\ntag_199:\n    /* \"#utility.yul\":9792:9795   */\n  dup3\n    /* \"#utility.yul\":9785:9822   */\n  mstore\n    /* \"#utility.yul\":9710:9828   */\n  pop\n  pop\n  jump\t// out\n    /* \"#utility.yul\":9834:10056   */\ntag_14:\n    /* \"#utility.yul\":9927:9931   */\n  0x00\n    /* \"#utility.yul\":9965:9967   */\n  0x20\n    /* \"#utility.yul\":9954:9963   */\n  dup3\n    /* \"#utility.yul\":9950:9968   */\n  add\n    /* \"#utility.yul\":9942:9968   */\n  swap1\n  pop\n    /* \"#utility.yul\":9978:10049   */\n  tag_201\n    /* \"#utility.yul\":10046:10047   */\n  0x00\n    /* \"#utility.yul\":10035:10044   */\n  dup4\n    /* \"#utility.yul\":10031:10048   */\n  add\n    /* \"#utility.yul\":10022:10028   */\n  dup5\n    /* \"#utility.yul\":9978:10049   */\n  tag_77\n  jump\t// in\ntag_201:\n    /* \"#utility.yul\":9834:10056   */\n  swap3\n  swap2\n  pop\n  pop\n  jump\t// out\n    /* \"#utility.yul\":10062:10231   */\ntag_78:\n    /* \"#utility.yul\":10146:10157   */\n  0x00\n    /* \"#utility.yul\":10180:10186   */\n  dup3\n    /* \"#utility.yul\":10175:10178   */\n  dup3\n    /* \"#utility.yul\":10168:10187   */\n  mstore\n    /* \"#utility.yul\":10220:10224   */\n  0x20\n    /* \"#utility.yul\":10215:10218   */\n  dup3\n    /* \"#utility.yul\":10211:10225   */\n  add\n    /* \"#utility.yul\":10196:10225   */\n  swap1\n  pop\n    /* \"#utility.yul\":10062:10231   */\n  swap3\n  swap2\n  pop\n  pop\n  jump\t// out\n    /* \"#utility.yul\":10237:10402   */\ntag_79:\n    /* \"#utility.yul\":10377:10394   */\n  0x496e76616c696420616464726573730000000000000000000000000000000000\n    /* \"#utility.yul\":10373:10374   */\n  0x00\n    /* \"#utility.yul\":10365:10371   */\n  dup3\n    /* \"#utility.yul\":10361:10375   */\n  add\n    /* \"#utility.yul\":10354:10395   */\n  mstore\n    /* \"#utility.yul\":10237:10402   */\n  pop\n  jump\t// out\n    /* \"#utility.yul\":10408:10774   */\ntag_80:\n    /* \"#utility.yul\":10550:10553   */\n  0x00\n    /* \"#utility.yul\":10571:10638   */\n  tag_205\n    /* \"#utility.yul\":10635:10637   */\n  0x0f\n    /* \"#utility.yul\":10630:10633   */\n  dup4\n    /* \"#utility.yul\":10571:10638   */\n  tag_78\n  jump\t// in\ntag_205:\n    /* \"#utility.yul\":10564:10638   */\n  swap2\n  pop\n    /* \"#utility.yul\":10647:10740   */\n  tag_206\n    /* \"#utility.yul\":10736:10739   */\n  dup3\n    /* \"#utility.yul\":10647:10740   */\n  tag_79\n  jump\t// in\ntag_206:\n    /* \"#utility.yul\":10765:10767   */\n  0x20\n    /* \"#utility.yul\":10760:10763   */\n  dup3\n    /* \"#utility.yul\":10756:10768   */\n  add\n    /* \"#utility.yul\":10749:10768   */\n  swap1\n  pop\n    /* \"#utility.yul\":10408:10774   */\n  swap2\n  swap1\n  pop\n  jump\t// out\n    /* \"#utility.yul\":10780:11199   */\ntag_20:\n    /* \"#utility.yul\":10946:10950   */\n  0x00\n    /* \"#utility.yul\":10984:10986   */\n  0x20\n    /* \"#utility.yul\":10973:10982   */\n  dup3\n    /* \"#utility.yul\":10969:10987   */\n  add\n    /* \"#utility.yul\":10961:10987   */\n  swap1\n  pop\n    /* \"#utility.yul\":11033:11042   */\n  dup2\n    /* \"#utility.yul\":11027:11031   */\n  dup2\n    /* \"#utility.yul\":11023:11043   */\n  sub\n    /* \"#utility.yul\":11019:11020   */\n  0x00\n    /* \"#utility.yul\":11008:11017   */\n  dup4\n    /* \"#utility.yul\":11004:11021   */\n  add\n    /* \"#utility.yul\":10997:11044   */\n  mstore\n    /* \"#utility.yul\":11061:11192   */\n  tag_208\n    /* \"#utility.yul\":11187:11191   */\n  dup2\n    /* \"#utility.yul\":11061:11192   */\n  tag_80\n  jump\t// in\ntag_208:\n    /* \"#utility.yul\":11053:11192   */\n  swap1\n  pop\n    /* \"#utility.yul\":10780:11199   */\n  swap2\n  swap1\n  pop\n  jump\t// out\n    /* \"#utility.yul\":11205:11385   */\ntag_25:\n    /* \"#utility.yul\":11253:11330   */\n  0x4e487b7100000000000000000000000000000000000000000000000000000000\n    /* \"#utility.yul\":11250:11251   */\n  0x00\n    /* \"#utility.yul\":11243:11331   */\n  mstore\n    /* \"#utility.yul\":11350:11354   */\n  0x21\n    /* \"#utility.yul\":11347:11348   */\n  0x04\n    /* \"#utility.yul\":11340:11355   */\n  mstore\n    /* \"#utility.yul\":11374:11378   */\n  0x24\n    /* \"#utility.yul\":11371:11372   */\n  0x00\n    /* \"#utility.yul\":11364:11379   */\n  revert\n    /* \"#utility.yul\":11391:11509   */\ntag_81:\n    /* \"#utility.yul\":11478:11502   */\n  tag_211\n    /* \"#utility.yul\":11496:11501   */\n  dup2\n    /* \"#utility.yul\":11478:11502   */\n  tag_65\n  jump\t// in\ntag_211:\n    /* \"#utility.yul\":11473:11476   */\n  dup3\n    /* \"#utility.yul\":11466:11503   */\n  mstore\n    /* \"#utility.yul\":11391:11509   */\n  pop\n  pop\n  jump\t// out\n    /* \"#utility.yul\":11515:11737   */\ntag_38:\n    /* \"#utility.yul\":11608:11612   */\n  0x00\n    /* \"#utility.yul\":11646:11648   */\n  0x20\n    /* \"#utility.yul\":11635:11644   */\n  dup3\n    /* \"#utility.yul\":11631:11649   */\n  add\n    /* \"#utility.yul\":11623:11649   */\n  swap1\n  pop\n    /* \"#utility.yul\":11659:11730   */\n  tag_213\n    /* \"#utility.yul\":11727:11728   */\n  0x00\n    /* \"#utility.yul\":11716:11725   */\n  dup4\n    /* \"#utility.yul\":11712:11729   */\n  add\n    /* \"#utility.yul\":11703:11709   */\n  dup5\n    /* \"#utility.yul\":11659:11730   */\n  tag_81\n  jump\t// in\ntag_213:\n    /* \"#utility.yul\":11515:11737   */\n  swap3\n  swap2\n  pop\n  pop\n  jump\t// out\n    /* \"resource.sol\":234:1516  contract Resource is ERC20, Ownable {... */\ntag_26:\n  mload(0x80)\n  codecopy(0x00, dataOffset(sub_0), dataSize(sub_0))\n  0x00\n  assignImmutable(\"0xb24536961a38c061188db0749031e6497b9c5e2bba2427f34d9d62dfc31deafb\")\n  return(0x00, dataSize(sub_0))\nstop\n\nsub_0: assembly {\n        /* \"resource.sol\":234:1516  contract Resource is ERC20, Ownable {... */\n      mstore(0x40, 0x80)\n      callvalue\n      dup1\n      iszero\n      tag_1\n      jumpi\n      0x00\n      dup1\n      revert\n    tag_1:\n      pop\n      jumpi(tag_2, lt(calldatasize, 0x04))\n      shr(0xe0, calldataload(0x00))\n      dup1\n      0x715018a6\n      gt\n      tag_20\n      jumpi\n      dup1\n      0xa9059cbb\n      gt\n      tag_21\n      jumpi\n      dup1\n      0xa9059cbb\n      eq\n      tag_15\n      jumpi\n      dup1\n      0xbd5546be\n      eq\n      tag_16\n      jumpi\n      dup1\n      0xdd62ed3e\n      eq\n      tag_17\n      jumpi\n      dup1\n      0xf2fde38b\n      eq\n      tag_18\n      jumpi\n      dup1\n      0xf9e05c6d\n      eq\n      tag_19\n      jumpi\n      jump(tag_2)\n    tag_21:\n      dup1\n      0x715018a6\n      eq\n      tag_11\n      jumpi\n      dup1\n      0x8da5cb5b\n      eq\n      tag_12\n      jumpi\n      dup1\n      0x95d89b41\n      eq\n      tag_13\n      jumpi\n      dup1\n      0x9dc29fac\n      eq\n      tag_14\n      jumpi\n      jump(tag_2)\n    tag_20:\n      dup1\n      0x313ce567\n      gt\n      tag_22\n      jumpi\n      dup1\n      0x313ce567\n      eq\n      tag_7\n      jumpi\n      dup1\n      0x40c10f19\n      eq\n      tag_8\n      jumpi\n      dup1\n      0x63a2b02b\n      eq\n      tag_9\n      jumpi\n      dup1\n      0x70a08231\n      eq\n      tag_10\n      jumpi\n      jump(tag_2)\n    tag_22:\n      dup1\n      0x06fdde03\n      eq\n      tag_3\n      jumpi\n      dup1\n      0x095ea7b3\n      eq\n      tag_4\n      jumpi\n      dup1\n      0x18160ddd\n      eq\n      tag_5\n      jumpi\n      dup1\n      0x23b872dd\n      eq\n      tag_6\n      jumpi\n    tag_2:\n      0x00\n      dup1\n      revert\n        /* \"@openzeppelin/contracts/token/ERC20/ERC20.sol\":2074:2163  function name() public view virtual returns (string memory) {... */\n    tag_3:\n      tag_23\n      tag_24\n      jump\t// in\n    tag_23:\n      mload(0x40)\n      tag_25\n      swap2\n      swap1\n      tag_26\n      jump\t// in\n    tag_25:\n      mload(0x40)\n      dup1\n      swap2\n      sub\n      swap1\n      return\n        /* \"@openzeppelin/contracts/token/ERC20/ERC20.sol\":4293:4479  function approve(address spender, uint256 value) public virtual returns (bool) {... */\n    tag_4:\n      tag_27\n      0x04\n      dup1\n      calldatasize\n      sub\n      dup2\n      add\n      swap1\n      tag_28\n      swap2\n      swap1\n      tag_29\n      jump\t// in\n    tag_28:\n      tag_30\n      jump\t// in\n    tag_27:\n      mload(0x40)\n      tag_31\n      swap2\n      swap1\n      tag_32\n      jump\t// in\n    tag_31:\n      mload(0x40)\n      dup1\n      swap2\n      sub\n      swap1\n      return\n        /* \"@openzeppelin/contracts/token/ERC20/ERC20.sol\":3144:3241  function totalSupply() public view virtual returns (uint256) {... */\n    tag_5:\n      tag_33\n      tag_34\n      jump\t// in\n    tag_33:\n      mload(0x40)\n      tag_35\n      swap2\n      swap1\n      tag_36\n      jump\t// in\n    tag_35:\n      mload(0x40)\n      dup1\n      swap2\n      sub\n      swap1\n      return\n        /* \"@openzeppelin/contracts/token/ERC20/ERC20.sol\":5039:5283  function transferFrom(address from, address to, uint256 value) public virtual returns (bool) {... */\n    tag_6:\n      tag_37\n      0x04\n      dup1\n      calldatasize\n      sub\n      dup2\n      add\n      swap1\n      tag_38\n      swap2\n      swap1\n      tag_39\n      jump\t// in\n    tag_38:\n      tag_40\n      jump\t// in\n    tag_37:\n      mload(0x40)\n      tag_41\n      swap2\n      swap1\n      tag_32\n      jump\t// in\n    tag_41:\n      mload(0x40)\n      dup1\n      swap2\n      sub\n      swap1\n      return\n        /* \"resource.sol\":1159:1241  function decimals() public pure override returns (uint8) {... */\n    tag_7:\n      tag_42\n      tag_43\n      jump\t// in\n    tag_42:\n      mload(0x40)\n      tag_44\n      swap2\n      swap1\n      tag_45\n      jump\t// in\n    tag_44:\n      mload(0x40)\n      dup1\n      swap2\n      sub\n      swap1\n      return\n        /* \"resource.sol\":1247:1340  function mint(address to, uint256 amount) public onlyOwner {... */\n    tag_8:\n      tag_46\n      0x04\n      dup1\n      calldatasize\n      sub\n      dup2\n      add\n      swap1\n      tag_47\n      swap2\n      swap1\n      tag_29\n      jump\t// in\n    tag_47:\n      tag_48\n      jump\t// in\n    tag_46:\n      stop\n        /* \"resource.sol\":894:991  function isFirstLevel() public view returns (bool){... */\n    tag_9:\n      tag_49\n      tag_50\n      jump\t// in\n    tag_49:\n      mload(0x40)\n      tag_51\n      swap2\n      swap1\n      tag_32\n      jump\t// in\n    tag_51:\n      mload(0x40)\n      dup1\n      swap2\n      sub\n      swap1\n      return\n        /* \"@openzeppelin/contracts/token/ERC20/ERC20.sol\":3299:3415  function balanceOf(address account) public view virtual returns (uint256) {... */\n    tag_10:\n      tag_52\n      0x04\n      dup1\n      calldatasize\n      sub\n      dup2\n      add\n      swap1\n      tag_53\n      swap2\n      swap1\n      tag_54\n      jump\t// in\n    tag_53:\n      tag_55\n      jump\t// in\n    tag_52:\n      mload(0x40)\n      tag_56\n      swap2\n      swap1\n      tag_36\n      jump\t// in\n    tag_56:\n      mload(0x40)\n      dup1\n      swap2\n      sub\n      swap1\n      return\n        /* \"@openzeppelin/contracts/access/Ownable.sol\":2293:2394  function renounceOwnership() public virtual onlyOwner {... */\n    tag_11:\n      tag_57\n      tag_58\n      jump\t// in\n    tag_57:\n      stop\n        /* \"@openzeppelin/contracts/access/Ownable.sol\":1638:1723  function owner() public view virtual returns (address) {... */\n    tag_12:\n      tag_59\n      tag_60\n      jump\t// in\n    tag_59:\n      mload(0x40)\n      tag_61\n      swap2\n      swap1\n      tag_62\n      jump\t// in\n    tag_61:\n      mload(0x40)\n      dup1\n      swap2\n      sub\n      swap1\n      return\n        /* \"@openzeppelin/contracts/token/ERC20/ERC20.sol\":2276:2369  function symbol() public view virtual returns (string memory) {... */\n    tag_13:\n      tag_63\n      tag_64\n      jump\t// in\n    tag_63:\n      mload(0x40)\n      tag_65\n      swap2\n      swap1\n      tag_26\n      jump\t// in\n    tag_65:\n      mload(0x40)\n      dup1\n      swap2\n      sub\n      swap1\n      return\n        /* \"resource.sol\":1346:1514  function burn(address from, uint256 amount) public {... */\n    tag_14:\n      tag_66\n      0x04\n      dup1\n      calldatasize\n      sub\n      dup2\n      add\n      swap1\n      tag_67\n      swap2\n      swap1\n      tag_29\n      jump\t// in\n    tag_67:\n      tag_68\n      jump\t// in\n    tag_66:\n      stop\n        /* \"@openzeppelin/contracts/token/ERC20/ERC20.sol\":3610:3788  function transfer(address to, uint256 value) public virtual returns (bool) {... */\n    tag_15:\n      tag_69\n      0x04\n      dup1\n      calldatasize\n      sub\n      dup2\n      add\n      swap1\n      tag_70\n      swap2\n      swap1\n      tag_29\n      jump\t// in\n    tag_70:\n      tag_71\n      jump\t// in\n    tag_69:\n      mload(0x40)\n      tag_72\n      swap2\n      swap1\n      tag_32\n      jump\t// in\n    tag_72:\n      mload(0x40)\n      dup1\n      swap2\n      sub\n      swap1\n      return\n        /* \"resource.sol\":997:1153  function setLevel(Levels level_)public {... */\n    tag_16:\n      tag_73\n      0x04\n      dup1\n      calldatasize\n      sub\n      dup2\n      add\n      swap1\n      tag_74\n      swap2\n      swap1\n      tag_75\n      jump\t// in\n    tag_74:\n      tag_76\n      jump\t// in\n    tag_73:\n      stop\n        /* \"@openzeppelin/contracts/token/ERC20/ERC20.sol\":3846:3986  function allowance(address owner, address spender) public view virtual returns (uint256) {... */\n    tag_17:\n      tag_77\n      0x04\n      dup1\n      calldatasize\n      sub\n      dup2\n      add\n      swap1\n      tag_78\n      swap2\n      swap1\n      tag_79\n      jump\t// in\n    tag_78:\n      tag_80\n      jump\t// in\n    tag_77:\n      mload(0x40)\n      tag_81\n      swap2\n      swap1\n      tag_36\n      jump\t// in\n    tag_81:\n      mload(0x40)\n      dup1\n      swap2\n      sub\n      swap1\n      return\n        /* \"@openzeppelin/contracts/access/Ownable.sol\":2543:2758  function transferOwnership(address newOwner) public virtual onlyOwner {... */\n    tag_18:\n      tag_82\n      0x04\n      dup1\n      calldatasize\n      sub\n      dup2\n      add\n      swap1\n      tag_83\n      swap2\n      swap1\n      tag_54\n      jump\t// in\n    tag_83:\n      tag_84\n      jump\t// in\n    tag_82:\n      stop\n        /* \"resource.sol\":309:359  address public immutable unlimitedAllowanceAddress */\n    tag_19:\n      tag_85\n      tag_86\n      jump\t// in\n    tag_85:\n      mload(0x40)\n      tag_87\n      swap2\n      swap1\n      tag_62\n      jump\t// in\n    tag_87:\n      mload(0x40)\n      dup1\n      swap2\n      sub\n      swap1\n      return\n        /* \"@openzeppelin/contracts/token/ERC20/ERC20.sol\":2074:2163  function name() public view virtual returns (string memory) {... */\n    tag_24:\n        /* \"@openzeppelin/contracts/token/ERC20/ERC20.sol\":2119:2132  string memory */\n      0x60\n        /* \"@openzeppelin/contracts/token/ERC20/ERC20.sol\":2151:2156  _name */\n      0x03\n        /* \"@openzeppelin/contracts/token/ERC20/ERC20.sol\":2144:2156  return _name */\n      dup1\n      sload\n      tag_89\n      swap1\n      tag_90\n      jump\t// in\n    tag_89:\n      dup1\n      0x1f\n      add\n      0x20\n      dup1\n      swap2\n      div\n      mul\n      0x20\n      add\n      mload(0x40)\n      swap1\n      dup2\n      add\n      0x40\n      mstore\n      dup1\n      swap3\n      swap2\n      swap1\n      dup2\n      dup2\n      mstore\n      0x20\n      add\n      dup3\n      dup1\n      sload\n      tag_91\n      swap1\n      tag_90\n      jump\t// in\n    tag_91:\n      dup1\n      iszero\n      tag_92\n      jumpi\n      dup1\n      0x1f\n      lt\n      tag_93\n      jumpi\n      0x0100\n      dup1\n      dup4\n      sload\n      div\n      mul\n      dup4\n      mstore\n      swap2\n      0x20\n      add\n      swap2\n      jump(tag_92)\n    tag_93:\n      dup3\n      add\n      swap2\n      swap1\n      0x00\n      mstore\n      keccak256(0x00, 0x20)\n      swap1\n    tag_94:\n      dup2\n      sload\n      dup2\n      mstore\n      swap1\n      0x01\n      add\n      swap1\n      0x20\n      add\n      dup1\n      dup4\n      gt\n      tag_94\n      jumpi\n      dup3\n      swap1\n      sub\n      0x1f\n      and\n      dup3\n      add\n      swap2\n    tag_92:\n      pop\n      pop\n      pop\n      pop\n      pop\n      swap1\n      pop\n        /* \"@openzeppelin/contracts/token/ERC20/ERC20.sol\":2074:2163  function name() public view virtual returns (string memory) {... */\n      swap1\n      jump\t// out\n        /* \"@openzeppelin/contracts/token/ERC20/ERC20.sol\":4293:4479  function approve(address spender, uint256 value) public virtual returns (bool) {... */\n    tag_30:\n        /* \"@openzeppelin/contracts/token/ERC20/ERC20.sol\":4366:4370  bool */\n      0x00\n        /* \"@openzeppelin/contracts/token/ERC20/ERC20.sol\":4382:4395  address owner */\n      dup1\n        /* \"@openzeppelin/contracts/token/ERC20/ERC20.sol\":4398:4410  _msgSender() */\n      tag_96\n        /* \"@openzeppelin/contracts/token/ERC20/ERC20.sol\":4398:4408  _msgSender */\n      tag_97\n        /* \"@openzeppelin/contracts/token/ERC20/ERC20.sol\":4398:4410  _msgSender() */\n      jump\t// in\n    tag_96:\n        /* \"@openzeppelin/contracts/token/ERC20/ERC20.sol\":4382:4410  address owner = _msgSender() */\n      swap1\n      pop\n        /* \"@openzeppelin/contracts/token/ERC20/ERC20.sol\":4420:4451  _approve(owner, spender, value) */\n      tag_98\n        /* \"@openzeppelin/contracts/token/ERC20/ERC20.sol\":4429:4434  owner */\n      dup2\n        /* \"@openzeppelin/contracts/token/ERC20/ERC20.sol\":4436:4443  spender */\n      dup6\n        /* \"@openzeppelin/contracts/token/ERC20/ERC20.sol\":4445:4450  value */\n      dup6\n        /* \"@openzeppelin/contracts/token/ERC20/ERC20.sol\":4420:4428  _approve */\n      tag_99\n        /* \"@openzeppelin/contracts/token/ERC20/ERC20.sol\":4420:4451  _approve(owner, spender, value) */\n      jump\t// in\n    tag_98:\n        /* \"@openzeppelin/contracts/token/ERC20/ERC20.sol\":4468:4472  true */\n      0x01\n        /* \"@openzeppelin/contracts/token/ERC20/ERC20.sol\":4461:4472  return true */\n      swap2\n      pop\n      pop\n        /* \"@openzeppelin/contracts/token/ERC20/ERC20.sol\":4293:4479  function approve(address spender, uint256 value) public virtual returns (bool) {... */\n      swap3\n      swap2\n      pop\n      pop\n      jump\t// out\n        /* \"@openzeppelin/contracts/token/ERC20/ERC20.sol\":3144:3241  function totalSupply() public view virtual returns (uint256) {... */\n    tag_34:\n        /* \"@openzeppelin/contracts/token/ERC20/ERC20.sol\":3196:3203  uint256 */\n      0x00\n        /* \"@openzeppelin/contracts/token/ERC20/ERC20.sol\":3222:3234  _totalSupply */\n      sload(0x02)\n        /* \"@openzeppelin/contracts/token/ERC20/ERC20.sol\":3215:3234  return _totalSupply */\n      swap1\n      pop\n        /* \"@openzeppelin/contracts/token/ERC20/ERC20.sol\":3144:3241  function totalSupply() public view virtual returns (uint256) {... */\n      swap1\n      jump\t// out\n        /* \"@openzeppelin/contracts/token/ERC20/ERC20.sol\":5039:5283  function transferFrom(address from, address to, uint256 value) public virtual returns (bool) {... */\n    tag_40:\n        /* \"@openzeppelin/contracts/token/ERC20/ERC20.sol\":5126:5130  bool */\n      0x00\n        /* \"@openzeppelin/contracts/token/ERC20/ERC20.sol\":5142:5157  address spender */\n      dup1\n        /* \"@openzeppelin/contracts/token/ERC20/ERC20.sol\":5160:5172  _msgSender() */\n      tag_102\n        /* \"@openzeppelin/contracts/token/ERC20/ERC20.sol\":5160:5170  _msgSender */\n      tag_97\n        /* \"@openzeppelin/contracts/token/ERC20/ERC20.sol\":5160:5172  _msgSender() */\n      jump\t// in\n    tag_102:\n        /* \"@openzeppelin/contracts/token/ERC20/ERC20.sol\":5142:5172  address spender = _msgSender() */\n      swap1\n      pop\n        /* \"@openzeppelin/contracts/token/ERC20/ERC20.sol\":5182:5219  _spendAllowance(from, spender, value) */\n      tag_103\n        /* \"@openzeppelin/contracts/token/ERC20/ERC20.sol\":5198:5202  from */\n      dup6\n        /* \"@openzeppelin/contracts/token/ERC20/ERC20.sol\":5204:5211  spender */\n      dup3\n        /* \"@openzeppelin/contracts/token/ERC20/ERC20.sol\":5213:5218  value */\n      dup6\n        /* \"@openzeppelin/contracts/token/ERC20/ERC20.sol\":5182:5197  _spendAllowance */\n      tag_104\n        /* \"@openzeppelin/contracts/token/ERC20/ERC20.sol\":5182:5219  _spendAllowance(from, spender, value) */\n      jump\t// in\n    tag_103:\n        /* \"@openzeppelin/contracts/token/ERC20/ERC20.sol\":5229:5255  _transfer(from, to, value) */\n      tag_105\n        /* \"@openzeppelin/contracts/token/ERC20/ERC20.sol\":5239:5243  from */\n      dup6\n        /* \"@openzeppelin/contracts/token/ERC20/ERC20.sol\":5245:5247  to */\n      dup6\n        /* \"@openzeppelin/contracts/token/ERC20/ERC20.sol\":5249:5254  value */\n      dup6\n        /* \"@openzeppelin/contracts/token/ERC20/ERC20.sol\":5229:5238  _transfer */\n      tag_106\n        /* \"@openzeppelin/contracts/token/ERC20/ERC20.sol\":5229:5255  _transfer(from, to, value) */\n      jump\t// in\n    tag_105:\n        /* \"@openzeppelin/contracts/token/ERC20/ERC20.sol\":5272:5276  true */\n      0x01\n        /* \"@openzeppelin/contracts/token/ERC20/ERC20.sol\":5265:5276  return true */\n      swap2\n      pop\n      pop\n        /* \"@openzeppelin/contracts/token/ERC20/ERC20.sol\":5039:5283  function transferFrom(address from, address to, uint256 value) public virtual returns (bool) {... */\n      swap4\n      swap3\n      pop\n      pop\n      pop\n      jump\t// out\n        /* \"resource.sol\":1159:1241  function decimals() public pure override returns (uint8) {... */\n    tag_43:\n        /* \"resource.sol\":1209:1214  uint8 */\n      0x00\n        /* \"resource.sol\":1159:1241  function decimals() public pure override returns (uint8) {... */\n      swap1\n      jump\t// out\n        /* \"resource.sol\":1247:1340  function mint(address to, uint256 amount) public onlyOwner {... */\n    tag_48:\n        /* \"@openzeppelin/contracts/access/Ownable.sol\":1531:1544  _checkOwner() */\n      tag_109\n        /* \"@openzeppelin/contracts/access/Ownable.sol\":1531:1542  _checkOwner */\n      tag_110\n        /* \"@openzeppelin/contracts/access/Ownable.sol\":1531:1544  _checkOwner() */\n      jump\t// in\n    tag_109:\n        /* \"resource.sol\":1316:1333  _mint(to, amount) */\n      tag_112\n        /* \"resource.sol\":1322:1324  to */\n      dup3\n        /* \"resource.sol\":1326:1332  amount */\n      dup3\n        /* \"resource.sol\":1316:1321  _mint */\n      tag_113\n        /* \"resource.sol\":1316:1333  _mint(to, amount) */\n      jump\t// in\n    tag_112:\n        /* \"resource.sol\":1247:1340  function mint(address to, uint256 amount) public onlyOwner {... */\n      pop\n      pop\n      jump\t// out\n        /* \"resource.sol\":894:991  function isFirstLevel() public view returns (bool){... */\n    tag_50:\n        /* \"resource.sol\":939:943  bool */\n      0x00\n        /* \"resource.sol\":971:984  Levels.Level1 */\n      dup1\n        /* \"resource.sol\":962:984  level == Levels.Level1 */\n      0x04\n      dup2\n      gt\n      iszero\n      tag_115\n      jumpi\n      tag_116\n      tag_117\n      jump\t// in\n    tag_116:\n    tag_115:\n        /* \"resource.sol\":962:967  level */\n      0x05\n      0x14\n      swap1\n      sload\n      swap1\n      0x0100\n      exp\n      swap1\n      div\n      0xff\n      and\n        /* \"resource.sol\":962:984  level == Levels.Level1 */\n      0x04\n      dup2\n      gt\n      iszero\n      tag_118\n      jumpi\n      tag_119\n      tag_117\n      jump\t// in\n    tag_119:\n    tag_118:\n      eq\n        /* \"resource.sol\":954:984  return  level == Levels.Level1 */\n      swap1\n      pop\n        /* \"resource.sol\":894:991  function isFirstLevel() public view returns (bool){... */\n      swap1\n      jump\t// out\n        /* \"@openzeppelin/contracts/token/ERC20/ERC20.sol\":3299:3415  function balanceOf(address account) public view virtual returns (uint256) {... */\n    tag_55:\n        /* \"@openzeppelin/contracts/token/ERC20/ERC20.sol\":3364:3371  uint256 */\n      0x00\n        /* \"@openzeppelin/contracts/token/ERC20/ERC20.sol\":3390:3399  _balances */\n      dup1\n        /* \"@openzeppelin/contracts/token/ERC20/ERC20.sol\":3390:3408  _balances[account] */\n      0x00\n        /* \"@openzeppelin/contracts/token/ERC20/ERC20.sol\":3400:3407  account */\n      dup4\n        /* \"@openzeppelin/contracts/token/ERC20/ERC20.sol\":3390:3408  _balances[account] */\n      0xffffffffffffffffffffffffffffffffffffffff\n      and\n      0xffffffffffffffffffffffffffffffffffffffff\n      and\n      dup2\n      mstore\n      0x20\n      add\n      swap1\n      dup2\n      mstore\n      0x20\n      add\n      0x00\n      keccak256\n      sload\n        /* \"@openzeppelin/contracts/token/ERC20/ERC20.sol\":3383:3408  return _balances[account] */\n      swap1\n      pop\n        /* \"@openzeppelin/contracts/token/ERC20/ERC20.sol\":3299:3415  function balanceOf(address account) public view virtual returns (uint256) {... */\n      swap2\n      swap1\n      pop\n      jump\t// out\n        /* \"@openzeppelin/contracts/access/Ownable.sol\":2293:2394  function renounceOwnership() public virtual onlyOwner {... */\n    tag_58:\n        /* \"@openzeppelin/contracts/access/Ownable.sol\":1531:1544  _checkOwner() */\n      tag_122\n        /* \"@openzeppelin/contracts/access/Ownable.sol\":1531:1542  _checkOwner */\n      tag_110\n        /* \"@openzeppelin/contracts/access/Ownable.sol\":1531:1544  _checkOwner() */\n      jump\t// in\n    tag_122:\n        /* \"@openzeppelin/contracts/access/Ownable.sol\":2357:2387  _transferOwnership(address(0)) */\n      tag_124\n        /* \"@openzeppelin/contracts/access/Ownable.sol\":2384:2385  0 */\n      0x00\n        /* \"@openzeppelin/contracts/access/Ownable.sol\":2357:2375  _transferOwnership */\n      tag_125\n        /* \"@openzeppelin/contracts/access/Ownable.sol\":2357:2387  _transferOwnership(address(0)) */\n      jump\t// in\n    tag_124:\n        /* \"@openzeppelin/contracts/access/Ownable.sol\":2293:2394  function renounceOwnership() public virtual onlyOwner {... */\n      jump\t// out\n        /* \"@openzeppelin/contracts/access/Ownable.sol\":1638:1723  function owner() public view virtual returns (address) {... */\n    tag_60:\n        /* \"@openzeppelin/contracts/access/Ownable.sol\":1684:1691  address */\n      0x00\n        /* \"@openzeppelin/contracts/access/Ownable.sol\":1710:1716  _owner */\n      0x05\n      0x00\n      swap1\n      sload\n      swap1\n      0x0100\n      exp\n      swap1\n      div\n      0xffffffffffffffffffffffffffffffffffffffff\n      and\n        /* \"@openzeppelin/contracts/access/Ownable.sol\":1703:1716  return _owner */\n      swap1\n      pop\n        /* \"@openzeppelin/contracts/access/Ownable.sol\":1638:1723  function owner() public view virtual returns (address) {... */\n      swap1\n      jump\t// out\n        /* \"@openzeppelin/contracts/token/ERC20/ERC20.sol\":2276:2369  function symbol() public view virtual returns (string memory) {... */\n    tag_64:\n        /* \"@openzeppelin/contracts/token/ERC20/ERC20.sol\":2323:2336  string memory */\n      0x60\n        /* \"@openzeppelin/contracts/token/ERC20/ERC20.sol\":2355:2362  _symbol */\n      0x04\n        /* \"@openzeppelin/contracts/token/ERC20/ERC20.sol\":2348:2362  return _symbol */\n      dup1\n      sload\n      tag_128\n      swap1\n      tag_90\n      jump\t// in\n    tag_128:\n      dup1\n      0x1f\n      add\n      0x20\n      dup1\n      swap2\n      div\n      mul\n      0x20\n      add\n      mload(0x40)\n      swap1\n      dup2\n      add\n      0x40\n      mstore\n      dup1\n      swap3\n      swap2\n      swap1\n      dup2\n      dup2\n      mstore\n      0x20\n      add\n      dup3\n      dup1\n      sload\n      tag_129\n      swap1\n      tag_90\n      jump\t// in\n    tag_129:\n      dup1\n      iszero\n      tag_130\n      jumpi\n      dup1\n      0x1f\n      lt\n      tag_131\n      jumpi\n      0x0100\n      dup1\n      dup4\n      sload\n      div\n      mul\n      dup4\n      mstore\n      swap2\n      0x20\n      add\n      swap2\n      jump(tag_130)\n    tag_131:\n      dup3\n      add\n      swap2\n      swap1\n      0x00\n      mstore\n      keccak256(0x00, 0x20)\n      swap1\n    tag_132:\n      dup2\n      sload\n      dup2\n      mstore\n      swap1\n      0x01\n      add\n      swap1\n      0x20\n      add\n      dup1\n      dup4\n      gt\n      tag_132\n      jumpi\n      dup3\n      swap1\n      sub\n      0x1f\n      and\n      dup3\n      add\n      swap2\n    tag_130:\n      pop\n      pop\n      pop\n      pop\n      pop\n      swap1\n      pop\n        /* \"@openzeppelin/contracts/token/ERC20/ERC20.sol\":2276:2369  function symbol() public view virtual returns (string memory) {... */\n      swap1\n      jump\t// out\n        /* \"resource.sol\":1346:1514  function burn(address from, uint256 amount) public {... */\n    tag_68:\n        /* \"resource.sol\":1429:1454  unlimitedAllowanceAddress */\n      immutable(\"0xb24536961a38c061188db0749031e6497b9c5e2bba2427f34d9d62dfc31deafb\")\n        /* \"resource.sol\":1415:1454  msg.sender == unlimitedAllowanceAddress */\n      0xffffffffffffffffffffffffffffffffffffffff\n      and\n        /* \"resource.sol\":1415:1425  msg.sender */\n      caller\n        /* \"resource.sol\":1415:1454  msg.sender == unlimitedAllowanceAddress */\n      0xffffffffffffffffffffffffffffffffffffffff\n      and\n      eq\n        /* \"resource.sol\":1407:1478  require(msg.sender == unlimitedAllowanceAddress, \"Not allowed to burn\") */\n      tag_134\n      jumpi\n      mload(0x40)\n      0x08c379a000000000000000000000000000000000000000000000000000000000\n      dup2\n      mstore\n      0x04\n      add\n      tag_135\n      swap1\n      tag_136\n      jump\t// in\n    tag_135:\n      mload(0x40)\n      dup1\n      swap2\n      sub\n      swap1\n      revert\n    tag_134:\n        /* \"resource.sol\":1488:1507  _burn(from, amount) */\n      tag_137\n        /* \"resource.sol\":1494:1498  from */\n      dup3\n        /* \"resource.sol\":1500:1506  amount */\n      dup3\n        /* \"resource.sol\":1488:1493  _burn */\n      tag_138\n        /* \"resource.sol\":1488:1507  _burn(from, amount) */\n      jump\t// in\n    tag_137:\n        /* \"resource.sol\":1346:1514  function burn(address from, uint256 amount) public {... */\n      pop\n      pop\n      jump\t// out\n        /* \"@openzeppelin/contracts/token/ERC20/ERC20.sol\":3610:3788  function transfer(address to, uint256 value) public virtual returns (bool) {... */\n    tag_71:\n        /* \"@openzeppelin/contracts/token/ERC20/ERC20.sol\":3679:3683  bool */\n      0x00\n        /* \"@openzeppelin/contracts/token/ERC20/ERC20.sol\":3695:3708  address owner */\n      dup1\n        /* \"@openzeppelin/contracts/token/ERC20/ERC20.sol\":3711:3723  _msgSender() */\n      tag_140\n        /* \"@openzeppelin/contracts/token/ERC20/ERC20.sol\":3711:3721  _msgSender */\n      tag_97\n        /* \"@openzeppelin/contracts/token/ERC20/ERC20.sol\":3711:3723  _msgSender() */\n      jump\t// in\n    tag_140:\n        /* \"@openzeppelin/contracts/token/ERC20/ERC20.sol\":3695:3723  address owner = _msgSender() */\n      swap1\n      pop\n        /* \"@openzeppelin/contracts/token/ERC20/ERC20.sol\":3733:3760  _transfer(owner, to, value) */\n      tag_141\n        /* \"@openzeppelin/contracts/token/ERC20/ERC20.sol\":3743:3748  owner */\n      dup2\n        /* \"@openzeppelin/contracts/token/ERC20/ERC20.sol\":3750:3752  to */\n      dup6\n        /* \"@openzeppelin/contracts/token/ERC20/ERC20.sol\":3754:3759  value */\n      dup6\n        /* \"@openzeppelin/contracts/token/ERC20/ERC20.sol\":3733:3742  _transfer */\n      tag_106\n        /* \"@openzeppelin/contracts/token/ERC20/ERC20.sol\":3733:3760  _transfer(owner, to, value) */\n      jump\t// in\n    tag_141:\n        /* \"@openzeppelin/contracts/token/ERC20/ERC20.sol\":3777:3781  true */\n      0x01\n        /* \"@openzeppelin/contracts/token/ERC20/ERC20.sol\":3770:3781  return true */\n      swap2\n      pop\n      pop\n        /* \"@openzeppelin/contracts/token/ERC20/ERC20.sol\":3610:3788  function transfer(address to, uint256 value) public virtual returns (bool) {... */\n      swap3\n      swap2\n      pop\n      pop\n      jump\t// out\n        /* \"resource.sol\":997:1153  function setLevel(Levels level_)public {... */\n    tag_76:\n        /* \"resource.sol\":1068:1093  unlimitedAllowanceAddress */\n      immutable(\"0xb24536961a38c061188db0749031e6497b9c5e2bba2427f34d9d62dfc31deafb\")\n        /* \"resource.sol\":1054:1093  msg.sender == unlimitedAllowanceAddress */\n      0xffffffffffffffffffffffffffffffffffffffff\n      and\n        /* \"resource.sol\":1054:1064  msg.sender */\n      caller\n        /* \"resource.sol\":1054:1093  msg.sender == unlimitedAllowanceAddress */\n      0xffffffffffffffffffffffffffffffffffffffff\n      and\n      eq\n        /* \"resource.sol\":1046:1122  require(msg.sender == unlimitedAllowanceAddress, \"Not allowed to set level\") */\n      tag_143\n      jumpi\n      mload(0x40)\n      0x08c379a000000000000000000000000000000000000000000000000000000000\n      dup2\n      mstore\n      0x04\n      add\n      tag_144\n      swap1\n      tag_145\n      jump\t// in\n    tag_144:\n      mload(0x40)\n      dup1\n      swap2\n      sub\n      swap1\n      revert\n    tag_143:\n        /* \"resource.sol\":1140:1146  level_ */\n      dup1\n        /* \"resource.sol\":1132:1137  level */\n      0x05\n      0x14\n        /* \"resource.sol\":1132:1146  level = level_ */\n      0x0100\n      exp\n      dup2\n      sload\n      dup2\n      0xff\n      mul\n      not\n      and\n      swap1\n      dup4\n      0x04\n      dup2\n      gt\n      iszero\n      tag_146\n      jumpi\n      tag_147\n      tag_117\n      jump\t// in\n    tag_147:\n    tag_146:\n      mul\n      or\n      swap1\n      sstore\n      pop\n        /* \"resource.sol\":997:1153  function setLevel(Levels level_)public {... */\n      pop\n      jump\t// out\n        /* \"@openzeppelin/contracts/token/ERC20/ERC20.sol\":3846:3986  function allowance(address owner, address spender) public view virtual returns (uint256) {... */\n    tag_80:\n        /* \"@openzeppelin/contracts/token/ERC20/ERC20.sol\":3926:3933  uint256 */\n      0x00\n        /* \"@openzeppelin/contracts/token/ERC20/ERC20.sol\":3952:3963  _allowances */\n      0x01\n        /* \"@openzeppelin/contracts/token/ERC20/ERC20.sol\":3952:3970  _allowances[owner] */\n      0x00\n        /* \"@openzeppelin/contracts/token/ERC20/ERC20.sol\":3964:3969  owner */\n      dup5\n        /* \"@openzeppelin/contracts/token/ERC20/ERC20.sol\":3952:3970  _allowances[owner] */\n      0xffffffffffffffffffffffffffffffffffffffff\n      and\n      0xffffffffffffffffffffffffffffffffffffffff\n      and\n      dup2\n      mstore\n      0x20\n      add\n      swap1\n      dup2\n      mstore\n      0x20\n      add\n      0x00\n      keccak256\n        /* \"@openzeppelin/contracts/token/ERC20/ERC20.sol\":3952:3979  _allowances[owner][spender] */\n      0x00\n        /* \"@openzeppelin/contracts/token/ERC20/ERC20.sol\":3971:3978  spender */\n      dup4\n        /* \"@openzeppelin/contracts/token/ERC20/ERC20.sol\":3952:3979  _allowances[owner][spender] */\n      0xffffffffffffffffffffffffffffffffffffffff\n      and\n      0xffffffffffffffffffffffffffffffffffffffff\n      and\n      dup2\n      mstore\n      0x20\n      add\n      swap1\n      dup2\n      mstore\n      0x20\n      add\n      0x00\n      keccak256\n      sload\n        /* \"@openzeppelin/contracts/token/ERC20/ERC20.sol\":3945:3979  return _allowances[owner][spender] */\n      swap1\n      pop\n        /* \"@openzeppelin/contracts/token/ERC20/ERC20.sol\":3846:3986  function allowance(address owner, address spender) public view virtual returns (uint256) {... */\n      swap3\n      swap2\n      pop\n      pop\n      jump\t// out\n        /* \"@openzeppelin/contracts/access/Ownable.sol\":2543:2758  function transferOwnership(address newOwner) public virtual onlyOwner {... */\n    tag_84:\n        /* \"@openzeppelin/contracts/access/Ownable.sol\":1531:1544  _checkOwner() */\n      tag_150\n        /* \"@openzeppelin/contracts/access/Ownable.sol\":1531:1542  _checkOwner */\n      tag_110\n        /* \"@openzeppelin/contracts/access/Ownable.sol\":1531:1544  _checkOwner() */\n      jump\t// in\n    tag_150:\n        /* \"@openzeppelin/contracts/access/Ownable.sol\":2647:2648  0 */\n      0x00\n        /* \"@openzeppelin/contracts/access/Ownable.sol\":2627:2649  newOwner == address(0) */\n      0xffffffffffffffffffffffffffffffffffffffff\n      and\n        /* \"@openzeppelin/contracts/access/Ownable.sol\":2627:2635  newOwner */\n      dup2\n        /* \"@openzeppelin/contracts/access/Ownable.sol\":2627:2649  newOwner == address(0) */\n      0xffffffffffffffffffffffffffffffffffffffff\n      and\n      sub\n        /* \"@openzeppelin/contracts/access/Ownable.sol\":2623:2714  if (newOwner == address(0)) {... */\n      tag_152\n      jumpi\n        /* \"@openzeppelin/contracts/access/Ownable.sol\":2700:2701  0 */\n      0x00\n        /* \"@openzeppelin/contracts/access/Ownable.sol\":2672:2703  OwnableInvalidOwner(address(0)) */\n      mload(0x40)\n      0x1e4fbdf700000000000000000000000000000000000000000000000000000000\n      dup2\n      mstore\n      0x04\n      add\n      tag_153\n      swap2\n      swap1\n      tag_62\n      jump\t// in\n    tag_153:\n      mload(0x40)\n      dup1\n      swap2\n      sub\n      swap1\n      revert\n        /* \"@openzeppelin/contracts/access/Ownable.sol\":2623:2714  if (newOwner == address(0)) {... */\n    tag_152:\n        /* \"@openzeppelin/contracts/access/Ownable.sol\":2723:2751  _transferOwnership(newOwner) */\n      tag_154\n        /* \"@openzeppelin/contracts/access/Ownable.sol\":2742:2750  newOwner */\n      dup2\n        /* \"@openzeppelin/contracts/access/Ownable.sol\":2723:2741  _transferOwnership */\n      tag_125\n        /* \"@openzeppelin/contracts/access/Ownable.sol\":2723:2751  _transferOwnership(newOwner) */\n      jump\t// in\n    tag_154:\n        /* \"@openzeppelin/contracts/access/Ownable.sol\":2543:2758  function transferOwnership(address newOwner) public virtual onlyOwner {... */\n      pop\n      jump\t// out\n        /* \"resource.sol\":309:359  address public immutable unlimitedAllowanceAddress */\n    tag_86:\n      immutable(\"0xb24536961a38c061188db0749031e6497b9c5e2bba2427f34d9d62dfc31deafb\")\n      dup2\n      jump\t// out\n        /* \"@openzeppelin/contracts/utils/Context.sol\":656:752  function _msgSender() internal view virtual returns (address) {... */\n    tag_97:\n        /* \"@openzeppelin/contracts/utils/Context.sol\":709:716  address */\n      0x00\n        /* \"@openzeppelin/contracts/utils/Context.sol\":735:745  msg.sender */\n      caller\n        /* \"@openzeppelin/contracts/utils/Context.sol\":728:745  return msg.sender */\n      swap1\n      pop\n        /* \"@openzeppelin/contracts/utils/Context.sol\":656:752  function _msgSender() internal view virtual returns (address) {... */\n      swap1\n      jump\t// out\n        /* \"@openzeppelin/contracts/token/ERC20/ERC20.sol\":8989:9117  function _approve(address owner, address spender, uint256 value) internal {... */\n    tag_99:\n        /* \"@openzeppelin/contracts/token/ERC20/ERC20.sol\":9073:9110  _approve(owner, spender, value, true) */\n      tag_157\n        /* \"@openzeppelin/contracts/token/ERC20/ERC20.sol\":9082:9087  owner */\n      dup4\n        /* \"@openzeppelin/contracts/token/ERC20/ERC20.sol\":9089:9096  spender */\n      dup4\n        /* \"@openzeppelin/contracts/token/ERC20/ERC20.sol\":9098:9103  value */\n      dup4\n        /* \"@openzeppelin/contracts/token/ERC20/ERC20.sol\":9105:9109  true */\n      0x01\n        /* \"@openzeppelin/contracts/token/ERC20/ERC20.sol\":9073:9081  _approve */\n      tag_158\n        /* \"@openzeppelin/contracts/token/ERC20/ERC20.sol\":9073:9110  _approve(owner, spender, value, true) */\n      jump\t// in\n    tag_157:\n        /* \"@openzeppelin/contracts/token/ERC20/ERC20.sol\":8989:9117  function _approve(address owner, address spender, uint256 value) internal {... */\n      pop\n      pop\n      pop\n      jump\t// out\n        /* \"@openzeppelin/contracts/token/ERC20/ERC20.sol\":10663:11140  function _spendAllowance(address owner, address spender, uint256 value) internal virtual {... */\n    tag_104:\n        /* \"@openzeppelin/contracts/token/ERC20/ERC20.sol\":10762:10786  uint256 currentAllowance */\n      0x00\n        /* \"@openzeppelin/contracts/token/ERC20/ERC20.sol\":10789:10814  allowance(owner, spender) */\n      tag_160\n        /* \"@openzeppelin/contracts/token/ERC20/ERC20.sol\":10799:10804  owner */\n      dup5\n        /* \"@openzeppelin/contracts/token/ERC20/ERC20.sol\":10806:10813  spender */\n      dup5\n        /* \"@openzeppelin/contracts/token/ERC20/ERC20.sol\":10789:10798  allowance */\n      tag_80\n        /* \"@openzeppelin/contracts/token/ERC20/ERC20.sol\":10789:10814  allowance(owner, spender) */\n      jump\t// in\n    tag_160:\n        /* \"@openzeppelin/contracts/token/ERC20/ERC20.sol\":10762:10814  uint256 currentAllowance = allowance(owner, spender) */\n      swap1\n      pop\n        /* \"@openzeppelin/contracts/token/ERC20/ERC20.sol\":10848:10865  type(uint256).max */\n      0xffffffffffffffffffffffffffffffffffffffffffffffffffffffffffffffff\n        /* \"@openzeppelin/contracts/token/ERC20/ERC20.sol\":10828:10844  currentAllowance */\n      dup2\n        /* \"@openzeppelin/contracts/token/ERC20/ERC20.sol\":10828:10865  currentAllowance != type(uint256).max */\n      eq\n        /* \"@openzeppelin/contracts/token/ERC20/ERC20.sol\":10824:11134  if (currentAllowance != type(uint256).max) {... */\n      tag_161\n      jumpi\n        /* \"@openzeppelin/contracts/token/ERC20/ERC20.sol\":10904:10909  value */\n      dup2\n        /* \"@openzeppelin/contracts/token/ERC20/ERC20.sol\":10885:10901  currentAllowance */\n      dup2\n        /* \"@openzeppelin/contracts/token/ERC20/ERC20.sol\":10885:10909  currentAllowance < value */\n      lt\n        /* \"@openzeppelin/contracts/token/ERC20/ERC20.sol\":10881:11011  if (currentAllowance < value) {... */\n      iszero\n      tag_162\n      jumpi\n        /* \"@openzeppelin/contracts/token/ERC20/ERC20.sol\":10963:10970  spender */\n      dup3\n        /* \"@openzeppelin/contracts/token/ERC20/ERC20.sol\":10972:10988  currentAllowance */\n      dup2\n        /* \"@openzeppelin/contracts/token/ERC20/ERC20.sol\":10990:10995  value */\n      dup4\n        /* \"@openzeppelin/contracts/token/ERC20/ERC20.sol\":10936:10996  ERC20InsufficientAllowance(spender, currentAllowance, value) */\n      mload(0x40)\n      0xfb8f41b200000000000000000000000000000000000000000000000000000000\n      dup2\n      mstore\n      0x04\n      add\n      tag_163\n      swap4\n      swap3\n      swap2\n      swap1\n      tag_164\n      jump\t// in\n    tag_163:\n      mload(0x40)\n      dup1\n      swap2\n      sub\n      swap1\n      revert\n        /* \"@openzeppelin/contracts/token/ERC20/ERC20.sol\":10881:11011  if (currentAllowance < value) {... */\n    tag_162:\n        /* \"@openzeppelin/contracts/token/ERC20/ERC20.sol\":11052:11109  _approve(owner, spender, currentAllowance - value, false) */\n      tag_165\n        /* \"@openzeppelin/contracts/token/ERC20/ERC20.sol\":11061:11066  owner */\n      dup5\n        /* \"@openzeppelin/contracts/token/ERC20/ERC20.sol\":11068:11075  spender */\n      dup5\n        /* \"@openzeppelin/contracts/token/ERC20/ERC20.sol\":11096:11101  value */\n      dup5\n        /* \"@openzeppelin/contracts/token/ERC20/ERC20.sol\":11077:11093  currentAllowance */\n      dup5\n        /* \"@openzeppelin/contracts/token/ERC20/ERC20.sol\":11077:11101  currentAllowance - value */\n      sub\n        /* \"@openzeppelin/contracts/token/ERC20/ERC20.sol\":11103:11108  false */\n      0x00\n        /* \"@openzeppelin/contracts/token/ERC20/ERC20.sol\":11052:11060  _approve */\n      tag_158\n        /* \"@openzeppelin/contracts/token/ERC20/ERC20.sol\":11052:11109  _approve(owner, spender, currentAllowance - value, false) */\n      jump\t// in\n    tag_165:\n        /* \"@openzeppelin/contracts/token/ERC20/ERC20.sol\":10824:11134  if (currentAllowance != type(uint256).max) {... */\n    tag_161:\n        /* \"@openzeppelin/contracts/token/ERC20/ERC20.sol\":10752:11140  {... */\n      pop\n        /* \"@openzeppelin/contracts/token/ERC20/ERC20.sol\":10663:11140  function _spendAllowance(address owner, address spender, uint256 value) internal virtual {... */\n      pop\n      pop\n      pop\n      jump\t// out\n        /* \"@openzeppelin/contracts/token/ERC20/ERC20.sol\":5656:5956  function _transfer(address from, address to, uint256 value) internal {... */\n    tag_106:\n        /* \"@openzeppelin/contracts/token/ERC20/ERC20.sol\":5755:5756  0 */\n      0x00\n        /* \"@openzeppelin/contracts/token/ERC20/ERC20.sol\":5739:5757  from == address(0) */\n      0xffffffffffffffffffffffffffffffffffffffff\n      and\n        /* \"@openzeppelin/contracts/token/ERC20/ERC20.sol\":5739:5743  from */\n      dup4\n        /* \"@openzeppelin/contracts/token/ERC20/ERC20.sol\":5739:5757  from == address(0) */\n      0xffffffffffffffffffffffffffffffffffffffff\n      and\n      sub\n        /* \"@openzeppelin/contracts/token/ERC20/ERC20.sol\":5735:5821  if (from == address(0)) {... */\n      tag_167\n      jumpi\n        /* \"@openzeppelin/contracts/token/ERC20/ERC20.sol\":5807:5808  0 */\n      0x00\n        /* \"@openzeppelin/contracts/token/ERC20/ERC20.sol\":5780:5810  ERC20InvalidSender(address(0)) */\n      mload(0x40)\n      0x96c6fd1e00000000000000000000000000000000000000000000000000000000\n      dup2\n      mstore\n      0x04\n      add\n      tag_168\n      swap2\n      swap1\n      tag_62\n      jump\t// in\n    tag_168:\n      mload(0x40)\n      dup1\n      swap2\n      sub\n      swap1\n      revert\n        /* \"@openzeppelin/contracts/token/ERC20/ERC20.sol\":5735:5821  if (from == address(0)) {... */\n    tag_167:\n        /* \"@openzeppelin/contracts/token/ERC20/ERC20.sol\":5848:5849  0 */\n      0x00\n        /* \"@openzeppelin/contracts/token/ERC20/ERC20.sol\":5834:5850  to == address(0) */\n      0xffffffffffffffffffffffffffffffffffffffff\n      and\n        /* \"@openzeppelin/contracts/token/ERC20/ERC20.sol\":5834:5836  to */\n      dup3\n        /* \"@openzeppelin/contracts/token/ERC20/ERC20.sol\":5834:5850  to == address(0) */\n      0xffffffffffffffffffffffffffffffffffffffff\n      and\n      sub\n        /* \"@openzeppelin/contracts/token/ERC20/ERC20.sol\":5830:5916  if (to == address(0)) {... */\n      tag_169\n      jumpi\n        /* \"@openzeppelin/contracts/token/ERC20/ERC20.sol\":5902:5903  0 */\n      0x00\n        /* \"@openzeppelin/contracts/token/ERC20/ERC20.sol\":5873:5905  ERC20InvalidReceiver(address(0)) */\n      mload(0x40)\n      0xec442f0500000000000000000000000000000000000000000000000000000000\n      dup2\n      mstore\n      0x04\n      add\n      tag_170\n      swap2\n      swap1\n      tag_62\n      jump\t// in\n    tag_170:\n      mload(0x40)\n      dup1\n      swap2\n      sub\n      swap1\n      revert\n        /* \"@openzeppelin/contracts/token/ERC20/ERC20.sol\":5830:5916  if (to == address(0)) {... */\n    tag_169:\n        /* \"@openzeppelin/contracts/token/ERC20/ERC20.sol\":5925:5949  _update(from, to, value) */\n      tag_171\n        /* \"@openzeppelin/contracts/token/ERC20/ERC20.sol\":5933:5937  from */\n      dup4\n        /* \"@openzeppelin/contracts/token/ERC20/ERC20.sol\":5939:5941  to */\n      dup4\n        /* \"@openzeppelin/contracts/token/ERC20/ERC20.sol\":5943:5948  value */\n      dup4\n        /* \"@openzeppelin/contracts/token/ERC20/ERC20.sol\":5925:5932  _update */\n      tag_172\n        /* \"@openzeppelin/contracts/token/ERC20/ERC20.sol\":5925:5949  _update(from, to, value) */\n      jump\t// in\n    tag_171:\n        /* \"@openzeppelin/contracts/token/ERC20/ERC20.sol\":5656:5956  function _transfer(address from, address to, uint256 value) internal {... */\n      pop\n      pop\n      pop\n      jump\t// out\n        /* \"@openzeppelin/contracts/access/Ownable.sol\":1796:1958  function _checkOwner() internal view virtual {... */\n    tag_110:\n        /* \"@openzeppelin/contracts/access/Ownable.sol\":1866:1878  _msgSender() */\n      tag_174\n        /* \"@openzeppelin/contracts/access/Ownable.sol\":1866:1876  _msgSender */\n      tag_97\n        /* \"@openzeppelin/contracts/access/Ownable.sol\":1866:1878  _msgSender() */\n      jump\t// in\n    tag_174:\n        /* \"@openzeppelin/contracts/access/Ownable.sol\":1855:1878  owner() != _msgSender() */\n      0xffffffffffffffffffffffffffffffffffffffff\n      and\n        /* \"@openzeppelin/contracts/access/Ownable.sol\":1855:1862  owner() */\n      tag_175\n        /* \"@openzeppelin/contracts/access/Ownable.sol\":1855:1860  owner */\n      tag_60\n        /* \"@openzeppelin/contracts/access/Ownable.sol\":1855:1862  owner() */\n      jump\t// in\n    tag_175:\n        /* \"@openzeppelin/contracts/access/Ownable.sol\":1855:1878  owner() != _msgSender() */\n      0xffffffffffffffffffffffffffffffffffffffff\n      and\n      eq\n        /* \"@openzeppelin/contracts/access/Ownable.sol\":1851:1952  if (owner() != _msgSender()) {... */\n      tag_176\n      jumpi\n        /* \"@openzeppelin/contracts/access/Ownable.sol\":1928:1940  _msgSender() */\n      tag_177\n        /* \"@openzeppelin/contracts/access/Ownable.sol\":1928:1938  _msgSender */\n      tag_97\n        /* \"@openzeppelin/contracts/access/Ownable.sol\":1928:1940  _msgSender() */\n      jump\t// in\n    tag_177:\n        /* \"@openzeppelin/contracts/access/Ownable.sol\":1901:1941  OwnableUnauthorizedAccount(_msgSender()) */\n      mload(0x40)\n      0x118cdaa700000000000000000000000000000000000000000000000000000000\n      dup2\n      mstore\n      0x04\n      add\n      tag_178\n      swap2\n      swap1\n      tag_62\n      jump\t// in\n    tag_178:\n      mload(0x40)\n      dup1\n      swap2\n      sub\n      swap1\n      revert\n        /* \"@openzeppelin/contracts/access/Ownable.sol\":1851:1952  if (owner() != _msgSender()) {... */\n    tag_176:\n        /* \"@openzeppelin/contracts/access/Ownable.sol\":1796:1958  function _checkOwner() internal view virtual {... */\n      jump\t// out\n        /* \"@openzeppelin/contracts/token/ERC20/ERC20.sol\":7721:7929  function _mint(address account, uint256 value) internal {... */\n    tag_113:\n        /* \"@openzeppelin/contracts/token/ERC20/ERC20.sol\":7810:7811  0 */\n      0x00\n        /* \"@openzeppelin/contracts/token/ERC20/ERC20.sol\":7791:7812  account == address(0) */\n      0xffffffffffffffffffffffffffffffffffffffff\n      and\n        /* \"@openzeppelin/contracts/token/ERC20/ERC20.sol\":7791:7798  account */\n      dup3\n        /* \"@openzeppelin/contracts/token/ERC20/ERC20.sol\":7791:7812  account == address(0) */\n      0xffffffffffffffffffffffffffffffffffffffff\n      and\n      sub\n        /* \"@openzeppelin/contracts/token/ERC20/ERC20.sol\":7787:7878  if (account == address(0)) {... */\n      tag_180\n      jumpi\n        /* \"@openzeppelin/contracts/token/ERC20/ERC20.sol\":7864:7865  0 */\n      0x00\n        /* \"@openzeppelin/contracts/token/ERC20/ERC20.sol\":7835:7867  ERC20InvalidReceiver(address(0)) */\n      mload(0x40)\n      0xec442f0500000000000000000000000000000000000000000000000000000000\n      dup2\n      mstore\n      0x04\n      add\n      tag_181\n      swap2\n      swap1\n      tag_62\n      jump\t// in\n    tag_181:\n      mload(0x40)\n      dup1\n      swap2\n      sub\n      swap1\n      revert\n        /* \"@openzeppelin/contracts/token/ERC20/ERC20.sol\":7787:7878  if (account == address(0)) {... */\n    tag_180:\n        /* \"@openzeppelin/contracts/token/ERC20/ERC20.sol\":7887:7922  _update(address(0), account, value) */\n      tag_182\n        /* \"@openzeppelin/contracts/token/ERC20/ERC20.sol\":7903:7904  0 */\n      0x00\n        /* \"@openzeppelin/contracts/token/ERC20/ERC20.sol\":7907:7914  account */\n      dup4\n        /* \"@openzeppelin/contracts/token/ERC20/ERC20.sol\":7916:7921  value */\n      dup4\n        /* \"@openzeppelin/contracts/token/ERC20/ERC20.sol\":7887:7894  _update */\n      tag_172\n        /* \"@openzeppelin/contracts/token/ERC20/ERC20.sol\":7887:7922  _update(address(0), account, value) */\n      jump\t// in\n    tag_182:\n        /* \"@openzeppelin/contracts/token/ERC20/ERC20.sol\":7721:7929  function _mint(address account, uint256 value) internal {... */\n      pop\n      pop\n      jump\t// out\n        /* \"@openzeppelin/contracts/access/Ownable.sol\":2912:3099  function _transferOwnership(address newOwner) internal virtual {... */\n    tag_125:\n        /* \"@openzeppelin/contracts/access/Ownable.sol\":2985:3001  address oldOwner */\n      0x00\n        /* \"@openzeppelin/contracts/access/Ownable.sol\":3004:3010  _owner */\n      0x05\n      0x00\n      swap1\n      sload\n      swap1\n      0x0100\n      exp\n      swap1\n      div\n      0xffffffffffffffffffffffffffffffffffffffff\n      and\n        /* \"@openzeppelin/contracts/access/Ownable.sol\":2985:3010  address oldOwner = _owner */\n      swap1\n      pop\n        /* \"@openzeppelin/contracts/access/Ownable.sol\":3029:3037  newOwner */\n      dup2\n        /* \"@openzeppelin/contracts/access/Ownable.sol\":3020:3026  _owner */\n      0x05\n      0x00\n        /* \"@openzeppelin/contracts/access/Ownable.sol\":3020:3037  _owner = newOwner */\n      0x0100\n      exp\n      dup2\n      sload\n      dup2\n      0xffffffffffffffffffffffffffffffffffffffff\n      mul\n      not\n      and\n      swap1\n      dup4\n      0xffffffffffffffffffffffffffffffffffffffff\n      and\n      mul\n      or\n      swap1\n      sstore\n      pop\n        /* \"@openzeppelin/contracts/access/Ownable.sol\":3083:3091  newOwner */\n      dup2\n        /* \"@openzeppelin/contracts/access/Ownable.sol\":3052:3092  OwnershipTransferred(oldOwner, newOwner) */\n      0xffffffffffffffffffffffffffffffffffffffff\n      and\n        /* \"@openzeppelin/contracts/access/Ownable.sol\":3073:3081  oldOwner */\n      dup2\n        /* \"@openzeppelin/contracts/access/Ownable.sol\":3052:3092  OwnershipTransferred(oldOwner, newOwner) */\n      0xffffffffffffffffffffffffffffffffffffffff\n      and\n      0x8be0079c531659141344cd1fd0a4f28419497f9722a3daafe3b4186f6b6457e0\n      mload(0x40)\n      mload(0x40)\n      dup1\n      swap2\n      sub\n      swap1\n      log3\n        /* \"@openzeppelin/contracts/access/Ownable.sol\":2975:3099  {... */\n      pop\n        /* \"@openzeppelin/contracts/access/Ownable.sol\":2912:3099  function _transferOwnership(address newOwner) internal virtual {... */\n      pop\n      jump\t// out\n        /* \"@openzeppelin/contracts/token/ERC20/ERC20.sol\":8247:8453  function _burn(address account, uint256 value) internal {... */\n    tag_138:\n        /* \"@openzeppelin/contracts/token/ERC20/ERC20.sol\":8336:8337  0 */\n      0x00\n        /* \"@openzeppelin/contracts/token/ERC20/ERC20.sol\":8317:8338  account == address(0) */\n      0xffffffffffffffffffffffffffffffffffffffff\n      and\n        /* \"@openzeppelin/contracts/token/ERC20/ERC20.sol\":8317:8324  account */\n      dup3\n        /* \"@openzeppelin/contracts/token/ERC20/ERC20.sol\":8317:8338  account == address(0) */\n      0xffffffffffffffffffffffffffffffffffffffff\n      and\n      sub\n        /* \"@openzeppelin/contracts/token/ERC20/ERC20.sol\":8313:8402  if (account == address(0)) {... */\n      tag_185\n      jumpi\n        /* \"@openzeppelin/contracts/token/ERC20/ERC20.sol\":8388:8389  0 */\n      0x00\n        /* \"@openzeppelin/contracts/token/ERC20/ERC20.sol\":8361:8391  ERC20InvalidSender(address(0)) */\n      mload(0x40)\n      0x96c6fd1e00000000000000000000000000000000000000000000000000000000\n      dup2\n      mstore\n      0x04\n      add\n      tag_186\n      swap2\n      swap1\n      tag_62\n      jump\t// in\n    tag_186:\n      mload(0x40)\n      dup1\n      swap2\n      sub\n      swap1\n      revert\n        /* \"@openzeppelin/contracts/token/ERC20/ERC20.sol\":8313:8402  if (account == address(0)) {... */\n    tag_185:\n        /* \"@openzeppelin/contracts/token/ERC20/ERC20.sol\":8411:8446  _update(account, address(0), value) */\n      tag_187\n        /* \"@openzeppelin/contracts/token/ERC20/ERC20.sol\":8419:8426  account */\n      dup3\n        /* \"@openzeppelin/contracts/token/ERC20/ERC20.sol\":8436:8437  0 */\n      0x00\n        /* \"@openzeppelin/contracts/token/ERC20/ERC20.sol\":8440:8445  value */\n      dup4\n        /* \"@openzeppelin/contracts/token/ERC20/ERC20.sol\":8411:8418  _update */\n      tag_172\n        /* \"@openzeppelin/contracts/token/ERC20/ERC20.sol\":8411:8446  _update(account, address(0), value) */\n      jump\t// in\n    tag_187:\n        /* \"@openzeppelin/contracts/token/ERC20/ERC20.sol\":8247:8453  function _burn(address account, uint256 value) internal {... */\n      pop\n      pop\n      jump\t// out\n        /* \"@openzeppelin/contracts/token/ERC20/ERC20.sol\":9949:10381  function _approve(address owner, address spender, uint256 value, bool emitEvent) internal virtual {... */\n    tag_158:\n        /* \"@openzeppelin/contracts/token/ERC20/ERC20.sol\":10078:10079  0 */\n      0x00\n        /* \"@openzeppelin/contracts/token/ERC20/ERC20.sol\":10061:10080  owner == address(0) */\n      0xffffffffffffffffffffffffffffffffffffffff\n      and\n        /* \"@openzeppelin/contracts/token/ERC20/ERC20.sol\":10061:10066  owner */\n      dup5\n        /* \"@openzeppelin/contracts/token/ERC20/ERC20.sol\":10061:10080  owner == address(0) */\n      0xffffffffffffffffffffffffffffffffffffffff\n      and\n      sub\n        /* \"@openzeppelin/contracts/token/ERC20/ERC20.sol\":10057:10146  if (owner == address(0)) {... */\n      tag_189\n      jumpi\n        /* \"@openzeppelin/contracts/token/ERC20/ERC20.sol\":10132:10133  0 */\n      0x00\n        /* \"@openzeppelin/contracts/token/ERC20/ERC20.sol\":10103:10135  ERC20InvalidApprover(address(0)) */\n      mload(0x40)\n      0xe602df0500000000000000000000000000000000000000000000000000000000\n      dup2\n      mstore\n      0x04\n      add\n      tag_190\n      swap2\n      swap1\n      tag_62\n      jump\t// in\n    tag_190:\n      mload(0x40)\n      dup1\n      swap2\n      sub\n      swap1\n      revert\n        /* \"@openzeppelin/contracts/token/ERC20/ERC20.sol\":10057:10146  if (owner == address(0)) {... */\n    tag_189:\n        /* \"@openzeppelin/contracts/token/ERC20/ERC20.sol\":10178:10179  0 */\n      0x00\n        /* \"@openzeppelin/contracts/token/ERC20/ERC20.sol\":10159:10180  spender == address(0) */\n      0xffffffffffffffffffffffffffffffffffffffff\n      and\n        /* \"@openzeppelin/contracts/token/ERC20/ERC20.sol\":10159:10166  spender */\n      dup4\n        /* \"@openzeppelin/contracts/token/ERC20/ERC20.sol\":10159:10180  spender == address(0) */\n      0xffffffffffffffffffffffffffffffffffffffff\n      and\n      sub\n        /* \"@openzeppelin/contracts/token/ERC20/ERC20.sol\":10155:10245  if (spender == address(0)) {... */\n      tag_191\n      jumpi\n        /* \"@openzeppelin/contracts/token/ERC20/ERC20.sol\":10231:10232  0 */\n      0x00\n        /* \"@openzeppelin/contracts/token/ERC20/ERC20.sol\":10203:10234  ERC20InvalidSpender(address(0)) */\n      mload(0x40)\n      0x94280d6200000000000000000000000000000000000000000000000000000000\n      dup2\n      mstore\n      0x04\n      add\n      tag_192\n      swap2\n      swap1\n      tag_62\n      jump\t// in\n    tag_192:\n      mload(0x40)\n      dup1\n      swap2\n      sub\n      swap1\n      revert\n        /* \"@openzeppelin/contracts/token/ERC20/ERC20.sol\":10155:10245  if (spender == address(0)) {... */\n    tag_191:\n        /* \"@openzeppelin/contracts/token/ERC20/ERC20.sol\":10284:10289  value */\n      dup2\n        /* \"@openzeppelin/contracts/token/ERC20/ERC20.sol\":10254:10265  _allowances */\n      0x01\n        /* \"@openzeppelin/contracts/token/ERC20/ERC20.sol\":10254:10272  _allowances[owner] */\n      0x00\n        /* \"@openzeppelin/contracts/token/ERC20/ERC20.sol\":10266:10271  owner */\n      dup7\n        /* \"@openzeppelin/contracts/token/ERC20/ERC20.sol\":10254:10272  _allowances[owner] */\n      0xffffffffffffffffffffffffffffffffffffffff\n      and\n      0xffffffffffffffffffffffffffffffffffffffff\n      and\n      dup2\n      mstore\n      0x20\n      add\n      swap1\n      dup2\n      mstore\n      0x20\n      add\n      0x00\n      keccak256\n        /* \"@openzeppelin/contracts/token/ERC20/ERC20.sol\":10254:10281  _allowances[owner][spender] */\n      0x00\n        /* \"@openzeppelin/contracts/token/ERC20/ERC20.sol\":10273:10280  spender */\n      dup6\n        /* \"@openzeppelin/contracts/token/ERC20/ERC20.sol\":10254:10281  _allowances[owner][spender] */\n      0xffffffffffffffffffffffffffffffffffffffff\n      and\n      0xffffffffffffffffffffffffffffffffffffffff\n      and\n      dup2\n      mstore\n      0x20\n      add\n      swap1\n      dup2\n      mstore\n      0x20\n      add\n      0x00\n      keccak256\n        /* \"@openzeppelin/contracts/token/ERC20/ERC20.sol\":10254:10289  _allowances[owner][spender] = value */\n      dup2\n      swap1\n      sstore\n      pop\n        /* \"@openzeppelin/contracts/token/ERC20/ERC20.sol\":10303:10312  emitEvent */\n      dup1\n        /* \"@openzeppelin/contracts/token/ERC20/ERC20.sol\":10299:10375  if (emitEvent) {... */\n      iszero\n      tag_193\n      jumpi\n        /* \"@openzeppelin/contracts/token/ERC20/ERC20.sol\":10349:10356  spender */\n      dup3\n        /* \"@openzeppelin/contracts/token/ERC20/ERC20.sol\":10333:10364  Approval(owner, spender, value) */\n      0xffffffffffffffffffffffffffffffffffffffff\n      and\n        /* \"@openzeppelin/contracts/token/ERC20/ERC20.sol\":10342:10347  owner */\n      dup5\n        /* \"@openzeppelin/contracts/token/ERC20/ERC20.sol\":10333:10364  Approval(owner, spender, value) */\n      0xffffffffffffffffffffffffffffffffffffffff\n      and\n      0x8c5be1e5ebec7d5bd14f71427d1e84f3dd0314c0f7b2291e5b200ac8c7c3b925\n        /* \"@openzeppelin/contracts/token/ERC20/ERC20.sol\":10358:10363  value */\n      dup5\n        /* \"@openzeppelin/contracts/token/ERC20/ERC20.sol\":10333:10364  Approval(owner, spender, value) */\n      mload(0x40)\n      tag_194\n      swap2\n      swap1\n      tag_36\n      jump\t// in\n    tag_194:\n      mload(0x40)\n      dup1\n      swap2\n      sub\n      swap1\n      log3\n        /* \"@openzeppelin/contracts/token/ERC20/ERC20.sol\":10299:10375  if (emitEvent) {... */\n    tag_193:\n        /* \"@openzeppelin/contracts/token/ERC20/ERC20.sol\":9949:10381  function _approve(address owner, address spender, uint256 value, bool emitEvent) internal virtual {... */\n      pop\n      pop\n      pop\n      pop\n      jump\t// out\n        /* \"@openzeppelin/contracts/token/ERC20/ERC20.sol\":6271:7378  function _update(address from, address to, uint256 value) internal virtual {... */\n    tag_172:\n        /* \"@openzeppelin/contracts/token/ERC20/ERC20.sol\":6376:6377  0 */\n      0x00\n        /* \"@openzeppelin/contracts/token/ERC20/ERC20.sol\":6360:6378  from == address(0) */\n      0xffffffffffffffffffffffffffffffffffffffff\n      and\n        /* \"@openzeppelin/contracts/token/ERC20/ERC20.sol\":6360:6364  from */\n      dup4\n        /* \"@openzeppelin/contracts/token/ERC20/ERC20.sol\":6360:6378  from == address(0) */\n      0xffffffffffffffffffffffffffffffffffffffff\n      and\n      sub\n        /* \"@openzeppelin/contracts/token/ERC20/ERC20.sol\":6356:6896  if (from == address(0)) {... */\n      tag_196\n      jumpi\n        /* \"@openzeppelin/contracts/token/ERC20/ERC20.sol\":6512:6517  value */\n      dup1\n        /* \"@openzeppelin/contracts/token/ERC20/ERC20.sol\":6496:6508  _totalSupply */\n      0x02\n      0x00\n        /* \"@openzeppelin/contracts/token/ERC20/ERC20.sol\":6496:6517  _totalSupply += value */\n      dup3\n      dup3\n      sload\n      tag_197\n      swap2\n      swap1\n      tag_198\n      jump\t// in\n    tag_197:\n      swap3\n      pop\n      pop\n      dup2\n      swap1\n      sstore\n      pop\n        /* \"@openzeppelin/contracts/token/ERC20/ERC20.sol\":6356:6896  if (from == address(0)) {... */\n      jump(tag_199)\n    tag_196:\n        /* \"@openzeppelin/contracts/token/ERC20/ERC20.sol\":6548:6567  uint256 fromBalance */\n      0x00\n        /* \"@openzeppelin/contracts/token/ERC20/ERC20.sol\":6570:6579  _balances */\n      dup1\n        /* \"@openzeppelin/contracts/token/ERC20/ERC20.sol\":6570:6585  _balances[from] */\n      0x00\n        /* \"@openzeppelin/contracts/token/ERC20/ERC20.sol\":6580:6584  from */\n      dup6\n        /* \"@openzeppelin/contracts/token/ERC20/ERC20.sol\":6570:6585  _balances[from] */\n      0xffffffffffffffffffffffffffffffffffffffff\n      and\n      0xffffffffffffffffffffffffffffffffffffffff\n      and\n      dup2\n      mstore\n      0x20\n      add\n      swap1\n      dup2\n      mstore\n      0x20\n      add\n      0x00\n      keccak256\n      sload\n        /* \"@openzeppelin/contracts/token/ERC20/ERC20.sol\":6548:6585  uint256 fromBalance = _balances[from] */\n      swap1\n      pop\n        /* \"@openzeppelin/contracts/token/ERC20/ERC20.sol\":6617:6622  value */\n      dup2\n        /* \"@openzeppelin/contracts/token/ERC20/ERC20.sol\":6603:6614  fromBalance */\n      dup2\n        /* \"@openzeppelin/contracts/token/ERC20/ERC20.sol\":6603:6622  fromBalance < value */\n      lt\n        /* \"@openzeppelin/contracts/token/ERC20/ERC20.sol\":6599:6714  if (fromBalance < value) {... */\n      iszero\n      tag_200\n      jumpi\n        /* \"@openzeppelin/contracts/token/ERC20/ERC20.sol\":6674:6678  from */\n      dup4\n        /* \"@openzeppelin/contracts/token/ERC20/ERC20.sol\":6680:6691  fromBalance */\n      dup2\n        /* \"@openzeppelin/contracts/token/ERC20/ERC20.sol\":6693:6698  value */\n      dup4\n        /* \"@openzeppelin/contracts/token/ERC20/ERC20.sol\":6649:6699  ERC20InsufficientBalance(from, fromBalance, value) */\n      mload(0x40)\n      0xe450d38c00000000000000000000000000000000000000000000000000000000\n      dup2\n      mstore\n      0x04\n      add\n      tag_201\n      swap4\n      swap3\n      swap2\n      swap1\n      tag_164\n      jump\t// in\n    tag_201:\n      mload(0x40)\n      dup1\n      swap2\n      sub\n      swap1\n      revert\n        /* \"@openzeppelin/contracts/token/ERC20/ERC20.sol\":6599:6714  if (fromBalance < value) {... */\n    tag_200:\n        /* \"@openzeppelin/contracts/token/ERC20/ERC20.sol\":6866:6871  value */\n      dup2\n        /* \"@openzeppelin/contracts/token/ERC20/ERC20.sol\":6852:6863  fromBalance */\n      dup2\n        /* \"@openzeppelin/contracts/token/ERC20/ERC20.sol\":6852:6871  fromBalance - value */\n      sub\n        /* \"@openzeppelin/contracts/token/ERC20/ERC20.sol\":6834:6843  _balances */\n      0x00\n        /* \"@openzeppelin/contracts/token/ERC20/ERC20.sol\":6834:6849  _balances[from] */\n      dup1\n        /* \"@openzeppelin/contracts/token/ERC20/ERC20.sol\":6844:6848  from */\n      dup7\n        /* \"@openzeppelin/contracts/token/ERC20/ERC20.sol\":6834:6849  _balances[from] */\n      0xffffffffffffffffffffffffffffffffffffffff\n      and\n      0xffffffffffffffffffffffffffffffffffffffff\n      and\n      dup2\n      mstore\n      0x20\n      add\n      swap1\n      dup2\n      mstore\n      0x20\n      add\n      0x00\n      keccak256\n        /* \"@openzeppelin/contracts/token/ERC20/ERC20.sol\":6834:6871  _balances[from] = fromBalance - value */\n      dup2\n      swap1\n      sstore\n      pop\n        /* \"@openzeppelin/contracts/token/ERC20/ERC20.sol\":6534:6896  {... */\n      pop\n        /* \"@openzeppelin/contracts/token/ERC20/ERC20.sol\":6356:6896  if (from == address(0)) {... */\n    tag_199:\n        /* \"@openzeppelin/contracts/token/ERC20/ERC20.sol\":6924:6925  0 */\n      0x00\n        /* \"@openzeppelin/contracts/token/ERC20/ERC20.sol\":6910:6926  to == address(0) */\n      0xffffffffffffffffffffffffffffffffffffffff\n      and\n        /* \"@openzeppelin/contracts/token/ERC20/ERC20.sol\":6910:6912  to */\n      dup3\n        /* \"@openzeppelin/contracts/token/ERC20/ERC20.sol\":6910:6926  to == address(0) */\n      0xffffffffffffffffffffffffffffffffffffffff\n      and\n      sub\n        /* \"@openzeppelin/contracts/token/ERC20/ERC20.sol\":6906:7331  if (to == address(0)) {... */\n      tag_202\n      jumpi\n        /* \"@openzeppelin/contracts/token/ERC20/ERC20.sol\":7089:7094  value */\n      dup1\n        /* \"@openzeppelin/contracts/token/ERC20/ERC20.sol\":7073:7085  _totalSupply */\n      0x02\n      0x00\n        /* \"@openzeppelin/contracts/token/ERC20/ERC20.sol\":7073:7094  _totalSupply -= value */\n      dup3\n      dup3\n      sload\n      sub\n      swap3\n      pop\n      pop\n      dup2\n      swap1\n      sstore\n      pop\n        /* \"@openzeppelin/contracts/token/ERC20/ERC20.sol\":6906:7331  if (to == address(0)) {... */\n      jump(tag_203)\n    tag_202:\n        /* \"@openzeppelin/contracts/token/ERC20/ERC20.sol\":7301:7306  value */\n      dup1\n        /* \"@openzeppelin/contracts/token/ERC20/ERC20.sol\":7284:7293  _balances */\n      0x00\n        /* \"@openzeppelin/contracts/token/ERC20/ERC20.sol\":7284:7297  _balances[to] */\n      dup1\n        /* \"@openzeppelin/contracts/token/ERC20/ERC20.sol\":7294:7296  to */\n      dup5\n        /* \"@openzeppelin/contracts/token/ERC20/ERC20.sol\":7284:7297  _balances[to] */\n      0xffffffffffffffffffffffffffffffffffffffff\n      and\n      0xffffffffffffffffffffffffffffffffffffffff\n      and\n      dup2\n      mstore\n      0x20\n      add\n      swap1\n      dup2\n      mstore\n      0x20\n      add\n      0x00\n      keccak256\n      0x00\n        /* \"@openzeppelin/contracts/token/ERC20/ERC20.sol\":7284:7306  _balances[to] += value */\n      dup3\n      dup3\n      sload\n      add\n      swap3\n      pop\n      pop\n      dup2\n      swap1\n      sstore\n      pop\n        /* \"@openzeppelin/contracts/token/ERC20/ERC20.sol\":6906:7331  if (to == address(0)) {... */\n    tag_203:\n        /* \"@openzeppelin/contracts/token/ERC20/ERC20.sol\":7361:7363  to */\n      dup2\n        /* \"@openzeppelin/contracts/token/ERC20/ERC20.sol\":7346:7371  Transfer(from, to, value) */\n      0xffffffffffffffffffffffffffffffffffffffff\n      and\n        /* \"@openzeppelin/contracts/token/ERC20/ERC20.sol\":7355:7359  from */\n      dup4\n        /* \"@openzeppelin/contracts/token/ERC20/ERC20.sol\":7346:7371  Transfer(from, to, value) */\n      0xffffffffffffffffffffffffffffffffffffffff\n      and\n      0xddf252ad1be2c89b69c2b068fc378daa952ba7f163c4a11628f55a4df523b3ef\n        /* \"@openzeppelin/contracts/token/ERC20/ERC20.sol\":7365:7370  value */\n      dup4\n        /* \"@openzeppelin/contracts/token/ERC20/ERC20.sol\":7346:7371  Transfer(from, to, value) */\n      mload(0x40)\n      tag_204\n      swap2\n      swap1\n      tag_36\n      jump\t// in\n    tag_204:\n      mload(0x40)\n      dup1\n      swap2\n      sub\n      swap1\n      log3\n        /* \"@openzeppelin/contracts/token/ERC20/ERC20.sol\":6271:7378  function _update(address from, address to, uint256 value) internal virtual {... */\n      pop\n      pop\n      pop\n      jump\t// out\n        /* \"#utility.yul\":7:106   */\n    tag_205:\n        /* \"#utility.yul\":59:65   */\n      0x00\n        /* \"#utility.yul\":93:98   */\n      dup2\n        /* \"#utility.yul\":87:99   */\n      mload\n        /* \"#utility.yul\":77:99   */\n      swap1\n      pop\n        /* \"#utility.yul\":7:106   */\n      swap2\n      swap1\n      pop\n      jump\t// out\n        /* \"#utility.yul\":112:281   */\n    tag_206:\n        /* \"#utility.yul\":196:207   */\n      0x00\n        /* \"#utility.yul\":230:236   */\n      dup3\n        /* \"#utility.yul\":225:228   */\n      dup3\n        /* \"#utility.yul\":218:237   */\n      mstore\n        /* \"#utility.yul\":270:274   */\n      0x20\n        /* \"#utility.yul\":265:268   */\n      dup3\n        /* \"#utility.yul\":261:275   */\n      add\n        /* \"#utility.yul\":246:275   */\n      swap1\n      pop\n        /* \"#utility.yul\":112:281   */\n      swap3\n      swap2\n      pop\n      pop\n      jump\t// out\n        /* \"#utility.yul\":287:533   */\n    tag_207:\n        /* \"#utility.yul\":368:369   */\n      0x00\n        /* \"#utility.yul\":378:491   */\n    tag_238:\n        /* \"#utility.yul\":392:398   */\n      dup4\n        /* \"#utility.yul\":389:390   */\n      dup2\n        /* \"#utility.yul\":386:399   */\n      lt\n        /* \"#utility.yul\":378:491   */\n      iszero\n      tag_240\n      jumpi\n        /* \"#utility.yul\":477:478   */\n      dup1\n        /* \"#utility.yul\":472:475   */\n      dup3\n        /* \"#utility.yul\":468:479   */\n      add\n        /* \"#utility.yul\":462:480   */\n      mload\n        /* \"#utility.yul\":458:459   */\n      dup2\n        /* \"#utility.yul\":453:456   */\n      dup5\n        /* \"#utility.yul\":449:460   */\n      add\n        /* \"#utility.yul\":442:481   */\n      mstore\n        /* \"#utility.yul\":414:416   */\n      0x20\n        /* \"#utility.yul\":411:412   */\n      dup2\n        /* \"#utility.yul\":407:417   */\n      add\n        /* \"#utility.yul\":402:417   */\n      swap1\n      pop\n        /* \"#utility.yul\":378:491   */\n      jump(tag_238)\n    tag_240:\n        /* \"#utility.yul\":525:526   */\n      0x00\n        /* \"#utility.yul\":516:522   */\n      dup5\n        /* \"#utility.yul\":511:514   */\n      dup5\n        /* \"#utility.yul\":507:523   */\n      add\n        /* \"#utility.yul\":500:527   */\n      mstore\n        /* \"#utility.yul\":349:533   */\n      pop\n        /* \"#utility.yul\":287:533   */\n      pop\n      pop\n      pop\n      jump\t// out\n        /* \"#utility.yul\":539:641   */\n    tag_208:\n        /* \"#utility.yul\":580:586   */\n      0x00\n        /* \"#utility.yul\":631:633   */\n      0x1f\n        /* \"#utility.yul\":627:634   */\n      not\n        /* \"#utility.yul\":622:624   */\n      0x1f\n        /* \"#utility.yul\":615:620   */\n      dup4\n        /* \"#utility.yul\":611:625   */\n      add\n        /* \"#utility.yul\":607:635   */\n      and\n        /* \"#utility.yul\":597:635   */\n      swap1\n      pop\n        /* \"#utility.yul\":539:641   */\n      swap2\n      swap1\n      pop\n      jump\t// out\n        /* \"#utility.yul\":647:1024   */\n    tag_209:\n        /* \"#utility.yul\":735:738   */\n      0x00\n        /* \"#utility.yul\":763:802   */\n      tag_243\n        /* \"#utility.yul\":796:801   */\n      dup3\n        /* \"#utility.yul\":763:802   */\n      tag_205\n      jump\t// in\n    tag_243:\n        /* \"#utility.yul\":818:889   */\n      tag_244\n        /* \"#utility.yul\":882:888   */\n      dup2\n        /* \"#utility.yul\":877:880   */\n      dup6\n        /* \"#utility.yul\":818:889   */\n      tag_206\n      jump\t// in\n    tag_244:\n        /* \"#utility.yul\":811:889   */\n      swap4\n      pop\n        /* \"#utility.yul\":898:963   */\n      tag_245\n        /* \"#utility.yul\":956:962   */\n      dup2\n        /* \"#utility.yul\":951:954   */\n      dup6\n        /* \"#utility.yul\":944:948   */\n      0x20\n        /* \"#utility.yul\":937:942   */\n      dup7\n        /* \"#utility.yul\":933:949   */\n      add\n        /* \"#utility.yul\":898:963   */\n      tag_207\n      jump\t// in\n    tag_245:\n        /* \"#utility.yul\":988:1017   */\n      tag_246\n        /* \"#utility.yul\":1010:1016   */\n      dup2\n        /* \"#utility.yul\":988:1017   */\n      tag_208\n      jump\t// in\n    tag_246:\n        /* \"#utility.yul\":983:986   */\n      dup5\n        /* \"#utility.yul\":979:1018   */\n      add\n        /* \"#utility.yul\":972:1018   */\n      swap2\n      pop\n        /* \"#utility.yul\":739:1024   */\n      pop\n        /* \"#utility.yul\":647:1024   */\n      swap3\n      swap2\n      pop\n      pop\n      jump\t// out\n        /* \"#utility.yul\":1030:1343   */\n    tag_26:\n        /* \"#utility.yul\":1143:1147   */\n      0x00\n        /* \"#utility.yul\":1181:1183   */\n      0x20\n        /* \"#utility.yul\":1170:1179   */\n      dup3\n        /* \"#utility.yul\":1166:1184   */\n      add\n        /* \"#utility.yul\":1158:1184   */\n      swap1\n      pop\n        /* \"#utility.yul\":1230:1239   */\n      dup2\n        /* \"#utility.yul\":1224:1228   */\n      dup2\n        /* \"#utility.yul\":1220:1240   */\n      sub\n        /* \"#utility.yul\":1216:1217   */\n      0x00\n        /* \"#utility.yul\":1205:1214   */\n      dup4\n        /* \"#utility.yul\":1201:1218   */\n      add\n        /* \"#utility.yul\":1194:1241   */\n      mstore\n        /* \"#utility.yul\":1258:1336   */\n      tag_248\n        /* \"#utility.yul\":1331:1335   */\n      dup2\n        /* \"#utility.yul\":1322:1328   */\n      dup5\n        /* \"#utility.yul\":1258:1336   */\n      tag_209\n      jump\t// in\n    tag_248:\n        /* \"#utility.yul\":1250:1336   */\n      swap1\n      pop\n        /* \"#utility.yul\":1030:1343   */\n      swap3\n      swap2\n      pop\n      pop\n      jump\t// out\n        /* \"#utility.yul\":1430:1547   */\n    tag_211:\n        /* \"#utility.yul\":1539:1540   */\n      0x00\n        /* \"#utility.yul\":1536:1537   */\n      dup1\n        /* \"#utility.yul\":1529:1541   */\n      revert\n        /* \"#utility.yul\":1676:1802   */\n    tag_213:\n        /* \"#utility.yul\":1713:1720   */\n      0x00\n        /* \"#utility.yul\":1753:1795   */\n      0xffffffffffffffffffffffffffffffffffffffff\n        /* \"#utility.yul\":1746:1751   */\n      dup3\n        /* \"#utility.yul\":1742:1796   */\n      and\n        /* \"#utility.yul\":1731:1796   */\n      swap1\n      pop\n        /* \"#utility.yul\":1676:1802   */\n      swap2\n      swap1\n      pop\n      jump\t// out\n        /* \"#utility.yul\":1808:1904   */\n    tag_214:\n        /* \"#utility.yul\":1845:1852   */\n      0x00\n        /* \"#utility.yul\":1874:1898   */\n      tag_254\n        /* \"#utility.yul\":1892:1897   */\n      dup3\n        /* \"#utility.yul\":1874:1898   */\n      tag_213\n      jump\t// in\n    tag_254:\n        /* \"#utility.yul\":1863:1898   */\n      swap1\n      pop\n        /* \"#utility.yul\":1808:1904   */\n      swap2\n      swap1\n      pop\n      jump\t// out\n        /* \"#utility.yul\":1910:2032   */\n    tag_215:\n        /* \"#utility.yul\":1983:2007   */\n      tag_256\n        /* \"#utility.yul\":2001:2006   */\n      dup2\n        /* \"#utility.yul\":1983:2007   */\n      tag_214\n      jump\t// in\n    tag_256:\n        /* \"#utility.yul\":1976:1981   */\n      dup2\n        /* \"#utility.yul\":1973:2008   */\n      eq\n        /* \"#utility.yul\":1963:2026   */\n      tag_257\n      jumpi\n        /* \"#utility.yul\":2022:2023   */\n      0x00\n        /* \"#utility.yul\":2019:2020   */\n      dup1\n        /* \"#utility.yul\":2012:2024   */\n      revert\n        /* \"#utility.yul\":1963:2026   */\n    tag_257:\n        /* \"#utility.yul\":1910:2032   */\n      pop\n      jump\t// out\n        /* \"#utility.yul\":2038:2177   */\n    tag_216:\n        /* \"#utility.yul\":2084:2089   */\n      0x00\n        /* \"#utility.yul\":2122:2128   */\n      dup2\n        /* \"#utility.yul\":2109:2129   */\n      calldataload\n        /* \"#utility.yul\":2100:2129   */\n      swap1\n      pop\n        /* \"#utility.yul\":2138:2171   */\n      tag_259\n        /* \"#utility.yul\":2165:2170   */\n      dup2\n        /* \"#utility.yul\":2138:2171   */\n      tag_215\n      jump\t// in\n    tag_259:\n        /* \"#utility.yul\":2038:2177   */\n      swap3\n      swap2\n      pop\n      pop\n      jump\t// out\n        /* \"#utility.yul\":2183:2260   */\n    tag_217:\n        /* \"#utility.yul\":2220:2227   */\n      0x00\n        /* \"#utility.yul\":2249:2254   */\n      dup2\n        /* \"#utility.yul\":2238:2254   */\n      swap1\n      pop\n        /* \"#utility.yul\":2183:2260   */\n      swap2\n      swap1\n      pop\n      jump\t// out\n        /* \"#utility.yul\":2266:2388   */\n    tag_218:\n        /* \"#utility.yul\":2339:2363   */\n      tag_262\n        /* \"#utility.yul\":2357:2362   */\n      dup2\n        /* \"#utility.yul\":2339:2363   */\n      tag_217\n      jump\t// in\n    tag_262:\n        /* \"#utility.yul\":2332:2337   */\n      dup2\n        /* \"#utility.yul\":2329:2364   */\n      eq\n        /* \"#utility.yul\":2319:2382   */\n      tag_263\n      jumpi\n        /* \"#utility.yul\":2378:2379   */\n      0x00\n        /* \"#utility.yul\":2375:2376   */\n      dup1\n        /* \"#utility.yul\":2368:2380   */\n      revert\n        /* \"#utility.yul\":2319:2382   */\n    tag_263:\n        /* \"#utility.yul\":2266:2388   */\n      pop\n      jump\t// out\n        /* \"#utility.yul\":2394:2533   */\n    tag_219:\n        /* \"#utility.yul\":2440:2445   */\n      0x00\n        /* \"#utility.yul\":2478:2484   */\n      dup2\n        /* \"#utility.yul\":2465:2485   */\n      calldataload\n        /* \"#utility.yul\":2456:2485   */\n      swap1\n      pop\n        /* \"#utility.yul\":2494:2527   */\n      tag_265\n        /* \"#utility.yul\":2521:2526   */\n      dup2\n        /* \"#utility.yul\":2494:2527   */\n      tag_218\n      jump\t// in\n    tag_265:\n        /* \"#utility.yul\":2394:2533   */\n      swap3\n      swap2\n      pop\n      pop\n      jump\t// out\n        /* \"#utility.yul\":2539:3013   */\n    tag_29:\n        /* \"#utility.yul\":2607:2613   */\n      0x00\n        /* \"#utility.yul\":2615:2621   */\n      dup1\n        /* \"#utility.yul\":2664:2666   */\n      0x40\n        /* \"#utility.yul\":2652:2661   */\n      dup4\n        /* \"#utility.yul\":2643:2650   */\n      dup6\n        /* \"#utility.yul\":2639:2662   */\n      sub\n        /* \"#utility.yul\":2635:2667   */\n      slt\n        /* \"#utility.yul\":2632:2751   */\n      iszero\n      tag_267\n      jumpi\n        /* \"#utility.yul\":2670:2749   */\n      tag_268\n      tag_211\n      jump\t// in\n    tag_268:\n        /* \"#utility.yul\":2632:2751   */\n    tag_267:\n        /* \"#utility.yul\":2790:2791   */\n      0x00\n        /* \"#utility.yul\":2815:2868   */\n      tag_269\n        /* \"#utility.yul\":2860:2867   */\n      dup6\n        /* \"#utility.yul\":2851:2857   */\n      dup3\n        /* \"#utility.yul\":2840:2849   */\n      dup7\n        /* \"#utility.yul\":2836:2858   */\n      add\n        /* \"#utility.yul\":2815:2868   */\n      tag_216\n      jump\t// in\n    tag_269:\n        /* \"#utility.yul\":2805:2868   */\n      swap3\n      pop\n        /* \"#utility.yul\":2761:2878   */\n      pop\n        /* \"#utility.yul\":2917:2919   */\n      0x20\n        /* \"#utility.yul\":2943:2996   */\n      tag_270\n        /* \"#utility.yul\":2988:2995   */\n      dup6\n        /* \"#utility.yul\":2979:2985   */\n      dup3\n        /* \"#utility.yul\":2968:2977   */\n      dup7\n        /* \"#utility.yul\":2964:2986   */\n      add\n        /* \"#utility.yul\":2943:2996   */\n      tag_219\n      jump\t// in\n    tag_270:\n        /* \"#utility.yul\":2933:2996   */\n      swap2\n      pop\n        /* \"#utility.yul\":2888:3006   */\n      pop\n        /* \"#utility.yul\":2539:3013   */\n      swap3\n      pop\n      swap3\n      swap1\n      pop\n      jump\t// out\n        /* \"#utility.yul\":3019:3109   */\n    tag_220:\n        /* \"#utility.yul\":3053:3060   */\n      0x00\n        /* \"#utility.yul\":3096:3101   */\n      dup2\n        /* \"#utility.yul\":3089:3102   */\n      iszero\n        /* \"#utility.yul\":3082:3103   */\n      iszero\n        /* \"#utility.yul\":3071:3103   */\n      swap1\n      pop\n        /* \"#utility.yul\":3019:3109   */\n      swap2\n      swap1\n      pop\n      jump\t// out\n        /* \"#utility.yul\":3115:3224   */\n    tag_221:\n        /* \"#utility.yul\":3196:3217   */\n      tag_273\n        /* \"#utility.yul\":3211:3216   */\n      dup2\n        /* \"#utility.yul\":3196:3217   */\n      tag_220\n      jump\t// in\n    tag_273:\n        /* \"#utility.yul\":3191:3194   */\n      dup3\n        /* \"#utility.yul\":3184:3218   */\n      mstore\n        /* \"#utility.yul\":3115:3224   */\n      pop\n      pop\n      jump\t// out\n        /* \"#utility.yul\":3230:3440   */\n    tag_32:\n        /* \"#utility.yul\":3317:3321   */\n      0x00\n        /* \"#utility.yul\":3355:3357   */\n      0x20\n        /* \"#utility.yul\":3344:3353   */\n      dup3\n        /* \"#utility.yul\":3340:3358   */\n      add\n        /* \"#utility.yul\":3332:3358   */\n      swap1\n      pop\n        /* \"#utility.yul\":3368:3433   */\n      tag_275\n        /* \"#utility.yul\":3430:3431   */\n      0x00\n        /* \"#utility.yul\":3419:3428   */\n      dup4\n        /* \"#utility.yul\":3415:3432   */\n      add\n        /* \"#utility.yul\":3406:3412   */\n      dup5\n        /* \"#utility.yul\":3368:3433   */\n      tag_221\n      jump\t// in\n    tag_275:\n        /* \"#utility.yul\":3230:3440   */\n      swap3\n      swap2\n      pop\n      pop\n      jump\t// out\n        /* \"#utility.yul\":3446:3564   */\n    tag_222:\n        /* \"#utility.yul\":3533:3557   */\n      tag_277\n        /* \"#utility.yul\":3551:3556   */\n      dup2\n        /* \"#utility.yul\":3533:3557   */\n      tag_217\n      jump\t// in\n    tag_277:\n        /* \"#utility.yul\":3528:3531   */\n      dup3\n        /* \"#utility.yul\":3521:3558   */\n      mstore\n        /* \"#utility.yul\":3446:3564   */\n      pop\n      pop\n      jump\t// out\n        /* \"#utility.yul\":3570:3792   */\n    tag_36:\n        /* \"#utility.yul\":3663:3667   */\n      0x00\n        /* \"#utility.yul\":3701:3703   */\n      0x20\n        /* \"#utility.yul\":3690:3699   */\n      dup3\n        /* \"#utility.yul\":3686:3704   */\n      add\n        /* \"#utility.yul\":3678:3704   */\n      swap1\n      pop\n        /* \"#utility.yul\":3714:3785   */\n      tag_279\n        /* \"#utility.yul\":3782:3783   */\n      0x00\n        /* \"#utility.yul\":3771:3780   */\n      dup4\n        /* \"#utility.yul\":3767:3784   */\n      add\n        /* \"#utility.yul\":3758:3764   */\n      dup5\n        /* \"#utility.yul\":3714:3785   */\n      tag_222\n      jump\t// in\n    tag_279:\n        /* \"#utility.yul\":3570:3792   */\n      swap3\n      swap2\n      pop\n      pop\n      jump\t// out\n        /* \"#utility.yul\":3798:4417   */\n    tag_39:\n        /* \"#utility.yul\":3875:3881   */\n      0x00\n        /* \"#utility.yul\":3883:3889   */\n      dup1\n        /* \"#utility.yul\":3891:3897   */\n      0x00\n        /* \"#utility.yul\":3940:3942   */\n      0x60\n        /* \"#utility.yul\":3928:3937   */\n      dup5\n        /* \"#utility.yul\":3919:3926   */\n      dup7\n        /* \"#utility.yul\":3915:3938   */\n      sub\n        /* \"#utility.yul\":3911:3943   */\n      slt\n        /* \"#utility.yul\":3908:4027   */\n      iszero\n      tag_281\n      jumpi\n        /* \"#utility.yul\":3946:4025   */\n      tag_282\n      tag_211\n      jump\t// in\n    tag_282:\n        /* \"#utility.yul\":3908:4027   */\n    tag_281:\n        /* \"#utility.yul\":4066:4067   */\n      0x00\n        /* \"#utility.yul\":4091:4144   */\n      tag_283\n        /* \"#utility.yul\":4136:4143   */\n      dup7\n        /* \"#utility.yul\":4127:4133   */\n      dup3\n        /* \"#utility.yul\":4116:4125   */\n      dup8\n        /* \"#utility.yul\":4112:4134   */\n      add\n        /* \"#utility.yul\":4091:4144   */\n      tag_216\n      jump\t// in\n    tag_283:\n        /* \"#utility.yul\":4081:4144   */\n      swap4\n      pop\n        /* \"#utility.yul\":4037:4154   */\n      pop\n        /* \"#utility.yul\":4193:4195   */\n      0x20\n        /* \"#utility.yul\":4219:4272   */\n      tag_284\n        /* \"#utility.yul\":4264:4271   */\n      dup7\n        /* \"#utility.yul\":4255:4261   */\n      dup3\n        /* \"#utility.yul\":4244:4253   */\n      dup8\n        /* \"#utility.yul\":4240:4262   */\n      add\n        /* \"#utility.yul\":4219:4272   */\n      tag_216\n      jump\t// in\n    tag_284:\n        /* \"#utility.yul\":4209:4272   */\n      swap3\n      pop\n        /* \"#utility.yul\":4164:4282   */\n      pop\n        /* \"#utility.yul\":4321:4323   */\n      0x40\n        /* \"#utility.yul\":4347:4400   */\n      tag_285\n        /* \"#utility.yul\":4392:4399   */\n      dup7\n        /* \"#utility.yul\":4383:4389   */\n      dup3\n        /* \"#utility.yul\":4372:4381   */\n      dup8\n        /* \"#utility.yul\":4368:4390   */\n      add\n        /* \"#utility.yul\":4347:4400   */\n      tag_219\n      jump\t// in\n    tag_285:\n        /* \"#utility.yul\":4337:4400   */\n      swap2\n      pop\n        /* \"#utility.yul\":4292:4410   */\n      pop\n        /* \"#utility.yul\":3798:4417   */\n      swap3\n      pop\n      swap3\n      pop\n      swap3\n      jump\t// out\n        /* \"#utility.yul\":4423:4509   */\n    tag_223:\n        /* \"#utility.yul\":4458:4465   */\n      0x00\n        /* \"#utility.yul\":4498:4502   */\n      0xff\n        /* \"#utility.yul\":4491:4496   */\n      dup3\n        /* \"#utility.yul\":4487:4503   */\n      and\n        /* \"#utility.yul\":4476:4503   */\n      swap1\n      pop\n        /* \"#utility.yul\":4423:4509   */\n      swap2\n      swap1\n      pop\n      jump\t// out\n        /* \"#utility.yul\":4515:4627   */\n    tag_224:\n        /* \"#utility.yul\":4598:4620   */\n      tag_288\n        /* \"#utility.yul\":4614:4619   */\n      dup2\n        /* \"#utility.yul\":4598:4620   */\n      tag_223\n      jump\t// in\n    tag_288:\n        /* \"#utility.yul\":4593:4596   */\n      dup3\n        /* \"#utility.yul\":4586:4621   */\n      mstore\n        /* \"#utility.yul\":4515:4627   */\n      pop\n      pop\n      jump\t// out\n        /* \"#utility.yul\":4633:4847   */\n    tag_45:\n        /* \"#utility.yul\":4722:4726   */\n      0x00\n        /* \"#utility.yul\":4760:4762   */\n      0x20\n        /* \"#utility.yul\":4749:4758   */\n      dup3\n        /* \"#utility.yul\":4745:4763   */\n      add\n        /* \"#utility.yul\":4737:4763   */\n      swap1\n      pop\n        /* \"#utility.yul\":4773:4840   */\n      tag_290\n        /* \"#utility.yul\":4837:4838   */\n      0x00\n        /* \"#utility.yul\":4826:4835   */\n      dup4\n        /* \"#utility.yul\":4822:4839   */\n      add\n        /* \"#utility.yul\":4813:4819   */\n      dup5\n        /* \"#utility.yul\":4773:4840   */\n      tag_224\n      jump\t// in\n    tag_290:\n        /* \"#utility.yul\":4633:4847   */\n      swap3\n      swap2\n      pop\n      pop\n      jump\t// out\n        /* \"#utility.yul\":4853:5182   */\n    tag_54:\n        /* \"#utility.yul\":4912:4918   */\n      0x00\n        /* \"#utility.yul\":4961:4963   */\n      0x20\n        /* \"#utility.yul\":4949:4958   */\n      dup3\n        /* \"#utility.yul\":4940:4947   */\n      dup5\n        /* \"#utility.yul\":4936:4959   */\n      sub\n        /* \"#utility.yul\":4932:4964   */\n      slt\n        /* \"#utility.yul\":4929:5048   */\n      iszero\n      tag_292\n      jumpi\n        /* \"#utility.yul\":4967:5046   */\n      tag_293\n      tag_211\n      jump\t// in\n    tag_293:\n        /* \"#utility.yul\":4929:5048   */\n    tag_292:\n        /* \"#utility.yul\":5087:5088   */\n      0x00\n        /* \"#utility.yul\":5112:5165   */\n      tag_294\n        /* \"#utility.yul\":5157:5164   */\n      dup5\n        /* \"#utility.yul\":5148:5154   */\n      dup3\n        /* \"#utility.yul\":5137:5146   */\n      dup6\n        /* \"#utility.yul\":5133:5155   */\n      add\n        /* \"#utility.yul\":5112:5165   */\n      tag_216\n      jump\t// in\n    tag_294:\n        /* \"#utility.yul\":5102:5165   */\n      swap2\n      pop\n        /* \"#utility.yul\":5058:5175   */\n      pop\n        /* \"#utility.yul\":4853:5182   */\n      swap3\n      swap2\n      pop\n      pop\n      jump\t// out\n        /* \"#utility.yul\":5188:5306   */\n    tag_225:\n        /* \"#utility.yul\":5275:5299   */\n      tag_296\n        /* \"#utility.yul\":5293:5298   */\n      dup2\n        /* \"#utility.yul\":5275:5299   */\n      tag_214\n      jump\t// in\n    tag_296:\n        /* \"#utility.yul\":5270:5273   */\n      dup3\n        /* \"#utility.yul\":5263:5300   */\n      mstore\n        /* \"#utility.yul\":5188:5306   */\n      pop\n      pop\n      jump\t// out\n        /* \"#utility.yul\":5312:5534   */\n    tag_62:\n        /* \"#utility.yul\":5405:5409   */\n      0x00\n        /* \"#utility.yul\":5443:5445   */\n      0x20\n        /* \"#utility.yul\":5432:5441   */\n      dup3\n        /* \"#utility.yul\":5428:5446   */\n      add\n        /* \"#utility.yul\":5420:5446   */\n      swap1\n      pop\n        /* \"#utility.yul\":5456:5527   */\n      tag_298\n        /* \"#utility.yul\":5524:5525   */\n      0x00\n        /* \"#utility.yul\":5513:5522   */\n      dup4\n        /* \"#utility.yul\":5509:5526   */\n      add\n        /* \"#utility.yul\":5500:5506   */\n      dup5\n        /* \"#utility.yul\":5456:5527   */\n      tag_225\n      jump\t// in\n    tag_298:\n        /* \"#utility.yul\":5312:5534   */\n      swap3\n      swap2\n      pop\n      pop\n      jump\t// out\n        /* \"#utility.yul\":5540:5650   */\n    tag_226:\n        /* \"#utility.yul\":5624:5625   */\n      0x05\n        /* \"#utility.yul\":5617:5622   */\n      dup2\n        /* \"#utility.yul\":5614:5626   */\n      lt\n        /* \"#utility.yul\":5604:5644   */\n      tag_300\n      jumpi\n        /* \"#utility.yul\":5640:5641   */\n      0x00\n        /* \"#utility.yul\":5637:5638   */\n      dup1\n        /* \"#utility.yul\":5630:5642   */\n      revert\n        /* \"#utility.yul\":5604:5644   */\n    tag_300:\n        /* \"#utility.yul\":5540:5650   */\n      pop\n      jump\t// out\n        /* \"#utility.yul\":5656:5817   */\n    tag_227:\n        /* \"#utility.yul\":5713:5718   */\n      0x00\n        /* \"#utility.yul\":5751:5757   */\n      dup2\n        /* \"#utility.yul\":5738:5758   */\n      calldataload\n        /* \"#utility.yul\":5729:5758   */\n      swap1\n      pop\n        /* \"#utility.yul\":5767:5811   */\n      tag_302\n        /* \"#utility.yul\":5805:5810   */\n      dup2\n        /* \"#utility.yul\":5767:5811   */\n      tag_226\n      jump\t// in\n    tag_302:\n        /* \"#utility.yul\":5656:5817   */\n      swap3\n      swap2\n      pop\n      pop\n      jump\t// out\n        /* \"#utility.yul\":5823:6174   */\n    tag_75:\n        /* \"#utility.yul\":5893:5899   */\n      0x00\n        /* \"#utility.yul\":5942:5944   */\n      0x20\n        /* \"#utility.yul\":5930:5939   */\n      dup3\n        /* \"#utility.yul\":5921:5928   */\n      dup5\n        /* \"#utility.yul\":5917:5940   */\n      sub\n        /* \"#utility.yul\":5913:5945   */\n      slt\n        /* \"#utility.yul\":5910:6029   */\n      iszero\n      tag_304\n      jumpi\n        /* \"#utility.yul\":5948:6027   */\n      tag_305\n      tag_211\n      jump\t// in\n    tag_305:\n        /* \"#utility.yul\":5910:6029   */\n    tag_304:\n        /* \"#utility.yul\":6068:6069   */\n      0x00\n        /* \"#utility.yul\":6093:6157   */\n      tag_306\n        /* \"#utility.yul\":6149:6156   */\n      dup5\n        /* \"#utility.yul\":6140:6146   */\n      dup3\n        /* \"#utility.yul\":6129:6138   */\n      dup6\n        /* \"#utility.yul\":6125:6147   */\n      add\n        /* \"#utility.yul\":6093:6157   */\n      tag_227\n      jump\t// in\n    tag_306:\n        /* \"#utility.yul\":6083:6157   */\n      swap2\n      pop\n        /* \"#utility.yul\":6039:6167   */\n      pop\n        /* \"#utility.yul\":5823:6174   */\n      swap3\n      swap2\n      pop\n      pop\n      jump\t// out\n        /* \"#utility.yul\":6180:6654   */\n    tag_79:\n        /* \"#utility.yul\":6248:6254   */\n      0x00\n        /* \"#utility.yul\":6256:6262   */\n      dup1\n        /* \"#utility.yul\":6305:6307   */\n      0x40\n        /* \"#utility.yul\":6293:6302   */\n      dup4\n        /* \"#utility.yul\":6284:6291   */\n      dup6\n        /* \"#utility.yul\":6280:6303   */\n      sub\n        /* \"#utility.yul\":6276:6308   */\n      slt\n        /* \"#utility.yul\":6273:6392   */\n      iszero\n      tag_308\n      jumpi\n        /* \"#utility.yul\":6311:6390   */\n      tag_309\n      tag_211\n      jump\t// in\n    tag_309:\n        /* \"#utility.yul\":6273:6392   */\n    tag_308:\n        /* \"#utility.yul\":6431:6432   */\n      0x00\n        /* \"#utility.yul\":6456:6509   */\n      tag_310\n        /* \"#utility.yul\":6501:6508   */\n      dup6\n        /* \"#utility.yul\":6492:6498   */\n      dup3\n        /* \"#utility.yul\":6481:6490   */\n      dup7\n        /* \"#utility.yul\":6477:6499   */\n      add\n        /* \"#utility.yul\":6456:6509   */\n      tag_216\n      jump\t// in\n    tag_310:\n        /* \"#utility.yul\":6446:6509   */\n      swap3\n      pop\n        /* \"#utility.yul\":6402:6519   */\n      pop\n        /* \"#utility.yul\":6558:6560   */\n      0x20\n        /* \"#utility.yul\":6584:6637   */\n      tag_311\n        /* \"#utility.yul\":6629:6636   */\n      dup6\n        /* \"#utility.yul\":6620:6626   */\n      dup3\n        /* \"#utility.yul\":6609:6618   */\n      dup7\n        /* \"#utility.yul\":6605:6627   */\n      add\n        /* \"#utility.yul\":6584:6637   */\n      tag_216\n      jump\t// in\n    tag_311:\n        /* \"#utility.yul\":6574:6637   */\n      swap2\n      pop\n        /* \"#utility.yul\":6529:6647   */\n      pop\n        /* \"#utility.yul\":6180:6654   */\n      swap3\n      pop\n      swap3\n      swap1\n      pop\n      jump\t// out\n        /* \"#utility.yul\":6660:6840   */\n    tag_228:\n        /* \"#utility.yul\":6708:6785   */\n      0x4e487b7100000000000000000000000000000000000000000000000000000000\n        /* \"#utility.yul\":6705:6706   */\n      0x00\n        /* \"#utility.yul\":6698:6786   */\n      mstore\n        /* \"#utility.yul\":6805:6809   */\n      0x22\n        /* \"#utility.yul\":6802:6803   */\n      0x04\n        /* \"#utility.yul\":6795:6810   */\n      mstore\n        /* \"#utility.yul\":6829:6833   */\n      0x24\n        /* \"#utility.yul\":6826:6827   */\n      0x00\n        /* \"#utility.yul\":6819:6834   */\n      revert\n        /* \"#utility.yul\":6846:7166   */\n    tag_90:\n        /* \"#utility.yul\":6890:6896   */\n      0x00\n        /* \"#utility.yul\":6927:6928   */\n      0x02\n        /* \"#utility.yul\":6921:6925   */\n      dup3\n        /* \"#utility.yul\":6917:6929   */\n      div\n        /* \"#utility.yul\":6907:6929   */\n      swap1\n      pop\n        /* \"#utility.yul\":6974:6975   */\n      0x01\n        /* \"#utility.yul\":6968:6972   */\n      dup3\n        /* \"#utility.yul\":6964:6976   */\n      and\n        /* \"#utility.yul\":6995:7013   */\n      dup1\n        /* \"#utility.yul\":6985:7066   */\n      tag_314\n      jumpi\n        /* \"#utility.yul\":7051:7055   */\n      0x7f\n        /* \"#utility.yul\":7043:7049   */\n      dup3\n        /* \"#utility.yul\":7039:7056   */\n      and\n        /* \"#utility.yul\":7029:7056   */\n      swap2\n      pop\n        /* \"#utility.yul\":6985:7066   */\n    tag_314:\n        /* \"#utility.yul\":7113:7115   */\n      0x20\n        /* \"#utility.yul\":7105:7111   */\n      dup3\n        /* \"#utility.yul\":7102:7116   */\n      lt\n        /* \"#utility.yul\":7082:7100   */\n      dup2\n        /* \"#utility.yul\":7079:7117   */\n      sub\n        /* \"#utility.yul\":7076:7160   */\n      tag_315\n      jumpi\n        /* \"#utility.yul\":7132:7150   */\n      tag_316\n      tag_228\n      jump\t// in\n    tag_316:\n        /* \"#utility.yul\":7076:7160   */\n    tag_315:\n        /* \"#utility.yul\":6897:7166   */\n      pop\n        /* \"#utility.yul\":6846:7166   */\n      swap2\n      swap1\n      pop\n      jump\t// out\n        /* \"#utility.yul\":7172:7352   */\n    tag_117:\n        /* \"#utility.yul\":7220:7297   */\n      0x4e487b7100000000000000000000000000000000000000000000000000000000\n        /* \"#utility.yul\":7217:7218   */\n      0x00\n        /* \"#utility.yul\":7210:7298   */\n      mstore\n        /* \"#utility.yul\":7317:7321   */\n      0x21\n        /* \"#utility.yul\":7314:7315   */\n      0x04\n        /* \"#utility.yul\":7307:7322   */\n      mstore\n        /* \"#utility.yul\":7341:7345   */\n      0x24\n        /* \"#utility.yul\":7338:7339   */\n      0x00\n        /* \"#utility.yul\":7331:7346   */\n      revert\n        /* \"#utility.yul\":7358:7527   */\n    tag_229:\n        /* \"#utility.yul\":7498:7519   */\n      0x4e6f7420616c6c6f77656420746f206275726e00000000000000000000000000\n        /* \"#utility.yul\":7494:7495   */\n      0x00\n        /* \"#utility.yul\":7486:7492   */\n      dup3\n        /* \"#utility.yul\":7482:7496   */\n      add\n        /* \"#utility.yul\":7475:7520   */\n      mstore\n        /* \"#utility.yul\":7358:7527   */\n      pop\n      jump\t// out\n        /* \"#utility.yul\":7533:7899   */\n    tag_230:\n        /* \"#utility.yul\":7675:7678   */\n      0x00\n        /* \"#utility.yul\":7696:7763   */\n      tag_320\n        /* \"#utility.yul\":7760:7762   */\n      0x13\n        /* \"#utility.yul\":7755:7758   */\n      dup4\n        /* \"#utility.yul\":7696:7763   */\n      tag_206\n      jump\t// in\n    tag_320:\n        /* \"#utility.yul\":7689:7763   */\n      swap2\n      pop\n        /* \"#utility.yul\":7772:7865   */\n      tag_321\n        /* \"#utility.yul\":7861:7864   */\n      dup3\n        /* \"#utility.yul\":7772:7865   */\n      tag_229\n      jump\t// in\n    tag_321:\n        /* \"#utility.yul\":7890:7892   */\n      0x20\n        /* \"#utility.yul\":7885:7888   */\n      dup3\n        /* \"#utility.yul\":7881:7893   */\n      add\n        /* \"#utility.yul\":7874:7893   */\n      swap1\n      pop\n        /* \"#utility.yul\":7533:7899   */\n      swap2\n      swap1\n      pop\n      jump\t// out\n        /* \"#utility.yul\":7905:8324   */\n    tag_136:\n        /* \"#utility.yul\":8071:8075   */\n      0x00\n        /* \"#utility.yul\":8109:8111   */\n      0x20\n        /* \"#utility.yul\":8098:8107   */\n      dup3\n        /* \"#utility.yul\":8094:8112   */\n      add\n        /* \"#utility.yul\":8086:8112   */\n      swap1\n      pop\n        /* \"#utility.yul\":8158:8167   */\n      dup2\n        /* \"#utility.yul\":8152:8156   */\n      dup2\n        /* \"#utility.yul\":8148:8168   */\n      sub\n        /* \"#utility.yul\":8144:8145   */\n      0x00\n        /* \"#utility.yul\":8133:8142   */\n      dup4\n        /* \"#utility.yul\":8129:8146   */\n      add\n        /* \"#utility.yul\":8122:8169   */\n      mstore\n        /* \"#utility.yul\":8186:8317   */\n      tag_323\n        /* \"#utility.yul\":8312:8316   */\n      dup2\n        /* \"#utility.yul\":8186:8317   */\n      tag_230\n      jump\t// in\n    tag_323:\n        /* \"#utility.yul\":8178:8317   */\n      swap1\n      pop\n        /* \"#utility.yul\":7905:8324   */\n      swap2\n      swap1\n      pop\n      jump\t// out\n        /* \"#utility.yul\":8330:8504   */\n    tag_231:\n        /* \"#utility.yul\":8470:8496   */\n      0x4e6f7420616c6c6f77656420746f20736574206c6576656c0000000000000000\n        /* \"#utility.yul\":8466:8467   */\n      0x00\n        /* \"#utility.yul\":8458:8464   */\n      dup3\n        /* \"#utility.yul\":8454:8468   */\n      add\n        /* \"#utility.yul\":8447:8497   */\n      mstore\n        /* \"#utility.yul\":8330:8504   */\n      pop\n      jump\t// out\n        /* \"#utility.yul\":8510:8876   */\n    tag_232:\n        /* \"#utility.yul\":8652:8655   */\n      0x00\n        /* \"#utility.yul\":8673:8740   */\n      tag_326\n        /* \"#utility.yul\":8737:8739   */\n      0x18\n        /* \"#utility.yul\":8732:8735   */\n      dup4\n        /* \"#utility.yul\":8673:8740   */\n      tag_206\n      jump\t// in\n    tag_326:\n        /* \"#utility.yul\":8666:8740   */\n      swap2\n      pop\n        /* \"#utility.yul\":8749:8842   */\n      tag_327\n        /* \"#utility.yul\":8838:8841   */\n      dup3\n        /* \"#utility.yul\":8749:8842   */\n      tag_231\n      jump\t// in\n    tag_327:\n        /* \"#utility.yul\":8867:8869   */\n      0x20\n        /* \"#utility.yul\":8862:8865   */\n      dup3\n        /* \"#utility.yul\":8858:8870   */\n      add\n        /* \"#utility.yul\":8851:8870   */\n      swap1\n      pop\n        /* \"#utility.yul\":8510:8876   */\n      swap2\n      swap1\n      pop\n      jump\t// out\n        /* \"#utility.yul\":8882:9301   */\n    tag_145:\n        /* \"#utility.yul\":9048:9052   */\n      0x00\n        /* \"#utility.yul\":9086:9088   */\n      0x20\n        /* \"#utility.yul\":9075:9084   */\n      dup3\n        /* \"#utility.yul\":9071:9089   */\n      add\n        /* \"#utility.yul\":9063:9089   */\n      swap1\n      pop\n        /* \"#utility.yul\":9135:9144   */\n      dup2\n        /* \"#utility.yul\":9129:9133   */\n      dup2\n        /* \"#utility.yul\":9125:9145   */\n      sub\n        /* \"#utility.yul\":9121:9122   */\n      0x00\n        /* \"#utility.yul\":9110:9119   */\n      dup4\n        /* \"#utility.yul\":9106:9123   */\n      add\n        /* \"#utility.yul\":9099:9146   */\n      mstore\n        /* \"#utility.yul\":9163:9294   */\n      tag_329\n        /* \"#utility.yul\":9289:9293   */\n      dup2\n        /* \"#utility.yul\":9163:9294   */\n      tag_232\n      jump\t// in\n    tag_329:\n        /* \"#utility.yul\":9155:9294   */\n      swap1\n      pop\n        /* \"#utility.yul\":8882:9301   */\n      swap2\n      swap1\n      pop\n      jump\t// out\n        /* \"#utility.yul\":9307:9749   */\n    tag_164:\n        /* \"#utility.yul\":9456:9460   */\n      0x00\n        /* \"#utility.yul\":9494:9496   */\n      0x60\n        /* \"#utility.yul\":9483:9492   */\n      dup3\n        /* \"#utility.yul\":9479:9497   */\n      add\n        /* \"#utility.yul\":9471:9497   */\n      swap1\n      pop\n        /* \"#utility.yul\":9507:9578   */\n      tag_331\n        /* \"#utility.yul\":9575:9576   */\n      0x00\n        /* \"#utility.yul\":9564:9573   */\n      dup4\n        /* \"#utility.yul\":9560:9577   */\n      add\n        /* \"#utility.yul\":9551:9557   */\n      dup7\n        /* \"#utility.yul\":9507:9578   */\n      tag_225\n      jump\t// in\n    tag_331:\n        /* \"#utility.yul\":9588:9660   */\n      tag_332\n        /* \"#utility.yul\":9656:9658   */\n      0x20\n        /* \"#utility.yul\":9645:9654   */\n      dup4\n        /* \"#utility.yul\":9641:9659   */\n      add\n        /* \"#utility.yul\":9632:9638   */\n      dup6\n        /* \"#utility.yul\":9588:9660   */\n      tag_222\n      jump\t// in\n    tag_332:\n        /* \"#utility.yul\":9670:9742   */\n      tag_333\n        /* \"#utility.yul\":9738:9740   */\n      0x40\n        /* \"#utility.yul\":9727:9736   */\n      dup4\n        /* \"#utility.yul\":9723:9741   */\n      add\n        /* \"#utility.yul\":9714:9720   */\n      dup5\n        /* \"#utility.yul\":9670:9742   */\n      tag_222\n      jump\t// in\n    tag_333:\n        /* \"#utility.yul\":9307:9749   */\n      swap5\n      swap4\n      pop\n      pop\n      pop\n      pop\n      jump\t// out\n        /* \"#utility.yul\":9755:9935   */\n    tag_233:\n        /* \"#utility.yul\":9803:9880   */\n      0x4e487b7100000000000000000000000000000000000000000000000000000000\n        /* \"#utility.yul\":9800:9801   */\n      0x00\n        /* \"#utility.yul\":9793:9881   */\n      mstore\n        /* \"#utility.yul\":9900:9904   */\n      0x11\n        /* \"#utility.yul\":9897:9898   */\n      0x04\n        /* \"#utility.yul\":9890:9905   */\n      mstore\n        /* \"#utility.yul\":9924:9928   */\n      0x24\n        /* \"#utility.yul\":9921:9922   */\n      0x00\n        /* \"#utility.yul\":9914:9929   */\n      revert\n        /* \"#utility.yul\":9941:10132   */\n    tag_198:\n        /* \"#utility.yul\":9981:9984   */\n      0x00\n        /* \"#utility.yul\":10000:10020   */\n      tag_336\n        /* \"#utility.yul\":10018:10019   */\n      dup3\n        /* \"#utility.yul\":10000:10020   */\n      tag_217\n      jump\t// in\n    tag_336:\n        /* \"#utility.yul\":9995:10020   */\n      swap2\n      pop\n        /* \"#utility.yul\":10034:10054   */\n      tag_337\n        /* \"#utility.yul\":10052:10053   */\n      dup4\n        /* \"#utility.yul\":10034:10054   */\n      tag_217\n      jump\t// in\n    tag_337:\n        /* \"#utility.yul\":10029:10054   */\n      swap3\n      pop\n        /* \"#utility.yul\":10077:10078   */\n      dup3\n        /* \"#utility.yul\":10074:10075   */\n      dup3\n        /* \"#utility.yul\":10070:10079   */\n      add\n        /* \"#utility.yul\":10063:10079   */\n      swap1\n      pop\n        /* \"#utility.yul\":10098:10101   */\n      dup1\n        /* \"#utility.yul\":10095:10096   */\n      dup3\n        /* \"#utility.yul\":10092:10102   */\n      gt\n        /* \"#utility.yul\":10089:10125   */\n      iszero\n      tag_338\n      jumpi\n        /* \"#utility.yul\":10105:10123   */\n      tag_339\n      tag_233\n      jump\t// in\n    tag_339:\n        /* \"#utility.yul\":10089:10125   */\n    tag_338:\n        /* \"#utility.yul\":9941:10132   */\n      swap3\n      swap2\n      pop\n      pop\n      jump\t// out\n\n    auxdata: 0xa26469706673582212205a89b7f3565c5f8d2b408241290f6ea8c0536aa2df5da45d3876b966a9a8f75064736f6c63430008170033\n}\n",
				"bytecode": {
					"linkReferences": {},
					"object": "60a060405234801562000010575f80fd5b506040516200210a3803806200210a8339818101604052810190620000369190620006b6565b81848481600390816200004a91906200099a565b5080600490816200005c91906200099a565b5050505f73ffffffffffffffffffffffffffffffffffffffff168173ffffffffffffffffffffffffffffffffffffffff1603620000d2575f6040517f1e4fbdf7000000000000000000000000000000000000000000000000000000008152600401620000c9919062000a8f565b60405180910390fd5b620000e381620001f560201b60201c565b505f73ffffffffffffffffffffffffffffffffffffffff168273ffffffffffffffffffffffffffffffffffffffff160362000155576040517f08c379a00000000000000000000000000000000000000000000000000000000081526004016200014c9062000b08565b60405180910390fd5b8173ffffffffffffffffffffffffffffffffffffffff1660808173ffffffffffffffffffffffffffffffffffffffff1681525050620001be306080517fffffffffffffffffffffffffffffffffffffffffffffffffffffffffffffffff620002b860201b60201c565b80600560146101000a81548160ff02191690836004811115620001e657620001e562000b28565b5b02179055505050505062000b81565b5f60055f9054906101000a900473ffffffffffffffffffffffffffffffffffffffff1690508160055f6101000a81548173ffffffffffffffffffffffffffffffffffffffff021916908373ffffffffffffffffffffffffffffffffffffffff1602179055508173ffffffffffffffffffffffffffffffffffffffff168173ffffffffffffffffffffffffffffffffffffffff167f8be0079c531659141344cd1fd0a4f28419497f9722a3daafe3b4186f6b6457e060405160405180910390a35050565b620002cd8383836001620002d260201b60201c565b505050565b5f73ffffffffffffffffffffffffffffffffffffffff168473ffffffffffffffffffffffffffffffffffffffff160362000345575f6040517fe602df050000000000000000000000000000000000000000000000000000000081526004016200033c919062000a8f565b60405180910390fd5b5f73ffffffffffffffffffffffffffffffffffffffff168373ffffffffffffffffffffffffffffffffffffffff1603620003b8575f6040517f94280d62000000000000000000000000000000000000000000000000000000008152600401620003af919062000a8f565b60405180910390fd5b8160015f8673ffffffffffffffffffffffffffffffffffffffff1673ffffffffffffffffffffffffffffffffffffffff1681526020019081526020015f205f8573ffffffffffffffffffffffffffffffffffffffff1673ffffffffffffffffffffffffffffffffffffffff1681526020019081526020015f20819055508015620004a4578273ffffffffffffffffffffffffffffffffffffffff168473ffffffffffffffffffffffffffffffffffffffff167f8c5be1e5ebec7d5bd14f71427d1e84f3dd0314c0f7b2291e5b200ac8c7c3b925846040516200049b919062000b66565b60405180910390a35b50505050565b5f604051905090565b5f80fd5b5f80fd5b5f80fd5b5f80fd5b5f601f19601f8301169050919050565b7f4e487b71000000000000000000000000000000000000000000000000000000005f52604160045260245ffd5b6200050b82620004c3565b810181811067ffffffffffffffff821117156200052d576200052c620004d3565b5b80604052505050565b5f62000541620004aa565b90506200054f828262000500565b919050565b5f67ffffffffffffffff821115620005715762000570620004d3565b5b6200057c82620004c3565b9050602081019050919050565b5f5b83811015620005a85780820151818401526020810190506200058b565b5f8484015250505050565b5f620005c9620005c38462000554565b62000536565b905082815260208101848484011115620005e857620005e7620004bf565b5b620005f584828562000589565b509392505050565b5f82601f830112620006145762000613620004bb565b5b815162000626848260208601620005b3565b91505092915050565b5f73ffffffffffffffffffffffffffffffffffffffff82169050919050565b5f6200065a826200062f565b9050919050565b6200066c816200064e565b811462000677575f80fd5b50565b5f815190506200068a8162000661565b92915050565b600581106200069d575f80fd5b50565b5f81519050620006b08162000690565b92915050565b5f805f8060808587031215620006d157620006d0620004b3565b5b5f85015167ffffffffffffffff811115620006f157620006f0620004b7565b5b620006ff87828801620005fd565b945050602085015167ffffffffffffffff811115620007235762000722620004b7565b5b6200073187828801620005fd565b935050604062000744878288016200067a565b92505060606200075787828801620006a0565b91505092959194509250565b5f81519050919050565b7f4e487b71000000000000000000000000000000000000000000000000000000005f52602260045260245ffd5b5f6002820490506001821680620007b257607f821691505b602082108103620007c857620007c76200076d565b5b50919050565b5f819050815f5260205f209050919050565b5f6020601f8301049050919050565b5f82821b905092915050565b5f600883026200082c7fffffffffffffffffffffffffffffffffffffffffffffffffffffffffffffffff82620007ef565b620008388683620007ef565b95508019841693508086168417925050509392505050565b5f819050919050565b5f819050919050565b5f620008826200087c620008768462000850565b62000859565b62000850565b9050919050565b5f819050919050565b6200089d8362000862565b620008b5620008ac8262000889565b848454620007fb565b825550505050565b5f90565b620008cb620008bd565b620008d881848462000892565b505050565b5b81811015620008ff57620008f35f82620008c1565b600181019050620008de565b5050565b601f8211156200094e576200091881620007ce565b6200092384620007e0565b8101602085101562000933578190505b6200094b6200094285620007e0565b830182620008dd565b50505b505050565b5f82821c905092915050565b5f620009705f198460080262000953565b1980831691505092915050565b5f6200098a83836200095f565b9150826002028217905092915050565b620009a58262000763565b67ffffffffffffffff811115620009c157620009c0620004d3565b5b620009cd82546200079a565b620009da82828562000903565b5f60209050601f83116001811462000a10575f8415620009fb578287015190505b62000a0785826200097d565b86555062000a76565b601f19841662000a2086620007ce565b5f5b8281101562000a495784890151825560018201915060208501945060208101905062000a22565b8683101562000a69578489015162000a65601f8916826200095f565b8355505b6001600288020188555050505b505050505050565b62000a89816200064e565b82525050565b5f60208201905062000aa45f83018462000a7e565b92915050565b5f82825260208201905092915050565b7f496e76616c6964206164647265737300000000000000000000000000000000005f82015250565b5f62000af0600f8362000aaa565b915062000afd8262000aba565b602082019050919050565b5f6020820190508181035f83015262000b218162000ae2565b9050919050565b7f4e487b71000000000000000000000000000000000000000000000000000000005f52602160045260245ffd5b62000b608162000850565b82525050565b5f60208201905062000b7b5f83018462000b55565b92915050565b60805161156262000ba85f395f818161059a01528181610658015261081901526115625ff3fe608060405234801561000f575f80fd5b5060043610610109575f3560e01c8063715018a6116100a0578063a9059cbb1161006f578063a9059cbb14610293578063bd5546be146102c3578063dd62ed3e146102df578063f2fde38b1461030f578063f9e05c6d1461032b57610109565b8063715018a6146102315780638da5cb5b1461023b57806395d89b41146102595780639dc29fac1461027757610109565b8063313ce567116100dc578063313ce567146101a957806340c10f19146101c757806363a2b02b146101e357806370a082311461020157610109565b806306fdde031461010d578063095ea7b31461012b57806318160ddd1461015b57806323b872dd14610179575b5f80fd5b610115610349565b6040516101229190611090565b60405180910390f35b61014560048036038101906101409190611141565b6103d9565b6040516101529190611199565b60405180910390f35b6101636103fb565b60405161017091906111c1565b60405180910390f35b610193600480360381019061018e91906111da565b610404565b6040516101a09190611199565b60405180910390f35b6101b1610432565b6040516101be9190611245565b60405180910390f35b6101e160048036038101906101dc9190611141565b610436565b005b6101eb61044c565b6040516101f89190611199565b60405180910390f35b61021b6004803603810190610216919061125e565b610488565b60405161022891906111c1565b60405180910390f35b6102396104cd565b005b6102436104e0565b6040516102509190611298565b60405180910390f35b610261610508565b60405161026e9190611090565b60405180910390f35b610291600480360381019061028c9190611141565b610598565b005b6102ad60048036038101906102a89190611141565b610634565b6040516102ba9190611199565b60405180910390f35b6102dd60048036038101906102d891906112d4565b610656565b005b6102f960048036038101906102f491906112ff565b610711565b60405161030691906111c1565b60405180910390f35b6103296004803603810190610324919061125e565b610793565b005b610333610817565b6040516103409190611298565b60405180910390f35b6060600380546103589061136a565b80601f01602080910402602001604051908101604052809291908181526020018280546103849061136a565b80156103cf5780601f106103a6576101008083540402835291602001916103cf565b820191905f5260205f20905b8154815290600101906020018083116103b257829003601f168201915b5050505050905090565b5f806103e361083b565b90506103f0818585610842565b600191505092915050565b5f600254905090565b5f8061040e61083b565b905061041b858285610854565b6104268585856108e6565b60019150509392505050565b5f90565b61043e6109d6565b6104488282610a5d565b5050565b5f8060048111156104605761045f61139a565b5b600560149054906101000a900460ff1660048111156104825761048161139a565b5b14905090565b5f805f8373ffffffffffffffffffffffffffffffffffffffff1673ffffffffffffffffffffffffffffffffffffffff1681526020019081526020015f20549050919050565b6104d56109d6565b6104de5f610adc565b565b5f60055f9054906101000a900473ffffffffffffffffffffffffffffffffffffffff16905090565b6060600480546105179061136a565b80601f01602080910402602001604051908101604052809291908181526020018280546105439061136a565b801561058e5780601f106105655761010080835404028352916020019161058e565b820191905f5260205f20905b81548152906001019060200180831161057157829003601f168201915b5050505050905090565b7f000000000000000000000000000000000000000000000000000000000000000073ffffffffffffffffffffffffffffffffffffffff163373ffffffffffffffffffffffffffffffffffffffff1614610626576040517f08c379a000000000000000000000000000000000000000000000000000000000815260040161061d90611411565b60405180910390fd5b6106308282610b9f565b5050565b5f8061063e61083b565b905061064b8185856108e6565b600191505092915050565b7f000000000000000000000000000000000000000000000000000000000000000073ffffffffffffffffffffffffffffffffffffffff163373ffffffffffffffffffffffffffffffffffffffff16146106e4576040517f08c379a00000000000000000000000000000000000000000000000000000000081526004016106db90611479565b60405180910390fd5b80600560146101000a81548160ff021916908360048111156107095761070861139a565b5b021790555050565b5f60015f8473ffffffffffffffffffffffffffffffffffffffff1673ffffffffffffffffffffffffffffffffffffffff1681526020019081526020015f205f8373ffffffffffffffffffffffffffffffffffffffff1673ffffffffffffffffffffffffffffffffffffffff1681526020019081526020015f2054905092915050565b61079b6109d6565b5f73ffffffffffffffffffffffffffffffffffffffff168173ffffffffffffffffffffffffffffffffffffffff160361080b575f6040517f1e4fbdf70000000000000000000000000000000000000000000000000000000081526004016108029190611298565b60405180910390fd5b61081481610adc565b50565b7f000000000000000000000000000000000000000000000000000000000000000081565b5f33905090565b61084f8383836001610c1e565b505050565b5f61085f8484610711565b90507fffffffffffffffffffffffffffffffffffffffffffffffffffffffffffffffff81146108e057818110156108d1578281836040517ffb8f41b20000000000000000000000000000000000000000000000000000000081526004016108c893929190611497565b60405180910390fd5b6108df84848484035f610c1e565b5b50505050565b5f73ffffffffffffffffffffffffffffffffffffffff168373ffffffffffffffffffffffffffffffffffffffff1603610956575f6040517f96c6fd1e00000000000000000000000000000000000000000000000000000000815260040161094d9190611298565b60405180910390fd5b5f73ffffffffffffffffffffffffffffffffffffffff168273ffffffffffffffffffffffffffffffffffffffff16036109c6575f6040517fec442f050000000000000000000000000000000000000000000000000000000081526004016109bd9190611298565b60405180910390fd5b6109d1838383610ded565b505050565b6109de61083b565b73ffffffffffffffffffffffffffffffffffffffff166109fc6104e0565b73ffffffffffffffffffffffffffffffffffffffff1614610a5b57610a1f61083b565b6040517f118cdaa7000000000000000000000000000000000000000000000000000000008152600401610a529190611298565b60405180910390fd5b565b5f73ffffffffffffffffffffffffffffffffffffffff168273ffffffffffffffffffffffffffffffffffffffff1603610acd575f6040517fec442f05000000000000000000000000000000000000000000000000000000008152600401610ac49190611298565b60405180910390fd5b610ad85f8383610ded565b5050565b5f60055f9054906101000a900473ffffffffffffffffffffffffffffffffffffffff1690508160055f6101000a81548173ffffffffffffffffffffffffffffffffffffffff021916908373ffffffffffffffffffffffffffffffffffffffff1602179055508173ffffffffffffffffffffffffffffffffffffffff168173ffffffffffffffffffffffffffffffffffffffff167f8be0079c531659141344cd1fd0a4f28419497f9722a3daafe3b4186f6b6457e060405160405180910390a35050565b5f73ffffffffffffffffffffffffffffffffffffffff168273ffffffffffffffffffffffffffffffffffffffff1603610c0f575f6040517f96c6fd1e000000000000000000000000000000000000000000000000000000008152600401610c069190611298565b60405180910390fd5b610c1a825f83610ded565b5050565b5f73ffffffffffffffffffffffffffffffffffffffff168473ffffffffffffffffffffffffffffffffffffffff1603610c8e575f6040517fe602df05000000000000000000000000000000000000000000000000000000008152600401610c859190611298565b60405180910390fd5b5f73ffffffffffffffffffffffffffffffffffffffff168373ffffffffffffffffffffffffffffffffffffffff1603610cfe575f6040517f94280d62000000000000000000000000000000000000000000000000000000008152600401610cf59190611298565b60405180910390fd5b8160015f8673ffffffffffffffffffffffffffffffffffffffff1673ffffffffffffffffffffffffffffffffffffffff1681526020019081526020015f205f8573ffffffffffffffffffffffffffffffffffffffff1673ffffffffffffffffffffffffffffffffffffffff1681526020019081526020015f20819055508015610de7578273ffffffffffffffffffffffffffffffffffffffff168473ffffffffffffffffffffffffffffffffffffffff167f8c5be1e5ebec7d5bd14f71427d1e84f3dd0314c0f7b2291e5b200ac8c7c3b92584604051610dde91906111c1565b60405180910390a35b50505050565b5f73ffffffffffffffffffffffffffffffffffffffff168373ffffffffffffffffffffffffffffffffffffffff1603610e3d578060025f828254610e3191906114f9565b92505081905550610f0b565b5f805f8573ffffffffffffffffffffffffffffffffffffffff1673ffffffffffffffffffffffffffffffffffffffff1681526020019081526020015f2054905081811015610ec6578381836040517fe450d38c000000000000000000000000000000000000000000000000000000008152600401610ebd93929190611497565b60405180910390fd5b8181035f808673ffffffffffffffffffffffffffffffffffffffff1673ffffffffffffffffffffffffffffffffffffffff1681526020019081526020015f2081905550505b5f73ffffffffffffffffffffffffffffffffffffffff168273ffffffffffffffffffffffffffffffffffffffff1603610f52578060025f8282540392505081905550610f9c565b805f808473ffffffffffffffffffffffffffffffffffffffff1673ffffffffffffffffffffffffffffffffffffffff1681526020019081526020015f205f82825401925050819055505b8173ffffffffffffffffffffffffffffffffffffffff168373ffffffffffffffffffffffffffffffffffffffff167fddf252ad1be2c89b69c2b068fc378daa952ba7f163c4a11628f55a4df523b3ef83604051610ff991906111c1565b60405180910390a3505050565b5f81519050919050565b5f82825260208201905092915050565b5f5b8381101561103d578082015181840152602081019050611022565b5f8484015250505050565b5f601f19601f8301169050919050565b5f61106282611006565b61106c8185611010565b935061107c818560208601611020565b61108581611048565b840191505092915050565b5f6020820190508181035f8301526110a88184611058565b905092915050565b5f80fd5b5f73ffffffffffffffffffffffffffffffffffffffff82169050919050565b5f6110dd826110b4565b9050919050565b6110ed816110d3565b81146110f7575f80fd5b50565b5f81359050611108816110e4565b92915050565b5f819050919050565b6111208161110e565b811461112a575f80fd5b50565b5f8135905061113b81611117565b92915050565b5f8060408385031215611157576111566110b0565b5b5f611164858286016110fa565b92505060206111758582860161112d565b9150509250929050565b5f8115159050919050565b6111938161117f565b82525050565b5f6020820190506111ac5f83018461118a565b92915050565b6111bb8161110e565b82525050565b5f6020820190506111d45f8301846111b2565b92915050565b5f805f606084860312156111f1576111f06110b0565b5b5f6111fe868287016110fa565b935050602061120f868287016110fa565b92505060406112208682870161112d565b9150509250925092565b5f60ff82169050919050565b61123f8161122a565b82525050565b5f6020820190506112585f830184611236565b92915050565b5f60208284031215611273576112726110b0565b5b5f611280848285016110fa565b91505092915050565b611292816110d3565b82525050565b5f6020820190506112ab5f830184611289565b92915050565b600581106112bd575f80fd5b50565b5f813590506112ce816112b1565b92915050565b5f602082840312156112e9576112e86110b0565b5b5f6112f6848285016112c0565b91505092915050565b5f8060408385031215611315576113146110b0565b5b5f611322858286016110fa565b9250506020611333858286016110fa565b9150509250929050565b7f4e487b71000000000000000000000000000000000000000000000000000000005f52602260045260245ffd5b5f600282049050600182168061138157607f821691505b6020821081036113945761139361133d565b5b50919050565b7f4e487b71000000000000000000000000000000000000000000000000000000005f52602160045260245ffd5b7f4e6f7420616c6c6f77656420746f206275726e000000000000000000000000005f82015250565b5f6113fb601383611010565b9150611406826113c7565b602082019050919050565b5f6020820190508181035f830152611428816113ef565b9050919050565b7f4e6f7420616c6c6f77656420746f20736574206c6576656c00000000000000005f82015250565b5f611463601883611010565b915061146e8261142f565b602082019050919050565b5f6020820190508181035f83015261149081611457565b9050919050565b5f6060820190506114aa5f830186611289565b6114b760208301856111b2565b6114c460408301846111b2565b949350505050565b7f4e487b71000000000000000000000000000000000000000000000000000000005f52601160045260245ffd5b5f6115038261110e565b915061150e8361110e565b9250828201905080821115611526576115256114cc565b5b9291505056fea26469706673582212205a89b7f3565c5f8d2b408241290f6ea8c0536aa2df5da45d3876b966a9a8f75064736f6c63430008170033",
					"opcodes": "PUSH1 0xA0 PUSH1 0x40 MSTORE CALLVALUE DUP1 ISZERO PUSH3 0x10 JUMPI PUSH0 DUP1 REVERT JUMPDEST POP PUSH1 0x40 MLOAD PUSH3 0x210A CODESIZE SUB DUP1 PUSH3 0x210A DUP4 CODECOPY DUP2 DUP2 ADD PUSH1 0x40 MSTORE DUP2 ADD SWAP1 PUSH3 0x36 SWAP2 SWAP1 PUSH3 0x6B6 JUMP JUMPDEST DUP2 DUP5 DUP5 DUP2 PUSH1 0x3 SWAP1 DUP2 PUSH3 0x4A SWAP2 SWAP1 PUSH3 0x99A JUMP JUMPDEST POP DUP1 PUSH1 0x4 SWAP1 DUP2 PUSH3 0x5C SWAP2 SWAP1 PUSH3 0x99A JUMP JUMPDEST POP POP POP PUSH0 PUSH20 0xFFFFFFFFFFFFFFFFFFFFFFFFFFFFFFFFFFFFFFFF AND DUP2 PUSH20 0xFFFFFFFFFFFFFFFFFFFFFFFFFFFFFFFFFFFFFFFF AND SUB PUSH3 0xD2 JUMPI PUSH0 PUSH1 0x40 MLOAD PUSH32 0x1E4FBDF700000000000000000000000000000000000000000000000000000000 DUP2 MSTORE PUSH1 0x4 ADD PUSH3 0xC9 SWAP2 SWAP1 PUSH3 0xA8F JUMP JUMPDEST PUSH1 0x40 MLOAD DUP1 SWAP2 SUB SWAP1 REVERT JUMPDEST PUSH3 0xE3 DUP2 PUSH3 0x1F5 PUSH1 0x20 SHL PUSH1 0x20 SHR JUMP JUMPDEST POP PUSH0 PUSH20 0xFFFFFFFFFFFFFFFFFFFFFFFFFFFFFFFFFFFFFFFF AND DUP3 PUSH20 0xFFFFFFFFFFFFFFFFFFFFFFFFFFFFFFFFFFFFFFFF AND SUB PUSH3 0x155 JUMPI PUSH1 0x40 MLOAD PUSH32 0x8C379A000000000000000000000000000000000000000000000000000000000 DUP2 MSTORE PUSH1 0x4 ADD PUSH3 0x14C SWAP1 PUSH3 0xB08 JUMP JUMPDEST PUSH1 0x40 MLOAD DUP1 SWAP2 SUB SWAP1 REVERT JUMPDEST DUP2 PUSH20 0xFFFFFFFFFFFFFFFFFFFFFFFFFFFFFFFFFFFFFFFF AND PUSH1 0x80 DUP2 PUSH20 0xFFFFFFFFFFFFFFFFFFFFFFFFFFFFFFFFFFFFFFFF AND DUP2 MSTORE POP POP PUSH3 0x1BE ADDRESS PUSH1 0x80 MLOAD PUSH32 0xFFFFFFFFFFFFFFFFFFFFFFFFFFFFFFFFFFFFFFFFFFFFFFFFFFFFFFFFFFFFFFFF PUSH3 0x2B8 PUSH1 0x20 SHL PUSH1 0x20 SHR JUMP JUMPDEST DUP1 PUSH1 0x5 PUSH1 0x14 PUSH2 0x100 EXP DUP2 SLOAD DUP2 PUSH1 0xFF MUL NOT AND SWAP1 DUP4 PUSH1 0x4 DUP2 GT ISZERO PUSH3 0x1E6 JUMPI PUSH3 0x1E5 PUSH3 0xB28 JUMP JUMPDEST JUMPDEST MUL OR SWAP1 SSTORE POP POP POP POP POP PUSH3 0xB81 JUMP JUMPDEST PUSH0 PUSH1 0x5 PUSH0 SWAP1 SLOAD SWAP1 PUSH2 0x100 EXP SWAP1 DIV PUSH20 0xFFFFFFFFFFFFFFFFFFFFFFFFFFFFFFFFFFFFFFFF AND SWAP1 POP DUP2 PUSH1 0x5 PUSH0 PUSH2 0x100 EXP DUP2 SLOAD DUP2 PUSH20 0xFFFFFFFFFFFFFFFFFFFFFFFFFFFFFFFFFFFFFFFF MUL NOT AND SWAP1 DUP4 PUSH20 0xFFFFFFFFFFFFFFFFFFFFFFFFFFFFFFFFFFFFFFFF AND MUL OR SWAP1 SSTORE POP DUP2 PUSH20 0xFFFFFFFFFFFFFFFFFFFFFFFFFFFFFFFFFFFFFFFF AND DUP2 PUSH20 0xFFFFFFFFFFFFFFFFFFFFFFFFFFFFFFFFFFFFFFFF AND PUSH32 0x8BE0079C531659141344CD1FD0A4F28419497F9722A3DAAFE3B4186F6B6457E0 PUSH1 0x40 MLOAD PUSH1 0x40 MLOAD DUP1 SWAP2 SUB SWAP1 LOG3 POP POP JUMP JUMPDEST PUSH3 0x2CD DUP4 DUP4 DUP4 PUSH1 0x1 PUSH3 0x2D2 PUSH1 0x20 SHL PUSH1 0x20 SHR JUMP JUMPDEST POP POP POP JUMP JUMPDEST PUSH0 PUSH20 0xFFFFFFFFFFFFFFFFFFFFFFFFFFFFFFFFFFFFFFFF AND DUP5 PUSH20 0xFFFFFFFFFFFFFFFFFFFFFFFFFFFFFFFFFFFFFFFF AND SUB PUSH3 0x345 JUMPI PUSH0 PUSH1 0x40 MLOAD PUSH32 0xE602DF0500000000000000000000000000000000000000000000000000000000 DUP2 MSTORE PUSH1 0x4 ADD PUSH3 0x33C SWAP2 SWAP1 PUSH3 0xA8F JUMP JUMPDEST PUSH1 0x40 MLOAD DUP1 SWAP2 SUB SWAP1 REVERT JUMPDEST PUSH0 PUSH20 0xFFFFFFFFFFFFFFFFFFFFFFFFFFFFFFFFFFFFFFFF AND DUP4 PUSH20 0xFFFFFFFFFFFFFFFFFFFFFFFFFFFFFFFFFFFFFFFF AND SUB PUSH3 0x3B8 JUMPI PUSH0 PUSH1 0x40 MLOAD PUSH32 0x94280D6200000000000000000000000000000000000000000000000000000000 DUP2 MSTORE PUSH1 0x4 ADD PUSH3 0x3AF SWAP2 SWAP1 PUSH3 0xA8F JUMP JUMPDEST PUSH1 0x40 MLOAD DUP1 SWAP2 SUB SWAP1 REVERT JUMPDEST DUP2 PUSH1 0x1 PUSH0 DUP7 PUSH20 0xFFFFFFFFFFFFFFFFFFFFFFFFFFFFFFFFFFFFFFFF AND PUSH20 0xFFFFFFFFFFFFFFFFFFFFFFFFFFFFFFFFFFFFFFFF AND DUP2 MSTORE PUSH1 0x20 ADD SWAP1 DUP2 MSTORE PUSH1 0x20 ADD PUSH0 KECCAK256 PUSH0 DUP6 PUSH20 0xFFFFFFFFFFFFFFFFFFFFFFFFFFFFFFFFFFFFFFFF AND PUSH20 0xFFFFFFFFFFFFFFFFFFFFFFFFFFFFFFFFFFFFFFFF AND DUP2 MSTORE PUSH1 0x20 ADD SWAP1 DUP2 MSTORE PUSH1 0x20 ADD PUSH0 KECCAK256 DUP2 SWAP1 SSTORE POP DUP1 ISZERO PUSH3 0x4A4 JUMPI DUP3 PUSH20 0xFFFFFFFFFFFFFFFFFFFFFFFFFFFFFFFFFFFFFFFF AND DUP5 PUSH20 0xFFFFFFFFFFFFFFFFFFFFFFFFFFFFFFFFFFFFFFFF AND PUSH32 0x8C5BE1E5EBEC7D5BD14F71427D1E84F3DD0314C0F7B2291E5B200AC8C7C3B925 DUP5 PUSH1 0x40 MLOAD PUSH3 0x49B SWAP2 SWAP1 PUSH3 0xB66 JUMP JUMPDEST PUSH1 0x40 MLOAD DUP1 SWAP2 SUB SWAP1 LOG3 JUMPDEST POP POP POP POP JUMP JUMPDEST PUSH0 PUSH1 0x40 MLOAD SWAP1 POP SWAP1 JUMP JUMPDEST PUSH0 DUP1 REVERT JUMPDEST PUSH0 DUP1 REVERT JUMPDEST PUSH0 DUP1 REVERT JUMPDEST PUSH0 DUP1 REVERT JUMPDEST PUSH0 PUSH1 0x1F NOT PUSH1 0x1F DUP4 ADD AND SWAP1 POP SWAP2 SWAP1 POP JUMP JUMPDEST PUSH32 0x4E487B7100000000000000000000000000000000000000000000000000000000 PUSH0 MSTORE PUSH1 0x41 PUSH1 0x4 MSTORE PUSH1 0x24 PUSH0 REVERT JUMPDEST PUSH3 0x50B DUP3 PUSH3 0x4C3 JUMP JUMPDEST DUP2 ADD DUP2 DUP2 LT PUSH8 0xFFFFFFFFFFFFFFFF DUP3 GT OR ISZERO PUSH3 0x52D JUMPI PUSH3 0x52C PUSH3 0x4D3 JUMP JUMPDEST JUMPDEST DUP1 PUSH1 0x40 MSTORE POP POP POP JUMP JUMPDEST PUSH0 PUSH3 0x541 PUSH3 0x4AA JUMP JUMPDEST SWAP1 POP PUSH3 0x54F DUP3 DUP3 PUSH3 0x500 JUMP JUMPDEST SWAP2 SWAP1 POP JUMP JUMPDEST PUSH0 PUSH8 0xFFFFFFFFFFFFFFFF DUP3 GT ISZERO PUSH3 0x571 JUMPI PUSH3 0x570 PUSH3 0x4D3 JUMP JUMPDEST JUMPDEST PUSH3 0x57C DUP3 PUSH3 0x4C3 JUMP JUMPDEST SWAP1 POP PUSH1 0x20 DUP2 ADD SWAP1 POP SWAP2 SWAP1 POP JUMP JUMPDEST PUSH0 JUMPDEST DUP4 DUP2 LT ISZERO PUSH3 0x5A8 JUMPI DUP1 DUP3 ADD MLOAD DUP2 DUP5 ADD MSTORE PUSH1 0x20 DUP2 ADD SWAP1 POP PUSH3 0x58B JUMP JUMPDEST PUSH0 DUP5 DUP5 ADD MSTORE POP POP POP POP JUMP JUMPDEST PUSH0 PUSH3 0x5C9 PUSH3 0x5C3 DUP5 PUSH3 0x554 JUMP JUMPDEST PUSH3 0x536 JUMP JUMPDEST SWAP1 POP DUP3 DUP2 MSTORE PUSH1 0x20 DUP2 ADD DUP5 DUP5 DUP5 ADD GT ISZERO PUSH3 0x5E8 JUMPI PUSH3 0x5E7 PUSH3 0x4BF JUMP JUMPDEST JUMPDEST PUSH3 0x5F5 DUP5 DUP3 DUP6 PUSH3 0x589 JUMP JUMPDEST POP SWAP4 SWAP3 POP POP POP JUMP JUMPDEST PUSH0 DUP3 PUSH1 0x1F DUP4 ADD SLT PUSH3 0x614 JUMPI PUSH3 0x613 PUSH3 0x4BB JUMP JUMPDEST JUMPDEST DUP2 MLOAD PUSH3 0x626 DUP5 DUP3 PUSH1 0x20 DUP7 ADD PUSH3 0x5B3 JUMP JUMPDEST SWAP2 POP POP SWAP3 SWAP2 POP POP JUMP JUMPDEST PUSH0 PUSH20 0xFFFFFFFFFFFFFFFFFFFFFFFFFFFFFFFFFFFFFFFF DUP3 AND SWAP1 POP SWAP2 SWAP1 POP JUMP JUMPDEST PUSH0 PUSH3 0x65A DUP3 PUSH3 0x62F JUMP JUMPDEST SWAP1 POP SWAP2 SWAP1 POP JUMP JUMPDEST PUSH3 0x66C DUP2 PUSH3 0x64E JUMP JUMPDEST DUP2 EQ PUSH3 0x677 JUMPI PUSH0 DUP1 REVERT JUMPDEST POP JUMP JUMPDEST PUSH0 DUP2 MLOAD SWAP1 POP PUSH3 0x68A DUP2 PUSH3 0x661 JUMP JUMPDEST SWAP3 SWAP2 POP POP JUMP JUMPDEST PUSH1 0x5 DUP2 LT PUSH3 0x69D JUMPI PUSH0 DUP1 REVERT JUMPDEST POP JUMP JUMPDEST PUSH0 DUP2 MLOAD SWAP1 POP PUSH3 0x6B0 DUP2 PUSH3 0x690 JUMP JUMPDEST SWAP3 SWAP2 POP POP JUMP JUMPDEST PUSH0 DUP1 PUSH0 DUP1 PUSH1 0x80 DUP6 DUP8 SUB SLT ISZERO PUSH3 0x6D1 JUMPI PUSH3 0x6D0 PUSH3 0x4B3 JUMP JUMPDEST JUMPDEST PUSH0 DUP6 ADD MLOAD PUSH8 0xFFFFFFFFFFFFFFFF DUP2 GT ISZERO PUSH3 0x6F1 JUMPI PUSH3 0x6F0 PUSH3 0x4B7 JUMP JUMPDEST JUMPDEST PUSH3 0x6FF DUP8 DUP3 DUP9 ADD PUSH3 0x5FD JUMP JUMPDEST SWAP5 POP POP PUSH1 0x20 DUP6 ADD MLOAD PUSH8 0xFFFFFFFFFFFFFFFF DUP2 GT ISZERO PUSH3 0x723 JUMPI PUSH3 0x722 PUSH3 0x4B7 JUMP JUMPDEST JUMPDEST PUSH3 0x731 DUP8 DUP3 DUP9 ADD PUSH3 0x5FD JUMP JUMPDEST SWAP4 POP POP PUSH1 0x40 PUSH3 0x744 DUP8 DUP3 DUP9 ADD PUSH3 0x67A JUMP JUMPDEST SWAP3 POP POP PUSH1 0x60 PUSH3 0x757 DUP8 DUP3 DUP9 ADD PUSH3 0x6A0 JUMP JUMPDEST SWAP2 POP POP SWAP3 SWAP6 SWAP2 SWAP5 POP SWAP3 POP JUMP JUMPDEST PUSH0 DUP2 MLOAD SWAP1 POP SWAP2 SWAP1 POP JUMP JUMPDEST PUSH32 0x4E487B7100000000000000000000000000000000000000000000000000000000 PUSH0 MSTORE PUSH1 0x22 PUSH1 0x4 MSTORE PUSH1 0x24 PUSH0 REVERT JUMPDEST PUSH0 PUSH1 0x2 DUP3 DIV SWAP1 POP PUSH1 0x1 DUP3 AND DUP1 PUSH3 0x7B2 JUMPI PUSH1 0x7F DUP3 AND SWAP2 POP JUMPDEST PUSH1 0x20 DUP3 LT DUP2 SUB PUSH3 0x7C8 JUMPI PUSH3 0x7C7 PUSH3 0x76D JUMP JUMPDEST JUMPDEST POP SWAP2 SWAP1 POP JUMP JUMPDEST PUSH0 DUP2 SWAP1 POP DUP2 PUSH0 MSTORE PUSH1 0x20 PUSH0 KECCAK256 SWAP1 POP SWAP2 SWAP1 POP JUMP JUMPDEST PUSH0 PUSH1 0x20 PUSH1 0x1F DUP4 ADD DIV SWAP1 POP SWAP2 SWAP1 POP JUMP JUMPDEST PUSH0 DUP3 DUP3 SHL SWAP1 POP SWAP3 SWAP2 POP POP JUMP JUMPDEST PUSH0 PUSH1 0x8 DUP4 MUL PUSH3 0x82C PUSH32 0xFFFFFFFFFFFFFFFFFFFFFFFFFFFFFFFFFFFFFFFFFFFFFFFFFFFFFFFFFFFFFFFF DUP3 PUSH3 0x7EF JUMP JUMPDEST PUSH3 0x838 DUP7 DUP4 PUSH3 0x7EF JUMP JUMPDEST SWAP6 POP DUP1 NOT DUP5 AND SWAP4 POP DUP1 DUP7 AND DUP5 OR SWAP3 POP POP POP SWAP4 SWAP3 POP POP POP JUMP JUMPDEST PUSH0 DUP2 SWAP1 POP SWAP2 SWAP1 POP JUMP JUMPDEST PUSH0 DUP2 SWAP1 POP SWAP2 SWAP1 POP JUMP JUMPDEST PUSH0 PUSH3 0x882 PUSH3 0x87C PUSH3 0x876 DUP5 PUSH3 0x850 JUMP JUMPDEST PUSH3 0x859 JUMP JUMPDEST PUSH3 0x850 JUMP JUMPDEST SWAP1 POP SWAP2 SWAP1 POP JUMP JUMPDEST PUSH0 DUP2 SWAP1 POP SWAP2 SWAP1 POP JUMP JUMPDEST PUSH3 0x89D DUP4 PUSH3 0x862 JUMP JUMPDEST PUSH3 0x8B5 PUSH3 0x8AC DUP3 PUSH3 0x889 JUMP JUMPDEST DUP5 DUP5 SLOAD PUSH3 0x7FB JUMP JUMPDEST DUP3 SSTORE POP POP POP POP JUMP JUMPDEST PUSH0 SWAP1 JUMP JUMPDEST PUSH3 0x8CB PUSH3 0x8BD JUMP JUMPDEST PUSH3 0x8D8 DUP2 DUP5 DUP5 PUSH3 0x892 JUMP JUMPDEST POP POP POP JUMP JUMPDEST JUMPDEST DUP2 DUP2 LT ISZERO PUSH3 0x8FF JUMPI PUSH3 0x8F3 PUSH0 DUP3 PUSH3 0x8C1 JUMP JUMPDEST PUSH1 0x1 DUP2 ADD SWAP1 POP PUSH3 0x8DE JUMP JUMPDEST POP POP JUMP JUMPDEST PUSH1 0x1F DUP3 GT ISZERO PUSH3 0x94E JUMPI PUSH3 0x918 DUP2 PUSH3 0x7CE JUMP JUMPDEST PUSH3 0x923 DUP5 PUSH3 0x7E0 JUMP JUMPDEST DUP2 ADD PUSH1 0x20 DUP6 LT ISZERO PUSH3 0x933 JUMPI DUP2 SWAP1 POP JUMPDEST PUSH3 0x94B PUSH3 0x942 DUP6 PUSH3 0x7E0 JUMP JUMPDEST DUP4 ADD DUP3 PUSH3 0x8DD JUMP JUMPDEST POP POP JUMPDEST POP POP POP JUMP JUMPDEST PUSH0 DUP3 DUP3 SHR SWAP1 POP SWAP3 SWAP2 POP POP JUMP JUMPDEST PUSH0 PUSH3 0x970 PUSH0 NOT DUP5 PUSH1 0x8 MUL PUSH3 0x953 JUMP JUMPDEST NOT DUP1 DUP4 AND SWAP2 POP POP SWAP3 SWAP2 POP POP JUMP JUMPDEST PUSH0 PUSH3 0x98A DUP4 DUP4 PUSH3 0x95F JUMP JUMPDEST SWAP2 POP DUP3 PUSH1 0x2 MUL DUP3 OR SWAP1 POP SWAP3 SWAP2 POP POP JUMP JUMPDEST PUSH3 0x9A5 DUP3 PUSH3 0x763 JUMP JUMPDEST PUSH8 0xFFFFFFFFFFFFFFFF DUP2 GT ISZERO PUSH3 0x9C1 JUMPI PUSH3 0x9C0 PUSH3 0x4D3 JUMP JUMPDEST JUMPDEST PUSH3 0x9CD DUP3 SLOAD PUSH3 0x79A JUMP JUMPDEST PUSH3 0x9DA DUP3 DUP3 DUP6 PUSH3 0x903 JUMP JUMPDEST PUSH0 PUSH1 0x20 SWAP1 POP PUSH1 0x1F DUP4 GT PUSH1 0x1 DUP2 EQ PUSH3 0xA10 JUMPI PUSH0 DUP5 ISZERO PUSH3 0x9FB JUMPI DUP3 DUP8 ADD MLOAD SWAP1 POP JUMPDEST PUSH3 0xA07 DUP6 DUP3 PUSH3 0x97D JUMP JUMPDEST DUP7 SSTORE POP PUSH3 0xA76 JUMP JUMPDEST PUSH1 0x1F NOT DUP5 AND PUSH3 0xA20 DUP7 PUSH3 0x7CE JUMP JUMPDEST PUSH0 JUMPDEST DUP3 DUP2 LT ISZERO PUSH3 0xA49 JUMPI DUP5 DUP10 ADD MLOAD DUP3 SSTORE PUSH1 0x1 DUP3 ADD SWAP2 POP PUSH1 0x20 DUP6 ADD SWAP5 POP PUSH1 0x20 DUP2 ADD SWAP1 POP PUSH3 0xA22 JUMP JUMPDEST DUP7 DUP4 LT ISZERO PUSH3 0xA69 JUMPI DUP5 DUP10 ADD MLOAD PUSH3 0xA65 PUSH1 0x1F DUP10 AND DUP3 PUSH3 0x95F JUMP JUMPDEST DUP4 SSTORE POP JUMPDEST PUSH1 0x1 PUSH1 0x2 DUP9 MUL ADD DUP9 SSTORE POP POP POP JUMPDEST POP POP POP POP POP POP JUMP JUMPDEST PUSH3 0xA89 DUP2 PUSH3 0x64E JUMP JUMPDEST DUP3 MSTORE POP POP JUMP JUMPDEST PUSH0 PUSH1 0x20 DUP3 ADD SWAP1 POP PUSH3 0xAA4 PUSH0 DUP4 ADD DUP5 PUSH3 0xA7E JUMP JUMPDEST SWAP3 SWAP2 POP POP JUMP JUMPDEST PUSH0 DUP3 DUP3 MSTORE PUSH1 0x20 DUP3 ADD SWAP1 POP SWAP3 SWAP2 POP POP JUMP JUMPDEST PUSH32 0x496E76616C696420616464726573730000000000000000000000000000000000 PUSH0 DUP3 ADD MSTORE POP JUMP JUMPDEST PUSH0 PUSH3 0xAF0 PUSH1 0xF DUP4 PUSH3 0xAAA JUMP JUMPDEST SWAP2 POP PUSH3 0xAFD DUP3 PUSH3 0xABA JUMP JUMPDEST PUSH1 0x20 DUP3 ADD SWAP1 POP SWAP2 SWAP1 POP JUMP JUMPDEST PUSH0 PUSH1 0x20 DUP3 ADD SWAP1 POP DUP2 DUP2 SUB PUSH0 DUP4 ADD MSTORE PUSH3 0xB21 DUP2 PUSH3 0xAE2 JUMP JUMPDEST SWAP1 POP SWAP2 SWAP1 POP JUMP JUMPDEST PUSH32 0x4E487B7100000000000000000000000000000000000000000000000000000000 PUSH0 MSTORE PUSH1 0x21 PUSH1 0x4 MSTORE PUSH1 0x24 PUSH0 REVERT JUMPDEST PUSH3 0xB60 DUP2 PUSH3 0x850 JUMP JUMPDEST DUP3 MSTORE POP POP JUMP JUMPDEST PUSH0 PUSH1 0x20 DUP3 ADD SWAP1 POP PUSH3 0xB7B PUSH0 DUP4 ADD DUP5 PUSH3 0xB55 JUMP JUMPDEST SWAP3 SWAP2 POP POP JUMP JUMPDEST PUSH1 0x80 MLOAD PUSH2 0x1562 PUSH3 0xBA8 PUSH0 CODECOPY PUSH0 DUP2 DUP2 PUSH2 0x59A ADD MSTORE DUP2 DUP2 PUSH2 0x658 ADD MSTORE PUSH2 0x819 ADD MSTORE PUSH2 0x1562 PUSH0 RETURN INVALID PUSH1 0x80 PUSH1 0x40 MSTORE CALLVALUE DUP1 ISZERO PUSH2 0xF JUMPI PUSH0 DUP1 REVERT JUMPDEST POP PUSH1 0x4 CALLDATASIZE LT PUSH2 0x109 JUMPI PUSH0 CALLDATALOAD PUSH1 0xE0 SHR DUP1 PUSH4 0x715018A6 GT PUSH2 0xA0 JUMPI DUP1 PUSH4 0xA9059CBB GT PUSH2 0x6F JUMPI DUP1 PUSH4 0xA9059CBB EQ PUSH2 0x293 JUMPI DUP1 PUSH4 0xBD5546BE EQ PUSH2 0x2C3 JUMPI DUP1 PUSH4 0xDD62ED3E EQ PUSH2 0x2DF JUMPI DUP1 PUSH4 0xF2FDE38B EQ PUSH2 0x30F JUMPI DUP1 PUSH4 0xF9E05C6D EQ PUSH2 0x32B JUMPI PUSH2 0x109 JUMP JUMPDEST DUP1 PUSH4 0x715018A6 EQ PUSH2 0x231 JUMPI DUP1 PUSH4 0x8DA5CB5B EQ PUSH2 0x23B JUMPI DUP1 PUSH4 0x95D89B41 EQ PUSH2 0x259 JUMPI DUP1 PUSH4 0x9DC29FAC EQ PUSH2 0x277 JUMPI PUSH2 0x109 JUMP JUMPDEST DUP1 PUSH4 0x313CE567 GT PUSH2 0xDC JUMPI DUP1 PUSH4 0x313CE567 EQ PUSH2 0x1A9 JUMPI DUP1 PUSH4 0x40C10F19 EQ PUSH2 0x1C7 JUMPI DUP1 PUSH4 0x63A2B02B EQ PUSH2 0x1E3 JUMPI DUP1 PUSH4 0x70A08231 EQ PUSH2 0x201 JUMPI PUSH2 0x109 JUMP JUMPDEST DUP1 PUSH4 0x6FDDE03 EQ PUSH2 0x10D JUMPI DUP1 PUSH4 0x95EA7B3 EQ PUSH2 0x12B JUMPI DUP1 PUSH4 0x18160DDD EQ PUSH2 0x15B JUMPI DUP1 PUSH4 0x23B872DD EQ PUSH2 0x179 JUMPI JUMPDEST PUSH0 DUP1 REVERT JUMPDEST PUSH2 0x115 PUSH2 0x349 JUMP JUMPDEST PUSH1 0x40 MLOAD PUSH2 0x122 SWAP2 SWAP1 PUSH2 0x1090 JUMP JUMPDEST PUSH1 0x40 MLOAD DUP1 SWAP2 SUB SWAP1 RETURN JUMPDEST PUSH2 0x145 PUSH1 0x4 DUP1 CALLDATASIZE SUB DUP2 ADD SWAP1 PUSH2 0x140 SWAP2 SWAP1 PUSH2 0x1141 JUMP JUMPDEST PUSH2 0x3D9 JUMP JUMPDEST PUSH1 0x40 MLOAD PUSH2 0x152 SWAP2 SWAP1 PUSH2 0x1199 JUMP JUMPDEST PUSH1 0x40 MLOAD DUP1 SWAP2 SUB SWAP1 RETURN JUMPDEST PUSH2 0x163 PUSH2 0x3FB JUMP JUMPDEST PUSH1 0x40 MLOAD PUSH2 0x170 SWAP2 SWAP1 PUSH2 0x11C1 JUMP JUMPDEST PUSH1 0x40 MLOAD DUP1 SWAP2 SUB SWAP1 RETURN JUMPDEST PUSH2 0x193 PUSH1 0x4 DUP1 CALLDATASIZE SUB DUP2 ADD SWAP1 PUSH2 0x18E SWAP2 SWAP1 PUSH2 0x11DA JUMP JUMPDEST PUSH2 0x404 JUMP JUMPDEST PUSH1 0x40 MLOAD PUSH2 0x1A0 SWAP2 SWAP1 PUSH2 0x1199 JUMP JUMPDEST PUSH1 0x40 MLOAD DUP1 SWAP2 SUB SWAP1 RETURN JUMPDEST PUSH2 0x1B1 PUSH2 0x432 JUMP JUMPDEST PUSH1 0x40 MLOAD PUSH2 0x1BE SWAP2 SWAP1 PUSH2 0x1245 JUMP JUMPDEST PUSH1 0x40 MLOAD DUP1 SWAP2 SUB SWAP1 RETURN JUMPDEST PUSH2 0x1E1 PUSH1 0x4 DUP1 CALLDATASIZE SUB DUP2 ADD SWAP1 PUSH2 0x1DC SWAP2 SWAP1 PUSH2 0x1141 JUMP JUMPDEST PUSH2 0x436 JUMP JUMPDEST STOP JUMPDEST PUSH2 0x1EB PUSH2 0x44C JUMP JUMPDEST PUSH1 0x40 MLOAD PUSH2 0x1F8 SWAP2 SWAP1 PUSH2 0x1199 JUMP JUMPDEST PUSH1 0x40 MLOAD DUP1 SWAP2 SUB SWAP1 RETURN JUMPDEST PUSH2 0x21B PUSH1 0x4 DUP1 CALLDATASIZE SUB DUP2 ADD SWAP1 PUSH2 0x216 SWAP2 SWAP1 PUSH2 0x125E JUMP JUMPDEST PUSH2 0x488 JUMP JUMPDEST PUSH1 0x40 MLOAD PUSH2 0x228 SWAP2 SWAP1 PUSH2 0x11C1 JUMP JUMPDEST PUSH1 0x40 MLOAD DUP1 SWAP2 SUB SWAP1 RETURN JUMPDEST PUSH2 0x239 PUSH2 0x4CD JUMP JUMPDEST STOP JUMPDEST PUSH2 0x243 PUSH2 0x4E0 JUMP JUMPDEST PUSH1 0x40 MLOAD PUSH2 0x250 SWAP2 SWAP1 PUSH2 0x1298 JUMP JUMPDEST PUSH1 0x40 MLOAD DUP1 SWAP2 SUB SWAP1 RETURN JUMPDEST PUSH2 0x261 PUSH2 0x508 JUMP JUMPDEST PUSH1 0x40 MLOAD PUSH2 0x26E SWAP2 SWAP1 PUSH2 0x1090 JUMP JUMPDEST PUSH1 0x40 MLOAD DUP1 SWAP2 SUB SWAP1 RETURN JUMPDEST PUSH2 0x291 PUSH1 0x4 DUP1 CALLDATASIZE SUB DUP2 ADD SWAP1 PUSH2 0x28C SWAP2 SWAP1 PUSH2 0x1141 JUMP JUMPDEST PUSH2 0x598 JUMP JUMPDEST STOP JUMPDEST PUSH2 0x2AD PUSH1 0x4 DUP1 CALLDATASIZE SUB DUP2 ADD SWAP1 PUSH2 0x2A8 SWAP2 SWAP1 PUSH2 0x1141 JUMP JUMPDEST PUSH2 0x634 JUMP JUMPDEST PUSH1 0x40 MLOAD PUSH2 0x2BA SWAP2 SWAP1 PUSH2 0x1199 JUMP JUMPDEST PUSH1 0x40 MLOAD DUP1 SWAP2 SUB SWAP1 RETURN JUMPDEST PUSH2 0x2DD PUSH1 0x4 DUP1 CALLDATASIZE SUB DUP2 ADD SWAP1 PUSH2 0x2D8 SWAP2 SWAP1 PUSH2 0x12D4 JUMP JUMPDEST PUSH2 0x656 JUMP JUMPDEST STOP JUMPDEST PUSH2 0x2F9 PUSH1 0x4 DUP1 CALLDATASIZE SUB DUP2 ADD SWAP1 PUSH2 0x2F4 SWAP2 SWAP1 PUSH2 0x12FF JUMP JUMPDEST PUSH2 0x711 JUMP JUMPDEST PUSH1 0x40 MLOAD PUSH2 0x306 SWAP2 SWAP1 PUSH2 0x11C1 JUMP JUMPDEST PUSH1 0x40 MLOAD DUP1 SWAP2 SUB SWAP1 RETURN JUMPDEST PUSH2 0x329 PUSH1 0x4 DUP1 CALLDATASIZE SUB DUP2 ADD SWAP1 PUSH2 0x324 SWAP2 SWAP1 PUSH2 0x125E JUMP JUMPDEST PUSH2 0x793 JUMP JUMPDEST STOP JUMPDEST PUSH2 0x333 PUSH2 0x817 JUMP JUMPDEST PUSH1 0x40 MLOAD PUSH2 0x340 SWAP2 SWAP1 PUSH2 0x1298 JUMP JUMPDEST PUSH1 0x40 MLOAD DUP1 SWAP2 SUB SWAP1 RETURN JUMPDEST PUSH1 0x60 PUSH1 0x3 DUP1 SLOAD PUSH2 0x358 SWAP1 PUSH2 0x136A JUMP JUMPDEST DUP1 PUSH1 0x1F ADD PUSH1 0x20 DUP1 SWAP2 DIV MUL PUSH1 0x20 ADD PUSH1 0x40 MLOAD SWAP1 DUP2 ADD PUSH1 0x40 MSTORE DUP1 SWAP3 SWAP2 SWAP1 DUP2 DUP2 MSTORE PUSH1 0x20 ADD DUP3 DUP1 SLOAD PUSH2 0x384 SWAP1 PUSH2 0x136A JUMP JUMPDEST DUP1 ISZERO PUSH2 0x3CF JUMPI DUP1 PUSH1 0x1F LT PUSH2 0x3A6 JUMPI PUSH2 0x100 DUP1 DUP4 SLOAD DIV MUL DUP4 MSTORE SWAP2 PUSH1 0x20 ADD SWAP2 PUSH2 0x3CF JUMP JUMPDEST DUP3 ADD SWAP2 SWAP1 PUSH0 MSTORE PUSH1 0x20 PUSH0 KECCAK256 SWAP1 JUMPDEST DUP2 SLOAD DUP2 MSTORE SWAP1 PUSH1 0x1 ADD SWAP1 PUSH1 0x20 ADD DUP1 DUP4 GT PUSH2 0x3B2 JUMPI DUP3 SWAP1 SUB PUSH1 0x1F AND DUP3 ADD SWAP2 JUMPDEST POP POP POP POP POP SWAP1 POP SWAP1 JUMP JUMPDEST PUSH0 DUP1 PUSH2 0x3E3 PUSH2 0x83B JUMP JUMPDEST SWAP1 POP PUSH2 0x3F0 DUP2 DUP6 DUP6 PUSH2 0x842 JUMP JUMPDEST PUSH1 0x1 SWAP2 POP POP SWAP3 SWAP2 POP POP JUMP JUMPDEST PUSH0 PUSH1 0x2 SLOAD SWAP1 POP SWAP1 JUMP JUMPDEST PUSH0 DUP1 PUSH2 0x40E PUSH2 0x83B JUMP JUMPDEST SWAP1 POP PUSH2 0x41B DUP6 DUP3 DUP6 PUSH2 0x854 JUMP JUMPDEST PUSH2 0x426 DUP6 DUP6 DUP6 PUSH2 0x8E6 JUMP JUMPDEST PUSH1 0x1 SWAP2 POP POP SWAP4 SWAP3 POP POP POP JUMP JUMPDEST PUSH0 SWAP1 JUMP JUMPDEST PUSH2 0x43E PUSH2 0x9D6 JUMP JUMPDEST PUSH2 0x448 DUP3 DUP3 PUSH2 0xA5D JUMP JUMPDEST POP POP JUMP JUMPDEST PUSH0 DUP1 PUSH1 0x4 DUP2 GT ISZERO PUSH2 0x460 JUMPI PUSH2 0x45F PUSH2 0x139A JUMP JUMPDEST JUMPDEST PUSH1 0x5 PUSH1 0x14 SWAP1 SLOAD SWAP1 PUSH2 0x100 EXP SWAP1 DIV PUSH1 0xFF AND PUSH1 0x4 DUP2 GT ISZERO PUSH2 0x482 JUMPI PUSH2 0x481 PUSH2 0x139A JUMP JUMPDEST JUMPDEST EQ SWAP1 POP SWAP1 JUMP JUMPDEST PUSH0 DUP1 PUSH0 DUP4 PUSH20 0xFFFFFFFFFFFFFFFFFFFFFFFFFFFFFFFFFFFFFFFF AND PUSH20 0xFFFFFFFFFFFFFFFFFFFFFFFFFFFFFFFFFFFFFFFF AND DUP2 MSTORE PUSH1 0x20 ADD SWAP1 DUP2 MSTORE PUSH1 0x20 ADD PUSH0 KECCAK256 SLOAD SWAP1 POP SWAP2 SWAP1 POP JUMP JUMPDEST PUSH2 0x4D5 PUSH2 0x9D6 JUMP JUMPDEST PUSH2 0x4DE PUSH0 PUSH2 0xADC JUMP JUMPDEST JUMP JUMPDEST PUSH0 PUSH1 0x5 PUSH0 SWAP1 SLOAD SWAP1 PUSH2 0x100 EXP SWAP1 DIV PUSH20 0xFFFFFFFFFFFFFFFFFFFFFFFFFFFFFFFFFFFFFFFF AND SWAP1 POP SWAP1 JUMP JUMPDEST PUSH1 0x60 PUSH1 0x4 DUP1 SLOAD PUSH2 0x517 SWAP1 PUSH2 0x136A JUMP JUMPDEST DUP1 PUSH1 0x1F ADD PUSH1 0x20 DUP1 SWAP2 DIV MUL PUSH1 0x20 ADD PUSH1 0x40 MLOAD SWAP1 DUP2 ADD PUSH1 0x40 MSTORE DUP1 SWAP3 SWAP2 SWAP1 DUP2 DUP2 MSTORE PUSH1 0x20 ADD DUP3 DUP1 SLOAD PUSH2 0x543 SWAP1 PUSH2 0x136A JUMP JUMPDEST DUP1 ISZERO PUSH2 0x58E JUMPI DUP1 PUSH1 0x1F LT PUSH2 0x565 JUMPI PUSH2 0x100 DUP1 DUP4 SLOAD DIV MUL DUP4 MSTORE SWAP2 PUSH1 0x20 ADD SWAP2 PUSH2 0x58E JUMP JUMPDEST DUP3 ADD SWAP2 SWAP1 PUSH0 MSTORE PUSH1 0x20 PUSH0 KECCAK256 SWAP1 JUMPDEST DUP2 SLOAD DUP2 MSTORE SWAP1 PUSH1 0x1 ADD SWAP1 PUSH1 0x20 ADD DUP1 DUP4 GT PUSH2 0x571 JUMPI DUP3 SWAP1 SUB PUSH1 0x1F AND DUP3 ADD SWAP2 JUMPDEST POP POP POP POP POP SWAP1 POP SWAP1 JUMP JUMPDEST PUSH32 0x0 PUSH20 0xFFFFFFFFFFFFFFFFFFFFFFFFFFFFFFFFFFFFFFFF AND CALLER PUSH20 0xFFFFFFFFFFFFFFFFFFFFFFFFFFFFFFFFFFFFFFFF AND EQ PUSH2 0x626 JUMPI PUSH1 0x40 MLOAD PUSH32 0x8C379A000000000000000000000000000000000000000000000000000000000 DUP2 MSTORE PUSH1 0x4 ADD PUSH2 0x61D SWAP1 PUSH2 0x1411 JUMP JUMPDEST PUSH1 0x40 MLOAD DUP1 SWAP2 SUB SWAP1 REVERT JUMPDEST PUSH2 0x630 DUP3 DUP3 PUSH2 0xB9F JUMP JUMPDEST POP POP JUMP JUMPDEST PUSH0 DUP1 PUSH2 0x63E PUSH2 0x83B JUMP JUMPDEST SWAP1 POP PUSH2 0x64B DUP2 DUP6 DUP6 PUSH2 0x8E6 JUMP JUMPDEST PUSH1 0x1 SWAP2 POP POP SWAP3 SWAP2 POP POP JUMP JUMPDEST PUSH32 0x0 PUSH20 0xFFFFFFFFFFFFFFFFFFFFFFFFFFFFFFFFFFFFFFFF AND CALLER PUSH20 0xFFFFFFFFFFFFFFFFFFFFFFFFFFFFFFFFFFFFFFFF AND EQ PUSH2 0x6E4 JUMPI PUSH1 0x40 MLOAD PUSH32 0x8C379A000000000000000000000000000000000000000000000000000000000 DUP2 MSTORE PUSH1 0x4 ADD PUSH2 0x6DB SWAP1 PUSH2 0x1479 JUMP JUMPDEST PUSH1 0x40 MLOAD DUP1 SWAP2 SUB SWAP1 REVERT JUMPDEST DUP1 PUSH1 0x5 PUSH1 0x14 PUSH2 0x100 EXP DUP2 SLOAD DUP2 PUSH1 0xFF MUL NOT AND SWAP1 DUP4 PUSH1 0x4 DUP2 GT ISZERO PUSH2 0x709 JUMPI PUSH2 0x708 PUSH2 0x139A JUMP JUMPDEST JUMPDEST MUL OR SWAP1 SSTORE POP POP JUMP JUMPDEST PUSH0 PUSH1 0x1 PUSH0 DUP5 PUSH20 0xFFFFFFFFFFFFFFFFFFFFFFFFFFFFFFFFFFFFFFFF AND PUSH20 0xFFFFFFFFFFFFFFFFFFFFFFFFFFFFFFFFFFFFFFFF AND DUP2 MSTORE PUSH1 0x20 ADD SWAP1 DUP2 MSTORE PUSH1 0x20 ADD PUSH0 KECCAK256 PUSH0 DUP4 PUSH20 0xFFFFFFFFFFFFFFFFFFFFFFFFFFFFFFFFFFFFFFFF AND PUSH20 0xFFFFFFFFFFFFFFFFFFFFFFFFFFFFFFFFFFFFFFFF AND DUP2 MSTORE PUSH1 0x20 ADD SWAP1 DUP2 MSTORE PUSH1 0x20 ADD PUSH0 KECCAK256 SLOAD SWAP1 POP SWAP3 SWAP2 POP POP JUMP JUMPDEST PUSH2 0x79B PUSH2 0x9D6 JUMP JUMPDEST PUSH0 PUSH20 0xFFFFFFFFFFFFFFFFFFFFFFFFFFFFFFFFFFFFFFFF AND DUP2 PUSH20 0xFFFFFFFFFFFFFFFFFFFFFFFFFFFFFFFFFFFFFFFF AND SUB PUSH2 0x80B JUMPI PUSH0 PUSH1 0x40 MLOAD PUSH32 0x1E4FBDF700000000000000000000000000000000000000000000000000000000 DUP2 MSTORE PUSH1 0x4 ADD PUSH2 0x802 SWAP2 SWAP1 PUSH2 0x1298 JUMP JUMPDEST PUSH1 0x40 MLOAD DUP1 SWAP2 SUB SWAP1 REVERT JUMPDEST PUSH2 0x814 DUP2 PUSH2 0xADC JUMP JUMPDEST POP JUMP JUMPDEST PUSH32 0x0 DUP2 JUMP JUMPDEST PUSH0 CALLER SWAP1 POP SWAP1 JUMP JUMPDEST PUSH2 0x84F DUP4 DUP4 DUP4 PUSH1 0x1 PUSH2 0xC1E JUMP JUMPDEST POP POP POP JUMP JUMPDEST PUSH0 PUSH2 0x85F DUP5 DUP5 PUSH2 0x711 JUMP JUMPDEST SWAP1 POP PUSH32 0xFFFFFFFFFFFFFFFFFFFFFFFFFFFFFFFFFFFFFFFFFFFFFFFFFFFFFFFFFFFFFFFF DUP2 EQ PUSH2 0x8E0 JUMPI DUP2 DUP2 LT ISZERO PUSH2 0x8D1 JUMPI DUP3 DUP2 DUP4 PUSH1 0x40 MLOAD PUSH32 0xFB8F41B200000000000000000000000000000000000000000000000000000000 DUP2 MSTORE PUSH1 0x4 ADD PUSH2 0x8C8 SWAP4 SWAP3 SWAP2 SWAP1 PUSH2 0x1497 JUMP JUMPDEST PUSH1 0x40 MLOAD DUP1 SWAP2 SUB SWAP1 REVERT JUMPDEST PUSH2 0x8DF DUP5 DUP5 DUP5 DUP5 SUB PUSH0 PUSH2 0xC1E JUMP JUMPDEST JUMPDEST POP POP POP POP JUMP JUMPDEST PUSH0 PUSH20 0xFFFFFFFFFFFFFFFFFFFFFFFFFFFFFFFFFFFFFFFF AND DUP4 PUSH20 0xFFFFFFFFFFFFFFFFFFFFFFFFFFFFFFFFFFFFFFFF AND SUB PUSH2 0x956 JUMPI PUSH0 PUSH1 0x40 MLOAD PUSH32 0x96C6FD1E00000000000000000000000000000000000000000000000000000000 DUP2 MSTORE PUSH1 0x4 ADD PUSH2 0x94D SWAP2 SWAP1 PUSH2 0x1298 JUMP JUMPDEST PUSH1 0x40 MLOAD DUP1 SWAP2 SUB SWAP1 REVERT JUMPDEST PUSH0 PUSH20 0xFFFFFFFFFFFFFFFFFFFFFFFFFFFFFFFFFFFFFFFF AND DUP3 PUSH20 0xFFFFFFFFFFFFFFFFFFFFFFFFFFFFFFFFFFFFFFFF AND SUB PUSH2 0x9C6 JUMPI PUSH0 PUSH1 0x40 MLOAD PUSH32 0xEC442F0500000000000000000000000000000000000000000000000000000000 DUP2 MSTORE PUSH1 0x4 ADD PUSH2 0x9BD SWAP2 SWAP1 PUSH2 0x1298 JUMP JUMPDEST PUSH1 0x40 MLOAD DUP1 SWAP2 SUB SWAP1 REVERT JUMPDEST PUSH2 0x9D1 DUP4 DUP4 DUP4 PUSH2 0xDED JUMP JUMPDEST POP POP POP JUMP JUMPDEST PUSH2 0x9DE PUSH2 0x83B JUMP JUMPDEST PUSH20 0xFFFFFFFFFFFFFFFFFFFFFFFFFFFFFFFFFFFFFFFF AND PUSH2 0x9FC PUSH2 0x4E0 JUMP JUMPDEST PUSH20 0xFFFFFFFFFFFFFFFFFFFFFFFFFFFFFFFFFFFFFFFF AND EQ PUSH2 0xA5B JUMPI PUSH2 0xA1F PUSH2 0x83B JUMP JUMPDEST PUSH1 0x40 MLOAD PUSH32 0x118CDAA700000000000000000000000000000000000000000000000000000000 DUP2 MSTORE PUSH1 0x4 ADD PUSH2 0xA52 SWAP2 SWAP1 PUSH2 0x1298 JUMP JUMPDEST PUSH1 0x40 MLOAD DUP1 SWAP2 SUB SWAP1 REVERT JUMPDEST JUMP JUMPDEST PUSH0 PUSH20 0xFFFFFFFFFFFFFFFFFFFFFFFFFFFFFFFFFFFFFFFF AND DUP3 PUSH20 0xFFFFFFFFFFFFFFFFFFFFFFFFFFFFFFFFFFFFFFFF AND SUB PUSH2 0xACD JUMPI PUSH0 PUSH1 0x40 MLOAD PUSH32 0xEC442F0500000000000000000000000000000000000000000000000000000000 DUP2 MSTORE PUSH1 0x4 ADD PUSH2 0xAC4 SWAP2 SWAP1 PUSH2 0x1298 JUMP JUMPDEST PUSH1 0x40 MLOAD DUP1 SWAP2 SUB SWAP1 REVERT JUMPDEST PUSH2 0xAD8 PUSH0 DUP4 DUP4 PUSH2 0xDED JUMP JUMPDEST POP POP JUMP JUMPDEST PUSH0 PUSH1 0x5 PUSH0 SWAP1 SLOAD SWAP1 PUSH2 0x100 EXP SWAP1 DIV PUSH20 0xFFFFFFFFFFFFFFFFFFFFFFFFFFFFFFFFFFFFFFFF AND SWAP1 POP DUP2 PUSH1 0x5 PUSH0 PUSH2 0x100 EXP DUP2 SLOAD DUP2 PUSH20 0xFFFFFFFFFFFFFFFFFFFFFFFFFFFFFFFFFFFFFFFF MUL NOT AND SWAP1 DUP4 PUSH20 0xFFFFFFFFFFFFFFFFFFFFFFFFFFFFFFFFFFFFFFFF AND MUL OR SWAP1 SSTORE POP DUP2 PUSH20 0xFFFFFFFFFFFFFFFFFFFFFFFFFFFFFFFFFFFFFFFF AND DUP2 PUSH20 0xFFFFFFFFFFFFFFFFFFFFFFFFFFFFFFFFFFFFFFFF AND PUSH32 0x8BE0079C531659141344CD1FD0A4F28419497F9722A3DAAFE3B4186F6B6457E0 PUSH1 0x40 MLOAD PUSH1 0x40 MLOAD DUP1 SWAP2 SUB SWAP1 LOG3 POP POP JUMP JUMPDEST PUSH0 PUSH20 0xFFFFFFFFFFFFFFFFFFFFFFFFFFFFFFFFFFFFFFFF AND DUP3 PUSH20 0xFFFFFFFFFFFFFFFFFFFFFFFFFFFFFFFFFFFFFFFF AND SUB PUSH2 0xC0F JUMPI PUSH0 PUSH1 0x40 MLOAD PUSH32 0x96C6FD1E00000000000000000000000000000000000000000000000000000000 DUP2 MSTORE PUSH1 0x4 ADD PUSH2 0xC06 SWAP2 SWAP1 PUSH2 0x1298 JUMP JUMPDEST PUSH1 0x40 MLOAD DUP1 SWAP2 SUB SWAP1 REVERT JUMPDEST PUSH2 0xC1A DUP3 PUSH0 DUP4 PUSH2 0xDED JUMP JUMPDEST POP POP JUMP JUMPDEST PUSH0 PUSH20 0xFFFFFFFFFFFFFFFFFFFFFFFFFFFFFFFFFFFFFFFF AND DUP5 PUSH20 0xFFFFFFFFFFFFFFFFFFFFFFFFFFFFFFFFFFFFFFFF AND SUB PUSH2 0xC8E JUMPI PUSH0 PUSH1 0x40 MLOAD PUSH32 0xE602DF0500000000000000000000000000000000000000000000000000000000 DUP2 MSTORE PUSH1 0x4 ADD PUSH2 0xC85 SWAP2 SWAP1 PUSH2 0x1298 JUMP JUMPDEST PUSH1 0x40 MLOAD DUP1 SWAP2 SUB SWAP1 REVERT JUMPDEST PUSH0 PUSH20 0xFFFFFFFFFFFFFFFFFFFFFFFFFFFFFFFFFFFFFFFF AND DUP4 PUSH20 0xFFFFFFFFFFFFFFFFFFFFFFFFFFFFFFFFFFFFFFFF AND SUB PUSH2 0xCFE JUMPI PUSH0 PUSH1 0x40 MLOAD PUSH32 0x94280D6200000000000000000000000000000000000000000000000000000000 DUP2 MSTORE PUSH1 0x4 ADD PUSH2 0xCF5 SWAP2 SWAP1 PUSH2 0x1298 JUMP JUMPDEST PUSH1 0x40 MLOAD DUP1 SWAP2 SUB SWAP1 REVERT JUMPDEST DUP2 PUSH1 0x1 PUSH0 DUP7 PUSH20 0xFFFFFFFFFFFFFFFFFFFFFFFFFFFFFFFFFFFFFFFF AND PUSH20 0xFFFFFFFFFFFFFFFFFFFFFFFFFFFFFFFFFFFFFFFF AND DUP2 MSTORE PUSH1 0x20 ADD SWAP1 DUP2 MSTORE PUSH1 0x20 ADD PUSH0 KECCAK256 PUSH0 DUP6 PUSH20 0xFFFFFFFFFFFFFFFFFFFFFFFFFFFFFFFFFFFFFFFF AND PUSH20 0xFFFFFFFFFFFFFFFFFFFFFFFFFFFFFFFFFFFFFFFF AND DUP2 MSTORE PUSH1 0x20 ADD SWAP1 DUP2 MSTORE PUSH1 0x20 ADD PUSH0 KECCAK256 DUP2 SWAP1 SSTORE POP DUP1 ISZERO PUSH2 0xDE7 JUMPI DUP3 PUSH20 0xFFFFFFFFFFFFFFFFFFFFFFFFFFFFFFFFFFFFFFFF AND DUP5 PUSH20 0xFFFFFFFFFFFFFFFFFFFFFFFFFFFFFFFFFFFFFFFF AND PUSH32 0x8C5BE1E5EBEC7D5BD14F71427D1E84F3DD0314C0F7B2291E5B200AC8C7C3B925 DUP5 PUSH1 0x40 MLOAD PUSH2 0xDDE SWAP2 SWAP1 PUSH2 0x11C1 JUMP JUMPDEST PUSH1 0x40 MLOAD DUP1 SWAP2 SUB SWAP1 LOG3 JUMPDEST POP POP POP POP JUMP JUMPDEST PUSH0 PUSH20 0xFFFFFFFFFFFFFFFFFFFFFFFFFFFFFFFFFFFFFFFF AND DUP4 PUSH20 0xFFFFFFFFFFFFFFFFFFFFFFFFFFFFFFFFFFFFFFFF AND SUB PUSH2 0xE3D JUMPI DUP1 PUSH1 0x2 PUSH0 DUP3 DUP3 SLOAD PUSH2 0xE31 SWAP2 SWAP1 PUSH2 0x14F9 JUMP JUMPDEST SWAP3 POP POP DUP2 SWAP1 SSTORE POP PUSH2 0xF0B JUMP JUMPDEST PUSH0 DUP1 PUSH0 DUP6 PUSH20 0xFFFFFFFFFFFFFFFFFFFFFFFFFFFFFFFFFFFFFFFF AND PUSH20 0xFFFFFFFFFFFFFFFFFFFFFFFFFFFFFFFFFFFFFFFF AND DUP2 MSTORE PUSH1 0x20 ADD SWAP1 DUP2 MSTORE PUSH1 0x20 ADD PUSH0 KECCAK256 SLOAD SWAP1 POP DUP2 DUP2 LT ISZERO PUSH2 0xEC6 JUMPI DUP4 DUP2 DUP4 PUSH1 0x40 MLOAD PUSH32 0xE450D38C00000000000000000000000000000000000000000000000000000000 DUP2 MSTORE PUSH1 0x4 ADD PUSH2 0xEBD SWAP4 SWAP3 SWAP2 SWAP1 PUSH2 0x1497 JUMP JUMPDEST PUSH1 0x40 MLOAD DUP1 SWAP2 SUB SWAP1 REVERT JUMPDEST DUP2 DUP2 SUB PUSH0 DUP1 DUP7 PUSH20 0xFFFFFFFFFFFFFFFFFFFFFFFFFFFFFFFFFFFFFFFF AND PUSH20 0xFFFFFFFFFFFFFFFFFFFFFFFFFFFFFFFFFFFFFFFF AND DUP2 MSTORE PUSH1 0x20 ADD SWAP1 DUP2 MSTORE PUSH1 0x20 ADD PUSH0 KECCAK256 DUP2 SWAP1 SSTORE POP POP JUMPDEST PUSH0 PUSH20 0xFFFFFFFFFFFFFFFFFFFFFFFFFFFFFFFFFFFFFFFF AND DUP3 PUSH20 0xFFFFFFFFFFFFFFFFFFFFFFFFFFFFFFFFFFFFFFFF AND SUB PUSH2 0xF52 JUMPI DUP1 PUSH1 0x2 PUSH0 DUP3 DUP3 SLOAD SUB SWAP3 POP POP DUP2 SWAP1 SSTORE POP PUSH2 0xF9C JUMP JUMPDEST DUP1 PUSH0 DUP1 DUP5 PUSH20 0xFFFFFFFFFFFFFFFFFFFFFFFFFFFFFFFFFFFFFFFF AND PUSH20 0xFFFFFFFFFFFFFFFFFFFFFFFFFFFFFFFFFFFFFFFF AND DUP2 MSTORE PUSH1 0x20 ADD SWAP1 DUP2 MSTORE PUSH1 0x20 ADD PUSH0 KECCAK256 PUSH0 DUP3 DUP3 SLOAD ADD SWAP3 POP POP DUP2 SWAP1 SSTORE POP JUMPDEST DUP2 PUSH20 0xFFFFFFFFFFFFFFFFFFFFFFFFFFFFFFFFFFFFFFFF AND DUP4 PUSH20 0xFFFFFFFFFFFFFFFFFFFFFFFFFFFFFFFFFFFFFFFF AND PUSH32 0xDDF252AD1BE2C89B69C2B068FC378DAA952BA7F163C4A11628F55A4DF523B3EF DUP4 PUSH1 0x40 MLOAD PUSH2 0xFF9 SWAP2 SWAP1 PUSH2 0x11C1 JUMP JUMPDEST PUSH1 0x40 MLOAD DUP1 SWAP2 SUB SWAP1 LOG3 POP POP POP JUMP JUMPDEST PUSH0 DUP2 MLOAD SWAP1 POP SWAP2 SWAP1 POP JUMP JUMPDEST PUSH0 DUP3 DUP3 MSTORE PUSH1 0x20 DUP3 ADD SWAP1 POP SWAP3 SWAP2 POP POP JUMP JUMPDEST PUSH0 JUMPDEST DUP4 DUP2 LT ISZERO PUSH2 0x103D JUMPI DUP1 DUP3 ADD MLOAD DUP2 DUP5 ADD MSTORE PUSH1 0x20 DUP2 ADD SWAP1 POP PUSH2 0x1022 JUMP JUMPDEST PUSH0 DUP5 DUP5 ADD MSTORE POP POP POP POP JUMP JUMPDEST PUSH0 PUSH1 0x1F NOT PUSH1 0x1F DUP4 ADD AND SWAP1 POP SWAP2 SWAP1 POP JUMP JUMPDEST PUSH0 PUSH2 0x1062 DUP3 PUSH2 0x1006 JUMP JUMPDEST PUSH2 0x106C DUP2 DUP6 PUSH2 0x1010 JUMP JUMPDEST SWAP4 POP PUSH2 0x107C DUP2 DUP6 PUSH1 0x20 DUP7 ADD PUSH2 0x1020 JUMP JUMPDEST PUSH2 0x1085 DUP2 PUSH2 0x1048 JUMP JUMPDEST DUP5 ADD SWAP2 POP POP SWAP3 SWAP2 POP POP JUMP JUMPDEST PUSH0 PUSH1 0x20 DUP3 ADD SWAP1 POP DUP2 DUP2 SUB PUSH0 DUP4 ADD MSTORE PUSH2 0x10A8 DUP2 DUP5 PUSH2 0x1058 JUMP JUMPDEST SWAP1 POP SWAP3 SWAP2 POP POP JUMP JUMPDEST PUSH0 DUP1 REVERT JUMPDEST PUSH0 PUSH20 0xFFFFFFFFFFFFFFFFFFFFFFFFFFFFFFFFFFFFFFFF DUP3 AND SWAP1 POP SWAP2 SWAP1 POP JUMP JUMPDEST PUSH0 PUSH2 0x10DD DUP3 PUSH2 0x10B4 JUMP JUMPDEST SWAP1 POP SWAP2 SWAP1 POP JUMP JUMPDEST PUSH2 0x10ED DUP2 PUSH2 0x10D3 JUMP JUMPDEST DUP2 EQ PUSH2 0x10F7 JUMPI PUSH0 DUP1 REVERT JUMPDEST POP JUMP JUMPDEST PUSH0 DUP2 CALLDATALOAD SWAP1 POP PUSH2 0x1108 DUP2 PUSH2 0x10E4 JUMP JUMPDEST SWAP3 SWAP2 POP POP JUMP JUMPDEST PUSH0 DUP2 SWAP1 POP SWAP2 SWAP1 POP JUMP JUMPDEST PUSH2 0x1120 DUP2 PUSH2 0x110E JUMP JUMPDEST DUP2 EQ PUSH2 0x112A JUMPI PUSH0 DUP1 REVERT JUMPDEST POP JUMP JUMPDEST PUSH0 DUP2 CALLDATALOAD SWAP1 POP PUSH2 0x113B DUP2 PUSH2 0x1117 JUMP JUMPDEST SWAP3 SWAP2 POP POP JUMP JUMPDEST PUSH0 DUP1 PUSH1 0x40 DUP4 DUP6 SUB SLT ISZERO PUSH2 0x1157 JUMPI PUSH2 0x1156 PUSH2 0x10B0 JUMP JUMPDEST JUMPDEST PUSH0 PUSH2 0x1164 DUP6 DUP3 DUP7 ADD PUSH2 0x10FA JUMP JUMPDEST SWAP3 POP POP PUSH1 0x20 PUSH2 0x1175 DUP6 DUP3 DUP7 ADD PUSH2 0x112D JUMP JUMPDEST SWAP2 POP POP SWAP3 POP SWAP3 SWAP1 POP JUMP JUMPDEST PUSH0 DUP2 ISZERO ISZERO SWAP1 POP SWAP2 SWAP1 POP JUMP JUMPDEST PUSH2 0x1193 DUP2 PUSH2 0x117F JUMP JUMPDEST DUP3 MSTORE POP POP JUMP JUMPDEST PUSH0 PUSH1 0x20 DUP3 ADD SWAP1 POP PUSH2 0x11AC PUSH0 DUP4 ADD DUP5 PUSH2 0x118A JUMP JUMPDEST SWAP3 SWAP2 POP POP JUMP JUMPDEST PUSH2 0x11BB DUP2 PUSH2 0x110E JUMP JUMPDEST DUP3 MSTORE POP POP JUMP JUMPDEST PUSH0 PUSH1 0x20 DUP3 ADD SWAP1 POP PUSH2 0x11D4 PUSH0 DUP4 ADD DUP5 PUSH2 0x11B2 JUMP JUMPDEST SWAP3 SWAP2 POP POP JUMP JUMPDEST PUSH0 DUP1 PUSH0 PUSH1 0x60 DUP5 DUP7 SUB SLT ISZERO PUSH2 0x11F1 JUMPI PUSH2 0x11F0 PUSH2 0x10B0 JUMP JUMPDEST JUMPDEST PUSH0 PUSH2 0x11FE DUP7 DUP3 DUP8 ADD PUSH2 0x10FA JUMP JUMPDEST SWAP4 POP POP PUSH1 0x20 PUSH2 0x120F DUP7 DUP3 DUP8 ADD PUSH2 0x10FA JUMP JUMPDEST SWAP3 POP POP PUSH1 0x40 PUSH2 0x1220 DUP7 DUP3 DUP8 ADD PUSH2 0x112D JUMP JUMPDEST SWAP2 POP POP SWAP3 POP SWAP3 POP SWAP3 JUMP JUMPDEST PUSH0 PUSH1 0xFF DUP3 AND SWAP1 POP SWAP2 SWAP1 POP JUMP JUMPDEST PUSH2 0x123F DUP2 PUSH2 0x122A JUMP JUMPDEST DUP3 MSTORE POP POP JUMP JUMPDEST PUSH0 PUSH1 0x20 DUP3 ADD SWAP1 POP PUSH2 0x1258 PUSH0 DUP4 ADD DUP5 PUSH2 0x1236 JUMP JUMPDEST SWAP3 SWAP2 POP POP JUMP JUMPDEST PUSH0 PUSH1 0x20 DUP3 DUP5 SUB SLT ISZERO PUSH2 0x1273 JUMPI PUSH2 0x1272 PUSH2 0x10B0 JUMP JUMPDEST JUMPDEST PUSH0 PUSH2 0x1280 DUP5 DUP3 DUP6 ADD PUSH2 0x10FA JUMP JUMPDEST SWAP2 POP POP SWAP3 SWAP2 POP POP JUMP JUMPDEST PUSH2 0x1292 DUP2 PUSH2 0x10D3 JUMP JUMPDEST DUP3 MSTORE POP POP JUMP JUMPDEST PUSH0 PUSH1 0x20 DUP3 ADD SWAP1 POP PUSH2 0x12AB PUSH0 DUP4 ADD DUP5 PUSH2 0x1289 JUMP JUMPDEST SWAP3 SWAP2 POP POP JUMP JUMPDEST PUSH1 0x5 DUP2 LT PUSH2 0x12BD JUMPI PUSH0 DUP1 REVERT JUMPDEST POP JUMP JUMPDEST PUSH0 DUP2 CALLDATALOAD SWAP1 POP PUSH2 0x12CE DUP2 PUSH2 0x12B1 JUMP JUMPDEST SWAP3 SWAP2 POP POP JUMP JUMPDEST PUSH0 PUSH1 0x20 DUP3 DUP5 SUB SLT ISZERO PUSH2 0x12E9 JUMPI PUSH2 0x12E8 PUSH2 0x10B0 JUMP JUMPDEST JUMPDEST PUSH0 PUSH2 0x12F6 DUP5 DUP3 DUP6 ADD PUSH2 0x12C0 JUMP JUMPDEST SWAP2 POP POP SWAP3 SWAP2 POP POP JUMP JUMPDEST PUSH0 DUP1 PUSH1 0x40 DUP4 DUP6 SUB SLT ISZERO PUSH2 0x1315 JUMPI PUSH2 0x1314 PUSH2 0x10B0 JUMP JUMPDEST JUMPDEST PUSH0 PUSH2 0x1322 DUP6 DUP3 DUP7 ADD PUSH2 0x10FA JUMP JUMPDEST SWAP3 POP POP PUSH1 0x20 PUSH2 0x1333 DUP6 DUP3 DUP7 ADD PUSH2 0x10FA JUMP JUMPDEST SWAP2 POP POP SWAP3 POP SWAP3 SWAP1 POP JUMP JUMPDEST PUSH32 0x4E487B7100000000000000000000000000000000000000000000000000000000 PUSH0 MSTORE PUSH1 0x22 PUSH1 0x4 MSTORE PUSH1 0x24 PUSH0 REVERT JUMPDEST PUSH0 PUSH1 0x2 DUP3 DIV SWAP1 POP PUSH1 0x1 DUP3 AND DUP1 PUSH2 0x1381 JUMPI PUSH1 0x7F DUP3 AND SWAP2 POP JUMPDEST PUSH1 0x20 DUP3 LT DUP2 SUB PUSH2 0x1394 JUMPI PUSH2 0x1393 PUSH2 0x133D JUMP JUMPDEST JUMPDEST POP SWAP2 SWAP1 POP JUMP JUMPDEST PUSH32 0x4E487B7100000000000000000000000000000000000000000000000000000000 PUSH0 MSTORE PUSH1 0x21 PUSH1 0x4 MSTORE PUSH1 0x24 PUSH0 REVERT JUMPDEST PUSH32 0x4E6F7420616C6C6F77656420746F206275726E00000000000000000000000000 PUSH0 DUP3 ADD MSTORE POP JUMP JUMPDEST PUSH0 PUSH2 0x13FB PUSH1 0x13 DUP4 PUSH2 0x1010 JUMP JUMPDEST SWAP2 POP PUSH2 0x1406 DUP3 PUSH2 0x13C7 JUMP JUMPDEST PUSH1 0x20 DUP3 ADD SWAP1 POP SWAP2 SWAP1 POP JUMP JUMPDEST PUSH0 PUSH1 0x20 DUP3 ADD SWAP1 POP DUP2 DUP2 SUB PUSH0 DUP4 ADD MSTORE PUSH2 0x1428 DUP2 PUSH2 0x13EF JUMP JUMPDEST SWAP1 POP SWAP2 SWAP1 POP JUMP JUMPDEST PUSH32 0x4E6F7420616C6C6F77656420746F20736574206C6576656C0000000000000000 PUSH0 DUP3 ADD MSTORE POP JUMP JUMPDEST PUSH0 PUSH2 0x1463 PUSH1 0x18 DUP4 PUSH2 0x1010 JUMP JUMPDEST SWAP2 POP PUSH2 0x146E DUP3 PUSH2 0x142F JUMP JUMPDEST PUSH1 0x20 DUP3 ADD SWAP1 POP SWAP2 SWAP1 POP JUMP JUMPDEST PUSH0 PUSH1 0x20 DUP3 ADD SWAP1 POP DUP2 DUP2 SUB PUSH0 DUP4 ADD MSTORE PUSH2 0x1490 DUP2 PUSH2 0x1457 JUMP JUMPDEST SWAP1 POP SWAP2 SWAP1 POP JUMP JUMPDEST PUSH0 PUSH1 0x60 DUP3 ADD SWAP1 POP PUSH2 0x14AA PUSH0 DUP4 ADD DUP7 PUSH2 0x1289 JUMP JUMPDEST PUSH2 0x14B7 PUSH1 0x20 DUP4 ADD DUP6 PUSH2 0x11B2 JUMP JUMPDEST PUSH2 0x14C4 PUSH1 0x40 DUP4 ADD DUP5 PUSH2 0x11B2 JUMP JUMPDEST SWAP5 SWAP4 POP POP POP POP JUMP JUMPDEST PUSH32 0x4E487B7100000000000000000000000000000000000000000000000000000000 PUSH0 MSTORE PUSH1 0x11 PUSH1 0x4 MSTORE PUSH1 0x24 PUSH0 REVERT JUMPDEST PUSH0 PUSH2 0x1503 DUP3 PUSH2 0x110E JUMP JUMPDEST SWAP2 POP PUSH2 0x150E DUP4 PUSH2 0x110E JUMP JUMPDEST SWAP3 POP DUP3 DUP3 ADD SWAP1 POP DUP1 DUP3 GT ISZERO PUSH2 0x1526 JUMPI PUSH2 0x1525 PUSH2 0x14CC JUMP JUMPDEST JUMPDEST SWAP3 SWAP2 POP POP JUMP INVALID LOG2 PUSH5 0x6970667358 0x22 SLT KECCAK256 GAS DUP10 0xB7 RETURN JUMP 0x5C PUSH0 DUP14 0x2B BLOCKHASH DUP3 COINBASE 0x29 0xF PUSH15 0xA8C0536AA2DF5DA45D3876B966A9A8 0xF7 POP PUSH5 0x736F6C6343 STOP ADDMOD OR STOP CALLER "
				},
				"gasEstimates": {
					"creation": {
						"codeDepositCost": "1094800",
						"executionCost": "infinite",
						"totalCost": "infinite"
					},
					"external": {
						"allowance(address,address)": "infinite",
						"approve(address,uint256)": "infinite",
						"balanceOf(address)": "2918",
						"burn(address,uint256)": "infinite",
						"decimals()": "353",
						"isFirstLevel()": "2649",
						"mint(address,uint256)": "infinite",
						"name()": "infinite",
						"owner()": "2560",
						"renounceOwnership()": "infinite",
						"setLevel(uint8)": "infinite",
						"symbol()": "infinite",
						"totalSupply()": "2500",
						"transfer(address,uint256)": "infinite",
						"transferFrom(address,address,uint256)": "infinite",
						"transferOwnership(address)": "infinite",
						"unlimitedAllowanceAddress()": "infinite"
					}
				},
				"methodIdentifiers": {
					"allowance(address,address)": "dd62ed3e",
					"approve(address,uint256)": "095ea7b3",
					"balanceOf(address)": "70a08231",
					"burn(address,uint256)": "9dc29fac",
					"decimals()": "313ce567",
					"isFirstLevel()": "63a2b02b",
					"mint(address,uint256)": "40c10f19",
					"name()": "06fdde03",
					"owner()": "8da5cb5b",
					"renounceOwnership()": "715018a6",
					"setLevel(uint8)": "bd5546be",
					"symbol()": "95d89b41",
					"totalSupply()": "18160ddd",
					"transfer(address,uint256)": "a9059cbb",
					"transferFrom(address,address,uint256)": "23b872dd",
					"transferOwnership(address)": "f2fde38b",
					"unlimitedAllowanceAddress()": "f9e05c6d"
				}
			},
			"storageLayout": {
				"storage": [
					{
						"astId": 307,
						"contract": "resource.sol:Resource",
						"label": "_balances",
						"offset": 0,
						"slot": "0",
						"type": "t_mapping(t_address,t_uint256)"
					},
					{
						"astId": 313,
						"contract": "resource.sol:Resource",
						"label": "_allowances",
						"offset": 0,
						"slot": "1",
						"type": "t_mapping(t_address,t_mapping(t_address,t_uint256))"
					},
					{
						"astId": 315,
						"contract": "resource.sol:Resource",
						"label": "_totalSupply",
						"offset": 0,
						"slot": "2",
						"type": "t_uint256"
					},
					{
						"astId": 317,
						"contract": "resource.sol:Resource",
						"label": "_name",
						"offset": 0,
						"slot": "3",
						"type": "t_string_storage"
					},
					{
						"astId": 319,
						"contract": "resource.sol:Resource",
						"label": "_symbol",
						"offset": 0,
						"slot": "4",
						"type": "t_string_storage"
					},
					{
						"astId": 8,
						"contract": "resource.sol:Resource",
						"label": "_owner",
						"offset": 0,
						"slot": "5",
						"type": "t_address"
					},
					{
						"astId": 1536,
						"contract": "resource.sol:Resource",
						"label": "level",
						"offset": 20,
						"slot": "5",
						"type": "t_enum(Levels)1533"
					}
				],
				"types": {
					"t_address": {
						"encoding": "inplace",
						"label": "address",
						"numberOfBytes": "20"
					},
					"t_enum(Levels)1533": {
						"encoding": "inplace",
						"label": "enum Resource.Levels",
						"numberOfBytes": "1"
					},
					"t_mapping(t_address,t_mapping(t_address,t_uint256))": {
						"encoding": "mapping",
						"key": "t_address",
						"label": "mapping(address => mapping(address => uint256))",
						"numberOfBytes": "32",
						"value": "t_mapping(t_address,t_uint256)"
					},
					"t_mapping(t_address,t_uint256)": {
						"encoding": "mapping",
						"key": "t_address",
						"label": "mapping(address => uint256)",
						"numberOfBytes": "32",
						"value": "t_uint256"
					},
					"t_string_storage": {
						"encoding": "bytes",
						"label": "string",
						"numberOfBytes": "32"
					},
					"t_uint256": {
						"encoding": "inplace",
						"label": "uint256",
						"numberOfBytes": "32"
					}
				}
			},
			"userdoc": {
				"kind": "user",
				"methods": {},
				"version": 1
			}
		}
	}
}