{
	"recipe.sol": {
		"Recipe": {
			"abi": [
				{
					"inputs": [
						{
							"internalType": "string",
							"name": "name",
							"type": "string"
						},
						{
							"internalType": "string",
							"name": "symbol",
							"type": "string"
						},
						{
							"internalType": "address",
							"name": "_unlimitedAllowanceAddress",
							"type": "address"
						},
						{
							"internalType": "address",
							"name": "initialOwner",
							"type": "address"
						},
						{
							"components": [
								{
									"internalType": "address",
									"name": "resourceContractAddr",
									"type": "address"
								},
								{
									"internalType": "uint256",
									"name": "amount",
									"type": "uint256"
								}
							],
							"internalType": "struct Recipe.ResourceAmount[]",
							"name": "_inputResources",
							"type": "tuple[]"
						},
						{
							"components": [
								{
									"internalType": "address",
									"name": "resourceContractAddr",
									"type": "address"
								},
								{
									"internalType": "uint256",
									"name": "amount",
									"type": "uint256"
								}
							],
							"internalType": "struct Recipe.ResourceAmount[]",
							"name": "_outputResources",
							"type": "tuple[]"
						},
						{
							"internalType": "enum Recipe.Levels",
							"name": "level_",
							"type": "uint8"
						}
					],
					"stateMutability": "nonpayable",
					"type": "constructor"
				},
				{
					"inputs": [
						{
							"internalType": "address",
							"name": "spender",
							"type": "address"
						},
						{
							"internalType": "uint256",
							"name": "allowance",
							"type": "uint256"
						},
						{
							"internalType": "uint256",
							"name": "needed",
							"type": "uint256"
						}
					],
					"name": "ERC20InsufficientAllowance",
					"type": "error"
				},
				{
					"inputs": [
						{
							"internalType": "address",
							"name": "sender",
							"type": "address"
						},
						{
							"internalType": "uint256",
							"name": "balance",
							"type": "uint256"
						},
						{
							"internalType": "uint256",
							"name": "needed",
							"type": "uint256"
						}
					],
					"name": "ERC20InsufficientBalance",
					"type": "error"
				},
				{
					"inputs": [
						{
							"internalType": "address",
							"name": "approver",
							"type": "address"
						}
					],
					"name": "ERC20InvalidApprover",
					"type": "error"
				},
				{
					"inputs": [
						{
							"internalType": "address",
							"name": "receiver",
							"type": "address"
						}
					],
					"name": "ERC20InvalidReceiver",
					"type": "error"
				},
				{
					"inputs": [
						{
							"internalType": "address",
							"name": "sender",
							"type": "address"
						}
					],
					"name": "ERC20InvalidSender",
					"type": "error"
				},
				{
					"inputs": [
						{
							"internalType": "address",
							"name": "spender",
							"type": "address"
						}
					],
					"name": "ERC20InvalidSpender",
					"type": "error"
				},
				{
					"inputs": [
						{
							"internalType": "address",
							"name": "owner",
							"type": "address"
						}
					],
					"name": "OwnableInvalidOwner",
					"type": "error"
				},
				{
					"inputs": [
						{
							"internalType": "address",
							"name": "account",
							"type": "address"
						}
					],
					"name": "OwnableUnauthorizedAccount",
					"type": "error"
				},
				{
					"anonymous": false,
					"inputs": [
						{
							"indexed": true,
							"internalType": "address",
							"name": "owner",
							"type": "address"
						},
						{
							"indexed": true,
							"internalType": "address",
							"name": "spender",
							"type": "address"
						},
						{
							"indexed": false,
							"internalType": "uint256",
							"name": "value",
							"type": "uint256"
						}
					],
					"name": "Approval",
					"type": "event"
				},
				{
					"anonymous": false,
					"inputs": [
						{
							"indexed": true,
							"internalType": "address",
							"name": "previousOwner",
							"type": "address"
						},
						{
							"indexed": true,
							"internalType": "address",
							"name": "newOwner",
							"type": "address"
						}
					],
					"name": "OwnershipTransferred",
					"type": "event"
				},
				{
					"anonymous": false,
					"inputs": [
						{
							"indexed": true,
							"internalType": "address",
							"name": "from",
							"type": "address"
						},
						{
							"indexed": true,
							"internalType": "address",
							"name": "to",
							"type": "address"
						},
						{
							"indexed": false,
							"internalType": "uint256",
							"name": "value",
							"type": "uint256"
						}
					],
					"name": "Transfer",
					"type": "event"
				},
				{
					"inputs": [
						{
							"internalType": "address",
							"name": "owner",
							"type": "address"
						},
						{
							"internalType": "address",
							"name": "spender",
							"type": "address"
						}
					],
					"name": "allowance",
					"outputs": [
						{
							"internalType": "uint256",
							"name": "",
							"type": "uint256"
						}
					],
					"stateMutability": "view",
					"type": "function"
				},
				{
					"inputs": [
						{
							"internalType": "address",
							"name": "spender",
							"type": "address"
						},
						{
							"internalType": "uint256",
							"name": "value",
							"type": "uint256"
						}
					],
					"name": "approve",
					"outputs": [
						{
							"internalType": "bool",
							"name": "",
							"type": "bool"
						}
					],
					"stateMutability": "nonpayable",
					"type": "function"
				},
				{
					"inputs": [
						{
							"internalType": "address",
							"name": "account",
							"type": "address"
						}
					],
					"name": "balanceOf",
					"outputs": [
						{
							"internalType": "uint256",
							"name": "",
							"type": "uint256"
						}
					],
					"stateMutability": "view",
					"type": "function"
				},
				{
					"inputs": [
						{
							"internalType": "uint256",
							"name": "amount",
							"type": "uint256"
						}
					],
					"name": "burn",
					"outputs": [],
					"stateMutability": "nonpayable",
					"type": "function"
				},
				{
					"inputs": [],
					"name": "decimals",
					"outputs": [
						{
							"internalType": "uint8",
							"name": "",
							"type": "uint8"
						}
					],
					"stateMutability": "view",
					"type": "function"
				},
				{
					"inputs": [],
					"name": "getInputResources",
					"outputs": [
						{
							"components": [
								{
									"internalType": "address",
									"name": "resourceContractAddr",
									"type": "address"
								},
								{
									"internalType": "uint256",
									"name": "amount",
									"type": "uint256"
								}
							],
							"internalType": "struct Recipe.ResourceAmount[]",
							"name": "",
							"type": "tuple[]"
						}
					],
					"stateMutability": "view",
					"type": "function"
				},
				{
					"inputs": [],
					"name": "getOutputResources",
					"outputs": [
						{
							"components": [
								{
									"internalType": "address",
									"name": "resourceContractAddr",
									"type": "address"
								},
								{
									"internalType": "uint256",
									"name": "amount",
									"type": "uint256"
								}
							],
							"internalType": "struct Recipe.ResourceAmount[]",
							"name": "",
							"type": "tuple[]"
						}
					],
					"stateMutability": "view",
					"type": "function"
				},
				{
					"inputs": [
						{
							"internalType": "uint256",
							"name": "",
							"type": "uint256"
						}
					],
					"name": "inputResources",
					"outputs": [
						{
							"internalType": "address",
							"name": "resourceContractAddr",
							"type": "address"
						},
						{
							"internalType": "uint256",
							"name": "amount",
							"type": "uint256"
						}
					],
					"stateMutability": "view",
					"type": "function"
				},
				{
					"inputs": [],
					"name": "isFirstLevel",
					"outputs": [
						{
							"internalType": "bool",
							"name": "",
							"type": "bool"
						}
					],
					"stateMutability": "view",
					"type": "function"
				},
				{
					"inputs": [],
					"name": "level",
					"outputs": [
						{
							"internalType": "enum Recipe.Levels",
							"name": "",
							"type": "uint8"
						}
					],
					"stateMutability": "view",
					"type": "function"
				},
				{
					"inputs": [
						{
							"internalType": "address",
							"name": "to",
							"type": "address"
						},
						{
							"internalType": "uint256",
							"name": "amount",
							"type": "uint256"
						}
					],
					"name": "mint",
					"outputs": [],
					"stateMutability": "nonpayable",
					"type": "function"
				},
				{
					"inputs": [],
					"name": "name",
					"outputs": [
						{
							"internalType": "string",
							"name": "",
							"type": "string"
						}
					],
					"stateMutability": "view",
					"type": "function"
				},
				{
					"inputs": [
						{
							"internalType": "uint256",
							"name": "",
							"type": "uint256"
						}
					],
					"name": "outputResources",
					"outputs": [
						{
							"internalType": "address",
							"name": "resourceContractAddr",
							"type": "address"
						},
						{
							"internalType": "uint256",
							"name": "amount",
							"type": "uint256"
						}
					],
					"stateMutability": "view",
					"type": "function"
				},
				{
					"inputs": [],
					"name": "owner",
					"outputs": [
						{
							"internalType": "address",
							"name": "",
							"type": "address"
						}
					],
					"stateMutability": "view",
					"type": "function"
				},
				{
					"inputs": [],
					"name": "renounceOwnership",
					"outputs": [],
					"stateMutability": "nonpayable",
					"type": "function"
				},
				{
					"inputs": [
						{
							"internalType": "enum Recipe.Levels",
							"name": "level_",
							"type": "uint8"
						}
					],
					"name": "setLevel",
					"outputs": [],
					"stateMutability": "nonpayable",
					"type": "function"
				},
				{
					"inputs": [],
					"name": "symbol",
					"outputs": [
						{
							"internalType": "string",
							"name": "",
							"type": "string"
						}
					],
					"stateMutability": "view",
					"type": "function"
				},
				{
					"inputs": [],
					"name": "totalSupply",
					"outputs": [
						{
							"internalType": "uint256",
							"name": "",
							"type": "uint256"
						}
					],
					"stateMutability": "view",
					"type": "function"
				},
				{
					"inputs": [
						{
							"internalType": "address",
							"name": "to",
							"type": "address"
						},
						{
							"internalType": "uint256",
							"name": "amount",
							"type": "uint256"
						}
					],
					"name": "transfer",
					"outputs": [
						{
							"internalType": "bool",
							"name": "",
							"type": "bool"
						}
					],
					"stateMutability": "nonpayable",
					"type": "function"
				},
				{
					"inputs": [
						{
							"internalType": "address",
							"name": "from",
							"type": "address"
						},
						{
							"internalType": "address",
							"name": "to",
							"type": "address"
						},
						{
							"internalType": "uint256",
							"name": "value",
							"type": "uint256"
						}
					],
					"name": "transferFrom",
					"outputs": [
						{
							"internalType": "bool",
							"name": "",
							"type": "bool"
						}
					],
					"stateMutability": "nonpayable",
					"type": "function"
				},
				{
					"inputs": [
						{
							"internalType": "address",
							"name": "newOwner",
							"type": "address"
						}
					],
					"name": "transferOwnership",
					"outputs": [],
					"stateMutability": "nonpayable",
					"type": "function"
				},
				{
					"inputs": [],
					"name": "unlimitedAllowanceAddress",
					"outputs": [
						{
							"internalType": "address",
							"name": "",
							"type": "address"
						}
					],
					"stateMutability": "view",
					"type": "function"
				}
			],
			"devdoc": {
				"errors": {
					"ERC20InsufficientAllowance(address,uint256,uint256)": [
						{
							"details": "Indicates a failure with the `spender`’s `allowance`. Used in transfers.",
							"params": {
								"allowance": "Amount of tokens a `spender` is allowed to operate with.",
								"needed": "Minimum amount required to perform a transfer.",
								"spender": "Address that may be allowed to operate on tokens without being their owner."
							}
						}
					],
					"ERC20InsufficientBalance(address,uint256,uint256)": [
						{
							"details": "Indicates an error related to the current `balance` of a `sender`. Used in transfers.",
							"params": {
								"balance": "Current balance for the interacting account.",
								"needed": "Minimum amount required to perform a transfer.",
								"sender": "Address whose tokens are being transferred."
							}
						}
					],
					"ERC20InvalidApprover(address)": [
						{
							"details": "Indicates a failure with the `approver` of a token to be approved. Used in approvals.",
							"params": {
								"approver": "Address initiating an approval operation."
							}
						}
					],
					"ERC20InvalidReceiver(address)": [
						{
							"details": "Indicates a failure with the token `receiver`. Used in transfers.",
							"params": {
								"receiver": "Address to which tokens are being transferred."
							}
						}
					],
					"ERC20InvalidSender(address)": [
						{
							"details": "Indicates a failure with the token `sender`. Used in transfers.",
							"params": {
								"sender": "Address whose tokens are being transferred."
							}
						}
					],
					"ERC20InvalidSpender(address)": [
						{
							"details": "Indicates a failure with the `spender` to be approved. Used in approvals.",
							"params": {
								"spender": "Address that may be allowed to operate on tokens without being their owner."
							}
						}
					],
					"OwnableInvalidOwner(address)": [
						{
							"details": "The owner is not a valid owner account. (eg. `address(0)`)"
						}
					],
					"OwnableUnauthorizedAccount(address)": [
						{
							"details": "The caller account is not authorized to perform an operation."
						}
					]
				},
				"events": {
					"Approval(address,address,uint256)": {
						"details": "Emitted when the allowance of a `spender` for an `owner` is set by a call to {approve}. `value` is the new allowance."
					},
					"Transfer(address,address,uint256)": {
						"details": "Emitted when `value` tokens are moved from one account (`from`) to another (`to`). Note that `value` may be zero."
					}
				},
				"kind": "dev",
				"methods": {
					"allowance(address,address)": {
						"details": "See {IERC20-allowance}."
					},
					"approve(address,uint256)": {
						"details": "See {IERC20-approve}. NOTE: If `value` is the maximum `uint256`, the allowance is not updated on `transferFrom`. This is semantically equivalent to an infinite approval. Requirements: - `spender` cannot be the zero address."
					},
					"balanceOf(address)": {
						"details": "See {IERC20-balanceOf}."
					},
					"decimals()": {
						"details": "Returns the number of decimals used to get its user representation. For example, if `decimals` equals `2`, a balance of `505` tokens should be displayed to a user as `5.05` (`505 / 10 ** 2`). Tokens usually opt for a value of 18, imitating the relationship between Ether and Wei. This is the default value returned by this function, unless it's overridden. NOTE: This information is only used for _display_ purposes: it in no way affects any of the arithmetic of the contract, including {IERC20-balanceOf} and {IERC20-transfer}."
					},
					"name()": {
						"details": "Returns the name of the token."
					},
					"owner()": {
						"details": "Returns the address of the current owner."
					},
					"renounceOwnership()": {
						"details": "Leaves the contract without owner. It will not be possible to call `onlyOwner` functions. Can only be called by the current owner. NOTE: Renouncing ownership will leave the contract without an owner, thereby disabling any functionality that is only available to the owner."
					},
					"symbol()": {
						"details": "Returns the symbol of the token, usually a shorter version of the name."
					},
					"totalSupply()": {
						"details": "See {IERC20-totalSupply}."
					},
					"transferFrom(address,address,uint256)": {
						"details": "See {IERC20-transferFrom}. Emits an {Approval} event indicating the updated allowance. This is not required by the EIP. See the note at the beginning of {ERC20}. NOTE: Does not update the allowance if the current allowance is the maximum `uint256`. Requirements: - `from` and `to` cannot be the zero address. - `from` must have a balance of at least `value`. - the caller must have allowance for ``from``'s tokens of at least `value`."
					},
					"transferOwnership(address)": {
						"details": "Transfers ownership of the contract to a new account (`newOwner`). Can only be called by the current owner."
					}
				},
				"version": 1
			},
			"evm": {
				"assembly": "    /* \"recipe.sol\":233:2991  contract Recipe is ERC20, Ownable {... */\n  mstore(0x40, 0x80)\n    /* \"recipe.sol\":686:1546  constructor(... */\n  callvalue\n  dup1\n  iszero\n  tag_1\n  jumpi\n  0x00\n  dup1\n  revert\ntag_1:\n  pop\n  mload(0x40)\n  sub(codesize, bytecodeSize)\n  dup1\n  bytecodeSize\n  dup4\n  codecopy\n  dup2\n  dup2\n  add\n  0x40\n  mstore\n  dup2\n  add\n  swap1\n  tag_2\n  swap2\n  swap1\n  tag_3\n  jump\t// in\ntag_2:\n    /* \"recipe.sol\":986:998  initialOwner */\n  dup4\n    /* \"recipe.sol\":964:968  name */\n  dup8\n    /* \"recipe.sol\":970:976  symbol */\n  dup8\n    /* \"@openzeppelin/contracts/token/ERC20/ERC20.sol\":1970:1975  name_ */\n  dup2\n    /* \"@openzeppelin/contracts/token/ERC20/ERC20.sol\":1962:1967  _name */\n  0x03\n    /* \"@openzeppelin/contracts/token/ERC20/ERC20.sol\":1962:1975  _name = name_ */\n  swap1\n  dup2\n  tag_8\n  swap2\n  swap1\n  tag_9\n  jump\t// in\ntag_8:\n  pop\n    /* \"@openzeppelin/contracts/token/ERC20/ERC20.sol\":1995:2002  symbol_ */\n  dup1\n    /* \"@openzeppelin/contracts/token/ERC20/ERC20.sol\":1985:1992  _symbol */\n  0x04\n    /* \"@openzeppelin/contracts/token/ERC20/ERC20.sol\":1985:2002  _symbol = symbol_ */\n  swap1\n  dup2\n  tag_10\n  swap2\n  swap1\n  tag_9\n  jump\t// in\ntag_10:\n  pop\n    /* \"@openzeppelin/contracts/token/ERC20/ERC20.sol\":1896:2009  constructor(string memory name_, string memory symbol_) {... */\n  pop\n  pop\n    /* \"@openzeppelin/contracts/access/Ownable.sol\":1297:1298  0 */\n  0x00\n    /* \"@openzeppelin/contracts/access/Ownable.sol\":1273:1299  initialOwner == address(0) */\n  0xffffffffffffffffffffffffffffffffffffffff\n  and\n    /* \"@openzeppelin/contracts/access/Ownable.sol\":1273:1285  initialOwner */\n  dup2\n    /* \"@openzeppelin/contracts/access/Ownable.sol\":1273:1299  initialOwner == address(0) */\n  0xffffffffffffffffffffffffffffffffffffffff\n  and\n  sub\n    /* \"@openzeppelin/contracts/access/Ownable.sol\":1269:1364  if (initialOwner == address(0)) {... */\n  tag_12\n  jumpi\n    /* \"@openzeppelin/contracts/access/Ownable.sol\":1350:1351  0 */\n  0x00\n    /* \"@openzeppelin/contracts/access/Ownable.sol\":1322:1353  OwnableInvalidOwner(address(0)) */\n  mload(0x40)\n  0x1e4fbdf700000000000000000000000000000000000000000000000000000000\n  dup2\n  mstore\n  0x04\n  add\n  tag_13\n  swap2\n  swap1\n  tag_14\n  jump\t// in\ntag_13:\n  mload(0x40)\n  dup1\n  swap2\n  sub\n  swap1\n  revert\n    /* \"@openzeppelin/contracts/access/Ownable.sol\":1269:1364  if (initialOwner == address(0)) {... */\ntag_12:\n    /* \"@openzeppelin/contracts/access/Ownable.sol\":1373:1405  _transferOwnership(initialOwner) */\n  tag_15\n    /* \"@openzeppelin/contracts/access/Ownable.sol\":1392:1404  initialOwner */\n  dup2\n    /* \"@openzeppelin/contracts/access/Ownable.sol\":1373:1391  _transferOwnership */\n  shl(0x20, tag_16)\n    /* \"@openzeppelin/contracts/access/Ownable.sol\":1373:1405  _transferOwnership(initialOwner) */\n  0x20\n  shr\n  jump\t// in\ntag_15:\n    /* \"@openzeppelin/contracts/access/Ownable.sol\":1225:1412  constructor(address initialOwner) {... */\n  pop\n    /* \"recipe.sol\":1099:1125  _unlimitedAllowanceAddress */\n  dup5\n    /* \"recipe.sol\":1071:1096  unlimitedAllowanceAddress */\n  0x06\n  0x00\n    /* \"recipe.sol\":1071:1125  unlimitedAllowanceAddress = _unlimitedAllowanceAddress */\n  0x0100\n  exp\n  dup2\n  sload\n  dup2\n  0xffffffffffffffffffffffffffffffffffffffff\n  mul\n  not\n  and\n  swap1\n  dup4\n  0xffffffffffffffffffffffffffffffffffffffff\n  and\n  mul\n  or\n  swap1\n  sstore\n  pop\n    /* \"recipe.sol\":1135:1203  _approve(unlimitedAllowanceAddress, initialOwner, type(uint256).max) */\n  tag_18\n    /* \"recipe.sol\":1144:1169  unlimitedAllowanceAddress */\n  0x06\n  0x00\n  swap1\n  sload\n  swap1\n  0x0100\n  exp\n  swap1\n  div\n  0xffffffffffffffffffffffffffffffffffffffff\n  and\n    /* \"recipe.sol\":1171:1183  initialOwner */\n  dup6\n    /* \"recipe.sol\":1185:1202  type(uint256).max */\n  0xffffffffffffffffffffffffffffffffffffffffffffffffffffffffffffffff\n    /* \"recipe.sol\":1135:1143  _approve */\n  shl(0x20, tag_19)\n    /* \"recipe.sol\":1135:1203  _approve(unlimitedAllowanceAddress, initialOwner, type(uint256).max) */\n  0x20\n  shr\n  jump\t// in\ntag_18:\n    /* \"recipe.sol\":1221:1227  level_ */\n  dup1\n    /* \"recipe.sol\":1213:1218  level */\n  0x06\n  0x14\n    /* \"recipe.sol\":1213:1227  level = level_ */\n  0x0100\n  exp\n  dup2\n  sload\n  dup2\n  0xff\n  mul\n  not\n  and\n  swap1\n  dup4\n  0x04\n  dup2\n  gt\n  iszero\n  tag_20\n  jumpi\n  tag_21\n  tag_22\n  jump\t// in\ntag_21:\ntag_20:\n  mul\n  or\n  swap1\n  sstore\n  pop\n    /* \"recipe.sol\":1299:1308  uint256 i */\n  0x00\n    /* \"recipe.sol\":1294:1411  for (uint256 i = 0; i < _inputResources.length; i++) {... */\ntag_23:\n    /* \"recipe.sol\":1318:1333  _inputResources */\n  dup4\n    /* \"recipe.sol\":1318:1340  _inputResources.length */\n  mload\n    /* \"recipe.sol\":1314:1315  i */\n  dup2\n    /* \"recipe.sol\":1314:1340  i < _inputResources.length */\n  lt\n    /* \"recipe.sol\":1294:1411  for (uint256 i = 0; i < _inputResources.length; i++) {... */\n  iszero\n  tag_24\n  jumpi\n    /* \"recipe.sol\":1361:1375  inputResources */\n  0x07\n    /* \"recipe.sol\":1381:1396  _inputResources */\n  dup5\n    /* \"recipe.sol\":1397:1398  i */\n  dup3\n    /* \"recipe.sol\":1381:1399  _inputResources[i] */\n  dup2\n  mload\n  dup2\n  lt\n  tag_26\n  jumpi\n  tag_27\n  tag_28\n  jump\t// in\ntag_27:\ntag_26:\n  0x20\n  mul\n  0x20\n  add\n  add\n  mload\n    /* \"recipe.sol\":1361:1400  inputResources.push(_inputResources[i]) */\n  swap1\n  dup1\n  0x01\n  dup2\n  sload\n  add\n  dup1\n  dup3\n  sstore\n  dup1\n  swap2\n  pop\n  pop\n  0x01\n  swap1\n  sub\n  swap1\n  0x00\n  mstore\n  keccak256(0x00, 0x20)\n  swap1\n  0x02\n  mul\n  add\n  0x00\n  swap1\n  swap2\n  swap1\n  swap2\n  swap1\n  swap2\n  pop\n  0x00\n  dup3\n  add\n  mload\n  dup2\n  0x00\n  add\n  exp(0x0100, 0x00)\n  dup2\n  sload\n  dup2\n  0xffffffffffffffffffffffffffffffffffffffff\n  mul\n  not\n  and\n  swap1\n  dup4\n  0xffffffffffffffffffffffffffffffffffffffff\n  and\n  mul\n  or\n  swap1\n  sstore\n  pop\n  0x20\n  dup3\n  add\n  mload\n  dup2\n  0x01\n  add\n  sstore\n  pop\n  pop\n    /* \"recipe.sol\":1342:1345  i++ */\n  dup1\n  dup1\n  0x01\n  add\n  swap2\n  pop\n  pop\n    /* \"recipe.sol\":1294:1411  for (uint256 i = 0; i < _inputResources.length; i++) {... */\n  jump(tag_23)\ntag_24:\n  pop\n    /* \"recipe.sol\":1425:1434  uint256 i */\n  0x00\n    /* \"recipe.sol\":1420:1540  for (uint256 i = 0; i < _outputResources.length; i++) {... */\ntag_30:\n    /* \"recipe.sol\":1444:1460  _outputResources */\n  dup3\n    /* \"recipe.sol\":1444:1467  _outputResources.length */\n  mload\n    /* \"recipe.sol\":1440:1441  i */\n  dup2\n    /* \"recipe.sol\":1440:1467  i < _outputResources.length */\n  lt\n    /* \"recipe.sol\":1420:1540  for (uint256 i = 0; i < _outputResources.length; i++) {... */\n  iszero\n  tag_31\n  jumpi\n    /* \"recipe.sol\":1488:1503  outputResources */\n  0x08\n    /* \"recipe.sol\":1509:1525  _outputResources */\n  dup4\n    /* \"recipe.sol\":1526:1527  i */\n  dup3\n    /* \"recipe.sol\":1509:1528  _outputResources[i] */\n  dup2\n  mload\n  dup2\n  lt\n  tag_33\n  jumpi\n  tag_34\n  tag_28\n  jump\t// in\ntag_34:\ntag_33:\n  0x20\n  mul\n  0x20\n  add\n  add\n  mload\n    /* \"recipe.sol\":1488:1529  outputResources.push(_outputResources[i]) */\n  swap1\n  dup1\n  0x01\n  dup2\n  sload\n  add\n  dup1\n  dup3\n  sstore\n  dup1\n  swap2\n  pop\n  pop\n  0x01\n  swap1\n  sub\n  swap1\n  0x00\n  mstore\n  keccak256(0x00, 0x20)\n  swap1\n  0x02\n  mul\n  add\n  0x00\n  swap1\n  swap2\n  swap1\n  swap2\n  swap1\n  swap2\n  pop\n  0x00\n  dup3\n  add\n  mload\n  dup2\n  0x00\n  add\n  exp(0x0100, 0x00)\n  dup2\n  sload\n  dup2\n  0xffffffffffffffffffffffffffffffffffffffff\n  mul\n  not\n  and\n  swap1\n  dup4\n  0xffffffffffffffffffffffffffffffffffffffff\n  and\n  mul\n  or\n  swap1\n  sstore\n  pop\n  0x20\n  dup3\n  add\n  mload\n  dup2\n  0x01\n  add\n  sstore\n  pop\n  pop\n    /* \"recipe.sol\":1469:1472  i++ */\n  dup1\n  dup1\n  0x01\n  add\n  swap2\n  pop\n  pop\n    /* \"recipe.sol\":1420:1540  for (uint256 i = 0; i < _outputResources.length; i++) {... */\n  jump(tag_30)\ntag_31:\n  pop\n    /* \"recipe.sol\":686:1546  constructor(... */\n  pop\n  pop\n  pop\n  pop\n  pop\n  pop\n  pop\n    /* \"recipe.sol\":233:2991  contract Recipe is ERC20, Ownable {... */\n  jump(tag_36)\n    /* \"@openzeppelin/contracts/access/Ownable.sol\":2912:3099  function _transferOwnership(address newOwner) internal virtual {... */\ntag_16:\n    /* \"@openzeppelin/contracts/access/Ownable.sol\":2985:3001  address oldOwner */\n  0x00\n    /* \"@openzeppelin/contracts/access/Ownable.sol\":3004:3010  _owner */\n  0x05\n  0x00\n  swap1\n  sload\n  swap1\n  0x0100\n  exp\n  swap1\n  div\n  0xffffffffffffffffffffffffffffffffffffffff\n  and\n    /* \"@openzeppelin/contracts/access/Ownable.sol\":2985:3010  address oldOwner = _owner */\n  swap1\n  pop\n    /* \"@openzeppelin/contracts/access/Ownable.sol\":3029:3037  newOwner */\n  dup2\n    /* \"@openzeppelin/contracts/access/Ownable.sol\":3020:3026  _owner */\n  0x05\n  0x00\n    /* \"@openzeppelin/contracts/access/Ownable.sol\":3020:3037  _owner = newOwner */\n  0x0100\n  exp\n  dup2\n  sload\n  dup2\n  0xffffffffffffffffffffffffffffffffffffffff\n  mul\n  not\n  and\n  swap1\n  dup4\n  0xffffffffffffffffffffffffffffffffffffffff\n  and\n  mul\n  or\n  swap1\n  sstore\n  pop\n    /* \"@openzeppelin/contracts/access/Ownable.sol\":3083:3091  newOwner */\n  dup2\n    /* \"@openzeppelin/contracts/access/Ownable.sol\":3052:3092  OwnershipTransferred(oldOwner, newOwner) */\n  0xffffffffffffffffffffffffffffffffffffffff\n  and\n    /* \"@openzeppelin/contracts/access/Ownable.sol\":3073:3081  oldOwner */\n  dup2\n    /* \"@openzeppelin/contracts/access/Ownable.sol\":3052:3092  OwnershipTransferred(oldOwner, newOwner) */\n  0xffffffffffffffffffffffffffffffffffffffff\n  and\n  0x8be0079c531659141344cd1fd0a4f28419497f9722a3daafe3b4186f6b6457e0\n  mload(0x40)\n  mload(0x40)\n  dup1\n  swap2\n  sub\n  swap1\n  log3\n    /* \"@openzeppelin/contracts/access/Ownable.sol\":2975:3099  {... */\n  pop\n    /* \"@openzeppelin/contracts/access/Ownable.sol\":2912:3099  function _transferOwnership(address newOwner) internal virtual {... */\n  pop\n  jump\t// out\n    /* \"@openzeppelin/contracts/token/ERC20/ERC20.sol\":8989:9117  function _approve(address owner, address spender, uint256 value) internal {... */\ntag_19:\n    /* \"@openzeppelin/contracts/token/ERC20/ERC20.sol\":9073:9110  _approve(owner, spender, value, true) */\n  tag_39\n    /* \"@openzeppelin/contracts/token/ERC20/ERC20.sol\":9082:9087  owner */\n  dup4\n    /* \"@openzeppelin/contracts/token/ERC20/ERC20.sol\":9089:9096  spender */\n  dup4\n    /* \"@openzeppelin/contracts/token/ERC20/ERC20.sol\":9098:9103  value */\n  dup4\n    /* \"@openzeppelin/contracts/token/ERC20/ERC20.sol\":9105:9109  true */\n  0x01\n    /* \"@openzeppelin/contracts/token/ERC20/ERC20.sol\":9073:9081  _approve */\n  shl(0x20, tag_40)\n    /* \"@openzeppelin/contracts/token/ERC20/ERC20.sol\":9073:9110  _approve(owner, spender, value, true) */\n  0x20\n  shr\n  jump\t// in\ntag_39:\n    /* \"@openzeppelin/contracts/token/ERC20/ERC20.sol\":8989:9117  function _approve(address owner, address spender, uint256 value) internal {... */\n  pop\n  pop\n  pop\n  jump\t// out\n    /* \"@openzeppelin/contracts/token/ERC20/ERC20.sol\":9949:10381  function _approve(address owner, address spender, uint256 value, bool emitEvent) internal virtual {... */\ntag_40:\n    /* \"@openzeppelin/contracts/token/ERC20/ERC20.sol\":10078:10079  0 */\n  0x00\n    /* \"@openzeppelin/contracts/token/ERC20/ERC20.sol\":10061:10080  owner == address(0) */\n  0xffffffffffffffffffffffffffffffffffffffff\n  and\n    /* \"@openzeppelin/contracts/token/ERC20/ERC20.sol\":10061:10066  owner */\n  dup5\n    /* \"@openzeppelin/contracts/token/ERC20/ERC20.sol\":10061:10080  owner == address(0) */\n  0xffffffffffffffffffffffffffffffffffffffff\n  and\n  sub\n    /* \"@openzeppelin/contracts/token/ERC20/ERC20.sol\":10057:10146  if (owner == address(0)) {... */\n  tag_42\n  jumpi\n    /* \"@openzeppelin/contracts/token/ERC20/ERC20.sol\":10132:10133  0 */\n  0x00\n    /* \"@openzeppelin/contracts/token/ERC20/ERC20.sol\":10103:10135  ERC20InvalidApprover(address(0)) */\n  mload(0x40)\n  0xe602df0500000000000000000000000000000000000000000000000000000000\n  dup2\n  mstore\n  0x04\n  add\n  tag_43\n  swap2\n  swap1\n  tag_14\n  jump\t// in\ntag_43:\n  mload(0x40)\n  dup1\n  swap2\n  sub\n  swap1\n  revert\n    /* \"@openzeppelin/contracts/token/ERC20/ERC20.sol\":10057:10146  if (owner == address(0)) {... */\ntag_42:\n    /* \"@openzeppelin/contracts/token/ERC20/ERC20.sol\":10178:10179  0 */\n  0x00\n    /* \"@openzeppelin/contracts/token/ERC20/ERC20.sol\":10159:10180  spender == address(0) */\n  0xffffffffffffffffffffffffffffffffffffffff\n  and\n    /* \"@openzeppelin/contracts/token/ERC20/ERC20.sol\":10159:10166  spender */\n  dup4\n    /* \"@openzeppelin/contracts/token/ERC20/ERC20.sol\":10159:10180  spender == address(0) */\n  0xffffffffffffffffffffffffffffffffffffffff\n  and\n  sub\n    /* \"@openzeppelin/contracts/token/ERC20/ERC20.sol\":10155:10245  if (spender == address(0)) {... */\n  tag_44\n  jumpi\n    /* \"@openzeppelin/contracts/token/ERC20/ERC20.sol\":10231:10232  0 */\n  0x00\n    /* \"@openzeppelin/contracts/token/ERC20/ERC20.sol\":10203:10234  ERC20InvalidSpender(address(0)) */\n  mload(0x40)\n  0x94280d6200000000000000000000000000000000000000000000000000000000\n  dup2\n  mstore\n  0x04\n  add\n  tag_45\n  swap2\n  swap1\n  tag_14\n  jump\t// in\ntag_45:\n  mload(0x40)\n  dup1\n  swap2\n  sub\n  swap1\n  revert\n    /* \"@openzeppelin/contracts/token/ERC20/ERC20.sol\":10155:10245  if (spender == address(0)) {... */\ntag_44:\n    /* \"@openzeppelin/contracts/token/ERC20/ERC20.sol\":10284:10289  value */\n  dup2\n    /* \"@openzeppelin/contracts/token/ERC20/ERC20.sol\":10254:10265  _allowances */\n  0x01\n    /* \"@openzeppelin/contracts/token/ERC20/ERC20.sol\":10254:10272  _allowances[owner] */\n  0x00\n    /* \"@openzeppelin/contracts/token/ERC20/ERC20.sol\":10266:10271  owner */\n  dup7\n    /* \"@openzeppelin/contracts/token/ERC20/ERC20.sol\":10254:10272  _allowances[owner] */\n  0xffffffffffffffffffffffffffffffffffffffff\n  and\n  0xffffffffffffffffffffffffffffffffffffffff\n  and\n  dup2\n  mstore\n  0x20\n  add\n  swap1\n  dup2\n  mstore\n  0x20\n  add\n  0x00\n  keccak256\n    /* \"@openzeppelin/contracts/token/ERC20/ERC20.sol\":10254:10281  _allowances[owner][spender] */\n  0x00\n    /* \"@openzeppelin/contracts/token/ERC20/ERC20.sol\":10273:10280  spender */\n  dup6\n    /* \"@openzeppelin/contracts/token/ERC20/ERC20.sol\":10254:10281  _allowances[owner][spender] */\n  0xffffffffffffffffffffffffffffffffffffffff\n  and\n  0xffffffffffffffffffffffffffffffffffffffff\n  and\n  dup2\n  mstore\n  0x20\n  add\n  swap1\n  dup2\n  mstore\n  0x20\n  add\n  0x00\n  keccak256\n    /* \"@openzeppelin/contracts/token/ERC20/ERC20.sol\":10254:10289  _allowances[owner][spender] = value */\n  dup2\n  swap1\n  sstore\n  pop\n    /* \"@openzeppelin/contracts/token/ERC20/ERC20.sol\":10303:10312  emitEvent */\n  dup1\n    /* \"@openzeppelin/contracts/token/ERC20/ERC20.sol\":10299:10375  if (emitEvent) {... */\n  iszero\n  tag_46\n  jumpi\n    /* \"@openzeppelin/contracts/token/ERC20/ERC20.sol\":10349:10356  spender */\n  dup3\n    /* \"@openzeppelin/contracts/token/ERC20/ERC20.sol\":10333:10364  Approval(owner, spender, value) */\n  0xffffffffffffffffffffffffffffffffffffffff\n  and\n    /* \"@openzeppelin/contracts/token/ERC20/ERC20.sol\":10342:10347  owner */\n  dup5\n    /* \"@openzeppelin/contracts/token/ERC20/ERC20.sol\":10333:10364  Approval(owner, spender, value) */\n  0xffffffffffffffffffffffffffffffffffffffff\n  and\n  0x8c5be1e5ebec7d5bd14f71427d1e84f3dd0314c0f7b2291e5b200ac8c7c3b925\n    /* \"@openzeppelin/contracts/token/ERC20/ERC20.sol\":10358:10363  value */\n  dup5\n    /* \"@openzeppelin/contracts/token/ERC20/ERC20.sol\":10333:10364  Approval(owner, spender, value) */\n  mload(0x40)\n  tag_47\n  swap2\n  swap1\n  tag_48\n  jump\t// in\ntag_47:\n  mload(0x40)\n  dup1\n  swap2\n  sub\n  swap1\n  log3\n    /* \"@openzeppelin/contracts/token/ERC20/ERC20.sol\":10299:10375  if (emitEvent) {... */\ntag_46:\n    /* \"@openzeppelin/contracts/token/ERC20/ERC20.sol\":9949:10381  function _approve(address owner, address spender, uint256 value, bool emitEvent) internal virtual {... */\n  pop\n  pop\n  pop\n  pop\n  jump\t// out\n    /* \"#utility.yul\":7:82   */\ntag_49:\n    /* \"#utility.yul\":40:46   */\n  0x00\n    /* \"#utility.yul\":73:75   */\n  0x40\n    /* \"#utility.yul\":67:76   */\n  mload\n    /* \"#utility.yul\":57:76   */\n  swap1\n  pop\n    /* \"#utility.yul\":7:82   */\n  swap1\n  jump\t// out\n    /* \"#utility.yul\":88:205   */\ntag_50:\n    /* \"#utility.yul\":197:198   */\n  0x00\n    /* \"#utility.yul\":194:195   */\n  dup1\n    /* \"#utility.yul\":187:199   */\n  revert\n    /* \"#utility.yul\":211:328   */\ntag_51:\n    /* \"#utility.yul\":320:321   */\n  0x00\n    /* \"#utility.yul\":317:318   */\n  dup1\n    /* \"#utility.yul\":310:322   */\n  revert\n    /* \"#utility.yul\":334:451   */\ntag_52:\n    /* \"#utility.yul\":443:444   */\n  0x00\n    /* \"#utility.yul\":440:441   */\n  dup1\n    /* \"#utility.yul\":433:445   */\n  revert\n    /* \"#utility.yul\":457:574   */\ntag_53:\n    /* \"#utility.yul\":566:567   */\n  0x00\n    /* \"#utility.yul\":563:564   */\n  dup1\n    /* \"#utility.yul\":556:568   */\n  revert\n    /* \"#utility.yul\":580:682   */\ntag_54:\n    /* \"#utility.yul\":621:627   */\n  0x00\n    /* \"#utility.yul\":672:674   */\n  0x1f\n    /* \"#utility.yul\":668:675   */\n  not\n    /* \"#utility.yul\":663:665   */\n  0x1f\n    /* \"#utility.yul\":656:661   */\n  dup4\n    /* \"#utility.yul\":652:666   */\n  add\n    /* \"#utility.yul\":648:676   */\n  and\n    /* \"#utility.yul\":638:676   */\n  swap1\n  pop\n    /* \"#utility.yul\":580:682   */\n  swap2\n  swap1\n  pop\n  jump\t// out\n    /* \"#utility.yul\":688:868   */\ntag_55:\n    /* \"#utility.yul\":736:813   */\n  0x4e487b7100000000000000000000000000000000000000000000000000000000\n    /* \"#utility.yul\":733:734   */\n  0x00\n    /* \"#utility.yul\":726:814   */\n  mstore\n    /* \"#utility.yul\":833:837   */\n  0x41\n    /* \"#utility.yul\":830:831   */\n  0x04\n    /* \"#utility.yul\":823:838   */\n  mstore\n    /* \"#utility.yul\":857:861   */\n  0x24\n    /* \"#utility.yul\":854:855   */\n  0x00\n    /* \"#utility.yul\":847:862   */\n  revert\n    /* \"#utility.yul\":874:1155   */\ntag_56:\n    /* \"#utility.yul\":957:984   */\n  tag_107\n    /* \"#utility.yul\":979:983   */\n  dup3\n    /* \"#utility.yul\":957:984   */\n  tag_54\n  jump\t// in\ntag_107:\n    /* \"#utility.yul\":949:955   */\n  dup2\n    /* \"#utility.yul\":945:985   */\n  add\n    /* \"#utility.yul\":1087:1093   */\n  dup2\n    /* \"#utility.yul\":1075:1085   */\n  dup2\n    /* \"#utility.yul\":1072:1094   */\n  lt\n    /* \"#utility.yul\":1051:1069   */\n  0xffffffffffffffff\n    /* \"#utility.yul\":1039:1049   */\n  dup3\n    /* \"#utility.yul\":1036:1070   */\n  gt\n    /* \"#utility.yul\":1033:1095   */\n  or\n    /* \"#utility.yul\":1030:1118   */\n  iszero\n  tag_108\n  jumpi\n    /* \"#utility.yul\":1098:1116   */\n  tag_109\n  tag_55\n  jump\t// in\ntag_109:\n    /* \"#utility.yul\":1030:1118   */\ntag_108:\n    /* \"#utility.yul\":1138:1148   */\n  dup1\n    /* \"#utility.yul\":1134:1136   */\n  0x40\n    /* \"#utility.yul\":1127:1149   */\n  mstore\n    /* \"#utility.yul\":917:1155   */\n  pop\n    /* \"#utility.yul\":874:1155   */\n  pop\n  pop\n  jump\t// out\n    /* \"#utility.yul\":1161:1290   */\ntag_57:\n    /* \"#utility.yul\":1195:1201   */\n  0x00\n    /* \"#utility.yul\":1222:1242   */\n  tag_111\n  tag_49\n  jump\t// in\ntag_111:\n    /* \"#utility.yul\":1212:1242   */\n  swap1\n  pop\n    /* \"#utility.yul\":1251:1284   */\n  tag_112\n    /* \"#utility.yul\":1279:1283   */\n  dup3\n    /* \"#utility.yul\":1271:1277   */\n  dup3\n    /* \"#utility.yul\":1251:1284   */\n  tag_56\n  jump\t// in\ntag_112:\n    /* \"#utility.yul\":1161:1290   */\n  swap2\n  swap1\n  pop\n  jump\t// out\n    /* \"#utility.yul\":1296:1604   */\ntag_58:\n    /* \"#utility.yul\":1358:1362   */\n  0x00\n    /* \"#utility.yul\":1448:1466   */\n  0xffffffffffffffff\n    /* \"#utility.yul\":1440:1446   */\n  dup3\n    /* \"#utility.yul\":1437:1467   */\n  gt\n    /* \"#utility.yul\":1434:1490   */\n  iszero\n  tag_114\n  jumpi\n    /* \"#utility.yul\":1470:1488   */\n  tag_115\n  tag_55\n  jump\t// in\ntag_115:\n    /* \"#utility.yul\":1434:1490   */\ntag_114:\n    /* \"#utility.yul\":1508:1537   */\n  tag_116\n    /* \"#utility.yul\":1530:1536   */\n  dup3\n    /* \"#utility.yul\":1508:1537   */\n  tag_54\n  jump\t// in\ntag_116:\n    /* \"#utility.yul\":1500:1537   */\n  swap1\n  pop\n    /* \"#utility.yul\":1592:1596   */\n  0x20\n    /* \"#utility.yul\":1586:1590   */\n  dup2\n    /* \"#utility.yul\":1582:1597   */\n  add\n    /* \"#utility.yul\":1574:1597   */\n  swap1\n  pop\n    /* \"#utility.yul\":1296:1604   */\n  swap2\n  swap1\n  pop\n  jump\t// out\n    /* \"#utility.yul\":1610:1856   */\ntag_59:\n    /* \"#utility.yul\":1691:1692   */\n  0x00\n    /* \"#utility.yul\":1701:1814   */\ntag_118:\n    /* \"#utility.yul\":1715:1721   */\n  dup4\n    /* \"#utility.yul\":1712:1713   */\n  dup2\n    /* \"#utility.yul\":1709:1722   */\n  lt\n    /* \"#utility.yul\":1701:1814   */\n  iszero\n  tag_120\n  jumpi\n    /* \"#utility.yul\":1800:1801   */\n  dup1\n    /* \"#utility.yul\":1795:1798   */\n  dup3\n    /* \"#utility.yul\":1791:1802   */\n  add\n    /* \"#utility.yul\":1785:1803   */\n  mload\n    /* \"#utility.yul\":1781:1782   */\n  dup2\n    /* \"#utility.yul\":1776:1779   */\n  dup5\n    /* \"#utility.yul\":1772:1783   */\n  add\n    /* \"#utility.yul\":1765:1804   */\n  mstore\n    /* \"#utility.yul\":1737:1739   */\n  0x20\n    /* \"#utility.yul\":1734:1735   */\n  dup2\n    /* \"#utility.yul\":1730:1740   */\n  add\n    /* \"#utility.yul\":1725:1740   */\n  swap1\n  pop\n    /* \"#utility.yul\":1701:1814   */\n  jump(tag_118)\ntag_120:\n    /* \"#utility.yul\":1848:1849   */\n  0x00\n    /* \"#utility.yul\":1839:1845   */\n  dup5\n    /* \"#utility.yul\":1834:1837   */\n  dup5\n    /* \"#utility.yul\":1830:1846   */\n  add\n    /* \"#utility.yul\":1823:1850   */\n  mstore\n    /* \"#utility.yul\":1672:1856   */\n  pop\n    /* \"#utility.yul\":1610:1856   */\n  pop\n  pop\n  pop\n  jump\t// out\n    /* \"#utility.yul\":1862:2296   */\ntag_60:\n    /* \"#utility.yul\":1951:1956   */\n  0x00\n    /* \"#utility.yul\":1976:2042   */\n  tag_122\n    /* \"#utility.yul\":1992:2041   */\n  tag_123\n    /* \"#utility.yul\":2034:2040   */\n  dup5\n    /* \"#utility.yul\":1992:2041   */\n  tag_58\n  jump\t// in\ntag_123:\n    /* \"#utility.yul\":1976:2042   */\n  tag_57\n  jump\t// in\ntag_122:\n    /* \"#utility.yul\":1967:2042   */\n  swap1\n  pop\n    /* \"#utility.yul\":2065:2071   */\n  dup3\n    /* \"#utility.yul\":2058:2063   */\n  dup2\n    /* \"#utility.yul\":2051:2072   */\n  mstore\n    /* \"#utility.yul\":2103:2107   */\n  0x20\n    /* \"#utility.yul\":2096:2101   */\n  dup2\n    /* \"#utility.yul\":2092:2108   */\n  add\n    /* \"#utility.yul\":2141:2144   */\n  dup5\n    /* \"#utility.yul\":2132:2138   */\n  dup5\n    /* \"#utility.yul\":2127:2130   */\n  dup5\n    /* \"#utility.yul\":2123:2139   */\n  add\n    /* \"#utility.yul\":2120:2145   */\n  gt\n    /* \"#utility.yul\":2117:2229   */\n  iszero\n  tag_124\n  jumpi\n    /* \"#utility.yul\":2148:2227   */\n  tag_125\n  tag_53\n  jump\t// in\ntag_125:\n    /* \"#utility.yul\":2117:2229   */\ntag_124:\n    /* \"#utility.yul\":2238:2290   */\n  tag_126\n    /* \"#utility.yul\":2283:2289   */\n  dup5\n    /* \"#utility.yul\":2278:2281   */\n  dup3\n    /* \"#utility.yul\":2273:2276   */\n  dup6\n    /* \"#utility.yul\":2238:2290   */\n  tag_59\n  jump\t// in\ntag_126:\n    /* \"#utility.yul\":1957:2296   */\n  pop\n    /* \"#utility.yul\":1862:2296   */\n  swap4\n  swap3\n  pop\n  pop\n  pop\n  jump\t// out\n    /* \"#utility.yul\":2316:2671   */\ntag_61:\n    /* \"#utility.yul\":2383:2388   */\n  0x00\n    /* \"#utility.yul\":2432:2435   */\n  dup3\n    /* \"#utility.yul\":2425:2429   */\n  0x1f\n    /* \"#utility.yul\":2417:2423   */\n  dup4\n    /* \"#utility.yul\":2413:2430   */\n  add\n    /* \"#utility.yul\":2409:2436   */\n  slt\n    /* \"#utility.yul\":2399:2521   */\n  tag_128\n  jumpi\n    /* \"#utility.yul\":2440:2519   */\n  tag_129\n  tag_52\n  jump\t// in\ntag_129:\n    /* \"#utility.yul\":2399:2521   */\ntag_128:\n    /* \"#utility.yul\":2550:2556   */\n  dup2\n    /* \"#utility.yul\":2544:2557   */\n  mload\n    /* \"#utility.yul\":2575:2665   */\n  tag_130\n    /* \"#utility.yul\":2661:2664   */\n  dup5\n    /* \"#utility.yul\":2653:2659   */\n  dup3\n    /* \"#utility.yul\":2646:2650   */\n  0x20\n    /* \"#utility.yul\":2638:2644   */\n  dup7\n    /* \"#utility.yul\":2634:2651   */\n  add\n    /* \"#utility.yul\":2575:2665   */\n  tag_60\n  jump\t// in\ntag_130:\n    /* \"#utility.yul\":2566:2665   */\n  swap2\n  pop\n    /* \"#utility.yul\":2389:2671   */\n  pop\n    /* \"#utility.yul\":2316:2671   */\n  swap3\n  swap2\n  pop\n  pop\n  jump\t// out\n    /* \"#utility.yul\":2677:2803   */\ntag_62:\n    /* \"#utility.yul\":2714:2721   */\n  0x00\n    /* \"#utility.yul\":2754:2796   */\n  0xffffffffffffffffffffffffffffffffffffffff\n    /* \"#utility.yul\":2747:2752   */\n  dup3\n    /* \"#utility.yul\":2743:2797   */\n  and\n    /* \"#utility.yul\":2732:2797   */\n  swap1\n  pop\n    /* \"#utility.yul\":2677:2803   */\n  swap2\n  swap1\n  pop\n  jump\t// out\n    /* \"#utility.yul\":2809:2905   */\ntag_63:\n    /* \"#utility.yul\":2846:2853   */\n  0x00\n    /* \"#utility.yul\":2875:2899   */\n  tag_133\n    /* \"#utility.yul\":2893:2898   */\n  dup3\n    /* \"#utility.yul\":2875:2899   */\n  tag_62\n  jump\t// in\ntag_133:\n    /* \"#utility.yul\":2864:2899   */\n  swap1\n  pop\n    /* \"#utility.yul\":2809:2905   */\n  swap2\n  swap1\n  pop\n  jump\t// out\n    /* \"#utility.yul\":2911:3033   */\ntag_64:\n    /* \"#utility.yul\":2984:3008   */\n  tag_135\n    /* \"#utility.yul\":3002:3007   */\n  dup2\n    /* \"#utility.yul\":2984:3008   */\n  tag_63\n  jump\t// in\ntag_135:\n    /* \"#utility.yul\":2977:2982   */\n  dup2\n    /* \"#utility.yul\":2974:3009   */\n  eq\n    /* \"#utility.yul\":2964:3027   */\n  tag_136\n  jumpi\n    /* \"#utility.yul\":3023:3024   */\n  0x00\n    /* \"#utility.yul\":3020:3021   */\n  dup1\n    /* \"#utility.yul\":3013:3025   */\n  revert\n    /* \"#utility.yul\":2964:3027   */\ntag_136:\n    /* \"#utility.yul\":2911:3033   */\n  pop\n  jump\t// out\n    /* \"#utility.yul\":3039:3182   */\ntag_65:\n    /* \"#utility.yul\":3096:3101   */\n  0x00\n    /* \"#utility.yul\":3127:3133   */\n  dup2\n    /* \"#utility.yul\":3121:3134   */\n  mload\n    /* \"#utility.yul\":3112:3134   */\n  swap1\n  pop\n    /* \"#utility.yul\":3143:3176   */\n  tag_138\n    /* \"#utility.yul\":3170:3175   */\n  dup2\n    /* \"#utility.yul\":3143:3176   */\n  tag_64\n  jump\t// in\ntag_138:\n    /* \"#utility.yul\":3039:3182   */\n  swap3\n  swap2\n  pop\n  pop\n  jump\t// out\n    /* \"#utility.yul\":3188:3531   */\ntag_66:\n    /* \"#utility.yul\":3297:3301   */\n  0x00\n    /* \"#utility.yul\":3387:3405   */\n  0xffffffffffffffff\n    /* \"#utility.yul\":3379:3385   */\n  dup3\n    /* \"#utility.yul\":3376:3406   */\n  gt\n    /* \"#utility.yul\":3373:3429   */\n  iszero\n  tag_140\n  jumpi\n    /* \"#utility.yul\":3409:3427   */\n  tag_141\n  tag_55\n  jump\t// in\ntag_141:\n    /* \"#utility.yul\":3373:3429   */\ntag_140:\n    /* \"#utility.yul\":3459:3463   */\n  0x20\n    /* \"#utility.yul\":3451:3457   */\n  dup3\n    /* \"#utility.yul\":3447:3464   */\n  mul\n    /* \"#utility.yul\":3439:3464   */\n  swap1\n  pop\n    /* \"#utility.yul\":3519:3523   */\n  0x20\n    /* \"#utility.yul\":3513:3517   */\n  dup2\n    /* \"#utility.yul\":3509:3524   */\n  add\n    /* \"#utility.yul\":3501:3524   */\n  swap1\n  pop\n    /* \"#utility.yul\":3188:3531   */\n  swap2\n  swap1\n  pop\n  jump\t// out\n    /* \"#utility.yul\":3537:3654   */\ntag_67:\n    /* \"#utility.yul\":3646:3647   */\n  0x00\n    /* \"#utility.yul\":3643:3644   */\n  dup1\n    /* \"#utility.yul\":3636:3648   */\n  revert\n    /* \"#utility.yul\":3660:3777   */\ntag_68:\n    /* \"#utility.yul\":3769:3770   */\n  0x00\n    /* \"#utility.yul\":3766:3767   */\n  dup1\n    /* \"#utility.yul\":3759:3771   */\n  revert\n    /* \"#utility.yul\":3906:3983   */\ntag_70:\n    /* \"#utility.yul\":3943:3950   */\n  0x00\n    /* \"#utility.yul\":3972:3977   */\n  dup2\n    /* \"#utility.yul\":3961:3977   */\n  swap1\n  pop\n    /* \"#utility.yul\":3906:3983   */\n  swap2\n  swap1\n  pop\n  jump\t// out\n    /* \"#utility.yul\":3989:4111   */\ntag_71:\n    /* \"#utility.yul\":4062:4086   */\n  tag_147\n    /* \"#utility.yul\":4080:4085   */\n  dup2\n    /* \"#utility.yul\":4062:4086   */\n  tag_70\n  jump\t// in\ntag_147:\n    /* \"#utility.yul\":4055:4060   */\n  dup2\n    /* \"#utility.yul\":4052:4087   */\n  eq\n    /* \"#utility.yul\":4042:4105   */\n  tag_148\n  jumpi\n    /* \"#utility.yul\":4101:4102   */\n  0x00\n    /* \"#utility.yul\":4098:4099   */\n  dup1\n    /* \"#utility.yul\":4091:4103   */\n  revert\n    /* \"#utility.yul\":4042:4105   */\ntag_148:\n    /* \"#utility.yul\":3989:4111   */\n  pop\n  jump\t// out\n    /* \"#utility.yul\":4117:4260   */\ntag_72:\n    /* \"#utility.yul\":4174:4179   */\n  0x00\n    /* \"#utility.yul\":4205:4211   */\n  dup2\n    /* \"#utility.yul\":4199:4212   */\n  mload\n    /* \"#utility.yul\":4190:4212   */\n  swap1\n  pop\n    /* \"#utility.yul\":4221:4254   */\n  tag_150\n    /* \"#utility.yul\":4248:4253   */\n  dup2\n    /* \"#utility.yul\":4221:4254   */\n  tag_71\n  jump\t// in\ntag_150:\n    /* \"#utility.yul\":4117:4260   */\n  swap3\n  swap2\n  pop\n  pop\n  jump\t// out\n    /* \"#utility.yul\":4302:4934   */\ntag_73:\n    /* \"#utility.yul\":4394:4399   */\n  0x00\n    /* \"#utility.yul\":4438:4442   */\n  0x40\n    /* \"#utility.yul\":4426:4435   */\n  dup3\n    /* \"#utility.yul\":4421:4424   */\n  dup5\n    /* \"#utility.yul\":4417:4436   */\n  sub\n    /* \"#utility.yul\":4413:4443   */\n  slt\n    /* \"#utility.yul\":4410:4527   */\n  iszero\n  tag_152\n  jumpi\n    /* \"#utility.yul\":4446:4525   */\n  tag_153\n  tag_68\n  jump\t// in\ntag_153:\n    /* \"#utility.yul\":4410:4527   */\ntag_152:\n    /* \"#utility.yul\":4545:4566   */\n  tag_154\n    /* \"#utility.yul\":4561:4565   */\n  0x40\n    /* \"#utility.yul\":4545:4566   */\n  tag_57\n  jump\t// in\ntag_154:\n    /* \"#utility.yul\":4536:4566   */\n  swap1\n  pop\n    /* \"#utility.yul\":4641:4642   */\n  0x00\n    /* \"#utility.yul\":4681:4741   */\n  tag_155\n    /* \"#utility.yul\":4737:4740   */\n  dup5\n    /* \"#utility.yul\":4728:4734   */\n  dup3\n    /* \"#utility.yul\":4717:4726   */\n  dup6\n    /* \"#utility.yul\":4713:4735   */\n  add\n    /* \"#utility.yul\":4681:4741   */\n  tag_65\n  jump\t// in\ntag_155:\n    /* \"#utility.yul\":4674:4678   */\n  0x00\n    /* \"#utility.yul\":4667:4672   */\n  dup4\n    /* \"#utility.yul\":4663:4679   */\n  add\n    /* \"#utility.yul\":4656:4742   */\n  mstore\n    /* \"#utility.yul\":4576:4753   */\n  pop\n    /* \"#utility.yul\":4814:4816   */\n  0x20\n    /* \"#utility.yul\":4855:4915   */\n  tag_156\n    /* \"#utility.yul\":4911:4914   */\n  dup5\n    /* \"#utility.yul\":4902:4908   */\n  dup3\n    /* \"#utility.yul\":4891:4900   */\n  dup6\n    /* \"#utility.yul\":4887:4909   */\n  add\n    /* \"#utility.yul\":4855:4915   */\n  tag_72\n  jump\t// in\ntag_156:\n    /* \"#utility.yul\":4848:4852   */\n  0x20\n    /* \"#utility.yul\":4841:4846   */\n  dup4\n    /* \"#utility.yul\":4837:4853   */\n  add\n    /* \"#utility.yul\":4830:4916   */\n  mstore\n    /* \"#utility.yul\":4763:4927   */\n  pop\n    /* \"#utility.yul\":4302:4934   */\n  swap3\n  swap2\n  pop\n  pop\n  jump\t// out\n    /* \"#utility.yul\":4978:5806   */\ntag_74:\n    /* \"#utility.yul\":5117:5122   */\n  0x00\n    /* \"#utility.yul\":5142:5255   */\n  tag_158\n    /* \"#utility.yul\":5158:5254   */\n  tag_159\n    /* \"#utility.yul\":5247:5253   */\n  dup5\n    /* \"#utility.yul\":5158:5254   */\n  tag_66\n  jump\t// in\ntag_159:\n    /* \"#utility.yul\":5142:5255   */\n  tag_57\n  jump\t// in\ntag_158:\n    /* \"#utility.yul\":5133:5255   */\n  swap1\n  pop\n    /* \"#utility.yul\":5275:5280   */\n  dup1\n    /* \"#utility.yul\":5304:5310   */\n  dup4\n    /* \"#utility.yul\":5297:5302   */\n  dup3\n    /* \"#utility.yul\":5290:5311   */\n  mstore\n    /* \"#utility.yul\":5338:5342   */\n  0x20\n    /* \"#utility.yul\":5331:5336   */\n  dup3\n    /* \"#utility.yul\":5327:5343   */\n  add\n    /* \"#utility.yul\":5320:5343   */\n  swap1\n  pop\n    /* \"#utility.yul\":5391:5395   */\n  0x40\n    /* \"#utility.yul\":5383:5389   */\n  dup5\n    /* \"#utility.yul\":5379:5396   */\n  mul\n    /* \"#utility.yul\":5371:5377   */\n  dup4\n    /* \"#utility.yul\":5367:5397   */\n  add\n    /* \"#utility.yul\":5420:5423   */\n  dup6\n    /* \"#utility.yul\":5412:5418   */\n  dup2\n    /* \"#utility.yul\":5409:5424   */\n  gt\n    /* \"#utility.yul\":5406:5528   */\n  iszero\n  tag_160\n  jumpi\n    /* \"#utility.yul\":5439:5518   */\n  tag_161\n  tag_67\n  jump\t// in\ntag_161:\n    /* \"#utility.yul\":5406:5528   */\ntag_160:\n    /* \"#utility.yul\":5554:5560   */\n  dup4\n    /* \"#utility.yul\":5537:5800   */\ntag_162:\n    /* \"#utility.yul\":5571:5577   */\n  dup2\n    /* \"#utility.yul\":5566:5569   */\n  dup2\n    /* \"#utility.yul\":5563:5578   */\n  lt\n    /* \"#utility.yul\":5537:5800   */\n  iszero\n  tag_164\n  jumpi\n    /* \"#utility.yul\":5646:5649   */\n  dup1\n    /* \"#utility.yul\":5675:5755   */\n  tag_165\n    /* \"#utility.yul\":5751:5754   */\n  dup9\n    /* \"#utility.yul\":5739:5749   */\n  dup3\n    /* \"#utility.yul\":5675:5755   */\n  tag_73\n  jump\t// in\ntag_165:\n    /* \"#utility.yul\":5670:5673   */\n  dup5\n    /* \"#utility.yul\":5663:5756   */\n  mstore\n    /* \"#utility.yul\":5785:5789   */\n  0x20\n    /* \"#utility.yul\":5780:5783   */\n  dup5\n    /* \"#utility.yul\":5776:5790   */\n  add\n    /* \"#utility.yul\":5769:5790   */\n  swap4\n  pop\n    /* \"#utility.yul\":5613:5800   */\n  pop\n    /* \"#utility.yul\":5597:5601   */\n  0x40\n    /* \"#utility.yul\":5592:5595   */\n  dup2\n    /* \"#utility.yul\":5588:5602   */\n  add\n    /* \"#utility.yul\":5581:5602   */\n  swap1\n  pop\n    /* \"#utility.yul\":5537:5800   */\n  jump(tag_162)\ntag_164:\n    /* \"#utility.yul\":5541:5562   */\n  pop\n    /* \"#utility.yul\":5123:5806   */\n  pop\n  pop\n    /* \"#utility.yul\":4978:5806   */\n  swap4\n  swap3\n  pop\n  pop\n  pop\n  jump\t// out\n    /* \"#utility.yul\":5850:6299   */\ntag_75:\n    /* \"#utility.yul\":5964:5969   */\n  0x00\n    /* \"#utility.yul\":6013:6016   */\n  dup3\n    /* \"#utility.yul\":6006:6010   */\n  0x1f\n    /* \"#utility.yul\":5998:6004   */\n  dup4\n    /* \"#utility.yul\":5994:6011   */\n  add\n    /* \"#utility.yul\":5990:6017   */\n  slt\n    /* \"#utility.yul\":5980:6102   */\n  tag_167\n  jumpi\n    /* \"#utility.yul\":6021:6100   */\n  tag_168\n  tag_52\n  jump\t// in\ntag_168:\n    /* \"#utility.yul\":5980:6102   */\ntag_167:\n    /* \"#utility.yul\":6131:6137   */\n  dup2\n    /* \"#utility.yul\":6125:6138   */\n  mload\n    /* \"#utility.yul\":6156:6293   */\n  tag_169\n    /* \"#utility.yul\":6289:6292   */\n  dup5\n    /* \"#utility.yul\":6281:6287   */\n  dup3\n    /* \"#utility.yul\":6274:6278   */\n  0x20\n    /* \"#utility.yul\":6266:6272   */\n  dup7\n    /* \"#utility.yul\":6262:6279   */\n  add\n    /* \"#utility.yul\":6156:6293   */\n  tag_74\n  jump\t// in\ntag_169:\n    /* \"#utility.yul\":6147:6293   */\n  swap2\n  pop\n    /* \"#utility.yul\":5970:6299   */\n  pop\n    /* \"#utility.yul\":5850:6299   */\n  swap3\n  swap2\n  pop\n  pop\n  jump\t// out\n    /* \"#utility.yul\":6305:6415   */\ntag_76:\n    /* \"#utility.yul\":6389:6390   */\n  0x05\n    /* \"#utility.yul\":6382:6387   */\n  dup2\n    /* \"#utility.yul\":6379:6391   */\n  lt\n    /* \"#utility.yul\":6369:6409   */\n  tag_171\n  jumpi\n    /* \"#utility.yul\":6405:6406   */\n  0x00\n    /* \"#utility.yul\":6402:6403   */\n  dup1\n    /* \"#utility.yul\":6395:6407   */\n  revert\n    /* \"#utility.yul\":6369:6409   */\ntag_171:\n    /* \"#utility.yul\":6305:6415   */\n  pop\n  jump\t// out\n    /* \"#utility.yul\":6421:6586   */\ntag_77:\n    /* \"#utility.yul\":6489:6494   */\n  0x00\n    /* \"#utility.yul\":6520:6526   */\n  dup2\n    /* \"#utility.yul\":6514:6527   */\n  mload\n    /* \"#utility.yul\":6505:6527   */\n  swap1\n  pop\n    /* \"#utility.yul\":6536:6580   */\n  tag_173\n    /* \"#utility.yul\":6574:6579   */\n  dup2\n    /* \"#utility.yul\":6536:6580   */\n  tag_76\n  jump\t// in\ntag_173:\n    /* \"#utility.yul\":6421:6586   */\n  swap3\n  swap2\n  pop\n  pop\n  jump\t// out\n    /* \"#utility.yul\":6592:8785   */\ntag_3:\n    /* \"#utility.yul\":6861:6867   */\n  0x00\n    /* \"#utility.yul\":6869:6875   */\n  dup1\n    /* \"#utility.yul\":6877:6883   */\n  0x00\n    /* \"#utility.yul\":6885:6891   */\n  dup1\n    /* \"#utility.yul\":6893:6899   */\n  0x00\n    /* \"#utility.yul\":6901:6907   */\n  dup1\n    /* \"#utility.yul\":6909:6915   */\n  0x00\n    /* \"#utility.yul\":6958:6961   */\n  0xe0\n    /* \"#utility.yul\":6946:6955   */\n  dup9\n    /* \"#utility.yul\":6937:6944   */\n  dup11\n    /* \"#utility.yul\":6933:6956   */\n  sub\n    /* \"#utility.yul\":6929:6962   */\n  slt\n    /* \"#utility.yul\":6926:7046   */\n  iszero\n  tag_175\n  jumpi\n    /* \"#utility.yul\":6965:7044   */\n  tag_176\n  tag_50\n  jump\t// in\ntag_176:\n    /* \"#utility.yul\":6926:7046   */\ntag_175:\n    /* \"#utility.yul\":7106:7107   */\n  0x00\n    /* \"#utility.yul\":7095:7104   */\n  dup9\n    /* \"#utility.yul\":7091:7108   */\n  add\n    /* \"#utility.yul\":7085:7109   */\n  mload\n    /* \"#utility.yul\":7136:7154   */\n  0xffffffffffffffff\n    /* \"#utility.yul\":7128:7134   */\n  dup2\n    /* \"#utility.yul\":7125:7155   */\n  gt\n    /* \"#utility.yul\":7122:7239   */\n  iszero\n  tag_177\n  jumpi\n    /* \"#utility.yul\":7158:7237   */\n  tag_178\n  tag_51\n  jump\t// in\ntag_178:\n    /* \"#utility.yul\":7122:7239   */\ntag_177:\n    /* \"#utility.yul\":7263:7337   */\n  tag_179\n    /* \"#utility.yul\":7329:7336   */\n  dup11\n    /* \"#utility.yul\":7320:7326   */\n  dup3\n    /* \"#utility.yul\":7309:7318   */\n  dup12\n    /* \"#utility.yul\":7305:7327   */\n  add\n    /* \"#utility.yul\":7263:7337   */\n  tag_61\n  jump\t// in\ntag_179:\n    /* \"#utility.yul\":7253:7337   */\n  swap8\n  pop\n    /* \"#utility.yul\":7056:7347   */\n  pop\n    /* \"#utility.yul\":7407:7409   */\n  0x20\n    /* \"#utility.yul\":7396:7405   */\n  dup9\n    /* \"#utility.yul\":7392:7410   */\n  add\n    /* \"#utility.yul\":7386:7411   */\n  mload\n    /* \"#utility.yul\":7438:7456   */\n  0xffffffffffffffff\n    /* \"#utility.yul\":7430:7436   */\n  dup2\n    /* \"#utility.yul\":7427:7457   */\n  gt\n    /* \"#utility.yul\":7424:7541   */\n  iszero\n  tag_180\n  jumpi\n    /* \"#utility.yul\":7460:7539   */\n  tag_181\n  tag_51\n  jump\t// in\ntag_181:\n    /* \"#utility.yul\":7424:7541   */\ntag_180:\n    /* \"#utility.yul\":7565:7639   */\n  tag_182\n    /* \"#utility.yul\":7631:7638   */\n  dup11\n    /* \"#utility.yul\":7622:7628   */\n  dup3\n    /* \"#utility.yul\":7611:7620   */\n  dup12\n    /* \"#utility.yul\":7607:7629   */\n  add\n    /* \"#utility.yul\":7565:7639   */\n  tag_61\n  jump\t// in\ntag_182:\n    /* \"#utility.yul\":7555:7639   */\n  swap7\n  pop\n    /* \"#utility.yul\":7357:7649   */\n  pop\n    /* \"#utility.yul\":7688:7690   */\n  0x40\n    /* \"#utility.yul\":7714:7778   */\n  tag_183\n    /* \"#utility.yul\":7770:7777   */\n  dup11\n    /* \"#utility.yul\":7761:7767   */\n  dup3\n    /* \"#utility.yul\":7750:7759   */\n  dup12\n    /* \"#utility.yul\":7746:7768   */\n  add\n    /* \"#utility.yul\":7714:7778   */\n  tag_65\n  jump\t// in\ntag_183:\n    /* \"#utility.yul\":7704:7778   */\n  swap6\n  pop\n    /* \"#utility.yul\":7659:7788   */\n  pop\n    /* \"#utility.yul\":7827:7829   */\n  0x60\n    /* \"#utility.yul\":7853:7917   */\n  tag_184\n    /* \"#utility.yul\":7909:7916   */\n  dup11\n    /* \"#utility.yul\":7900:7906   */\n  dup3\n    /* \"#utility.yul\":7889:7898   */\n  dup12\n    /* \"#utility.yul\":7885:7907   */\n  add\n    /* \"#utility.yul\":7853:7917   */\n  tag_65\n  jump\t// in\ntag_184:\n    /* \"#utility.yul\":7843:7917   */\n  swap5\n  pop\n    /* \"#utility.yul\":7798:7927   */\n  pop\n    /* \"#utility.yul\":7987:7990   */\n  0x80\n    /* \"#utility.yul\":7976:7985   */\n  dup9\n    /* \"#utility.yul\":7972:7991   */\n  add\n    /* \"#utility.yul\":7966:7992   */\n  mload\n    /* \"#utility.yul\":8019:8037   */\n  0xffffffffffffffff\n    /* \"#utility.yul\":8011:8017   */\n  dup2\n    /* \"#utility.yul\":8008:8038   */\n  gt\n    /* \"#utility.yul\":8005:8122   */\n  iszero\n  tag_185\n  jumpi\n    /* \"#utility.yul\":8041:8120   */\n  tag_186\n  tag_51\n  jump\t// in\ntag_186:\n    /* \"#utility.yul\":8005:8122   */\ntag_185:\n    /* \"#utility.yul\":8146:8267   */\n  tag_187\n    /* \"#utility.yul\":8259:8266   */\n  dup11\n    /* \"#utility.yul\":8250:8256   */\n  dup3\n    /* \"#utility.yul\":8239:8248   */\n  dup12\n    /* \"#utility.yul\":8235:8257   */\n  add\n    /* \"#utility.yul\":8146:8267   */\n  tag_75\n  jump\t// in\ntag_187:\n    /* \"#utility.yul\":8136:8267   */\n  swap4\n  pop\n    /* \"#utility.yul\":7937:8277   */\n  pop\n    /* \"#utility.yul\":8337:8340   */\n  0xa0\n    /* \"#utility.yul\":8326:8335   */\n  dup9\n    /* \"#utility.yul\":8322:8341   */\n  add\n    /* \"#utility.yul\":8316:8342   */\n  mload\n    /* \"#utility.yul\":8369:8387   */\n  0xffffffffffffffff\n    /* \"#utility.yul\":8361:8367   */\n  dup2\n    /* \"#utility.yul\":8358:8388   */\n  gt\n    /* \"#utility.yul\":8355:8472   */\n  iszero\n  tag_188\n  jumpi\n    /* \"#utility.yul\":8391:8470   */\n  tag_189\n  tag_51\n  jump\t// in\ntag_189:\n    /* \"#utility.yul\":8355:8472   */\ntag_188:\n    /* \"#utility.yul\":8496:8617   */\n  tag_190\n    /* \"#utility.yul\":8609:8616   */\n  dup11\n    /* \"#utility.yul\":8600:8606   */\n  dup3\n    /* \"#utility.yul\":8589:8598   */\n  dup12\n    /* \"#utility.yul\":8585:8607   */\n  add\n    /* \"#utility.yul\":8496:8617   */\n  tag_75\n  jump\t// in\ntag_190:\n    /* \"#utility.yul\":8486:8617   */\n  swap3\n  pop\n    /* \"#utility.yul\":8287:8627   */\n  pop\n    /* \"#utility.yul\":8666:8669   */\n  0xc0\n    /* \"#utility.yul\":8693:8768   */\n  tag_191\n    /* \"#utility.yul\":8760:8767   */\n  dup11\n    /* \"#utility.yul\":8751:8757   */\n  dup3\n    /* \"#utility.yul\":8740:8749   */\n  dup12\n    /* \"#utility.yul\":8736:8758   */\n  add\n    /* \"#utility.yul\":8693:8768   */\n  tag_77\n  jump\t// in\ntag_191:\n    /* \"#utility.yul\":8683:8768   */\n  swap2\n  pop\n    /* \"#utility.yul\":8637:8778   */\n  pop\n    /* \"#utility.yul\":6592:8785   */\n  swap3\n  swap6\n  swap9\n  swap2\n  swap5\n  swap8\n  pop\n  swap3\n  swap6\n  pop\n  jump\t// out\n    /* \"#utility.yul\":8791:8890   */\ntag_78:\n    /* \"#utility.yul\":8843:8849   */\n  0x00\n    /* \"#utility.yul\":8877:8882   */\n  dup2\n    /* \"#utility.yul\":8871:8883   */\n  mload\n    /* \"#utility.yul\":8861:8883   */\n  swap1\n  pop\n    /* \"#utility.yul\":8791:8890   */\n  swap2\n  swap1\n  pop\n  jump\t// out\n    /* \"#utility.yul\":8896:9076   */\ntag_79:\n    /* \"#utility.yul\":8944:9021   */\n  0x4e487b7100000000000000000000000000000000000000000000000000000000\n    /* \"#utility.yul\":8941:8942   */\n  0x00\n    /* \"#utility.yul\":8934:9022   */\n  mstore\n    /* \"#utility.yul\":9041:9045   */\n  0x22\n    /* \"#utility.yul\":9038:9039   */\n  0x04\n    /* \"#utility.yul\":9031:9046   */\n  mstore\n    /* \"#utility.yul\":9065:9069   */\n  0x24\n    /* \"#utility.yul\":9062:9063   */\n  0x00\n    /* \"#utility.yul\":9055:9070   */\n  revert\n    /* \"#utility.yul\":9082:9402   */\ntag_80:\n    /* \"#utility.yul\":9126:9132   */\n  0x00\n    /* \"#utility.yul\":9163:9164   */\n  0x02\n    /* \"#utility.yul\":9157:9161   */\n  dup3\n    /* \"#utility.yul\":9153:9165   */\n  div\n    /* \"#utility.yul\":9143:9165   */\n  swap1\n  pop\n    /* \"#utility.yul\":9210:9211   */\n  0x01\n    /* \"#utility.yul\":9204:9208   */\n  dup3\n    /* \"#utility.yul\":9200:9212   */\n  and\n    /* \"#utility.yul\":9231:9249   */\n  dup1\n    /* \"#utility.yul\":9221:9302   */\n  tag_195\n  jumpi\n    /* \"#utility.yul\":9287:9291   */\n  0x7f\n    /* \"#utility.yul\":9279:9285   */\n  dup3\n    /* \"#utility.yul\":9275:9292   */\n  and\n    /* \"#utility.yul\":9265:9292   */\n  swap2\n  pop\n    /* \"#utility.yul\":9221:9302   */\ntag_195:\n    /* \"#utility.yul\":9349:9351   */\n  0x20\n    /* \"#utility.yul\":9341:9347   */\n  dup3\n    /* \"#utility.yul\":9338:9352   */\n  lt\n    /* \"#utility.yul\":9318:9336   */\n  dup2\n    /* \"#utility.yul\":9315:9353   */\n  sub\n    /* \"#utility.yul\":9312:9396   */\n  tag_196\n  jumpi\n    /* \"#utility.yul\":9368:9386   */\n  tag_197\n  tag_79\n  jump\t// in\ntag_197:\n    /* \"#utility.yul\":9312:9396   */\ntag_196:\n    /* \"#utility.yul\":9133:9402   */\n  pop\n    /* \"#utility.yul\":9082:9402   */\n  swap2\n  swap1\n  pop\n  jump\t// out\n    /* \"#utility.yul\":9408:9549   */\ntag_81:\n    /* \"#utility.yul\":9457:9461   */\n  0x00\n    /* \"#utility.yul\":9480:9483   */\n  dup2\n    /* \"#utility.yul\":9472:9483   */\n  swap1\n  pop\n    /* \"#utility.yul\":9503:9506   */\n  dup2\n    /* \"#utility.yul\":9500:9501   */\n  0x00\n    /* \"#utility.yul\":9493:9507   */\n  mstore\n    /* \"#utility.yul\":9537:9541   */\n  0x20\n    /* \"#utility.yul\":9534:9535   */\n  0x00\n    /* \"#utility.yul\":9524:9542   */\n  keccak256\n    /* \"#utility.yul\":9516:9542   */\n  swap1\n  pop\n    /* \"#utility.yul\":9408:9549   */\n  swap2\n  swap1\n  pop\n  jump\t// out\n    /* \"#utility.yul\":9555:9648   */\ntag_82:\n    /* \"#utility.yul\":9592:9598   */\n  0x00\n    /* \"#utility.yul\":9639:9641   */\n  0x20\n    /* \"#utility.yul\":9634:9636   */\n  0x1f\n    /* \"#utility.yul\":9627:9632   */\n  dup4\n    /* \"#utility.yul\":9623:9637   */\n  add\n    /* \"#utility.yul\":9619:9642   */\n  div\n    /* \"#utility.yul\":9609:9642   */\n  swap1\n  pop\n    /* \"#utility.yul\":9555:9648   */\n  swap2\n  swap1\n  pop\n  jump\t// out\n    /* \"#utility.yul\":9654:9761   */\ntag_83:\n    /* \"#utility.yul\":9698:9706   */\n  0x00\n    /* \"#utility.yul\":9748:9753   */\n  dup3\n    /* \"#utility.yul\":9742:9746   */\n  dup3\n    /* \"#utility.yul\":9738:9754   */\n  shl\n    /* \"#utility.yul\":9717:9754   */\n  swap1\n  pop\n    /* \"#utility.yul\":9654:9761   */\n  swap3\n  swap2\n  pop\n  pop\n  jump\t// out\n    /* \"#utility.yul\":9767:10160   */\ntag_84:\n    /* \"#utility.yul\":9836:9842   */\n  0x00\n    /* \"#utility.yul\":9886:9887   */\n  0x08\n    /* \"#utility.yul\":9874:9884   */\n  dup4\n    /* \"#utility.yul\":9870:9888   */\n  mul\n    /* \"#utility.yul\":9909:10006   */\n  tag_202\n    /* \"#utility.yul\":9939:10005   */\n  0xffffffffffffffffffffffffffffffffffffffffffffffffffffffffffffffff\n    /* \"#utility.yul\":9928:9937   */\n  dup3\n    /* \"#utility.yul\":9909:10006   */\n  tag_83\n  jump\t// in\ntag_202:\n    /* \"#utility.yul\":10027:10066   */\n  tag_203\n    /* \"#utility.yul\":10057:10065   */\n  dup7\n    /* \"#utility.yul\":10046:10055   */\n  dup4\n    /* \"#utility.yul\":10027:10066   */\n  tag_83\n  jump\t// in\ntag_203:\n    /* \"#utility.yul\":10015:10066   */\n  swap6\n  pop\n    /* \"#utility.yul\":10099:10103   */\n  dup1\n    /* \"#utility.yul\":10095:10104   */\n  not\n    /* \"#utility.yul\":10088:10093   */\n  dup5\n    /* \"#utility.yul\":10084:10105   */\n  and\n    /* \"#utility.yul\":10075:10105   */\n  swap4\n  pop\n    /* \"#utility.yul\":10148:10152   */\n  dup1\n    /* \"#utility.yul\":10138:10146   */\n  dup7\n    /* \"#utility.yul\":10134:10153   */\n  and\n    /* \"#utility.yul\":10127:10132   */\n  dup5\n    /* \"#utility.yul\":10124:10154   */\n  or\n    /* \"#utility.yul\":10114:10154   */\n  swap3\n  pop\n    /* \"#utility.yul\":9843:10160   */\n  pop\n  pop\n    /* \"#utility.yul\":9767:10160   */\n  swap4\n  swap3\n  pop\n  pop\n  pop\n  jump\t// out\n    /* \"#utility.yul\":10166:10226   */\ntag_85:\n    /* \"#utility.yul\":10194:10197   */\n  0x00\n    /* \"#utility.yul\":10215:10220   */\n  dup2\n    /* \"#utility.yul\":10208:10220   */\n  swap1\n  pop\n    /* \"#utility.yul\":10166:10226   */\n  swap2\n  swap1\n  pop\n  jump\t// out\n    /* \"#utility.yul\":10232:10374   */\ntag_86:\n    /* \"#utility.yul\":10282:10291   */\n  0x00\n    /* \"#utility.yul\":10315:10368   */\n  tag_206\n    /* \"#utility.yul\":10333:10367   */\n  tag_207\n    /* \"#utility.yul\":10342:10366   */\n  tag_208\n    /* \"#utility.yul\":10360:10365   */\n  dup5\n    /* \"#utility.yul\":10342:10366   */\n  tag_70\n  jump\t// in\ntag_208:\n    /* \"#utility.yul\":10333:10367   */\n  tag_85\n  jump\t// in\ntag_207:\n    /* \"#utility.yul\":10315:10368   */\n  tag_70\n  jump\t// in\ntag_206:\n    /* \"#utility.yul\":10302:10368   */\n  swap1\n  pop\n    /* \"#utility.yul\":10232:10374   */\n  swap2\n  swap1\n  pop\n  jump\t// out\n    /* \"#utility.yul\":10380:10455   */\ntag_87:\n    /* \"#utility.yul\":10423:10426   */\n  0x00\n    /* \"#utility.yul\":10444:10449   */\n  dup2\n    /* \"#utility.yul\":10437:10449   */\n  swap1\n  pop\n    /* \"#utility.yul\":10380:10455   */\n  swap2\n  swap1\n  pop\n  jump\t// out\n    /* \"#utility.yul\":10461:10730   */\ntag_88:\n    /* \"#utility.yul\":10571:10610   */\n  tag_211\n    /* \"#utility.yul\":10602:10609   */\n  dup4\n    /* \"#utility.yul\":10571:10610   */\n  tag_86\n  jump\t// in\ntag_211:\n    /* \"#utility.yul\":10632:10723   */\n  tag_212\n    /* \"#utility.yul\":10681:10722   */\n  tag_213\n    /* \"#utility.yul\":10705:10721   */\n  dup3\n    /* \"#utility.yul\":10681:10722   */\n  tag_87\n  jump\t// in\ntag_213:\n    /* \"#utility.yul\":10673:10679   */\n  dup5\n    /* \"#utility.yul\":10666:10670   */\n  dup5\n    /* \"#utility.yul\":10660:10671   */\n  sload\n    /* \"#utility.yul\":10632:10723   */\n  tag_84\n  jump\t// in\ntag_212:\n    /* \"#utility.yul\":10626:10630   */\n  dup3\n    /* \"#utility.yul\":10619:10724   */\n  sstore\n    /* \"#utility.yul\":10537:10730   */\n  pop\n    /* \"#utility.yul\":10461:10730   */\n  pop\n  pop\n  pop\n  jump\t// out\n    /* \"#utility.yul\":10736:10809   */\ntag_89:\n    /* \"#utility.yul\":10781:10784   */\n  0x00\n    /* \"#utility.yul\":10736:10809   */\n  swap1\n  jump\t// out\n    /* \"#utility.yul\":10815:11004   */\ntag_90:\n    /* \"#utility.yul\":10892:10924   */\n  tag_216\n  tag_89\n  jump\t// in\ntag_216:\n    /* \"#utility.yul\":10933:10998   */\n  tag_217\n    /* \"#utility.yul\":10991:10997   */\n  dup2\n    /* \"#utility.yul\":10983:10989   */\n  dup5\n    /* \"#utility.yul\":10977:10981   */\n  dup5\n    /* \"#utility.yul\":10933:10998   */\n  tag_88\n  jump\t// in\ntag_217:\n    /* \"#utility.yul\":10868:11004   */\n  pop\n    /* \"#utility.yul\":10815:11004   */\n  pop\n  pop\n  jump\t// out\n    /* \"#utility.yul\":11010:11196   */\ntag_91:\n    /* \"#utility.yul\":11070:11190   */\ntag_219:\n    /* \"#utility.yul\":11087:11090   */\n  dup2\n    /* \"#utility.yul\":11080:11085   */\n  dup2\n    /* \"#utility.yul\":11077:11091   */\n  lt\n    /* \"#utility.yul\":11070:11190   */\n  iszero\n  tag_221\n  jumpi\n    /* \"#utility.yul\":11141:11180   */\n  tag_222\n    /* \"#utility.yul\":11178:11179   */\n  0x00\n    /* \"#utility.yul\":11171:11176   */\n  dup3\n    /* \"#utility.yul\":11141:11180   */\n  tag_90\n  jump\t// in\ntag_222:\n    /* \"#utility.yul\":11114:11115   */\n  0x01\n    /* \"#utility.yul\":11107:11112   */\n  dup2\n    /* \"#utility.yul\":11103:11116   */\n  add\n    /* \"#utility.yul\":11094:11116   */\n  swap1\n  pop\n    /* \"#utility.yul\":11070:11190   */\n  jump(tag_219)\ntag_221:\n    /* \"#utility.yul\":11010:11196   */\n  pop\n  pop\n  jump\t// out\n    /* \"#utility.yul\":11202:11745   */\ntag_92:\n    /* \"#utility.yul\":11303:11305   */\n  0x1f\n    /* \"#utility.yul\":11298:11301   */\n  dup3\n    /* \"#utility.yul\":11295:11306   */\n  gt\n    /* \"#utility.yul\":11292:11738   */\n  iszero\n  tag_224\n  jumpi\n    /* \"#utility.yul\":11337:11375   */\n  tag_225\n    /* \"#utility.yul\":11369:11374   */\n  dup2\n    /* \"#utility.yul\":11337:11375   */\n  tag_81\n  jump\t// in\ntag_225:\n    /* \"#utility.yul\":11421:11450   */\n  tag_226\n    /* \"#utility.yul\":11439:11449   */\n  dup5\n    /* \"#utility.yul\":11421:11450   */\n  tag_82\n  jump\t// in\ntag_226:\n    /* \"#utility.yul\":11411:11419   */\n  dup2\n    /* \"#utility.yul\":11407:11451   */\n  add\n    /* \"#utility.yul\":11604:11606   */\n  0x20\n    /* \"#utility.yul\":11592:11602   */\n  dup6\n    /* \"#utility.yul\":11589:11607   */\n  lt\n    /* \"#utility.yul\":11586:11635   */\n  iszero\n  tag_227\n  jumpi\n    /* \"#utility.yul\":11625:11633   */\n  dup2\n    /* \"#utility.yul\":11610:11633   */\n  swap1\n  pop\n    /* \"#utility.yul\":11586:11635   */\ntag_227:\n    /* \"#utility.yul\":11648:11728   */\n  tag_228\n    /* \"#utility.yul\":11704:11726   */\n  tag_229\n    /* \"#utility.yul\":11722:11725   */\n  dup6\n    /* \"#utility.yul\":11704:11726   */\n  tag_82\n  jump\t// in\ntag_229:\n    /* \"#utility.yul\":11694:11702   */\n  dup4\n    /* \"#utility.yul\":11690:11727   */\n  add\n    /* \"#utility.yul\":11677:11688   */\n  dup3\n    /* \"#utility.yul\":11648:11728   */\n  tag_91\n  jump\t// in\ntag_228:\n    /* \"#utility.yul\":11307:11738   */\n  pop\n  pop\n    /* \"#utility.yul\":11292:11738   */\ntag_224:\n    /* \"#utility.yul\":11202:11745   */\n  pop\n  pop\n  pop\n  jump\t// out\n    /* \"#utility.yul\":11751:11868   */\ntag_93:\n    /* \"#utility.yul\":11805:11813   */\n  0x00\n    /* \"#utility.yul\":11855:11860   */\n  dup3\n    /* \"#utility.yul\":11849:11853   */\n  dup3\n    /* \"#utility.yul\":11845:11861   */\n  shr\n    /* \"#utility.yul\":11824:11861   */\n  swap1\n  pop\n    /* \"#utility.yul\":11751:11868   */\n  swap3\n  swap2\n  pop\n  pop\n  jump\t// out\n    /* \"#utility.yul\":11874:12043   */\ntag_94:\n    /* \"#utility.yul\":11918:11924   */\n  0x00\n    /* \"#utility.yul\":11951:12002   */\n  tag_232\n    /* \"#utility.yul\":11999:12000   */\n  0x00\n    /* \"#utility.yul\":11995:12001   */\n  not\n    /* \"#utility.yul\":11987:11992   */\n  dup5\n    /* \"#utility.yul\":11984:11985   */\n  0x08\n    /* \"#utility.yul\":11980:11993   */\n  mul\n    /* \"#utility.yul\":11951:12002   */\n  tag_93\n  jump\t// in\ntag_232:\n    /* \"#utility.yul\":11947:12003   */\n  not\n    /* \"#utility.yul\":12032:12036   */\n  dup1\n    /* \"#utility.yul\":12026:12030   */\n  dup4\n    /* \"#utility.yul\":12022:12037   */\n  and\n    /* \"#utility.yul\":12012:12037   */\n  swap2\n  pop\n    /* \"#utility.yul\":11925:12043   */\n  pop\n    /* \"#utility.yul\":11874:12043   */\n  swap3\n  swap2\n  pop\n  pop\n  jump\t// out\n    /* \"#utility.yul\":12048:12343   */\ntag_95:\n    /* \"#utility.yul\":12124:12128   */\n  0x00\n    /* \"#utility.yul\":12270:12299   */\n  tag_234\n    /* \"#utility.yul\":12295:12298   */\n  dup4\n    /* \"#utility.yul\":12289:12293   */\n  dup4\n    /* \"#utility.yul\":12270:12299   */\n  tag_94\n  jump\t// in\ntag_234:\n    /* \"#utility.yul\":12262:12299   */\n  swap2\n  pop\n    /* \"#utility.yul\":12332:12335   */\n  dup3\n    /* \"#utility.yul\":12329:12330   */\n  0x02\n    /* \"#utility.yul\":12325:12336   */\n  mul\n    /* \"#utility.yul\":12319:12323   */\n  dup3\n    /* \"#utility.yul\":12316:12337   */\n  or\n    /* \"#utility.yul\":12308:12337   */\n  swap1\n  pop\n    /* \"#utility.yul\":12048:12343   */\n  swap3\n  swap2\n  pop\n  pop\n  jump\t// out\n    /* \"#utility.yul\":12348:13743   */\ntag_9:\n    /* \"#utility.yul\":12465:12502   */\n  tag_236\n    /* \"#utility.yul\":12498:12501   */\n  dup3\n    /* \"#utility.yul\":12465:12502   */\n  tag_78\n  jump\t// in\ntag_236:\n    /* \"#utility.yul\":12567:12585   */\n  0xffffffffffffffff\n    /* \"#utility.yul\":12559:12565   */\n  dup2\n    /* \"#utility.yul\":12556:12586   */\n  gt\n    /* \"#utility.yul\":12553:12609   */\n  iszero\n  tag_237\n  jumpi\n    /* \"#utility.yul\":12589:12607   */\n  tag_238\n  tag_55\n  jump\t// in\ntag_238:\n    /* \"#utility.yul\":12553:12609   */\ntag_237:\n    /* \"#utility.yul\":12633:12671   */\n  tag_239\n    /* \"#utility.yul\":12665:12669   */\n  dup3\n    /* \"#utility.yul\":12659:12670   */\n  sload\n    /* \"#utility.yul\":12633:12671   */\n  tag_80\n  jump\t// in\ntag_239:\n    /* \"#utility.yul\":12718:12785   */\n  tag_240\n    /* \"#utility.yul\":12778:12784   */\n  dup3\n    /* \"#utility.yul\":12770:12776   */\n  dup3\n    /* \"#utility.yul\":12764:12768   */\n  dup6\n    /* \"#utility.yul\":12718:12785   */\n  tag_92\n  jump\t// in\ntag_240:\n    /* \"#utility.yul\":12812:12813   */\n  0x00\n    /* \"#utility.yul\":12836:12840   */\n  0x20\n    /* \"#utility.yul\":12823:12840   */\n  swap1\n  pop\n    /* \"#utility.yul\":12868:12870   */\n  0x1f\n    /* \"#utility.yul\":12860:12866   */\n  dup4\n    /* \"#utility.yul\":12857:12871   */\n  gt\n    /* \"#utility.yul\":12885:12886   */\n  0x01\n    /* \"#utility.yul\":12880:13498   */\n  dup2\n  eq\n  tag_242\n  jumpi\n    /* \"#utility.yul\":13542:13543   */\n  0x00\n    /* \"#utility.yul\":13559:13565   */\n  dup5\n    /* \"#utility.yul\":13556:13633   */\n  iszero\n  tag_243\n  jumpi\n    /* \"#utility.yul\":13608:13617   */\n  dup3\n    /* \"#utility.yul\":13603:13606   */\n  dup8\n    /* \"#utility.yul\":13599:13618   */\n  add\n    /* \"#utility.yul\":13593:13619   */\n  mload\n    /* \"#utility.yul\":13584:13619   */\n  swap1\n  pop\n    /* \"#utility.yul\":13556:13633   */\ntag_243:\n    /* \"#utility.yul\":13659:13726   */\n  tag_244\n    /* \"#utility.yul\":13719:13725   */\n  dup6\n    /* \"#utility.yul\":13712:13717   */\n  dup3\n    /* \"#utility.yul\":13659:13726   */\n  tag_95\n  jump\t// in\ntag_244:\n    /* \"#utility.yul\":13653:13657   */\n  dup7\n    /* \"#utility.yul\":13646:13727   */\n  sstore\n    /* \"#utility.yul\":13515:13737   */\n  pop\n    /* \"#utility.yul\":12850:13737   */\n  jump(tag_241)\n    /* \"#utility.yul\":12880:13498   */\ntag_242:\n    /* \"#utility.yul\":12932:12936   */\n  0x1f\n    /* \"#utility.yul\":12928:12937   */\n  not\n    /* \"#utility.yul\":12920:12926   */\n  dup5\n    /* \"#utility.yul\":12916:12938   */\n  and\n    /* \"#utility.yul\":12966:13003   */\n  tag_245\n    /* \"#utility.yul\":12998:13002   */\n  dup7\n    /* \"#utility.yul\":12966:13003   */\n  tag_81\n  jump\t// in\ntag_245:\n    /* \"#utility.yul\":13025:13026   */\n  0x00\n    /* \"#utility.yul\":13039:13247   */\ntag_246:\n    /* \"#utility.yul\":13053:13060   */\n  dup3\n    /* \"#utility.yul\":13050:13051   */\n  dup2\n    /* \"#utility.yul\":13047:13061   */\n  lt\n    /* \"#utility.yul\":13039:13247   */\n  iszero\n  tag_248\n  jumpi\n    /* \"#utility.yul\":13132:13141   */\n  dup5\n    /* \"#utility.yul\":13127:13130   */\n  dup10\n    /* \"#utility.yul\":13123:13142   */\n  add\n    /* \"#utility.yul\":13117:13143   */\n  mload\n    /* \"#utility.yul\":13109:13115   */\n  dup3\n    /* \"#utility.yul\":13102:13144   */\n  sstore\n    /* \"#utility.yul\":13183:13184   */\n  0x01\n    /* \"#utility.yul\":13175:13181   */\n  dup3\n    /* \"#utility.yul\":13171:13185   */\n  add\n    /* \"#utility.yul\":13161:13185   */\n  swap2\n  pop\n    /* \"#utility.yul\":13230:13232   */\n  0x20\n    /* \"#utility.yul\":13219:13228   */\n  dup6\n    /* \"#utility.yul\":13215:13233   */\n  add\n    /* \"#utility.yul\":13202:13233   */\n  swap5\n  pop\n    /* \"#utility.yul\":13076:13080   */\n  0x20\n    /* \"#utility.yul\":13073:13074   */\n  dup2\n    /* \"#utility.yul\":13069:13081   */\n  add\n    /* \"#utility.yul\":13064:13081   */\n  swap1\n  pop\n    /* \"#utility.yul\":13039:13247   */\n  jump(tag_246)\ntag_248:\n    /* \"#utility.yul\":13275:13281   */\n  dup7\n    /* \"#utility.yul\":13266:13273   */\n  dup4\n    /* \"#utility.yul\":13263:13282   */\n  lt\n    /* \"#utility.yul\":13260:13439   */\n  iszero\n  tag_249\n  jumpi\n    /* \"#utility.yul\":13333:13342   */\n  dup5\n    /* \"#utility.yul\":13328:13331   */\n  dup10\n    /* \"#utility.yul\":13324:13343   */\n  add\n    /* \"#utility.yul\":13318:13344   */\n  mload\n    /* \"#utility.yul\":13376:13424   */\n  tag_250\n    /* \"#utility.yul\":13418:13422   */\n  0x1f\n    /* \"#utility.yul\":13410:13416   */\n  dup10\n    /* \"#utility.yul\":13406:13423   */\n  and\n    /* \"#utility.yul\":13395:13404   */\n  dup3\n    /* \"#utility.yul\":13376:13424   */\n  tag_94\n  jump\t// in\ntag_250:\n    /* \"#utility.yul\":13368:13374   */\n  dup4\n    /* \"#utility.yul\":13361:13425   */\n  sstore\n    /* \"#utility.yul\":13283:13439   */\n  pop\n    /* \"#utility.yul\":13260:13439   */\ntag_249:\n    /* \"#utility.yul\":13485:13486   */\n  0x01\n    /* \"#utility.yul\":13481:13482   */\n  0x02\n    /* \"#utility.yul\":13473:13479   */\n  dup9\n    /* \"#utility.yul\":13469:13483   */\n  mul\n    /* \"#utility.yul\":13465:13487   */\n  add\n    /* \"#utility.yul\":13459:13463   */\n  dup9\n    /* \"#utility.yul\":13452:13488   */\n  sstore\n    /* \"#utility.yul\":12887:13498   */\n  pop\n  pop\n  pop\n    /* \"#utility.yul\":12850:13737   */\ntag_241:\n  pop\n    /* \"#utility.yul\":12440:13743   */\n  pop\n  pop\n  pop\n    /* \"#utility.yul\":12348:13743   */\n  pop\n  pop\n  jump\t// out\n    /* \"#utility.yul\":13749:13867   */\ntag_96:\n    /* \"#utility.yul\":13836:13860   */\n  tag_252\n    /* \"#utility.yul\":13854:13859   */\n  dup2\n    /* \"#utility.yul\":13836:13860   */\n  tag_63\n  jump\t// in\ntag_252:\n    /* \"#utility.yul\":13831:13834   */\n  dup3\n    /* \"#utility.yul\":13824:13861   */\n  mstore\n    /* \"#utility.yul\":13749:13867   */\n  pop\n  pop\n  jump\t// out\n    /* \"#utility.yul\":13873:14095   */\ntag_14:\n    /* \"#utility.yul\":13966:13970   */\n  0x00\n    /* \"#utility.yul\":14004:14006   */\n  0x20\n    /* \"#utility.yul\":13993:14002   */\n  dup3\n    /* \"#utility.yul\":13989:14007   */\n  add\n    /* \"#utility.yul\":13981:14007   */\n  swap1\n  pop\n    /* \"#utility.yul\":14017:14088   */\n  tag_254\n    /* \"#utility.yul\":14085:14086   */\n  0x00\n    /* \"#utility.yul\":14074:14083   */\n  dup4\n    /* \"#utility.yul\":14070:14087   */\n  add\n    /* \"#utility.yul\":14061:14067   */\n  dup5\n    /* \"#utility.yul\":14017:14088   */\n  tag_96\n  jump\t// in\ntag_254:\n    /* \"#utility.yul\":13873:14095   */\n  swap3\n  swap2\n  pop\n  pop\n  jump\t// out\n    /* \"#utility.yul\":14101:14281   */\ntag_22:\n    /* \"#utility.yul\":14149:14226   */\n  0x4e487b7100000000000000000000000000000000000000000000000000000000\n    /* \"#utility.yul\":14146:14147   */\n  0x00\n    /* \"#utility.yul\":14139:14227   */\n  mstore\n    /* \"#utility.yul\":14246:14250   */\n  0x21\n    /* \"#utility.yul\":14243:14244   */\n  0x04\n    /* \"#utility.yul\":14236:14251   */\n  mstore\n    /* \"#utility.yul\":14270:14274   */\n  0x24\n    /* \"#utility.yul\":14267:14268   */\n  0x00\n    /* \"#utility.yul\":14260:14275   */\n  revert\n    /* \"#utility.yul\":14287:14467   */\ntag_28:\n    /* \"#utility.yul\":14335:14412   */\n  0x4e487b7100000000000000000000000000000000000000000000000000000000\n    /* \"#utility.yul\":14332:14333   */\n  0x00\n    /* \"#utility.yul\":14325:14413   */\n  mstore\n    /* \"#utility.yul\":14432:14436   */\n  0x32\n    /* \"#utility.yul\":14429:14430   */\n  0x04\n    /* \"#utility.yul\":14422:14437   */\n  mstore\n    /* \"#utility.yul\":14456:14460   */\n  0x24\n    /* \"#utility.yul\":14453:14454   */\n  0x00\n    /* \"#utility.yul\":14446:14461   */\n  revert\n    /* \"#utility.yul\":14473:14591   */\ntag_97:\n    /* \"#utility.yul\":14560:14584   */\n  tag_258\n    /* \"#utility.yul\":14578:14583   */\n  dup2\n    /* \"#utility.yul\":14560:14584   */\n  tag_70\n  jump\t// in\ntag_258:\n    /* \"#utility.yul\":14555:14558   */\n  dup3\n    /* \"#utility.yul\":14548:14585   */\n  mstore\n    /* \"#utility.yul\":14473:14591   */\n  pop\n  pop\n  jump\t// out\n    /* \"#utility.yul\":14597:14819   */\ntag_48:\n    /* \"#utility.yul\":14690:14694   */\n  0x00\n    /* \"#utility.yul\":14728:14730   */\n  0x20\n    /* \"#utility.yul\":14717:14726   */\n  dup3\n    /* \"#utility.yul\":14713:14731   */\n  add\n    /* \"#utility.yul\":14705:14731   */\n  swap1\n  pop\n    /* \"#utility.yul\":14741:14812   */\n  tag_260\n    /* \"#utility.yul\":14809:14810   */\n  0x00\n    /* \"#utility.yul\":14798:14807   */\n  dup4\n    /* \"#utility.yul\":14794:14811   */\n  add\n    /* \"#utility.yul\":14785:14791   */\n  dup5\n    /* \"#utility.yul\":14741:14812   */\n  tag_97\n  jump\t// in\ntag_260:\n    /* \"#utility.yul\":14597:14819   */\n  swap3\n  swap2\n  pop\n  pop\n  jump\t// out\n    /* \"recipe.sol\":233:2991  contract Recipe is ERC20, Ownable {... */\ntag_36:\n  dataSize(sub_0)\n  dup1\n  dataOffset(sub_0)\n  0x00\n  codecopy\n  0x00\n  return\nstop\n\nsub_0: assembly {\n        /* \"recipe.sol\":233:2991  contract Recipe is ERC20, Ownable {... */\n      mstore(0x40, 0x80)\n      callvalue\n      dup1\n      iszero\n      tag_1\n      jumpi\n      0x00\n      dup1\n      revert\n    tag_1:\n      pop\n      jumpi(tag_2, lt(calldatasize, 0x04))\n      shr(0xe0, calldataload(0x00))\n      dup1\n      0x6fd5ae15\n      gt\n      tag_25\n      jumpi\n      dup1\n      0x95d89b41\n      gt\n      tag_26\n      jumpi\n      dup1\n      0x95d89b41\n      eq\n      tag_19\n      jumpi\n      dup1\n      0xa9059cbb\n      eq\n      tag_20\n      jumpi\n      dup1\n      0xbd5546be\n      eq\n      tag_21\n      jumpi\n      dup1\n      0xdd62ed3e\n      eq\n      tag_22\n      jumpi\n      dup1\n      0xf2fde38b\n      eq\n      tag_23\n      jumpi\n      dup1\n      0xf9e05c6d\n      eq\n      tag_24\n      jumpi\n      jump(tag_2)\n    tag_26:\n      dup1\n      0x6fd5ae15\n      eq\n      tag_14\n      jumpi\n      dup1\n      0x70a08231\n      eq\n      tag_15\n      jumpi\n      dup1\n      0x715018a6\n      eq\n      tag_16\n      jumpi\n      dup1\n      0x737d6a6c\n      eq\n      tag_17\n      jumpi\n      dup1\n      0x8da5cb5b\n      eq\n      tag_18\n      jumpi\n      jump(tag_2)\n    tag_25:\n      dup1\n      0x313ce567\n      gt\n      tag_27\n      jumpi\n      dup1\n      0x313ce567\n      eq\n      tag_8\n      jumpi\n      dup1\n      0x40c10f19\n      eq\n      tag_9\n      jumpi\n      dup1\n      0x42966c68\n      eq\n      tag_10\n      jumpi\n      dup1\n      0x48361490\n      eq\n      tag_11\n      jumpi\n      dup1\n      0x635a4cc5\n      eq\n      tag_12\n      jumpi\n      dup1\n      0x63a2b02b\n      eq\n      tag_13\n      jumpi\n      jump(tag_2)\n    tag_27:\n      dup1\n      0x06fdde03\n      eq\n      tag_3\n      jumpi\n      dup1\n      0x095ea7b3\n      eq\n      tag_4\n      jumpi\n      dup1\n      0x0d9ce804\n      eq\n      tag_5\n      jumpi\n      dup1\n      0x18160ddd\n      eq\n      tag_6\n      jumpi\n      dup1\n      0x23b872dd\n      eq\n      tag_7\n      jumpi\n    tag_2:\n      0x00\n      dup1\n      revert\n        /* \"@openzeppelin/contracts/token/ERC20/ERC20.sol\":2074:2163  function name() public view virtual returns (string memory) {... */\n    tag_3:\n      tag_28\n      tag_29\n      jump\t// in\n    tag_28:\n      mload(0x40)\n      tag_30\n      swap2\n      swap1\n      tag_31\n      jump\t// in\n    tag_30:\n      mload(0x40)\n      dup1\n      swap2\n      sub\n      swap1\n      return\n        /* \"@openzeppelin/contracts/token/ERC20/ERC20.sol\":4293:4479  function approve(address spender, uint256 value) public virtual returns (bool) {... */\n    tag_4:\n      tag_32\n      0x04\n      dup1\n      calldatasize\n      sub\n      dup2\n      add\n      swap1\n      tag_33\n      swap2\n      swap1\n      tag_34\n      jump\t// in\n    tag_33:\n      tag_35\n      jump\t// in\n    tag_32:\n      mload(0x40)\n      tag_36\n      swap2\n      swap1\n      tag_37\n      jump\t// in\n    tag_36:\n      mload(0x40)\n      dup1\n      swap2\n      sub\n      swap1\n      return\n        /* \"recipe.sol\":596:634  ResourceAmount[] public inputResources */\n    tag_5:\n      tag_38\n      0x04\n      dup1\n      calldatasize\n      sub\n      dup2\n      add\n      swap1\n      tag_39\n      swap2\n      swap1\n      tag_40\n      jump\t// in\n    tag_39:\n      tag_41\n      jump\t// in\n    tag_38:\n      mload(0x40)\n      tag_42\n      swap3\n      swap2\n      swap1\n      tag_43\n      jump\t// in\n    tag_42:\n      mload(0x40)\n      dup1\n      swap2\n      sub\n      swap1\n      return\n        /* \"@openzeppelin/contracts/token/ERC20/ERC20.sol\":3144:3241  function totalSupply() public view virtual returns (uint256) {... */\n    tag_6:\n      tag_44\n      tag_45\n      jump\t// in\n    tag_44:\n      mload(0x40)\n      tag_46\n      swap2\n      swap1\n      tag_47\n      jump\t// in\n    tag_46:\n      mload(0x40)\n      dup1\n      swap2\n      sub\n      swap1\n      return\n        /* \"@openzeppelin/contracts/token/ERC20/ERC20.sol\":5039:5283  function transferFrom(address from, address to, uint256 value) public virtual returns (bool) {... */\n    tag_7:\n      tag_48\n      0x04\n      dup1\n      calldatasize\n      sub\n      dup2\n      add\n      swap1\n      tag_49\n      swap2\n      swap1\n      tag_50\n      jump\t// in\n    tag_49:\n      tag_51\n      jump\t// in\n    tag_48:\n      mload(0x40)\n      tag_52\n      swap2\n      swap1\n      tag_37\n      jump\t// in\n    tag_52:\n      mload(0x40)\n      dup1\n      swap2\n      sub\n      swap1\n      return\n        /* \"@openzeppelin/contracts/token/ERC20/ERC20.sol\":3002:3084  function decimals() public view virtual returns (uint8) {... */\n    tag_8:\n      tag_53\n      tag_54\n      jump\t// in\n    tag_53:\n      mload(0x40)\n      tag_55\n      swap2\n      swap1\n      tag_56\n      jump\t// in\n    tag_55:\n      mload(0x40)\n      dup1\n      swap2\n      sub\n      swap1\n      return\n        /* \"recipe.sol\":1886:2050  function mint(address to, uint256 amount) public {... */\n    tag_9:\n      tag_57\n      0x04\n      dup1\n      calldatasize\n      sub\n      dup2\n      add\n      swap1\n      tag_58\n      swap2\n      swap1\n      tag_34\n      jump\t// in\n    tag_58:\n      tag_59\n      jump\t// in\n    tag_57:\n      stop\n        /* \"recipe.sol\":2121:2281  function burn(uint256 amount) public {... */\n    tag_10:\n      tag_60\n      0x04\n      dup1\n      calldatasize\n      sub\n      dup2\n      add\n      swap1\n      tag_61\n      swap2\n      swap1\n      tag_40\n      jump\t// in\n    tag_61:\n      tag_62\n      jump\t// in\n    tag_60:\n      stop\n        /* \"recipe.sol\":2720:2833  function getInputResources() public view returns (ResourceAmount[] memory) {... */\n    tag_11:\n      tag_63\n      tag_64\n      jump\t// in\n    tag_63:\n      mload(0x40)\n      tag_65\n      swap2\n      swap1\n      tag_66\n      jump\t// in\n    tag_65:\n      mload(0x40)\n      dup1\n      swap2\n      sub\n      swap1\n      return\n        /* \"recipe.sol\":640:679  ResourceAmount[] public outputResources */\n    tag_12:\n      tag_67\n      0x04\n      dup1\n      calldatasize\n      sub\n      dup2\n      add\n      swap1\n      tag_68\n      swap2\n      swap1\n      tag_40\n      jump\t// in\n    tag_68:\n      tag_69\n      jump\t// in\n    tag_67:\n      mload(0x40)\n      tag_70\n      swap3\n      swap2\n      swap1\n      tag_43\n      jump\t// in\n    tag_70:\n      mload(0x40)\n      dup1\n      swap2\n      sub\n      swap1\n      return\n        /* \"recipe.sol\":1552:1649  function isFirstLevel() public view returns (bool){... */\n    tag_13:\n      tag_71\n      tag_72\n      jump\t// in\n    tag_71:\n      mload(0x40)\n      tag_73\n      swap2\n      swap1\n      tag_37\n      jump\t// in\n    tag_73:\n      mload(0x40)\n      dup1\n      swap2\n      sub\n      swap1\n      return\n        /* \"recipe.sol\":571:590  Levels public level */\n    tag_14:\n      tag_74\n      tag_75\n      jump\t// in\n    tag_74:\n      mload(0x40)\n      tag_76\n      swap2\n      swap1\n      tag_77\n      jump\t// in\n    tag_76:\n      mload(0x40)\n      dup1\n      swap2\n      sub\n      swap1\n      return\n        /* \"recipe.sol\":2557:2680  function balanceOf(address account) public view override returns (uint256) {... */\n    tag_15:\n      tag_78\n      0x04\n      dup1\n      calldatasize\n      sub\n      dup2\n      add\n      swap1\n      tag_79\n      swap2\n      swap1\n      tag_80\n      jump\t// in\n    tag_79:\n      tag_81\n      jump\t// in\n    tag_78:\n      mload(0x40)\n      tag_82\n      swap2\n      swap1\n      tag_47\n      jump\t// in\n    tag_82:\n      mload(0x40)\n      dup1\n      swap2\n      sub\n      swap1\n      return\n        /* \"@openzeppelin/contracts/access/Ownable.sol\":2293:2394  function renounceOwnership() public virtual onlyOwner {... */\n    tag_16:\n      tag_83\n      tag_84\n      jump\t// in\n    tag_83:\n      stop\n        /* \"recipe.sol\":2874:2989  function getOutputResources() public view returns (ResourceAmount[] memory) {... */\n    tag_17:\n      tag_85\n      tag_86\n      jump\t// in\n    tag_85:\n      mload(0x40)\n      tag_87\n      swap2\n      swap1\n      tag_66\n      jump\t// in\n    tag_87:\n      mload(0x40)\n      dup1\n      swap2\n      sub\n      swap1\n      return\n        /* \"@openzeppelin/contracts/access/Ownable.sol\":1638:1723  function owner() public view virtual returns (address) {... */\n    tag_18:\n      tag_88\n      tag_89\n      jump\t// in\n    tag_88:\n      mload(0x40)\n      tag_90\n      swap2\n      swap1\n      tag_91\n      jump\t// in\n    tag_90:\n      mload(0x40)\n      dup1\n      swap2\n      sub\n      swap1\n      return\n        /* \"@openzeppelin/contracts/token/ERC20/ERC20.sol\":2276:2369  function symbol() public view virtual returns (string memory) {... */\n    tag_19:\n      tag_92\n      tag_93\n      jump\t// in\n    tag_92:\n      mload(0x40)\n      tag_94\n      swap2\n      swap1\n      tag_31\n      jump\t// in\n    tag_94:\n      mload(0x40)\n      dup1\n      swap2\n      sub\n      swap1\n      return\n        /* \"recipe.sol\":2356:2483  function transfer(address to, uint256 amount) public override returns (bool) {... */\n    tag_20:\n      tag_95\n      0x04\n      dup1\n      calldatasize\n      sub\n      dup2\n      add\n      swap1\n      tag_96\n      swap2\n      swap1\n      tag_34\n      jump\t// in\n    tag_96:\n      tag_97\n      jump\t// in\n    tag_95:\n      mload(0x40)\n      tag_98\n      swap2\n      swap1\n      tag_37\n      jump\t// in\n    tag_98:\n      mload(0x40)\n      dup1\n      swap2\n      sub\n      swap1\n      return\n        /* \"recipe.sol\":1655:1811  function setLevel(Levels level_)public {... */\n    tag_21:\n      tag_99\n      0x04\n      dup1\n      calldatasize\n      sub\n      dup2\n      add\n      swap1\n      tag_100\n      swap2\n      swap1\n      tag_101\n      jump\t// in\n    tag_100:\n      tag_102\n      jump\t// in\n    tag_99:\n      stop\n        /* \"@openzeppelin/contracts/token/ERC20/ERC20.sol\":3846:3986  function allowance(address owner, address spender) public view virtual returns (uint256) {... */\n    tag_22:\n      tag_103\n      0x04\n      dup1\n      calldatasize\n      sub\n      dup2\n      add\n      swap1\n      tag_104\n      swap2\n      swap1\n      tag_105\n      jump\t// in\n    tag_104:\n      tag_106\n      jump\t// in\n    tag_103:\n      mload(0x40)\n      tag_107\n      swap2\n      swap1\n      tag_47\n      jump\t// in\n    tag_107:\n      mload(0x40)\n      dup1\n      swap2\n      sub\n      swap1\n      return\n        /* \"@openzeppelin/contracts/access/Ownable.sol\":2543:2758  function transferOwnership(address newOwner) public virtual onlyOwner {... */\n    tag_23:\n      tag_108\n      0x04\n      dup1\n      calldatasize\n      sub\n      dup2\n      add\n      swap1\n      tag_109\n      swap2\n      swap1\n      tag_80\n      jump\t// in\n    tag_109:\n      tag_110\n      jump\t// in\n    tag_108:\n      stop\n        /* \"recipe.sol\":525:565  address public unlimitedAllowanceAddress */\n    tag_24:\n      tag_111\n      tag_112\n      jump\t// in\n    tag_111:\n      mload(0x40)\n      tag_113\n      swap2\n      swap1\n      tag_91\n      jump\t// in\n    tag_113:\n      mload(0x40)\n      dup1\n      swap2\n      sub\n      swap1\n      return\n        /* \"@openzeppelin/contracts/token/ERC20/ERC20.sol\":2074:2163  function name() public view virtual returns (string memory) {... */\n    tag_29:\n        /* \"@openzeppelin/contracts/token/ERC20/ERC20.sol\":2119:2132  string memory */\n      0x60\n        /* \"@openzeppelin/contracts/token/ERC20/ERC20.sol\":2151:2156  _name */\n      0x03\n        /* \"@openzeppelin/contracts/token/ERC20/ERC20.sol\":2144:2156  return _name */\n      dup1\n      sload\n      tag_115\n      swap1\n      tag_116\n      jump\t// in\n    tag_115:\n      dup1\n      0x1f\n      add\n      0x20\n      dup1\n      swap2\n      div\n      mul\n      0x20\n      add\n      mload(0x40)\n      swap1\n      dup2\n      add\n      0x40\n      mstore\n      dup1\n      swap3\n      swap2\n      swap1\n      dup2\n      dup2\n      mstore\n      0x20\n      add\n      dup3\n      dup1\n      sload\n      tag_117\n      swap1\n      tag_116\n      jump\t// in\n    tag_117:\n      dup1\n      iszero\n      tag_118\n      jumpi\n      dup1\n      0x1f\n      lt\n      tag_119\n      jumpi\n      0x0100\n      dup1\n      dup4\n      sload\n      div\n      mul\n      dup4\n      mstore\n      swap2\n      0x20\n      add\n      swap2\n      jump(tag_118)\n    tag_119:\n      dup3\n      add\n      swap2\n      swap1\n      0x00\n      mstore\n      keccak256(0x00, 0x20)\n      swap1\n    tag_120:\n      dup2\n      sload\n      dup2\n      mstore\n      swap1\n      0x01\n      add\n      swap1\n      0x20\n      add\n      dup1\n      dup4\n      gt\n      tag_120\n      jumpi\n      dup3\n      swap1\n      sub\n      0x1f\n      and\n      dup3\n      add\n      swap2\n    tag_118:\n      pop\n      pop\n      pop\n      pop\n      pop\n      swap1\n      pop\n        /* \"@openzeppelin/contracts/token/ERC20/ERC20.sol\":2074:2163  function name() public view virtual returns (string memory) {... */\n      swap1\n      jump\t// out\n        /* \"@openzeppelin/contracts/token/ERC20/ERC20.sol\":4293:4479  function approve(address spender, uint256 value) public virtual returns (bool) {... */\n    tag_35:\n        /* \"@openzeppelin/contracts/token/ERC20/ERC20.sol\":4366:4370  bool */\n      0x00\n        /* \"@openzeppelin/contracts/token/ERC20/ERC20.sol\":4382:4395  address owner */\n      dup1\n        /* \"@openzeppelin/contracts/token/ERC20/ERC20.sol\":4398:4410  _msgSender() */\n      tag_122\n        /* \"@openzeppelin/contracts/token/ERC20/ERC20.sol\":4398:4408  _msgSender */\n      tag_123\n        /* \"@openzeppelin/contracts/token/ERC20/ERC20.sol\":4398:4410  _msgSender() */\n      jump\t// in\n    tag_122:\n        /* \"@openzeppelin/contracts/token/ERC20/ERC20.sol\":4382:4410  address owner = _msgSender() */\n      swap1\n      pop\n        /* \"@openzeppelin/contracts/token/ERC20/ERC20.sol\":4420:4451  _approve(owner, spender, value) */\n      tag_124\n        /* \"@openzeppelin/contracts/token/ERC20/ERC20.sol\":4429:4434  owner */\n      dup2\n        /* \"@openzeppelin/contracts/token/ERC20/ERC20.sol\":4436:4443  spender */\n      dup6\n        /* \"@openzeppelin/contracts/token/ERC20/ERC20.sol\":4445:4450  value */\n      dup6\n        /* \"@openzeppelin/contracts/token/ERC20/ERC20.sol\":4420:4428  _approve */\n      tag_125\n        /* \"@openzeppelin/contracts/token/ERC20/ERC20.sol\":4420:4451  _approve(owner, spender, value) */\n      jump\t// in\n    tag_124:\n        /* \"@openzeppelin/contracts/token/ERC20/ERC20.sol\":4468:4472  true */\n      0x01\n        /* \"@openzeppelin/contracts/token/ERC20/ERC20.sol\":4461:4472  return true */\n      swap2\n      pop\n      pop\n        /* \"@openzeppelin/contracts/token/ERC20/ERC20.sol\":4293:4479  function approve(address spender, uint256 value) public virtual returns (bool) {... */\n      swap3\n      swap2\n      pop\n      pop\n      jump\t// out\n        /* \"recipe.sol\":596:634  ResourceAmount[] public inputResources */\n    tag_41:\n      0x07\n      dup2\n      dup2\n      sload\n      dup2\n      lt\n      tag_126\n      jumpi\n      0x00\n      dup1\n      revert\n    tag_126:\n      swap1\n      0x00\n      mstore\n      keccak256(0x00, 0x20)\n      swap1\n      0x02\n      mul\n      add\n      0x00\n      swap2\n      pop\n      swap1\n      pop\n      dup1\n      0x00\n      add\n      0x00\n      swap1\n      sload\n      swap1\n      0x0100\n      exp\n      swap1\n      div\n      0xffffffffffffffffffffffffffffffffffffffff\n      and\n      swap1\n      dup1\n      0x01\n      add\n      sload\n      swap1\n      pop\n      dup3\n      jump\t// out\n        /* \"@openzeppelin/contracts/token/ERC20/ERC20.sol\":3144:3241  function totalSupply() public view virtual returns (uint256) {... */\n    tag_45:\n        /* \"@openzeppelin/contracts/token/ERC20/ERC20.sol\":3196:3203  uint256 */\n      0x00\n        /* \"@openzeppelin/contracts/token/ERC20/ERC20.sol\":3222:3234  _totalSupply */\n      sload(0x02)\n        /* \"@openzeppelin/contracts/token/ERC20/ERC20.sol\":3215:3234  return _totalSupply */\n      swap1\n      pop\n        /* \"@openzeppelin/contracts/token/ERC20/ERC20.sol\":3144:3241  function totalSupply() public view virtual returns (uint256) {... */\n      swap1\n      jump\t// out\n        /* \"@openzeppelin/contracts/token/ERC20/ERC20.sol\":5039:5283  function transferFrom(address from, address to, uint256 value) public virtual returns (bool) {... */\n    tag_51:\n        /* \"@openzeppelin/contracts/token/ERC20/ERC20.sol\":5126:5130  bool */\n      0x00\n        /* \"@openzeppelin/contracts/token/ERC20/ERC20.sol\":5142:5157  address spender */\n      dup1\n        /* \"@openzeppelin/contracts/token/ERC20/ERC20.sol\":5160:5172  _msgSender() */\n      tag_130\n        /* \"@openzeppelin/contracts/token/ERC20/ERC20.sol\":5160:5170  _msgSender */\n      tag_123\n        /* \"@openzeppelin/contracts/token/ERC20/ERC20.sol\":5160:5172  _msgSender() */\n      jump\t// in\n    tag_130:\n        /* \"@openzeppelin/contracts/token/ERC20/ERC20.sol\":5142:5172  address spender = _msgSender() */\n      swap1\n      pop\n        /* \"@openzeppelin/contracts/token/ERC20/ERC20.sol\":5182:5219  _spendAllowance(from, spender, value) */\n      tag_131\n        /* \"@openzeppelin/contracts/token/ERC20/ERC20.sol\":5198:5202  from */\n      dup6\n        /* \"@openzeppelin/contracts/token/ERC20/ERC20.sol\":5204:5211  spender */\n      dup3\n        /* \"@openzeppelin/contracts/token/ERC20/ERC20.sol\":5213:5218  value */\n      dup6\n        /* \"@openzeppelin/contracts/token/ERC20/ERC20.sol\":5182:5197  _spendAllowance */\n      tag_132\n        /* \"@openzeppelin/contracts/token/ERC20/ERC20.sol\":5182:5219  _spendAllowance(from, spender, value) */\n      jump\t// in\n    tag_131:\n        /* \"@openzeppelin/contracts/token/ERC20/ERC20.sol\":5229:5255  _transfer(from, to, value) */\n      tag_133\n        /* \"@openzeppelin/contracts/token/ERC20/ERC20.sol\":5239:5243  from */\n      dup6\n        /* \"@openzeppelin/contracts/token/ERC20/ERC20.sol\":5245:5247  to */\n      dup6\n        /* \"@openzeppelin/contracts/token/ERC20/ERC20.sol\":5249:5254  value */\n      dup6\n        /* \"@openzeppelin/contracts/token/ERC20/ERC20.sol\":5229:5238  _transfer */\n      tag_134\n        /* \"@openzeppelin/contracts/token/ERC20/ERC20.sol\":5229:5255  _transfer(from, to, value) */\n      jump\t// in\n    tag_133:\n        /* \"@openzeppelin/contracts/token/ERC20/ERC20.sol\":5272:5276  true */\n      0x01\n        /* \"@openzeppelin/contracts/token/ERC20/ERC20.sol\":5265:5276  return true */\n      swap2\n      pop\n      pop\n        /* \"@openzeppelin/contracts/token/ERC20/ERC20.sol\":5039:5283  function transferFrom(address from, address to, uint256 value) public virtual returns (bool) {... */\n      swap4\n      swap3\n      pop\n      pop\n      pop\n      jump\t// out\n        /* \"@openzeppelin/contracts/token/ERC20/ERC20.sol\":3002:3084  function decimals() public view virtual returns (uint8) {... */\n    tag_54:\n        /* \"@openzeppelin/contracts/token/ERC20/ERC20.sol\":3051:3056  uint8 */\n      0x00\n        /* \"@openzeppelin/contracts/token/ERC20/ERC20.sol\":3075:3077  18 */\n      0x12\n        /* \"@openzeppelin/contracts/token/ERC20/ERC20.sol\":3068:3077  return 18 */\n      swap1\n      pop\n        /* \"@openzeppelin/contracts/token/ERC20/ERC20.sol\":3002:3084  function decimals() public view virtual returns (uint8) {... */\n      swap1\n      jump\t// out\n        /* \"recipe.sol\":1886:2050  function mint(address to, uint256 amount) public {... */\n    tag_59:\n        /* \"recipe.sol\":1967:1992  unlimitedAllowanceAddress */\n      0x06\n      0x00\n      swap1\n      sload\n      swap1\n      0x0100\n      exp\n      swap1\n      div\n      0xffffffffffffffffffffffffffffffffffffffff\n      and\n        /* \"recipe.sol\":1953:1992  msg.sender == unlimitedAllowanceAddress */\n      0xffffffffffffffffffffffffffffffffffffffff\n      and\n        /* \"recipe.sol\":1953:1963  msg.sender */\n      caller\n        /* \"recipe.sol\":1953:1992  msg.sender == unlimitedAllowanceAddress */\n      0xffffffffffffffffffffffffffffffffffffffff\n      and\n      eq\n        /* \"recipe.sol\":1945:2016  require(msg.sender == unlimitedAllowanceAddress, \"Not allowed to mint\") */\n      tag_137\n      jumpi\n      mload(0x40)\n      0x08c379a000000000000000000000000000000000000000000000000000000000\n      dup2\n      mstore\n      0x04\n      add\n      tag_138\n      swap1\n      tag_139\n      jump\t// in\n    tag_138:\n      mload(0x40)\n      dup1\n      swap2\n      sub\n      swap1\n      revert\n    tag_137:\n        /* \"recipe.sol\":2026:2043  _mint(to, amount) */\n      tag_140\n        /* \"recipe.sol\":2032:2034  to */\n      dup3\n        /* \"recipe.sol\":2036:2042  amount */\n      dup3\n        /* \"recipe.sol\":2026:2031  _mint */\n      tag_141\n        /* \"recipe.sol\":2026:2043  _mint(to, amount) */\n      jump\t// in\n    tag_140:\n        /* \"recipe.sol\":1886:2050  function mint(address to, uint256 amount) public {... */\n      pop\n      pop\n      jump\t// out\n        /* \"recipe.sol\":2121:2281  function burn(uint256 amount) public {... */\n    tag_62:\n        /* \"recipe.sol\":2190:2215  unlimitedAllowanceAddress */\n      0x06\n      0x00\n      swap1\n      sload\n      swap1\n      0x0100\n      exp\n      swap1\n      div\n      0xffffffffffffffffffffffffffffffffffffffff\n      and\n        /* \"recipe.sol\":2176:2215  msg.sender == unlimitedAllowanceAddress */\n      0xffffffffffffffffffffffffffffffffffffffff\n      and\n        /* \"recipe.sol\":2176:2186  msg.sender */\n      caller\n        /* \"recipe.sol\":2176:2215  msg.sender == unlimitedAllowanceAddress */\n      0xffffffffffffffffffffffffffffffffffffffff\n      and\n      eq\n        /* \"recipe.sol\":2168:2239  require(msg.sender == unlimitedAllowanceAddress, \"Not allowed to burn\") */\n      tag_143\n      jumpi\n      mload(0x40)\n      0x08c379a000000000000000000000000000000000000000000000000000000000\n      dup2\n      mstore\n      0x04\n      add\n      tag_144\n      swap1\n      tag_145\n      jump\t// in\n    tag_144:\n      mload(0x40)\n      dup1\n      swap2\n      sub\n      swap1\n      revert\n    tag_143:\n        /* \"recipe.sol\":2249:2274  _burn(msg.sender, amount) */\n      tag_146\n        /* \"recipe.sol\":2255:2265  msg.sender */\n      caller\n        /* \"recipe.sol\":2267:2273  amount */\n      dup3\n        /* \"recipe.sol\":2249:2254  _burn */\n      tag_147\n        /* \"recipe.sol\":2249:2274  _burn(msg.sender, amount) */\n      jump\t// in\n    tag_146:\n        /* \"recipe.sol\":2121:2281  function burn(uint256 amount) public {... */\n      pop\n      jump\t// out\n        /* \"recipe.sol\":2720:2833  function getInputResources() public view returns (ResourceAmount[] memory) {... */\n    tag_64:\n        /* \"recipe.sol\":2770:2793  ResourceAmount[] memory */\n      0x60\n        /* \"recipe.sol\":2812:2826  inputResources */\n      0x07\n        /* \"recipe.sol\":2805:2826  return inputResources */\n      dup1\n      sload\n      dup1\n      0x20\n      mul\n      0x20\n      add\n      mload(0x40)\n      swap1\n      dup2\n      add\n      0x40\n      mstore\n      dup1\n      swap3\n      swap2\n      swap1\n      dup2\n      dup2\n      mstore\n      0x20\n      add\n      0x00\n      swap1\n    tag_149:\n      dup3\n      dup3\n      lt\n      iszero\n      tag_150\n      jumpi\n      dup4\n      dup3\n      swap1\n      0x00\n      mstore\n      keccak256(0x00, 0x20)\n      swap1\n      0x02\n      mul\n      add\n      mload(0x40)\n      dup1\n      0x40\n      add\n      0x40\n      mstore\n      swap1\n      dup2\n      0x00\n      dup3\n      add\n      0x00\n      swap1\n      sload\n      swap1\n      0x0100\n      exp\n      swap1\n      div\n      0xffffffffffffffffffffffffffffffffffffffff\n      and\n      0xffffffffffffffffffffffffffffffffffffffff\n      and\n      0xffffffffffffffffffffffffffffffffffffffff\n      and\n      dup2\n      mstore\n      0x20\n      add\n      0x01\n      dup3\n      add\n      sload\n      dup2\n      mstore\n      pop\n      pop\n      dup2\n      mstore\n      0x20\n      add\n      swap1\n      0x01\n      add\n      swap1\n      jump(tag_149)\n    tag_150:\n      pop\n      pop\n      pop\n      pop\n      swap1\n      pop\n        /* \"recipe.sol\":2720:2833  function getInputResources() public view returns (ResourceAmount[] memory) {... */\n      swap1\n      jump\t// out\n        /* \"recipe.sol\":640:679  ResourceAmount[] public outputResources */\n    tag_69:\n      0x08\n      dup2\n      dup2\n      sload\n      dup2\n      lt\n      tag_152\n      jumpi\n      0x00\n      dup1\n      revert\n    tag_152:\n      swap1\n      0x00\n      mstore\n      keccak256(0x00, 0x20)\n      swap1\n      0x02\n      mul\n      add\n      0x00\n      swap2\n      pop\n      swap1\n      pop\n      dup1\n      0x00\n      add\n      0x00\n      swap1\n      sload\n      swap1\n      0x0100\n      exp\n      swap1\n      div\n      0xffffffffffffffffffffffffffffffffffffffff\n      and\n      swap1\n      dup1\n      0x01\n      add\n      sload\n      swap1\n      pop\n      dup3\n      jump\t// out\n        /* \"recipe.sol\":1552:1649  function isFirstLevel() public view returns (bool){... */\n    tag_72:\n        /* \"recipe.sol\":1597:1601  bool */\n      0x00\n        /* \"recipe.sol\":1629:1642  Levels.Level1 */\n      dup1\n        /* \"recipe.sol\":1620:1642  level == Levels.Level1 */\n      0x04\n      dup2\n      gt\n      iszero\n      tag_155\n      jumpi\n      tag_156\n      tag_157\n      jump\t// in\n    tag_156:\n    tag_155:\n        /* \"recipe.sol\":1620:1625  level */\n      0x06\n      0x14\n      swap1\n      sload\n      swap1\n      0x0100\n      exp\n      swap1\n      div\n      0xff\n      and\n        /* \"recipe.sol\":1620:1642  level == Levels.Level1 */\n      0x04\n      dup2\n      gt\n      iszero\n      tag_158\n      jumpi\n      tag_159\n      tag_157\n      jump\t// in\n    tag_159:\n    tag_158:\n      eq\n        /* \"recipe.sol\":1612:1642  return  level == Levels.Level1 */\n      swap1\n      pop\n        /* \"recipe.sol\":1552:1649  function isFirstLevel() public view returns (bool){... */\n      swap1\n      jump\t// out\n        /* \"recipe.sol\":571:590  Levels public level */\n    tag_75:\n      0x06\n      0x14\n      swap1\n      sload\n      swap1\n      0x0100\n      exp\n      swap1\n      div\n      0xff\n      and\n      dup2\n      jump\t// out\n        /* \"recipe.sol\":2557:2680  function balanceOf(address account) public view override returns (uint256) {... */\n    tag_81:\n        /* \"recipe.sol\":2623:2630  uint256 */\n      0x00\n        /* \"recipe.sol\":2649:2673  super.balanceOf(account) */\n      tag_161\n        /* \"recipe.sol\":2665:2672  account */\n      dup3\n        /* \"recipe.sol\":2649:2664  super.balanceOf */\n      tag_162\n        /* \"recipe.sol\":2649:2673  super.balanceOf(account) */\n      jump\t// in\n    tag_161:\n        /* \"recipe.sol\":2642:2673  return super.balanceOf(account) */\n      swap1\n      pop\n        /* \"recipe.sol\":2557:2680  function balanceOf(address account) public view override returns (uint256) {... */\n      swap2\n      swap1\n      pop\n      jump\t// out\n        /* \"@openzeppelin/contracts/access/Ownable.sol\":2293:2394  function renounceOwnership() public virtual onlyOwner {... */\n    tag_84:\n        /* \"@openzeppelin/contracts/access/Ownable.sol\":1531:1544  _checkOwner() */\n      tag_164\n        /* \"@openzeppelin/contracts/access/Ownable.sol\":1531:1542  _checkOwner */\n      tag_165\n        /* \"@openzeppelin/contracts/access/Ownable.sol\":1531:1544  _checkOwner() */\n      jump\t// in\n    tag_164:\n        /* \"@openzeppelin/contracts/access/Ownable.sol\":2357:2387  _transferOwnership(address(0)) */\n      tag_167\n        /* \"@openzeppelin/contracts/access/Ownable.sol\":2384:2385  0 */\n      0x00\n        /* \"@openzeppelin/contracts/access/Ownable.sol\":2357:2375  _transferOwnership */\n      tag_168\n        /* \"@openzeppelin/contracts/access/Ownable.sol\":2357:2387  _transferOwnership(address(0)) */\n      jump\t// in\n    tag_167:\n        /* \"@openzeppelin/contracts/access/Ownable.sol\":2293:2394  function renounceOwnership() public virtual onlyOwner {... */\n      jump\t// out\n        /* \"recipe.sol\":2874:2989  function getOutputResources() public view returns (ResourceAmount[] memory) {... */\n    tag_86:\n        /* \"recipe.sol\":2925:2948  ResourceAmount[] memory */\n      0x60\n        /* \"recipe.sol\":2967:2982  outputResources */\n      0x08\n        /* \"recipe.sol\":2960:2982  return outputResources */\n      dup1\n      sload\n      dup1\n      0x20\n      mul\n      0x20\n      add\n      mload(0x40)\n      swap1\n      dup2\n      add\n      0x40\n      mstore\n      dup1\n      swap3\n      swap2\n      swap1\n      dup2\n      dup2\n      mstore\n      0x20\n      add\n      0x00\n      swap1\n    tag_170:\n      dup3\n      dup3\n      lt\n      iszero\n      tag_171\n      jumpi\n      dup4\n      dup3\n      swap1\n      0x00\n      mstore\n      keccak256(0x00, 0x20)\n      swap1\n      0x02\n      mul\n      add\n      mload(0x40)\n      dup1\n      0x40\n      add\n      0x40\n      mstore\n      swap1\n      dup2\n      0x00\n      dup3\n      add\n      0x00\n      swap1\n      sload\n      swap1\n      0x0100\n      exp\n      swap1\n      div\n      0xffffffffffffffffffffffffffffffffffffffff\n      and\n      0xffffffffffffffffffffffffffffffffffffffff\n      and\n      0xffffffffffffffffffffffffffffffffffffffff\n      and\n      dup2\n      mstore\n      0x20\n      add\n      0x01\n      dup3\n      add\n      sload\n      dup2\n      mstore\n      pop\n      pop\n      dup2\n      mstore\n      0x20\n      add\n      swap1\n      0x01\n      add\n      swap1\n      jump(tag_170)\n    tag_171:\n      pop\n      pop\n      pop\n      pop\n      swap1\n      pop\n        /* \"recipe.sol\":2874:2989  function getOutputResources() public view returns (ResourceAmount[] memory) {... */\n      swap1\n      jump\t// out\n        /* \"@openzeppelin/contracts/access/Ownable.sol\":1638:1723  function owner() public view virtual returns (address) {... */\n    tag_89:\n        /* \"@openzeppelin/contracts/access/Ownable.sol\":1684:1691  address */\n      0x00\n        /* \"@openzeppelin/contracts/access/Ownable.sol\":1710:1716  _owner */\n      0x05\n      0x00\n      swap1\n      sload\n      swap1\n      0x0100\n      exp\n      swap1\n      div\n      0xffffffffffffffffffffffffffffffffffffffff\n      and\n        /* \"@openzeppelin/contracts/access/Ownable.sol\":1703:1716  return _owner */\n      swap1\n      pop\n        /* \"@openzeppelin/contracts/access/Ownable.sol\":1638:1723  function owner() public view virtual returns (address) {... */\n      swap1\n      jump\t// out\n        /* \"@openzeppelin/contracts/token/ERC20/ERC20.sol\":2276:2369  function symbol() public view virtual returns (string memory) {... */\n    tag_93:\n        /* \"@openzeppelin/contracts/token/ERC20/ERC20.sol\":2323:2336  string memory */\n      0x60\n        /* \"@openzeppelin/contracts/token/ERC20/ERC20.sol\":2355:2362  _symbol */\n      0x04\n        /* \"@openzeppelin/contracts/token/ERC20/ERC20.sol\":2348:2362  return _symbol */\n      dup1\n      sload\n      tag_175\n      swap1\n      tag_116\n      jump\t// in\n    tag_175:\n      dup1\n      0x1f\n      add\n      0x20\n      dup1\n      swap2\n      div\n      mul\n      0x20\n      add\n      mload(0x40)\n      swap1\n      dup2\n      add\n      0x40\n      mstore\n      dup1\n      swap3\n      swap2\n      swap1\n      dup2\n      dup2\n      mstore\n      0x20\n      add\n      dup3\n      dup1\n      sload\n      tag_176\n      swap1\n      tag_116\n      jump\t// in\n    tag_176:\n      dup1\n      iszero\n      tag_177\n      jumpi\n      dup1\n      0x1f\n      lt\n      tag_178\n      jumpi\n      0x0100\n      dup1\n      dup4\n      sload\n      div\n      mul\n      dup4\n      mstore\n      swap2\n      0x20\n      add\n      swap2\n      jump(tag_177)\n    tag_178:\n      dup3\n      add\n      swap2\n      swap1\n      0x00\n      mstore\n      keccak256(0x00, 0x20)\n      swap1\n    tag_179:\n      dup2\n      sload\n      dup2\n      mstore\n      swap1\n      0x01\n      add\n      swap1\n      0x20\n      add\n      dup1\n      dup4\n      gt\n      tag_179\n      jumpi\n      dup3\n      swap1\n      sub\n      0x1f\n      and\n      dup3\n      add\n      swap2\n    tag_177:\n      pop\n      pop\n      pop\n      pop\n      pop\n      swap1\n      pop\n        /* \"@openzeppelin/contracts/token/ERC20/ERC20.sol\":2276:2369  function symbol() public view virtual returns (string memory) {... */\n      swap1\n      jump\t// out\n        /* \"recipe.sol\":2356:2483  function transfer(address to, uint256 amount) public override returns (bool) {... */\n    tag_97:\n        /* \"recipe.sol\":2427:2431  bool */\n      0x00\n        /* \"recipe.sol\":2450:2476  super.transfer(to, amount) */\n      tag_181\n        /* \"recipe.sol\":2465:2467  to */\n      dup4\n        /* \"recipe.sol\":2469:2475  amount */\n      dup4\n        /* \"recipe.sol\":2450:2464  super.transfer */\n      tag_182\n        /* \"recipe.sol\":2450:2476  super.transfer(to, amount) */\n      jump\t// in\n    tag_181:\n        /* \"recipe.sol\":2443:2476  return super.transfer(to, amount) */\n      swap1\n      pop\n        /* \"recipe.sol\":2356:2483  function transfer(address to, uint256 amount) public override returns (bool) {... */\n      swap3\n      swap2\n      pop\n      pop\n      jump\t// out\n        /* \"recipe.sol\":1655:1811  function setLevel(Levels level_)public {... */\n    tag_102:\n        /* \"recipe.sol\":1726:1751  unlimitedAllowanceAddress */\n      0x06\n      0x00\n      swap1\n      sload\n      swap1\n      0x0100\n      exp\n      swap1\n      div\n      0xffffffffffffffffffffffffffffffffffffffff\n      and\n        /* \"recipe.sol\":1712:1751  msg.sender == unlimitedAllowanceAddress */\n      0xffffffffffffffffffffffffffffffffffffffff\n      and\n        /* \"recipe.sol\":1712:1722  msg.sender */\n      caller\n        /* \"recipe.sol\":1712:1751  msg.sender == unlimitedAllowanceAddress */\n      0xffffffffffffffffffffffffffffffffffffffff\n      and\n      eq\n        /* \"recipe.sol\":1704:1780  require(msg.sender == unlimitedAllowanceAddress, \"Not allowed to set level\") */\n      tag_184\n      jumpi\n      mload(0x40)\n      0x08c379a000000000000000000000000000000000000000000000000000000000\n      dup2\n      mstore\n      0x04\n      add\n      tag_185\n      swap1\n      tag_186\n      jump\t// in\n    tag_185:\n      mload(0x40)\n      dup1\n      swap2\n      sub\n      swap1\n      revert\n    tag_184:\n        /* \"recipe.sol\":1798:1804  level_ */\n      dup1\n        /* \"recipe.sol\":1790:1795  level */\n      0x06\n      0x14\n        /* \"recipe.sol\":1790:1804  level = level_ */\n      0x0100\n      exp\n      dup2\n      sload\n      dup2\n      0xff\n      mul\n      not\n      and\n      swap1\n      dup4\n      0x04\n      dup2\n      gt\n      iszero\n      tag_187\n      jumpi\n      tag_188\n      tag_157\n      jump\t// in\n    tag_188:\n    tag_187:\n      mul\n      or\n      swap1\n      sstore\n      pop\n        /* \"recipe.sol\":1655:1811  function setLevel(Levels level_)public {... */\n      pop\n      jump\t// out\n        /* \"@openzeppelin/contracts/token/ERC20/ERC20.sol\":3846:3986  function allowance(address owner, address spender) public view virtual returns (uint256) {... */\n    tag_106:\n        /* \"@openzeppelin/contracts/token/ERC20/ERC20.sol\":3926:3933  uint256 */\n      0x00\n        /* \"@openzeppelin/contracts/token/ERC20/ERC20.sol\":3952:3963  _allowances */\n      0x01\n        /* \"@openzeppelin/contracts/token/ERC20/ERC20.sol\":3952:3970  _allowances[owner] */\n      0x00\n        /* \"@openzeppelin/contracts/token/ERC20/ERC20.sol\":3964:3969  owner */\n      dup5\n        /* \"@openzeppelin/contracts/token/ERC20/ERC20.sol\":3952:3970  _allowances[owner] */\n      0xffffffffffffffffffffffffffffffffffffffff\n      and\n      0xffffffffffffffffffffffffffffffffffffffff\n      and\n      dup2\n      mstore\n      0x20\n      add\n      swap1\n      dup2\n      mstore\n      0x20\n      add\n      0x00\n      keccak256\n        /* \"@openzeppelin/contracts/token/ERC20/ERC20.sol\":3952:3979  _allowances[owner][spender] */\n      0x00\n        /* \"@openzeppelin/contracts/token/ERC20/ERC20.sol\":3971:3978  spender */\n      dup4\n        /* \"@openzeppelin/contracts/token/ERC20/ERC20.sol\":3952:3979  _allowances[owner][spender] */\n      0xffffffffffffffffffffffffffffffffffffffff\n      and\n      0xffffffffffffffffffffffffffffffffffffffff\n      and\n      dup2\n      mstore\n      0x20\n      add\n      swap1\n      dup2\n      mstore\n      0x20\n      add\n      0x00\n      keccak256\n      sload\n        /* \"@openzeppelin/contracts/token/ERC20/ERC20.sol\":3945:3979  return _allowances[owner][spender] */\n      swap1\n      pop\n        /* \"@openzeppelin/contracts/token/ERC20/ERC20.sol\":3846:3986  function allowance(address owner, address spender) public view virtual returns (uint256) {... */\n      swap3\n      swap2\n      pop\n      pop\n      jump\t// out\n        /* \"@openzeppelin/contracts/access/Ownable.sol\":2543:2758  function transferOwnership(address newOwner) public virtual onlyOwner {... */\n    tag_110:\n        /* \"@openzeppelin/contracts/access/Ownable.sol\":1531:1544  _checkOwner() */\n      tag_191\n        /* \"@openzeppelin/contracts/access/Ownable.sol\":1531:1542  _checkOwner */\n      tag_165\n        /* \"@openzeppelin/contracts/access/Ownable.sol\":1531:1544  _checkOwner() */\n      jump\t// in\n    tag_191:\n        /* \"@openzeppelin/contracts/access/Ownable.sol\":2647:2648  0 */\n      0x00\n        /* \"@openzeppelin/contracts/access/Ownable.sol\":2627:2649  newOwner == address(0) */\n      0xffffffffffffffffffffffffffffffffffffffff\n      and\n        /* \"@openzeppelin/contracts/access/Ownable.sol\":2627:2635  newOwner */\n      dup2\n        /* \"@openzeppelin/contracts/access/Ownable.sol\":2627:2649  newOwner == address(0) */\n      0xffffffffffffffffffffffffffffffffffffffff\n      and\n      sub\n        /* \"@openzeppelin/contracts/access/Ownable.sol\":2623:2714  if (newOwner == address(0)) {... */\n      tag_193\n      jumpi\n        /* \"@openzeppelin/contracts/access/Ownable.sol\":2700:2701  0 */\n      0x00\n        /* \"@openzeppelin/contracts/access/Ownable.sol\":2672:2703  OwnableInvalidOwner(address(0)) */\n      mload(0x40)\n      0x1e4fbdf700000000000000000000000000000000000000000000000000000000\n      dup2\n      mstore\n      0x04\n      add\n      tag_194\n      swap2\n      swap1\n      tag_91\n      jump\t// in\n    tag_194:\n      mload(0x40)\n      dup1\n      swap2\n      sub\n      swap1\n      revert\n        /* \"@openzeppelin/contracts/access/Ownable.sol\":2623:2714  if (newOwner == address(0)) {... */\n    tag_193:\n        /* \"@openzeppelin/contracts/access/Ownable.sol\":2723:2751  _transferOwnership(newOwner) */\n      tag_195\n        /* \"@openzeppelin/contracts/access/Ownable.sol\":2742:2750  newOwner */\n      dup2\n        /* \"@openzeppelin/contracts/access/Ownable.sol\":2723:2741  _transferOwnership */\n      tag_168\n        /* \"@openzeppelin/contracts/access/Ownable.sol\":2723:2751  _transferOwnership(newOwner) */\n      jump\t// in\n    tag_195:\n        /* \"@openzeppelin/contracts/access/Ownable.sol\":2543:2758  function transferOwnership(address newOwner) public virtual onlyOwner {... */\n      pop\n      jump\t// out\n        /* \"recipe.sol\":525:565  address public unlimitedAllowanceAddress */\n    tag_112:\n      0x06\n      0x00\n      swap1\n      sload\n      swap1\n      0x0100\n      exp\n      swap1\n      div\n      0xffffffffffffffffffffffffffffffffffffffff\n      and\n      dup2\n      jump\t// out\n        /* \"@openzeppelin/contracts/utils/Context.sol\":656:752  function _msgSender() internal view virtual returns (address) {... */\n    tag_123:\n        /* \"@openzeppelin/contracts/utils/Context.sol\":709:716  address */\n      0x00\n        /* \"@openzeppelin/contracts/utils/Context.sol\":735:745  msg.sender */\n      caller\n        /* \"@openzeppelin/contracts/utils/Context.sol\":728:745  return msg.sender */\n      swap1\n      pop\n        /* \"@openzeppelin/contracts/utils/Context.sol\":656:752  function _msgSender() internal view virtual returns (address) {... */\n      swap1\n      jump\t// out\n        /* \"@openzeppelin/contracts/token/ERC20/ERC20.sol\":8989:9117  function _approve(address owner, address spender, uint256 value) internal {... */\n    tag_125:\n        /* \"@openzeppelin/contracts/token/ERC20/ERC20.sol\":9073:9110  _approve(owner, spender, value, true) */\n      tag_198\n        /* \"@openzeppelin/contracts/token/ERC20/ERC20.sol\":9082:9087  owner */\n      dup4\n        /* \"@openzeppelin/contracts/token/ERC20/ERC20.sol\":9089:9096  spender */\n      dup4\n        /* \"@openzeppelin/contracts/token/ERC20/ERC20.sol\":9098:9103  value */\n      dup4\n        /* \"@openzeppelin/contracts/token/ERC20/ERC20.sol\":9105:9109  true */\n      0x01\n        /* \"@openzeppelin/contracts/token/ERC20/ERC20.sol\":9073:9081  _approve */\n      tag_199\n        /* \"@openzeppelin/contracts/token/ERC20/ERC20.sol\":9073:9110  _approve(owner, spender, value, true) */\n      jump\t// in\n    tag_198:\n        /* \"@openzeppelin/contracts/token/ERC20/ERC20.sol\":8989:9117  function _approve(address owner, address spender, uint256 value) internal {... */\n      pop\n      pop\n      pop\n      jump\t// out\n        /* \"@openzeppelin/contracts/token/ERC20/ERC20.sol\":10663:11140  function _spendAllowance(address owner, address spender, uint256 value) internal virtual {... */\n    tag_132:\n        /* \"@openzeppelin/contracts/token/ERC20/ERC20.sol\":10762:10786  uint256 currentAllowance */\n      0x00\n        /* \"@openzeppelin/contracts/token/ERC20/ERC20.sol\":10789:10814  allowance(owner, spender) */\n      tag_201\n        /* \"@openzeppelin/contracts/token/ERC20/ERC20.sol\":10799:10804  owner */\n      dup5\n        /* \"@openzeppelin/contracts/token/ERC20/ERC20.sol\":10806:10813  spender */\n      dup5\n        /* \"@openzeppelin/contracts/token/ERC20/ERC20.sol\":10789:10798  allowance */\n      tag_106\n        /* \"@openzeppelin/contracts/token/ERC20/ERC20.sol\":10789:10814  allowance(owner, spender) */\n      jump\t// in\n    tag_201:\n        /* \"@openzeppelin/contracts/token/ERC20/ERC20.sol\":10762:10814  uint256 currentAllowance = allowance(owner, spender) */\n      swap1\n      pop\n        /* \"@openzeppelin/contracts/token/ERC20/ERC20.sol\":10848:10865  type(uint256).max */\n      0xffffffffffffffffffffffffffffffffffffffffffffffffffffffffffffffff\n        /* \"@openzeppelin/contracts/token/ERC20/ERC20.sol\":10828:10844  currentAllowance */\n      dup2\n        /* \"@openzeppelin/contracts/token/ERC20/ERC20.sol\":10828:10865  currentAllowance != type(uint256).max */\n      eq\n        /* \"@openzeppelin/contracts/token/ERC20/ERC20.sol\":10824:11134  if (currentAllowance != type(uint256).max) {... */\n      tag_202\n      jumpi\n        /* \"@openzeppelin/contracts/token/ERC20/ERC20.sol\":10904:10909  value */\n      dup2\n        /* \"@openzeppelin/contracts/token/ERC20/ERC20.sol\":10885:10901  currentAllowance */\n      dup2\n        /* \"@openzeppelin/contracts/token/ERC20/ERC20.sol\":10885:10909  currentAllowance < value */\n      lt\n        /* \"@openzeppelin/contracts/token/ERC20/ERC20.sol\":10881:11011  if (currentAllowance < value) {... */\n      iszero\n      tag_203\n      jumpi\n        /* \"@openzeppelin/contracts/token/ERC20/ERC20.sol\":10963:10970  spender */\n      dup3\n        /* \"@openzeppelin/contracts/token/ERC20/ERC20.sol\":10972:10988  currentAllowance */\n      dup2\n        /* \"@openzeppelin/contracts/token/ERC20/ERC20.sol\":10990:10995  value */\n      dup4\n        /* \"@openzeppelin/contracts/token/ERC20/ERC20.sol\":10936:10996  ERC20InsufficientAllowance(spender, currentAllowance, value) */\n      mload(0x40)\n      0xfb8f41b200000000000000000000000000000000000000000000000000000000\n      dup2\n      mstore\n      0x04\n      add\n      tag_204\n      swap4\n      swap3\n      swap2\n      swap1\n      tag_205\n      jump\t// in\n    tag_204:\n      mload(0x40)\n      dup1\n      swap2\n      sub\n      swap1\n      revert\n        /* \"@openzeppelin/contracts/token/ERC20/ERC20.sol\":10881:11011  if (currentAllowance < value) {... */\n    tag_203:\n        /* \"@openzeppelin/contracts/token/ERC20/ERC20.sol\":11052:11109  _approve(owner, spender, currentAllowance - value, false) */\n      tag_206\n        /* \"@openzeppelin/contracts/token/ERC20/ERC20.sol\":11061:11066  owner */\n      dup5\n        /* \"@openzeppelin/contracts/token/ERC20/ERC20.sol\":11068:11075  spender */\n      dup5\n        /* \"@openzeppelin/contracts/token/ERC20/ERC20.sol\":11096:11101  value */\n      dup5\n        /* \"@openzeppelin/contracts/token/ERC20/ERC20.sol\":11077:11093  currentAllowance */\n      dup5\n        /* \"@openzeppelin/contracts/token/ERC20/ERC20.sol\":11077:11101  currentAllowance - value */\n      sub\n        /* \"@openzeppelin/contracts/token/ERC20/ERC20.sol\":11103:11108  false */\n      0x00\n        /* \"@openzeppelin/contracts/token/ERC20/ERC20.sol\":11052:11060  _approve */\n      tag_199\n        /* \"@openzeppelin/contracts/token/ERC20/ERC20.sol\":11052:11109  _approve(owner, spender, currentAllowance - value, false) */\n      jump\t// in\n    tag_206:\n        /* \"@openzeppelin/contracts/token/ERC20/ERC20.sol\":10824:11134  if (currentAllowance != type(uint256).max) {... */\n    tag_202:\n        /* \"@openzeppelin/contracts/token/ERC20/ERC20.sol\":10752:11140  {... */\n      pop\n        /* \"@openzeppelin/contracts/token/ERC20/ERC20.sol\":10663:11140  function _spendAllowance(address owner, address spender, uint256 value) internal virtual {... */\n      pop\n      pop\n      pop\n      jump\t// out\n        /* \"@openzeppelin/contracts/token/ERC20/ERC20.sol\":5656:5956  function _transfer(address from, address to, uint256 value) internal {... */\n    tag_134:\n        /* \"@openzeppelin/contracts/token/ERC20/ERC20.sol\":5755:5756  0 */\n      0x00\n        /* \"@openzeppelin/contracts/token/ERC20/ERC20.sol\":5739:5757  from == address(0) */\n      0xffffffffffffffffffffffffffffffffffffffff\n      and\n        /* \"@openzeppelin/contracts/token/ERC20/ERC20.sol\":5739:5743  from */\n      dup4\n        /* \"@openzeppelin/contracts/token/ERC20/ERC20.sol\":5739:5757  from == address(0) */\n      0xffffffffffffffffffffffffffffffffffffffff\n      and\n      sub\n        /* \"@openzeppelin/contracts/token/ERC20/ERC20.sol\":5735:5821  if (from == address(0)) {... */\n      tag_208\n      jumpi\n        /* \"@openzeppelin/contracts/token/ERC20/ERC20.sol\":5807:5808  0 */\n      0x00\n        /* \"@openzeppelin/contracts/token/ERC20/ERC20.sol\":5780:5810  ERC20InvalidSender(address(0)) */\n      mload(0x40)\n      0x96c6fd1e00000000000000000000000000000000000000000000000000000000\n      dup2\n      mstore\n      0x04\n      add\n      tag_209\n      swap2\n      swap1\n      tag_91\n      jump\t// in\n    tag_209:\n      mload(0x40)\n      dup1\n      swap2\n      sub\n      swap1\n      revert\n        /* \"@openzeppelin/contracts/token/ERC20/ERC20.sol\":5735:5821  if (from == address(0)) {... */\n    tag_208:\n        /* \"@openzeppelin/contracts/token/ERC20/ERC20.sol\":5848:5849  0 */\n      0x00\n        /* \"@openzeppelin/contracts/token/ERC20/ERC20.sol\":5834:5850  to == address(0) */\n      0xffffffffffffffffffffffffffffffffffffffff\n      and\n        /* \"@openzeppelin/contracts/token/ERC20/ERC20.sol\":5834:5836  to */\n      dup3\n        /* \"@openzeppelin/contracts/token/ERC20/ERC20.sol\":5834:5850  to == address(0) */\n      0xffffffffffffffffffffffffffffffffffffffff\n      and\n      sub\n        /* \"@openzeppelin/contracts/token/ERC20/ERC20.sol\":5830:5916  if (to == address(0)) {... */\n      tag_210\n      jumpi\n        /* \"@openzeppelin/contracts/token/ERC20/ERC20.sol\":5902:5903  0 */\n      0x00\n        /* \"@openzeppelin/contracts/token/ERC20/ERC20.sol\":5873:5905  ERC20InvalidReceiver(address(0)) */\n      mload(0x40)\n      0xec442f0500000000000000000000000000000000000000000000000000000000\n      dup2\n      mstore\n      0x04\n      add\n      tag_211\n      swap2\n      swap1\n      tag_91\n      jump\t// in\n    tag_211:\n      mload(0x40)\n      dup1\n      swap2\n      sub\n      swap1\n      revert\n        /* \"@openzeppelin/contracts/token/ERC20/ERC20.sol\":5830:5916  if (to == address(0)) {... */\n    tag_210:\n        /* \"@openzeppelin/contracts/token/ERC20/ERC20.sol\":5925:5949  _update(from, to, value) */\n      tag_212\n        /* \"@openzeppelin/contracts/token/ERC20/ERC20.sol\":5933:5937  from */\n      dup4\n        /* \"@openzeppelin/contracts/token/ERC20/ERC20.sol\":5939:5941  to */\n      dup4\n        /* \"@openzeppelin/contracts/token/ERC20/ERC20.sol\":5943:5948  value */\n      dup4\n        /* \"@openzeppelin/contracts/token/ERC20/ERC20.sol\":5925:5932  _update */\n      tag_213\n        /* \"@openzeppelin/contracts/token/ERC20/ERC20.sol\":5925:5949  _update(from, to, value) */\n      jump\t// in\n    tag_212:\n        /* \"@openzeppelin/contracts/token/ERC20/ERC20.sol\":5656:5956  function _transfer(address from, address to, uint256 value) internal {... */\n      pop\n      pop\n      pop\n      jump\t// out\n        /* \"@openzeppelin/contracts/token/ERC20/ERC20.sol\":7721:7929  function _mint(address account, uint256 value) internal {... */\n    tag_141:\n        /* \"@openzeppelin/contracts/token/ERC20/ERC20.sol\":7810:7811  0 */\n      0x00\n        /* \"@openzeppelin/contracts/token/ERC20/ERC20.sol\":7791:7812  account == address(0) */\n      0xffffffffffffffffffffffffffffffffffffffff\n      and\n        /* \"@openzeppelin/contracts/token/ERC20/ERC20.sol\":7791:7798  account */\n      dup3\n        /* \"@openzeppelin/contracts/token/ERC20/ERC20.sol\":7791:7812  account == address(0) */\n      0xffffffffffffffffffffffffffffffffffffffff\n      and\n      sub\n        /* \"@openzeppelin/contracts/token/ERC20/ERC20.sol\":7787:7878  if (account == address(0)) {... */\n      tag_215\n      jumpi\n        /* \"@openzeppelin/contracts/token/ERC20/ERC20.sol\":7864:7865  0 */\n      0x00\n        /* \"@openzeppelin/contracts/token/ERC20/ERC20.sol\":7835:7867  ERC20InvalidReceiver(address(0)) */\n      mload(0x40)\n      0xec442f0500000000000000000000000000000000000000000000000000000000\n      dup2\n      mstore\n      0x04\n      add\n      tag_216\n      swap2\n      swap1\n      tag_91\n      jump\t// in\n    tag_216:\n      mload(0x40)\n      dup1\n      swap2\n      sub\n      swap1\n      revert\n        /* \"@openzeppelin/contracts/token/ERC20/ERC20.sol\":7787:7878  if (account == address(0)) {... */\n    tag_215:\n        /* \"@openzeppelin/contracts/token/ERC20/ERC20.sol\":7887:7922  _update(address(0), account, value) */\n      tag_217\n        /* \"@openzeppelin/contracts/token/ERC20/ERC20.sol\":7903:7904  0 */\n      0x00\n        /* \"@openzeppelin/contracts/token/ERC20/ERC20.sol\":7907:7914  account */\n      dup4\n        /* \"@openzeppelin/contracts/token/ERC20/ERC20.sol\":7916:7921  value */\n      dup4\n        /* \"@openzeppelin/contracts/token/ERC20/ERC20.sol\":7887:7894  _update */\n      tag_213\n        /* \"@openzeppelin/contracts/token/ERC20/ERC20.sol\":7887:7922  _update(address(0), account, value) */\n      jump\t// in\n    tag_217:\n        /* \"@openzeppelin/contracts/token/ERC20/ERC20.sol\":7721:7929  function _mint(address account, uint256 value) internal {... */\n      pop\n      pop\n      jump\t// out\n        /* \"@openzeppelin/contracts/token/ERC20/ERC20.sol\":8247:8453  function _burn(address account, uint256 value) internal {... */\n    tag_147:\n        /* \"@openzeppelin/contracts/token/ERC20/ERC20.sol\":8336:8337  0 */\n      0x00\n        /* \"@openzeppelin/contracts/token/ERC20/ERC20.sol\":8317:8338  account == address(0) */\n      0xffffffffffffffffffffffffffffffffffffffff\n      and\n        /* \"@openzeppelin/contracts/token/ERC20/ERC20.sol\":8317:8324  account */\n      dup3\n        /* \"@openzeppelin/contracts/token/ERC20/ERC20.sol\":8317:8338  account == address(0) */\n      0xffffffffffffffffffffffffffffffffffffffff\n      and\n      sub\n        /* \"@openzeppelin/contracts/token/ERC20/ERC20.sol\":8313:8402  if (account == address(0)) {... */\n      tag_219\n      jumpi\n        /* \"@openzeppelin/contracts/token/ERC20/ERC20.sol\":8388:8389  0 */\n      0x00\n        /* \"@openzeppelin/contracts/token/ERC20/ERC20.sol\":8361:8391  ERC20InvalidSender(address(0)) */\n      mload(0x40)\n      0x96c6fd1e00000000000000000000000000000000000000000000000000000000\n      dup2\n      mstore\n      0x04\n      add\n      tag_220\n      swap2\n      swap1\n      tag_91\n      jump\t// in\n    tag_220:\n      mload(0x40)\n      dup1\n      swap2\n      sub\n      swap1\n      revert\n        /* \"@openzeppelin/contracts/token/ERC20/ERC20.sol\":8313:8402  if (account == address(0)) {... */\n    tag_219:\n        /* \"@openzeppelin/contracts/token/ERC20/ERC20.sol\":8411:8446  _update(account, address(0), value) */\n      tag_221\n        /* \"@openzeppelin/contracts/token/ERC20/ERC20.sol\":8419:8426  account */\n      dup3\n        /* \"@openzeppelin/contracts/token/ERC20/ERC20.sol\":8436:8437  0 */\n      0x00\n        /* \"@openzeppelin/contracts/token/ERC20/ERC20.sol\":8440:8445  value */\n      dup4\n        /* \"@openzeppelin/contracts/token/ERC20/ERC20.sol\":8411:8418  _update */\n      tag_213\n        /* \"@openzeppelin/contracts/token/ERC20/ERC20.sol\":8411:8446  _update(account, address(0), value) */\n      jump\t// in\n    tag_221:\n        /* \"@openzeppelin/contracts/token/ERC20/ERC20.sol\":8247:8453  function _burn(address account, uint256 value) internal {... */\n      pop\n      pop\n      jump\t// out\n        /* \"@openzeppelin/contracts/token/ERC20/ERC20.sol\":3299:3415  function balanceOf(address account) public view virtual returns (uint256) {... */\n    tag_162:\n        /* \"@openzeppelin/contracts/token/ERC20/ERC20.sol\":3364:3371  uint256 */\n      0x00\n        /* \"@openzeppelin/contracts/token/ERC20/ERC20.sol\":3390:3399  _balances */\n      dup1\n        /* \"@openzeppelin/contracts/token/ERC20/ERC20.sol\":3390:3408  _balances[account] */\n      0x00\n        /* \"@openzeppelin/contracts/token/ERC20/ERC20.sol\":3400:3407  account */\n      dup4\n        /* \"@openzeppelin/contracts/token/ERC20/ERC20.sol\":3390:3408  _balances[account] */\n      0xffffffffffffffffffffffffffffffffffffffff\n      and\n      0xffffffffffffffffffffffffffffffffffffffff\n      and\n      dup2\n      mstore\n      0x20\n      add\n      swap1\n      dup2\n      mstore\n      0x20\n      add\n      0x00\n      keccak256\n      sload\n        /* \"@openzeppelin/contracts/token/ERC20/ERC20.sol\":3383:3408  return _balances[account] */\n      swap1\n      pop\n        /* \"@openzeppelin/contracts/token/ERC20/ERC20.sol\":3299:3415  function balanceOf(address account) public view virtual returns (uint256) {... */\n      swap2\n      swap1\n      pop\n      jump\t// out\n        /* \"@openzeppelin/contracts/access/Ownable.sol\":1796:1958  function _checkOwner() internal view virtual {... */\n    tag_165:\n        /* \"@openzeppelin/contracts/access/Ownable.sol\":1866:1878  _msgSender() */\n      tag_224\n        /* \"@openzeppelin/contracts/access/Ownable.sol\":1866:1876  _msgSender */\n      tag_123\n        /* \"@openzeppelin/contracts/access/Ownable.sol\":1866:1878  _msgSender() */\n      jump\t// in\n    tag_224:\n        /* \"@openzeppelin/contracts/access/Ownable.sol\":1855:1878  owner() != _msgSender() */\n      0xffffffffffffffffffffffffffffffffffffffff\n      and\n        /* \"@openzeppelin/contracts/access/Ownable.sol\":1855:1862  owner() */\n      tag_225\n        /* \"@openzeppelin/contracts/access/Ownable.sol\":1855:1860  owner */\n      tag_89\n        /* \"@openzeppelin/contracts/access/Ownable.sol\":1855:1862  owner() */\n      jump\t// in\n    tag_225:\n        /* \"@openzeppelin/contracts/access/Ownable.sol\":1855:1878  owner() != _msgSender() */\n      0xffffffffffffffffffffffffffffffffffffffff\n      and\n      eq\n        /* \"@openzeppelin/contracts/access/Ownable.sol\":1851:1952  if (owner() != _msgSender()) {... */\n      tag_226\n      jumpi\n        /* \"@openzeppelin/contracts/access/Ownable.sol\":1928:1940  _msgSender() */\n      tag_227\n        /* \"@openzeppelin/contracts/access/Ownable.sol\":1928:1938  _msgSender */\n      tag_123\n        /* \"@openzeppelin/contracts/access/Ownable.sol\":1928:1940  _msgSender() */\n      jump\t// in\n    tag_227:\n        /* \"@openzeppelin/contracts/access/Ownable.sol\":1901:1941  OwnableUnauthorizedAccount(_msgSender()) */\n      mload(0x40)\n      0x118cdaa700000000000000000000000000000000000000000000000000000000\n      dup2\n      mstore\n      0x04\n      add\n      tag_228\n      swap2\n      swap1\n      tag_91\n      jump\t// in\n    tag_228:\n      mload(0x40)\n      dup1\n      swap2\n      sub\n      swap1\n      revert\n        /* \"@openzeppelin/contracts/access/Ownable.sol\":1851:1952  if (owner() != _msgSender()) {... */\n    tag_226:\n        /* \"@openzeppelin/contracts/access/Ownable.sol\":1796:1958  function _checkOwner() internal view virtual {... */\n      jump\t// out\n        /* \"@openzeppelin/contracts/access/Ownable.sol\":2912:3099  function _transferOwnership(address newOwner) internal virtual {... */\n    tag_168:\n        /* \"@openzeppelin/contracts/access/Ownable.sol\":2985:3001  address oldOwner */\n      0x00\n        /* \"@openzeppelin/contracts/access/Ownable.sol\":3004:3010  _owner */\n      0x05\n      0x00\n      swap1\n      sload\n      swap1\n      0x0100\n      exp\n      swap1\n      div\n      0xffffffffffffffffffffffffffffffffffffffff\n      and\n        /* \"@openzeppelin/contracts/access/Ownable.sol\":2985:3010  address oldOwner = _owner */\n      swap1\n      pop\n        /* \"@openzeppelin/contracts/access/Ownable.sol\":3029:3037  newOwner */\n      dup2\n        /* \"@openzeppelin/contracts/access/Ownable.sol\":3020:3026  _owner */\n      0x05\n      0x00\n        /* \"@openzeppelin/contracts/access/Ownable.sol\":3020:3037  _owner = newOwner */\n      0x0100\n      exp\n      dup2\n      sload\n      dup2\n      0xffffffffffffffffffffffffffffffffffffffff\n      mul\n      not\n      and\n      swap1\n      dup4\n      0xffffffffffffffffffffffffffffffffffffffff\n      and\n      mul\n      or\n      swap1\n      sstore\n      pop\n        /* \"@openzeppelin/contracts/access/Ownable.sol\":3083:3091  newOwner */\n      dup2\n        /* \"@openzeppelin/contracts/access/Ownable.sol\":3052:3092  OwnershipTransferred(oldOwner, newOwner) */\n      0xffffffffffffffffffffffffffffffffffffffff\n      and\n        /* \"@openzeppelin/contracts/access/Ownable.sol\":3073:3081  oldOwner */\n      dup2\n        /* \"@openzeppelin/contracts/access/Ownable.sol\":3052:3092  OwnershipTransferred(oldOwner, newOwner) */\n      0xffffffffffffffffffffffffffffffffffffffff\n      and\n      0x8be0079c531659141344cd1fd0a4f28419497f9722a3daafe3b4186f6b6457e0\n      mload(0x40)\n      mload(0x40)\n      dup1\n      swap2\n      sub\n      swap1\n      log3\n        /* \"@openzeppelin/contracts/access/Ownable.sol\":2975:3099  {... */\n      pop\n        /* \"@openzeppelin/contracts/access/Ownable.sol\":2912:3099  function _transferOwnership(address newOwner) internal virtual {... */\n      pop\n      jump\t// out\n        /* \"@openzeppelin/contracts/token/ERC20/ERC20.sol\":3610:3788  function transfer(address to, uint256 value) public virtual returns (bool) {... */\n    tag_182:\n        /* \"@openzeppelin/contracts/token/ERC20/ERC20.sol\":3679:3683  bool */\n      0x00\n        /* \"@openzeppelin/contracts/token/ERC20/ERC20.sol\":3695:3708  address owner */\n      dup1\n        /* \"@openzeppelin/contracts/token/ERC20/ERC20.sol\":3711:3723  _msgSender() */\n      tag_231\n        /* \"@openzeppelin/contracts/token/ERC20/ERC20.sol\":3711:3721  _msgSender */\n      tag_123\n        /* \"@openzeppelin/contracts/token/ERC20/ERC20.sol\":3711:3723  _msgSender() */\n      jump\t// in\n    tag_231:\n        /* \"@openzeppelin/contracts/token/ERC20/ERC20.sol\":3695:3723  address owner = _msgSender() */\n      swap1\n      pop\n        /* \"@openzeppelin/contracts/token/ERC20/ERC20.sol\":3733:3760  _transfer(owner, to, value) */\n      tag_232\n        /* \"@openzeppelin/contracts/token/ERC20/ERC20.sol\":3743:3748  owner */\n      dup2\n        /* \"@openzeppelin/contracts/token/ERC20/ERC20.sol\":3750:3752  to */\n      dup6\n        /* \"@openzeppelin/contracts/token/ERC20/ERC20.sol\":3754:3759  value */\n      dup6\n        /* \"@openzeppelin/contracts/token/ERC20/ERC20.sol\":3733:3742  _transfer */\n      tag_134\n        /* \"@openzeppelin/contracts/token/ERC20/ERC20.sol\":3733:3760  _transfer(owner, to, value) */\n      jump\t// in\n    tag_232:\n        /* \"@openzeppelin/contracts/token/ERC20/ERC20.sol\":3777:3781  true */\n      0x01\n        /* \"@openzeppelin/contracts/token/ERC20/ERC20.sol\":3770:3781  return true */\n      swap2\n      pop\n      pop\n        /* \"@openzeppelin/contracts/token/ERC20/ERC20.sol\":3610:3788  function transfer(address to, uint256 value) public virtual returns (bool) {... */\n      swap3\n      swap2\n      pop\n      pop\n      jump\t// out\n        /* \"@openzeppelin/contracts/token/ERC20/ERC20.sol\":9949:10381  function _approve(address owner, address spender, uint256 value, bool emitEvent) internal virtual {... */\n    tag_199:\n        /* \"@openzeppelin/contracts/token/ERC20/ERC20.sol\":10078:10079  0 */\n      0x00\n        /* \"@openzeppelin/contracts/token/ERC20/ERC20.sol\":10061:10080  owner == address(0) */\n      0xffffffffffffffffffffffffffffffffffffffff\n      and\n        /* \"@openzeppelin/contracts/token/ERC20/ERC20.sol\":10061:10066  owner */\n      dup5\n        /* \"@openzeppelin/contracts/token/ERC20/ERC20.sol\":10061:10080  owner == address(0) */\n      0xffffffffffffffffffffffffffffffffffffffff\n      and\n      sub\n        /* \"@openzeppelin/contracts/token/ERC20/ERC20.sol\":10057:10146  if (owner == address(0)) {... */\n      tag_234\n      jumpi\n        /* \"@openzeppelin/contracts/token/ERC20/ERC20.sol\":10132:10133  0 */\n      0x00\n        /* \"@openzeppelin/contracts/token/ERC20/ERC20.sol\":10103:10135  ERC20InvalidApprover(address(0)) */\n      mload(0x40)\n      0xe602df0500000000000000000000000000000000000000000000000000000000\n      dup2\n      mstore\n      0x04\n      add\n      tag_235\n      swap2\n      swap1\n      tag_91\n      jump\t// in\n    tag_235:\n      mload(0x40)\n      dup1\n      swap2\n      sub\n      swap1\n      revert\n        /* \"@openzeppelin/contracts/token/ERC20/ERC20.sol\":10057:10146  if (owner == address(0)) {... */\n    tag_234:\n        /* \"@openzeppelin/contracts/token/ERC20/ERC20.sol\":10178:10179  0 */\n      0x00\n        /* \"@openzeppelin/contracts/token/ERC20/ERC20.sol\":10159:10180  spender == address(0) */\n      0xffffffffffffffffffffffffffffffffffffffff\n      and\n        /* \"@openzeppelin/contracts/token/ERC20/ERC20.sol\":10159:10166  spender */\n      dup4\n        /* \"@openzeppelin/contracts/token/ERC20/ERC20.sol\":10159:10180  spender == address(0) */\n      0xffffffffffffffffffffffffffffffffffffffff\n      and\n      sub\n        /* \"@openzeppelin/contracts/token/ERC20/ERC20.sol\":10155:10245  if (spender == address(0)) {... */\n      tag_236\n      jumpi\n        /* \"@openzeppelin/contracts/token/ERC20/ERC20.sol\":10231:10232  0 */\n      0x00\n        /* \"@openzeppelin/contracts/token/ERC20/ERC20.sol\":10203:10234  ERC20InvalidSpender(address(0)) */\n      mload(0x40)\n      0x94280d6200000000000000000000000000000000000000000000000000000000\n      dup2\n      mstore\n      0x04\n      add\n      tag_237\n      swap2\n      swap1\n      tag_91\n      jump\t// in\n    tag_237:\n      mload(0x40)\n      dup1\n      swap2\n      sub\n      swap1\n      revert\n        /* \"@openzeppelin/contracts/token/ERC20/ERC20.sol\":10155:10245  if (spender == address(0)) {... */\n    tag_236:\n        /* \"@openzeppelin/contracts/token/ERC20/ERC20.sol\":10284:10289  value */\n      dup2\n        /* \"@openzeppelin/contracts/token/ERC20/ERC20.sol\":10254:10265  _allowances */\n      0x01\n        /* \"@openzeppelin/contracts/token/ERC20/ERC20.sol\":10254:10272  _allowances[owner] */\n      0x00\n        /* \"@openzeppelin/contracts/token/ERC20/ERC20.sol\":10266:10271  owner */\n      dup7\n        /* \"@openzeppelin/contracts/token/ERC20/ERC20.sol\":10254:10272  _allowances[owner] */\n      0xffffffffffffffffffffffffffffffffffffffff\n      and\n      0xffffffffffffffffffffffffffffffffffffffff\n      and\n      dup2\n      mstore\n      0x20\n      add\n      swap1\n      dup2\n      mstore\n      0x20\n      add\n      0x00\n      keccak256\n        /* \"@openzeppelin/contracts/token/ERC20/ERC20.sol\":10254:10281  _allowances[owner][spender] */\n      0x00\n        /* \"@openzeppelin/contracts/token/ERC20/ERC20.sol\":10273:10280  spender */\n      dup6\n        /* \"@openzeppelin/contracts/token/ERC20/ERC20.sol\":10254:10281  _allowances[owner][spender] */\n      0xffffffffffffffffffffffffffffffffffffffff\n      and\n      0xffffffffffffffffffffffffffffffffffffffff\n      and\n      dup2\n      mstore\n      0x20\n      add\n      swap1\n      dup2\n      mstore\n      0x20\n      add\n      0x00\n      keccak256\n        /* \"@openzeppelin/contracts/token/ERC20/ERC20.sol\":10254:10289  _allowances[owner][spender] = value */\n      dup2\n      swap1\n      sstore\n      pop\n        /* \"@openzeppelin/contracts/token/ERC20/ERC20.sol\":10303:10312  emitEvent */\n      dup1\n        /* \"@openzeppelin/contracts/token/ERC20/ERC20.sol\":10299:10375  if (emitEvent) {... */\n      iszero\n      tag_238\n      jumpi\n        /* \"@openzeppelin/contracts/token/ERC20/ERC20.sol\":10349:10356  spender */\n      dup3\n        /* \"@openzeppelin/contracts/token/ERC20/ERC20.sol\":10333:10364  Approval(owner, spender, value) */\n      0xffffffffffffffffffffffffffffffffffffffff\n      and\n        /* \"@openzeppelin/contracts/token/ERC20/ERC20.sol\":10342:10347  owner */\n      dup5\n        /* \"@openzeppelin/contracts/token/ERC20/ERC20.sol\":10333:10364  Approval(owner, spender, value) */\n      0xffffffffffffffffffffffffffffffffffffffff\n      and\n      0x8c5be1e5ebec7d5bd14f71427d1e84f3dd0314c0f7b2291e5b200ac8c7c3b925\n        /* \"@openzeppelin/contracts/token/ERC20/ERC20.sol\":10358:10363  value */\n      dup5\n        /* \"@openzeppelin/contracts/token/ERC20/ERC20.sol\":10333:10364  Approval(owner, spender, value) */\n      mload(0x40)\n      tag_239\n      swap2\n      swap1\n      tag_47\n      jump\t// in\n    tag_239:\n      mload(0x40)\n      dup1\n      swap2\n      sub\n      swap1\n      log3\n        /* \"@openzeppelin/contracts/token/ERC20/ERC20.sol\":10299:10375  if (emitEvent) {... */\n    tag_238:\n        /* \"@openzeppelin/contracts/token/ERC20/ERC20.sol\":9949:10381  function _approve(address owner, address spender, uint256 value, bool emitEvent) internal virtual {... */\n      pop\n      pop\n      pop\n      pop\n      jump\t// out\n        /* \"@openzeppelin/contracts/token/ERC20/ERC20.sol\":6271:7378  function _update(address from, address to, uint256 value) internal virtual {... */\n    tag_213:\n        /* \"@openzeppelin/contracts/token/ERC20/ERC20.sol\":6376:6377  0 */\n      0x00\n        /* \"@openzeppelin/contracts/token/ERC20/ERC20.sol\":6360:6378  from == address(0) */\n      0xffffffffffffffffffffffffffffffffffffffff\n      and\n        /* \"@openzeppelin/contracts/token/ERC20/ERC20.sol\":6360:6364  from */\n      dup4\n        /* \"@openzeppelin/contracts/token/ERC20/ERC20.sol\":6360:6378  from == address(0) */\n      0xffffffffffffffffffffffffffffffffffffffff\n      and\n      sub\n        /* \"@openzeppelin/contracts/token/ERC20/ERC20.sol\":6356:6896  if (from == address(0)) {... */\n      tag_241\n      jumpi\n        /* \"@openzeppelin/contracts/token/ERC20/ERC20.sol\":6512:6517  value */\n      dup1\n        /* \"@openzeppelin/contracts/token/ERC20/ERC20.sol\":6496:6508  _totalSupply */\n      0x02\n      0x00\n        /* \"@openzeppelin/contracts/token/ERC20/ERC20.sol\":6496:6517  _totalSupply += value */\n      dup3\n      dup3\n      sload\n      tag_242\n      swap2\n      swap1\n      tag_243\n      jump\t// in\n    tag_242:\n      swap3\n      pop\n      pop\n      dup2\n      swap1\n      sstore\n      pop\n        /* \"@openzeppelin/contracts/token/ERC20/ERC20.sol\":6356:6896  if (from == address(0)) {... */\n      jump(tag_244)\n    tag_241:\n        /* \"@openzeppelin/contracts/token/ERC20/ERC20.sol\":6548:6567  uint256 fromBalance */\n      0x00\n        /* \"@openzeppelin/contracts/token/ERC20/ERC20.sol\":6570:6579  _balances */\n      dup1\n        /* \"@openzeppelin/contracts/token/ERC20/ERC20.sol\":6570:6585  _balances[from] */\n      0x00\n        /* \"@openzeppelin/contracts/token/ERC20/ERC20.sol\":6580:6584  from */\n      dup6\n        /* \"@openzeppelin/contracts/token/ERC20/ERC20.sol\":6570:6585  _balances[from] */\n      0xffffffffffffffffffffffffffffffffffffffff\n      and\n      0xffffffffffffffffffffffffffffffffffffffff\n      and\n      dup2\n      mstore\n      0x20\n      add\n      swap1\n      dup2\n      mstore\n      0x20\n      add\n      0x00\n      keccak256\n      sload\n        /* \"@openzeppelin/contracts/token/ERC20/ERC20.sol\":6548:6585  uint256 fromBalance = _balances[from] */\n      swap1\n      pop\n        /* \"@openzeppelin/contracts/token/ERC20/ERC20.sol\":6617:6622  value */\n      dup2\n        /* \"@openzeppelin/contracts/token/ERC20/ERC20.sol\":6603:6614  fromBalance */\n      dup2\n        /* \"@openzeppelin/contracts/token/ERC20/ERC20.sol\":6603:6622  fromBalance < value */\n      lt\n        /* \"@openzeppelin/contracts/token/ERC20/ERC20.sol\":6599:6714  if (fromBalance < value) {... */\n      iszero\n      tag_245\n      jumpi\n        /* \"@openzeppelin/contracts/token/ERC20/ERC20.sol\":6674:6678  from */\n      dup4\n        /* \"@openzeppelin/contracts/token/ERC20/ERC20.sol\":6680:6691  fromBalance */\n      dup2\n        /* \"@openzeppelin/contracts/token/ERC20/ERC20.sol\":6693:6698  value */\n      dup4\n        /* \"@openzeppelin/contracts/token/ERC20/ERC20.sol\":6649:6699  ERC20InsufficientBalance(from, fromBalance, value) */\n      mload(0x40)\n      0xe450d38c00000000000000000000000000000000000000000000000000000000\n      dup2\n      mstore\n      0x04\n      add\n      tag_246\n      swap4\n      swap3\n      swap2\n      swap1\n      tag_205\n      jump\t// in\n    tag_246:\n      mload(0x40)\n      dup1\n      swap2\n      sub\n      swap1\n      revert\n        /* \"@openzeppelin/contracts/token/ERC20/ERC20.sol\":6599:6714  if (fromBalance < value) {... */\n    tag_245:\n        /* \"@openzeppelin/contracts/token/ERC20/ERC20.sol\":6866:6871  value */\n      dup2\n        /* \"@openzeppelin/contracts/token/ERC20/ERC20.sol\":6852:6863  fromBalance */\n      dup2\n        /* \"@openzeppelin/contracts/token/ERC20/ERC20.sol\":6852:6871  fromBalance - value */\n      sub\n        /* \"@openzeppelin/contracts/token/ERC20/ERC20.sol\":6834:6843  _balances */\n      0x00\n        /* \"@openzeppelin/contracts/token/ERC20/ERC20.sol\":6834:6849  _balances[from] */\n      dup1\n        /* \"@openzeppelin/contracts/token/ERC20/ERC20.sol\":6844:6848  from */\n      dup7\n        /* \"@openzeppelin/contracts/token/ERC20/ERC20.sol\":6834:6849  _balances[from] */\n      0xffffffffffffffffffffffffffffffffffffffff\n      and\n      0xffffffffffffffffffffffffffffffffffffffff\n      and\n      dup2\n      mstore\n      0x20\n      add\n      swap1\n      dup2\n      mstore\n      0x20\n      add\n      0x00\n      keccak256\n        /* \"@openzeppelin/contracts/token/ERC20/ERC20.sol\":6834:6871  _balances[from] = fromBalance - value */\n      dup2\n      swap1\n      sstore\n      pop\n        /* \"@openzeppelin/contracts/token/ERC20/ERC20.sol\":6534:6896  {... */\n      pop\n        /* \"@openzeppelin/contracts/token/ERC20/ERC20.sol\":6356:6896  if (from == address(0)) {... */\n    tag_244:\n        /* \"@openzeppelin/contracts/token/ERC20/ERC20.sol\":6924:6925  0 */\n      0x00\n        /* \"@openzeppelin/contracts/token/ERC20/ERC20.sol\":6910:6926  to == address(0) */\n      0xffffffffffffffffffffffffffffffffffffffff\n      and\n        /* \"@openzeppelin/contracts/token/ERC20/ERC20.sol\":6910:6912  to */\n      dup3\n        /* \"@openzeppelin/contracts/token/ERC20/ERC20.sol\":6910:6926  to == address(0) */\n      0xffffffffffffffffffffffffffffffffffffffff\n      and\n      sub\n        /* \"@openzeppelin/contracts/token/ERC20/ERC20.sol\":6906:7331  if (to == address(0)) {... */\n      tag_247\n      jumpi\n        /* \"@openzeppelin/contracts/token/ERC20/ERC20.sol\":7089:7094  value */\n      dup1\n        /* \"@openzeppelin/contracts/token/ERC20/ERC20.sol\":7073:7085  _totalSupply */\n      0x02\n      0x00\n        /* \"@openzeppelin/contracts/token/ERC20/ERC20.sol\":7073:7094  _totalSupply -= value */\n      dup3\n      dup3\n      sload\n      sub\n      swap3\n      pop\n      pop\n      dup2\n      swap1\n      sstore\n      pop\n        /* \"@openzeppelin/contracts/token/ERC20/ERC20.sol\":6906:7331  if (to == address(0)) {... */\n      jump(tag_248)\n    tag_247:\n        /* \"@openzeppelin/contracts/token/ERC20/ERC20.sol\":7301:7306  value */\n      dup1\n        /* \"@openzeppelin/contracts/token/ERC20/ERC20.sol\":7284:7293  _balances */\n      0x00\n        /* \"@openzeppelin/contracts/token/ERC20/ERC20.sol\":7284:7297  _balances[to] */\n      dup1\n        /* \"@openzeppelin/contracts/token/ERC20/ERC20.sol\":7294:7296  to */\n      dup5\n        /* \"@openzeppelin/contracts/token/ERC20/ERC20.sol\":7284:7297  _balances[to] */\n      0xffffffffffffffffffffffffffffffffffffffff\n      and\n      0xffffffffffffffffffffffffffffffffffffffff\n      and\n      dup2\n      mstore\n      0x20\n      add\n      swap1\n      dup2\n      mstore\n      0x20\n      add\n      0x00\n      keccak256\n      0x00\n        /* \"@openzeppelin/contracts/token/ERC20/ERC20.sol\":7284:7306  _balances[to] += value */\n      dup3\n      dup3\n      sload\n      add\n      swap3\n      pop\n      pop\n      dup2\n      swap1\n      sstore\n      pop\n        /* \"@openzeppelin/contracts/token/ERC20/ERC20.sol\":6906:7331  if (to == address(0)) {... */\n    tag_248:\n        /* \"@openzeppelin/contracts/token/ERC20/ERC20.sol\":7361:7363  to */\n      dup2\n        /* \"@openzeppelin/contracts/token/ERC20/ERC20.sol\":7346:7371  Transfer(from, to, value) */\n      0xffffffffffffffffffffffffffffffffffffffff\n      and\n        /* \"@openzeppelin/contracts/token/ERC20/ERC20.sol\":7355:7359  from */\n      dup4\n        /* \"@openzeppelin/contracts/token/ERC20/ERC20.sol\":7346:7371  Transfer(from, to, value) */\n      0xffffffffffffffffffffffffffffffffffffffff\n      and\n      0xddf252ad1be2c89b69c2b068fc378daa952ba7f163c4a11628f55a4df523b3ef\n        /* \"@openzeppelin/contracts/token/ERC20/ERC20.sol\":7365:7370  value */\n      dup4\n        /* \"@openzeppelin/contracts/token/ERC20/ERC20.sol\":7346:7371  Transfer(from, to, value) */\n      mload(0x40)\n      tag_249\n      swap2\n      swap1\n      tag_47\n      jump\t// in\n    tag_249:\n      mload(0x40)\n      dup1\n      swap2\n      sub\n      swap1\n      log3\n        /* \"@openzeppelin/contracts/token/ERC20/ERC20.sol\":6271:7378  function _update(address from, address to, uint256 value) internal virtual {... */\n      pop\n      pop\n      pop\n      jump\t// out\n        /* \"#utility.yul\":7:106   */\n    tag_250:\n        /* \"#utility.yul\":59:65   */\n      0x00\n        /* \"#utility.yul\":93:98   */\n      dup2\n        /* \"#utility.yul\":87:99   */\n      mload\n        /* \"#utility.yul\":77:99   */\n      swap1\n      pop\n        /* \"#utility.yul\":7:106   */\n      swap2\n      swap1\n      pop\n      jump\t// out\n        /* \"#utility.yul\":112:281   */\n    tag_251:\n        /* \"#utility.yul\":196:207   */\n      0x00\n        /* \"#utility.yul\":230:236   */\n      dup3\n        /* \"#utility.yul\":225:228   */\n      dup3\n        /* \"#utility.yul\":218:237   */\n      mstore\n        /* \"#utility.yul\":270:274   */\n      0x20\n        /* \"#utility.yul\":265:268   */\n      dup3\n        /* \"#utility.yul\":261:275   */\n      add\n        /* \"#utility.yul\":246:275   */\n      swap1\n      pop\n        /* \"#utility.yul\":112:281   */\n      swap3\n      swap2\n      pop\n      pop\n      jump\t// out\n        /* \"#utility.yul\":287:533   */\n    tag_252:\n        /* \"#utility.yul\":368:369   */\n      0x00\n        /* \"#utility.yul\":378:491   */\n    tag_298:\n        /* \"#utility.yul\":392:398   */\n      dup4\n        /* \"#utility.yul\":389:390   */\n      dup2\n        /* \"#utility.yul\":386:399   */\n      lt\n        /* \"#utility.yul\":378:491   */\n      iszero\n      tag_300\n      jumpi\n        /* \"#utility.yul\":477:478   */\n      dup1\n        /* \"#utility.yul\":472:475   */\n      dup3\n        /* \"#utility.yul\":468:479   */\n      add\n        /* \"#utility.yul\":462:480   */\n      mload\n        /* \"#utility.yul\":458:459   */\n      dup2\n        /* \"#utility.yul\":453:456   */\n      dup5\n        /* \"#utility.yul\":449:460   */\n      add\n        /* \"#utility.yul\":442:481   */\n      mstore\n        /* \"#utility.yul\":414:416   */\n      0x20\n        /* \"#utility.yul\":411:412   */\n      dup2\n        /* \"#utility.yul\":407:417   */\n      add\n        /* \"#utility.yul\":402:417   */\n      swap1\n      pop\n        /* \"#utility.yul\":378:491   */\n      jump(tag_298)\n    tag_300:\n        /* \"#utility.yul\":525:526   */\n      0x00\n        /* \"#utility.yul\":516:522   */\n      dup5\n        /* \"#utility.yul\":511:514   */\n      dup5\n        /* \"#utility.yul\":507:523   */\n      add\n        /* \"#utility.yul\":500:527   */\n      mstore\n        /* \"#utility.yul\":349:533   */\n      pop\n        /* \"#utility.yul\":287:533   */\n      pop\n      pop\n      pop\n      jump\t// out\n        /* \"#utility.yul\":539:641   */\n    tag_253:\n        /* \"#utility.yul\":580:586   */\n      0x00\n        /* \"#utility.yul\":631:633   */\n      0x1f\n        /* \"#utility.yul\":627:634   */\n      not\n        /* \"#utility.yul\":622:624   */\n      0x1f\n        /* \"#utility.yul\":615:620   */\n      dup4\n        /* \"#utility.yul\":611:625   */\n      add\n        /* \"#utility.yul\":607:635   */\n      and\n        /* \"#utility.yul\":597:635   */\n      swap1\n      pop\n        /* \"#utility.yul\":539:641   */\n      swap2\n      swap1\n      pop\n      jump\t// out\n        /* \"#utility.yul\":647:1024   */\n    tag_254:\n        /* \"#utility.yul\":735:738   */\n      0x00\n        /* \"#utility.yul\":763:802   */\n      tag_303\n        /* \"#utility.yul\":796:801   */\n      dup3\n        /* \"#utility.yul\":763:802   */\n      tag_250\n      jump\t// in\n    tag_303:\n        /* \"#utility.yul\":818:889   */\n      tag_304\n        /* \"#utility.yul\":882:888   */\n      dup2\n        /* \"#utility.yul\":877:880   */\n      dup6\n        /* \"#utility.yul\":818:889   */\n      tag_251\n      jump\t// in\n    tag_304:\n        /* \"#utility.yul\":811:889   */\n      swap4\n      pop\n        /* \"#utility.yul\":898:963   */\n      tag_305\n        /* \"#utility.yul\":956:962   */\n      dup2\n        /* \"#utility.yul\":951:954   */\n      dup6\n        /* \"#utility.yul\":944:948   */\n      0x20\n        /* \"#utility.yul\":937:942   */\n      dup7\n        /* \"#utility.yul\":933:949   */\n      add\n        /* \"#utility.yul\":898:963   */\n      tag_252\n      jump\t// in\n    tag_305:\n        /* \"#utility.yul\":988:1017   */\n      tag_306\n        /* \"#utility.yul\":1010:1016   */\n      dup2\n        /* \"#utility.yul\":988:1017   */\n      tag_253\n      jump\t// in\n    tag_306:\n        /* \"#utility.yul\":983:986   */\n      dup5\n        /* \"#utility.yul\":979:1018   */\n      add\n        /* \"#utility.yul\":972:1018   */\n      swap2\n      pop\n        /* \"#utility.yul\":739:1024   */\n      pop\n        /* \"#utility.yul\":647:1024   */\n      swap3\n      swap2\n      pop\n      pop\n      jump\t// out\n        /* \"#utility.yul\":1030:1343   */\n    tag_31:\n        /* \"#utility.yul\":1143:1147   */\n      0x00\n        /* \"#utility.yul\":1181:1183   */\n      0x20\n        /* \"#utility.yul\":1170:1179   */\n      dup3\n        /* \"#utility.yul\":1166:1184   */\n      add\n        /* \"#utility.yul\":1158:1184   */\n      swap1\n      pop\n        /* \"#utility.yul\":1230:1239   */\n      dup2\n        /* \"#utility.yul\":1224:1228   */\n      dup2\n        /* \"#utility.yul\":1220:1240   */\n      sub\n        /* \"#utility.yul\":1216:1217   */\n      0x00\n        /* \"#utility.yul\":1205:1214   */\n      dup4\n        /* \"#utility.yul\":1201:1218   */\n      add\n        /* \"#utility.yul\":1194:1241   */\n      mstore\n        /* \"#utility.yul\":1258:1336   */\n      tag_308\n        /* \"#utility.yul\":1331:1335   */\n      dup2\n        /* \"#utility.yul\":1322:1328   */\n      dup5\n        /* \"#utility.yul\":1258:1336   */\n      tag_254\n      jump\t// in\n    tag_308:\n        /* \"#utility.yul\":1250:1336   */\n      swap1\n      pop\n        /* \"#utility.yul\":1030:1343   */\n      swap3\n      swap2\n      pop\n      pop\n      jump\t// out\n        /* \"#utility.yul\":1430:1547   */\n    tag_256:\n        /* \"#utility.yul\":1539:1540   */\n      0x00\n        /* \"#utility.yul\":1536:1537   */\n      dup1\n        /* \"#utility.yul\":1529:1541   */\n      revert\n        /* \"#utility.yul\":1676:1802   */\n    tag_258:\n        /* \"#utility.yul\":1713:1720   */\n      0x00\n        /* \"#utility.yul\":1753:1795   */\n      0xffffffffffffffffffffffffffffffffffffffff\n        /* \"#utility.yul\":1746:1751   */\n      dup3\n        /* \"#utility.yul\":1742:1796   */\n      and\n        /* \"#utility.yul\":1731:1796   */\n      swap1\n      pop\n        /* \"#utility.yul\":1676:1802   */\n      swap2\n      swap1\n      pop\n      jump\t// out\n        /* \"#utility.yul\":1808:1904   */\n    tag_259:\n        /* \"#utility.yul\":1845:1852   */\n      0x00\n        /* \"#utility.yul\":1874:1898   */\n      tag_314\n        /* \"#utility.yul\":1892:1897   */\n      dup3\n        /* \"#utility.yul\":1874:1898   */\n      tag_258\n      jump\t// in\n    tag_314:\n        /* \"#utility.yul\":1863:1898   */\n      swap1\n      pop\n        /* \"#utility.yul\":1808:1904   */\n      swap2\n      swap1\n      pop\n      jump\t// out\n        /* \"#utility.yul\":1910:2032   */\n    tag_260:\n        /* \"#utility.yul\":1983:2007   */\n      tag_316\n        /* \"#utility.yul\":2001:2006   */\n      dup2\n        /* \"#utility.yul\":1983:2007   */\n      tag_259\n      jump\t// in\n    tag_316:\n        /* \"#utility.yul\":1976:1981   */\n      dup2\n        /* \"#utility.yul\":1973:2008   */\n      eq\n        /* \"#utility.yul\":1963:2026   */\n      tag_317\n      jumpi\n        /* \"#utility.yul\":2022:2023   */\n      0x00\n        /* \"#utility.yul\":2019:2020   */\n      dup1\n        /* \"#utility.yul\":2012:2024   */\n      revert\n        /* \"#utility.yul\":1963:2026   */\n    tag_317:\n        /* \"#utility.yul\":1910:2032   */\n      pop\n      jump\t// out\n        /* \"#utility.yul\":2038:2177   */\n    tag_261:\n        /* \"#utility.yul\":2084:2089   */\n      0x00\n        /* \"#utility.yul\":2122:2128   */\n      dup2\n        /* \"#utility.yul\":2109:2129   */\n      calldataload\n        /* \"#utility.yul\":2100:2129   */\n      swap1\n      pop\n        /* \"#utility.yul\":2138:2171   */\n      tag_319\n        /* \"#utility.yul\":2165:2170   */\n      dup2\n        /* \"#utility.yul\":2138:2171   */\n      tag_260\n      jump\t// in\n    tag_319:\n        /* \"#utility.yul\":2038:2177   */\n      swap3\n      swap2\n      pop\n      pop\n      jump\t// out\n        /* \"#utility.yul\":2183:2260   */\n    tag_262:\n        /* \"#utility.yul\":2220:2227   */\n      0x00\n        /* \"#utility.yul\":2249:2254   */\n      dup2\n        /* \"#utility.yul\":2238:2254   */\n      swap1\n      pop\n        /* \"#utility.yul\":2183:2260   */\n      swap2\n      swap1\n      pop\n      jump\t// out\n        /* \"#utility.yul\":2266:2388   */\n    tag_263:\n        /* \"#utility.yul\":2339:2363   */\n      tag_322\n        /* \"#utility.yul\":2357:2362   */\n      dup2\n        /* \"#utility.yul\":2339:2363   */\n      tag_262\n      jump\t// in\n    tag_322:\n        /* \"#utility.yul\":2332:2337   */\n      dup2\n        /* \"#utility.yul\":2329:2364   */\n      eq\n        /* \"#utility.yul\":2319:2382   */\n      tag_323\n      jumpi\n        /* \"#utility.yul\":2378:2379   */\n      0x00\n        /* \"#utility.yul\":2375:2376   */\n      dup1\n        /* \"#utility.yul\":2368:2380   */\n      revert\n        /* \"#utility.yul\":2319:2382   */\n    tag_323:\n        /* \"#utility.yul\":2266:2388   */\n      pop\n      jump\t// out\n        /* \"#utility.yul\":2394:2533   */\n    tag_264:\n        /* \"#utility.yul\":2440:2445   */\n      0x00\n        /* \"#utility.yul\":2478:2484   */\n      dup2\n        /* \"#utility.yul\":2465:2485   */\n      calldataload\n        /* \"#utility.yul\":2456:2485   */\n      swap1\n      pop\n        /* \"#utility.yul\":2494:2527   */\n      tag_325\n        /* \"#utility.yul\":2521:2526   */\n      dup2\n        /* \"#utility.yul\":2494:2527   */\n      tag_263\n      jump\t// in\n    tag_325:\n        /* \"#utility.yul\":2394:2533   */\n      swap3\n      swap2\n      pop\n      pop\n      jump\t// out\n        /* \"#utility.yul\":2539:3013   */\n    tag_34:\n        /* \"#utility.yul\":2607:2613   */\n      0x00\n        /* \"#utility.yul\":2615:2621   */\n      dup1\n        /* \"#utility.yul\":2664:2666   */\n      0x40\n        /* \"#utility.yul\":2652:2661   */\n      dup4\n        /* \"#utility.yul\":2643:2650   */\n      dup6\n        /* \"#utility.yul\":2639:2662   */\n      sub\n        /* \"#utility.yul\":2635:2667   */\n      slt\n        /* \"#utility.yul\":2632:2751   */\n      iszero\n      tag_327\n      jumpi\n        /* \"#utility.yul\":2670:2749   */\n      tag_328\n      tag_256\n      jump\t// in\n    tag_328:\n        /* \"#utility.yul\":2632:2751   */\n    tag_327:\n        /* \"#utility.yul\":2790:2791   */\n      0x00\n        /* \"#utility.yul\":2815:2868   */\n      tag_329\n        /* \"#utility.yul\":2860:2867   */\n      dup6\n        /* \"#utility.yul\":2851:2857   */\n      dup3\n        /* \"#utility.yul\":2840:2849   */\n      dup7\n        /* \"#utility.yul\":2836:2858   */\n      add\n        /* \"#utility.yul\":2815:2868   */\n      tag_261\n      jump\t// in\n    tag_329:\n        /* \"#utility.yul\":2805:2868   */\n      swap3\n      pop\n        /* \"#utility.yul\":2761:2878   */\n      pop\n        /* \"#utility.yul\":2917:2919   */\n      0x20\n        /* \"#utility.yul\":2943:2996   */\n      tag_330\n        /* \"#utility.yul\":2988:2995   */\n      dup6\n        /* \"#utility.yul\":2979:2985   */\n      dup3\n        /* \"#utility.yul\":2968:2977   */\n      dup7\n        /* \"#utility.yul\":2964:2986   */\n      add\n        /* \"#utility.yul\":2943:2996   */\n      tag_264\n      jump\t// in\n    tag_330:\n        /* \"#utility.yul\":2933:2996   */\n      swap2\n      pop\n        /* \"#utility.yul\":2888:3006   */\n      pop\n        /* \"#utility.yul\":2539:3013   */\n      swap3\n      pop\n      swap3\n      swap1\n      pop\n      jump\t// out\n        /* \"#utility.yul\":3019:3109   */\n    tag_265:\n        /* \"#utility.yul\":3053:3060   */\n      0x00\n        /* \"#utility.yul\":3096:3101   */\n      dup2\n        /* \"#utility.yul\":3089:3102   */\n      iszero\n        /* \"#utility.yul\":3082:3103   */\n      iszero\n        /* \"#utility.yul\":3071:3103   */\n      swap1\n      pop\n        /* \"#utility.yul\":3019:3109   */\n      swap2\n      swap1\n      pop\n      jump\t// out\n        /* \"#utility.yul\":3115:3224   */\n    tag_266:\n        /* \"#utility.yul\":3196:3217   */\n      tag_333\n        /* \"#utility.yul\":3211:3216   */\n      dup2\n        /* \"#utility.yul\":3196:3217   */\n      tag_265\n      jump\t// in\n    tag_333:\n        /* \"#utility.yul\":3191:3194   */\n      dup3\n        /* \"#utility.yul\":3184:3218   */\n      mstore\n        /* \"#utility.yul\":3115:3224   */\n      pop\n      pop\n      jump\t// out\n        /* \"#utility.yul\":3230:3440   */\n    tag_37:\n        /* \"#utility.yul\":3317:3321   */\n      0x00\n        /* \"#utility.yul\":3355:3357   */\n      0x20\n        /* \"#utility.yul\":3344:3353   */\n      dup3\n        /* \"#utility.yul\":3340:3358   */\n      add\n        /* \"#utility.yul\":3332:3358   */\n      swap1\n      pop\n        /* \"#utility.yul\":3368:3433   */\n      tag_335\n        /* \"#utility.yul\":3430:3431   */\n      0x00\n        /* \"#utility.yul\":3419:3428   */\n      dup4\n        /* \"#utility.yul\":3415:3432   */\n      add\n        /* \"#utility.yul\":3406:3412   */\n      dup5\n        /* \"#utility.yul\":3368:3433   */\n      tag_266\n      jump\t// in\n    tag_335:\n        /* \"#utility.yul\":3230:3440   */\n      swap3\n      swap2\n      pop\n      pop\n      jump\t// out\n        /* \"#utility.yul\":3446:3775   */\n    tag_40:\n        /* \"#utility.yul\":3505:3511   */\n      0x00\n        /* \"#utility.yul\":3554:3556   */\n      0x20\n        /* \"#utility.yul\":3542:3551   */\n      dup3\n        /* \"#utility.yul\":3533:3540   */\n      dup5\n        /* \"#utility.yul\":3529:3552   */\n      sub\n        /* \"#utility.yul\":3525:3557   */\n      slt\n        /* \"#utility.yul\":3522:3641   */\n      iszero\n      tag_337\n      jumpi\n        /* \"#utility.yul\":3560:3639   */\n      tag_338\n      tag_256\n      jump\t// in\n    tag_338:\n        /* \"#utility.yul\":3522:3641   */\n    tag_337:\n        /* \"#utility.yul\":3680:3681   */\n      0x00\n        /* \"#utility.yul\":3705:3758   */\n      tag_339\n        /* \"#utility.yul\":3750:3757   */\n      dup5\n        /* \"#utility.yul\":3741:3747   */\n      dup3\n        /* \"#utility.yul\":3730:3739   */\n      dup6\n        /* \"#utility.yul\":3726:3748   */\n      add\n        /* \"#utility.yul\":3705:3758   */\n      tag_264\n      jump\t// in\n    tag_339:\n        /* \"#utility.yul\":3695:3758   */\n      swap2\n      pop\n        /* \"#utility.yul\":3651:3768   */\n      pop\n        /* \"#utility.yul\":3446:3775   */\n      swap3\n      swap2\n      pop\n      pop\n      jump\t// out\n        /* \"#utility.yul\":3781:3899   */\n    tag_267:\n        /* \"#utility.yul\":3868:3892   */\n      tag_341\n        /* \"#utility.yul\":3886:3891   */\n      dup2\n        /* \"#utility.yul\":3868:3892   */\n      tag_259\n      jump\t// in\n    tag_341:\n        /* \"#utility.yul\":3863:3866   */\n      dup3\n        /* \"#utility.yul\":3856:3893   */\n      mstore\n        /* \"#utility.yul\":3781:3899   */\n      pop\n      pop\n      jump\t// out\n        /* \"#utility.yul\":3905:4023   */\n    tag_268:\n        /* \"#utility.yul\":3992:4016   */\n      tag_343\n        /* \"#utility.yul\":4010:4015   */\n      dup2\n        /* \"#utility.yul\":3992:4016   */\n      tag_262\n      jump\t// in\n    tag_343:\n        /* \"#utility.yul\":3987:3990   */\n      dup3\n        /* \"#utility.yul\":3980:4017   */\n      mstore\n        /* \"#utility.yul\":3905:4023   */\n      pop\n      pop\n      jump\t// out\n        /* \"#utility.yul\":4029:4361   */\n    tag_43:\n        /* \"#utility.yul\":4150:4154   */\n      0x00\n        /* \"#utility.yul\":4188:4190   */\n      0x40\n        /* \"#utility.yul\":4177:4186   */\n      dup3\n        /* \"#utility.yul\":4173:4191   */\n      add\n        /* \"#utility.yul\":4165:4191   */\n      swap1\n      pop\n        /* \"#utility.yul\":4201:4272   */\n      tag_345\n        /* \"#utility.yul\":4269:4270   */\n      0x00\n        /* \"#utility.yul\":4258:4267   */\n      dup4\n        /* \"#utility.yul\":4254:4271   */\n      add\n        /* \"#utility.yul\":4245:4251   */\n      dup6\n        /* \"#utility.yul\":4201:4272   */\n      tag_267\n      jump\t// in\n    tag_345:\n        /* \"#utility.yul\":4282:4354   */\n      tag_346\n        /* \"#utility.yul\":4350:4352   */\n      0x20\n        /* \"#utility.yul\":4339:4348   */\n      dup4\n        /* \"#utility.yul\":4335:4353   */\n      add\n        /* \"#utility.yul\":4326:4332   */\n      dup5\n        /* \"#utility.yul\":4282:4354   */\n      tag_268\n      jump\t// in\n    tag_346:\n        /* \"#utility.yul\":4029:4361   */\n      swap4\n      swap3\n      pop\n      pop\n      pop\n      jump\t// out\n        /* \"#utility.yul\":4367:4589   */\n    tag_47:\n        /* \"#utility.yul\":4460:4464   */\n      0x00\n        /* \"#utility.yul\":4498:4500   */\n      0x20\n        /* \"#utility.yul\":4487:4496   */\n      dup3\n        /* \"#utility.yul\":4483:4501   */\n      add\n        /* \"#utility.yul\":4475:4501   */\n      swap1\n      pop\n        /* \"#utility.yul\":4511:4582   */\n      tag_348\n        /* \"#utility.yul\":4579:4580   */\n      0x00\n        /* \"#utility.yul\":4568:4577   */\n      dup4\n        /* \"#utility.yul\":4564:4581   */\n      add\n        /* \"#utility.yul\":4555:4561   */\n      dup5\n        /* \"#utility.yul\":4511:4582   */\n      tag_268\n      jump\t// in\n    tag_348:\n        /* \"#utility.yul\":4367:4589   */\n      swap3\n      swap2\n      pop\n      pop\n      jump\t// out\n        /* \"#utility.yul\":4595:5214   */\n    tag_50:\n        /* \"#utility.yul\":4672:4678   */\n      0x00\n        /* \"#utility.yul\":4680:4686   */\n      dup1\n        /* \"#utility.yul\":4688:4694   */\n      0x00\n        /* \"#utility.yul\":4737:4739   */\n      0x60\n        /* \"#utility.yul\":4725:4734   */\n      dup5\n        /* \"#utility.yul\":4716:4723   */\n      dup7\n        /* \"#utility.yul\":4712:4735   */\n      sub\n        /* \"#utility.yul\":4708:4740   */\n      slt\n        /* \"#utility.yul\":4705:4824   */\n      iszero\n      tag_350\n      jumpi\n        /* \"#utility.yul\":4743:4822   */\n      tag_351\n      tag_256\n      jump\t// in\n    tag_351:\n        /* \"#utility.yul\":4705:4824   */\n    tag_350:\n        /* \"#utility.yul\":4863:4864   */\n      0x00\n        /* \"#utility.yul\":4888:4941   */\n      tag_352\n        /* \"#utility.yul\":4933:4940   */\n      dup7\n        /* \"#utility.yul\":4924:4930   */\n      dup3\n        /* \"#utility.yul\":4913:4922   */\n      dup8\n        /* \"#utility.yul\":4909:4931   */\n      add\n        /* \"#utility.yul\":4888:4941   */\n      tag_261\n      jump\t// in\n    tag_352:\n        /* \"#utility.yul\":4878:4941   */\n      swap4\n      pop\n        /* \"#utility.yul\":4834:4951   */\n      pop\n        /* \"#utility.yul\":4990:4992   */\n      0x20\n        /* \"#utility.yul\":5016:5069   */\n      tag_353\n        /* \"#utility.yul\":5061:5068   */\n      dup7\n        /* \"#utility.yul\":5052:5058   */\n      dup3\n        /* \"#utility.yul\":5041:5050   */\n      dup8\n        /* \"#utility.yul\":5037:5059   */\n      add\n        /* \"#utility.yul\":5016:5069   */\n      tag_261\n      jump\t// in\n    tag_353:\n        /* \"#utility.yul\":5006:5069   */\n      swap3\n      pop\n        /* \"#utility.yul\":4961:5079   */\n      pop\n        /* \"#utility.yul\":5118:5120   */\n      0x40\n        /* \"#utility.yul\":5144:5197   */\n      tag_354\n        /* \"#utility.yul\":5189:5196   */\n      dup7\n        /* \"#utility.yul\":5180:5186   */\n      dup3\n        /* \"#utility.yul\":5169:5178   */\n      dup8\n        /* \"#utility.yul\":5165:5187   */\n      add\n        /* \"#utility.yul\":5144:5197   */\n      tag_264\n      jump\t// in\n    tag_354:\n        /* \"#utility.yul\":5134:5197   */\n      swap2\n      pop\n        /* \"#utility.yul\":5089:5207   */\n      pop\n        /* \"#utility.yul\":4595:5214   */\n      swap3\n      pop\n      swap3\n      pop\n      swap3\n      jump\t// out\n        /* \"#utility.yul\":5220:5306   */\n    tag_269:\n        /* \"#utility.yul\":5255:5262   */\n      0x00\n        /* \"#utility.yul\":5295:5299   */\n      0xff\n        /* \"#utility.yul\":5288:5293   */\n      dup3\n        /* \"#utility.yul\":5284:5300   */\n      and\n        /* \"#utility.yul\":5273:5300   */\n      swap1\n      pop\n        /* \"#utility.yul\":5220:5306   */\n      swap2\n      swap1\n      pop\n      jump\t// out\n        /* \"#utility.yul\":5312:5424   */\n    tag_270:\n        /* \"#utility.yul\":5395:5417   */\n      tag_357\n        /* \"#utility.yul\":5411:5416   */\n      dup2\n        /* \"#utility.yul\":5395:5417   */\n      tag_269\n      jump\t// in\n    tag_357:\n        /* \"#utility.yul\":5390:5393   */\n      dup3\n        /* \"#utility.yul\":5383:5418   */\n      mstore\n        /* \"#utility.yul\":5312:5424   */\n      pop\n      pop\n      jump\t// out\n        /* \"#utility.yul\":5430:5644   */\n    tag_56:\n        /* \"#utility.yul\":5519:5523   */\n      0x00\n        /* \"#utility.yul\":5557:5559   */\n      0x20\n        /* \"#utility.yul\":5546:5555   */\n      dup3\n        /* \"#utility.yul\":5542:5560   */\n      add\n        /* \"#utility.yul\":5534:5560   */\n      swap1\n      pop\n        /* \"#utility.yul\":5570:5637   */\n      tag_359\n        /* \"#utility.yul\":5634:5635   */\n      0x00\n        /* \"#utility.yul\":5623:5632   */\n      dup4\n        /* \"#utility.yul\":5619:5636   */\n      add\n        /* \"#utility.yul\":5610:5616   */\n      dup5\n        /* \"#utility.yul\":5570:5637   */\n      tag_270\n      jump\t// in\n    tag_359:\n        /* \"#utility.yul\":5430:5644   */\n      swap3\n      swap2\n      pop\n      pop\n      jump\t// out\n        /* \"#utility.yul\":5650:5796   */\n    tag_271:\n        /* \"#utility.yul\":5749:5755   */\n      0x00\n        /* \"#utility.yul\":5783:5788   */\n      dup2\n        /* \"#utility.yul\":5777:5789   */\n      mload\n        /* \"#utility.yul\":5767:5789   */\n      swap1\n      pop\n        /* \"#utility.yul\":5650:5796   */\n      swap2\n      swap1\n      pop\n      jump\t// out\n        /* \"#utility.yul\":5802:6018   */\n    tag_272:\n        /* \"#utility.yul\":5933:5944   */\n      0x00\n        /* \"#utility.yul\":5967:5973   */\n      dup3\n        /* \"#utility.yul\":5962:5965   */\n      dup3\n        /* \"#utility.yul\":5955:5974   */\n      mstore\n        /* \"#utility.yul\":6007:6011   */\n      0x20\n        /* \"#utility.yul\":6002:6005   */\n      dup3\n        /* \"#utility.yul\":5998:6012   */\n      add\n        /* \"#utility.yul\":5983:6012   */\n      swap1\n      pop\n        /* \"#utility.yul\":5802:6018   */\n      swap3\n      swap2\n      pop\n      pop\n      jump\t// out\n        /* \"#utility.yul\":6024:6188   */\n    tag_273:\n        /* \"#utility.yul\":6123:6127   */\n      0x00\n        /* \"#utility.yul\":6146:6149   */\n      dup2\n        /* \"#utility.yul\":6138:6149   */\n      swap1\n      pop\n        /* \"#utility.yul\":6176:6180   */\n      0x20\n        /* \"#utility.yul\":6171:6174   */\n      dup3\n        /* \"#utility.yul\":6167:6181   */\n      add\n        /* \"#utility.yul\":6159:6181   */\n      swap1\n      pop\n        /* \"#utility.yul\":6024:6188   */\n      swap2\n      swap1\n      pop\n      jump\t// out\n        /* \"#utility.yul\":6194:6302   */\n    tag_274:\n        /* \"#utility.yul\":6271:6295   */\n      tag_364\n        /* \"#utility.yul\":6289:6294   */\n      dup2\n        /* \"#utility.yul\":6271:6295   */\n      tag_259\n      jump\t// in\n    tag_364:\n        /* \"#utility.yul\":6266:6269   */\n      dup3\n        /* \"#utility.yul\":6259:6296   */\n      mstore\n        /* \"#utility.yul\":6194:6302   */\n      pop\n      pop\n      jump\t// out\n        /* \"#utility.yul\":6308:6416   */\n    tag_275:\n        /* \"#utility.yul\":6385:6409   */\n      tag_366\n        /* \"#utility.yul\":6403:6408   */\n      dup2\n        /* \"#utility.yul\":6385:6409   */\n      tag_262\n      jump\t// in\n    tag_366:\n        /* \"#utility.yul\":6380:6383   */\n      dup3\n        /* \"#utility.yul\":6373:6410   */\n      mstore\n        /* \"#utility.yul\":6308:6416   */\n      pop\n      pop\n      jump\t// out\n        /* \"#utility.yul\":6490:7019   */\n    tag_276:\n        /* \"#utility.yul\":6641:6645   */\n      0x40\n        /* \"#utility.yul\":6636:6639   */\n      dup3\n        /* \"#utility.yul\":6632:6646   */\n      add\n        /* \"#utility.yul\":6744:6748   */\n      0x00\n        /* \"#utility.yul\":6737:6742   */\n      dup3\n        /* \"#utility.yul\":6733:6749   */\n      add\n        /* \"#utility.yul\":6727:6750   */\n      mload\n        /* \"#utility.yul\":6763:6826   */\n      tag_368\n        /* \"#utility.yul\":6820:6824   */\n      0x00\n        /* \"#utility.yul\":6815:6818   */\n      dup6\n        /* \"#utility.yul\":6811:6825   */\n      add\n        /* \"#utility.yul\":6797:6809   */\n      dup3\n        /* \"#utility.yul\":6763:6826   */\n      tag_274\n      jump\t// in\n    tag_368:\n        /* \"#utility.yul\":6656:6836   */\n      pop\n        /* \"#utility.yul\":6920:6924   */\n      0x20\n        /* \"#utility.yul\":6913:6918   */\n      dup3\n        /* \"#utility.yul\":6909:6925   */\n      add\n        /* \"#utility.yul\":6903:6926   */\n      mload\n        /* \"#utility.yul\":6939:7002   */\n      tag_369\n        /* \"#utility.yul\":6996:7000   */\n      0x20\n        /* \"#utility.yul\":6991:6994   */\n      dup6\n        /* \"#utility.yul\":6987:7001   */\n      add\n        /* \"#utility.yul\":6973:6985   */\n      dup3\n        /* \"#utility.yul\":6939:7002   */\n      tag_275\n      jump\t// in\n    tag_369:\n        /* \"#utility.yul\":6846:7012   */\n      pop\n        /* \"#utility.yul\":6610:7019   */\n      pop\n        /* \"#utility.yul\":6490:7019   */\n      pop\n      pop\n      jump\t// out\n        /* \"#utility.yul\":7025:7332   */\n    tag_277:\n        /* \"#utility.yul\":7158:7168   */\n      0x00\n        /* \"#utility.yul\":7179:7289   */\n      tag_371\n        /* \"#utility.yul\":7285:7288   */\n      dup4\n        /* \"#utility.yul\":7277:7283   */\n      dup4\n        /* \"#utility.yul\":7179:7289   */\n      tag_276\n      jump\t// in\n    tag_371:\n        /* \"#utility.yul\":7321:7325   */\n      0x40\n        /* \"#utility.yul\":7316:7319   */\n      dup4\n        /* \"#utility.yul\":7312:7326   */\n      add\n        /* \"#utility.yul\":7298:7326   */\n      swap1\n      pop\n        /* \"#utility.yul\":7025:7332   */\n      swap3\n      swap2\n      pop\n      pop\n      jump\t// out\n        /* \"#utility.yul\":7338:7483   */\n    tag_278:\n        /* \"#utility.yul\":7440:7444   */\n      0x00\n        /* \"#utility.yul\":7472:7476   */\n      0x20\n        /* \"#utility.yul\":7467:7470   */\n      dup3\n        /* \"#utility.yul\":7463:7477   */\n      add\n        /* \"#utility.yul\":7455:7477   */\n      swap1\n      pop\n        /* \"#utility.yul\":7338:7483   */\n      swap2\n      swap1\n      pop\n      jump\t// out\n        /* \"#utility.yul\":7561:8549   */\n    tag_279:\n        /* \"#utility.yul\":7744:7747   */\n      0x00\n        /* \"#utility.yul\":7773:7859   */\n      tag_374\n        /* \"#utility.yul\":7853:7858   */\n      dup3\n        /* \"#utility.yul\":7773:7859   */\n      tag_271\n      jump\t// in\n    tag_374:\n        /* \"#utility.yul\":7875:7993   */\n      tag_375\n        /* \"#utility.yul\":7986:7992   */\n      dup2\n        /* \"#utility.yul\":7981:7984   */\n      dup6\n        /* \"#utility.yul\":7875:7993   */\n      tag_272\n      jump\t// in\n    tag_375:\n        /* \"#utility.yul\":7868:7993   */\n      swap4\n      pop\n        /* \"#utility.yul\":8017:8105   */\n      tag_376\n        /* \"#utility.yul\":8099:8104   */\n      dup4\n        /* \"#utility.yul\":8017:8105   */\n      tag_273\n      jump\t// in\n    tag_376:\n        /* \"#utility.yul\":8128:8135   */\n      dup1\n        /* \"#utility.yul\":8159:8160   */\n      0x00\n        /* \"#utility.yul\":8144:8524   */\n    tag_377:\n        /* \"#utility.yul\":8169:8175   */\n      dup4\n        /* \"#utility.yul\":8166:8167   */\n      dup2\n        /* \"#utility.yul\":8163:8176   */\n      lt\n        /* \"#utility.yul\":8144:8524   */\n      iszero\n      tag_379\n      jumpi\n        /* \"#utility.yul\":8245:8251   */\n      dup2\n        /* \"#utility.yul\":8239:8252   */\n      mload\n        /* \"#utility.yul\":8272:8399   */\n      tag_380\n        /* \"#utility.yul\":8395:8398   */\n      dup9\n        /* \"#utility.yul\":8380:8393   */\n      dup3\n        /* \"#utility.yul\":8272:8399   */\n      tag_277\n      jump\t// in\n    tag_380:\n        /* \"#utility.yul\":8265:8399   */\n      swap8\n      pop\n        /* \"#utility.yul\":8422:8514   */\n      tag_381\n        /* \"#utility.yul\":8507:8513   */\n      dup4\n        /* \"#utility.yul\":8422:8514   */\n      tag_278\n      jump\t// in\n    tag_381:\n        /* \"#utility.yul\":8412:8514   */\n      swap3\n      pop\n        /* \"#utility.yul\":8204:8524   */\n      pop\n        /* \"#utility.yul\":8191:8192   */\n      0x01\n        /* \"#utility.yul\":8188:8189   */\n      dup2\n        /* \"#utility.yul\":8184:8193   */\n      add\n        /* \"#utility.yul\":8179:8193   */\n      swap1\n      pop\n        /* \"#utility.yul\":8144:8524   */\n      jump(tag_377)\n    tag_379:\n        /* \"#utility.yul\":8148:8162   */\n      pop\n        /* \"#utility.yul\":8540:8543   */\n      dup6\n        /* \"#utility.yul\":8533:8543   */\n      swap4\n      pop\n        /* \"#utility.yul\":7749:8549   */\n      pop\n      pop\n      pop\n        /* \"#utility.yul\":7561:8549   */\n      swap3\n      swap2\n      pop\n      pop\n      jump\t// out\n        /* \"#utility.yul\":8555:9056   */\n    tag_66:\n        /* \"#utility.yul\":8762:8766   */\n      0x00\n        /* \"#utility.yul\":8800:8802   */\n      0x20\n        /* \"#utility.yul\":8789:8798   */\n      dup3\n        /* \"#utility.yul\":8785:8803   */\n      add\n        /* \"#utility.yul\":8777:8803   */\n      swap1\n      pop\n        /* \"#utility.yul\":8849:8858   */\n      dup2\n        /* \"#utility.yul\":8843:8847   */\n      dup2\n        /* \"#utility.yul\":8839:8859   */\n      sub\n        /* \"#utility.yul\":8835:8836   */\n      0x00\n        /* \"#utility.yul\":8824:8833   */\n      dup4\n        /* \"#utility.yul\":8820:8837   */\n      add\n        /* \"#utility.yul\":8813:8860   */\n      mstore\n        /* \"#utility.yul\":8877:9049   */\n      tag_383\n        /* \"#utility.yul\":9044:9048   */\n      dup2\n        /* \"#utility.yul\":9035:9041   */\n      dup5\n        /* \"#utility.yul\":8877:9049   */\n      tag_279\n      jump\t// in\n    tag_383:\n        /* \"#utility.yul\":8869:9049   */\n      swap1\n      pop\n        /* \"#utility.yul\":8555:9056   */\n      swap3\n      swap2\n      pop\n      pop\n      jump\t// out\n        /* \"#utility.yul\":9062:9242   */\n    tag_157:\n        /* \"#utility.yul\":9110:9187   */\n      0x4e487b7100000000000000000000000000000000000000000000000000000000\n        /* \"#utility.yul\":9107:9108   */\n      0x00\n        /* \"#utility.yul\":9100:9188   */\n      mstore\n        /* \"#utility.yul\":9207:9211   */\n      0x21\n        /* \"#utility.yul\":9204:9205   */\n      0x04\n        /* \"#utility.yul\":9197:9212   */\n      mstore\n        /* \"#utility.yul\":9231:9235   */\n      0x24\n        /* \"#utility.yul\":9228:9229   */\n      0x00\n        /* \"#utility.yul\":9221:9236   */\n      revert\n        /* \"#utility.yul\":9248:9364   */\n    tag_280:\n        /* \"#utility.yul\":9332:9333   */\n      0x05\n        /* \"#utility.yul\":9325:9330   */\n      dup2\n        /* \"#utility.yul\":9322:9334   */\n      lt\n        /* \"#utility.yul\":9312:9358   */\n      tag_386\n      jumpi\n        /* \"#utility.yul\":9338:9356   */\n      tag_387\n      tag_157\n      jump\t// in\n    tag_387:\n        /* \"#utility.yul\":9312:9358   */\n    tag_386:\n        /* \"#utility.yul\":9248:9364   */\n      pop\n      jump\t// out\n        /* \"#utility.yul\":9370:9503   */\n    tag_281:\n        /* \"#utility.yul\":9418:9425   */\n      0x00\n        /* \"#utility.yul\":9447:9452   */\n      dup2\n        /* \"#utility.yul\":9436:9452   */\n      swap1\n      pop\n        /* \"#utility.yul\":9453:9497   */\n      tag_389\n        /* \"#utility.yul\":9491:9496   */\n      dup3\n        /* \"#utility.yul\":9453:9497   */\n      tag_280\n      jump\t// in\n    tag_389:\n        /* \"#utility.yul\":9370:9503   */\n      swap2\n      swap1\n      pop\n      jump\t// out\n        /* \"#utility.yul\":9509:9642   */\n    tag_282:\n        /* \"#utility.yul\":9568:9577   */\n      0x00\n        /* \"#utility.yul\":9601:9636   */\n      tag_391\n        /* \"#utility.yul\":9630:9635   */\n      dup3\n        /* \"#utility.yul\":9601:9636   */\n      tag_281\n      jump\t// in\n    tag_391:\n        /* \"#utility.yul\":9588:9636   */\n      swap1\n      pop\n        /* \"#utility.yul\":9509:9642   */\n      swap2\n      swap1\n      pop\n      jump\t// out\n        /* \"#utility.yul\":9648:9797   */\n    tag_283:\n        /* \"#utility.yul\":9744:9790   */\n      tag_393\n        /* \"#utility.yul\":9784:9789   */\n      dup2\n        /* \"#utility.yul\":9744:9790   */\n      tag_282\n      jump\t// in\n    tag_393:\n        /* \"#utility.yul\":9739:9742   */\n      dup3\n        /* \"#utility.yul\":9732:9791   */\n      mstore\n        /* \"#utility.yul\":9648:9797   */\n      pop\n      pop\n      jump\t// out\n        /* \"#utility.yul\":9803:10043   */\n    tag_77:\n        /* \"#utility.yul\":9905:9909   */\n      0x00\n        /* \"#utility.yul\":9943:9945   */\n      0x20\n        /* \"#utility.yul\":9932:9941   */\n      dup3\n        /* \"#utility.yul\":9928:9946   */\n      add\n        /* \"#utility.yul\":9920:9946   */\n      swap1\n      pop\n        /* \"#utility.yul\":9956:10036   */\n      tag_395\n        /* \"#utility.yul\":10033:10034   */\n      0x00\n        /* \"#utility.yul\":10022:10031   */\n      dup4\n        /* \"#utility.yul\":10018:10035   */\n      add\n        /* \"#utility.yul\":10009:10015   */\n      dup5\n        /* \"#utility.yul\":9956:10036   */\n      tag_283\n      jump\t// in\n    tag_395:\n        /* \"#utility.yul\":9803:10043   */\n      swap3\n      swap2\n      pop\n      pop\n      jump\t// out\n        /* \"#utility.yul\":10049:10378   */\n    tag_80:\n        /* \"#utility.yul\":10108:10114   */\n      0x00\n        /* \"#utility.yul\":10157:10159   */\n      0x20\n        /* \"#utility.yul\":10145:10154   */\n      dup3\n        /* \"#utility.yul\":10136:10143   */\n      dup5\n        /* \"#utility.yul\":10132:10155   */\n      sub\n        /* \"#utility.yul\":10128:10160   */\n      slt\n        /* \"#utility.yul\":10125:10244   */\n      iszero\n      tag_397\n      jumpi\n        /* \"#utility.yul\":10163:10242   */\n      tag_398\n      tag_256\n      jump\t// in\n    tag_398:\n        /* \"#utility.yul\":10125:10244   */\n    tag_397:\n        /* \"#utility.yul\":10283:10284   */\n      0x00\n        /* \"#utility.yul\":10308:10361   */\n      tag_399\n        /* \"#utility.yul\":10353:10360   */\n      dup5\n        /* \"#utility.yul\":10344:10350   */\n      dup3\n        /* \"#utility.yul\":10333:10342   */\n      dup6\n        /* \"#utility.yul\":10329:10351   */\n      add\n        /* \"#utility.yul\":10308:10361   */\n      tag_261\n      jump\t// in\n    tag_399:\n        /* \"#utility.yul\":10298:10361   */\n      swap2\n      pop\n        /* \"#utility.yul\":10254:10371   */\n      pop\n        /* \"#utility.yul\":10049:10378   */\n      swap3\n      swap2\n      pop\n      pop\n      jump\t// out\n        /* \"#utility.yul\":10384:10606   */\n    tag_91:\n        /* \"#utility.yul\":10477:10481   */\n      0x00\n        /* \"#utility.yul\":10515:10517   */\n      0x20\n        /* \"#utility.yul\":10504:10513   */\n      dup3\n        /* \"#utility.yul\":10500:10518   */\n      add\n        /* \"#utility.yul\":10492:10518   */\n      swap1\n      pop\n        /* \"#utility.yul\":10528:10599   */\n      tag_401\n        /* \"#utility.yul\":10596:10597   */\n      0x00\n        /* \"#utility.yul\":10585:10594   */\n      dup4\n        /* \"#utility.yul\":10581:10598   */\n      add\n        /* \"#utility.yul\":10572:10578   */\n      dup5\n        /* \"#utility.yul\":10528:10599   */\n      tag_267\n      jump\t// in\n    tag_401:\n        /* \"#utility.yul\":10384:10606   */\n      swap3\n      swap2\n      pop\n      pop\n      jump\t// out\n        /* \"#utility.yul\":10612:10722   */\n    tag_284:\n        /* \"#utility.yul\":10696:10697   */\n      0x05\n        /* \"#utility.yul\":10689:10694   */\n      dup2\n        /* \"#utility.yul\":10686:10698   */\n      lt\n        /* \"#utility.yul\":10676:10716   */\n      tag_403\n      jumpi\n        /* \"#utility.yul\":10712:10713   */\n      0x00\n        /* \"#utility.yul\":10709:10710   */\n      dup1\n        /* \"#utility.yul\":10702:10714   */\n      revert\n        /* \"#utility.yul\":10676:10716   */\n    tag_403:\n        /* \"#utility.yul\":10612:10722   */\n      pop\n      jump\t// out\n        /* \"#utility.yul\":10728:10889   */\n    tag_285:\n        /* \"#utility.yul\":10785:10790   */\n      0x00\n        /* \"#utility.yul\":10823:10829   */\n      dup2\n        /* \"#utility.yul\":10810:10830   */\n      calldataload\n        /* \"#utility.yul\":10801:10830   */\n      swap1\n      pop\n        /* \"#utility.yul\":10839:10883   */\n      tag_405\n        /* \"#utility.yul\":10877:10882   */\n      dup2\n        /* \"#utility.yul\":10839:10883   */\n      tag_284\n      jump\t// in\n    tag_405:\n        /* \"#utility.yul\":10728:10889   */\n      swap3\n      swap2\n      pop\n      pop\n      jump\t// out\n        /* \"#utility.yul\":10895:11246   */\n    tag_101:\n        /* \"#utility.yul\":10965:10971   */\n      0x00\n        /* \"#utility.yul\":11014:11016   */\n      0x20\n        /* \"#utility.yul\":11002:11011   */\n      dup3\n        /* \"#utility.yul\":10993:11000   */\n      dup5\n        /* \"#utility.yul\":10989:11012   */\n      sub\n        /* \"#utility.yul\":10985:11017   */\n      slt\n        /* \"#utility.yul\":10982:11101   */\n      iszero\n      tag_407\n      jumpi\n        /* \"#utility.yul\":11020:11099   */\n      tag_408\n      tag_256\n      jump\t// in\n    tag_408:\n        /* \"#utility.yul\":10982:11101   */\n    tag_407:\n        /* \"#utility.yul\":11140:11141   */\n      0x00\n        /* \"#utility.yul\":11165:11229   */\n      tag_409\n        /* \"#utility.yul\":11221:11228   */\n      dup5\n        /* \"#utility.yul\":11212:11218   */\n      dup3\n        /* \"#utility.yul\":11201:11210   */\n      dup6\n        /* \"#utility.yul\":11197:11219   */\n      add\n        /* \"#utility.yul\":11165:11229   */\n      tag_285\n      jump\t// in\n    tag_409:\n        /* \"#utility.yul\":11155:11229   */\n      swap2\n      pop\n        /* \"#utility.yul\":11111:11239   */\n      pop\n        /* \"#utility.yul\":10895:11246   */\n      swap3\n      swap2\n      pop\n      pop\n      jump\t// out\n        /* \"#utility.yul\":11252:11726   */\n    tag_105:\n        /* \"#utility.yul\":11320:11326   */\n      0x00\n        /* \"#utility.yul\":11328:11334   */\n      dup1\n        /* \"#utility.yul\":11377:11379   */\n      0x40\n        /* \"#utility.yul\":11365:11374   */\n      dup4\n        /* \"#utility.yul\":11356:11363   */\n      dup6\n        /* \"#utility.yul\":11352:11375   */\n      sub\n        /* \"#utility.yul\":11348:11380   */\n      slt\n        /* \"#utility.yul\":11345:11464   */\n      iszero\n      tag_411\n      jumpi\n        /* \"#utility.yul\":11383:11462   */\n      tag_412\n      tag_256\n      jump\t// in\n    tag_412:\n        /* \"#utility.yul\":11345:11464   */\n    tag_411:\n        /* \"#utility.yul\":11503:11504   */\n      0x00\n        /* \"#utility.yul\":11528:11581   */\n      tag_413\n        /* \"#utility.yul\":11573:11580   */\n      dup6\n        /* \"#utility.yul\":11564:11570   */\n      dup3\n        /* \"#utility.yul\":11553:11562   */\n      dup7\n        /* \"#utility.yul\":11549:11571   */\n      add\n        /* \"#utility.yul\":11528:11581   */\n      tag_261\n      jump\t// in\n    tag_413:\n        /* \"#utility.yul\":11518:11581   */\n      swap3\n      pop\n        /* \"#utility.yul\":11474:11591   */\n      pop\n        /* \"#utility.yul\":11630:11632   */\n      0x20\n        /* \"#utility.yul\":11656:11709   */\n      tag_414\n        /* \"#utility.yul\":11701:11708   */\n      dup6\n        /* \"#utility.yul\":11692:11698   */\n      dup3\n        /* \"#utility.yul\":11681:11690   */\n      dup7\n        /* \"#utility.yul\":11677:11699   */\n      add\n        /* \"#utility.yul\":11656:11709   */\n      tag_261\n      jump\t// in\n    tag_414:\n        /* \"#utility.yul\":11646:11709   */\n      swap2\n      pop\n        /* \"#utility.yul\":11601:11719   */\n      pop\n        /* \"#utility.yul\":11252:11726   */\n      swap3\n      pop\n      swap3\n      swap1\n      pop\n      jump\t// out\n        /* \"#utility.yul\":11732:11912   */\n    tag_286:\n        /* \"#utility.yul\":11780:11857   */\n      0x4e487b7100000000000000000000000000000000000000000000000000000000\n        /* \"#utility.yul\":11777:11778   */\n      0x00\n        /* \"#utility.yul\":11770:11858   */\n      mstore\n        /* \"#utility.yul\":11877:11881   */\n      0x22\n        /* \"#utility.yul\":11874:11875   */\n      0x04\n        /* \"#utility.yul\":11867:11882   */\n      mstore\n        /* \"#utility.yul\":11901:11905   */\n      0x24\n        /* \"#utility.yul\":11898:11899   */\n      0x00\n        /* \"#utility.yul\":11891:11906   */\n      revert\n        /* \"#utility.yul\":11918:12238   */\n    tag_116:\n        /* \"#utility.yul\":11962:11968   */\n      0x00\n        /* \"#utility.yul\":11999:12000   */\n      0x02\n        /* \"#utility.yul\":11993:11997   */\n      dup3\n        /* \"#utility.yul\":11989:12001   */\n      div\n        /* \"#utility.yul\":11979:12001   */\n      swap1\n      pop\n        /* \"#utility.yul\":12046:12047   */\n      0x01\n        /* \"#utility.yul\":12040:12044   */\n      dup3\n        /* \"#utility.yul\":12036:12048   */\n      and\n        /* \"#utility.yul\":12067:12085   */\n      dup1\n        /* \"#utility.yul\":12057:12138   */\n      tag_417\n      jumpi\n        /* \"#utility.yul\":12123:12127   */\n      0x7f\n        /* \"#utility.yul\":12115:12121   */\n      dup3\n        /* \"#utility.yul\":12111:12128   */\n      and\n        /* \"#utility.yul\":12101:12128   */\n      swap2\n      pop\n        /* \"#utility.yul\":12057:12138   */\n    tag_417:\n        /* \"#utility.yul\":12185:12187   */\n      0x20\n        /* \"#utility.yul\":12177:12183   */\n      dup3\n        /* \"#utility.yul\":12174:12188   */\n      lt\n        /* \"#utility.yul\":12154:12172   */\n      dup2\n        /* \"#utility.yul\":12151:12189   */\n      sub\n        /* \"#utility.yul\":12148:12232   */\n      tag_418\n      jumpi\n        /* \"#utility.yul\":12204:12222   */\n      tag_419\n      tag_286\n      jump\t// in\n    tag_419:\n        /* \"#utility.yul\":12148:12232   */\n    tag_418:\n        /* \"#utility.yul\":11969:12238   */\n      pop\n        /* \"#utility.yul\":11918:12238   */\n      swap2\n      swap1\n      pop\n      jump\t// out\n        /* \"#utility.yul\":12244:12413   */\n    tag_287:\n        /* \"#utility.yul\":12384:12405   */\n      0x4e6f7420616c6c6f77656420746f206d696e7400000000000000000000000000\n        /* \"#utility.yul\":12380:12381   */\n      0x00\n        /* \"#utility.yul\":12372:12378   */\n      dup3\n        /* \"#utility.yul\":12368:12382   */\n      add\n        /* \"#utility.yul\":12361:12406   */\n      mstore\n        /* \"#utility.yul\":12244:12413   */\n      pop\n      jump\t// out\n        /* \"#utility.yul\":12419:12785   */\n    tag_288:\n        /* \"#utility.yul\":12561:12564   */\n      0x00\n        /* \"#utility.yul\":12582:12649   */\n      tag_422\n        /* \"#utility.yul\":12646:12648   */\n      0x13\n        /* \"#utility.yul\":12641:12644   */\n      dup4\n        /* \"#utility.yul\":12582:12649   */\n      tag_251\n      jump\t// in\n    tag_422:\n        /* \"#utility.yul\":12575:12649   */\n      swap2\n      pop\n        /* \"#utility.yul\":12658:12751   */\n      tag_423\n        /* \"#utility.yul\":12747:12750   */\n      dup3\n        /* \"#utility.yul\":12658:12751   */\n      tag_287\n      jump\t// in\n    tag_423:\n        /* \"#utility.yul\":12776:12778   */\n      0x20\n        /* \"#utility.yul\":12771:12774   */\n      dup3\n        /* \"#utility.yul\":12767:12779   */\n      add\n        /* \"#utility.yul\":12760:12779   */\n      swap1\n      pop\n        /* \"#utility.yul\":12419:12785   */\n      swap2\n      swap1\n      pop\n      jump\t// out\n        /* \"#utility.yul\":12791:13210   */\n    tag_139:\n        /* \"#utility.yul\":12957:12961   */\n      0x00\n        /* \"#utility.yul\":12995:12997   */\n      0x20\n        /* \"#utility.yul\":12984:12993   */\n      dup3\n        /* \"#utility.yul\":12980:12998   */\n      add\n        /* \"#utility.yul\":12972:12998   */\n      swap1\n      pop\n        /* \"#utility.yul\":13044:13053   */\n      dup2\n        /* \"#utility.yul\":13038:13042   */\n      dup2\n        /* \"#utility.yul\":13034:13054   */\n      sub\n        /* \"#utility.yul\":13030:13031   */\n      0x00\n        /* \"#utility.yul\":13019:13028   */\n      dup4\n        /* \"#utility.yul\":13015:13032   */\n      add\n        /* \"#utility.yul\":13008:13055   */\n      mstore\n        /* \"#utility.yul\":13072:13203   */\n      tag_425\n        /* \"#utility.yul\":13198:13202   */\n      dup2\n        /* \"#utility.yul\":13072:13203   */\n      tag_288\n      jump\t// in\n    tag_425:\n        /* \"#utility.yul\":13064:13203   */\n      swap1\n      pop\n        /* \"#utility.yul\":12791:13210   */\n      swap2\n      swap1\n      pop\n      jump\t// out\n        /* \"#utility.yul\":13216:13385   */\n    tag_289:\n        /* \"#utility.yul\":13356:13377   */\n      0x4e6f7420616c6c6f77656420746f206275726e00000000000000000000000000\n        /* \"#utility.yul\":13352:13353   */\n      0x00\n        /* \"#utility.yul\":13344:13350   */\n      dup3\n        /* \"#utility.yul\":13340:13354   */\n      add\n        /* \"#utility.yul\":13333:13378   */\n      mstore\n        /* \"#utility.yul\":13216:13385   */\n      pop\n      jump\t// out\n        /* \"#utility.yul\":13391:13757   */\n    tag_290:\n        /* \"#utility.yul\":13533:13536   */\n      0x00\n        /* \"#utility.yul\":13554:13621   */\n      tag_428\n        /* \"#utility.yul\":13618:13620   */\n      0x13\n        /* \"#utility.yul\":13613:13616   */\n      dup4\n        /* \"#utility.yul\":13554:13621   */\n      tag_251\n      jump\t// in\n    tag_428:\n        /* \"#utility.yul\":13547:13621   */\n      swap2\n      pop\n        /* \"#utility.yul\":13630:13723   */\n      tag_429\n        /* \"#utility.yul\":13719:13722   */\n      dup3\n        /* \"#utility.yul\":13630:13723   */\n      tag_289\n      jump\t// in\n    tag_429:\n        /* \"#utility.yul\":13748:13750   */\n      0x20\n        /* \"#utility.yul\":13743:13746   */\n      dup3\n        /* \"#utility.yul\":13739:13751   */\n      add\n        /* \"#utility.yul\":13732:13751   */\n      swap1\n      pop\n        /* \"#utility.yul\":13391:13757   */\n      swap2\n      swap1\n      pop\n      jump\t// out\n        /* \"#utility.yul\":13763:14182   */\n    tag_145:\n        /* \"#utility.yul\":13929:13933   */\n      0x00\n        /* \"#utility.yul\":13967:13969   */\n      0x20\n        /* \"#utility.yul\":13956:13965   */\n      dup3\n        /* \"#utility.yul\":13952:13970   */\n      add\n        /* \"#utility.yul\":13944:13970   */\n      swap1\n      pop\n        /* \"#utility.yul\":14016:14025   */\n      dup2\n        /* \"#utility.yul\":14010:14014   */\n      dup2\n        /* \"#utility.yul\":14006:14026   */\n      sub\n        /* \"#utility.yul\":14002:14003   */\n      0x00\n        /* \"#utility.yul\":13991:14000   */\n      dup4\n        /* \"#utility.yul\":13987:14004   */\n      add\n        /* \"#utility.yul\":13980:14027   */\n      mstore\n        /* \"#utility.yul\":14044:14175   */\n      tag_431\n        /* \"#utility.yul\":14170:14174   */\n      dup2\n        /* \"#utility.yul\":14044:14175   */\n      tag_290\n      jump\t// in\n    tag_431:\n        /* \"#utility.yul\":14036:14175   */\n      swap1\n      pop\n        /* \"#utility.yul\":13763:14182   */\n      swap2\n      swap1\n      pop\n      jump\t// out\n        /* \"#utility.yul\":14188:14362   */\n    tag_291:\n        /* \"#utility.yul\":14328:14354   */\n      0x4e6f7420616c6c6f77656420746f20736574206c6576656c0000000000000000\n        /* \"#utility.yul\":14324:14325   */\n      0x00\n        /* \"#utility.yul\":14316:14322   */\n      dup3\n        /* \"#utility.yul\":14312:14326   */\n      add\n        /* \"#utility.yul\":14305:14355   */\n      mstore\n        /* \"#utility.yul\":14188:14362   */\n      pop\n      jump\t// out\n        /* \"#utility.yul\":14368:14734   */\n    tag_292:\n        /* \"#utility.yul\":14510:14513   */\n      0x00\n        /* \"#utility.yul\":14531:14598   */\n      tag_434\n        /* \"#utility.yul\":14595:14597   */\n      0x18\n        /* \"#utility.yul\":14590:14593   */\n      dup4\n        /* \"#utility.yul\":14531:14598   */\n      tag_251\n      jump\t// in\n    tag_434:\n        /* \"#utility.yul\":14524:14598   */\n      swap2\n      pop\n        /* \"#utility.yul\":14607:14700   */\n      tag_435\n        /* \"#utility.yul\":14696:14699   */\n      dup3\n        /* \"#utility.yul\":14607:14700   */\n      tag_291\n      jump\t// in\n    tag_435:\n        /* \"#utility.yul\":14725:14727   */\n      0x20\n        /* \"#utility.yul\":14720:14723   */\n      dup3\n        /* \"#utility.yul\":14716:14728   */\n      add\n        /* \"#utility.yul\":14709:14728   */\n      swap1\n      pop\n        /* \"#utility.yul\":14368:14734   */\n      swap2\n      swap1\n      pop\n      jump\t// out\n        /* \"#utility.yul\":14740:15159   */\n    tag_186:\n        /* \"#utility.yul\":14906:14910   */\n      0x00\n        /* \"#utility.yul\":14944:14946   */\n      0x20\n        /* \"#utility.yul\":14933:14942   */\n      dup3\n        /* \"#utility.yul\":14929:14947   */\n      add\n        /* \"#utility.yul\":14921:14947   */\n      swap1\n      pop\n        /* \"#utility.yul\":14993:15002   */\n      dup2\n        /* \"#utility.yul\":14987:14991   */\n      dup2\n        /* \"#utility.yul\":14983:15003   */\n      sub\n        /* \"#utility.yul\":14979:14980   */\n      0x00\n        /* \"#utility.yul\":14968:14977   */\n      dup4\n        /* \"#utility.yul\":14964:14981   */\n      add\n        /* \"#utility.yul\":14957:15004   */\n      mstore\n        /* \"#utility.yul\":15021:15152   */\n      tag_437\n        /* \"#utility.yul\":15147:15151   */\n      dup2\n        /* \"#utility.yul\":15021:15152   */\n      tag_292\n      jump\t// in\n    tag_437:\n        /* \"#utility.yul\":15013:15152   */\n      swap1\n      pop\n        /* \"#utility.yul\":14740:15159   */\n      swap2\n      swap1\n      pop\n      jump\t// out\n        /* \"#utility.yul\":15165:15607   */\n    tag_205:\n        /* \"#utility.yul\":15314:15318   */\n      0x00\n        /* \"#utility.yul\":15352:15354   */\n      0x60\n        /* \"#utility.yul\":15341:15350   */\n      dup3\n        /* \"#utility.yul\":15337:15355   */\n      add\n        /* \"#utility.yul\":15329:15355   */\n      swap1\n      pop\n        /* \"#utility.yul\":15365:15436   */\n      tag_439\n        /* \"#utility.yul\":15433:15434   */\n      0x00\n        /* \"#utility.yul\":15422:15431   */\n      dup4\n        /* \"#utility.yul\":15418:15435   */\n      add\n        /* \"#utility.yul\":15409:15415   */\n      dup7\n        /* \"#utility.yul\":15365:15436   */\n      tag_267\n      jump\t// in\n    tag_439:\n        /* \"#utility.yul\":15446:15518   */\n      tag_440\n        /* \"#utility.yul\":15514:15516   */\n      0x20\n        /* \"#utility.yul\":15503:15512   */\n      dup4\n        /* \"#utility.yul\":15499:15517   */\n      add\n        /* \"#utility.yul\":15490:15496   */\n      dup6\n        /* \"#utility.yul\":15446:15518   */\n      tag_268\n      jump\t// in\n    tag_440:\n        /* \"#utility.yul\":15528:15600   */\n      tag_441\n        /* \"#utility.yul\":15596:15598   */\n      0x40\n        /* \"#utility.yul\":15585:15594   */\n      dup4\n        /* \"#utility.yul\":15581:15599   */\n      add\n        /* \"#utility.yul\":15572:15578   */\n      dup5\n        /* \"#utility.yul\":15528:15600   */\n      tag_268\n      jump\t// in\n    tag_441:\n        /* \"#utility.yul\":15165:15607   */\n      swap5\n      swap4\n      pop\n      pop\n      pop\n      pop\n      jump\t// out\n        /* \"#utility.yul\":15613:15793   */\n    tag_293:\n        /* \"#utility.yul\":15661:15738   */\n      0x4e487b7100000000000000000000000000000000000000000000000000000000\n        /* \"#utility.yul\":15658:15659   */\n      0x00\n        /* \"#utility.yul\":15651:15739   */\n      mstore\n        /* \"#utility.yul\":15758:15762   */\n      0x11\n        /* \"#utility.yul\":15755:15756   */\n      0x04\n        /* \"#utility.yul\":15748:15763   */\n      mstore\n        /* \"#utility.yul\":15782:15786   */\n      0x24\n        /* \"#utility.yul\":15779:15780   */\n      0x00\n        /* \"#utility.yul\":15772:15787   */\n      revert\n        /* \"#utility.yul\":15799:15990   */\n    tag_243:\n        /* \"#utility.yul\":15839:15842   */\n      0x00\n        /* \"#utility.yul\":15858:15878   */\n      tag_444\n        /* \"#utility.yul\":15876:15877   */\n      dup3\n        /* \"#utility.yul\":15858:15878   */\n      tag_262\n      jump\t// in\n    tag_444:\n        /* \"#utility.yul\":15853:15878   */\n      swap2\n      pop\n        /* \"#utility.yul\":15892:15912   */\n      tag_445\n        /* \"#utility.yul\":15910:15911   */\n      dup4\n        /* \"#utility.yul\":15892:15912   */\n      tag_262\n      jump\t// in\n    tag_445:\n        /* \"#utility.yul\":15887:15912   */\n      swap3\n      pop\n        /* \"#utility.yul\":15935:15936   */\n      dup3\n        /* \"#utility.yul\":15932:15933   */\n      dup3\n        /* \"#utility.yul\":15928:15937   */\n      add\n        /* \"#utility.yul\":15921:15937   */\n      swap1\n      pop\n        /* \"#utility.yul\":15956:15959   */\n      dup1\n        /* \"#utility.yul\":15953:15954   */\n      dup3\n        /* \"#utility.yul\":15950:15960   */\n      gt\n        /* \"#utility.yul\":15947:15983   */\n      iszero\n      tag_446\n      jumpi\n        /* \"#utility.yul\":15963:15981   */\n      tag_447\n      tag_293\n      jump\t// in\n    tag_447:\n        /* \"#utility.yul\":15947:15983   */\n    tag_446:\n        /* \"#utility.yul\":15799:15990   */\n      swap3\n      swap2\n      pop\n      pop\n      jump\t// out\n\n    auxdata: 0xa264697066735822122097e9d2a8afd09ce5671f5539aa4478ca37d36f71fffa25866f9ce4a46b722e6764736f6c63430008170033\n}\n",
				"bytecode": {
					"linkReferences": {},
					"object": "608060405234801562000010575f80fd5b506040516200298f3803806200298f83398181016040528101906200003691906200093e565b83878781600390816200004a919062000c96565b5080600490816200005c919062000c96565b5050505f73ffffffffffffffffffffffffffffffffffffffff168173ffffffffffffffffffffffffffffffffffffffff1603620000d2575f6040517f1e4fbdf7000000000000000000000000000000000000000000000000000000008152600401620000c9919062000d8b565b60405180910390fd5b620000e3816200031460201b60201c565b508460065f6101000a81548173ffffffffffffffffffffffffffffffffffffffff021916908373ffffffffffffffffffffffffffffffffffffffff1602179055506200017860065f9054906101000a900473ffffffffffffffffffffffffffffffffffffffff16857fffffffffffffffffffffffffffffffffffffffffffffffffffffffffffffffff620003d760201b60201c565b80600660146101000a81548160ff02191690836004811115620001a0576200019f62000da6565b5b02179055505f5b835181101562000255576007848281518110620001c957620001c862000dd3565b5b6020026020010151908060018154018082558091505060019003905f5260205f2090600202015f909190919091505f820151815f015f6101000a81548173ffffffffffffffffffffffffffffffffffffffff021916908373ffffffffffffffffffffffffffffffffffffffff1602179055506020820151816001015550508080600101915050620001a7565b505f5b8251811015620003065760088382815181106200027a576200027962000dd3565b5b6020026020010151908060018154018082558091505060019003905f5260205f2090600202015f909190919091505f820151815f015f6101000a81548173ffffffffffffffffffffffffffffffffffffffff021916908373ffffffffffffffffffffffffffffffffffffffff160217905550602082015181600101555050808060010191505062000258565b505050505050505062000e2c565b5f60055f9054906101000a900473ffffffffffffffffffffffffffffffffffffffff1690508160055f6101000a81548173ffffffffffffffffffffffffffffffffffffffff021916908373ffffffffffffffffffffffffffffffffffffffff1602179055508173ffffffffffffffffffffffffffffffffffffffff168173ffffffffffffffffffffffffffffffffffffffff167f8be0079c531659141344cd1fd0a4f28419497f9722a3daafe3b4186f6b6457e060405160405180910390a35050565b620003ec8383836001620003f160201b60201c565b505050565b5f73ffffffffffffffffffffffffffffffffffffffff168473ffffffffffffffffffffffffffffffffffffffff160362000464575f6040517fe602df050000000000000000000000000000000000000000000000000000000081526004016200045b919062000d8b565b60405180910390fd5b5f73ffffffffffffffffffffffffffffffffffffffff168373ffffffffffffffffffffffffffffffffffffffff1603620004d7575f6040517f94280d62000000000000000000000000000000000000000000000000000000008152600401620004ce919062000d8b565b60405180910390fd5b8160015f8673ffffffffffffffffffffffffffffffffffffffff1673ffffffffffffffffffffffffffffffffffffffff1681526020019081526020015f205f8573ffffffffffffffffffffffffffffffffffffffff1673ffffffffffffffffffffffffffffffffffffffff1681526020019081526020015f20819055508015620005c3578273ffffffffffffffffffffffffffffffffffffffff168473ffffffffffffffffffffffffffffffffffffffff167f8c5be1e5ebec7d5bd14f71427d1e84f3dd0314c0f7b2291e5b200ac8c7c3b92584604051620005ba919062000e11565b60405180910390a35b50505050565b5f604051905090565b5f80fd5b5f80fd5b5f80fd5b5f80fd5b5f601f19601f8301169050919050565b7f4e487b71000000000000000000000000000000000000000000000000000000005f52604160045260245ffd5b6200062a82620005e2565b810181811067ffffffffffffffff821117156200064c576200064b620005f2565b5b80604052505050565b5f62000660620005c9565b90506200066e82826200061f565b919050565b5f67ffffffffffffffff82111562000690576200068f620005f2565b5b6200069b82620005e2565b9050602081019050919050565b5f5b83811015620006c7578082015181840152602081019050620006aa565b5f8484015250505050565b5f620006e8620006e28462000673565b62000655565b905082815260208101848484011115620007075762000706620005de565b5b62000714848285620006a8565b509392505050565b5f82601f830112620007335762000732620005da565b5b815162000745848260208601620006d2565b91505092915050565b5f73ffffffffffffffffffffffffffffffffffffffff82169050919050565b5f62000779826200074e565b9050919050565b6200078b816200076d565b811462000796575f80fd5b50565b5f81519050620007a98162000780565b92915050565b5f67ffffffffffffffff821115620007cc57620007cb620005f2565b5b602082029050602081019050919050565b5f80fd5b5f80fd5b5f819050919050565b620007f981620007e5565b811462000804575f80fd5b50565b5f815190506200081781620007ee565b92915050565b5f60408284031215620008355762000834620007e1565b5b62000841604062000655565b90505f620008528482850162000799565b5f830152506020620008678482850162000807565b60208301525092915050565b5f620008896200088384620007af565b62000655565b90508083825260208201905060408402830185811115620008af57620008ae620007dd565b5b835b81811015620008dc5780620008c788826200081d565b845260208401935050604081019050620008b1565b5050509392505050565b5f82601f830112620008fd57620008fc620005da565b5b81516200090f84826020860162000873565b91505092915050565b6005811062000925575f80fd5b50565b5f81519050620009388162000918565b92915050565b5f805f805f805f60e0888a0312156200095c576200095b620005d2565b5b5f88015167ffffffffffffffff8111156200097c576200097b620005d6565b5b6200098a8a828b016200071c565b975050602088015167ffffffffffffffff811115620009ae57620009ad620005d6565b5b620009bc8a828b016200071c565b9650506040620009cf8a828b0162000799565b9550506060620009e28a828b0162000799565b945050608088015167ffffffffffffffff81111562000a065762000a05620005d6565b5b62000a148a828b01620008e6565b93505060a088015167ffffffffffffffff81111562000a385762000a37620005d6565b5b62000a468a828b01620008e6565b92505060c062000a598a828b0162000928565b91505092959891949750929550565b5f81519050919050565b7f4e487b71000000000000000000000000000000000000000000000000000000005f52602260045260245ffd5b5f600282049050600182168062000ab757607f821691505b60208210810362000acd5762000acc62000a72565b5b50919050565b5f819050815f5260205f209050919050565b5f6020601f8301049050919050565b5f82821b905092915050565b5f6008830262000b317fffffffffffffffffffffffffffffffffffffffffffffffffffffffffffffffff8262000af4565b62000b3d868362000af4565b95508019841693508086168417925050509392505050565b5f819050919050565b5f62000b7e62000b7862000b7284620007e5565b62000b55565b620007e5565b9050919050565b5f819050919050565b62000b998362000b5e565b62000bb162000ba88262000b85565b84845462000b00565b825550505050565b5f90565b62000bc762000bb9565b62000bd481848462000b8e565b505050565b5b8181101562000bfb5762000bef5f8262000bbd565b60018101905062000bda565b5050565b601f82111562000c4a5762000c148162000ad3565b62000c1f8462000ae5565b8101602085101562000c2f578190505b62000c4762000c3e8562000ae5565b83018262000bd9565b50505b505050565b5f82821c905092915050565b5f62000c6c5f198460080262000c4f565b1980831691505092915050565b5f62000c86838362000c5b565b9150826002028217905092915050565b62000ca18262000a68565b67ffffffffffffffff81111562000cbd5762000cbc620005f2565b5b62000cc9825462000a9f565b62000cd682828562000bff565b5f60209050601f83116001811462000d0c575f841562000cf7578287015190505b62000d03858262000c79565b86555062000d72565b601f19841662000d1c8662000ad3565b5f5b8281101562000d455784890151825560018201915060208501945060208101905062000d1e565b8683101562000d65578489015162000d61601f89168262000c5b565b8355505b6001600288020188555050505b505050505050565b62000d85816200076d565b82525050565b5f60208201905062000da05f83018462000d7a565b92915050565b7f4e487b71000000000000000000000000000000000000000000000000000000005f52602160045260245ffd5b7f4e487b71000000000000000000000000000000000000000000000000000000005f52603260045260245ffd5b62000e0b81620007e5565b82525050565b5f60208201905062000e265f83018462000e00565b92915050565b611b558062000e3a5f395ff3fe608060405234801561000f575f80fd5b5060043610610140575f3560e01c80636fd5ae15116100b657806395d89b411161007a57806395d89b4114610368578063a9059cbb14610386578063bd5546be146103b6578063dd62ed3e146103d2578063f2fde38b14610402578063f9e05c6d1461041e57610140565b80636fd5ae15146102d457806370a08231146102f2578063715018a614610322578063737d6a6c1461032c5780638da5cb5b1461034a57610140565b8063313ce56711610108578063313ce5671461021157806340c10f191461022f57806342966c681461024b5780634836149014610267578063635a4cc51461028557806363a2b02b146102b657610140565b806306fdde0314610144578063095ea7b3146101625780630d9ce8041461019257806318160ddd146101c357806323b872dd146101e1575b5f80fd5b61014c61043c565b6040516101599190611457565b60405180910390f35b61017c60048036038101906101779190611508565b6104cc565b6040516101899190611560565b60405180910390f35b6101ac60048036038101906101a79190611579565b6104ee565b6040516101ba9291906115c2565b60405180910390f35b6101cb61053c565b6040516101d891906115e9565b60405180910390f35b6101fb60048036038101906101f69190611602565b610545565b6040516102089190611560565b60405180910390f35b610219610573565b604051610226919061166d565b60405180910390f35b61024960048036038101906102449190611508565b61057b565b005b61026560048036038101906102609190611579565b610618565b005b61026f6106b4565b60405161027c9190611779565b60405180910390f35b61029f600480360381019061029a9190611579565b61076e565b6040516102ad9291906115c2565b60405180910390f35b6102be6107bc565b6040516102cb9190611560565b60405180910390f35b6102dc6107f8565b6040516102e9919061180c565b60405180910390f35b61030c60048036038101906103079190611825565b61080b565b60405161031991906115e9565b60405180910390f35b61032a61081c565b005b61033461082f565b6040516103419190611779565b60405180910390f35b6103526108e9565b60405161035f9190611850565b60405180910390f35b610370610911565b60405161037d9190611457565b60405180910390f35b6103a0600480360381019061039b9190611508565b6109a1565b6040516103ad9190611560565b60405180910390f35b6103d060048036038101906103cb919061188c565b6109b4565b005b6103ec60048036038101906103e791906118b7565b610a70565b6040516103f991906115e9565b60405180910390f35b61041c60048036038101906104179190611825565b610af2565b005b610426610b76565b6040516104339190611850565b60405180910390f35b60606003805461044b90611922565b80601f016020809104026020016040519081016040528092919081815260200182805461047790611922565b80156104c25780601f10610499576101008083540402835291602001916104c2565b820191905f5260205f20905b8154815290600101906020018083116104a557829003601f168201915b5050505050905090565b5f806104d6610b9b565b90506104e3818585610ba2565b600191505092915050565b600781815481106104fd575f80fd5b905f5260205f2090600202015f91509050805f015f9054906101000a900473ffffffffffffffffffffffffffffffffffffffff16908060010154905082565b5f600254905090565b5f8061054f610b9b565b905061055c858285610bb4565b610567858585610c46565b60019150509392505050565b5f6012905090565b60065f9054906101000a900473ffffffffffffffffffffffffffffffffffffffff1673ffffffffffffffffffffffffffffffffffffffff163373ffffffffffffffffffffffffffffffffffffffff161461060a576040517f08c379a00000000000000000000000000000000000000000000000000000000081526004016106019061199c565b60405180910390fd5b6106148282610d36565b5050565b60065f9054906101000a900473ffffffffffffffffffffffffffffffffffffffff1673ffffffffffffffffffffffffffffffffffffffff163373ffffffffffffffffffffffffffffffffffffffff16146106a7576040517f08c379a000000000000000000000000000000000000000000000000000000000815260040161069e90611a04565b60405180910390fd5b6106b13382610db5565b50565b60606007805480602002602001604051908101604052809291908181526020015f905b82821015610765578382905f5260205f2090600202016040518060400160405290815f82015f9054906101000a900473ffffffffffffffffffffffffffffffffffffffff1673ffffffffffffffffffffffffffffffffffffffff1673ffffffffffffffffffffffffffffffffffffffff168152602001600182015481525050815260200190600101906106d7565b50505050905090565b6008818154811061077d575f80fd5b905f5260205f2090600202015f91509050805f015f9054906101000a900473ffffffffffffffffffffffffffffffffffffffff16908060010154905082565b5f8060048111156107d0576107cf611799565b5b600660149054906101000a900460ff1660048111156107f2576107f1611799565b5b14905090565b600660149054906101000a900460ff1681565b5f61081582610e34565b9050919050565b610824610e79565b61082d5f610f00565b565b60606008805480602002602001604051908101604052809291908181526020015f905b828210156108e0578382905f5260205f2090600202016040518060400160405290815f82015f9054906101000a900473ffffffffffffffffffffffffffffffffffffffff1673ffffffffffffffffffffffffffffffffffffffff1673ffffffffffffffffffffffffffffffffffffffff16815260200160018201548152505081526020019060010190610852565b50505050905090565b5f60055f9054906101000a900473ffffffffffffffffffffffffffffffffffffffff16905090565b60606004805461092090611922565b80601f016020809104026020016040519081016040528092919081815260200182805461094c90611922565b80156109975780601f1061096e57610100808354040283529160200191610997565b820191905f5260205f20905b81548152906001019060200180831161097a57829003601f168201915b5050505050905090565b5f6109ac8383610fc3565b905092915050565b60065f9054906101000a900473ffffffffffffffffffffffffffffffffffffffff1673ffffffffffffffffffffffffffffffffffffffff163373ffffffffffffffffffffffffffffffffffffffff1614610a43576040517f08c379a0000000000000000000000000000000000000000000000000000000008152600401610a3a90611a6c565b60405180910390fd5b80600660146101000a81548160ff02191690836004811115610a6857610a67611799565b5b021790555050565b5f60015f8473ffffffffffffffffffffffffffffffffffffffff1673ffffffffffffffffffffffffffffffffffffffff1681526020019081526020015f205f8373ffffffffffffffffffffffffffffffffffffffff1673ffffffffffffffffffffffffffffffffffffffff1681526020019081526020015f2054905092915050565b610afa610e79565b5f73ffffffffffffffffffffffffffffffffffffffff168173ffffffffffffffffffffffffffffffffffffffff1603610b6a575f6040517f1e4fbdf7000000000000000000000000000000000000000000000000000000008152600401610b619190611850565b60405180910390fd5b610b7381610f00565b50565b60065f9054906101000a900473ffffffffffffffffffffffffffffffffffffffff1681565b5f33905090565b610baf8383836001610fe5565b505050565b5f610bbf8484610a70565b90507fffffffffffffffffffffffffffffffffffffffffffffffffffffffffffffffff8114610c405781811015610c31578281836040517ffb8f41b2000000000000000000000000000000000000000000000000000000008152600401610c2893929190611a8a565b60405180910390fd5b610c3f84848484035f610fe5565b5b50505050565b5f73ffffffffffffffffffffffffffffffffffffffff168373ffffffffffffffffffffffffffffffffffffffff1603610cb6575f6040517f96c6fd1e000000000000000000000000000000000000000000000000000000008152600401610cad9190611850565b60405180910390fd5b5f73ffffffffffffffffffffffffffffffffffffffff168273ffffffffffffffffffffffffffffffffffffffff1603610d26575f6040517fec442f05000000000000000000000000000000000000000000000000000000008152600401610d1d9190611850565b60405180910390fd5b610d318383836111b4565b505050565b5f73ffffffffffffffffffffffffffffffffffffffff168273ffffffffffffffffffffffffffffffffffffffff1603610da6575f6040517fec442f05000000000000000000000000000000000000000000000000000000008152600401610d9d9190611850565b60405180910390fd5b610db15f83836111b4565b5050565b5f73ffffffffffffffffffffffffffffffffffffffff168273ffffffffffffffffffffffffffffffffffffffff1603610e25575f6040517f96c6fd1e000000000000000000000000000000000000000000000000000000008152600401610e1c9190611850565b60405180910390fd5b610e30825f836111b4565b5050565b5f805f8373ffffffffffffffffffffffffffffffffffffffff1673ffffffffffffffffffffffffffffffffffffffff1681526020019081526020015f20549050919050565b610e81610b9b565b73ffffffffffffffffffffffffffffffffffffffff16610e9f6108e9565b73ffffffffffffffffffffffffffffffffffffffff1614610efe57610ec2610b9b565b6040517f118cdaa7000000000000000000000000000000000000000000000000000000008152600401610ef59190611850565b60405180910390fd5b565b5f60055f9054906101000a900473ffffffffffffffffffffffffffffffffffffffff1690508160055f6101000a81548173ffffffffffffffffffffffffffffffffffffffff021916908373ffffffffffffffffffffffffffffffffffffffff1602179055508173ffffffffffffffffffffffffffffffffffffffff168173ffffffffffffffffffffffffffffffffffffffff167f8be0079c531659141344cd1fd0a4f28419497f9722a3daafe3b4186f6b6457e060405160405180910390a35050565b5f80610fcd610b9b565b9050610fda818585610c46565b600191505092915050565b5f73ffffffffffffffffffffffffffffffffffffffff168473ffffffffffffffffffffffffffffffffffffffff1603611055575f6040517fe602df0500000000000000000000000000000000000000000000000000000000815260040161104c9190611850565b60405180910390fd5b5f73ffffffffffffffffffffffffffffffffffffffff168373ffffffffffffffffffffffffffffffffffffffff16036110c5575f6040517f94280d620000000000000000000000000000000000000000000000000000000081526004016110bc9190611850565b60405180910390fd5b8160015f8673ffffffffffffffffffffffffffffffffffffffff1673ffffffffffffffffffffffffffffffffffffffff1681526020019081526020015f205f8573ffffffffffffffffffffffffffffffffffffffff1673ffffffffffffffffffffffffffffffffffffffff1681526020019081526020015f208190555080156111ae578273ffffffffffffffffffffffffffffffffffffffff168473ffffffffffffffffffffffffffffffffffffffff167f8c5be1e5ebec7d5bd14f71427d1e84f3dd0314c0f7b2291e5b200ac8c7c3b925846040516111a591906115e9565b60405180910390a35b50505050565b5f73ffffffffffffffffffffffffffffffffffffffff168373ffffffffffffffffffffffffffffffffffffffff1603611204578060025f8282546111f89190611aec565b925050819055506112d2565b5f805f8573ffffffffffffffffffffffffffffffffffffffff1673ffffffffffffffffffffffffffffffffffffffff1681526020019081526020015f205490508181101561128d578381836040517fe450d38c00000000000000000000000000000000000000000000000000000000815260040161128493929190611a8a565b60405180910390fd5b8181035f808673ffffffffffffffffffffffffffffffffffffffff1673ffffffffffffffffffffffffffffffffffffffff1681526020019081526020015f2081905550505b5f73ffffffffffffffffffffffffffffffffffffffff168273ffffffffffffffffffffffffffffffffffffffff1603611319578060025f8282540392505081905550611363565b805f808473ffffffffffffffffffffffffffffffffffffffff1673ffffffffffffffffffffffffffffffffffffffff1681526020019081526020015f205f82825401925050819055505b8173ffffffffffffffffffffffffffffffffffffffff168373ffffffffffffffffffffffffffffffffffffffff167fddf252ad1be2c89b69c2b068fc378daa952ba7f163c4a11628f55a4df523b3ef836040516113c091906115e9565b60405180910390a3505050565b5f81519050919050565b5f82825260208201905092915050565b5f5b838110156114045780820151818401526020810190506113e9565b5f8484015250505050565b5f601f19601f8301169050919050565b5f611429826113cd565b61143381856113d7565b93506114438185602086016113e7565b61144c8161140f565b840191505092915050565b5f6020820190508181035f83015261146f818461141f565b905092915050565b5f80fd5b5f73ffffffffffffffffffffffffffffffffffffffff82169050919050565b5f6114a48261147b565b9050919050565b6114b48161149a565b81146114be575f80fd5b50565b5f813590506114cf816114ab565b92915050565b5f819050919050565b6114e7816114d5565b81146114f1575f80fd5b50565b5f81359050611502816114de565b92915050565b5f806040838503121561151e5761151d611477565b5b5f61152b858286016114c1565b925050602061153c858286016114f4565b9150509250929050565b5f8115159050919050565b61155a81611546565b82525050565b5f6020820190506115735f830184611551565b92915050565b5f6020828403121561158e5761158d611477565b5b5f61159b848285016114f4565b91505092915050565b6115ad8161149a565b82525050565b6115bc816114d5565b82525050565b5f6040820190506115d55f8301856115a4565b6115e260208301846115b3565b9392505050565b5f6020820190506115fc5f8301846115b3565b92915050565b5f805f6060848603121561161957611618611477565b5b5f611626868287016114c1565b9350506020611637868287016114c1565b9250506040611648868287016114f4565b9150509250925092565b5f60ff82169050919050565b61166781611652565b82525050565b5f6020820190506116805f83018461165e565b92915050565b5f81519050919050565b5f82825260208201905092915050565b5f819050602082019050919050565b6116b88161149a565b82525050565b6116c7816114d5565b82525050565b604082015f8201516116e15f8501826116af565b5060208201516116f460208501826116be565b50505050565b5f61170583836116cd565b60408301905092915050565b5f602082019050919050565b5f61172782611686565b6117318185611690565b935061173c836116a0565b805f5b8381101561176c57815161175388826116fa565b975061175e83611711565b92505060018101905061173f565b5085935050505092915050565b5f6020820190508181035f830152611791818461171d565b905092915050565b7f4e487b71000000000000000000000000000000000000000000000000000000005f52602160045260245ffd5b600581106117d7576117d6611799565b5b50565b5f8190506117e7826117c6565b919050565b5f6117f6826117da565b9050919050565b611806816117ec565b82525050565b5f60208201905061181f5f8301846117fd565b92915050565b5f6020828403121561183a57611839611477565b5b5f611847848285016114c1565b91505092915050565b5f6020820190506118635f8301846115a4565b92915050565b60058110611875575f80fd5b50565b5f8135905061188681611869565b92915050565b5f602082840312156118a1576118a0611477565b5b5f6118ae84828501611878565b91505092915050565b5f80604083850312156118cd576118cc611477565b5b5f6118da858286016114c1565b92505060206118eb858286016114c1565b9150509250929050565b7f4e487b71000000000000000000000000000000000000000000000000000000005f52602260045260245ffd5b5f600282049050600182168061193957607f821691505b60208210810361194c5761194b6118f5565b5b50919050565b7f4e6f7420616c6c6f77656420746f206d696e74000000000000000000000000005f82015250565b5f6119866013836113d7565b915061199182611952565b602082019050919050565b5f6020820190508181035f8301526119b38161197a565b9050919050565b7f4e6f7420616c6c6f77656420746f206275726e000000000000000000000000005f82015250565b5f6119ee6013836113d7565b91506119f9826119ba565b602082019050919050565b5f6020820190508181035f830152611a1b816119e2565b9050919050565b7f4e6f7420616c6c6f77656420746f20736574206c6576656c00000000000000005f82015250565b5f611a566018836113d7565b9150611a6182611a22565b602082019050919050565b5f6020820190508181035f830152611a8381611a4a565b9050919050565b5f606082019050611a9d5f8301866115a4565b611aaa60208301856115b3565b611ab760408301846115b3565b949350505050565b7f4e487b71000000000000000000000000000000000000000000000000000000005f52601160045260245ffd5b5f611af6826114d5565b9150611b01836114d5565b9250828201905080821115611b1957611b18611abf565b5b9291505056fea264697066735822122097e9d2a8afd09ce5671f5539aa4478ca37d36f71fffa25866f9ce4a46b722e6764736f6c63430008170033",
					"opcodes": "PUSH1 0x80 PUSH1 0x40 MSTORE CALLVALUE DUP1 ISZERO PUSH3 0x10 JUMPI PUSH0 DUP1 REVERT JUMPDEST POP PUSH1 0x40 MLOAD PUSH3 0x298F CODESIZE SUB DUP1 PUSH3 0x298F DUP4 CODECOPY DUP2 DUP2 ADD PUSH1 0x40 MSTORE DUP2 ADD SWAP1 PUSH3 0x36 SWAP2 SWAP1 PUSH3 0x93E JUMP JUMPDEST DUP4 DUP8 DUP8 DUP2 PUSH1 0x3 SWAP1 DUP2 PUSH3 0x4A SWAP2 SWAP1 PUSH3 0xC96 JUMP JUMPDEST POP DUP1 PUSH1 0x4 SWAP1 DUP2 PUSH3 0x5C SWAP2 SWAP1 PUSH3 0xC96 JUMP JUMPDEST POP POP POP PUSH0 PUSH20 0xFFFFFFFFFFFFFFFFFFFFFFFFFFFFFFFFFFFFFFFF AND DUP2 PUSH20 0xFFFFFFFFFFFFFFFFFFFFFFFFFFFFFFFFFFFFFFFF AND SUB PUSH3 0xD2 JUMPI PUSH0 PUSH1 0x40 MLOAD PUSH32 0x1E4FBDF700000000000000000000000000000000000000000000000000000000 DUP2 MSTORE PUSH1 0x4 ADD PUSH3 0xC9 SWAP2 SWAP1 PUSH3 0xD8B JUMP JUMPDEST PUSH1 0x40 MLOAD DUP1 SWAP2 SUB SWAP1 REVERT JUMPDEST PUSH3 0xE3 DUP2 PUSH3 0x314 PUSH1 0x20 SHL PUSH1 0x20 SHR JUMP JUMPDEST POP DUP5 PUSH1 0x6 PUSH0 PUSH2 0x100 EXP DUP2 SLOAD DUP2 PUSH20 0xFFFFFFFFFFFFFFFFFFFFFFFFFFFFFFFFFFFFFFFF MUL NOT AND SWAP1 DUP4 PUSH20 0xFFFFFFFFFFFFFFFFFFFFFFFFFFFFFFFFFFFFFFFF AND MUL OR SWAP1 SSTORE POP PUSH3 0x178 PUSH1 0x6 PUSH0 SWAP1 SLOAD SWAP1 PUSH2 0x100 EXP SWAP1 DIV PUSH20 0xFFFFFFFFFFFFFFFFFFFFFFFFFFFFFFFFFFFFFFFF AND DUP6 PUSH32 0xFFFFFFFFFFFFFFFFFFFFFFFFFFFFFFFFFFFFFFFFFFFFFFFFFFFFFFFFFFFFFFFF PUSH3 0x3D7 PUSH1 0x20 SHL PUSH1 0x20 SHR JUMP JUMPDEST DUP1 PUSH1 0x6 PUSH1 0x14 PUSH2 0x100 EXP DUP2 SLOAD DUP2 PUSH1 0xFF MUL NOT AND SWAP1 DUP4 PUSH1 0x4 DUP2 GT ISZERO PUSH3 0x1A0 JUMPI PUSH3 0x19F PUSH3 0xDA6 JUMP JUMPDEST JUMPDEST MUL OR SWAP1 SSTORE POP PUSH0 JUMPDEST DUP4 MLOAD DUP2 LT ISZERO PUSH3 0x255 JUMPI PUSH1 0x7 DUP5 DUP3 DUP2 MLOAD DUP2 LT PUSH3 0x1C9 JUMPI PUSH3 0x1C8 PUSH3 0xDD3 JUMP JUMPDEST JUMPDEST PUSH1 0x20 MUL PUSH1 0x20 ADD ADD MLOAD SWAP1 DUP1 PUSH1 0x1 DUP2 SLOAD ADD DUP1 DUP3 SSTORE DUP1 SWAP2 POP POP PUSH1 0x1 SWAP1 SUB SWAP1 PUSH0 MSTORE PUSH1 0x20 PUSH0 KECCAK256 SWAP1 PUSH1 0x2 MUL ADD PUSH0 SWAP1 SWAP2 SWAP1 SWAP2 SWAP1 SWAP2 POP PUSH0 DUP3 ADD MLOAD DUP2 PUSH0 ADD PUSH0 PUSH2 0x100 EXP DUP2 SLOAD DUP2 PUSH20 0xFFFFFFFFFFFFFFFFFFFFFFFFFFFFFFFFFFFFFFFF MUL NOT AND SWAP1 DUP4 PUSH20 0xFFFFFFFFFFFFFFFFFFFFFFFFFFFFFFFFFFFFFFFF AND MUL OR SWAP1 SSTORE POP PUSH1 0x20 DUP3 ADD MLOAD DUP2 PUSH1 0x1 ADD SSTORE POP POP DUP1 DUP1 PUSH1 0x1 ADD SWAP2 POP POP PUSH3 0x1A7 JUMP JUMPDEST POP PUSH0 JUMPDEST DUP3 MLOAD DUP2 LT ISZERO PUSH3 0x306 JUMPI PUSH1 0x8 DUP4 DUP3 DUP2 MLOAD DUP2 LT PUSH3 0x27A JUMPI PUSH3 0x279 PUSH3 0xDD3 JUMP JUMPDEST JUMPDEST PUSH1 0x20 MUL PUSH1 0x20 ADD ADD MLOAD SWAP1 DUP1 PUSH1 0x1 DUP2 SLOAD ADD DUP1 DUP3 SSTORE DUP1 SWAP2 POP POP PUSH1 0x1 SWAP1 SUB SWAP1 PUSH0 MSTORE PUSH1 0x20 PUSH0 KECCAK256 SWAP1 PUSH1 0x2 MUL ADD PUSH0 SWAP1 SWAP2 SWAP1 SWAP2 SWAP1 SWAP2 POP PUSH0 DUP3 ADD MLOAD DUP2 PUSH0 ADD PUSH0 PUSH2 0x100 EXP DUP2 SLOAD DUP2 PUSH20 0xFFFFFFFFFFFFFFFFFFFFFFFFFFFFFFFFFFFFFFFF MUL NOT AND SWAP1 DUP4 PUSH20 0xFFFFFFFFFFFFFFFFFFFFFFFFFFFFFFFFFFFFFFFF AND MUL OR SWAP1 SSTORE POP PUSH1 0x20 DUP3 ADD MLOAD DUP2 PUSH1 0x1 ADD SSTORE POP POP DUP1 DUP1 PUSH1 0x1 ADD SWAP2 POP POP PUSH3 0x258 JUMP JUMPDEST POP POP POP POP POP POP POP POP PUSH3 0xE2C JUMP JUMPDEST PUSH0 PUSH1 0x5 PUSH0 SWAP1 SLOAD SWAP1 PUSH2 0x100 EXP SWAP1 DIV PUSH20 0xFFFFFFFFFFFFFFFFFFFFFFFFFFFFFFFFFFFFFFFF AND SWAP1 POP DUP2 PUSH1 0x5 PUSH0 PUSH2 0x100 EXP DUP2 SLOAD DUP2 PUSH20 0xFFFFFFFFFFFFFFFFFFFFFFFFFFFFFFFFFFFFFFFF MUL NOT AND SWAP1 DUP4 PUSH20 0xFFFFFFFFFFFFFFFFFFFFFFFFFFFFFFFFFFFFFFFF AND MUL OR SWAP1 SSTORE POP DUP2 PUSH20 0xFFFFFFFFFFFFFFFFFFFFFFFFFFFFFFFFFFFFFFFF AND DUP2 PUSH20 0xFFFFFFFFFFFFFFFFFFFFFFFFFFFFFFFFFFFFFFFF AND PUSH32 0x8BE0079C531659141344CD1FD0A4F28419497F9722A3DAAFE3B4186F6B6457E0 PUSH1 0x40 MLOAD PUSH1 0x40 MLOAD DUP1 SWAP2 SUB SWAP1 LOG3 POP POP JUMP JUMPDEST PUSH3 0x3EC DUP4 DUP4 DUP4 PUSH1 0x1 PUSH3 0x3F1 PUSH1 0x20 SHL PUSH1 0x20 SHR JUMP JUMPDEST POP POP POP JUMP JUMPDEST PUSH0 PUSH20 0xFFFFFFFFFFFFFFFFFFFFFFFFFFFFFFFFFFFFFFFF AND DUP5 PUSH20 0xFFFFFFFFFFFFFFFFFFFFFFFFFFFFFFFFFFFFFFFF AND SUB PUSH3 0x464 JUMPI PUSH0 PUSH1 0x40 MLOAD PUSH32 0xE602DF0500000000000000000000000000000000000000000000000000000000 DUP2 MSTORE PUSH1 0x4 ADD PUSH3 0x45B SWAP2 SWAP1 PUSH3 0xD8B JUMP JUMPDEST PUSH1 0x40 MLOAD DUP1 SWAP2 SUB SWAP1 REVERT JUMPDEST PUSH0 PUSH20 0xFFFFFFFFFFFFFFFFFFFFFFFFFFFFFFFFFFFFFFFF AND DUP4 PUSH20 0xFFFFFFFFFFFFFFFFFFFFFFFFFFFFFFFFFFFFFFFF AND SUB PUSH3 0x4D7 JUMPI PUSH0 PUSH1 0x40 MLOAD PUSH32 0x94280D6200000000000000000000000000000000000000000000000000000000 DUP2 MSTORE PUSH1 0x4 ADD PUSH3 0x4CE SWAP2 SWAP1 PUSH3 0xD8B JUMP JUMPDEST PUSH1 0x40 MLOAD DUP1 SWAP2 SUB SWAP1 REVERT JUMPDEST DUP2 PUSH1 0x1 PUSH0 DUP7 PUSH20 0xFFFFFFFFFFFFFFFFFFFFFFFFFFFFFFFFFFFFFFFF AND PUSH20 0xFFFFFFFFFFFFFFFFFFFFFFFFFFFFFFFFFFFFFFFF AND DUP2 MSTORE PUSH1 0x20 ADD SWAP1 DUP2 MSTORE PUSH1 0x20 ADD PUSH0 KECCAK256 PUSH0 DUP6 PUSH20 0xFFFFFFFFFFFFFFFFFFFFFFFFFFFFFFFFFFFFFFFF AND PUSH20 0xFFFFFFFFFFFFFFFFFFFFFFFFFFFFFFFFFFFFFFFF AND DUP2 MSTORE PUSH1 0x20 ADD SWAP1 DUP2 MSTORE PUSH1 0x20 ADD PUSH0 KECCAK256 DUP2 SWAP1 SSTORE POP DUP1 ISZERO PUSH3 0x5C3 JUMPI DUP3 PUSH20 0xFFFFFFFFFFFFFFFFFFFFFFFFFFFFFFFFFFFFFFFF AND DUP5 PUSH20 0xFFFFFFFFFFFFFFFFFFFFFFFFFFFFFFFFFFFFFFFF AND PUSH32 0x8C5BE1E5EBEC7D5BD14F71427D1E84F3DD0314C0F7B2291E5B200AC8C7C3B925 DUP5 PUSH1 0x40 MLOAD PUSH3 0x5BA SWAP2 SWAP1 PUSH3 0xE11 JUMP JUMPDEST PUSH1 0x40 MLOAD DUP1 SWAP2 SUB SWAP1 LOG3 JUMPDEST POP POP POP POP JUMP JUMPDEST PUSH0 PUSH1 0x40 MLOAD SWAP1 POP SWAP1 JUMP JUMPDEST PUSH0 DUP1 REVERT JUMPDEST PUSH0 DUP1 REVERT JUMPDEST PUSH0 DUP1 REVERT JUMPDEST PUSH0 DUP1 REVERT JUMPDEST PUSH0 PUSH1 0x1F NOT PUSH1 0x1F DUP4 ADD AND SWAP1 POP SWAP2 SWAP1 POP JUMP JUMPDEST PUSH32 0x4E487B7100000000000000000000000000000000000000000000000000000000 PUSH0 MSTORE PUSH1 0x41 PUSH1 0x4 MSTORE PUSH1 0x24 PUSH0 REVERT JUMPDEST PUSH3 0x62A DUP3 PUSH3 0x5E2 JUMP JUMPDEST DUP2 ADD DUP2 DUP2 LT PUSH8 0xFFFFFFFFFFFFFFFF DUP3 GT OR ISZERO PUSH3 0x64C JUMPI PUSH3 0x64B PUSH3 0x5F2 JUMP JUMPDEST JUMPDEST DUP1 PUSH1 0x40 MSTORE POP POP POP JUMP JUMPDEST PUSH0 PUSH3 0x660 PUSH3 0x5C9 JUMP JUMPDEST SWAP1 POP PUSH3 0x66E DUP3 DUP3 PUSH3 0x61F JUMP JUMPDEST SWAP2 SWAP1 POP JUMP JUMPDEST PUSH0 PUSH8 0xFFFFFFFFFFFFFFFF DUP3 GT ISZERO PUSH3 0x690 JUMPI PUSH3 0x68F PUSH3 0x5F2 JUMP JUMPDEST JUMPDEST PUSH3 0x69B DUP3 PUSH3 0x5E2 JUMP JUMPDEST SWAP1 POP PUSH1 0x20 DUP2 ADD SWAP1 POP SWAP2 SWAP1 POP JUMP JUMPDEST PUSH0 JUMPDEST DUP4 DUP2 LT ISZERO PUSH3 0x6C7 JUMPI DUP1 DUP3 ADD MLOAD DUP2 DUP5 ADD MSTORE PUSH1 0x20 DUP2 ADD SWAP1 POP PUSH3 0x6AA JUMP JUMPDEST PUSH0 DUP5 DUP5 ADD MSTORE POP POP POP POP JUMP JUMPDEST PUSH0 PUSH3 0x6E8 PUSH3 0x6E2 DUP5 PUSH3 0x673 JUMP JUMPDEST PUSH3 0x655 JUMP JUMPDEST SWAP1 POP DUP3 DUP2 MSTORE PUSH1 0x20 DUP2 ADD DUP5 DUP5 DUP5 ADD GT ISZERO PUSH3 0x707 JUMPI PUSH3 0x706 PUSH3 0x5DE JUMP JUMPDEST JUMPDEST PUSH3 0x714 DUP5 DUP3 DUP6 PUSH3 0x6A8 JUMP JUMPDEST POP SWAP4 SWAP3 POP POP POP JUMP JUMPDEST PUSH0 DUP3 PUSH1 0x1F DUP4 ADD SLT PUSH3 0x733 JUMPI PUSH3 0x732 PUSH3 0x5DA JUMP JUMPDEST JUMPDEST DUP2 MLOAD PUSH3 0x745 DUP5 DUP3 PUSH1 0x20 DUP7 ADD PUSH3 0x6D2 JUMP JUMPDEST SWAP2 POP POP SWAP3 SWAP2 POP POP JUMP JUMPDEST PUSH0 PUSH20 0xFFFFFFFFFFFFFFFFFFFFFFFFFFFFFFFFFFFFFFFF DUP3 AND SWAP1 POP SWAP2 SWAP1 POP JUMP JUMPDEST PUSH0 PUSH3 0x779 DUP3 PUSH3 0x74E JUMP JUMPDEST SWAP1 POP SWAP2 SWAP1 POP JUMP JUMPDEST PUSH3 0x78B DUP2 PUSH3 0x76D JUMP JUMPDEST DUP2 EQ PUSH3 0x796 JUMPI PUSH0 DUP1 REVERT JUMPDEST POP JUMP JUMPDEST PUSH0 DUP2 MLOAD SWAP1 POP PUSH3 0x7A9 DUP2 PUSH3 0x780 JUMP JUMPDEST SWAP3 SWAP2 POP POP JUMP JUMPDEST PUSH0 PUSH8 0xFFFFFFFFFFFFFFFF DUP3 GT ISZERO PUSH3 0x7CC JUMPI PUSH3 0x7CB PUSH3 0x5F2 JUMP JUMPDEST JUMPDEST PUSH1 0x20 DUP3 MUL SWAP1 POP PUSH1 0x20 DUP2 ADD SWAP1 POP SWAP2 SWAP1 POP JUMP JUMPDEST PUSH0 DUP1 REVERT JUMPDEST PUSH0 DUP1 REVERT JUMPDEST PUSH0 DUP2 SWAP1 POP SWAP2 SWAP1 POP JUMP JUMPDEST PUSH3 0x7F9 DUP2 PUSH3 0x7E5 JUMP JUMPDEST DUP2 EQ PUSH3 0x804 JUMPI PUSH0 DUP1 REVERT JUMPDEST POP JUMP JUMPDEST PUSH0 DUP2 MLOAD SWAP1 POP PUSH3 0x817 DUP2 PUSH3 0x7EE JUMP JUMPDEST SWAP3 SWAP2 POP POP JUMP JUMPDEST PUSH0 PUSH1 0x40 DUP3 DUP5 SUB SLT ISZERO PUSH3 0x835 JUMPI PUSH3 0x834 PUSH3 0x7E1 JUMP JUMPDEST JUMPDEST PUSH3 0x841 PUSH1 0x40 PUSH3 0x655 JUMP JUMPDEST SWAP1 POP PUSH0 PUSH3 0x852 DUP5 DUP3 DUP6 ADD PUSH3 0x799 JUMP JUMPDEST PUSH0 DUP4 ADD MSTORE POP PUSH1 0x20 PUSH3 0x867 DUP5 DUP3 DUP6 ADD PUSH3 0x807 JUMP JUMPDEST PUSH1 0x20 DUP4 ADD MSTORE POP SWAP3 SWAP2 POP POP JUMP JUMPDEST PUSH0 PUSH3 0x889 PUSH3 0x883 DUP5 PUSH3 0x7AF JUMP JUMPDEST PUSH3 0x655 JUMP JUMPDEST SWAP1 POP DUP1 DUP4 DUP3 MSTORE PUSH1 0x20 DUP3 ADD SWAP1 POP PUSH1 0x40 DUP5 MUL DUP4 ADD DUP6 DUP2 GT ISZERO PUSH3 0x8AF JUMPI PUSH3 0x8AE PUSH3 0x7DD JUMP JUMPDEST JUMPDEST DUP4 JUMPDEST DUP2 DUP2 LT ISZERO PUSH3 0x8DC JUMPI DUP1 PUSH3 0x8C7 DUP9 DUP3 PUSH3 0x81D JUMP JUMPDEST DUP5 MSTORE PUSH1 0x20 DUP5 ADD SWAP4 POP POP PUSH1 0x40 DUP2 ADD SWAP1 POP PUSH3 0x8B1 JUMP JUMPDEST POP POP POP SWAP4 SWAP3 POP POP POP JUMP JUMPDEST PUSH0 DUP3 PUSH1 0x1F DUP4 ADD SLT PUSH3 0x8FD JUMPI PUSH3 0x8FC PUSH3 0x5DA JUMP JUMPDEST JUMPDEST DUP2 MLOAD PUSH3 0x90F DUP5 DUP3 PUSH1 0x20 DUP7 ADD PUSH3 0x873 JUMP JUMPDEST SWAP2 POP POP SWAP3 SWAP2 POP POP JUMP JUMPDEST PUSH1 0x5 DUP2 LT PUSH3 0x925 JUMPI PUSH0 DUP1 REVERT JUMPDEST POP JUMP JUMPDEST PUSH0 DUP2 MLOAD SWAP1 POP PUSH3 0x938 DUP2 PUSH3 0x918 JUMP JUMPDEST SWAP3 SWAP2 POP POP JUMP JUMPDEST PUSH0 DUP1 PUSH0 DUP1 PUSH0 DUP1 PUSH0 PUSH1 0xE0 DUP9 DUP11 SUB SLT ISZERO PUSH3 0x95C JUMPI PUSH3 0x95B PUSH3 0x5D2 JUMP JUMPDEST JUMPDEST PUSH0 DUP9 ADD MLOAD PUSH8 0xFFFFFFFFFFFFFFFF DUP2 GT ISZERO PUSH3 0x97C JUMPI PUSH3 0x97B PUSH3 0x5D6 JUMP JUMPDEST JUMPDEST PUSH3 0x98A DUP11 DUP3 DUP12 ADD PUSH3 0x71C JUMP JUMPDEST SWAP8 POP POP PUSH1 0x20 DUP9 ADD MLOAD PUSH8 0xFFFFFFFFFFFFFFFF DUP2 GT ISZERO PUSH3 0x9AE JUMPI PUSH3 0x9AD PUSH3 0x5D6 JUMP JUMPDEST JUMPDEST PUSH3 0x9BC DUP11 DUP3 DUP12 ADD PUSH3 0x71C JUMP JUMPDEST SWAP7 POP POP PUSH1 0x40 PUSH3 0x9CF DUP11 DUP3 DUP12 ADD PUSH3 0x799 JUMP JUMPDEST SWAP6 POP POP PUSH1 0x60 PUSH3 0x9E2 DUP11 DUP3 DUP12 ADD PUSH3 0x799 JUMP JUMPDEST SWAP5 POP POP PUSH1 0x80 DUP9 ADD MLOAD PUSH8 0xFFFFFFFFFFFFFFFF DUP2 GT ISZERO PUSH3 0xA06 JUMPI PUSH3 0xA05 PUSH3 0x5D6 JUMP JUMPDEST JUMPDEST PUSH3 0xA14 DUP11 DUP3 DUP12 ADD PUSH3 0x8E6 JUMP JUMPDEST SWAP4 POP POP PUSH1 0xA0 DUP9 ADD MLOAD PUSH8 0xFFFFFFFFFFFFFFFF DUP2 GT ISZERO PUSH3 0xA38 JUMPI PUSH3 0xA37 PUSH3 0x5D6 JUMP JUMPDEST JUMPDEST PUSH3 0xA46 DUP11 DUP3 DUP12 ADD PUSH3 0x8E6 JUMP JUMPDEST SWAP3 POP POP PUSH1 0xC0 PUSH3 0xA59 DUP11 DUP3 DUP12 ADD PUSH3 0x928 JUMP JUMPDEST SWAP2 POP POP SWAP3 SWAP6 SWAP9 SWAP2 SWAP5 SWAP8 POP SWAP3 SWAP6 POP JUMP JUMPDEST PUSH0 DUP2 MLOAD SWAP1 POP SWAP2 SWAP1 POP JUMP JUMPDEST PUSH32 0x4E487B7100000000000000000000000000000000000000000000000000000000 PUSH0 MSTORE PUSH1 0x22 PUSH1 0x4 MSTORE PUSH1 0x24 PUSH0 REVERT JUMPDEST PUSH0 PUSH1 0x2 DUP3 DIV SWAP1 POP PUSH1 0x1 DUP3 AND DUP1 PUSH3 0xAB7 JUMPI PUSH1 0x7F DUP3 AND SWAP2 POP JUMPDEST PUSH1 0x20 DUP3 LT DUP2 SUB PUSH3 0xACD JUMPI PUSH3 0xACC PUSH3 0xA72 JUMP JUMPDEST JUMPDEST POP SWAP2 SWAP1 POP JUMP JUMPDEST PUSH0 DUP2 SWAP1 POP DUP2 PUSH0 MSTORE PUSH1 0x20 PUSH0 KECCAK256 SWAP1 POP SWAP2 SWAP1 POP JUMP JUMPDEST PUSH0 PUSH1 0x20 PUSH1 0x1F DUP4 ADD DIV SWAP1 POP SWAP2 SWAP1 POP JUMP JUMPDEST PUSH0 DUP3 DUP3 SHL SWAP1 POP SWAP3 SWAP2 POP POP JUMP JUMPDEST PUSH0 PUSH1 0x8 DUP4 MUL PUSH3 0xB31 PUSH32 0xFFFFFFFFFFFFFFFFFFFFFFFFFFFFFFFFFFFFFFFFFFFFFFFFFFFFFFFFFFFFFFFF DUP3 PUSH3 0xAF4 JUMP JUMPDEST PUSH3 0xB3D DUP7 DUP4 PUSH3 0xAF4 JUMP JUMPDEST SWAP6 POP DUP1 NOT DUP5 AND SWAP4 POP DUP1 DUP7 AND DUP5 OR SWAP3 POP POP POP SWAP4 SWAP3 POP POP POP JUMP JUMPDEST PUSH0 DUP2 SWAP1 POP SWAP2 SWAP1 POP JUMP JUMPDEST PUSH0 PUSH3 0xB7E PUSH3 0xB78 PUSH3 0xB72 DUP5 PUSH3 0x7E5 JUMP JUMPDEST PUSH3 0xB55 JUMP JUMPDEST PUSH3 0x7E5 JUMP JUMPDEST SWAP1 POP SWAP2 SWAP1 POP JUMP JUMPDEST PUSH0 DUP2 SWAP1 POP SWAP2 SWAP1 POP JUMP JUMPDEST PUSH3 0xB99 DUP4 PUSH3 0xB5E JUMP JUMPDEST PUSH3 0xBB1 PUSH3 0xBA8 DUP3 PUSH3 0xB85 JUMP JUMPDEST DUP5 DUP5 SLOAD PUSH3 0xB00 JUMP JUMPDEST DUP3 SSTORE POP POP POP POP JUMP JUMPDEST PUSH0 SWAP1 JUMP JUMPDEST PUSH3 0xBC7 PUSH3 0xBB9 JUMP JUMPDEST PUSH3 0xBD4 DUP2 DUP5 DUP5 PUSH3 0xB8E JUMP JUMPDEST POP POP POP JUMP JUMPDEST JUMPDEST DUP2 DUP2 LT ISZERO PUSH3 0xBFB JUMPI PUSH3 0xBEF PUSH0 DUP3 PUSH3 0xBBD JUMP JUMPDEST PUSH1 0x1 DUP2 ADD SWAP1 POP PUSH3 0xBDA JUMP JUMPDEST POP POP JUMP JUMPDEST PUSH1 0x1F DUP3 GT ISZERO PUSH3 0xC4A JUMPI PUSH3 0xC14 DUP2 PUSH3 0xAD3 JUMP JUMPDEST PUSH3 0xC1F DUP5 PUSH3 0xAE5 JUMP JUMPDEST DUP2 ADD PUSH1 0x20 DUP6 LT ISZERO PUSH3 0xC2F JUMPI DUP2 SWAP1 POP JUMPDEST PUSH3 0xC47 PUSH3 0xC3E DUP6 PUSH3 0xAE5 JUMP JUMPDEST DUP4 ADD DUP3 PUSH3 0xBD9 JUMP JUMPDEST POP POP JUMPDEST POP POP POP JUMP JUMPDEST PUSH0 DUP3 DUP3 SHR SWAP1 POP SWAP3 SWAP2 POP POP JUMP JUMPDEST PUSH0 PUSH3 0xC6C PUSH0 NOT DUP5 PUSH1 0x8 MUL PUSH3 0xC4F JUMP JUMPDEST NOT DUP1 DUP4 AND SWAP2 POP POP SWAP3 SWAP2 POP POP JUMP JUMPDEST PUSH0 PUSH3 0xC86 DUP4 DUP4 PUSH3 0xC5B JUMP JUMPDEST SWAP2 POP DUP3 PUSH1 0x2 MUL DUP3 OR SWAP1 POP SWAP3 SWAP2 POP POP JUMP JUMPDEST PUSH3 0xCA1 DUP3 PUSH3 0xA68 JUMP JUMPDEST PUSH8 0xFFFFFFFFFFFFFFFF DUP2 GT ISZERO PUSH3 0xCBD JUMPI PUSH3 0xCBC PUSH3 0x5F2 JUMP JUMPDEST JUMPDEST PUSH3 0xCC9 DUP3 SLOAD PUSH3 0xA9F JUMP JUMPDEST PUSH3 0xCD6 DUP3 DUP3 DUP6 PUSH3 0xBFF JUMP JUMPDEST PUSH0 PUSH1 0x20 SWAP1 POP PUSH1 0x1F DUP4 GT PUSH1 0x1 DUP2 EQ PUSH3 0xD0C JUMPI PUSH0 DUP5 ISZERO PUSH3 0xCF7 JUMPI DUP3 DUP8 ADD MLOAD SWAP1 POP JUMPDEST PUSH3 0xD03 DUP6 DUP3 PUSH3 0xC79 JUMP JUMPDEST DUP7 SSTORE POP PUSH3 0xD72 JUMP JUMPDEST PUSH1 0x1F NOT DUP5 AND PUSH3 0xD1C DUP7 PUSH3 0xAD3 JUMP JUMPDEST PUSH0 JUMPDEST DUP3 DUP2 LT ISZERO PUSH3 0xD45 JUMPI DUP5 DUP10 ADD MLOAD DUP3 SSTORE PUSH1 0x1 DUP3 ADD SWAP2 POP PUSH1 0x20 DUP6 ADD SWAP5 POP PUSH1 0x20 DUP2 ADD SWAP1 POP PUSH3 0xD1E JUMP JUMPDEST DUP7 DUP4 LT ISZERO PUSH3 0xD65 JUMPI DUP5 DUP10 ADD MLOAD PUSH3 0xD61 PUSH1 0x1F DUP10 AND DUP3 PUSH3 0xC5B JUMP JUMPDEST DUP4 SSTORE POP JUMPDEST PUSH1 0x1 PUSH1 0x2 DUP9 MUL ADD DUP9 SSTORE POP POP POP JUMPDEST POP POP POP POP POP POP JUMP JUMPDEST PUSH3 0xD85 DUP2 PUSH3 0x76D JUMP JUMPDEST DUP3 MSTORE POP POP JUMP JUMPDEST PUSH0 PUSH1 0x20 DUP3 ADD SWAP1 POP PUSH3 0xDA0 PUSH0 DUP4 ADD DUP5 PUSH3 0xD7A JUMP JUMPDEST SWAP3 SWAP2 POP POP JUMP JUMPDEST PUSH32 0x4E487B7100000000000000000000000000000000000000000000000000000000 PUSH0 MSTORE PUSH1 0x21 PUSH1 0x4 MSTORE PUSH1 0x24 PUSH0 REVERT JUMPDEST PUSH32 0x4E487B7100000000000000000000000000000000000000000000000000000000 PUSH0 MSTORE PUSH1 0x32 PUSH1 0x4 MSTORE PUSH1 0x24 PUSH0 REVERT JUMPDEST PUSH3 0xE0B DUP2 PUSH3 0x7E5 JUMP JUMPDEST DUP3 MSTORE POP POP JUMP JUMPDEST PUSH0 PUSH1 0x20 DUP3 ADD SWAP1 POP PUSH3 0xE26 PUSH0 DUP4 ADD DUP5 PUSH3 0xE00 JUMP JUMPDEST SWAP3 SWAP2 POP POP JUMP JUMPDEST PUSH2 0x1B55 DUP1 PUSH3 0xE3A PUSH0 CODECOPY PUSH0 RETURN INVALID PUSH1 0x80 PUSH1 0x40 MSTORE CALLVALUE DUP1 ISZERO PUSH2 0xF JUMPI PUSH0 DUP1 REVERT JUMPDEST POP PUSH1 0x4 CALLDATASIZE LT PUSH2 0x140 JUMPI PUSH0 CALLDATALOAD PUSH1 0xE0 SHR DUP1 PUSH4 0x6FD5AE15 GT PUSH2 0xB6 JUMPI DUP1 PUSH4 0x95D89B41 GT PUSH2 0x7A JUMPI DUP1 PUSH4 0x95D89B41 EQ PUSH2 0x368 JUMPI DUP1 PUSH4 0xA9059CBB EQ PUSH2 0x386 JUMPI DUP1 PUSH4 0xBD5546BE EQ PUSH2 0x3B6 JUMPI DUP1 PUSH4 0xDD62ED3E EQ PUSH2 0x3D2 JUMPI DUP1 PUSH4 0xF2FDE38B EQ PUSH2 0x402 JUMPI DUP1 PUSH4 0xF9E05C6D EQ PUSH2 0x41E JUMPI PUSH2 0x140 JUMP JUMPDEST DUP1 PUSH4 0x6FD5AE15 EQ PUSH2 0x2D4 JUMPI DUP1 PUSH4 0x70A08231 EQ PUSH2 0x2F2 JUMPI DUP1 PUSH4 0x715018A6 EQ PUSH2 0x322 JUMPI DUP1 PUSH4 0x737D6A6C EQ PUSH2 0x32C JUMPI DUP1 PUSH4 0x8DA5CB5B EQ PUSH2 0x34A JUMPI PUSH2 0x140 JUMP JUMPDEST DUP1 PUSH4 0x313CE567 GT PUSH2 0x108 JUMPI DUP1 PUSH4 0x313CE567 EQ PUSH2 0x211 JUMPI DUP1 PUSH4 0x40C10F19 EQ PUSH2 0x22F JUMPI DUP1 PUSH4 0x42966C68 EQ PUSH2 0x24B JUMPI DUP1 PUSH4 0x48361490 EQ PUSH2 0x267 JUMPI DUP1 PUSH4 0x635A4CC5 EQ PUSH2 0x285 JUMPI DUP1 PUSH4 0x63A2B02B EQ PUSH2 0x2B6 JUMPI PUSH2 0x140 JUMP JUMPDEST DUP1 PUSH4 0x6FDDE03 EQ PUSH2 0x144 JUMPI DUP1 PUSH4 0x95EA7B3 EQ PUSH2 0x162 JUMPI DUP1 PUSH4 0xD9CE804 EQ PUSH2 0x192 JUMPI DUP1 PUSH4 0x18160DDD EQ PUSH2 0x1C3 JUMPI DUP1 PUSH4 0x23B872DD EQ PUSH2 0x1E1 JUMPI JUMPDEST PUSH0 DUP1 REVERT JUMPDEST PUSH2 0x14C PUSH2 0x43C JUMP JUMPDEST PUSH1 0x40 MLOAD PUSH2 0x159 SWAP2 SWAP1 PUSH2 0x1457 JUMP JUMPDEST PUSH1 0x40 MLOAD DUP1 SWAP2 SUB SWAP1 RETURN JUMPDEST PUSH2 0x17C PUSH1 0x4 DUP1 CALLDATASIZE SUB DUP2 ADD SWAP1 PUSH2 0x177 SWAP2 SWAP1 PUSH2 0x1508 JUMP JUMPDEST PUSH2 0x4CC JUMP JUMPDEST PUSH1 0x40 MLOAD PUSH2 0x189 SWAP2 SWAP1 PUSH2 0x1560 JUMP JUMPDEST PUSH1 0x40 MLOAD DUP1 SWAP2 SUB SWAP1 RETURN JUMPDEST PUSH2 0x1AC PUSH1 0x4 DUP1 CALLDATASIZE SUB DUP2 ADD SWAP1 PUSH2 0x1A7 SWAP2 SWAP1 PUSH2 0x1579 JUMP JUMPDEST PUSH2 0x4EE JUMP JUMPDEST PUSH1 0x40 MLOAD PUSH2 0x1BA SWAP3 SWAP2 SWAP1 PUSH2 0x15C2 JUMP JUMPDEST PUSH1 0x40 MLOAD DUP1 SWAP2 SUB SWAP1 RETURN JUMPDEST PUSH2 0x1CB PUSH2 0x53C JUMP JUMPDEST PUSH1 0x40 MLOAD PUSH2 0x1D8 SWAP2 SWAP1 PUSH2 0x15E9 JUMP JUMPDEST PUSH1 0x40 MLOAD DUP1 SWAP2 SUB SWAP1 RETURN JUMPDEST PUSH2 0x1FB PUSH1 0x4 DUP1 CALLDATASIZE SUB DUP2 ADD SWAP1 PUSH2 0x1F6 SWAP2 SWAP1 PUSH2 0x1602 JUMP JUMPDEST PUSH2 0x545 JUMP JUMPDEST PUSH1 0x40 MLOAD PUSH2 0x208 SWAP2 SWAP1 PUSH2 0x1560 JUMP JUMPDEST PUSH1 0x40 MLOAD DUP1 SWAP2 SUB SWAP1 RETURN JUMPDEST PUSH2 0x219 PUSH2 0x573 JUMP JUMPDEST PUSH1 0x40 MLOAD PUSH2 0x226 SWAP2 SWAP1 PUSH2 0x166D JUMP JUMPDEST PUSH1 0x40 MLOAD DUP1 SWAP2 SUB SWAP1 RETURN JUMPDEST PUSH2 0x249 PUSH1 0x4 DUP1 CALLDATASIZE SUB DUP2 ADD SWAP1 PUSH2 0x244 SWAP2 SWAP1 PUSH2 0x1508 JUMP JUMPDEST PUSH2 0x57B JUMP JUMPDEST STOP JUMPDEST PUSH2 0x265 PUSH1 0x4 DUP1 CALLDATASIZE SUB DUP2 ADD SWAP1 PUSH2 0x260 SWAP2 SWAP1 PUSH2 0x1579 JUMP JUMPDEST PUSH2 0x618 JUMP JUMPDEST STOP JUMPDEST PUSH2 0x26F PUSH2 0x6B4 JUMP JUMPDEST PUSH1 0x40 MLOAD PUSH2 0x27C SWAP2 SWAP1 PUSH2 0x1779 JUMP JUMPDEST PUSH1 0x40 MLOAD DUP1 SWAP2 SUB SWAP1 RETURN JUMPDEST PUSH2 0x29F PUSH1 0x4 DUP1 CALLDATASIZE SUB DUP2 ADD SWAP1 PUSH2 0x29A SWAP2 SWAP1 PUSH2 0x1579 JUMP JUMPDEST PUSH2 0x76E JUMP JUMPDEST PUSH1 0x40 MLOAD PUSH2 0x2AD SWAP3 SWAP2 SWAP1 PUSH2 0x15C2 JUMP JUMPDEST PUSH1 0x40 MLOAD DUP1 SWAP2 SUB SWAP1 RETURN JUMPDEST PUSH2 0x2BE PUSH2 0x7BC JUMP JUMPDEST PUSH1 0x40 MLOAD PUSH2 0x2CB SWAP2 SWAP1 PUSH2 0x1560 JUMP JUMPDEST PUSH1 0x40 MLOAD DUP1 SWAP2 SUB SWAP1 RETURN JUMPDEST PUSH2 0x2DC PUSH2 0x7F8 JUMP JUMPDEST PUSH1 0x40 MLOAD PUSH2 0x2E9 SWAP2 SWAP1 PUSH2 0x180C JUMP JUMPDEST PUSH1 0x40 MLOAD DUP1 SWAP2 SUB SWAP1 RETURN JUMPDEST PUSH2 0x30C PUSH1 0x4 DUP1 CALLDATASIZE SUB DUP2 ADD SWAP1 PUSH2 0x307 SWAP2 SWAP1 PUSH2 0x1825 JUMP JUMPDEST PUSH2 0x80B JUMP JUMPDEST PUSH1 0x40 MLOAD PUSH2 0x319 SWAP2 SWAP1 PUSH2 0x15E9 JUMP JUMPDEST PUSH1 0x40 MLOAD DUP1 SWAP2 SUB SWAP1 RETURN JUMPDEST PUSH2 0x32A PUSH2 0x81C JUMP JUMPDEST STOP JUMPDEST PUSH2 0x334 PUSH2 0x82F JUMP JUMPDEST PUSH1 0x40 MLOAD PUSH2 0x341 SWAP2 SWAP1 PUSH2 0x1779 JUMP JUMPDEST PUSH1 0x40 MLOAD DUP1 SWAP2 SUB SWAP1 RETURN JUMPDEST PUSH2 0x352 PUSH2 0x8E9 JUMP JUMPDEST PUSH1 0x40 MLOAD PUSH2 0x35F SWAP2 SWAP1 PUSH2 0x1850 JUMP JUMPDEST PUSH1 0x40 MLOAD DUP1 SWAP2 SUB SWAP1 RETURN JUMPDEST PUSH2 0x370 PUSH2 0x911 JUMP JUMPDEST PUSH1 0x40 MLOAD PUSH2 0x37D SWAP2 SWAP1 PUSH2 0x1457 JUMP JUMPDEST PUSH1 0x40 MLOAD DUP1 SWAP2 SUB SWAP1 RETURN JUMPDEST PUSH2 0x3A0 PUSH1 0x4 DUP1 CALLDATASIZE SUB DUP2 ADD SWAP1 PUSH2 0x39B SWAP2 SWAP1 PUSH2 0x1508 JUMP JUMPDEST PUSH2 0x9A1 JUMP JUMPDEST PUSH1 0x40 MLOAD PUSH2 0x3AD SWAP2 SWAP1 PUSH2 0x1560 JUMP JUMPDEST PUSH1 0x40 MLOAD DUP1 SWAP2 SUB SWAP1 RETURN JUMPDEST PUSH2 0x3D0 PUSH1 0x4 DUP1 CALLDATASIZE SUB DUP2 ADD SWAP1 PUSH2 0x3CB SWAP2 SWAP1 PUSH2 0x188C JUMP JUMPDEST PUSH2 0x9B4 JUMP JUMPDEST STOP JUMPDEST PUSH2 0x3EC PUSH1 0x4 DUP1 CALLDATASIZE SUB DUP2 ADD SWAP1 PUSH2 0x3E7 SWAP2 SWAP1 PUSH2 0x18B7 JUMP JUMPDEST PUSH2 0xA70 JUMP JUMPDEST PUSH1 0x40 MLOAD PUSH2 0x3F9 SWAP2 SWAP1 PUSH2 0x15E9 JUMP JUMPDEST PUSH1 0x40 MLOAD DUP1 SWAP2 SUB SWAP1 RETURN JUMPDEST PUSH2 0x41C PUSH1 0x4 DUP1 CALLDATASIZE SUB DUP2 ADD SWAP1 PUSH2 0x417 SWAP2 SWAP1 PUSH2 0x1825 JUMP JUMPDEST PUSH2 0xAF2 JUMP JUMPDEST STOP JUMPDEST PUSH2 0x426 PUSH2 0xB76 JUMP JUMPDEST PUSH1 0x40 MLOAD PUSH2 0x433 SWAP2 SWAP1 PUSH2 0x1850 JUMP JUMPDEST PUSH1 0x40 MLOAD DUP1 SWAP2 SUB SWAP1 RETURN JUMPDEST PUSH1 0x60 PUSH1 0x3 DUP1 SLOAD PUSH2 0x44B SWAP1 PUSH2 0x1922 JUMP JUMPDEST DUP1 PUSH1 0x1F ADD PUSH1 0x20 DUP1 SWAP2 DIV MUL PUSH1 0x20 ADD PUSH1 0x40 MLOAD SWAP1 DUP2 ADD PUSH1 0x40 MSTORE DUP1 SWAP3 SWAP2 SWAP1 DUP2 DUP2 MSTORE PUSH1 0x20 ADD DUP3 DUP1 SLOAD PUSH2 0x477 SWAP1 PUSH2 0x1922 JUMP JUMPDEST DUP1 ISZERO PUSH2 0x4C2 JUMPI DUP1 PUSH1 0x1F LT PUSH2 0x499 JUMPI PUSH2 0x100 DUP1 DUP4 SLOAD DIV MUL DUP4 MSTORE SWAP2 PUSH1 0x20 ADD SWAP2 PUSH2 0x4C2 JUMP JUMPDEST DUP3 ADD SWAP2 SWAP1 PUSH0 MSTORE PUSH1 0x20 PUSH0 KECCAK256 SWAP1 JUMPDEST DUP2 SLOAD DUP2 MSTORE SWAP1 PUSH1 0x1 ADD SWAP1 PUSH1 0x20 ADD DUP1 DUP4 GT PUSH2 0x4A5 JUMPI DUP3 SWAP1 SUB PUSH1 0x1F AND DUP3 ADD SWAP2 JUMPDEST POP POP POP POP POP SWAP1 POP SWAP1 JUMP JUMPDEST PUSH0 DUP1 PUSH2 0x4D6 PUSH2 0xB9B JUMP JUMPDEST SWAP1 POP PUSH2 0x4E3 DUP2 DUP6 DUP6 PUSH2 0xBA2 JUMP JUMPDEST PUSH1 0x1 SWAP2 POP POP SWAP3 SWAP2 POP POP JUMP JUMPDEST PUSH1 0x7 DUP2 DUP2 SLOAD DUP2 LT PUSH2 0x4FD JUMPI PUSH0 DUP1 REVERT JUMPDEST SWAP1 PUSH0 MSTORE PUSH1 0x20 PUSH0 KECCAK256 SWAP1 PUSH1 0x2 MUL ADD PUSH0 SWAP2 POP SWAP1 POP DUP1 PUSH0 ADD PUSH0 SWAP1 SLOAD SWAP1 PUSH2 0x100 EXP SWAP1 DIV PUSH20 0xFFFFFFFFFFFFFFFFFFFFFFFFFFFFFFFFFFFFFFFF AND SWAP1 DUP1 PUSH1 0x1 ADD SLOAD SWAP1 POP DUP3 JUMP JUMPDEST PUSH0 PUSH1 0x2 SLOAD SWAP1 POP SWAP1 JUMP JUMPDEST PUSH0 DUP1 PUSH2 0x54F PUSH2 0xB9B JUMP JUMPDEST SWAP1 POP PUSH2 0x55C DUP6 DUP3 DUP6 PUSH2 0xBB4 JUMP JUMPDEST PUSH2 0x567 DUP6 DUP6 DUP6 PUSH2 0xC46 JUMP JUMPDEST PUSH1 0x1 SWAP2 POP POP SWAP4 SWAP3 POP POP POP JUMP JUMPDEST PUSH0 PUSH1 0x12 SWAP1 POP SWAP1 JUMP JUMPDEST PUSH1 0x6 PUSH0 SWAP1 SLOAD SWAP1 PUSH2 0x100 EXP SWAP1 DIV PUSH20 0xFFFFFFFFFFFFFFFFFFFFFFFFFFFFFFFFFFFFFFFF AND PUSH20 0xFFFFFFFFFFFFFFFFFFFFFFFFFFFFFFFFFFFFFFFF AND CALLER PUSH20 0xFFFFFFFFFFFFFFFFFFFFFFFFFFFFFFFFFFFFFFFF AND EQ PUSH2 0x60A JUMPI PUSH1 0x40 MLOAD PUSH32 0x8C379A000000000000000000000000000000000000000000000000000000000 DUP2 MSTORE PUSH1 0x4 ADD PUSH2 0x601 SWAP1 PUSH2 0x199C JUMP JUMPDEST PUSH1 0x40 MLOAD DUP1 SWAP2 SUB SWAP1 REVERT JUMPDEST PUSH2 0x614 DUP3 DUP3 PUSH2 0xD36 JUMP JUMPDEST POP POP JUMP JUMPDEST PUSH1 0x6 PUSH0 SWAP1 SLOAD SWAP1 PUSH2 0x100 EXP SWAP1 DIV PUSH20 0xFFFFFFFFFFFFFFFFFFFFFFFFFFFFFFFFFFFFFFFF AND PUSH20 0xFFFFFFFFFFFFFFFFFFFFFFFFFFFFFFFFFFFFFFFF AND CALLER PUSH20 0xFFFFFFFFFFFFFFFFFFFFFFFFFFFFFFFFFFFFFFFF AND EQ PUSH2 0x6A7 JUMPI PUSH1 0x40 MLOAD PUSH32 0x8C379A000000000000000000000000000000000000000000000000000000000 DUP2 MSTORE PUSH1 0x4 ADD PUSH2 0x69E SWAP1 PUSH2 0x1A04 JUMP JUMPDEST PUSH1 0x40 MLOAD DUP1 SWAP2 SUB SWAP1 REVERT JUMPDEST PUSH2 0x6B1 CALLER DUP3 PUSH2 0xDB5 JUMP JUMPDEST POP JUMP JUMPDEST PUSH1 0x60 PUSH1 0x7 DUP1 SLOAD DUP1 PUSH1 0x20 MUL PUSH1 0x20 ADD PUSH1 0x40 MLOAD SWAP1 DUP2 ADD PUSH1 0x40 MSTORE DUP1 SWAP3 SWAP2 SWAP1 DUP2 DUP2 MSTORE PUSH1 0x20 ADD PUSH0 SWAP1 JUMPDEST DUP3 DUP3 LT ISZERO PUSH2 0x765 JUMPI DUP4 DUP3 SWAP1 PUSH0 MSTORE PUSH1 0x20 PUSH0 KECCAK256 SWAP1 PUSH1 0x2 MUL ADD PUSH1 0x40 MLOAD DUP1 PUSH1 0x40 ADD PUSH1 0x40 MSTORE SWAP1 DUP2 PUSH0 DUP3 ADD PUSH0 SWAP1 SLOAD SWAP1 PUSH2 0x100 EXP SWAP1 DIV PUSH20 0xFFFFFFFFFFFFFFFFFFFFFFFFFFFFFFFFFFFFFFFF AND PUSH20 0xFFFFFFFFFFFFFFFFFFFFFFFFFFFFFFFFFFFFFFFF AND PUSH20 0xFFFFFFFFFFFFFFFFFFFFFFFFFFFFFFFFFFFFFFFF AND DUP2 MSTORE PUSH1 0x20 ADD PUSH1 0x1 DUP3 ADD SLOAD DUP2 MSTORE POP POP DUP2 MSTORE PUSH1 0x20 ADD SWAP1 PUSH1 0x1 ADD SWAP1 PUSH2 0x6D7 JUMP JUMPDEST POP POP POP POP SWAP1 POP SWAP1 JUMP JUMPDEST PUSH1 0x8 DUP2 DUP2 SLOAD DUP2 LT PUSH2 0x77D JUMPI PUSH0 DUP1 REVERT JUMPDEST SWAP1 PUSH0 MSTORE PUSH1 0x20 PUSH0 KECCAK256 SWAP1 PUSH1 0x2 MUL ADD PUSH0 SWAP2 POP SWAP1 POP DUP1 PUSH0 ADD PUSH0 SWAP1 SLOAD SWAP1 PUSH2 0x100 EXP SWAP1 DIV PUSH20 0xFFFFFFFFFFFFFFFFFFFFFFFFFFFFFFFFFFFFFFFF AND SWAP1 DUP1 PUSH1 0x1 ADD SLOAD SWAP1 POP DUP3 JUMP JUMPDEST PUSH0 DUP1 PUSH1 0x4 DUP2 GT ISZERO PUSH2 0x7D0 JUMPI PUSH2 0x7CF PUSH2 0x1799 JUMP JUMPDEST JUMPDEST PUSH1 0x6 PUSH1 0x14 SWAP1 SLOAD SWAP1 PUSH2 0x100 EXP SWAP1 DIV PUSH1 0xFF AND PUSH1 0x4 DUP2 GT ISZERO PUSH2 0x7F2 JUMPI PUSH2 0x7F1 PUSH2 0x1799 JUMP JUMPDEST JUMPDEST EQ SWAP1 POP SWAP1 JUMP JUMPDEST PUSH1 0x6 PUSH1 0x14 SWAP1 SLOAD SWAP1 PUSH2 0x100 EXP SWAP1 DIV PUSH1 0xFF AND DUP2 JUMP JUMPDEST PUSH0 PUSH2 0x815 DUP3 PUSH2 0xE34 JUMP JUMPDEST SWAP1 POP SWAP2 SWAP1 POP JUMP JUMPDEST PUSH2 0x824 PUSH2 0xE79 JUMP JUMPDEST PUSH2 0x82D PUSH0 PUSH2 0xF00 JUMP JUMPDEST JUMP JUMPDEST PUSH1 0x60 PUSH1 0x8 DUP1 SLOAD DUP1 PUSH1 0x20 MUL PUSH1 0x20 ADD PUSH1 0x40 MLOAD SWAP1 DUP2 ADD PUSH1 0x40 MSTORE DUP1 SWAP3 SWAP2 SWAP1 DUP2 DUP2 MSTORE PUSH1 0x20 ADD PUSH0 SWAP1 JUMPDEST DUP3 DUP3 LT ISZERO PUSH2 0x8E0 JUMPI DUP4 DUP3 SWAP1 PUSH0 MSTORE PUSH1 0x20 PUSH0 KECCAK256 SWAP1 PUSH1 0x2 MUL ADD PUSH1 0x40 MLOAD DUP1 PUSH1 0x40 ADD PUSH1 0x40 MSTORE SWAP1 DUP2 PUSH0 DUP3 ADD PUSH0 SWAP1 SLOAD SWAP1 PUSH2 0x100 EXP SWAP1 DIV PUSH20 0xFFFFFFFFFFFFFFFFFFFFFFFFFFFFFFFFFFFFFFFF AND PUSH20 0xFFFFFFFFFFFFFFFFFFFFFFFFFFFFFFFFFFFFFFFF AND PUSH20 0xFFFFFFFFFFFFFFFFFFFFFFFFFFFFFFFFFFFFFFFF AND DUP2 MSTORE PUSH1 0x20 ADD PUSH1 0x1 DUP3 ADD SLOAD DUP2 MSTORE POP POP DUP2 MSTORE PUSH1 0x20 ADD SWAP1 PUSH1 0x1 ADD SWAP1 PUSH2 0x852 JUMP JUMPDEST POP POP POP POP SWAP1 POP SWAP1 JUMP JUMPDEST PUSH0 PUSH1 0x5 PUSH0 SWAP1 SLOAD SWAP1 PUSH2 0x100 EXP SWAP1 DIV PUSH20 0xFFFFFFFFFFFFFFFFFFFFFFFFFFFFFFFFFFFFFFFF AND SWAP1 POP SWAP1 JUMP JUMPDEST PUSH1 0x60 PUSH1 0x4 DUP1 SLOAD PUSH2 0x920 SWAP1 PUSH2 0x1922 JUMP JUMPDEST DUP1 PUSH1 0x1F ADD PUSH1 0x20 DUP1 SWAP2 DIV MUL PUSH1 0x20 ADD PUSH1 0x40 MLOAD SWAP1 DUP2 ADD PUSH1 0x40 MSTORE DUP1 SWAP3 SWAP2 SWAP1 DUP2 DUP2 MSTORE PUSH1 0x20 ADD DUP3 DUP1 SLOAD PUSH2 0x94C SWAP1 PUSH2 0x1922 JUMP JUMPDEST DUP1 ISZERO PUSH2 0x997 JUMPI DUP1 PUSH1 0x1F LT PUSH2 0x96E JUMPI PUSH2 0x100 DUP1 DUP4 SLOAD DIV MUL DUP4 MSTORE SWAP2 PUSH1 0x20 ADD SWAP2 PUSH2 0x997 JUMP JUMPDEST DUP3 ADD SWAP2 SWAP1 PUSH0 MSTORE PUSH1 0x20 PUSH0 KECCAK256 SWAP1 JUMPDEST DUP2 SLOAD DUP2 MSTORE SWAP1 PUSH1 0x1 ADD SWAP1 PUSH1 0x20 ADD DUP1 DUP4 GT PUSH2 0x97A JUMPI DUP3 SWAP1 SUB PUSH1 0x1F AND DUP3 ADD SWAP2 JUMPDEST POP POP POP POP POP SWAP1 POP SWAP1 JUMP JUMPDEST PUSH0 PUSH2 0x9AC DUP4 DUP4 PUSH2 0xFC3 JUMP JUMPDEST SWAP1 POP SWAP3 SWAP2 POP POP JUMP JUMPDEST PUSH1 0x6 PUSH0 SWAP1 SLOAD SWAP1 PUSH2 0x100 EXP SWAP1 DIV PUSH20 0xFFFFFFFFFFFFFFFFFFFFFFFFFFFFFFFFFFFFFFFF AND PUSH20 0xFFFFFFFFFFFFFFFFFFFFFFFFFFFFFFFFFFFFFFFF AND CALLER PUSH20 0xFFFFFFFFFFFFFFFFFFFFFFFFFFFFFFFFFFFFFFFF AND EQ PUSH2 0xA43 JUMPI PUSH1 0x40 MLOAD PUSH32 0x8C379A000000000000000000000000000000000000000000000000000000000 DUP2 MSTORE PUSH1 0x4 ADD PUSH2 0xA3A SWAP1 PUSH2 0x1A6C JUMP JUMPDEST PUSH1 0x40 MLOAD DUP1 SWAP2 SUB SWAP1 REVERT JUMPDEST DUP1 PUSH1 0x6 PUSH1 0x14 PUSH2 0x100 EXP DUP2 SLOAD DUP2 PUSH1 0xFF MUL NOT AND SWAP1 DUP4 PUSH1 0x4 DUP2 GT ISZERO PUSH2 0xA68 JUMPI PUSH2 0xA67 PUSH2 0x1799 JUMP JUMPDEST JUMPDEST MUL OR SWAP1 SSTORE POP POP JUMP JUMPDEST PUSH0 PUSH1 0x1 PUSH0 DUP5 PUSH20 0xFFFFFFFFFFFFFFFFFFFFFFFFFFFFFFFFFFFFFFFF AND PUSH20 0xFFFFFFFFFFFFFFFFFFFFFFFFFFFFFFFFFFFFFFFF AND DUP2 MSTORE PUSH1 0x20 ADD SWAP1 DUP2 MSTORE PUSH1 0x20 ADD PUSH0 KECCAK256 PUSH0 DUP4 PUSH20 0xFFFFFFFFFFFFFFFFFFFFFFFFFFFFFFFFFFFFFFFF AND PUSH20 0xFFFFFFFFFFFFFFFFFFFFFFFFFFFFFFFFFFFFFFFF AND DUP2 MSTORE PUSH1 0x20 ADD SWAP1 DUP2 MSTORE PUSH1 0x20 ADD PUSH0 KECCAK256 SLOAD SWAP1 POP SWAP3 SWAP2 POP POP JUMP JUMPDEST PUSH2 0xAFA PUSH2 0xE79 JUMP JUMPDEST PUSH0 PUSH20 0xFFFFFFFFFFFFFFFFFFFFFFFFFFFFFFFFFFFFFFFF AND DUP2 PUSH20 0xFFFFFFFFFFFFFFFFFFFFFFFFFFFFFFFFFFFFFFFF AND SUB PUSH2 0xB6A JUMPI PUSH0 PUSH1 0x40 MLOAD PUSH32 0x1E4FBDF700000000000000000000000000000000000000000000000000000000 DUP2 MSTORE PUSH1 0x4 ADD PUSH2 0xB61 SWAP2 SWAP1 PUSH2 0x1850 JUMP JUMPDEST PUSH1 0x40 MLOAD DUP1 SWAP2 SUB SWAP1 REVERT JUMPDEST PUSH2 0xB73 DUP2 PUSH2 0xF00 JUMP JUMPDEST POP JUMP JUMPDEST PUSH1 0x6 PUSH0 SWAP1 SLOAD SWAP1 PUSH2 0x100 EXP SWAP1 DIV PUSH20 0xFFFFFFFFFFFFFFFFFFFFFFFFFFFFFFFFFFFFFFFF AND DUP2 JUMP JUMPDEST PUSH0 CALLER SWAP1 POP SWAP1 JUMP JUMPDEST PUSH2 0xBAF DUP4 DUP4 DUP4 PUSH1 0x1 PUSH2 0xFE5 JUMP JUMPDEST POP POP POP JUMP JUMPDEST PUSH0 PUSH2 0xBBF DUP5 DUP5 PUSH2 0xA70 JUMP JUMPDEST SWAP1 POP PUSH32 0xFFFFFFFFFFFFFFFFFFFFFFFFFFFFFFFFFFFFFFFFFFFFFFFFFFFFFFFFFFFFFFFF DUP2 EQ PUSH2 0xC40 JUMPI DUP2 DUP2 LT ISZERO PUSH2 0xC31 JUMPI DUP3 DUP2 DUP4 PUSH1 0x40 MLOAD PUSH32 0xFB8F41B200000000000000000000000000000000000000000000000000000000 DUP2 MSTORE PUSH1 0x4 ADD PUSH2 0xC28 SWAP4 SWAP3 SWAP2 SWAP1 PUSH2 0x1A8A JUMP JUMPDEST PUSH1 0x40 MLOAD DUP1 SWAP2 SUB SWAP1 REVERT JUMPDEST PUSH2 0xC3F DUP5 DUP5 DUP5 DUP5 SUB PUSH0 PUSH2 0xFE5 JUMP JUMPDEST JUMPDEST POP POP POP POP JUMP JUMPDEST PUSH0 PUSH20 0xFFFFFFFFFFFFFFFFFFFFFFFFFFFFFFFFFFFFFFFF AND DUP4 PUSH20 0xFFFFFFFFFFFFFFFFFFFFFFFFFFFFFFFFFFFFFFFF AND SUB PUSH2 0xCB6 JUMPI PUSH0 PUSH1 0x40 MLOAD PUSH32 0x96C6FD1E00000000000000000000000000000000000000000000000000000000 DUP2 MSTORE PUSH1 0x4 ADD PUSH2 0xCAD SWAP2 SWAP1 PUSH2 0x1850 JUMP JUMPDEST PUSH1 0x40 MLOAD DUP1 SWAP2 SUB SWAP1 REVERT JUMPDEST PUSH0 PUSH20 0xFFFFFFFFFFFFFFFFFFFFFFFFFFFFFFFFFFFFFFFF AND DUP3 PUSH20 0xFFFFFFFFFFFFFFFFFFFFFFFFFFFFFFFFFFFFFFFF AND SUB PUSH2 0xD26 JUMPI PUSH0 PUSH1 0x40 MLOAD PUSH32 0xEC442F0500000000000000000000000000000000000000000000000000000000 DUP2 MSTORE PUSH1 0x4 ADD PUSH2 0xD1D SWAP2 SWAP1 PUSH2 0x1850 JUMP JUMPDEST PUSH1 0x40 MLOAD DUP1 SWAP2 SUB SWAP1 REVERT JUMPDEST PUSH2 0xD31 DUP4 DUP4 DUP4 PUSH2 0x11B4 JUMP JUMPDEST POP POP POP JUMP JUMPDEST PUSH0 PUSH20 0xFFFFFFFFFFFFFFFFFFFFFFFFFFFFFFFFFFFFFFFF AND DUP3 PUSH20 0xFFFFFFFFFFFFFFFFFFFFFFFFFFFFFFFFFFFFFFFF AND SUB PUSH2 0xDA6 JUMPI PUSH0 PUSH1 0x40 MLOAD PUSH32 0xEC442F0500000000000000000000000000000000000000000000000000000000 DUP2 MSTORE PUSH1 0x4 ADD PUSH2 0xD9D SWAP2 SWAP1 PUSH2 0x1850 JUMP JUMPDEST PUSH1 0x40 MLOAD DUP1 SWAP2 SUB SWAP1 REVERT JUMPDEST PUSH2 0xDB1 PUSH0 DUP4 DUP4 PUSH2 0x11B4 JUMP JUMPDEST POP POP JUMP JUMPDEST PUSH0 PUSH20 0xFFFFFFFFFFFFFFFFFFFFFFFFFFFFFFFFFFFFFFFF AND DUP3 PUSH20 0xFFFFFFFFFFFFFFFFFFFFFFFFFFFFFFFFFFFFFFFF AND SUB PUSH2 0xE25 JUMPI PUSH0 PUSH1 0x40 MLOAD PUSH32 0x96C6FD1E00000000000000000000000000000000000000000000000000000000 DUP2 MSTORE PUSH1 0x4 ADD PUSH2 0xE1C SWAP2 SWAP1 PUSH2 0x1850 JUMP JUMPDEST PUSH1 0x40 MLOAD DUP1 SWAP2 SUB SWAP1 REVERT JUMPDEST PUSH2 0xE30 DUP3 PUSH0 DUP4 PUSH2 0x11B4 JUMP JUMPDEST POP POP JUMP JUMPDEST PUSH0 DUP1 PUSH0 DUP4 PUSH20 0xFFFFFFFFFFFFFFFFFFFFFFFFFFFFFFFFFFFFFFFF AND PUSH20 0xFFFFFFFFFFFFFFFFFFFFFFFFFFFFFFFFFFFFFFFF AND DUP2 MSTORE PUSH1 0x20 ADD SWAP1 DUP2 MSTORE PUSH1 0x20 ADD PUSH0 KECCAK256 SLOAD SWAP1 POP SWAP2 SWAP1 POP JUMP JUMPDEST PUSH2 0xE81 PUSH2 0xB9B JUMP JUMPDEST PUSH20 0xFFFFFFFFFFFFFFFFFFFFFFFFFFFFFFFFFFFFFFFF AND PUSH2 0xE9F PUSH2 0x8E9 JUMP JUMPDEST PUSH20 0xFFFFFFFFFFFFFFFFFFFFFFFFFFFFFFFFFFFFFFFF AND EQ PUSH2 0xEFE JUMPI PUSH2 0xEC2 PUSH2 0xB9B JUMP JUMPDEST PUSH1 0x40 MLOAD PUSH32 0x118CDAA700000000000000000000000000000000000000000000000000000000 DUP2 MSTORE PUSH1 0x4 ADD PUSH2 0xEF5 SWAP2 SWAP1 PUSH2 0x1850 JUMP JUMPDEST PUSH1 0x40 MLOAD DUP1 SWAP2 SUB SWAP1 REVERT JUMPDEST JUMP JUMPDEST PUSH0 PUSH1 0x5 PUSH0 SWAP1 SLOAD SWAP1 PUSH2 0x100 EXP SWAP1 DIV PUSH20 0xFFFFFFFFFFFFFFFFFFFFFFFFFFFFFFFFFFFFFFFF AND SWAP1 POP DUP2 PUSH1 0x5 PUSH0 PUSH2 0x100 EXP DUP2 SLOAD DUP2 PUSH20 0xFFFFFFFFFFFFFFFFFFFFFFFFFFFFFFFFFFFFFFFF MUL NOT AND SWAP1 DUP4 PUSH20 0xFFFFFFFFFFFFFFFFFFFFFFFFFFFFFFFFFFFFFFFF AND MUL OR SWAP1 SSTORE POP DUP2 PUSH20 0xFFFFFFFFFFFFFFFFFFFFFFFFFFFFFFFFFFFFFFFF AND DUP2 PUSH20 0xFFFFFFFFFFFFFFFFFFFFFFFFFFFFFFFFFFFFFFFF AND PUSH32 0x8BE0079C531659141344CD1FD0A4F28419497F9722A3DAAFE3B4186F6B6457E0 PUSH1 0x40 MLOAD PUSH1 0x40 MLOAD DUP1 SWAP2 SUB SWAP1 LOG3 POP POP JUMP JUMPDEST PUSH0 DUP1 PUSH2 0xFCD PUSH2 0xB9B JUMP JUMPDEST SWAP1 POP PUSH2 0xFDA DUP2 DUP6 DUP6 PUSH2 0xC46 JUMP JUMPDEST PUSH1 0x1 SWAP2 POP POP SWAP3 SWAP2 POP POP JUMP JUMPDEST PUSH0 PUSH20 0xFFFFFFFFFFFFFFFFFFFFFFFFFFFFFFFFFFFFFFFF AND DUP5 PUSH20 0xFFFFFFFFFFFFFFFFFFFFFFFFFFFFFFFFFFFFFFFF AND SUB PUSH2 0x1055 JUMPI PUSH0 PUSH1 0x40 MLOAD PUSH32 0xE602DF0500000000000000000000000000000000000000000000000000000000 DUP2 MSTORE PUSH1 0x4 ADD PUSH2 0x104C SWAP2 SWAP1 PUSH2 0x1850 JUMP JUMPDEST PUSH1 0x40 MLOAD DUP1 SWAP2 SUB SWAP1 REVERT JUMPDEST PUSH0 PUSH20 0xFFFFFFFFFFFFFFFFFFFFFFFFFFFFFFFFFFFFFFFF AND DUP4 PUSH20 0xFFFFFFFFFFFFFFFFFFFFFFFFFFFFFFFFFFFFFFFF AND SUB PUSH2 0x10C5 JUMPI PUSH0 PUSH1 0x40 MLOAD PUSH32 0x94280D6200000000000000000000000000000000000000000000000000000000 DUP2 MSTORE PUSH1 0x4 ADD PUSH2 0x10BC SWAP2 SWAP1 PUSH2 0x1850 JUMP JUMPDEST PUSH1 0x40 MLOAD DUP1 SWAP2 SUB SWAP1 REVERT JUMPDEST DUP2 PUSH1 0x1 PUSH0 DUP7 PUSH20 0xFFFFFFFFFFFFFFFFFFFFFFFFFFFFFFFFFFFFFFFF AND PUSH20 0xFFFFFFFFFFFFFFFFFFFFFFFFFFFFFFFFFFFFFFFF AND DUP2 MSTORE PUSH1 0x20 ADD SWAP1 DUP2 MSTORE PUSH1 0x20 ADD PUSH0 KECCAK256 PUSH0 DUP6 PUSH20 0xFFFFFFFFFFFFFFFFFFFFFFFFFFFFFFFFFFFFFFFF AND PUSH20 0xFFFFFFFFFFFFFFFFFFFFFFFFFFFFFFFFFFFFFFFF AND DUP2 MSTORE PUSH1 0x20 ADD SWAP1 DUP2 MSTORE PUSH1 0x20 ADD PUSH0 KECCAK256 DUP2 SWAP1 SSTORE POP DUP1 ISZERO PUSH2 0x11AE JUMPI DUP3 PUSH20 0xFFFFFFFFFFFFFFFFFFFFFFFFFFFFFFFFFFFFFFFF AND DUP5 PUSH20 0xFFFFFFFFFFFFFFFFFFFFFFFFFFFFFFFFFFFFFFFF AND PUSH32 0x8C5BE1E5EBEC7D5BD14F71427D1E84F3DD0314C0F7B2291E5B200AC8C7C3B925 DUP5 PUSH1 0x40 MLOAD PUSH2 0x11A5 SWAP2 SWAP1 PUSH2 0x15E9 JUMP JUMPDEST PUSH1 0x40 MLOAD DUP1 SWAP2 SUB SWAP1 LOG3 JUMPDEST POP POP POP POP JUMP JUMPDEST PUSH0 PUSH20 0xFFFFFFFFFFFFFFFFFFFFFFFFFFFFFFFFFFFFFFFF AND DUP4 PUSH20 0xFFFFFFFFFFFFFFFFFFFFFFFFFFFFFFFFFFFFFFFF AND SUB PUSH2 0x1204 JUMPI DUP1 PUSH1 0x2 PUSH0 DUP3 DUP3 SLOAD PUSH2 0x11F8 SWAP2 SWAP1 PUSH2 0x1AEC JUMP JUMPDEST SWAP3 POP POP DUP2 SWAP1 SSTORE POP PUSH2 0x12D2 JUMP JUMPDEST PUSH0 DUP1 PUSH0 DUP6 PUSH20 0xFFFFFFFFFFFFFFFFFFFFFFFFFFFFFFFFFFFFFFFF AND PUSH20 0xFFFFFFFFFFFFFFFFFFFFFFFFFFFFFFFFFFFFFFFF AND DUP2 MSTORE PUSH1 0x20 ADD SWAP1 DUP2 MSTORE PUSH1 0x20 ADD PUSH0 KECCAK256 SLOAD SWAP1 POP DUP2 DUP2 LT ISZERO PUSH2 0x128D JUMPI DUP4 DUP2 DUP4 PUSH1 0x40 MLOAD PUSH32 0xE450D38C00000000000000000000000000000000000000000000000000000000 DUP2 MSTORE PUSH1 0x4 ADD PUSH2 0x1284 SWAP4 SWAP3 SWAP2 SWAP1 PUSH2 0x1A8A JUMP JUMPDEST PUSH1 0x40 MLOAD DUP1 SWAP2 SUB SWAP1 REVERT JUMPDEST DUP2 DUP2 SUB PUSH0 DUP1 DUP7 PUSH20 0xFFFFFFFFFFFFFFFFFFFFFFFFFFFFFFFFFFFFFFFF AND PUSH20 0xFFFFFFFFFFFFFFFFFFFFFFFFFFFFFFFFFFFFFFFF AND DUP2 MSTORE PUSH1 0x20 ADD SWAP1 DUP2 MSTORE PUSH1 0x20 ADD PUSH0 KECCAK256 DUP2 SWAP1 SSTORE POP POP JUMPDEST PUSH0 PUSH20 0xFFFFFFFFFFFFFFFFFFFFFFFFFFFFFFFFFFFFFFFF AND DUP3 PUSH20 0xFFFFFFFFFFFFFFFFFFFFFFFFFFFFFFFFFFFFFFFF AND SUB PUSH2 0x1319 JUMPI DUP1 PUSH1 0x2 PUSH0 DUP3 DUP3 SLOAD SUB SWAP3 POP POP DUP2 SWAP1 SSTORE POP PUSH2 0x1363 JUMP JUMPDEST DUP1 PUSH0 DUP1 DUP5 PUSH20 0xFFFFFFFFFFFFFFFFFFFFFFFFFFFFFFFFFFFFFFFF AND PUSH20 0xFFFFFFFFFFFFFFFFFFFFFFFFFFFFFFFFFFFFFFFF AND DUP2 MSTORE PUSH1 0x20 ADD SWAP1 DUP2 MSTORE PUSH1 0x20 ADD PUSH0 KECCAK256 PUSH0 DUP3 DUP3 SLOAD ADD SWAP3 POP POP DUP2 SWAP1 SSTORE POP JUMPDEST DUP2 PUSH20 0xFFFFFFFFFFFFFFFFFFFFFFFFFFFFFFFFFFFFFFFF AND DUP4 PUSH20 0xFFFFFFFFFFFFFFFFFFFFFFFFFFFFFFFFFFFFFFFF AND PUSH32 0xDDF252AD1BE2C89B69C2B068FC378DAA952BA7F163C4A11628F55A4DF523B3EF DUP4 PUSH1 0x40 MLOAD PUSH2 0x13C0 SWAP2 SWAP1 PUSH2 0x15E9 JUMP JUMPDEST PUSH1 0x40 MLOAD DUP1 SWAP2 SUB SWAP1 LOG3 POP POP POP JUMP JUMPDEST PUSH0 DUP2 MLOAD SWAP1 POP SWAP2 SWAP1 POP JUMP JUMPDEST PUSH0 DUP3 DUP3 MSTORE PUSH1 0x20 DUP3 ADD SWAP1 POP SWAP3 SWAP2 POP POP JUMP JUMPDEST PUSH0 JUMPDEST DUP4 DUP2 LT ISZERO PUSH2 0x1404 JUMPI DUP1 DUP3 ADD MLOAD DUP2 DUP5 ADD MSTORE PUSH1 0x20 DUP2 ADD SWAP1 POP PUSH2 0x13E9 JUMP JUMPDEST PUSH0 DUP5 DUP5 ADD MSTORE POP POP POP POP JUMP JUMPDEST PUSH0 PUSH1 0x1F NOT PUSH1 0x1F DUP4 ADD AND SWAP1 POP SWAP2 SWAP1 POP JUMP JUMPDEST PUSH0 PUSH2 0x1429 DUP3 PUSH2 0x13CD JUMP JUMPDEST PUSH2 0x1433 DUP2 DUP6 PUSH2 0x13D7 JUMP JUMPDEST SWAP4 POP PUSH2 0x1443 DUP2 DUP6 PUSH1 0x20 DUP7 ADD PUSH2 0x13E7 JUMP JUMPDEST PUSH2 0x144C DUP2 PUSH2 0x140F JUMP JUMPDEST DUP5 ADD SWAP2 POP POP SWAP3 SWAP2 POP POP JUMP JUMPDEST PUSH0 PUSH1 0x20 DUP3 ADD SWAP1 POP DUP2 DUP2 SUB PUSH0 DUP4 ADD MSTORE PUSH2 0x146F DUP2 DUP5 PUSH2 0x141F JUMP JUMPDEST SWAP1 POP SWAP3 SWAP2 POP POP JUMP JUMPDEST PUSH0 DUP1 REVERT JUMPDEST PUSH0 PUSH20 0xFFFFFFFFFFFFFFFFFFFFFFFFFFFFFFFFFFFFFFFF DUP3 AND SWAP1 POP SWAP2 SWAP1 POP JUMP JUMPDEST PUSH0 PUSH2 0x14A4 DUP3 PUSH2 0x147B JUMP JUMPDEST SWAP1 POP SWAP2 SWAP1 POP JUMP JUMPDEST PUSH2 0x14B4 DUP2 PUSH2 0x149A JUMP JUMPDEST DUP2 EQ PUSH2 0x14BE JUMPI PUSH0 DUP1 REVERT JUMPDEST POP JUMP JUMPDEST PUSH0 DUP2 CALLDATALOAD SWAP1 POP PUSH2 0x14CF DUP2 PUSH2 0x14AB JUMP JUMPDEST SWAP3 SWAP2 POP POP JUMP JUMPDEST PUSH0 DUP2 SWAP1 POP SWAP2 SWAP1 POP JUMP JUMPDEST PUSH2 0x14E7 DUP2 PUSH2 0x14D5 JUMP JUMPDEST DUP2 EQ PUSH2 0x14F1 JUMPI PUSH0 DUP1 REVERT JUMPDEST POP JUMP JUMPDEST PUSH0 DUP2 CALLDATALOAD SWAP1 POP PUSH2 0x1502 DUP2 PUSH2 0x14DE JUMP JUMPDEST SWAP3 SWAP2 POP POP JUMP JUMPDEST PUSH0 DUP1 PUSH1 0x40 DUP4 DUP6 SUB SLT ISZERO PUSH2 0x151E JUMPI PUSH2 0x151D PUSH2 0x1477 JUMP JUMPDEST JUMPDEST PUSH0 PUSH2 0x152B DUP6 DUP3 DUP7 ADD PUSH2 0x14C1 JUMP JUMPDEST SWAP3 POP POP PUSH1 0x20 PUSH2 0x153C DUP6 DUP3 DUP7 ADD PUSH2 0x14F4 JUMP JUMPDEST SWAP2 POP POP SWAP3 POP SWAP3 SWAP1 POP JUMP JUMPDEST PUSH0 DUP2 ISZERO ISZERO SWAP1 POP SWAP2 SWAP1 POP JUMP JUMPDEST PUSH2 0x155A DUP2 PUSH2 0x1546 JUMP JUMPDEST DUP3 MSTORE POP POP JUMP JUMPDEST PUSH0 PUSH1 0x20 DUP3 ADD SWAP1 POP PUSH2 0x1573 PUSH0 DUP4 ADD DUP5 PUSH2 0x1551 JUMP JUMPDEST SWAP3 SWAP2 POP POP JUMP JUMPDEST PUSH0 PUSH1 0x20 DUP3 DUP5 SUB SLT ISZERO PUSH2 0x158E JUMPI PUSH2 0x158D PUSH2 0x1477 JUMP JUMPDEST JUMPDEST PUSH0 PUSH2 0x159B DUP5 DUP3 DUP6 ADD PUSH2 0x14F4 JUMP JUMPDEST SWAP2 POP POP SWAP3 SWAP2 POP POP JUMP JUMPDEST PUSH2 0x15AD DUP2 PUSH2 0x149A JUMP JUMPDEST DUP3 MSTORE POP POP JUMP JUMPDEST PUSH2 0x15BC DUP2 PUSH2 0x14D5 JUMP JUMPDEST DUP3 MSTORE POP POP JUMP JUMPDEST PUSH0 PUSH1 0x40 DUP3 ADD SWAP1 POP PUSH2 0x15D5 PUSH0 DUP4 ADD DUP6 PUSH2 0x15A4 JUMP JUMPDEST PUSH2 0x15E2 PUSH1 0x20 DUP4 ADD DUP5 PUSH2 0x15B3 JUMP JUMPDEST SWAP4 SWAP3 POP POP POP JUMP JUMPDEST PUSH0 PUSH1 0x20 DUP3 ADD SWAP1 POP PUSH2 0x15FC PUSH0 DUP4 ADD DUP5 PUSH2 0x15B3 JUMP JUMPDEST SWAP3 SWAP2 POP POP JUMP JUMPDEST PUSH0 DUP1 PUSH0 PUSH1 0x60 DUP5 DUP7 SUB SLT ISZERO PUSH2 0x1619 JUMPI PUSH2 0x1618 PUSH2 0x1477 JUMP JUMPDEST JUMPDEST PUSH0 PUSH2 0x1626 DUP7 DUP3 DUP8 ADD PUSH2 0x14C1 JUMP JUMPDEST SWAP4 POP POP PUSH1 0x20 PUSH2 0x1637 DUP7 DUP3 DUP8 ADD PUSH2 0x14C1 JUMP JUMPDEST SWAP3 POP POP PUSH1 0x40 PUSH2 0x1648 DUP7 DUP3 DUP8 ADD PUSH2 0x14F4 JUMP JUMPDEST SWAP2 POP POP SWAP3 POP SWAP3 POP SWAP3 JUMP JUMPDEST PUSH0 PUSH1 0xFF DUP3 AND SWAP1 POP SWAP2 SWAP1 POP JUMP JUMPDEST PUSH2 0x1667 DUP2 PUSH2 0x1652 JUMP JUMPDEST DUP3 MSTORE POP POP JUMP JUMPDEST PUSH0 PUSH1 0x20 DUP3 ADD SWAP1 POP PUSH2 0x1680 PUSH0 DUP4 ADD DUP5 PUSH2 0x165E JUMP JUMPDEST SWAP3 SWAP2 POP POP JUMP JUMPDEST PUSH0 DUP2 MLOAD SWAP1 POP SWAP2 SWAP1 POP JUMP JUMPDEST PUSH0 DUP3 DUP3 MSTORE PUSH1 0x20 DUP3 ADD SWAP1 POP SWAP3 SWAP2 POP POP JUMP JUMPDEST PUSH0 DUP2 SWAP1 POP PUSH1 0x20 DUP3 ADD SWAP1 POP SWAP2 SWAP1 POP JUMP JUMPDEST PUSH2 0x16B8 DUP2 PUSH2 0x149A JUMP JUMPDEST DUP3 MSTORE POP POP JUMP JUMPDEST PUSH2 0x16C7 DUP2 PUSH2 0x14D5 JUMP JUMPDEST DUP3 MSTORE POP POP JUMP JUMPDEST PUSH1 0x40 DUP3 ADD PUSH0 DUP3 ADD MLOAD PUSH2 0x16E1 PUSH0 DUP6 ADD DUP3 PUSH2 0x16AF JUMP JUMPDEST POP PUSH1 0x20 DUP3 ADD MLOAD PUSH2 0x16F4 PUSH1 0x20 DUP6 ADD DUP3 PUSH2 0x16BE JUMP JUMPDEST POP POP POP POP JUMP JUMPDEST PUSH0 PUSH2 0x1705 DUP4 DUP4 PUSH2 0x16CD JUMP JUMPDEST PUSH1 0x40 DUP4 ADD SWAP1 POP SWAP3 SWAP2 POP POP JUMP JUMPDEST PUSH0 PUSH1 0x20 DUP3 ADD SWAP1 POP SWAP2 SWAP1 POP JUMP JUMPDEST PUSH0 PUSH2 0x1727 DUP3 PUSH2 0x1686 JUMP JUMPDEST PUSH2 0x1731 DUP2 DUP6 PUSH2 0x1690 JUMP JUMPDEST SWAP4 POP PUSH2 0x173C DUP4 PUSH2 0x16A0 JUMP JUMPDEST DUP1 PUSH0 JUMPDEST DUP4 DUP2 LT ISZERO PUSH2 0x176C JUMPI DUP2 MLOAD PUSH2 0x1753 DUP9 DUP3 PUSH2 0x16FA JUMP JUMPDEST SWAP8 POP PUSH2 0x175E DUP4 PUSH2 0x1711 JUMP JUMPDEST SWAP3 POP POP PUSH1 0x1 DUP2 ADD SWAP1 POP PUSH2 0x173F JUMP JUMPDEST POP DUP6 SWAP4 POP POP POP POP SWAP3 SWAP2 POP POP JUMP JUMPDEST PUSH0 PUSH1 0x20 DUP3 ADD SWAP1 POP DUP2 DUP2 SUB PUSH0 DUP4 ADD MSTORE PUSH2 0x1791 DUP2 DUP5 PUSH2 0x171D JUMP JUMPDEST SWAP1 POP SWAP3 SWAP2 POP POP JUMP JUMPDEST PUSH32 0x4E487B7100000000000000000000000000000000000000000000000000000000 PUSH0 MSTORE PUSH1 0x21 PUSH1 0x4 MSTORE PUSH1 0x24 PUSH0 REVERT JUMPDEST PUSH1 0x5 DUP2 LT PUSH2 0x17D7 JUMPI PUSH2 0x17D6 PUSH2 0x1799 JUMP JUMPDEST JUMPDEST POP JUMP JUMPDEST PUSH0 DUP2 SWAP1 POP PUSH2 0x17E7 DUP3 PUSH2 0x17C6 JUMP JUMPDEST SWAP2 SWAP1 POP JUMP JUMPDEST PUSH0 PUSH2 0x17F6 DUP3 PUSH2 0x17DA JUMP JUMPDEST SWAP1 POP SWAP2 SWAP1 POP JUMP JUMPDEST PUSH2 0x1806 DUP2 PUSH2 0x17EC JUMP JUMPDEST DUP3 MSTORE POP POP JUMP JUMPDEST PUSH0 PUSH1 0x20 DUP3 ADD SWAP1 POP PUSH2 0x181F PUSH0 DUP4 ADD DUP5 PUSH2 0x17FD JUMP JUMPDEST SWAP3 SWAP2 POP POP JUMP JUMPDEST PUSH0 PUSH1 0x20 DUP3 DUP5 SUB SLT ISZERO PUSH2 0x183A JUMPI PUSH2 0x1839 PUSH2 0x1477 JUMP JUMPDEST JUMPDEST PUSH0 PUSH2 0x1847 DUP5 DUP3 DUP6 ADD PUSH2 0x14C1 JUMP JUMPDEST SWAP2 POP POP SWAP3 SWAP2 POP POP JUMP JUMPDEST PUSH0 PUSH1 0x20 DUP3 ADD SWAP1 POP PUSH2 0x1863 PUSH0 DUP4 ADD DUP5 PUSH2 0x15A4 JUMP JUMPDEST SWAP3 SWAP2 POP POP JUMP JUMPDEST PUSH1 0x5 DUP2 LT PUSH2 0x1875 JUMPI PUSH0 DUP1 REVERT JUMPDEST POP JUMP JUMPDEST PUSH0 DUP2 CALLDATALOAD SWAP1 POP PUSH2 0x1886 DUP2 PUSH2 0x1869 JUMP JUMPDEST SWAP3 SWAP2 POP POP JUMP JUMPDEST PUSH0 PUSH1 0x20 DUP3 DUP5 SUB SLT ISZERO PUSH2 0x18A1 JUMPI PUSH2 0x18A0 PUSH2 0x1477 JUMP JUMPDEST JUMPDEST PUSH0 PUSH2 0x18AE DUP5 DUP3 DUP6 ADD PUSH2 0x1878 JUMP JUMPDEST SWAP2 POP POP SWAP3 SWAP2 POP POP JUMP JUMPDEST PUSH0 DUP1 PUSH1 0x40 DUP4 DUP6 SUB SLT ISZERO PUSH2 0x18CD JUMPI PUSH2 0x18CC PUSH2 0x1477 JUMP JUMPDEST JUMPDEST PUSH0 PUSH2 0x18DA DUP6 DUP3 DUP7 ADD PUSH2 0x14C1 JUMP JUMPDEST SWAP3 POP POP PUSH1 0x20 PUSH2 0x18EB DUP6 DUP3 DUP7 ADD PUSH2 0x14C1 JUMP JUMPDEST SWAP2 POP POP SWAP3 POP SWAP3 SWAP1 POP JUMP JUMPDEST PUSH32 0x4E487B7100000000000000000000000000000000000000000000000000000000 PUSH0 MSTORE PUSH1 0x22 PUSH1 0x4 MSTORE PUSH1 0x24 PUSH0 REVERT JUMPDEST PUSH0 PUSH1 0x2 DUP3 DIV SWAP1 POP PUSH1 0x1 DUP3 AND DUP1 PUSH2 0x1939 JUMPI PUSH1 0x7F DUP3 AND SWAP2 POP JUMPDEST PUSH1 0x20 DUP3 LT DUP2 SUB PUSH2 0x194C JUMPI PUSH2 0x194B PUSH2 0x18F5 JUMP JUMPDEST JUMPDEST POP SWAP2 SWAP1 POP JUMP JUMPDEST PUSH32 0x4E6F7420616C6C6F77656420746F206D696E7400000000000000000000000000 PUSH0 DUP3 ADD MSTORE POP JUMP JUMPDEST PUSH0 PUSH2 0x1986 PUSH1 0x13 DUP4 PUSH2 0x13D7 JUMP JUMPDEST SWAP2 POP PUSH2 0x1991 DUP3 PUSH2 0x1952 JUMP JUMPDEST PUSH1 0x20 DUP3 ADD SWAP1 POP SWAP2 SWAP1 POP JUMP JUMPDEST PUSH0 PUSH1 0x20 DUP3 ADD SWAP1 POP DUP2 DUP2 SUB PUSH0 DUP4 ADD MSTORE PUSH2 0x19B3 DUP2 PUSH2 0x197A JUMP JUMPDEST SWAP1 POP SWAP2 SWAP1 POP JUMP JUMPDEST PUSH32 0x4E6F7420616C6C6F77656420746F206275726E00000000000000000000000000 PUSH0 DUP3 ADD MSTORE POP JUMP JUMPDEST PUSH0 PUSH2 0x19EE PUSH1 0x13 DUP4 PUSH2 0x13D7 JUMP JUMPDEST SWAP2 POP PUSH2 0x19F9 DUP3 PUSH2 0x19BA JUMP JUMPDEST PUSH1 0x20 DUP3 ADD SWAP1 POP SWAP2 SWAP1 POP JUMP JUMPDEST PUSH0 PUSH1 0x20 DUP3 ADD SWAP1 POP DUP2 DUP2 SUB PUSH0 DUP4 ADD MSTORE PUSH2 0x1A1B DUP2 PUSH2 0x19E2 JUMP JUMPDEST SWAP1 POP SWAP2 SWAP1 POP JUMP JUMPDEST PUSH32 0x4E6F7420616C6C6F77656420746F20736574206C6576656C0000000000000000 PUSH0 DUP3 ADD MSTORE POP JUMP JUMPDEST PUSH0 PUSH2 0x1A56 PUSH1 0x18 DUP4 PUSH2 0x13D7 JUMP JUMPDEST SWAP2 POP PUSH2 0x1A61 DUP3 PUSH2 0x1A22 JUMP JUMPDEST PUSH1 0x20 DUP3 ADD SWAP1 POP SWAP2 SWAP1 POP JUMP JUMPDEST PUSH0 PUSH1 0x20 DUP3 ADD SWAP1 POP DUP2 DUP2 SUB PUSH0 DUP4 ADD MSTORE PUSH2 0x1A83 DUP2 PUSH2 0x1A4A JUMP JUMPDEST SWAP1 POP SWAP2 SWAP1 POP JUMP JUMPDEST PUSH0 PUSH1 0x60 DUP3 ADD SWAP1 POP PUSH2 0x1A9D PUSH0 DUP4 ADD DUP7 PUSH2 0x15A4 JUMP JUMPDEST PUSH2 0x1AAA PUSH1 0x20 DUP4 ADD DUP6 PUSH2 0x15B3 JUMP JUMPDEST PUSH2 0x1AB7 PUSH1 0x40 DUP4 ADD DUP5 PUSH2 0x15B3 JUMP JUMPDEST SWAP5 SWAP4 POP POP POP POP JUMP JUMPDEST PUSH32 0x4E487B7100000000000000000000000000000000000000000000000000000000 PUSH0 MSTORE PUSH1 0x11 PUSH1 0x4 MSTORE PUSH1 0x24 PUSH0 REVERT JUMPDEST PUSH0 PUSH2 0x1AF6 DUP3 PUSH2 0x14D5 JUMP JUMPDEST SWAP2 POP PUSH2 0x1B01 DUP4 PUSH2 0x14D5 JUMP JUMPDEST SWAP3 POP DUP3 DUP3 ADD SWAP1 POP DUP1 DUP3 GT ISZERO PUSH2 0x1B19 JUMPI PUSH2 0x1B18 PUSH2 0x1ABF JUMP JUMPDEST JUMPDEST SWAP3 SWAP2 POP POP JUMP INVALID LOG2 PUSH5 0x6970667358 0x22 SLT KECCAK256 SWAP8 0xE9 0xD2 0xA8 0xAF 0xD0 SWAP13 0xE5 PUSH8 0x1F5539AA4478CA37 0xD3 PUSH16 0x71FFFA25866F9CE4A46B722E6764736F PUSH13 0x63430008170033000000000000 "
				},
				"gasEstimates": {
					"creation": {
						"codeDepositCost": "1399400",
						"executionCost": "infinite",
						"totalCost": "infinite"
					},
					"external": {
						"allowance(address,address)": "infinite",
						"approve(address,uint256)": "infinite",
						"balanceOf(address)": "2916",
						"burn(uint256)": "infinite",
						"decimals()": "361",
						"getInputResources()": "infinite",
						"getOutputResources()": "infinite",
						"inputResources(uint256)": "infinite",
						"isFirstLevel()": "2715",
						"level()": "2628",
						"mint(address,uint256)": "infinite",
						"name()": "infinite",
						"outputResources(uint256)": "infinite",
						"owner()": "2626",
						"renounceOwnership()": "infinite",
						"setLevel(uint8)": "26931",
						"symbol()": "infinite",
						"totalSupply()": "2522",
						"transfer(address,uint256)": "infinite",
						"transferFrom(address,address,uint256)": "infinite",
						"transferOwnership(address)": "infinite",
						"unlimitedAllowanceAddress()": "2640"
					}
				},
				"methodIdentifiers": {
					"allowance(address,address)": "dd62ed3e",
					"approve(address,uint256)": "095ea7b3",
					"balanceOf(address)": "70a08231",
					"burn(uint256)": "42966c68",
					"decimals()": "313ce567",
					"getInputResources()": "48361490",
					"getOutputResources()": "737d6a6c",
					"inputResources(uint256)": "0d9ce804",
					"isFirstLevel()": "63a2b02b",
					"level()": "6fd5ae15",
					"mint(address,uint256)": "40c10f19",
					"name()": "06fdde03",
					"outputResources(uint256)": "635a4cc5",
					"owner()": "8da5cb5b",
					"renounceOwnership()": "715018a6",
					"setLevel(uint8)": "bd5546be",
					"symbol()": "95d89b41",
					"totalSupply()": "18160ddd",
					"transfer(address,uint256)": "a9059cbb",
					"transferFrom(address,address,uint256)": "23b872dd",
					"transferOwnership(address)": "f2fde38b",
					"unlimitedAllowanceAddress()": "f9e05c6d"
				}
			},
			"storageLayout": {
				"storage": [
					{
						"astId": 307,
						"contract": "recipe.sol:Recipe",
						"label": "_balances",
						"offset": 0,
						"slot": "0",
						"type": "t_mapping(t_address,t_uint256)"
					},
					{
						"astId": 313,
						"contract": "recipe.sol:Recipe",
						"label": "_allowances",
						"offset": 0,
						"slot": "1",
						"type": "t_mapping(t_address,t_mapping(t_address,t_uint256))"
					},
					{
						"astId": 315,
						"contract": "recipe.sol:Recipe",
						"label": "_totalSupply",
						"offset": 0,
						"slot": "2",
						"type": "t_uint256"
					},
					{
						"astId": 317,
						"contract": "recipe.sol:Recipe",
						"label": "_name",
						"offset": 0,
						"slot": "3",
						"type": "t_string_storage"
					},
					{
						"astId": 319,
						"contract": "recipe.sol:Recipe",
						"label": "_symbol",
						"offset": 0,
						"slot": "4",
						"type": "t_string_storage"
					},
					{
						"astId": 8,
						"contract": "recipe.sol:Recipe",
						"label": "_owner",
						"offset": 0,
						"slot": "5",
						"type": "t_address"
					},
					{
						"astId": 1545,
						"contract": "recipe.sol:Recipe",
						"label": "unlimitedAllowanceAddress",
						"offset": 0,
						"slot": "6",
						"type": "t_address"
					},
					{
						"astId": 1548,
						"contract": "recipe.sol:Recipe",
						"label": "level",
						"offset": 20,
						"slot": "6",
						"type": "t_enum(Levels)1534"
					},
					{
						"astId": 1552,
						"contract": "recipe.sol:Recipe",
						"label": "inputResources",
						"offset": 0,
						"slot": "7",
						"type": "t_array(t_struct(ResourceAmount)1539_storage)dyn_storage"
					},
					{
						"astId": 1556,
						"contract": "recipe.sol:Recipe",
						"label": "outputResources",
						"offset": 0,
						"slot": "8",
						"type": "t_array(t_struct(ResourceAmount)1539_storage)dyn_storage"
					}
				],
				"types": {
					"t_address": {
						"encoding": "inplace",
						"label": "address",
						"numberOfBytes": "20"
					},
					"t_array(t_struct(ResourceAmount)1539_storage)dyn_storage": {
						"base": "t_struct(ResourceAmount)1539_storage",
						"encoding": "dynamic_array",
						"label": "struct Recipe.ResourceAmount[]",
						"numberOfBytes": "32"
					},
					"t_enum(Levels)1534": {
						"encoding": "inplace",
						"label": "enum Recipe.Levels",
						"numberOfBytes": "1"
					},
					"t_mapping(t_address,t_mapping(t_address,t_uint256))": {
						"encoding": "mapping",
						"key": "t_address",
						"label": "mapping(address => mapping(address => uint256))",
						"numberOfBytes": "32",
						"value": "t_mapping(t_address,t_uint256)"
					},
					"t_mapping(t_address,t_uint256)": {
						"encoding": "mapping",
						"key": "t_address",
						"label": "mapping(address => uint256)",
						"numberOfBytes": "32",
						"value": "t_uint256"
					},
					"t_string_storage": {
						"encoding": "bytes",
						"label": "string",
						"numberOfBytes": "32"
					},
					"t_struct(ResourceAmount)1539_storage": {
						"encoding": "inplace",
						"label": "struct Recipe.ResourceAmount",
						"members": [
							{
								"astId": 1536,
								"contract": "recipe.sol:Recipe",
								"label": "resourceContractAddr",
								"offset": 0,
								"slot": "0",
								"type": "t_address"
							},
							{
								"astId": 1538,
								"contract": "recipe.sol:Recipe",
								"label": "amount",
								"offset": 0,
								"slot": "1",
								"type": "t_uint256"
							}
						],
						"numberOfBytes": "64"
					},
					"t_uint256": {
						"encoding": "inplace",
						"label": "uint256",
						"numberOfBytes": "32"
					}
				}
			},
			"userdoc": {
				"kind": "user",
				"methods": {},
				"version": 1
			}
		}
	}
}