{
	"data": {
		"bytecode": {
			"linkReferences": {},
			"object": "60806040525f60055534801562000014575f80fd5b50604051620018bb380380620018bb83398181016040528101906200003a91906200025f565b825f8190555081600181905550806004908162000058919062000505565b503360035f6101000a81548173ffffffffffffffffffffffffffffffffffffffff021916908373ffffffffffffffffffffffffffffffffffffffff160217905550505050620005e9565b5f604051905090565b5f80fd5b5f80fd5b5f819050919050565b620000c781620000b3565b8114620000d2575f80fd5b50565b5f81519050620000e581620000bc565b92915050565b5f80fd5b5f80fd5b5f601f19601f8301169050919050565b7f4e487b71000000000000000000000000000000000000000000000000000000005f52604160045260245ffd5b6200013b82620000f3565b810181811067ffffffffffffffff821117156200015d576200015c62000103565b5b80604052505050565b5f62000171620000a2565b90506200017f828262000130565b919050565b5f67ffffffffffffffff821115620001a157620001a062000103565b5b620001ac82620000f3565b9050602081019050919050565b5f5b83811015620001d8578082015181840152602081019050620001bb565b5f8484015250505050565b5f620001f9620001f38462000184565b62000166565b905082815260208101848484011115620002185762000217620000ef565b5b62000225848285620001b9565b509392505050565b5f82601f830112620002445762000243620000eb565b5b815162000256848260208601620001e3565b91505092915050565b5f805f60608486031215620002795762000278620000ab565b5b5f6200028886828701620000d5565b93505060206200029b86828701620000d5565b925050604084015167ffffffffffffffff811115620002bf57620002be620000af565b5b620002cd868287016200022d565b9150509250925092565b5f81519050919050565b7f4e487b71000000000000000000000000000000000000000000000000000000005f52602260045260245ffd5b5f60028204905060018216806200032657607f821691505b6020821081036200033c576200033b620002e1565b5b50919050565b5f819050815f5260205f209050919050565b5f6020601f8301049050919050565b5f82821b905092915050565b5f60088302620003a07fffffffffffffffffffffffffffffffffffffffffffffffffffffffffffffffff8262000363565b620003ac868362000363565b95508019841693508086168417925050509392505050565b5f819050919050565b5f620003ed620003e7620003e184620000b3565b620003c4565b620000b3565b9050919050565b5f819050919050565b6200040883620003cd565b620004206200041782620003f4565b8484546200036f565b825550505050565b5f90565b6200043662000428565b62000443818484620003fd565b505050565b5b818110156200046a576200045e5f826200042c565b60018101905062000449565b5050565b601f821115620004b957620004838162000342565b6200048e8462000354565b810160208510156200049e578190505b620004b6620004ad8562000354565b83018262000448565b50505b505050565b5f82821c905092915050565b5f620004db5f1984600802620004be565b1980831691505092915050565b5f620004f58383620004ca565b9150826002028217905092915050565b6200051082620002d7565b67ffffffffffffffff8111156200052c576200052b62000103565b5b6200053882546200030e565b620005458282856200046e565b5f60209050601f8311600181146200057b575f841562000566578287015190505b620005728582620004e8565b865550620005e1565b601f1984166200058b8662000342565b5f5b82811015620005b4578489015182556001820191506020850194506020810190506200058d565b86831015620005d45784890151620005d0601f891682620004ca565b8355505b6001600288020188555050505b505050505050565b6112c480620005f75f395ff3fe608060405234801561000f575f80fd5b506004361061004a575f3560e01c8063199f64031461004e5780636b5b83e11461006a5780638aeb26b314610086578063a90b9128146100a2575b5f80fd5b61006860048036038101906100639190610746565b6100d6565b005b610084600480360381019061007f9190610b69565b6101a8565b005b6100a0600480360381019061009b9190610bb0565b6103ac565b005b6100bc60048036038101906100b79190610c1c565b610553565b6040516100cd959493929190610e60565b60405180910390f35b60035f9054906101000a900473ffffffffffffffffffffffffffffffffffffffff1673ffffffffffffffffffffffffffffffffffffffff163373ffffffffffffffffffffffffffffffffffffffff1614610165576040517f08c379a000000000000000000000000000000000000000000000000000000000815260040161015c90610f12565b60405180910390fd5b8060025f6101000a81548173ffffffffffffffffffffffffffffffffffffffff021916908373ffffffffffffffffffffffffffffffffffffffff16021790555050565b60035f9054906101000a900473ffffffffffffffffffffffffffffffffffffffff1673ffffffffffffffffffffffffffffffffffffffff163373ffffffffffffffffffffffffffffffffffffffff1614610237576040517f08c379a000000000000000000000000000000000000000000000000000000000815260040161022e90610f12565b60405180910390fd5b5f5b81518110156103a8575f82828151811061025657610255610f30565b5b602002602001015190508060065f835f015181526020019081526020015f205f836020015181526020019081526020015f205f820151815f0155602082015181600101556040820151816002015f6101000a81548160ff021916908360048111156102c4576102c3610c69565b5b021790555060608201518160020160016101000a81548160ff021916908360028111156102f4576102f3610c69565b5b02179055506080820151816003015f820151815f01556020820151816001015f6101000a81548160ff0219169083600281111561033457610333610c69565b5b0217905550604082015181600201908161034e9190611157565b506060820151816003015f6101000a81548173ffffffffffffffffffffffffffffffffffffffff021916908373ffffffffffffffffffffffffffffffffffffffff1602179055505050905050508080600101915050610239565b5050565b60035f9054906101000a900473ffffffffffffffffffffffffffffffffffffffff1673ffffffffffffffffffffffffffffffffffffffff163373ffffffffffffffffffffffffffffffffffffffff161461043b576040517f08c379a000000000000000000000000000000000000000000000000000000000815260040161043290610f12565b60405180910390fd5b5f60065f8581526020019081526020015f205f8481526020019081526020015f20905083815f01541480156104735750828160010154145b6104b2576040517f08c379a00000000000000000000000000000000000000000000000000000000081526004016104a990611270565b60405180910390fd5b81816003015f820151815f01556020820151816001015f6101000a81548160ff021916908360028111156104e9576104e8610c69565b5b021790555060408201518160020190816105039190611157565b506060820151816003015f6101000a81548173ffffffffffffffffffffffffffffffffffffffff021916908373ffffffffffffffffffffffffffffffffffffffff16021790555090505050505050565b6006602052815f5260405f20602052805f5260405f205f9150915050805f015490806001015490806002015f9054906101000a900460ff16908060020160019054906101000a900460ff1690806003016040518060800160405290815f8201548152602001600182015f9054906101000a900460ff1660028111156105db576105da610c69565b5b60028111156105ed576105ec610c69565b5b815260200160028201805461060190610f8a565b80601f016020809104026020016040519081016040528092919081815260200182805461062d90610f8a565b80156106785780601f1061064f57610100808354040283529160200191610678565b820191905f5260205f20905b81548152906001019060200180831161065b57829003601f168201915b50505050508152602001600382015f9054906101000a900473ffffffffffffffffffffffffffffffffffffffff1673ffffffffffffffffffffffffffffffffffffffff1673ffffffffffffffffffffffffffffffffffffffff1681525050905085565b5f604051905090565b5f80fd5b5f80fd5b5f73ffffffffffffffffffffffffffffffffffffffff82169050919050565b5f610715826106ec565b9050919050565b6107258161070b565b811461072f575f80fd5b50565b5f813590506107408161071c565b92915050565b5f6020828403121561075b5761075a6106e4565b5b5f61076884828501610732565b91505092915050565b5f80fd5b5f601f19601f8301169050919050565b7f4e487b71000000000000000000000000000000000000000000000000000000005f52604160045260245ffd5b6107bb82610775565b810181811067ffffffffffffffff821117156107da576107d9610785565b5b80604052505050565b5f6107ec6106db565b90506107f882826107b2565b919050565b5f67ffffffffffffffff82111561081757610816610785565b5b602082029050602081019050919050565b5f80fd5b5f80fd5b5f80fd5b5f819050919050565b61084681610834565b8114610850575f80fd5b50565b5f813590506108618161083d565b92915050565b60058110610873575f80fd5b50565b5f8135905061088481610867565b92915050565b60038110610896575f80fd5b50565b5f813590506108a78161088a565b92915050565b600381106108b9575f80fd5b50565b5f813590506108ca816108ad565b92915050565b5f80fd5b5f67ffffffffffffffff8211156108ee576108ed610785565b5b6108f782610775565b9050602081019050919050565b828183375f83830152505050565b5f61092461091f846108d4565b6107e3565b9050828152602081018484840111156109405761093f6108d0565b5b61094b848285610904565b509392505050565b5f82601f83011261096757610966610771565b5b8135610977848260208601610912565b91505092915050565b5f608082840312156109955761099461082c565b5b61099f60806107e3565b90505f6109ae84828501610853565b5f8301525060206109c1848285016108bc565b602083015250604082013567ffffffffffffffff8111156109e5576109e4610830565b5b6109f184828501610953565b6040830152506060610a0584828501610732565b60608301525092915050565b5f60a08284031215610a2657610a2561082c565b5b610a3060a06107e3565b90505f610a3f84828501610853565b5f830152506020610a5284828501610853565b6020830152506040610a6684828501610876565b6040830152506060610a7a84828501610899565b606083015250608082013567ffffffffffffffff811115610a9e57610a9d610830565b5b610aaa84828501610980565b60808301525092915050565b5f610ac8610ac3846107fd565b6107e3565b90508083825260208201905060208402830185811115610aeb57610aea610828565b5b835b81811015610b3257803567ffffffffffffffff811115610b1057610b0f610771565b5b808601610b1d8982610a11565b85526020850194505050602081019050610aed565b5050509392505050565b5f82601f830112610b5057610b4f610771565b5b8135610b60848260208601610ab6565b91505092915050565b5f60208284031215610b7e57610b7d6106e4565b5b5f82013567ffffffffffffffff811115610b9b57610b9a6106e8565b5b610ba784828501610b3c565b91505092915050565b5f805f60608486031215610bc757610bc66106e4565b5b5f610bd486828701610853565b9350506020610be586828701610853565b925050604084013567ffffffffffffffff811115610c0657610c056106e8565b5b610c1286828701610980565b9150509250925092565b5f8060408385031215610c3257610c316106e4565b5b5f610c3f85828601610853565b9250506020610c5085828601610853565b9150509250929050565b610c6381610834565b82525050565b7f4e487b71000000000000000000000000000000000000000000000000000000005f52602160045260245ffd5b60058110610ca757610ca6610c69565b5b50565b5f819050610cb782610c96565b919050565b5f610cc682610caa565b9050919050565b610cd681610cbc565b82525050565b60038110610ced57610cec610c69565b5b50565b5f819050610cfd82610cdc565b919050565b5f610d0c82610cf0565b9050919050565b610d1c81610d02565b82525050565b610d2b81610834565b82525050565b60038110610d4257610d41610c69565b5b50565b5f819050610d5282610d31565b919050565b5f610d6182610d45565b9050919050565b610d7181610d57565b82525050565b5f81519050919050565b5f82825260208201905092915050565b5f5b83811015610dae578082015181840152602081019050610d93565b5f8484015250505050565b5f610dc382610d77565b610dcd8185610d81565b9350610ddd818560208601610d91565b610de681610775565b840191505092915050565b610dfa8161070b565b82525050565b5f608083015f830151610e155f860182610d22565b506020830151610e286020860182610d68565b5060408301518482036040860152610e408282610db9565b9150506060830151610e556060860182610df1565b508091505092915050565b5f60a082019050610e735f830188610c5a565b610e806020830187610c5a565b610e8d6040830186610ccd565b610e9a6060830185610d13565b8181036080830152610eac8184610e00565b90509695505050505050565b5f82825260208201905092915050565b7f4e6f7420616c6c6f7765640000000000000000000000000000000000000000005f82015250565b5f610efc600b83610eb8565b9150610f0782610ec8565b602082019050919050565b5f6020820190508181035f830152610f2981610ef0565b9050919050565b7f4e487b71000000000000000000000000000000000000000000000000000000005f52603260045260245ffd5b7f4e487b71000000000000000000000000000000000000000000000000000000005f52602260045260245ffd5b5f6002820490506001821680610fa157607f821691505b602082108103610fb457610fb3610f5d565b5b50919050565b5f819050815f5260205f209050919050565b5f6020601f8301049050919050565b5f82821b905092915050565b5f600883026110167fffffffffffffffffffffffffffffffffffffffffffffffffffffffffffffffff82610fdb565b6110208683610fdb565b95508019841693508086168417925050509392505050565b5f819050919050565b5f61105b61105661105184610834565b611038565b610834565b9050919050565b5f819050919050565b61107483611041565b61108861108082611062565b848454610fe7565b825550505050565b5f90565b61109c611090565b6110a781848461106b565b505050565b5b818110156110ca576110bf5f82611094565b6001810190506110ad565b5050565b601f82111561110f576110e081610fba565b6110e984610fcc565b810160208510156110f8578190505b61110c61110485610fcc565b8301826110ac565b50505b505050565b5f82821c905092915050565b5f61112f5f1984600802611114565b1980831691505092915050565b5f6111478383611120565b9150826002028217905092915050565b61116082610d77565b67ffffffffffffffff81111561117957611178610785565b5b6111838254610f8a565b61118e8282856110ce565b5f60209050601f8311600181146111bf575f84156111ad578287015190505b6111b7858261113c565b86555061121e565b601f1984166111cd86610fba565b5f5b828110156111f4578489015182556001820191506020850194506020810190506111cf565b86831015611211578489015161120d601f891682611120565b8355505b6001600288020188555050505b505050505050565b7f54696c6520646f6573206e6f74206578697374000000000000000000000000005f82015250565b5f61125a601383610eb8565b915061126582611226565b602082019050919050565b5f6020820190508181035f8301526112878161124e565b905091905056fea2646970667358221220c6ee215ad09c82faff11b97f4945bfa5e8bf64a6298fa62885fe35dfc14af71264736f6c63430008170033",
			"opcodes": "PUSH1 0x80 PUSH1 0x40 MSTORE PUSH0 PUSH1 0x5 SSTORE CALLVALUE DUP1 ISZERO PUSH3 0x14 JUMPI PUSH0 DUP1 REVERT JUMPDEST POP PUSH1 0x40 MLOAD PUSH3 0x18BB CODESIZE SUB DUP1 PUSH3 0x18BB DUP4 CODECOPY DUP2 DUP2 ADD PUSH1 0x40 MSTORE DUP2 ADD SWAP1 PUSH3 0x3A SWAP2 SWAP1 PUSH3 0x25F JUMP JUMPDEST DUP3 PUSH0 DUP2 SWAP1 SSTORE POP DUP2 PUSH1 0x1 DUP2 SWAP1 SSTORE POP DUP1 PUSH1 0x4 SWAP1 DUP2 PUSH3 0x58 SWAP2 SWAP1 PUSH3 0x505 JUMP JUMPDEST POP CALLER PUSH1 0x3 PUSH0 PUSH2 0x100 EXP DUP2 SLOAD DUP2 PUSH20 0xFFFFFFFFFFFFFFFFFFFFFFFFFFFFFFFFFFFFFFFF MUL NOT AND SWAP1 DUP4 PUSH20 0xFFFFFFFFFFFFFFFFFFFFFFFFFFFFFFFFFFFFFFFF AND MUL OR SWAP1 SSTORE POP POP POP POP PUSH3 0x5E9 JUMP JUMPDEST PUSH0 PUSH1 0x40 MLOAD SWAP1 POP SWAP1 JUMP JUMPDEST PUSH0 DUP1 REVERT JUMPDEST PUSH0 DUP1 REVERT JUMPDEST PUSH0 DUP2 SWAP1 POP SWAP2 SWAP1 POP JUMP JUMPDEST PUSH3 0xC7 DUP2 PUSH3 0xB3 JUMP JUMPDEST DUP2 EQ PUSH3 0xD2 JUMPI PUSH0 DUP1 REVERT JUMPDEST POP JUMP JUMPDEST PUSH0 DUP2 MLOAD SWAP1 POP PUSH3 0xE5 DUP2 PUSH3 0xBC JUMP JUMPDEST SWAP3 SWAP2 POP POP JUMP JUMPDEST PUSH0 DUP1 REVERT JUMPDEST PUSH0 DUP1 REVERT JUMPDEST PUSH0 PUSH1 0x1F NOT PUSH1 0x1F DUP4 ADD AND SWAP1 POP SWAP2 SWAP1 POP JUMP JUMPDEST PUSH32 0x4E487B7100000000000000000000000000000000000000000000000000000000 PUSH0 MSTORE PUSH1 0x41 PUSH1 0x4 MSTORE PUSH1 0x24 PUSH0 REVERT JUMPDEST PUSH3 0x13B DUP3 PUSH3 0xF3 JUMP JUMPDEST DUP2 ADD DUP2 DUP2 LT PUSH8 0xFFFFFFFFFFFFFFFF DUP3 GT OR ISZERO PUSH3 0x15D JUMPI PUSH3 0x15C PUSH3 0x103 JUMP JUMPDEST JUMPDEST DUP1 PUSH1 0x40 MSTORE POP POP POP JUMP JUMPDEST PUSH0 PUSH3 0x171 PUSH3 0xA2 JUMP JUMPDEST SWAP1 POP PUSH3 0x17F DUP3 DUP3 PUSH3 0x130 JUMP JUMPDEST SWAP2 SWAP1 POP JUMP JUMPDEST PUSH0 PUSH8 0xFFFFFFFFFFFFFFFF DUP3 GT ISZERO PUSH3 0x1A1 JUMPI PUSH3 0x1A0 PUSH3 0x103 JUMP JUMPDEST JUMPDEST PUSH3 0x1AC DUP3 PUSH3 0xF3 JUMP JUMPDEST SWAP1 POP PUSH1 0x20 DUP2 ADD SWAP1 POP SWAP2 SWAP1 POP JUMP JUMPDEST PUSH0 JUMPDEST DUP4 DUP2 LT ISZERO PUSH3 0x1D8 JUMPI DUP1 DUP3 ADD MLOAD DUP2 DUP5 ADD MSTORE PUSH1 0x20 DUP2 ADD SWAP1 POP PUSH3 0x1BB JUMP JUMPDEST PUSH0 DUP5 DUP5 ADD MSTORE POP POP POP POP JUMP JUMPDEST PUSH0 PUSH3 0x1F9 PUSH3 0x1F3 DUP5 PUSH3 0x184 JUMP JUMPDEST PUSH3 0x166 JUMP JUMPDEST SWAP1 POP DUP3 DUP2 MSTORE PUSH1 0x20 DUP2 ADD DUP5 DUP5 DUP5 ADD GT ISZERO PUSH3 0x218 JUMPI PUSH3 0x217 PUSH3 0xEF JUMP JUMPDEST JUMPDEST PUSH3 0x225 DUP5 DUP3 DUP6 PUSH3 0x1B9 JUMP JUMPDEST POP SWAP4 SWAP3 POP POP POP JUMP JUMPDEST PUSH0 DUP3 PUSH1 0x1F DUP4 ADD SLT PUSH3 0x244 JUMPI PUSH3 0x243 PUSH3 0xEB JUMP JUMPDEST JUMPDEST DUP2 MLOAD PUSH3 0x256 DUP5 DUP3 PUSH1 0x20 DUP7 ADD PUSH3 0x1E3 JUMP JUMPDEST SWAP2 POP POP SWAP3 SWAP2 POP POP JUMP JUMPDEST PUSH0 DUP1 PUSH0 PUSH1 0x60 DUP5 DUP7 SUB SLT ISZERO PUSH3 0x279 JUMPI PUSH3 0x278 PUSH3 0xAB JUMP JUMPDEST JUMPDEST PUSH0 PUSH3 0x288 DUP7 DUP3 DUP8 ADD PUSH3 0xD5 JUMP JUMPDEST SWAP4 POP POP PUSH1 0x20 PUSH3 0x29B DUP7 DUP3 DUP8 ADD PUSH3 0xD5 JUMP JUMPDEST SWAP3 POP POP PUSH1 0x40 DUP5 ADD MLOAD PUSH8 0xFFFFFFFFFFFFFFFF DUP2 GT ISZERO PUSH3 0x2BF JUMPI PUSH3 0x2BE PUSH3 0xAF JUMP JUMPDEST JUMPDEST PUSH3 0x2CD DUP7 DUP3 DUP8 ADD PUSH3 0x22D JUMP JUMPDEST SWAP2 POP POP SWAP3 POP SWAP3 POP SWAP3 JUMP JUMPDEST PUSH0 DUP2 MLOAD SWAP1 POP SWAP2 SWAP1 POP JUMP JUMPDEST PUSH32 0x4E487B7100000000000000000000000000000000000000000000000000000000 PUSH0 MSTORE PUSH1 0x22 PUSH1 0x4 MSTORE PUSH1 0x24 PUSH0 REVERT JUMPDEST PUSH0 PUSH1 0x2 DUP3 DIV SWAP1 POP PUSH1 0x1 DUP3 AND DUP1 PUSH3 0x326 JUMPI PUSH1 0x7F DUP3 AND SWAP2 POP JUMPDEST PUSH1 0x20 DUP3 LT DUP2 SUB PUSH3 0x33C JUMPI PUSH3 0x33B PUSH3 0x2E1 JUMP JUMPDEST JUMPDEST POP SWAP2 SWAP1 POP JUMP JUMPDEST PUSH0 DUP2 SWAP1 POP DUP2 PUSH0 MSTORE PUSH1 0x20 PUSH0 KECCAK256 SWAP1 POP SWAP2 SWAP1 POP JUMP JUMPDEST PUSH0 PUSH1 0x20 PUSH1 0x1F DUP4 ADD DIV SWAP1 POP SWAP2 SWAP1 POP JUMP JUMPDEST PUSH0 DUP3 DUP3 SHL SWAP1 POP SWAP3 SWAP2 POP POP JUMP JUMPDEST PUSH0 PUSH1 0x8 DUP4 MUL PUSH3 0x3A0 PUSH32 0xFFFFFFFFFFFFFFFFFFFFFFFFFFFFFFFFFFFFFFFFFFFFFFFFFFFFFFFFFFFFFFFF DUP3 PUSH3 0x363 JUMP JUMPDEST PUSH3 0x3AC DUP7 DUP4 PUSH3 0x363 JUMP JUMPDEST SWAP6 POP DUP1 NOT DUP5 AND SWAP4 POP DUP1 DUP7 AND DUP5 OR SWAP3 POP POP POP SWAP4 SWAP3 POP POP POP JUMP JUMPDEST PUSH0 DUP2 SWAP1 POP SWAP2 SWAP1 POP JUMP JUMPDEST PUSH0 PUSH3 0x3ED PUSH3 0x3E7 PUSH3 0x3E1 DUP5 PUSH3 0xB3 JUMP JUMPDEST PUSH3 0x3C4 JUMP JUMPDEST PUSH3 0xB3 JUMP JUMPDEST SWAP1 POP SWAP2 SWAP1 POP JUMP JUMPDEST PUSH0 DUP2 SWAP1 POP SWAP2 SWAP1 POP JUMP JUMPDEST PUSH3 0x408 DUP4 PUSH3 0x3CD JUMP JUMPDEST PUSH3 0x420 PUSH3 0x417 DUP3 PUSH3 0x3F4 JUMP JUMPDEST DUP5 DUP5 SLOAD PUSH3 0x36F JUMP JUMPDEST DUP3 SSTORE POP POP POP POP JUMP JUMPDEST PUSH0 SWAP1 JUMP JUMPDEST PUSH3 0x436 PUSH3 0x428 JUMP JUMPDEST PUSH3 0x443 DUP2 DUP5 DUP5 PUSH3 0x3FD JUMP JUMPDEST POP POP POP JUMP JUMPDEST JUMPDEST DUP2 DUP2 LT ISZERO PUSH3 0x46A JUMPI PUSH3 0x45E PUSH0 DUP3 PUSH3 0x42C JUMP JUMPDEST PUSH1 0x1 DUP2 ADD SWAP1 POP PUSH3 0x449 JUMP JUMPDEST POP POP JUMP JUMPDEST PUSH1 0x1F DUP3 GT ISZERO PUSH3 0x4B9 JUMPI PUSH3 0x483 DUP2 PUSH3 0x342 JUMP JUMPDEST PUSH3 0x48E DUP5 PUSH3 0x354 JUMP JUMPDEST DUP2 ADD PUSH1 0x20 DUP6 LT ISZERO PUSH3 0x49E JUMPI DUP2 SWAP1 POP JUMPDEST PUSH3 0x4B6 PUSH3 0x4AD DUP6 PUSH3 0x354 JUMP JUMPDEST DUP4 ADD DUP3 PUSH3 0x448 JUMP JUMPDEST POP POP JUMPDEST POP POP POP JUMP JUMPDEST PUSH0 DUP3 DUP3 SHR SWAP1 POP SWAP3 SWAP2 POP POP JUMP JUMPDEST PUSH0 PUSH3 0x4DB PUSH0 NOT DUP5 PUSH1 0x8 MUL PUSH3 0x4BE JUMP JUMPDEST NOT DUP1 DUP4 AND SWAP2 POP POP SWAP3 SWAP2 POP POP JUMP JUMPDEST PUSH0 PUSH3 0x4F5 DUP4 DUP4 PUSH3 0x4CA JUMP JUMPDEST SWAP2 POP DUP3 PUSH1 0x2 MUL DUP3 OR SWAP1 POP SWAP3 SWAP2 POP POP JUMP JUMPDEST PUSH3 0x510 DUP3 PUSH3 0x2D7 JUMP JUMPDEST PUSH8 0xFFFFFFFFFFFFFFFF DUP2 GT ISZERO PUSH3 0x52C JUMPI PUSH3 0x52B PUSH3 0x103 JUMP JUMPDEST JUMPDEST PUSH3 0x538 DUP3 SLOAD PUSH3 0x30E JUMP JUMPDEST PUSH3 0x545 DUP3 DUP3 DUP6 PUSH3 0x46E JUMP JUMPDEST PUSH0 PUSH1 0x20 SWAP1 POP PUSH1 0x1F DUP4 GT PUSH1 0x1 DUP2 EQ PUSH3 0x57B JUMPI PUSH0 DUP5 ISZERO PUSH3 0x566 JUMPI DUP3 DUP8 ADD MLOAD SWAP1 POP JUMPDEST PUSH3 0x572 DUP6 DUP3 PUSH3 0x4E8 JUMP JUMPDEST DUP7 SSTORE POP PUSH3 0x5E1 JUMP JUMPDEST PUSH1 0x1F NOT DUP5 AND PUSH3 0x58B DUP7 PUSH3 0x342 JUMP JUMPDEST PUSH0 JUMPDEST DUP3 DUP2 LT ISZERO PUSH3 0x5B4 JUMPI DUP5 DUP10 ADD MLOAD DUP3 SSTORE PUSH1 0x1 DUP3 ADD SWAP2 POP PUSH1 0x20 DUP6 ADD SWAP5 POP PUSH1 0x20 DUP2 ADD SWAP1 POP PUSH3 0x58D JUMP JUMPDEST DUP7 DUP4 LT ISZERO PUSH3 0x5D4 JUMPI DUP5 DUP10 ADD MLOAD PUSH3 0x5D0 PUSH1 0x1F DUP10 AND DUP3 PUSH3 0x4CA JUMP JUMPDEST DUP4 SSTORE POP JUMPDEST PUSH1 0x1 PUSH1 0x2 DUP9 MUL ADD DUP9 SSTORE POP POP POP JUMPDEST POP POP POP POP POP POP JUMP JUMPDEST PUSH2 0x12C4 DUP1 PUSH3 0x5F7 PUSH0 CODECOPY PUSH0 RETURN INVALID PUSH1 0x80 PUSH1 0x40 MSTORE CALLVALUE DUP1 ISZERO PUSH2 0xF JUMPI PUSH0 DUP1 REVERT JUMPDEST POP PUSH1 0x4 CALLDATASIZE LT PUSH2 0x4A JUMPI PUSH0 CALLDATALOAD PUSH1 0xE0 SHR DUP1 PUSH4 0x199F6403 EQ PUSH2 0x4E JUMPI DUP1 PUSH4 0x6B5B83E1 EQ PUSH2 0x6A JUMPI DUP1 PUSH4 0x8AEB26B3 EQ PUSH2 0x86 JUMPI DUP1 PUSH4 0xA90B9128 EQ PUSH2 0xA2 JUMPI JUMPDEST PUSH0 DUP1 REVERT JUMPDEST PUSH2 0x68 PUSH1 0x4 DUP1 CALLDATASIZE SUB DUP2 ADD SWAP1 PUSH2 0x63 SWAP2 SWAP1 PUSH2 0x746 JUMP JUMPDEST PUSH2 0xD6 JUMP JUMPDEST STOP JUMPDEST PUSH2 0x84 PUSH1 0x4 DUP1 CALLDATASIZE SUB DUP2 ADD SWAP1 PUSH2 0x7F SWAP2 SWAP1 PUSH2 0xB69 JUMP JUMPDEST PUSH2 0x1A8 JUMP JUMPDEST STOP JUMPDEST PUSH2 0xA0 PUSH1 0x4 DUP1 CALLDATASIZE SUB DUP2 ADD SWAP1 PUSH2 0x9B SWAP2 SWAP1 PUSH2 0xBB0 JUMP JUMPDEST PUSH2 0x3AC JUMP JUMPDEST STOP JUMPDEST PUSH2 0xBC PUSH1 0x4 DUP1 CALLDATASIZE SUB DUP2 ADD SWAP1 PUSH2 0xB7 SWAP2 SWAP1 PUSH2 0xC1C JUMP JUMPDEST PUSH2 0x553 JUMP JUMPDEST PUSH1 0x40 MLOAD PUSH2 0xCD SWAP6 SWAP5 SWAP4 SWAP3 SWAP2 SWAP1 PUSH2 0xE60 JUMP JUMPDEST PUSH1 0x40 MLOAD DUP1 SWAP2 SUB SWAP1 RETURN JUMPDEST PUSH1 0x3 PUSH0 SWAP1 SLOAD SWAP1 PUSH2 0x100 EXP SWAP1 DIV PUSH20 0xFFFFFFFFFFFFFFFFFFFFFFFFFFFFFFFFFFFFFFFF AND PUSH20 0xFFFFFFFFFFFFFFFFFFFFFFFFFFFFFFFFFFFFFFFF AND CALLER PUSH20 0xFFFFFFFFFFFFFFFFFFFFFFFFFFFFFFFFFFFFFFFF AND EQ PUSH2 0x165 JUMPI PUSH1 0x40 MLOAD PUSH32 0x8C379A000000000000000000000000000000000000000000000000000000000 DUP2 MSTORE PUSH1 0x4 ADD PUSH2 0x15C SWAP1 PUSH2 0xF12 JUMP JUMPDEST PUSH1 0x40 MLOAD DUP1 SWAP2 SUB SWAP1 REVERT JUMPDEST DUP1 PUSH1 0x2 PUSH0 PUSH2 0x100 EXP DUP2 SLOAD DUP2 PUSH20 0xFFFFFFFFFFFFFFFFFFFFFFFFFFFFFFFFFFFFFFFF MUL NOT AND SWAP1 DUP4 PUSH20 0xFFFFFFFFFFFFFFFFFFFFFFFFFFFFFFFFFFFFFFFF AND MUL OR SWAP1 SSTORE POP POP JUMP JUMPDEST PUSH1 0x3 PUSH0 SWAP1 SLOAD SWAP1 PUSH2 0x100 EXP SWAP1 DIV PUSH20 0xFFFFFFFFFFFFFFFFFFFFFFFFFFFFFFFFFFFFFFFF AND PUSH20 0xFFFFFFFFFFFFFFFFFFFFFFFFFFFFFFFFFFFFFFFF AND CALLER PUSH20 0xFFFFFFFFFFFFFFFFFFFFFFFFFFFFFFFFFFFFFFFF AND EQ PUSH2 0x237 JUMPI PUSH1 0x40 MLOAD PUSH32 0x8C379A000000000000000000000000000000000000000000000000000000000 DUP2 MSTORE PUSH1 0x4 ADD PUSH2 0x22E SWAP1 PUSH2 0xF12 JUMP JUMPDEST PUSH1 0x40 MLOAD DUP1 SWAP2 SUB SWAP1 REVERT JUMPDEST PUSH0 JUMPDEST DUP2 MLOAD DUP2 LT ISZERO PUSH2 0x3A8 JUMPI PUSH0 DUP3 DUP3 DUP2 MLOAD DUP2 LT PUSH2 0x256 JUMPI PUSH2 0x255 PUSH2 0xF30 JUMP JUMPDEST JUMPDEST PUSH1 0x20 MUL PUSH1 0x20 ADD ADD MLOAD SWAP1 POP DUP1 PUSH1 0x6 PUSH0 DUP4 PUSH0 ADD MLOAD DUP2 MSTORE PUSH1 0x20 ADD SWAP1 DUP2 MSTORE PUSH1 0x20 ADD PUSH0 KECCAK256 PUSH0 DUP4 PUSH1 0x20 ADD MLOAD DUP2 MSTORE PUSH1 0x20 ADD SWAP1 DUP2 MSTORE PUSH1 0x20 ADD PUSH0 KECCAK256 PUSH0 DUP3 ADD MLOAD DUP2 PUSH0 ADD SSTORE PUSH1 0x20 DUP3 ADD MLOAD DUP2 PUSH1 0x1 ADD SSTORE PUSH1 0x40 DUP3 ADD MLOAD DUP2 PUSH1 0x2 ADD PUSH0 PUSH2 0x100 EXP DUP2 SLOAD DUP2 PUSH1 0xFF MUL NOT AND SWAP1 DUP4 PUSH1 0x4 DUP2 GT ISZERO PUSH2 0x2C4 JUMPI PUSH2 0x2C3 PUSH2 0xC69 JUMP JUMPDEST JUMPDEST MUL OR SWAP1 SSTORE POP PUSH1 0x60 DUP3 ADD MLOAD DUP2 PUSH1 0x2 ADD PUSH1 0x1 PUSH2 0x100 EXP DUP2 SLOAD DUP2 PUSH1 0xFF MUL NOT AND SWAP1 DUP4 PUSH1 0x2 DUP2 GT ISZERO PUSH2 0x2F4 JUMPI PUSH2 0x2F3 PUSH2 0xC69 JUMP JUMPDEST JUMPDEST MUL OR SWAP1 SSTORE POP PUSH1 0x80 DUP3 ADD MLOAD DUP2 PUSH1 0x3 ADD PUSH0 DUP3 ADD MLOAD DUP2 PUSH0 ADD SSTORE PUSH1 0x20 DUP3 ADD MLOAD DUP2 PUSH1 0x1 ADD PUSH0 PUSH2 0x100 EXP DUP2 SLOAD DUP2 PUSH1 0xFF MUL NOT AND SWAP1 DUP4 PUSH1 0x2 DUP2 GT ISZERO PUSH2 0x334 JUMPI PUSH2 0x333 PUSH2 0xC69 JUMP JUMPDEST JUMPDEST MUL OR SWAP1 SSTORE POP PUSH1 0x40 DUP3 ADD MLOAD DUP2 PUSH1 0x2 ADD SWAP1 DUP2 PUSH2 0x34E SWAP2 SWAP1 PUSH2 0x1157 JUMP JUMPDEST POP PUSH1 0x60 DUP3 ADD MLOAD DUP2 PUSH1 0x3 ADD PUSH0 PUSH2 0x100 EXP DUP2 SLOAD DUP2 PUSH20 0xFFFFFFFFFFFFFFFFFFFFFFFFFFFFFFFFFFFFFFFF MUL NOT AND SWAP1 DUP4 PUSH20 0xFFFFFFFFFFFFFFFFFFFFFFFFFFFFFFFFFFFFFFFF AND MUL OR SWAP1 SSTORE POP POP POP SWAP1 POP POP POP DUP1 DUP1 PUSH1 0x1 ADD SWAP2 POP POP PUSH2 0x239 JUMP JUMPDEST POP POP JUMP JUMPDEST PUSH1 0x3 PUSH0 SWAP1 SLOAD SWAP1 PUSH2 0x100 EXP SWAP1 DIV PUSH20 0xFFFFFFFFFFFFFFFFFFFFFFFFFFFFFFFFFFFFFFFF AND PUSH20 0xFFFFFFFFFFFFFFFFFFFFFFFFFFFFFFFFFFFFFFFF AND CALLER PUSH20 0xFFFFFFFFFFFFFFFFFFFFFFFFFFFFFFFFFFFFFFFF AND EQ PUSH2 0x43B JUMPI PUSH1 0x40 MLOAD PUSH32 0x8C379A000000000000000000000000000000000000000000000000000000000 DUP2 MSTORE PUSH1 0x4 ADD PUSH2 0x432 SWAP1 PUSH2 0xF12 JUMP JUMPDEST PUSH1 0x40 MLOAD DUP1 SWAP2 SUB SWAP1 REVERT JUMPDEST PUSH0 PUSH1 0x6 PUSH0 DUP6 DUP2 MSTORE PUSH1 0x20 ADD SWAP1 DUP2 MSTORE PUSH1 0x20 ADD PUSH0 KECCAK256 PUSH0 DUP5 DUP2 MSTORE PUSH1 0x20 ADD SWAP1 DUP2 MSTORE PUSH1 0x20 ADD PUSH0 KECCAK256 SWAP1 POP DUP4 DUP2 PUSH0 ADD SLOAD EQ DUP1 ISZERO PUSH2 0x473 JUMPI POP DUP3 DUP2 PUSH1 0x1 ADD SLOAD EQ JUMPDEST PUSH2 0x4B2 JUMPI PUSH1 0x40 MLOAD PUSH32 0x8C379A000000000000000000000000000000000000000000000000000000000 DUP2 MSTORE PUSH1 0x4 ADD PUSH2 0x4A9 SWAP1 PUSH2 0x1270 JUMP JUMPDEST PUSH1 0x40 MLOAD DUP1 SWAP2 SUB SWAP1 REVERT JUMPDEST DUP2 DUP2 PUSH1 0x3 ADD PUSH0 DUP3 ADD MLOAD DUP2 PUSH0 ADD SSTORE PUSH1 0x20 DUP3 ADD MLOAD DUP2 PUSH1 0x1 ADD PUSH0 PUSH2 0x100 EXP DUP2 SLOAD DUP2 PUSH1 0xFF MUL NOT AND SWAP1 DUP4 PUSH1 0x2 DUP2 GT ISZERO PUSH2 0x4E9 JUMPI PUSH2 0x4E8 PUSH2 0xC69 JUMP JUMPDEST JUMPDEST MUL OR SWAP1 SSTORE POP PUSH1 0x40 DUP3 ADD MLOAD DUP2 PUSH1 0x2 ADD SWAP1 DUP2 PUSH2 0x503 SWAP2 SWAP1 PUSH2 0x1157 JUMP JUMPDEST POP PUSH1 0x60 DUP3 ADD MLOAD DUP2 PUSH1 0x3 ADD PUSH0 PUSH2 0x100 EXP DUP2 SLOAD DUP2 PUSH20 0xFFFFFFFFFFFFFFFFFFFFFFFFFFFFFFFFFFFFFFFF MUL NOT AND SWAP1 DUP4 PUSH20 0xFFFFFFFFFFFFFFFFFFFFFFFFFFFFFFFFFFFFFFFF AND MUL OR SWAP1 SSTORE POP SWAP1 POP POP POP POP POP POP JUMP JUMPDEST PUSH1 0x6 PUSH1 0x20 MSTORE DUP2 PUSH0 MSTORE PUSH1 0x40 PUSH0 KECCAK256 PUSH1 0x20 MSTORE DUP1 PUSH0 MSTORE PUSH1 0x40 PUSH0 KECCAK256 PUSH0 SWAP2 POP SWAP2 POP POP DUP1 PUSH0 ADD SLOAD SWAP1 DUP1 PUSH1 0x1 ADD SLOAD SWAP1 DUP1 PUSH1 0x2 ADD PUSH0 SWAP1 SLOAD SWAP1 PUSH2 0x100 EXP SWAP1 DIV PUSH1 0xFF AND SWAP1 DUP1 PUSH1 0x2 ADD PUSH1 0x1 SWAP1 SLOAD SWAP1 PUSH2 0x100 EXP SWAP1 DIV PUSH1 0xFF AND SWAP1 DUP1 PUSH1 0x3 ADD PUSH1 0x40 MLOAD DUP1 PUSH1 0x80 ADD PUSH1 0x40 MSTORE SWAP1 DUP2 PUSH0 DUP3 ADD SLOAD DUP2 MSTORE PUSH1 0x20 ADD PUSH1 0x1 DUP3 ADD PUSH0 SWAP1 SLOAD SWAP1 PUSH2 0x100 EXP SWAP1 DIV PUSH1 0xFF AND PUSH1 0x2 DUP2 GT ISZERO PUSH2 0x5DB JUMPI PUSH2 0x5DA PUSH2 0xC69 JUMP JUMPDEST JUMPDEST PUSH1 0x2 DUP2 GT ISZERO PUSH2 0x5ED JUMPI PUSH2 0x5EC PUSH2 0xC69 JUMP JUMPDEST JUMPDEST DUP2 MSTORE PUSH1 0x20 ADD PUSH1 0x2 DUP3 ADD DUP1 SLOAD PUSH2 0x601 SWAP1 PUSH2 0xF8A JUMP JUMPDEST DUP1 PUSH1 0x1F ADD PUSH1 0x20 DUP1 SWAP2 DIV MUL PUSH1 0x20 ADD PUSH1 0x40 MLOAD SWAP1 DUP2 ADD PUSH1 0x40 MSTORE DUP1 SWAP3 SWAP2 SWAP1 DUP2 DUP2 MSTORE PUSH1 0x20 ADD DUP3 DUP1 SLOAD PUSH2 0x62D SWAP1 PUSH2 0xF8A JUMP JUMPDEST DUP1 ISZERO PUSH2 0x678 JUMPI DUP1 PUSH1 0x1F LT PUSH2 0x64F JUMPI PUSH2 0x100 DUP1 DUP4 SLOAD DIV MUL DUP4 MSTORE SWAP2 PUSH1 0x20 ADD SWAP2 PUSH2 0x678 JUMP JUMPDEST DUP3 ADD SWAP2 SWAP1 PUSH0 MSTORE PUSH1 0x20 PUSH0 KECCAK256 SWAP1 JUMPDEST DUP2 SLOAD DUP2 MSTORE SWAP1 PUSH1 0x1 ADD SWAP1 PUSH1 0x20 ADD DUP1 DUP4 GT PUSH2 0x65B JUMPI DUP3 SWAP1 SUB PUSH1 0x1F AND DUP3 ADD SWAP2 JUMPDEST POP POP POP POP POP DUP2 MSTORE PUSH1 0x20 ADD PUSH1 0x3 DUP3 ADD PUSH0 SWAP1 SLOAD SWAP1 PUSH2 0x100 EXP SWAP1 DIV PUSH20 0xFFFFFFFFFFFFFFFFFFFFFFFFFFFFFFFFFFFFFFFF AND PUSH20 0xFFFFFFFFFFFFFFFFFFFFFFFFFFFFFFFFFFFFFFFF AND PUSH20 0xFFFFFFFFFFFFFFFFFFFFFFFFFFFFFFFFFFFFFFFF AND DUP2 MSTORE POP POP SWAP1 POP DUP6 JUMP JUMPDEST PUSH0 PUSH1 0x40 MLOAD SWAP1 POP SWAP1 JUMP JUMPDEST PUSH0 DUP1 REVERT JUMPDEST PUSH0 DUP1 REVERT JUMPDEST PUSH0 PUSH20 0xFFFFFFFFFFFFFFFFFFFFFFFFFFFFFFFFFFFFFFFF DUP3 AND SWAP1 POP SWAP2 SWAP1 POP JUMP JUMPDEST PUSH0 PUSH2 0x715 DUP3 PUSH2 0x6EC JUMP JUMPDEST SWAP1 POP SWAP2 SWAP1 POP JUMP JUMPDEST PUSH2 0x725 DUP2 PUSH2 0x70B JUMP JUMPDEST DUP2 EQ PUSH2 0x72F JUMPI PUSH0 DUP1 REVERT JUMPDEST POP JUMP JUMPDEST PUSH0 DUP2 CALLDATALOAD SWAP1 POP PUSH2 0x740 DUP2 PUSH2 0x71C JUMP JUMPDEST SWAP3 SWAP2 POP POP JUMP JUMPDEST PUSH0 PUSH1 0x20 DUP3 DUP5 SUB SLT ISZERO PUSH2 0x75B JUMPI PUSH2 0x75A PUSH2 0x6E4 JUMP JUMPDEST JUMPDEST PUSH0 PUSH2 0x768 DUP5 DUP3 DUP6 ADD PUSH2 0x732 JUMP JUMPDEST SWAP2 POP POP SWAP3 SWAP2 POP POP JUMP JUMPDEST PUSH0 DUP1 REVERT JUMPDEST PUSH0 PUSH1 0x1F NOT PUSH1 0x1F DUP4 ADD AND SWAP1 POP SWAP2 SWAP1 POP JUMP JUMPDEST PUSH32 0x4E487B7100000000000000000000000000000000000000000000000000000000 PUSH0 MSTORE PUSH1 0x41 PUSH1 0x4 MSTORE PUSH1 0x24 PUSH0 REVERT JUMPDEST PUSH2 0x7BB DUP3 PUSH2 0x775 JUMP JUMPDEST DUP2 ADD DUP2 DUP2 LT PUSH8 0xFFFFFFFFFFFFFFFF DUP3 GT OR ISZERO PUSH2 0x7DA JUMPI PUSH2 0x7D9 PUSH2 0x785 JUMP JUMPDEST JUMPDEST DUP1 PUSH1 0x40 MSTORE POP POP POP JUMP JUMPDEST PUSH0 PUSH2 0x7EC PUSH2 0x6DB JUMP JUMPDEST SWAP1 POP PUSH2 0x7F8 DUP3 DUP3 PUSH2 0x7B2 JUMP JUMPDEST SWAP2 SWAP1 POP JUMP JUMPDEST PUSH0 PUSH8 0xFFFFFFFFFFFFFFFF DUP3 GT ISZERO PUSH2 0x817 JUMPI PUSH2 0x816 PUSH2 0x785 JUMP JUMPDEST JUMPDEST PUSH1 0x20 DUP3 MUL SWAP1 POP PUSH1 0x20 DUP2 ADD SWAP1 POP SWAP2 SWAP1 POP JUMP JUMPDEST PUSH0 DUP1 REVERT JUMPDEST PUSH0 DUP1 REVERT JUMPDEST PUSH0 DUP1 REVERT JUMPDEST PUSH0 DUP2 SWAP1 POP SWAP2 SWAP1 POP JUMP JUMPDEST PUSH2 0x846 DUP2 PUSH2 0x834 JUMP JUMPDEST DUP2 EQ PUSH2 0x850 JUMPI PUSH0 DUP1 REVERT JUMPDEST POP JUMP JUMPDEST PUSH0 DUP2 CALLDATALOAD SWAP1 POP PUSH2 0x861 DUP2 PUSH2 0x83D JUMP JUMPDEST SWAP3 SWAP2 POP POP JUMP JUMPDEST PUSH1 0x5 DUP2 LT PUSH2 0x873 JUMPI PUSH0 DUP1 REVERT JUMPDEST POP JUMP JUMPDEST PUSH0 DUP2 CALLDATALOAD SWAP1 POP PUSH2 0x884 DUP2 PUSH2 0x867 JUMP JUMPDEST SWAP3 SWAP2 POP POP JUMP JUMPDEST PUSH1 0x3 DUP2 LT PUSH2 0x896 JUMPI PUSH0 DUP1 REVERT JUMPDEST POP JUMP JUMPDEST PUSH0 DUP2 CALLDATALOAD SWAP1 POP PUSH2 0x8A7 DUP2 PUSH2 0x88A JUMP JUMPDEST SWAP3 SWAP2 POP POP JUMP JUMPDEST PUSH1 0x3 DUP2 LT PUSH2 0x8B9 JUMPI PUSH0 DUP1 REVERT JUMPDEST POP JUMP JUMPDEST PUSH0 DUP2 CALLDATALOAD SWAP1 POP PUSH2 0x8CA DUP2 PUSH2 0x8AD JUMP JUMPDEST SWAP3 SWAP2 POP POP JUMP JUMPDEST PUSH0 DUP1 REVERT JUMPDEST PUSH0 PUSH8 0xFFFFFFFFFFFFFFFF DUP3 GT ISZERO PUSH2 0x8EE JUMPI PUSH2 0x8ED PUSH2 0x785 JUMP JUMPDEST JUMPDEST PUSH2 0x8F7 DUP3 PUSH2 0x775 JUMP JUMPDEST SWAP1 POP PUSH1 0x20 DUP2 ADD SWAP1 POP SWAP2 SWAP1 POP JUMP JUMPDEST DUP3 DUP2 DUP4 CALLDATACOPY PUSH0 DUP4 DUP4 ADD MSTORE POP POP POP JUMP JUMPDEST PUSH0 PUSH2 0x924 PUSH2 0x91F DUP5 PUSH2 0x8D4 JUMP JUMPDEST PUSH2 0x7E3 JUMP JUMPDEST SWAP1 POP DUP3 DUP2 MSTORE PUSH1 0x20 DUP2 ADD DUP5 DUP5 DUP5 ADD GT ISZERO PUSH2 0x940 JUMPI PUSH2 0x93F PUSH2 0x8D0 JUMP JUMPDEST JUMPDEST PUSH2 0x94B DUP5 DUP3 DUP6 PUSH2 0x904 JUMP JUMPDEST POP SWAP4 SWAP3 POP POP POP JUMP JUMPDEST PUSH0 DUP3 PUSH1 0x1F DUP4 ADD SLT PUSH2 0x967 JUMPI PUSH2 0x966 PUSH2 0x771 JUMP JUMPDEST JUMPDEST DUP2 CALLDATALOAD PUSH2 0x977 DUP5 DUP3 PUSH1 0x20 DUP7 ADD PUSH2 0x912 JUMP JUMPDEST SWAP2 POP POP SWAP3 SWAP2 POP POP JUMP JUMPDEST PUSH0 PUSH1 0x80 DUP3 DUP5 SUB SLT ISZERO PUSH2 0x995 JUMPI PUSH2 0x994 PUSH2 0x82C JUMP JUMPDEST JUMPDEST PUSH2 0x99F PUSH1 0x80 PUSH2 0x7E3 JUMP JUMPDEST SWAP1 POP PUSH0 PUSH2 0x9AE DUP5 DUP3 DUP6 ADD PUSH2 0x853 JUMP JUMPDEST PUSH0 DUP4 ADD MSTORE POP PUSH1 0x20 PUSH2 0x9C1 DUP5 DUP3 DUP6 ADD PUSH2 0x8BC JUMP JUMPDEST PUSH1 0x20 DUP4 ADD MSTORE POP PUSH1 0x40 DUP3 ADD CALLDATALOAD PUSH8 0xFFFFFFFFFFFFFFFF DUP2 GT ISZERO PUSH2 0x9E5 JUMPI PUSH2 0x9E4 PUSH2 0x830 JUMP JUMPDEST JUMPDEST PUSH2 0x9F1 DUP5 DUP3 DUP6 ADD PUSH2 0x953 JUMP JUMPDEST PUSH1 0x40 DUP4 ADD MSTORE POP PUSH1 0x60 PUSH2 0xA05 DUP5 DUP3 DUP6 ADD PUSH2 0x732 JUMP JUMPDEST PUSH1 0x60 DUP4 ADD MSTORE POP SWAP3 SWAP2 POP POP JUMP JUMPDEST PUSH0 PUSH1 0xA0 DUP3 DUP5 SUB SLT ISZERO PUSH2 0xA26 JUMPI PUSH2 0xA25 PUSH2 0x82C JUMP JUMPDEST JUMPDEST PUSH2 0xA30 PUSH1 0xA0 PUSH2 0x7E3 JUMP JUMPDEST SWAP1 POP PUSH0 PUSH2 0xA3F DUP5 DUP3 DUP6 ADD PUSH2 0x853 JUMP JUMPDEST PUSH0 DUP4 ADD MSTORE POP PUSH1 0x20 PUSH2 0xA52 DUP5 DUP3 DUP6 ADD PUSH2 0x853 JUMP JUMPDEST PUSH1 0x20 DUP4 ADD MSTORE POP PUSH1 0x40 PUSH2 0xA66 DUP5 DUP3 DUP6 ADD PUSH2 0x876 JUMP JUMPDEST PUSH1 0x40 DUP4 ADD MSTORE POP PUSH1 0x60 PUSH2 0xA7A DUP5 DUP3 DUP6 ADD PUSH2 0x899 JUMP JUMPDEST PUSH1 0x60 DUP4 ADD MSTORE POP PUSH1 0x80 DUP3 ADD CALLDATALOAD PUSH8 0xFFFFFFFFFFFFFFFF DUP2 GT ISZERO PUSH2 0xA9E JUMPI PUSH2 0xA9D PUSH2 0x830 JUMP JUMPDEST JUMPDEST PUSH2 0xAAA DUP5 DUP3 DUP6 ADD PUSH2 0x980 JUMP JUMPDEST PUSH1 0x80 DUP4 ADD MSTORE POP SWAP3 SWAP2 POP POP JUMP JUMPDEST PUSH0 PUSH2 0xAC8 PUSH2 0xAC3 DUP5 PUSH2 0x7FD JUMP JUMPDEST PUSH2 0x7E3 JUMP JUMPDEST SWAP1 POP DUP1 DUP4 DUP3 MSTORE PUSH1 0x20 DUP3 ADD SWAP1 POP PUSH1 0x20 DUP5 MUL DUP4 ADD DUP6 DUP2 GT ISZERO PUSH2 0xAEB JUMPI PUSH2 0xAEA PUSH2 0x828 JUMP JUMPDEST JUMPDEST DUP4 JUMPDEST DUP2 DUP2 LT ISZERO PUSH2 0xB32 JUMPI DUP1 CALLDATALOAD PUSH8 0xFFFFFFFFFFFFFFFF DUP2 GT ISZERO PUSH2 0xB10 JUMPI PUSH2 0xB0F PUSH2 0x771 JUMP JUMPDEST JUMPDEST DUP1 DUP7 ADD PUSH2 0xB1D DUP10 DUP3 PUSH2 0xA11 JUMP JUMPDEST DUP6 MSTORE PUSH1 0x20 DUP6 ADD SWAP5 POP POP POP PUSH1 0x20 DUP2 ADD SWAP1 POP PUSH2 0xAED JUMP JUMPDEST POP POP POP SWAP4 SWAP3 POP POP POP JUMP JUMPDEST PUSH0 DUP3 PUSH1 0x1F DUP4 ADD SLT PUSH2 0xB50 JUMPI PUSH2 0xB4F PUSH2 0x771 JUMP JUMPDEST JUMPDEST DUP2 CALLDATALOAD PUSH2 0xB60 DUP5 DUP3 PUSH1 0x20 DUP7 ADD PUSH2 0xAB6 JUMP JUMPDEST SWAP2 POP POP SWAP3 SWAP2 POP POP JUMP JUMPDEST PUSH0 PUSH1 0x20 DUP3 DUP5 SUB SLT ISZERO PUSH2 0xB7E JUMPI PUSH2 0xB7D PUSH2 0x6E4 JUMP JUMPDEST JUMPDEST PUSH0 DUP3 ADD CALLDATALOAD PUSH8 0xFFFFFFFFFFFFFFFF DUP2 GT ISZERO PUSH2 0xB9B JUMPI PUSH2 0xB9A PUSH2 0x6E8 JUMP JUMPDEST JUMPDEST PUSH2 0xBA7 DUP5 DUP3 DUP6 ADD PUSH2 0xB3C JUMP JUMPDEST SWAP2 POP POP SWAP3 SWAP2 POP POP JUMP JUMPDEST PUSH0 DUP1 PUSH0 PUSH1 0x60 DUP5 DUP7 SUB SLT ISZERO PUSH2 0xBC7 JUMPI PUSH2 0xBC6 PUSH2 0x6E4 JUMP JUMPDEST JUMPDEST PUSH0 PUSH2 0xBD4 DUP7 DUP3 DUP8 ADD PUSH2 0x853 JUMP JUMPDEST SWAP4 POP POP PUSH1 0x20 PUSH2 0xBE5 DUP7 DUP3 DUP8 ADD PUSH2 0x853 JUMP JUMPDEST SWAP3 POP POP PUSH1 0x40 DUP5 ADD CALLDATALOAD PUSH8 0xFFFFFFFFFFFFFFFF DUP2 GT ISZERO PUSH2 0xC06 JUMPI PUSH2 0xC05 PUSH2 0x6E8 JUMP JUMPDEST JUMPDEST PUSH2 0xC12 DUP7 DUP3 DUP8 ADD PUSH2 0x980 JUMP JUMPDEST SWAP2 POP POP SWAP3 POP SWAP3 POP SWAP3 JUMP JUMPDEST PUSH0 DUP1 PUSH1 0x40 DUP4 DUP6 SUB SLT ISZERO PUSH2 0xC32 JUMPI PUSH2 0xC31 PUSH2 0x6E4 JUMP JUMPDEST JUMPDEST PUSH0 PUSH2 0xC3F DUP6 DUP3 DUP7 ADD PUSH2 0x853 JUMP JUMPDEST SWAP3 POP POP PUSH1 0x20 PUSH2 0xC50 DUP6 DUP3 DUP7 ADD PUSH2 0x853 JUMP JUMPDEST SWAP2 POP POP SWAP3 POP SWAP3 SWAP1 POP JUMP JUMPDEST PUSH2 0xC63 DUP2 PUSH2 0x834 JUMP JUMPDEST DUP3 MSTORE POP POP JUMP JUMPDEST PUSH32 0x4E487B7100000000000000000000000000000000000000000000000000000000 PUSH0 MSTORE PUSH1 0x21 PUSH1 0x4 MSTORE PUSH1 0x24 PUSH0 REVERT JUMPDEST PUSH1 0x5 DUP2 LT PUSH2 0xCA7 JUMPI PUSH2 0xCA6 PUSH2 0xC69 JUMP JUMPDEST JUMPDEST POP JUMP JUMPDEST PUSH0 DUP2 SWAP1 POP PUSH2 0xCB7 DUP3 PUSH2 0xC96 JUMP JUMPDEST SWAP2 SWAP1 POP JUMP JUMPDEST PUSH0 PUSH2 0xCC6 DUP3 PUSH2 0xCAA JUMP JUMPDEST SWAP1 POP SWAP2 SWAP1 POP JUMP JUMPDEST PUSH2 0xCD6 DUP2 PUSH2 0xCBC JUMP JUMPDEST DUP3 MSTORE POP POP JUMP JUMPDEST PUSH1 0x3 DUP2 LT PUSH2 0xCED JUMPI PUSH2 0xCEC PUSH2 0xC69 JUMP JUMPDEST JUMPDEST POP JUMP JUMPDEST PUSH0 DUP2 SWAP1 POP PUSH2 0xCFD DUP3 PUSH2 0xCDC JUMP JUMPDEST SWAP2 SWAP1 POP JUMP JUMPDEST PUSH0 PUSH2 0xD0C DUP3 PUSH2 0xCF0 JUMP JUMPDEST SWAP1 POP SWAP2 SWAP1 POP JUMP JUMPDEST PUSH2 0xD1C DUP2 PUSH2 0xD02 JUMP JUMPDEST DUP3 MSTORE POP POP JUMP JUMPDEST PUSH2 0xD2B DUP2 PUSH2 0x834 JUMP JUMPDEST DUP3 MSTORE POP POP JUMP JUMPDEST PUSH1 0x3 DUP2 LT PUSH2 0xD42 JUMPI PUSH2 0xD41 PUSH2 0xC69 JUMP JUMPDEST JUMPDEST POP JUMP JUMPDEST PUSH0 DUP2 SWAP1 POP PUSH2 0xD52 DUP3 PUSH2 0xD31 JUMP JUMPDEST SWAP2 SWAP1 POP JUMP JUMPDEST PUSH0 PUSH2 0xD61 DUP3 PUSH2 0xD45 JUMP JUMPDEST SWAP1 POP SWAP2 SWAP1 POP JUMP JUMPDEST PUSH2 0xD71 DUP2 PUSH2 0xD57 JUMP JUMPDEST DUP3 MSTORE POP POP JUMP JUMPDEST PUSH0 DUP2 MLOAD SWAP1 POP SWAP2 SWAP1 POP JUMP JUMPDEST PUSH0 DUP3 DUP3 MSTORE PUSH1 0x20 DUP3 ADD SWAP1 POP SWAP3 SWAP2 POP POP JUMP JUMPDEST PUSH0 JUMPDEST DUP4 DUP2 LT ISZERO PUSH2 0xDAE JUMPI DUP1 DUP3 ADD MLOAD DUP2 DUP5 ADD MSTORE PUSH1 0x20 DUP2 ADD SWAP1 POP PUSH2 0xD93 JUMP JUMPDEST PUSH0 DUP5 DUP5 ADD MSTORE POP POP POP POP JUMP JUMPDEST PUSH0 PUSH2 0xDC3 DUP3 PUSH2 0xD77 JUMP JUMPDEST PUSH2 0xDCD DUP2 DUP6 PUSH2 0xD81 JUMP JUMPDEST SWAP4 POP PUSH2 0xDDD DUP2 DUP6 PUSH1 0x20 DUP7 ADD PUSH2 0xD91 JUMP JUMPDEST PUSH2 0xDE6 DUP2 PUSH2 0x775 JUMP JUMPDEST DUP5 ADD SWAP2 POP POP SWAP3 SWAP2 POP POP JUMP JUMPDEST PUSH2 0xDFA DUP2 PUSH2 0x70B JUMP JUMPDEST DUP3 MSTORE POP POP JUMP JUMPDEST PUSH0 PUSH1 0x80 DUP4 ADD PUSH0 DUP4 ADD MLOAD PUSH2 0xE15 PUSH0 DUP7 ADD DUP3 PUSH2 0xD22 JUMP JUMPDEST POP PUSH1 0x20 DUP4 ADD MLOAD PUSH2 0xE28 PUSH1 0x20 DUP7 ADD DUP3 PUSH2 0xD68 JUMP JUMPDEST POP PUSH1 0x40 DUP4 ADD MLOAD DUP5 DUP3 SUB PUSH1 0x40 DUP7 ADD MSTORE PUSH2 0xE40 DUP3 DUP3 PUSH2 0xDB9 JUMP JUMPDEST SWAP2 POP POP PUSH1 0x60 DUP4 ADD MLOAD PUSH2 0xE55 PUSH1 0x60 DUP7 ADD DUP3 PUSH2 0xDF1 JUMP JUMPDEST POP DUP1 SWAP2 POP POP SWAP3 SWAP2 POP POP JUMP JUMPDEST PUSH0 PUSH1 0xA0 DUP3 ADD SWAP1 POP PUSH2 0xE73 PUSH0 DUP4 ADD DUP9 PUSH2 0xC5A JUMP JUMPDEST PUSH2 0xE80 PUSH1 0x20 DUP4 ADD DUP8 PUSH2 0xC5A JUMP JUMPDEST PUSH2 0xE8D PUSH1 0x40 DUP4 ADD DUP7 PUSH2 0xCCD JUMP JUMPDEST PUSH2 0xE9A PUSH1 0x60 DUP4 ADD DUP6 PUSH2 0xD13 JUMP JUMPDEST DUP2 DUP2 SUB PUSH1 0x80 DUP4 ADD MSTORE PUSH2 0xEAC DUP2 DUP5 PUSH2 0xE00 JUMP JUMPDEST SWAP1 POP SWAP7 SWAP6 POP POP POP POP POP POP JUMP JUMPDEST PUSH0 DUP3 DUP3 MSTORE PUSH1 0x20 DUP3 ADD SWAP1 POP SWAP3 SWAP2 POP POP JUMP JUMPDEST PUSH32 0x4E6F7420616C6C6F776564000000000000000000000000000000000000000000 PUSH0 DUP3 ADD MSTORE POP JUMP JUMPDEST PUSH0 PUSH2 0xEFC PUSH1 0xB DUP4 PUSH2 0xEB8 JUMP JUMPDEST SWAP2 POP PUSH2 0xF07 DUP3 PUSH2 0xEC8 JUMP JUMPDEST PUSH1 0x20 DUP3 ADD SWAP1 POP SWAP2 SWAP1 POP JUMP JUMPDEST PUSH0 PUSH1 0x20 DUP3 ADD SWAP1 POP DUP2 DUP2 SUB PUSH0 DUP4 ADD MSTORE PUSH2 0xF29 DUP2 PUSH2 0xEF0 JUMP JUMPDEST SWAP1 POP SWAP2 SWAP1 POP JUMP JUMPDEST PUSH32 0x4E487B7100000000000000000000000000000000000000000000000000000000 PUSH0 MSTORE PUSH1 0x32 PUSH1 0x4 MSTORE PUSH1 0x24 PUSH0 REVERT JUMPDEST PUSH32 0x4E487B7100000000000000000000000000000000000000000000000000000000 PUSH0 MSTORE PUSH1 0x22 PUSH1 0x4 MSTORE PUSH1 0x24 PUSH0 REVERT JUMPDEST PUSH0 PUSH1 0x2 DUP3 DIV SWAP1 POP PUSH1 0x1 DUP3 AND DUP1 PUSH2 0xFA1 JUMPI PUSH1 0x7F DUP3 AND SWAP2 POP JUMPDEST PUSH1 0x20 DUP3 LT DUP2 SUB PUSH2 0xFB4 JUMPI PUSH2 0xFB3 PUSH2 0xF5D JUMP JUMPDEST JUMPDEST POP SWAP2 SWAP1 POP JUMP JUMPDEST PUSH0 DUP2 SWAP1 POP DUP2 PUSH0 MSTORE PUSH1 0x20 PUSH0 KECCAK256 SWAP1 POP SWAP2 SWAP1 POP JUMP JUMPDEST PUSH0 PUSH1 0x20 PUSH1 0x1F DUP4 ADD DIV SWAP1 POP SWAP2 SWAP1 POP JUMP JUMPDEST PUSH0 DUP3 DUP3 SHL SWAP1 POP SWAP3 SWAP2 POP POP JUMP JUMPDEST PUSH0 PUSH1 0x8 DUP4 MUL PUSH2 0x1016 PUSH32 0xFFFFFFFFFFFFFFFFFFFFFFFFFFFFFFFFFFFFFFFFFFFFFFFFFFFFFFFFFFFFFFFF DUP3 PUSH2 0xFDB JUMP JUMPDEST PUSH2 0x1020 DUP7 DUP4 PUSH2 0xFDB JUMP JUMPDEST SWAP6 POP DUP1 NOT DUP5 AND SWAP4 POP DUP1 DUP7 AND DUP5 OR SWAP3 POP POP POP SWAP4 SWAP3 POP POP POP JUMP JUMPDEST PUSH0 DUP2 SWAP1 POP SWAP2 SWAP1 POP JUMP JUMPDEST PUSH0 PUSH2 0x105B PUSH2 0x1056 PUSH2 0x1051 DUP5 PUSH2 0x834 JUMP JUMPDEST PUSH2 0x1038 JUMP JUMPDEST PUSH2 0x834 JUMP JUMPDEST SWAP1 POP SWAP2 SWAP1 POP JUMP JUMPDEST PUSH0 DUP2 SWAP1 POP SWAP2 SWAP1 POP JUMP JUMPDEST PUSH2 0x1074 DUP4 PUSH2 0x1041 JUMP JUMPDEST PUSH2 0x1088 PUSH2 0x1080 DUP3 PUSH2 0x1062 JUMP JUMPDEST DUP5 DUP5 SLOAD PUSH2 0xFE7 JUMP JUMPDEST DUP3 SSTORE POP POP POP POP JUMP JUMPDEST PUSH0 SWAP1 JUMP JUMPDEST PUSH2 0x109C PUSH2 0x1090 JUMP JUMPDEST PUSH2 0x10A7 DUP2 DUP5 DUP5 PUSH2 0x106B JUMP JUMPDEST POP POP POP JUMP JUMPDEST JUMPDEST DUP2 DUP2 LT ISZERO PUSH2 0x10CA JUMPI PUSH2 0x10BF PUSH0 DUP3 PUSH2 0x1094 JUMP JUMPDEST PUSH1 0x1 DUP2 ADD SWAP1 POP PUSH2 0x10AD JUMP JUMPDEST POP POP JUMP JUMPDEST PUSH1 0x1F DUP3 GT ISZERO PUSH2 0x110F JUMPI PUSH2 0x10E0 DUP2 PUSH2 0xFBA JUMP JUMPDEST PUSH2 0x10E9 DUP5 PUSH2 0xFCC JUMP JUMPDEST DUP2 ADD PUSH1 0x20 DUP6 LT ISZERO PUSH2 0x10F8 JUMPI DUP2 SWAP1 POP JUMPDEST PUSH2 0x110C PUSH2 0x1104 DUP6 PUSH2 0xFCC JUMP JUMPDEST DUP4 ADD DUP3 PUSH2 0x10AC JUMP JUMPDEST POP POP JUMPDEST POP POP POP JUMP JUMPDEST PUSH0 DUP3 DUP3 SHR SWAP1 POP SWAP3 SWAP2 POP POP JUMP JUMPDEST PUSH0 PUSH2 0x112F PUSH0 NOT DUP5 PUSH1 0x8 MUL PUSH2 0x1114 JUMP JUMPDEST NOT DUP1 DUP4 AND SWAP2 POP POP SWAP3 SWAP2 POP POP JUMP JUMPDEST PUSH0 PUSH2 0x1147 DUP4 DUP4 PUSH2 0x1120 JUMP JUMPDEST SWAP2 POP DUP3 PUSH1 0x2 MUL DUP3 OR SWAP1 POP SWAP3 SWAP2 POP POP JUMP JUMPDEST PUSH2 0x1160 DUP3 PUSH2 0xD77 JUMP JUMPDEST PUSH8 0xFFFFFFFFFFFFFFFF DUP2 GT ISZERO PUSH2 0x1179 JUMPI PUSH2 0x1178 PUSH2 0x785 JUMP JUMPDEST JUMPDEST PUSH2 0x1183 DUP3 SLOAD PUSH2 0xF8A JUMP JUMPDEST PUSH2 0x118E DUP3 DUP3 DUP6 PUSH2 0x10CE JUMP JUMPDEST PUSH0 PUSH1 0x20 SWAP1 POP PUSH1 0x1F DUP4 GT PUSH1 0x1 DUP2 EQ PUSH2 0x11BF JUMPI PUSH0 DUP5 ISZERO PUSH2 0x11AD JUMPI DUP3 DUP8 ADD MLOAD SWAP1 POP JUMPDEST PUSH2 0x11B7 DUP6 DUP3 PUSH2 0x113C JUMP JUMPDEST DUP7 SSTORE POP PUSH2 0x121E JUMP JUMPDEST PUSH1 0x1F NOT DUP5 AND PUSH2 0x11CD DUP7 PUSH2 0xFBA JUMP JUMPDEST PUSH0 JUMPDEST DUP3 DUP2 LT ISZERO PUSH2 0x11F4 JUMPI DUP5 DUP10 ADD MLOAD DUP3 SSTORE PUSH1 0x1 DUP3 ADD SWAP2 POP PUSH1 0x20 DUP6 ADD SWAP5 POP PUSH1 0x20 DUP2 ADD SWAP1 POP PUSH2 0x11CF JUMP JUMPDEST DUP7 DUP4 LT ISZERO PUSH2 0x1211 JUMPI DUP5 DUP10 ADD MLOAD PUSH2 0x120D PUSH1 0x1F DUP10 AND DUP3 PUSH2 0x1120 JUMP JUMPDEST DUP4 SSTORE POP JUMPDEST PUSH1 0x1 PUSH1 0x2 DUP9 MUL ADD DUP9 SSTORE POP POP POP JUMPDEST POP POP POP POP POP POP JUMP JUMPDEST PUSH32 0x54696C6520646F6573206E6F7420657869737400000000000000000000000000 PUSH0 DUP3 ADD MSTORE POP JUMP JUMPDEST PUSH0 PUSH2 0x125A PUSH1 0x13 DUP4 PUSH2 0xEB8 JUMP JUMPDEST SWAP2 POP PUSH2 0x1265 DUP3 PUSH2 0x1226 JUMP JUMPDEST PUSH1 0x20 DUP3 ADD SWAP1 POP SWAP2 SWAP1 POP JUMP JUMPDEST PUSH0 PUSH1 0x20 DUP3 ADD SWAP1 POP DUP2 DUP2 SUB PUSH0 DUP4 ADD MSTORE PUSH2 0x1287 DUP2 PUSH2 0x124E JUMP JUMPDEST SWAP1 POP SWAP2 SWAP1 POP JUMP INVALID LOG2 PUSH5 0x6970667358 0x22 SLT KECCAK256 0xC6 0xEE 0x21 GAS 0xD0 SWAP13 DUP3 STATICCALL SELFDESTRUCT GT 0xB9 PUSH32 0x4945BFA5E8BF64A6298FA62885FE35DFC14AF71264736F6C6343000817003300 "
		},
		"gasEstimates": {
			"creation": {
				"codeDepositCost": "960800",
				"executionCost": "infinite",
				"totalCost": "infinite"
			},
			"external": {
				"__initializeTiles((uint256,uint256,uint8,uint8,(uint256,uint8,string,address))[])": "infinite",
				"__setBuilding__(uint256,uint256,(uint256,uint8,string,address))": "infinite",
				"__setNativeCurrency__(address)": "26862",
				"map(uint256,uint256)": "infinite"
			}
		},
		"methodIdentifiers": {
			"__initializeTiles((uint256,uint256,uint8,uint8,(uint256,uint8,string,address))[])": "6b5b83e1",
			"__setBuilding__(uint256,uint256,(uint256,uint8,string,address))": "8aeb26b3",
			"__setNativeCurrency__(address)": "199f6403",
			"map(uint256,uint256)": "a90b9128"
		}
	},
	"abi": [
		{
			"inputs": [
				{
					"internalType": "uint256",
					"name": "mapWidth",
					"type": "uint256"
				},
				{
					"internalType": "uint256",
					"name": "mapHeight",
					"type": "uint256"
				},
				{
					"internalType": "string",
					"name": "mapName",
					"type": "string"
				}
			],
			"stateMutability": "nonpayable",
			"type": "constructor"
		},
		{
			"inputs": [
				{
					"components": [
						{
							"internalType": "uint256",
							"name": "x",
							"type": "uint256"
						},
						{
							"internalType": "uint256",
							"name": "y",
							"type": "uint256"
						},
						{
							"internalType": "enum Game.TerrainType",
							"name": "terrainType",
							"type": "uint8"
						},
						{
							"internalType": "enum Game.BiomeType",
							"name": "biomeType",
							"type": "uint8"
						},
						{
							"components": [
								{
									"internalType": "uint256",
									"name": "id",
									"type": "uint256"
								},
								{
									"internalType": "enum Game.BuildingType",
									"name": "buildingType",
									"type": "uint8"
								},
								{
									"internalType": "string",
									"name": "name",
									"type": "string"
								},
								{
									"internalType": "address",
									"name": "owner",
									"type": "address"
								}
							],
							"internalType": "struct Game.Building",
							"name": "building",
							"type": "tuple"
						}
					],
					"internalType": "struct Game.Tile[]",
					"name": "tiles",
					"type": "tuple[]"
				}
			],
			"name": "__initializeTiles",
			"outputs": [],
			"stateMutability": "nonpayable",
			"type": "function"
		},
		{
			"inputs": [
				{
					"internalType": "uint256",
					"name": "x",
					"type": "uint256"
				},
				{
					"internalType": "uint256",
					"name": "y",
					"type": "uint256"
				},
				{
					"components": [
						{
							"internalType": "uint256",
							"name": "id",
							"type": "uint256"
						},
						{
							"internalType": "enum Game.BuildingType",
							"name": "buildingType",
							"type": "uint8"
						},
						{
							"internalType": "string",
							"name": "name",
							"type": "string"
						},
						{
							"internalType": "address",
							"name": "owner",
							"type": "address"
						}
					],
					"internalType": "struct Game.Building",
					"name": "building",
					"type": "tuple"
				}
			],
			"name": "__setBuilding__",
			"outputs": [],
			"stateMutability": "nonpayable",
			"type": "function"
		},
		{
			"inputs": [
				{
					"internalType": "address",
					"name": "nativeCurrency",
					"type": "address"
				}
			],
			"name": "__setNativeCurrency__",
			"outputs": [],
			"stateMutability": "nonpayable",
			"type": "function"
		},
		{
			"inputs": [
				{
					"internalType": "uint256",
					"name": "",
					"type": "uint256"
				},
				{
					"internalType": "uint256",
					"name": "",
					"type": "uint256"
				}
			],
			"name": "map",
			"outputs": [
				{
					"internalType": "uint256",
					"name": "x",
					"type": "uint256"
				},
				{
					"internalType": "uint256",
					"name": "y",
					"type": "uint256"
				},
				{
					"internalType": "enum Game.TerrainType",
					"name": "terrainType",
					"type": "uint8"
				},
				{
					"internalType": "enum Game.BiomeType",
					"name": "biomeType",
					"type": "uint8"
				},
				{
					"components": [
						{
							"internalType": "uint256",
							"name": "id",
							"type": "uint256"
						},
						{
							"internalType": "enum Game.BuildingType",
							"name": "buildingType",
							"type": "uint8"
						},
						{
							"internalType": "string",
							"name": "name",
							"type": "string"
						},
						{
							"internalType": "address",
							"name": "owner",
							"type": "address"
						}
					],
					"internalType": "struct Game.Building",
					"name": "building",
					"type": "tuple"
				}
			],
			"stateMutability": "view",
			"type": "function"
		}
	]
}