{
	"data": {
		"bytecode": {
			"linkReferences": {},
			"object": "608060405234801562000010575f80fd5b5060405162000cb738038062000cb78339818101604052810190620000369190620006cb565b806001819055506200004d6200006460201b60201c565b6200005d6200020b60201b60201c565b506200085a565b60015467ffffffffffffffff811115620000835762000082620006fb565b5b604051908082528060200260200182016040528015620000b857816020015b6060815260200190600190039081620000a25790505b505f9080519060200190620000cf92919062000514565b505f5b600154811015620002085760015467ffffffffffffffff811115620000fc57620000fb620006fb565b5b6040519080825280602002602001820160405280156200012b5781602001602082028036833780820191505090505b505f828154811062000142576200014162000728565b5b905f5260205f200190805190602001906200015f92919062000579565b505f5b600154811015620001f9577fffffffffffffffffffffffffffffffffffffffffffffffffffffffffffffffff5f8381548110620001a457620001a362000728565b5b905f5260205f20018281548110620001c157620001c062000728565b5b905f5260205f2090602091828204019190066101000a81548160ff02191690835f0b60ff160217905550808060010191505062000162565b508080600101915050620000d2565b50565b5f60026001546200021d9190620007af565b90505f6002600154620002319190620007af565b90505f8083815481106200024a576200024962000728565b5b905f5260205f2001828154811062000267576200026662000728565b5b905f5260205f2090602091828204019190066101000a81548160ff02191690835f0b60ff1602179055505f82118015620002a057505f81115b1562000321575f80600184620002b79190620007e6565b81548110620002cb57620002ca62000728565b5b905f5260205f2001600183620002e29190620007e6565b81548110620002f657620002f562000728565b5b905f5260205f2090602091828204019190066101000a81548160ff02191690835f0b60ff1602179055505b60018054620003319190620007e6565b821080156200033f57505f81115b15620003c15760015f60018462000357919062000820565b815481106200036b576200036a62000728565b5b905f5260205f2001600183620003829190620007e6565b8154811062000396576200039562000728565b5b905f5260205f2090602091828204019190066101000a81548160ff02191690835f0b60ff1602179055505b5f82118015620003df575060018054620003dc9190620007e6565b81105b15620004615760015f600184620003f79190620007e6565b815481106200040b576200040a62000728565b5b905f5260205f200160018362000422919062000820565b8154811062000436576200043562000728565b5b905f5260205f2090602091828204019190066101000a81548160ff02191690835f0b60ff1602179055505b60018054620004719190620007e6565b821080156200048e5750600180546200048b9190620007e6565b81105b15620005105760025f600184620004a6919062000820565b81548110620004ba57620004b962000728565b5b905f5260205f2001600183620004d1919062000820565b81548110620004e557620004e462000728565b5b905f5260205f2090602091828204019190066101000a81548160ff02191690835f0b60ff1602179055505b5050565b828054828255905f5260205f2090810192821562000566579160200282015b82811115620005655782518290805190602001906200055492919062000579565b509160200191906001019062000533565b5b50905062000575919062000624565b5090565b828054828255905f5260205f2090601f0160209004810192821562000611579160200282015f5b83821115620005e157835183826101000a81548160ff02191690835f0b60ff16021790555092602001926001016020815f01049283019260010302620005a0565b80156200060f5782816101000a81549060ff02191690556001016020815f01049283019260010302620005e1565b505b5090506200062091906200064b565b5090565b5b8082111562000647575f81816200063d919062000668565b5060010162000625565b5090565b5b8082111562000664575f815f9055506001016200064c565b5090565b5080545f8255601f0160209004905f5260205f20908101906200068c91906200064b565b50565b5f80fd5b5f819050919050565b620006a78162000693565b8114620006b2575f80fd5b50565b5f81519050620006c5816200069c565b92915050565b5f60208284031215620006e357620006e26200068f565b5b5f620006f284828501620006b5565b91505092915050565b7f4e487b71000000000000000000000000000000000000000000000000000000005f52604160045260245ffd5b7f4e487b71000000000000000000000000000000000000000000000000000000005f52603260045260245ffd5b7f4e487b71000000000000000000000000000000000000000000000000000000005f52601260045260245ffd5b7f4e487b71000000000000000000000000000000000000000000000000000000005f52601160045260245ffd5b5f620007bb8262000693565b9150620007c88362000693565b925082620007db57620007da62000755565b5b828204905092915050565b5f620007f28262000693565b9150620007ff8362000693565b92508282039050818111156200081a576200081962000782565b5b92915050565b5f6200082c8262000693565b9150620008398362000693565b925082820190508082111562000854576200085362000782565b5b92915050565b61044f80620008685f395ff3fe608060405234801561000f575f80fd5b506004361061003f575f3560e01c8063134000c014610043578063146008e31461006157806379f9607d14610091575b5f80fd5b61004b6100af565b6040516100589190610334565b60405180910390f35b61007b6004803603810190610076919061038b565b61016a565b60405161008891906103d8565b60405180910390f35b6100996101b1565b6040516100a69190610400565b60405180910390f35b60605f805480602002602001604051908101604052809291908181526020015f905b82821015610161578382905f5260205f200180548060200260200160405190810160405280929190818152602001828054801561014d57602002820191905f5260205f20905f905b82829054906101000a90045f0b5f0b815260200190600101906020825f010492830192600103820291508084116101195790505b5050505050815260200190600101906100d1565b50505050905090565b5f8281548110610178575f80fd5b905f5260205f2001818154811061018d575f80fd5b905f5260205f209060209182820401919006915091509054906101000a90045f0b81565b60015481565b5f81519050919050565b5f82825260208201905092915050565b5f819050602082019050919050565b5f81519050919050565b5f82825260208201905092915050565b5f819050602082019050919050565b5f815f0b9050919050565b61021d81610209565b82525050565b5f61022e8383610214565b60208301905092915050565b5f602082019050919050565b5f610250826101e0565b61025a81856101ea565b9350610265836101fa565b805f5b8381101561029557815161027c8882610223565b97506102878361023a565b925050600181019050610268565b5085935050505092915050565b5f6102ad8383610246565b905092915050565b5f602082019050919050565b5f6102cb826101b7565b6102d581856101c1565b9350836020820285016102e7856101d1565b805f5b85811015610322578484038952815161030385826102a2565b945061030e836102b5565b925060208a019950506001810190506102ea565b50829750879550505050505092915050565b5f6020820190508181035f83015261034c81846102c1565b905092915050565b5f80fd5b5f819050919050565b61036a81610358565b8114610374575f80fd5b50565b5f8135905061038581610361565b92915050565b5f80604083850312156103a1576103a0610354565b5b5f6103ae85828601610377565b92505060206103bf85828601610377565b9150509250929050565b6103d281610209565b82525050565b5f6020820190506103eb5f8301846103c9565b92915050565b6103fa81610358565b82525050565b5f6020820190506104135f8301846103f1565b9291505056fea26469706673582212207876c685bf9e86243158ccf09aef831dc72c552fc36fee166bee5464e44120ab64736f6c63430008170033",
			"opcodes": "PUSH1 0x80 PUSH1 0x40 MSTORE CALLVALUE DUP1 ISZERO PUSH3 0x10 JUMPI PUSH0 DUP1 REVERT JUMPDEST POP PUSH1 0x40 MLOAD PUSH3 0xCB7 CODESIZE SUB DUP1 PUSH3 0xCB7 DUP4 CODECOPY DUP2 DUP2 ADD PUSH1 0x40 MSTORE DUP2 ADD SWAP1 PUSH3 0x36 SWAP2 SWAP1 PUSH3 0x6CB JUMP JUMPDEST DUP1 PUSH1 0x1 DUP2 SWAP1 SSTORE POP PUSH3 0x4D PUSH3 0x64 PUSH1 0x20 SHL PUSH1 0x20 SHR JUMP JUMPDEST PUSH3 0x5D PUSH3 0x20B PUSH1 0x20 SHL PUSH1 0x20 SHR JUMP JUMPDEST POP PUSH3 0x85A JUMP JUMPDEST PUSH1 0x1 SLOAD PUSH8 0xFFFFFFFFFFFFFFFF DUP2 GT ISZERO PUSH3 0x83 JUMPI PUSH3 0x82 PUSH3 0x6FB JUMP JUMPDEST JUMPDEST PUSH1 0x40 MLOAD SWAP1 DUP1 DUP3 MSTORE DUP1 PUSH1 0x20 MUL PUSH1 0x20 ADD DUP3 ADD PUSH1 0x40 MSTORE DUP1 ISZERO PUSH3 0xB8 JUMPI DUP2 PUSH1 0x20 ADD JUMPDEST PUSH1 0x60 DUP2 MSTORE PUSH1 0x20 ADD SWAP1 PUSH1 0x1 SWAP1 SUB SWAP1 DUP2 PUSH3 0xA2 JUMPI SWAP1 POP JUMPDEST POP PUSH0 SWAP1 DUP1 MLOAD SWAP1 PUSH1 0x20 ADD SWAP1 PUSH3 0xCF SWAP3 SWAP2 SWAP1 PUSH3 0x514 JUMP JUMPDEST POP PUSH0 JUMPDEST PUSH1 0x1 SLOAD DUP2 LT ISZERO PUSH3 0x208 JUMPI PUSH1 0x1 SLOAD PUSH8 0xFFFFFFFFFFFFFFFF DUP2 GT ISZERO PUSH3 0xFC JUMPI PUSH3 0xFB PUSH3 0x6FB JUMP JUMPDEST JUMPDEST PUSH1 0x40 MLOAD SWAP1 DUP1 DUP3 MSTORE DUP1 PUSH1 0x20 MUL PUSH1 0x20 ADD DUP3 ADD PUSH1 0x40 MSTORE DUP1 ISZERO PUSH3 0x12B JUMPI DUP2 PUSH1 0x20 ADD PUSH1 0x20 DUP3 MUL DUP1 CALLDATASIZE DUP4 CALLDATACOPY DUP1 DUP3 ADD SWAP2 POP POP SWAP1 POP JUMPDEST POP PUSH0 DUP3 DUP2 SLOAD DUP2 LT PUSH3 0x142 JUMPI PUSH3 0x141 PUSH3 0x728 JUMP JUMPDEST JUMPDEST SWAP1 PUSH0 MSTORE PUSH1 0x20 PUSH0 KECCAK256 ADD SWAP1 DUP1 MLOAD SWAP1 PUSH1 0x20 ADD SWAP1 PUSH3 0x15F SWAP3 SWAP2 SWAP1 PUSH3 0x579 JUMP JUMPDEST POP PUSH0 JUMPDEST PUSH1 0x1 SLOAD DUP2 LT ISZERO PUSH3 0x1F9 JUMPI PUSH32 0xFFFFFFFFFFFFFFFFFFFFFFFFFFFFFFFFFFFFFFFFFFFFFFFFFFFFFFFFFFFFFFFF PUSH0 DUP4 DUP2 SLOAD DUP2 LT PUSH3 0x1A4 JUMPI PUSH3 0x1A3 PUSH3 0x728 JUMP JUMPDEST JUMPDEST SWAP1 PUSH0 MSTORE PUSH1 0x20 PUSH0 KECCAK256 ADD DUP3 DUP2 SLOAD DUP2 LT PUSH3 0x1C1 JUMPI PUSH3 0x1C0 PUSH3 0x728 JUMP JUMPDEST JUMPDEST SWAP1 PUSH0 MSTORE PUSH1 0x20 PUSH0 KECCAK256 SWAP1 PUSH1 0x20 SWAP2 DUP3 DUP3 DIV ADD SWAP2 SWAP1 MOD PUSH2 0x100 EXP DUP2 SLOAD DUP2 PUSH1 0xFF MUL NOT AND SWAP1 DUP4 PUSH0 SIGNEXTEND PUSH1 0xFF AND MUL OR SWAP1 SSTORE POP DUP1 DUP1 PUSH1 0x1 ADD SWAP2 POP POP PUSH3 0x162 JUMP JUMPDEST POP DUP1 DUP1 PUSH1 0x1 ADD SWAP2 POP POP PUSH3 0xD2 JUMP JUMPDEST POP JUMP JUMPDEST PUSH0 PUSH1 0x2 PUSH1 0x1 SLOAD PUSH3 0x21D SWAP2 SWAP1 PUSH3 0x7AF JUMP JUMPDEST SWAP1 POP PUSH0 PUSH1 0x2 PUSH1 0x1 SLOAD PUSH3 0x231 SWAP2 SWAP1 PUSH3 0x7AF JUMP JUMPDEST SWAP1 POP PUSH0 DUP1 DUP4 DUP2 SLOAD DUP2 LT PUSH3 0x24A JUMPI PUSH3 0x249 PUSH3 0x728 JUMP JUMPDEST JUMPDEST SWAP1 PUSH0 MSTORE PUSH1 0x20 PUSH0 KECCAK256 ADD DUP3 DUP2 SLOAD DUP2 LT PUSH3 0x267 JUMPI PUSH3 0x266 PUSH3 0x728 JUMP JUMPDEST JUMPDEST SWAP1 PUSH0 MSTORE PUSH1 0x20 PUSH0 KECCAK256 SWAP1 PUSH1 0x20 SWAP2 DUP3 DUP3 DIV ADD SWAP2 SWAP1 MOD PUSH2 0x100 EXP DUP2 SLOAD DUP2 PUSH1 0xFF MUL NOT AND SWAP1 DUP4 PUSH0 SIGNEXTEND PUSH1 0xFF AND MUL OR SWAP1 SSTORE POP PUSH0 DUP3 GT DUP1 ISZERO PUSH3 0x2A0 JUMPI POP PUSH0 DUP2 GT JUMPDEST ISZERO PUSH3 0x321 JUMPI PUSH0 DUP1 PUSH1 0x1 DUP5 PUSH3 0x2B7 SWAP2 SWAP1 PUSH3 0x7E6 JUMP JUMPDEST DUP2 SLOAD DUP2 LT PUSH3 0x2CB JUMPI PUSH3 0x2CA PUSH3 0x728 JUMP JUMPDEST JUMPDEST SWAP1 PUSH0 MSTORE PUSH1 0x20 PUSH0 KECCAK256 ADD PUSH1 0x1 DUP4 PUSH3 0x2E2 SWAP2 SWAP1 PUSH3 0x7E6 JUMP JUMPDEST DUP2 SLOAD DUP2 LT PUSH3 0x2F6 JUMPI PUSH3 0x2F5 PUSH3 0x728 JUMP JUMPDEST JUMPDEST SWAP1 PUSH0 MSTORE PUSH1 0x20 PUSH0 KECCAK256 SWAP1 PUSH1 0x20 SWAP2 DUP3 DUP3 DIV ADD SWAP2 SWAP1 MOD PUSH2 0x100 EXP DUP2 SLOAD DUP2 PUSH1 0xFF MUL NOT AND SWAP1 DUP4 PUSH0 SIGNEXTEND PUSH1 0xFF AND MUL OR SWAP1 SSTORE POP JUMPDEST PUSH1 0x1 DUP1 SLOAD PUSH3 0x331 SWAP2 SWAP1 PUSH3 0x7E6 JUMP JUMPDEST DUP3 LT DUP1 ISZERO PUSH3 0x33F JUMPI POP PUSH0 DUP2 GT JUMPDEST ISZERO PUSH3 0x3C1 JUMPI PUSH1 0x1 PUSH0 PUSH1 0x1 DUP5 PUSH3 0x357 SWAP2 SWAP1 PUSH3 0x820 JUMP JUMPDEST DUP2 SLOAD DUP2 LT PUSH3 0x36B JUMPI PUSH3 0x36A PUSH3 0x728 JUMP JUMPDEST JUMPDEST SWAP1 PUSH0 MSTORE PUSH1 0x20 PUSH0 KECCAK256 ADD PUSH1 0x1 DUP4 PUSH3 0x382 SWAP2 SWAP1 PUSH3 0x7E6 JUMP JUMPDEST DUP2 SLOAD DUP2 LT PUSH3 0x396 JUMPI PUSH3 0x395 PUSH3 0x728 JUMP JUMPDEST JUMPDEST SWAP1 PUSH0 MSTORE PUSH1 0x20 PUSH0 KECCAK256 SWAP1 PUSH1 0x20 SWAP2 DUP3 DUP3 DIV ADD SWAP2 SWAP1 MOD PUSH2 0x100 EXP DUP2 SLOAD DUP2 PUSH1 0xFF MUL NOT AND SWAP1 DUP4 PUSH0 SIGNEXTEND PUSH1 0xFF AND MUL OR SWAP1 SSTORE POP JUMPDEST PUSH0 DUP3 GT DUP1 ISZERO PUSH3 0x3DF JUMPI POP PUSH1 0x1 DUP1 SLOAD PUSH3 0x3DC SWAP2 SWAP1 PUSH3 0x7E6 JUMP JUMPDEST DUP2 LT JUMPDEST ISZERO PUSH3 0x461 JUMPI PUSH1 0x1 PUSH0 PUSH1 0x1 DUP5 PUSH3 0x3F7 SWAP2 SWAP1 PUSH3 0x7E6 JUMP JUMPDEST DUP2 SLOAD DUP2 LT PUSH3 0x40B JUMPI PUSH3 0x40A PUSH3 0x728 JUMP JUMPDEST JUMPDEST SWAP1 PUSH0 MSTORE PUSH1 0x20 PUSH0 KECCAK256 ADD PUSH1 0x1 DUP4 PUSH3 0x422 SWAP2 SWAP1 PUSH3 0x820 JUMP JUMPDEST DUP2 SLOAD DUP2 LT PUSH3 0x436 JUMPI PUSH3 0x435 PUSH3 0x728 JUMP JUMPDEST JUMPDEST SWAP1 PUSH0 MSTORE PUSH1 0x20 PUSH0 KECCAK256 SWAP1 PUSH1 0x20 SWAP2 DUP3 DUP3 DIV ADD SWAP2 SWAP1 MOD PUSH2 0x100 EXP DUP2 SLOAD DUP2 PUSH1 0xFF MUL NOT AND SWAP1 DUP4 PUSH0 SIGNEXTEND PUSH1 0xFF AND MUL OR SWAP1 SSTORE POP JUMPDEST PUSH1 0x1 DUP1 SLOAD PUSH3 0x471 SWAP2 SWAP1 PUSH3 0x7E6 JUMP JUMPDEST DUP3 LT DUP1 ISZERO PUSH3 0x48E JUMPI POP PUSH1 0x1 DUP1 SLOAD PUSH3 0x48B SWAP2 SWAP1 PUSH3 0x7E6 JUMP JUMPDEST DUP2 LT JUMPDEST ISZERO PUSH3 0x510 JUMPI PUSH1 0x2 PUSH0 PUSH1 0x1 DUP5 PUSH3 0x4A6 SWAP2 SWAP1 PUSH3 0x820 JUMP JUMPDEST DUP2 SLOAD DUP2 LT PUSH3 0x4BA JUMPI PUSH3 0x4B9 PUSH3 0x728 JUMP JUMPDEST JUMPDEST SWAP1 PUSH0 MSTORE PUSH1 0x20 PUSH0 KECCAK256 ADD PUSH1 0x1 DUP4 PUSH3 0x4D1 SWAP2 SWAP1 PUSH3 0x820 JUMP JUMPDEST DUP2 SLOAD DUP2 LT PUSH3 0x4E5 JUMPI PUSH3 0x4E4 PUSH3 0x728 JUMP JUMPDEST JUMPDEST SWAP1 PUSH0 MSTORE PUSH1 0x20 PUSH0 KECCAK256 SWAP1 PUSH1 0x20 SWAP2 DUP3 DUP3 DIV ADD SWAP2 SWAP1 MOD PUSH2 0x100 EXP DUP2 SLOAD DUP2 PUSH1 0xFF MUL NOT AND SWAP1 DUP4 PUSH0 SIGNEXTEND PUSH1 0xFF AND MUL OR SWAP1 SSTORE POP JUMPDEST POP POP JUMP JUMPDEST DUP3 DUP1 SLOAD DUP3 DUP3 SSTORE SWAP1 PUSH0 MSTORE PUSH1 0x20 PUSH0 KECCAK256 SWAP1 DUP2 ADD SWAP3 DUP3 ISZERO PUSH3 0x566 JUMPI SWAP2 PUSH1 0x20 MUL DUP3 ADD JUMPDEST DUP3 DUP2 GT ISZERO PUSH3 0x565 JUMPI DUP3 MLOAD DUP3 SWAP1 DUP1 MLOAD SWAP1 PUSH1 0x20 ADD SWAP1 PUSH3 0x554 SWAP3 SWAP2 SWAP1 PUSH3 0x579 JUMP JUMPDEST POP SWAP2 PUSH1 0x20 ADD SWAP2 SWAP1 PUSH1 0x1 ADD SWAP1 PUSH3 0x533 JUMP JUMPDEST JUMPDEST POP SWAP1 POP PUSH3 0x575 SWAP2 SWAP1 PUSH3 0x624 JUMP JUMPDEST POP SWAP1 JUMP JUMPDEST DUP3 DUP1 SLOAD DUP3 DUP3 SSTORE SWAP1 PUSH0 MSTORE PUSH1 0x20 PUSH0 KECCAK256 SWAP1 PUSH1 0x1F ADD PUSH1 0x20 SWAP1 DIV DUP2 ADD SWAP3 DUP3 ISZERO PUSH3 0x611 JUMPI SWAP2 PUSH1 0x20 MUL DUP3 ADD PUSH0 JUMPDEST DUP4 DUP3 GT ISZERO PUSH3 0x5E1 JUMPI DUP4 MLOAD DUP4 DUP3 PUSH2 0x100 EXP DUP2 SLOAD DUP2 PUSH1 0xFF MUL NOT AND SWAP1 DUP4 PUSH0 SIGNEXTEND PUSH1 0xFF AND MUL OR SWAP1 SSTORE POP SWAP3 PUSH1 0x20 ADD SWAP3 PUSH1 0x1 ADD PUSH1 0x20 DUP2 PUSH0 ADD DIV SWAP3 DUP4 ADD SWAP3 PUSH1 0x1 SUB MUL PUSH3 0x5A0 JUMP JUMPDEST DUP1 ISZERO PUSH3 0x60F JUMPI DUP3 DUP2 PUSH2 0x100 EXP DUP2 SLOAD SWAP1 PUSH1 0xFF MUL NOT AND SWAP1 SSTORE PUSH1 0x1 ADD PUSH1 0x20 DUP2 PUSH0 ADD DIV SWAP3 DUP4 ADD SWAP3 PUSH1 0x1 SUB MUL PUSH3 0x5E1 JUMP JUMPDEST POP JUMPDEST POP SWAP1 POP PUSH3 0x620 SWAP2 SWAP1 PUSH3 0x64B JUMP JUMPDEST POP SWAP1 JUMP JUMPDEST JUMPDEST DUP1 DUP3 GT ISZERO PUSH3 0x647 JUMPI PUSH0 DUP2 DUP2 PUSH3 0x63D SWAP2 SWAP1 PUSH3 0x668 JUMP JUMPDEST POP PUSH1 0x1 ADD PUSH3 0x625 JUMP JUMPDEST POP SWAP1 JUMP JUMPDEST JUMPDEST DUP1 DUP3 GT ISZERO PUSH3 0x664 JUMPI PUSH0 DUP2 PUSH0 SWAP1 SSTORE POP PUSH1 0x1 ADD PUSH3 0x64C JUMP JUMPDEST POP SWAP1 JUMP JUMPDEST POP DUP1 SLOAD PUSH0 DUP3 SSTORE PUSH1 0x1F ADD PUSH1 0x20 SWAP1 DIV SWAP1 PUSH0 MSTORE PUSH1 0x20 PUSH0 KECCAK256 SWAP1 DUP2 ADD SWAP1 PUSH3 0x68C SWAP2 SWAP1 PUSH3 0x64B JUMP JUMPDEST POP JUMP JUMPDEST PUSH0 DUP1 REVERT JUMPDEST PUSH0 DUP2 SWAP1 POP SWAP2 SWAP1 POP JUMP JUMPDEST PUSH3 0x6A7 DUP2 PUSH3 0x693 JUMP JUMPDEST DUP2 EQ PUSH3 0x6B2 JUMPI PUSH0 DUP1 REVERT JUMPDEST POP JUMP JUMPDEST PUSH0 DUP2 MLOAD SWAP1 POP PUSH3 0x6C5 DUP2 PUSH3 0x69C JUMP JUMPDEST SWAP3 SWAP2 POP POP JUMP JUMPDEST PUSH0 PUSH1 0x20 DUP3 DUP5 SUB SLT ISZERO PUSH3 0x6E3 JUMPI PUSH3 0x6E2 PUSH3 0x68F JUMP JUMPDEST JUMPDEST PUSH0 PUSH3 0x6F2 DUP5 DUP3 DUP6 ADD PUSH3 0x6B5 JUMP JUMPDEST SWAP2 POP POP SWAP3 SWAP2 POP POP JUMP JUMPDEST PUSH32 0x4E487B7100000000000000000000000000000000000000000000000000000000 PUSH0 MSTORE PUSH1 0x41 PUSH1 0x4 MSTORE PUSH1 0x24 PUSH0 REVERT JUMPDEST PUSH32 0x4E487B7100000000000000000000000000000000000000000000000000000000 PUSH0 MSTORE PUSH1 0x32 PUSH1 0x4 MSTORE PUSH1 0x24 PUSH0 REVERT JUMPDEST PUSH32 0x4E487B7100000000000000000000000000000000000000000000000000000000 PUSH0 MSTORE PUSH1 0x12 PUSH1 0x4 MSTORE PUSH1 0x24 PUSH0 REVERT JUMPDEST PUSH32 0x4E487B7100000000000000000000000000000000000000000000000000000000 PUSH0 MSTORE PUSH1 0x11 PUSH1 0x4 MSTORE PUSH1 0x24 PUSH0 REVERT JUMPDEST PUSH0 PUSH3 0x7BB DUP3 PUSH3 0x693 JUMP JUMPDEST SWAP2 POP PUSH3 0x7C8 DUP4 PUSH3 0x693 JUMP JUMPDEST SWAP3 POP DUP3 PUSH3 0x7DB JUMPI PUSH3 0x7DA PUSH3 0x755 JUMP JUMPDEST JUMPDEST DUP3 DUP3 DIV SWAP1 POP SWAP3 SWAP2 POP POP JUMP JUMPDEST PUSH0 PUSH3 0x7F2 DUP3 PUSH3 0x693 JUMP JUMPDEST SWAP2 POP PUSH3 0x7FF DUP4 PUSH3 0x693 JUMP JUMPDEST SWAP3 POP DUP3 DUP3 SUB SWAP1 POP DUP2 DUP2 GT ISZERO PUSH3 0x81A JUMPI PUSH3 0x819 PUSH3 0x782 JUMP JUMPDEST JUMPDEST SWAP3 SWAP2 POP POP JUMP JUMPDEST PUSH0 PUSH3 0x82C DUP3 PUSH3 0x693 JUMP JUMPDEST SWAP2 POP PUSH3 0x839 DUP4 PUSH3 0x693 JUMP JUMPDEST SWAP3 POP DUP3 DUP3 ADD SWAP1 POP DUP1 DUP3 GT ISZERO PUSH3 0x854 JUMPI PUSH3 0x853 PUSH3 0x782 JUMP JUMPDEST JUMPDEST SWAP3 SWAP2 POP POP JUMP JUMPDEST PUSH2 0x44F DUP1 PUSH3 0x868 PUSH0 CODECOPY PUSH0 RETURN INVALID PUSH1 0x80 PUSH1 0x40 MSTORE CALLVALUE DUP1 ISZERO PUSH2 0xF JUMPI PUSH0 DUP1 REVERT JUMPDEST POP PUSH1 0x4 CALLDATASIZE LT PUSH2 0x3F JUMPI PUSH0 CALLDATALOAD PUSH1 0xE0 SHR DUP1 PUSH4 0x134000C0 EQ PUSH2 0x43 JUMPI DUP1 PUSH4 0x146008E3 EQ PUSH2 0x61 JUMPI DUP1 PUSH4 0x79F9607D EQ PUSH2 0x91 JUMPI JUMPDEST PUSH0 DUP1 REVERT JUMPDEST PUSH2 0x4B PUSH2 0xAF JUMP JUMPDEST PUSH1 0x40 MLOAD PUSH2 0x58 SWAP2 SWAP1 PUSH2 0x334 JUMP JUMPDEST PUSH1 0x40 MLOAD DUP1 SWAP2 SUB SWAP1 RETURN JUMPDEST PUSH2 0x7B PUSH1 0x4 DUP1 CALLDATASIZE SUB DUP2 ADD SWAP1 PUSH2 0x76 SWAP2 SWAP1 PUSH2 0x38B JUMP JUMPDEST PUSH2 0x16A JUMP JUMPDEST PUSH1 0x40 MLOAD PUSH2 0x88 SWAP2 SWAP1 PUSH2 0x3D8 JUMP JUMPDEST PUSH1 0x40 MLOAD DUP1 SWAP2 SUB SWAP1 RETURN JUMPDEST PUSH2 0x99 PUSH2 0x1B1 JUMP JUMPDEST PUSH1 0x40 MLOAD PUSH2 0xA6 SWAP2 SWAP1 PUSH2 0x400 JUMP JUMPDEST PUSH1 0x40 MLOAD DUP1 SWAP2 SUB SWAP1 RETURN JUMPDEST PUSH1 0x60 PUSH0 DUP1 SLOAD DUP1 PUSH1 0x20 MUL PUSH1 0x20 ADD PUSH1 0x40 MLOAD SWAP1 DUP2 ADD PUSH1 0x40 MSTORE DUP1 SWAP3 SWAP2 SWAP1 DUP2 DUP2 MSTORE PUSH1 0x20 ADD PUSH0 SWAP1 JUMPDEST DUP3 DUP3 LT ISZERO PUSH2 0x161 JUMPI DUP4 DUP3 SWAP1 PUSH0 MSTORE PUSH1 0x20 PUSH0 KECCAK256 ADD DUP1 SLOAD DUP1 PUSH1 0x20 MUL PUSH1 0x20 ADD PUSH1 0x40 MLOAD SWAP1 DUP2 ADD PUSH1 0x40 MSTORE DUP1 SWAP3 SWAP2 SWAP1 DUP2 DUP2 MSTORE PUSH1 0x20 ADD DUP3 DUP1 SLOAD DUP1 ISZERO PUSH2 0x14D JUMPI PUSH1 0x20 MUL DUP3 ADD SWAP2 SWAP1 PUSH0 MSTORE PUSH1 0x20 PUSH0 KECCAK256 SWAP1 PUSH0 SWAP1 JUMPDEST DUP3 DUP3 SWAP1 SLOAD SWAP1 PUSH2 0x100 EXP SWAP1 DIV PUSH0 SIGNEXTEND PUSH0 SIGNEXTEND DUP2 MSTORE PUSH1 0x20 ADD SWAP1 PUSH1 0x1 ADD SWAP1 PUSH1 0x20 DUP3 PUSH0 ADD DIV SWAP3 DUP4 ADD SWAP3 PUSH1 0x1 SUB DUP3 MUL SWAP2 POP DUP1 DUP5 GT PUSH2 0x119 JUMPI SWAP1 POP JUMPDEST POP POP POP POP POP DUP2 MSTORE PUSH1 0x20 ADD SWAP1 PUSH1 0x1 ADD SWAP1 PUSH2 0xD1 JUMP JUMPDEST POP POP POP POP SWAP1 POP SWAP1 JUMP JUMPDEST PUSH0 DUP3 DUP2 SLOAD DUP2 LT PUSH2 0x178 JUMPI PUSH0 DUP1 REVERT JUMPDEST SWAP1 PUSH0 MSTORE PUSH1 0x20 PUSH0 KECCAK256 ADD DUP2 DUP2 SLOAD DUP2 LT PUSH2 0x18D JUMPI PUSH0 DUP1 REVERT JUMPDEST SWAP1 PUSH0 MSTORE PUSH1 0x20 PUSH0 KECCAK256 SWAP1 PUSH1 0x20 SWAP2 DUP3 DUP3 DIV ADD SWAP2 SWAP1 MOD SWAP2 POP SWAP2 POP SWAP1 SLOAD SWAP1 PUSH2 0x100 EXP SWAP1 DIV PUSH0 SIGNEXTEND DUP2 JUMP JUMPDEST PUSH1 0x1 SLOAD DUP2 JUMP JUMPDEST PUSH0 DUP2 MLOAD SWAP1 POP SWAP2 SWAP1 POP JUMP JUMPDEST PUSH0 DUP3 DUP3 MSTORE PUSH1 0x20 DUP3 ADD SWAP1 POP SWAP3 SWAP2 POP POP JUMP JUMPDEST PUSH0 DUP2 SWAP1 POP PUSH1 0x20 DUP3 ADD SWAP1 POP SWAP2 SWAP1 POP JUMP JUMPDEST PUSH0 DUP2 MLOAD SWAP1 POP SWAP2 SWAP1 POP JUMP JUMPDEST PUSH0 DUP3 DUP3 MSTORE PUSH1 0x20 DUP3 ADD SWAP1 POP SWAP3 SWAP2 POP POP JUMP JUMPDEST PUSH0 DUP2 SWAP1 POP PUSH1 0x20 DUP3 ADD SWAP1 POP SWAP2 SWAP1 POP JUMP JUMPDEST PUSH0 DUP2 PUSH0 SIGNEXTEND SWAP1 POP SWAP2 SWAP1 POP JUMP JUMPDEST PUSH2 0x21D DUP2 PUSH2 0x209 JUMP JUMPDEST DUP3 MSTORE POP POP JUMP JUMPDEST PUSH0 PUSH2 0x22E DUP4 DUP4 PUSH2 0x214 JUMP JUMPDEST PUSH1 0x20 DUP4 ADD SWAP1 POP SWAP3 SWAP2 POP POP JUMP JUMPDEST PUSH0 PUSH1 0x20 DUP3 ADD SWAP1 POP SWAP2 SWAP1 POP JUMP JUMPDEST PUSH0 PUSH2 0x250 DUP3 PUSH2 0x1E0 JUMP JUMPDEST PUSH2 0x25A DUP2 DUP6 PUSH2 0x1EA JUMP JUMPDEST SWAP4 POP PUSH2 0x265 DUP4 PUSH2 0x1FA JUMP JUMPDEST DUP1 PUSH0 JUMPDEST DUP4 DUP2 LT ISZERO PUSH2 0x295 JUMPI DUP2 MLOAD PUSH2 0x27C DUP9 DUP3 PUSH2 0x223 JUMP JUMPDEST SWAP8 POP PUSH2 0x287 DUP4 PUSH2 0x23A JUMP JUMPDEST SWAP3 POP POP PUSH1 0x1 DUP2 ADD SWAP1 POP PUSH2 0x268 JUMP JUMPDEST POP DUP6 SWAP4 POP POP POP POP SWAP3 SWAP2 POP POP JUMP JUMPDEST PUSH0 PUSH2 0x2AD DUP4 DUP4 PUSH2 0x246 JUMP JUMPDEST SWAP1 POP SWAP3 SWAP2 POP POP JUMP JUMPDEST PUSH0 PUSH1 0x20 DUP3 ADD SWAP1 POP SWAP2 SWAP1 POP JUMP JUMPDEST PUSH0 PUSH2 0x2CB DUP3 PUSH2 0x1B7 JUMP JUMPDEST PUSH2 0x2D5 DUP2 DUP6 PUSH2 0x1C1 JUMP JUMPDEST SWAP4 POP DUP4 PUSH1 0x20 DUP3 MUL DUP6 ADD PUSH2 0x2E7 DUP6 PUSH2 0x1D1 JUMP JUMPDEST DUP1 PUSH0 JUMPDEST DUP6 DUP2 LT ISZERO PUSH2 0x322 JUMPI DUP5 DUP5 SUB DUP10 MSTORE DUP2 MLOAD PUSH2 0x303 DUP6 DUP3 PUSH2 0x2A2 JUMP JUMPDEST SWAP5 POP PUSH2 0x30E DUP4 PUSH2 0x2B5 JUMP JUMPDEST SWAP3 POP PUSH1 0x20 DUP11 ADD SWAP10 POP POP PUSH1 0x1 DUP2 ADD SWAP1 POP PUSH2 0x2EA JUMP JUMPDEST POP DUP3 SWAP8 POP DUP8 SWAP6 POP POP POP POP POP POP SWAP3 SWAP2 POP POP JUMP JUMPDEST PUSH0 PUSH1 0x20 DUP3 ADD SWAP1 POP DUP2 DUP2 SUB PUSH0 DUP4 ADD MSTORE PUSH2 0x34C DUP2 DUP5 PUSH2 0x2C1 JUMP JUMPDEST SWAP1 POP SWAP3 SWAP2 POP POP JUMP JUMPDEST PUSH0 DUP1 REVERT JUMPDEST PUSH0 DUP2 SWAP1 POP SWAP2 SWAP1 POP JUMP JUMPDEST PUSH2 0x36A DUP2 PUSH2 0x358 JUMP JUMPDEST DUP2 EQ PUSH2 0x374 JUMPI PUSH0 DUP1 REVERT JUMPDEST POP JUMP JUMPDEST PUSH0 DUP2 CALLDATALOAD SWAP1 POP PUSH2 0x385 DUP2 PUSH2 0x361 JUMP JUMPDEST SWAP3 SWAP2 POP POP JUMP JUMPDEST PUSH0 DUP1 PUSH1 0x40 DUP4 DUP6 SUB SLT ISZERO PUSH2 0x3A1 JUMPI PUSH2 0x3A0 PUSH2 0x354 JUMP JUMPDEST JUMPDEST PUSH0 PUSH2 0x3AE DUP6 DUP3 DUP7 ADD PUSH2 0x377 JUMP JUMPDEST SWAP3 POP POP PUSH1 0x20 PUSH2 0x3BF DUP6 DUP3 DUP7 ADD PUSH2 0x377 JUMP JUMPDEST SWAP2 POP POP SWAP3 POP SWAP3 SWAP1 POP JUMP JUMPDEST PUSH2 0x3D2 DUP2 PUSH2 0x209 JUMP JUMPDEST DUP3 MSTORE POP POP JUMP JUMPDEST PUSH0 PUSH1 0x20 DUP3 ADD SWAP1 POP PUSH2 0x3EB PUSH0 DUP4 ADD DUP5 PUSH2 0x3C9 JUMP JUMPDEST SWAP3 SWAP2 POP POP JUMP JUMPDEST PUSH2 0x3FA DUP2 PUSH2 0x358 JUMP JUMPDEST DUP3 MSTORE POP POP JUMP JUMPDEST PUSH0 PUSH1 0x20 DUP3 ADD SWAP1 POP PUSH2 0x413 PUSH0 DUP4 ADD DUP5 PUSH2 0x3F1 JUMP JUMPDEST SWAP3 SWAP2 POP POP JUMP INVALID LOG2 PUSH5 0x6970667358 0x22 SLT KECCAK256 PUSH25 0x76C685BF9E86243158CCF09AEF831DC72C552FC36FEE166BEE SLOAD PUSH5 0xE44120AB64 PUSH20 0x6F6C634300081700330000000000000000000000 "
		},
		"gasEstimates": {
			"creation": {
				"codeDepositCost": "220600",
				"executionCost": "infinite",
				"totalCost": "infinite"
			},
			"external": {
				"getGrid()": "infinite",
				"grid(uint256,uint256)": "infinite",
				"gridSize()": "2447"
			},
			"internal": {
				"generateIsland()": "infinite",
				"initializeGrid()": "infinite"
			}
		},
		"methodIdentifiers": {
			"getGrid()": "134000c0",
			"grid(uint256,uint256)": "146008e3",
			"gridSize()": "79f9607d"
		}
	},
	"abi": [
		{
			"inputs": [
				{
					"internalType": "uint256",
					"name": "_gridSize",
					"type": "uint256"
				}
			],
			"stateMutability": "nonpayable",
			"type": "constructor"
		},
		{
			"inputs": [],
			"name": "getGrid",
			"outputs": [
				{
					"internalType": "int8[][]",
					"name": "",
					"type": "int8[][]"
				}
			],
			"stateMutability": "view",
			"type": "function"
		},
		{
			"inputs": [
				{
					"internalType": "uint256",
					"name": "",
					"type": "uint256"
				},
				{
					"internalType": "uint256",
					"name": "",
					"type": "uint256"
				}
			],
			"name": "grid",
			"outputs": [
				{
					"internalType": "int8",
					"name": "",
					"type": "int8"
				}
			],
			"stateMutability": "view",
			"type": "function"
		},
		{
			"inputs": [],
			"name": "gridSize",
			"outputs": [
				{
					"internalType": "uint256",
					"name": "",
					"type": "uint256"
				}
			],
			"stateMutability": "view",
			"type": "function"
		}
	]
}