{
	"data": {
		"bytecode": {
			"linkReferences": {},
			"object": "60806040525f805f6101000a81548160ff0219169083151502179055505f6009555f600a5534801562000030575f80fd5b5060405162004fc038038062004fc0833981810160405281019062000056919062000696565b335f60016101000a81548173ffffffffffffffffffffffffffffffffffffffff021916908373ffffffffffffffffffffffffffffffffffffffff1602179055508260049081620000a791906200093c565b508160038190555080600281905550620000c6620000cf60201b60201c565b50505062000da3565b5f600354118015620000e257505f600254115b62000124576040517f08c379a00000000000000000000000000000000000000000000000000000000081526004016200011b9062000aa4565b60405180910390fd5b5f600260035462000136919062000b27565b90505f6002805462000149919062000b27565b90505f5b600354811015620001ad575f5b6002548110156200019e575f6200017a83838787620001b260201b60201c565b90506200018f838383620002e560201b60201c565b5080806001019150506200015a565b5080806001019150506200014d565b505050565b5f80620001d28386620001c6919062000b99565b6200047e60201b60201c565b620001f08588620001e4919062000b99565b6200047e60201b60201c565b620001fc919062000be0565b9050600281121562000213576005915050620002dd565b600481121562000228576004915050620002dd565b60068112156200023d576001915050620002dd565b5f60644244898960405160200162000259949392919062000c70565b604051602081830303815290604052805190602001205f1c6200027d919062000cc5565b905060148110156200029557600292505050620002dd565b6028811015620002ab57600392505050620002dd565b603c811015620002c157600492505050620002dd565b6050811015620002d757600192505050620002dd565b5f925050505b949350505050565b5f620002f88484620004a360201b60201c565b90506040518061010001604052805f73ffffffffffffffffffffffffffffffffffffffff1681526020015f81526020015f815260200183600581111562000344576200034362000cfc565b5b81526020015f73ffffffffffffffffffffffffffffffffffffffff1681526020014281526020018581526020018481525060065f8381526020019081526020015f205f820151815f015f6101000a81548173ffffffffffffffffffffffffffffffffffffffff021916908373ffffffffffffffffffffffffffffffffffffffff16021790555060208201518160010155604082015181600201556060820151816003015f6101000a81548160ff021916908360058111156200040b576200040a62000cfc565b5b021790555060808201518160030160016101000a81548173ffffffffffffffffffffffffffffffffffffffff021916908373ffffffffffffffffffffffffffffffffffffffff16021790555060a0820151816004015560c0820151816005015560e0820151816006015590505050505050565b5f808212156200049a5781620004949062000d29565b6200049c565b815b9050919050565b5f8282604051602001620004b992919062000d74565b604051602081830303815290604052805190602001205f1c905092915050565b5f604051905090565b5f80fd5b5f80fd5b5f80fd5b5f80fd5b5f601f19601f8301169050919050565b7f4e487b71000000000000000000000000000000000000000000000000000000005f52604160045260245ffd5b6200053a82620004f2565b810181811067ffffffffffffffff821117156200055c576200055b62000502565b5b80604052505050565b5f62000570620004d9565b90506200057e82826200052f565b919050565b5f67ffffffffffffffff821115620005a0576200059f62000502565b5b620005ab82620004f2565b9050602081019050919050565b5f5b83811015620005d7578082015181840152602081019050620005ba565b5f8484015250505050565b5f620005f8620005f28462000583565b62000565565b905082815260208101848484011115620006175762000616620004ee565b5b62000624848285620005b8565b509392505050565b5f82601f830112620006435762000642620004ea565b5b815162000655848260208601620005e2565b91505092915050565b5f819050919050565b62000672816200065e565b81146200067d575f80fd5b50565b5f81519050620006908162000667565b92915050565b5f805f60608486031215620006b057620006af620004e2565b5b5f84015167ffffffffffffffff811115620006d057620006cf620004e6565b5b620006de868287016200062c565b9350506020620006f18682870162000680565b9250506040620007048682870162000680565b9150509250925092565b5f81519050919050565b7f4e487b71000000000000000000000000000000000000000000000000000000005f52602260045260245ffd5b5f60028204905060018216806200075d57607f821691505b60208210810362000773576200077262000718565b5b50919050565b5f819050815f5260205f209050919050565b5f6020601f8301049050919050565b5f82821b905092915050565b5f60088302620007d77fffffffffffffffffffffffffffffffffffffffffffffffffffffffffffffffff826200079a565b620007e386836200079a565b95508019841693508086168417925050509392505050565b5f819050919050565b5f620008246200081e62000818846200065e565b620007fb565b6200065e565b9050919050565b5f819050919050565b6200083f8362000804565b620008576200084e826200082b565b848454620007a6565b825550505050565b5f90565b6200086d6200085f565b6200087a81848462000834565b505050565b5b81811015620008a157620008955f8262000863565b60018101905062000880565b5050565b601f821115620008f057620008ba8162000779565b620008c5846200078b565b81016020851015620008d5578190505b620008ed620008e4856200078b565b8301826200087f565b50505b505050565b5f82821c905092915050565b5f620009125f1984600802620008f5565b1980831691505092915050565b5f6200092c838362000901565b9150826002028217905092915050565b62000947826200070e565b67ffffffffffffffff81111562000963576200096262000502565b5b6200096f825462000745565b6200097c828285620008a5565b5f60209050601f831160018114620009b2575f84156200099d578287015190505b620009a985826200091f565b86555062000a18565b601f198416620009c28662000779565b5f5b82811015620009eb57848901518255600182019150602085019450602081019050620009c4565b8683101562000a0b578489015162000a07601f89168262000901565b8355505b6001600288020188555050505b505050505050565b5f82825260208201905092915050565b7f477269642064696d656e73696f6e73206d7573742062652067726561746572205f8201527f7468616e207a65726f0000000000000000000000000000000000000000000000602082015250565b5f62000a8c60298362000a20565b915062000a998262000a30565b604082019050919050565b5f6020820190508181035f83015262000abd8162000a7e565b9050919050565b5f819050919050565b7f4e487b71000000000000000000000000000000000000000000000000000000005f52601260045260245ffd5b7f4e487b71000000000000000000000000000000000000000000000000000000005f52601160045260245ffd5b5f62000b338262000ac4565b915062000b408362000ac4565b92508262000b535762000b5262000acd565b5b60015f0383147f80000000000000000000000000000000000000000000000000000000000000008314161562000b8e5762000b8d62000afa565b5b828205905092915050565b5f62000ba58262000ac4565b915062000bb28362000ac4565b925082820390508181125f8412168282135f85121516171562000bda5762000bd962000afa565b5b92915050565b5f62000bec8262000ac4565b915062000bf98362000ac4565b92508282019050828112155f8312168382125f84121516171562000c225762000c2162000afa565b5b92915050565b5f819050919050565b62000c4662000c40826200065e565b62000c28565b82525050565b5f819050919050565b62000c6a62000c648262000ac4565b62000c4c565b82525050565b5f62000c7d828762000c31565b60208201915062000c8f828662000c31565b60208201915062000ca1828562000c55565b60208201915062000cb3828462000c55565b60208201915081905095945050505050565b5f62000cd1826200065e565b915062000cde836200065e565b92508262000cf15762000cf062000acd565b5b828206905092915050565b7f4e487b71000000000000000000000000000000000000000000000000000000005f52602160045260245ffd5b5f62000d358262000ac4565b91507f8000000000000000000000000000000000000000000000000000000000000000820362000d6a5762000d6962000afa565b5b815f039050919050565b5f62000d81828562000c31565b60208201915062000d93828462000c31565b6020820191508190509392505050565b61420f8062000db15f395ff3fe608060405260043610610134575f3560e01c806376e5bb59116100aa578063c13368711161006e578063c1336871146103a9578063d9cf6a26146103e5578063e12e99a21461040f578063e18c3c5614610437578063e3824e2114610473578063fbec6f211461049b57610134565b806376e5bb59146102ef57806396f61c11146103195780639c2815821461032f5780639df5a2d01461036b578063b7f685f91461038157610134565b80632c725df8116100fc5780632c725df8146102075780632f7b8af41461023157806340f77b311461023b578063511a8861146102635780636312974b1461028b578063704044dc146102b357610134565b8063030d11f614610138578063199f6403146101625780631c4718e91461018a5780631d16f2b7146101b257806322eb20a3146101dc575b5f80fd5b348015610143575f80fd5b5061014c6104c5565b60405161015991906129c5565b60405180910390f35b34801561016d575f80fd5b5061018860048036038101906101839190612a20565b610570565b005b348015610195575f80fd5b506101b060048036038101906101ab9190612a7e565b6106a8565b005b3480156101bd575f80fd5b506101c66109c2565b6040516101d39190612ab8565b60405180910390f35b3480156101e7575f80fd5b506101f06109e7565b6040516101fe929190612ae0565b60405180910390f35b348015610212575f80fd5b5061021b6109f7565b60405161022891906129c5565b60405180910390f35b610239610aa2565b005b348015610246575f80fd5b50610261600480360381019061025c9190612a7e565b610b53565b005b34801561026e575f80fd5b5061028960048036038101906102849190612b07565b611122565b005b348015610296575f80fd5b506102b160048036038101906102ac9190612c95565b6111db565b005b3480156102be575f80fd5b506102d960048036038101906102d49190612a7e565b6112fa565b6040516102e69190612ab8565b60405180910390f35b3480156102fa575f80fd5b50610303611335565b6040516103109190612ea7565b60405180910390f35b348015610324575f80fd5b5061032d611502565b005b34801561033a575f80fd5b5061035560048036038101906103509190612b07565b6115c9565b6040516103629190612f67565b60405180910390f35b348015610376575f80fd5b5061037f611715565b005b34801561038c575f80fd5b506103a760048036038101906103a291906132b2565b6118c1565b005b3480156103b4575f80fd5b506103cf60048036038101906103ca9190612a7e565b611a8e565b6040516103dc919061342e565b60405180910390f35b3480156103f0575f80fd5b506103f9611eff565b6040516104069190613629565b60405180910390f35b34801561041a575f80fd5b5061043560048036038101906104309190613649565b612092565b005b348015610442575f80fd5b5061045d60048036038101906104589190612a7e565b612306565b60405161046a9190613687565b60405180910390f35b34801561047e575f80fd5b5061049960048036038101906104949190612c95565b6123a5565b005b3480156104a6575f80fd5b506104af6124c4565b6040516104bc9190612ab8565b60405180910390f35b60605f5b60078054905081101561056c57600781815481106104ea576104e96136a0565b5b905f5260205f20015f9054906101000a900473ffffffffffffffffffffffffffffffffffffffff16828281518110610525576105246136a0565b5b602002602001019073ffffffffffffffffffffffffffffffffffffffff16908173ffffffffffffffffffffffffffffffffffffffff168152505080806001019150506104c9565b5090565b5f60019054906101000a900473ffffffffffffffffffffffffffffffffffffffff1673ffffffffffffffffffffffffffffffffffffffff163373ffffffffffffffffffffffffffffffffffffffff16146105ff576040517f08c379a00000000000000000000000000000000000000000000000000000000081526004016105f690613727565b60405180910390fd5b5f8054906101000a900460ff161561064c576040517f08c379a00000000000000000000000000000000000000000000000000000000081526004016106439061378f565b60405180910390fd5b8060015f6101000a81548173ffffffffffffffffffffffffffffffffffffffff021916908373ffffffffffffffffffffffffffffffffffffffff16021790555060015f806101000a81548160ff02191690831515021790555050565b5f60015f9054906101000a900473ffffffffffffffffffffffffffffffffffffffff1690505f73ffffffffffffffffffffffffffffffffffffffff1660065f8481526020019081526020015f205f015f9054906101000a900473ffffffffffffffffffffffffffffffffffffffff1673ffffffffffffffffffffffffffffffffffffffff1603610804578073ffffffffffffffffffffffffffffffffffffffff16639dc29fac3360065f8681526020019081526020015f20600101546040518363ffffffff1660e01b81526004016107819291906137ad565b5f604051808303815f87803b158015610798575f80fd5b505af11580156107aa573d5f803e3d5ffd5b505050503360065f8481526020019081526020015f205f015f6101000a81548173ffffffffffffffffffffffffffffffffffffffff021916908373ffffffffffffffffffffffffffffffffffffffff1602179055506109be565b5f73ffffffffffffffffffffffffffffffffffffffff1660065f8481526020019081526020015f205f015f9054906101000a900473ffffffffffffffffffffffffffffffffffffffff1673ffffffffffffffffffffffffffffffffffffffff161461098b575f8173ffffffffffffffffffffffffffffffffffffffff1663a9059cbb60065f8681526020019081526020015f205f015f9054906101000a900473ffffffffffffffffffffffffffffffffffffffff1660065f8781526020019081526020015f20600201546040518363ffffffff1660e01b81526004016108eb9291906137ad565b6020604051808303815f875af1158015610907573d5f803e3d5ffd5b505050506040513d601f19601f8201168201806040525081019061092b9190613809565b90508015610985573360065f8581526020019081526020015f205f015f6101000a81548173ffffffffffffffffffffffffffffffffffffffff021916908373ffffffffffffffffffffffffffffffffffffffff1602179055505b506109bd565b6040517f1ab7ae5600000000000000000000000000000000000000000000000000000000815260040160405180910390fd5b5b5050565b5f60019054906101000a900473ffffffffffffffffffffffffffffffffffffffff1681565b5f80600254600354915091509091565b60605f5b600880549050811015610a9e5760088181548110610a1c57610a1b6136a0565b5b905f5260205f20015f9054906101000a900473ffffffffffffffffffffffffffffffffffffffff16828281518110610a5757610a566136a0565b5b602002602001019073ffffffffffffffffffffffffffffffffffffffff16908173ffffffffffffffffffffffffffffffffffffffff168152505080806001019150506109fb565b5090565b5f60015f9054906101000a900473ffffffffffffffffffffffffffffffffffffffff1690508073ffffffffffffffffffffffffffffffffffffffff166340c10f1933670de0b6b3a7640000620186a034610afc9190613861565b610b0691906138cf565b6040518363ffffffff1660e01b8152600401610b239291906137ad565b5f604051808303815f87803b158015610b3a575f80fd5b505af1158015610b4c573d5f803e3d5ffd5b5050505050565b3373ffffffffffffffffffffffffffffffffffffffff1660065f8381526020019081526020015f205f015f9054906101000a900473ffffffffffffffffffffffffffffffffffffffff1673ffffffffffffffffffffffffffffffffffffffff1614610bf3576040517f08c379a0000000000000000000000000000000000000000000000000000000008152600401610bea90613949565b60405180910390fd5b5f73ffffffffffffffffffffffffffffffffffffffff1660065f8381526020019081526020015f2060030160019054906101000a900473ffffffffffffffffffffffffffffffffffffffff1673ffffffffffffffffffffffffffffffffffffffff1603610c95576040517f08c379a0000000000000000000000000000000000000000000000000000000008152600401610c8c906139b1565b60405180910390fd5b5f60065f8381526020019081526020015f2060030160019054906101000a900473ffffffffffffffffffffffffffffffffffffffff1690505f8173ffffffffffffffffffffffffffffffffffffffff1663483614906040518163ffffffff1660e01b81526004015f60405180830381865afa158015610d16573d5f803e3d5ffd5b505050506040513d5f823e3d601f19601f82011682018060405250810190610d3e9190613b08565b90505f8273ffffffffffffffffffffffffffffffffffffffff1663737d6a6c6040518163ffffffff1660e01b81526004015f60405180830381865afa158015610d89573d5f803e3d5ffd5b505050506040513d5f823e3d601f19601f82011682018060405250810190610db19190613b08565b90505f805b8351811015610f3f575f848281518110610dd357610dd26136a0565b5b60200260200101515f01519050848281518110610df357610df26136a0565b5b6020026020010151602001518173ffffffffffffffffffffffffffffffffffffffff166370a08231336040518263ffffffff1660e01b8152600401610e389190612ab8565b602060405180830381865afa158015610e53573d5f803e3d5ffd5b505050506040513d601f19601f82011682018060405250810190610e779190613b4f565b610e8191906138cf565b8310610f2d57848281518110610e9a57610e996136a0565b5b6020026020010151602001518173ffffffffffffffffffffffffffffffffffffffff166370a08231336040518263ffffffff1660e01b8152600401610edf9190612ab8565b602060405180830381865afa158015610efa573d5f803e3d5ffd5b505050506040513d601f19601f82011682018060405250810190610f1e9190613b4f565b610f2891906138cf565b610f2f565b825b9250508080600101915050610db6565b505f600a60065f8881526020019081526020015f206004015443610f639190613b7a565b610f6d91906138cf565b90505f818310610f7d5781610f7f565b825b90505f5b855181101561104c575f868281518110610fa057610f9f6136a0565b5b60200260200101515f015190508073ffffffffffffffffffffffffffffffffffffffff16639dc29fac33898581518110610fdd57610fdc6136a0565b5b60200260200101516020015186610ff49190613861565b6040518363ffffffff1660e01b81526004016110119291906137ad565b5f604051808303815f87803b158015611028575f80fd5b505af115801561103a573d5f803e3d5ffd5b50505050508080600101915050610f83565b505f5b8451811015611118575f85828151811061106c5761106b6136a0565b5b60200260200101515f015190508073ffffffffffffffffffffffffffffffffffffffff166340c10f19338885815181106110a9576110a86136a0565b5b602002602001015160200151866110c09190613861565b6040518363ffffffff1660e01b81526004016110dd9291906137ad565b5f604051808303815f87803b1580156110f4575f80fd5b505af1158015611106573d5f803e3d5ffd5b5050505050808060010191505061104f565b5050505050505050565b3373ffffffffffffffffffffffffffffffffffffffff1660065f8381526020019081526020015f205f015f9054906101000a900473ffffffffffffffffffffffffffffffffffffffff1673ffffffffffffffffffffffffffffffffffffffff16036111a5578160065f8381526020019081526020015f20600201819055506111d7565b6040517f3d693ada00000000000000000000000000000000000000000000000000000000815260040160405180910390fd5b5050565b5f60019054906101000a900473ffffffffffffffffffffffffffffffffffffffff1673ffffffffffffffffffffffffffffffffffffffff163373ffffffffffffffffffffffffffffffffffffffff161461126a576040517f08c379a000000000000000000000000000000000000000000000000000000000815260040161126190613727565b60405180910390fd5b5f5b81518110156112f657818181518110611288576112876136a0565b5b6020026020010151600882815481106112a4576112a36136a0565b5b905f5260205f20015f6101000a81548173ffffffffffffffffffffffffffffffffffffffff021916908373ffffffffffffffffffffffffffffffffffffffff160217905550808060010191505061126c565b5050565b5f60065f8381526020019081526020015f205f015f9054906101000a900473ffffffffffffffffffffffffffffffffffffffff169050919050565b60605f60095467ffffffffffffffff81111561135457611353612b59565b5b60405190808252806020026020018201604052801561138d57816020015b61137a6127d4565b8152602001906001900390816113725790505b5090505f5b6009548110156114fa5760065f8281526020019081526020015f20604051806101000160405290815f82015f9054906101000a900473ffffffffffffffffffffffffffffffffffffffff1673ffffffffffffffffffffffffffffffffffffffff1673ffffffffffffffffffffffffffffffffffffffff1681526020016001820154815260200160028201548152602001600382015f9054906101000a900460ff16600581111561144557611444612d14565b5b600581111561145757611456612d14565b5b81526020016003820160019054906101000a900473ffffffffffffffffffffffffffffffffffffffff1673ffffffffffffffffffffffffffffffffffffffff1673ffffffffffffffffffffffffffffffffffffffff16815260200160048201548152602001600582015481526020016006820154815250508282815181106114e2576114e16136a0565b5b60200260200101819052508080600101915050611392565b508091505090565b5f60035411801561151457505f600254115b611553576040517f08c379a000000000000000000000000000000000000000000000000000000000815260040161154a90613c1d565b60405180910390fd5b5f60026003546115639190613c44565b90505f600280546115749190613c44565b90505f5b6003548110156115c4575f5b6002548110156115b6575f61159b838387876124e9565b90506115a88383836125f4565b508080600101915050611584565b508080600101915050611578565b505050565b6115d16127d4565b60065f6115de858561277f565b81526020019081526020015f20604051806101000160405290815f82015f9054906101000a900473ffffffffffffffffffffffffffffffffffffffff1673ffffffffffffffffffffffffffffffffffffffff1673ffffffffffffffffffffffffffffffffffffffff1681526020016001820154815260200160028201548152602001600382015f9054906101000a900460ff16600581111561168357611682612d14565b5b600581111561169557611694612d14565b5b81526020016003820160019054906101000a900473ffffffffffffffffffffffffffffffffffffffff1673ffffffffffffffffffffffffffffffffffffffff1673ffffffffffffffffffffffffffffffffffffffff1681526020016004820154815260200160058201548152602001600682015481525050905092915050565b3373ffffffffffffffffffffffffffffffffffffffff165f60019054906101000a900473ffffffffffffffffffffffffffffffffffffffff1673ffffffffffffffffffffffffffffffffffffffff16146117a4576040517f08c379a000000000000000000000000000000000000000000000000000000000815260040161179b90613727565b60405180910390fd5b5f5b6009548110156118535760065f8281526020019081526020015f205f8082015f6101000a81549073ffffffffffffffffffffffffffffffffffffffff0219169055600182015f9055600282015f9055600382015f6101000a81549060ff02191690556003820160016101000a81549073ffffffffffffffffffffffffffffffffffffffff0219169055600482015f9055600582015f9055600682015f9055505080806001019150506117a6565b505f6009819055505f5b600a548110156118b75760055f8281526020019081526020015f205f8082015f6101000a81549060ff0219169055600182015f61189a919061284f565b600282015f9055600382015f90555050808060010191505061185d565b505f600a81905550565b5f60019054906101000a900473ffffffffffffffffffffffffffffffffffffffff1673ffffffffffffffffffffffffffffffffffffffff163373ffffffffffffffffffffffffffffffffffffffff1614611950576040517f08c379a000000000000000000000000000000000000000000000000000000000815260040161194790613727565b60405180910390fd5b5f5b8451811015611a87576040518060800160405280868381518110611979576119786136a0565b5b6020026020010151600481111561199357611992612d14565b5b81526020018583815181106119ab576119aa6136a0565b5b602002602001015181526020018483815181106119cb576119ca6136a0565b5b602002602001015181526020018383815181106119eb576119ea6136a0565b5b602002602001015181525060055f600a5481526020019081526020015f205f820151815f015f6101000a81548160ff02191690836004811115611a3157611a30612d14565b5b02179055506020820151816001019081611a4b9190613ea6565b506040820151816002015560608201518160030155905050600a5f815480929190611a7590613f75565b91905055508080600101915050611952565b5050505050565b60603373ffffffffffffffffffffffffffffffffffffffff1660065f8481526020019081526020015f205f015f9054906101000a900473ffffffffffffffffffffffffffffffffffffffff1673ffffffffffffffffffffffffffffffffffffffff1614611b30576040517f08c379a0000000000000000000000000000000000000000000000000000000008152600401611b2790613949565b60405180910390fd5b5f73ffffffffffffffffffffffffffffffffffffffff1660065f8481526020019081526020015f2060030160019054906101000a900473ffffffffffffffffffffffffffffffffffffffff1673ffffffffffffffffffffffffffffffffffffffff1603611bd2576040517f08c379a0000000000000000000000000000000000000000000000000000000008152600401611bc9906139b1565b60405180910390fd5b5f60065f8481526020019081526020015f2060030160019054906101000a900473ffffffffffffffffffffffffffffffffffffffff1690505f8173ffffffffffffffffffffffffffffffffffffffff1663483614906040518163ffffffff1660e01b81526004015f60405180830381865afa158015611c53573d5f803e3d5ffd5b505050506040513d5f823e3d601f19601f82011682018060405250810190611c7b9190613b08565b90505f8273ffffffffffffffffffffffffffffffffffffffff1663737d6a6c6040518163ffffffff1660e01b81526004015f60405180830381865afa158015611cc6573d5f803e3d5ffd5b505050506040513d5f823e3d601f19601f82011682018060405250810190611cee9190613b08565b90505f7fffffffffffffffffffffffffffffffffffffffffffffffffffffffffffffffff90505f5b8351811015611dff575f848281518110611d3357611d326136a0565b5b60200260200101515f015190505f858381518110611d5457611d536136a0565b5b6020026020010151602001518273ffffffffffffffffffffffffffffffffffffffff166370a08231336040518263ffffffff1660e01b8152600401611d999190612ab8565b602060405180830381865afa158015611db4573d5f803e3d5ffd5b505050506040513d601f19601f82011682018060405250810190611dd89190613b4f565b611de291906138cf565b905083811015611df0578093505b50508080600101915050611d16565b505f600a60065f8981526020019081526020015f206004015443611e239190613b7a565b611e2d91906138cf565b90505f818310611e3d5781611e3f565b825b90505f845167ffffffffffffffff811115611e5d57611e5c612b59565b5b604051908082528060200260200182016040528015611e8b5781602001602082028036833780820191505090505b5090505f5b8551811015611eef57858181518110611eac57611eab6136a0565b5b60200260200101516020015183611ec39190613861565b828281518110611ed657611ed56136a0565b5b6020026020010181815250508080600101915050611e90565b5080975050505050505050919050565b60605f600a5467ffffffffffffffff811115611f1e57611f1d612b59565b5b604051908082528060200260200182016040528015611f5757816020015b611f4461288c565b815260200190600190039081611f3c5790505b5090505f5b600a5481101561208a5760055f8281526020019081526020015f206040518060800160405290815f82015f9054906101000a900460ff166004811115611fa557611fa4612d14565b5b6004811115611fb757611fb6612d14565b5b8152602001600182018054611fcb90613cd9565b80601f0160208091040260200160405190810160405280929190818152602001828054611ff790613cd9565b80156120425780601f1061201957610100808354040283529160200191612042565b820191905f5260205f20905b81548152906001019060200180831161202557829003601f168201915b5050505050815260200160028201548152602001600382015481525050828281518110612072576120716136a0565b5b60200260200101819052508080600101915050611f5c565b508091505090565b5f8190508073ffffffffffffffffffffffffffffffffffffffff166363a2b02b6040518163ffffffff1660e01b8152600401602060405180830381865afa1580156120df573d5f803e3d5ffd5b505050506040513d601f19601f820116820180604052508101906121039190613809565b15612179578160065f8581526020019081526020015f2060030160016101000a81548173ffffffffffffffffffffffffffffffffffffffff021916908373ffffffffffffffffffffffffffffffffffffffff1602179055504360065f8581526020019081526020015f2060040181905550612301565b3373ffffffffffffffffffffffffffffffffffffffff1660065f8581526020019081526020015f205f015f9054906101000a900473ffffffffffffffffffffffffffffffffffffffff1673ffffffffffffffffffffffffffffffffffffffff16036122ce578073ffffffffffffffffffffffffffffffffffffffff166323b872dd333060016040518463ffffffff1660e01b815260040161221c93929190613ff5565b6020604051808303815f875af1158015612238573d5f803e3d5ffd5b505050506040513d601f19601f8201168201806040525081019061225c9190613809565b508160065f8581526020019081526020015f2060030160016101000a81548173ffffffffffffffffffffffffffffffffffffffff021916908373ffffffffffffffffffffffffffffffffffffffff1602179055504360065f8581526020019081526020015f2060040181905550612300565b6040517f3d693ada00000000000000000000000000000000000000000000000000000000815260040160405180910390fd5b5b505050565b5f8073ffffffffffffffffffffffffffffffffffffffff1660065f8481526020019081526020015f205f015f9054906101000a900473ffffffffffffffffffffffffffffffffffffffff1673ffffffffffffffffffffffffffffffffffffffff16036123885760065f8381526020019081526020015f206001015490506123a0565b60065f8381526020019081526020015f206002015490505b919050565b5f60019054906101000a900473ffffffffffffffffffffffffffffffffffffffff1673ffffffffffffffffffffffffffffffffffffffff163373ffffffffffffffffffffffffffffffffffffffff1614612434576040517f08c379a000000000000000000000000000000000000000000000000000000000815260040161242b90613727565b60405180910390fd5b5f5b81518110156124c057818181518110612452576124516136a0565b5b60200260200101516007828154811061246e5761246d6136a0565b5b905f5260205f20015f6101000a81548173ffffffffffffffffffffffffffffffffffffffff021916908373ffffffffffffffffffffffffffffffffffffffff1602179055508080600101915050612436565b5050565b60015f9054906101000a900473ffffffffffffffffffffffffffffffffffffffff1681565b5f806124ff83866124fa919061402a565b6127b3565b612513858861250e919061402a565b6127b3565b61251d919061406a565b905060028112156125325760059150506125ec565b60048112156125455760049150506125ec565b60068112156125585760019150506125ec565b5f60644244898960405160200161257294939291906140eb565b604051602081830303815290604052805190602001205f1c6125949190614138565b905060148110156125aa576002925050506125ec565b60288110156125be576003925050506125ec565b603c8110156125d2576004925050506125ec565b60508110156125e6576001925050506125ec565b5f925050505b949350505050565b5f6125ff848461277f565b90506040518061010001604052805f73ffffffffffffffffffffffffffffffffffffffff1681526020015f81526020015f815260200183600581111561264857612647612d14565b5b81526020015f73ffffffffffffffffffffffffffffffffffffffff1681526020014281526020018581526020018481525060065f8381526020019081526020015f205f820151815f015f6101000a81548173ffffffffffffffffffffffffffffffffffffffff021916908373ffffffffffffffffffffffffffffffffffffffff16021790555060208201518160010155604082015181600201556060820151816003015f6101000a81548160ff0219169083600581111561270c5761270b612d14565b5b021790555060808201518160030160016101000a81548173ffffffffffffffffffffffffffffffffffffffff021916908373ffffffffffffffffffffffffffffffffffffffff16021790555060a0820151816004015560c0820151816005015560e0820151816006015590505050505050565b5f8282604051602001612793929190614168565b604051602081830303815290604052805190602001205f1c905092915050565b5f808212156127cb57816127c690614193565b6127cd565b815b9050919050565b6040518061010001604052805f73ffffffffffffffffffffffffffffffffffffffff1681526020015f81526020015f81526020015f600581111561281b5761281a612d14565b5b81526020015f73ffffffffffffffffffffffffffffffffffffffff1681526020015f81526020015f81526020015f81525090565b50805461285b90613cd9565b5f825580601f1061286c5750612889565b601f0160209004905f5260205f209081019061288891906128c3565b5b50565b60405180608001604052805f60048111156128aa576128a9612d14565b5b8152602001606081526020015f81526020015f81525090565b5b808211156128da575f815f9055506001016128c4565b5090565b5f81519050919050565b5f82825260208201905092915050565b5f819050602082019050919050565b5f73ffffffffffffffffffffffffffffffffffffffff82169050919050565b5f61293082612907565b9050919050565b61294081612926565b82525050565b5f6129518383612937565b60208301905092915050565b5f602082019050919050565b5f612973826128de565b61297d81856128e8565b9350612988836128f8565b805f5b838110156129b857815161299f8882612946565b97506129aa8361295d565b92505060018101905061298b565b5085935050505092915050565b5f6020820190508181035f8301526129dd8184612969565b905092915050565b5f604051905090565b5f80fd5b5f80fd5b6129ff81612926565b8114612a09575f80fd5b50565b5f81359050612a1a816129f6565b92915050565b5f60208284031215612a3557612a346129ee565b5b5f612a4284828501612a0c565b91505092915050565b5f819050919050565b612a5d81612a4b565b8114612a67575f80fd5b50565b5f81359050612a7881612a54565b92915050565b5f60208284031215612a9357612a926129ee565b5b5f612aa084828501612a6a565b91505092915050565b612ab281612926565b82525050565b5f602082019050612acb5f830184612aa9565b92915050565b612ada81612a4b565b82525050565b5f604082019050612af35f830185612ad1565b612b006020830184612ad1565b9392505050565b5f8060408385031215612b1d57612b1c6129ee565b5b5f612b2a85828601612a6a565b9250506020612b3b85828601612a6a565b9150509250929050565b5f80fd5b5f601f19601f8301169050919050565b7f4e487b71000000000000000000000000000000000000000000000000000000005f52604160045260245ffd5b612b8f82612b49565b810181811067ffffffffffffffff82111715612bae57612bad612b59565b5b80604052505050565b5f612bc06129e5565b9050612bcc8282612b86565b919050565b5f67ffffffffffffffff821115612beb57612bea612b59565b5b602082029050602081019050919050565b5f80fd5b5f612c12612c0d84612bd1565b612bb7565b90508083825260208201905060208402830185811115612c3557612c34612bfc565b5b835b81811015612c5e5780612c4a8882612a0c565b845260208401935050602081019050612c37565b5050509392505050565b5f82601f830112612c7c57612c7b612b45565b5b8135612c8c848260208601612c00565b91505092915050565b5f60208284031215612caa57612ca96129ee565b5b5f82013567ffffffffffffffff811115612cc757612cc66129f2565b5b612cd384828501612c68565b91505092915050565b5f81519050919050565b5f82825260208201905092915050565b5f819050602082019050919050565b612d0e81612a4b565b82525050565b7f4e487b71000000000000000000000000000000000000000000000000000000005f52602160045260245ffd5b60068110612d5257612d51612d14565b5b50565b5f819050612d6282612d41565b919050565b5f612d7182612d55565b9050919050565b612d8181612d67565b82525050565b61010082015f820151612d9c5f850182612937565b506020820151612daf6020850182612d05565b506040820151612dc26040850182612d05565b506060820151612dd56060850182612d78565b506080820151612de86080850182612937565b5060a0820151612dfb60a0850182612d05565b5060c0820151612e0e60c0850182612d05565b5060e0820151612e2160e0850182612d05565b50505050565b5f612e328383612d87565b6101008301905092915050565b5f602082019050919050565b5f612e5582612cdc565b612e5f8185612ce6565b9350612e6a83612cf6565b805f5b83811015612e9a578151612e818882612e27565b9750612e8c83612e3f565b925050600181019050612e6d565b5085935050505092915050565b5f6020820190508181035f830152612ebf8184612e4b565b905092915050565b61010082015f820151612edc5f850182612937565b506020820151612eef6020850182612d05565b506040820151612f026040850182612d05565b506060820151612f156060850182612d78565b506080820151612f286080850182612937565b5060a0820151612f3b60a0850182612d05565b5060c0820151612f4e60c0850182612d05565b5060e0820151612f6160e0850182612d05565b50505050565b5f61010082019050612f7b5f830184612ec7565b92915050565b5f67ffffffffffffffff821115612f9b57612f9a612b59565b5b602082029050602081019050919050565b60058110612fb8575f80fd5b50565b5f81359050612fc981612fac565b92915050565b5f612fe1612fdc84612f81565b612bb7565b9050808382526020820190506020840283018581111561300457613003612bfc565b5b835b8181101561302d57806130198882612fbb565b845260208401935050602081019050613006565b5050509392505050565b5f82601f83011261304b5761304a612b45565b5b813561305b848260208601612fcf565b91505092915050565b5f67ffffffffffffffff82111561307e5761307d612b59565b5b602082029050602081019050919050565b5f80fd5b5f67ffffffffffffffff8211156130ad576130ac612b59565b5b6130b682612b49565b9050602081019050919050565b828183375f83830152505050565b5f6130e36130de84613093565b612bb7565b9050828152602081018484840111156130ff576130fe61308f565b5b61310a8482856130c3565b509392505050565b5f82601f83011261312657613125612b45565b5b81356131368482602086016130d1565b91505092915050565b5f61315161314c84613064565b612bb7565b9050808382526020820190506020840283018581111561317457613173612bfc565b5b835b818110156131bb57803567ffffffffffffffff81111561319957613198612b45565b5b8086016131a68982613112565b85526020850194505050602081019050613176565b5050509392505050565b5f82601f8301126131d9576131d8612b45565b5b81356131e984826020860161313f565b91505092915050565b5f67ffffffffffffffff82111561320c5761320b612b59565b5b602082029050602081019050919050565b5f61322f61322a846131f2565b612bb7565b9050808382526020820190506020840283018581111561325257613251612bfc565b5b835b8181101561327b57806132678882612a6a565b845260208401935050602081019050613254565b5050509392505050565b5f82601f83011261329957613298612b45565b5b81356132a984826020860161321d565b91505092915050565b5f805f80608085870312156132ca576132c96129ee565b5b5f85013567ffffffffffffffff8111156132e7576132e66129f2565b5b6132f387828801613037565b945050602085013567ffffffffffffffff811115613314576133136129f2565b5b613320878288016131c5565b935050604085013567ffffffffffffffff811115613341576133406129f2565b5b61334d87828801613285565b925050606085013567ffffffffffffffff81111561336e5761336d6129f2565b5b61337a87828801613285565b91505092959194509250565b5f81519050919050565b5f82825260208201905092915050565b5f819050602082019050919050565b5f6133ba8383612d05565b60208301905092915050565b5f602082019050919050565b5f6133dc82613386565b6133e68185613390565b93506133f1836133a0565b805f5b8381101561342157815161340888826133af565b9750613413836133c6565b9250506001810190506133f4565b5085935050505092915050565b5f6020820190508181035f83015261344681846133d2565b905092915050565b5f81519050919050565b5f82825260208201905092915050565b5f819050602082019050919050565b6005811061348857613487612d14565b5b50565b5f81905061349882613477565b919050565b5f6134a78261348b565b9050919050565b6134b78161349d565b82525050565b5f81519050919050565b5f82825260208201905092915050565b5f5b838110156134f45780820151818401526020810190506134d9565b5f8484015250505050565b5f613509826134bd565b61351381856134c7565b93506135238185602086016134d7565b61352c81612b49565b840191505092915050565b5f608083015f83015161354c5f8601826134ae565b506020830151848203602086015261356482826134ff565b91505060408301516135796040860182612d05565b50606083015161358c6060860182612d05565b508091505092915050565b5f6135a28383613537565b905092915050565b5f602082019050919050565b5f6135c08261344e565b6135ca8185613458565b9350836020820285016135dc85613468565b805f5b8581101561361757848403895281516135f88582613597565b9450613603836135aa565b925060208a019950506001810190506135df565b50829750879550505050505092915050565b5f6020820190508181035f83015261364181846135b6565b905092915050565b5f806040838503121561365f5761365e6129ee565b5b5f61366c85828601612a6a565b925050602061367d85828601612a0c565b9150509250929050565b5f60208201905061369a5f830184612ad1565b92915050565b7f4e487b71000000000000000000000000000000000000000000000000000000005f52603260045260245ffd5b5f82825260208201905092915050565b7f4e6f7420616c6c6f7765640000000000000000000000000000000000000000005f82015250565b5f613711600b836136cd565b915061371c826136dd565b602082019050919050565b5f6020820190508181035f83015261373e81613705565b9050919050565b7f4e61746976652063757272656e637920616c72656164792073657400000000005f82015250565b5f613779601b836136cd565b915061378482613745565b602082019050919050565b5f6020820190508181035f8301526137a68161376d565b9050919050565b5f6040820190506137c05f830185612aa9565b6137cd6020830184612ad1565b9392505050565b5f8115159050919050565b6137e8816137d4565b81146137f2575f80fd5b50565b5f81519050613803816137df565b92915050565b5f6020828403121561381e5761381d6129ee565b5b5f61382b848285016137f5565b91505092915050565b7f4e487b71000000000000000000000000000000000000000000000000000000005f52601160045260245ffd5b5f61386b82612a4b565b915061387683612a4b565b925082820261388481612a4b565b9150828204841483151761389b5761389a613834565b5b5092915050565b7f4e487b71000000000000000000000000000000000000000000000000000000005f52601260045260245ffd5b5f6138d982612a4b565b91506138e483612a4b565b9250826138f4576138f36138a2565b5b828204905092915050565b7f4e6f74206f776e657200000000000000000000000000000000000000000000005f82015250565b5f6139336009836136cd565b915061393e826138ff565b602082019050919050565b5f6020820190508181035f83015261396081613927565b9050919050565b7f526563697065206973206e6f74207365740000000000000000000000000000005f82015250565b5f61399b6011836136cd565b91506139a682613967565b602082019050919050565b5f6020820190508181035f8301526139c88161398f565b9050919050565b5f67ffffffffffffffff8211156139e9576139e8612b59565b5b602082029050602081019050919050565b5f80fd5b5f81519050613a0c816129f6565b92915050565b5f81519050613a2081612a54565b92915050565b5f60408284031215613a3b57613a3a6139fa565b5b613a456040612bb7565b90505f613a54848285016139fe565b5f830152506020613a6784828501613a12565b60208301525092915050565b5f613a85613a80846139cf565b612bb7565b90508083825260208201905060408402830185811115613aa857613aa7612bfc565b5b835b81811015613ad15780613abd8882613a26565b845260208401935050604081019050613aaa565b5050509392505050565b5f82601f830112613aef57613aee612b45565b5b8151613aff848260208601613a73565b91505092915050565b5f60208284031215613b1d57613b1c6129ee565b5b5f82015167ffffffffffffffff811115613b3a57613b396129f2565b5b613b4684828501613adb565b91505092915050565b5f60208284031215613b6457613b636129ee565b5b5f613b7184828501613a12565b91505092915050565b5f613b8482612a4b565b9150613b8f83612a4b565b9250828203905081811115613ba757613ba6613834565b5b92915050565b7f477269642064696d656e73696f6e73206d7573742062652067726561746572205f8201527f7468616e207a65726f0000000000000000000000000000000000000000000000602082015250565b5f613c076029836136cd565b9150613c1282613bad565b604082019050919050565b5f6020820190508181035f830152613c3481613bfb565b9050919050565b5f819050919050565b5f613c4e82613c3b565b9150613c5983613c3b565b925082613c6957613c686138a2565b5b60015f0383147f800000000000000000000000000000000000000000000000000000000000000083141615613ca157613ca0613834565b5b828205905092915050565b7f4e487b71000000000000000000000000000000000000000000000000000000005f52602260045260245ffd5b5f6002820490506001821680613cf057607f821691505b602082108103613d0357613d02613cac565b5b50919050565b5f819050815f5260205f209050919050565b5f6020601f8301049050919050565b5f82821b905092915050565b5f60088302613d657fffffffffffffffffffffffffffffffffffffffffffffffffffffffffffffffff82613d2a565b613d6f8683613d2a565b95508019841693508086168417925050509392505050565b5f819050919050565b5f613daa613da5613da084612a4b565b613d87565b612a4b565b9050919050565b5f819050919050565b613dc383613d90565b613dd7613dcf82613db1565b848454613d36565b825550505050565b5f90565b613deb613ddf565b613df6818484613dba565b505050565b5b81811015613e1957613e0e5f82613de3565b600181019050613dfc565b5050565b601f821115613e5e57613e2f81613d09565b613e3884613d1b565b81016020851015613e47578190505b613e5b613e5385613d1b565b830182613dfb565b50505b505050565b5f82821c905092915050565b5f613e7e5f1984600802613e63565b1980831691505092915050565b5f613e968383613e6f565b9150826002028217905092915050565b613eaf826134bd565b67ffffffffffffffff811115613ec857613ec7612b59565b5b613ed28254613cd9565b613edd828285613e1d565b5f60209050601f831160018114613f0e575f8415613efc578287015190505b613f068582613e8b565b865550613f6d565b601f198416613f1c86613d09565b5f5b82811015613f4357848901518255600182019150602085019450602081019050613f1e565b86831015613f605784890151613f5c601f891682613e6f565b8355505b6001600288020188555050505b505050505050565b5f613f7f82612a4b565b91507fffffffffffffffffffffffffffffffffffffffffffffffffffffffffffffffff8203613fb157613fb0613834565b5b600182019050919050565b5f819050919050565b5f613fdf613fda613fd584613fbc565b613d87565b612a4b565b9050919050565b613fef81613fc5565b82525050565b5f6060820190506140085f830186612aa9565b6140156020830185612aa9565b6140226040830184613fe6565b949350505050565b5f61403482613c3b565b915061403f83613c3b565b925082820390508181125f8412168282135f85121516171561406457614063613834565b5b92915050565b5f61407482613c3b565b915061407f83613c3b565b92508282019050828112155f8312168382125f8412151617156140a5576140a4613834565b5b92915050565b5f819050919050565b6140c56140c082612a4b565b6140ab565b82525050565b5f819050919050565b6140e56140e082613c3b565b6140cb565b82525050565b5f6140f682876140b4565b60208201915061410682866140b4565b60208201915061411682856140d4565b60208201915061412682846140d4565b60208201915081905095945050505050565b5f61414282612a4b565b915061414d83612a4b565b92508261415d5761415c6138a2565b5b828206905092915050565b5f61417382856140b4565b60208201915061418382846140b4565b6020820191508190509392505050565b5f61419d82613c3b565b91507f800000000000000000000000000000000000000000000000000000000000000082036141cf576141ce613834565b5b815f03905091905056fea2646970667358221220df196c449c500ce60216a17b9a1360597ca6f17666449b7cfec9ab23cf7d7f4164736f6c63430008170033",
			"opcodes": "PUSH1 0x80 PUSH1 0x40 MSTORE PUSH0 DUP1 PUSH0 PUSH2 0x100 EXP DUP2 SLOAD DUP2 PUSH1 0xFF MUL NOT AND SWAP1 DUP4 ISZERO ISZERO MUL OR SWAP1 SSTORE POP PUSH0 PUSH1 0x9 SSTORE PUSH0 PUSH1 0xA SSTORE CALLVALUE DUP1 ISZERO PUSH3 0x30 JUMPI PUSH0 DUP1 REVERT JUMPDEST POP PUSH1 0x40 MLOAD PUSH3 0x4FC0 CODESIZE SUB DUP1 PUSH3 0x4FC0 DUP4 CODECOPY DUP2 DUP2 ADD PUSH1 0x40 MSTORE DUP2 ADD SWAP1 PUSH3 0x56 SWAP2 SWAP1 PUSH3 0x696 JUMP JUMPDEST CALLER PUSH0 PUSH1 0x1 PUSH2 0x100 EXP DUP2 SLOAD DUP2 PUSH20 0xFFFFFFFFFFFFFFFFFFFFFFFFFFFFFFFFFFFFFFFF MUL NOT AND SWAP1 DUP4 PUSH20 0xFFFFFFFFFFFFFFFFFFFFFFFFFFFFFFFFFFFFFFFF AND MUL OR SWAP1 SSTORE POP DUP3 PUSH1 0x4 SWAP1 DUP2 PUSH3 0xA7 SWAP2 SWAP1 PUSH3 0x93C JUMP JUMPDEST POP DUP2 PUSH1 0x3 DUP2 SWAP1 SSTORE POP DUP1 PUSH1 0x2 DUP2 SWAP1 SSTORE POP PUSH3 0xC6 PUSH3 0xCF PUSH1 0x20 SHL PUSH1 0x20 SHR JUMP JUMPDEST POP POP POP PUSH3 0xDA3 JUMP JUMPDEST PUSH0 PUSH1 0x3 SLOAD GT DUP1 ISZERO PUSH3 0xE2 JUMPI POP PUSH0 PUSH1 0x2 SLOAD GT JUMPDEST PUSH3 0x124 JUMPI PUSH1 0x40 MLOAD PUSH32 0x8C379A000000000000000000000000000000000000000000000000000000000 DUP2 MSTORE PUSH1 0x4 ADD PUSH3 0x11B SWAP1 PUSH3 0xAA4 JUMP JUMPDEST PUSH1 0x40 MLOAD DUP1 SWAP2 SUB SWAP1 REVERT JUMPDEST PUSH0 PUSH1 0x2 PUSH1 0x3 SLOAD PUSH3 0x136 SWAP2 SWAP1 PUSH3 0xB27 JUMP JUMPDEST SWAP1 POP PUSH0 PUSH1 0x2 DUP1 SLOAD PUSH3 0x149 SWAP2 SWAP1 PUSH3 0xB27 JUMP JUMPDEST SWAP1 POP PUSH0 JUMPDEST PUSH1 0x3 SLOAD DUP2 LT ISZERO PUSH3 0x1AD JUMPI PUSH0 JUMPDEST PUSH1 0x2 SLOAD DUP2 LT ISZERO PUSH3 0x19E JUMPI PUSH0 PUSH3 0x17A DUP4 DUP4 DUP8 DUP8 PUSH3 0x1B2 PUSH1 0x20 SHL PUSH1 0x20 SHR JUMP JUMPDEST SWAP1 POP PUSH3 0x18F DUP4 DUP4 DUP4 PUSH3 0x2E5 PUSH1 0x20 SHL PUSH1 0x20 SHR JUMP JUMPDEST POP DUP1 DUP1 PUSH1 0x1 ADD SWAP2 POP POP PUSH3 0x15A JUMP JUMPDEST POP DUP1 DUP1 PUSH1 0x1 ADD SWAP2 POP POP PUSH3 0x14D JUMP JUMPDEST POP POP POP JUMP JUMPDEST PUSH0 DUP1 PUSH3 0x1D2 DUP4 DUP7 PUSH3 0x1C6 SWAP2 SWAP1 PUSH3 0xB99 JUMP JUMPDEST PUSH3 0x47E PUSH1 0x20 SHL PUSH1 0x20 SHR JUMP JUMPDEST PUSH3 0x1F0 DUP6 DUP9 PUSH3 0x1E4 SWAP2 SWAP1 PUSH3 0xB99 JUMP JUMPDEST PUSH3 0x47E PUSH1 0x20 SHL PUSH1 0x20 SHR JUMP JUMPDEST PUSH3 0x1FC SWAP2 SWAP1 PUSH3 0xBE0 JUMP JUMPDEST SWAP1 POP PUSH1 0x2 DUP2 SLT ISZERO PUSH3 0x213 JUMPI PUSH1 0x5 SWAP2 POP POP PUSH3 0x2DD JUMP JUMPDEST PUSH1 0x4 DUP2 SLT ISZERO PUSH3 0x228 JUMPI PUSH1 0x4 SWAP2 POP POP PUSH3 0x2DD JUMP JUMPDEST PUSH1 0x6 DUP2 SLT ISZERO PUSH3 0x23D JUMPI PUSH1 0x1 SWAP2 POP POP PUSH3 0x2DD JUMP JUMPDEST PUSH0 PUSH1 0x64 TIMESTAMP PREVRANDAO DUP10 DUP10 PUSH1 0x40 MLOAD PUSH1 0x20 ADD PUSH3 0x259 SWAP5 SWAP4 SWAP3 SWAP2 SWAP1 PUSH3 0xC70 JUMP JUMPDEST PUSH1 0x40 MLOAD PUSH1 0x20 DUP2 DUP4 SUB SUB DUP2 MSTORE SWAP1 PUSH1 0x40 MSTORE DUP1 MLOAD SWAP1 PUSH1 0x20 ADD KECCAK256 PUSH0 SHR PUSH3 0x27D SWAP2 SWAP1 PUSH3 0xCC5 JUMP JUMPDEST SWAP1 POP PUSH1 0x14 DUP2 LT ISZERO PUSH3 0x295 JUMPI PUSH1 0x2 SWAP3 POP POP POP PUSH3 0x2DD JUMP JUMPDEST PUSH1 0x28 DUP2 LT ISZERO PUSH3 0x2AB JUMPI PUSH1 0x3 SWAP3 POP POP POP PUSH3 0x2DD JUMP JUMPDEST PUSH1 0x3C DUP2 LT ISZERO PUSH3 0x2C1 JUMPI PUSH1 0x4 SWAP3 POP POP POP PUSH3 0x2DD JUMP JUMPDEST PUSH1 0x50 DUP2 LT ISZERO PUSH3 0x2D7 JUMPI PUSH1 0x1 SWAP3 POP POP POP PUSH3 0x2DD JUMP JUMPDEST PUSH0 SWAP3 POP POP POP JUMPDEST SWAP5 SWAP4 POP POP POP POP JUMP JUMPDEST PUSH0 PUSH3 0x2F8 DUP5 DUP5 PUSH3 0x4A3 PUSH1 0x20 SHL PUSH1 0x20 SHR JUMP JUMPDEST SWAP1 POP PUSH1 0x40 MLOAD DUP1 PUSH2 0x100 ADD PUSH1 0x40 MSTORE DUP1 PUSH0 PUSH20 0xFFFFFFFFFFFFFFFFFFFFFFFFFFFFFFFFFFFFFFFF AND DUP2 MSTORE PUSH1 0x20 ADD PUSH0 DUP2 MSTORE PUSH1 0x20 ADD PUSH0 DUP2 MSTORE PUSH1 0x20 ADD DUP4 PUSH1 0x5 DUP2 GT ISZERO PUSH3 0x344 JUMPI PUSH3 0x343 PUSH3 0xCFC JUMP JUMPDEST JUMPDEST DUP2 MSTORE PUSH1 0x20 ADD PUSH0 PUSH20 0xFFFFFFFFFFFFFFFFFFFFFFFFFFFFFFFFFFFFFFFF AND DUP2 MSTORE PUSH1 0x20 ADD TIMESTAMP DUP2 MSTORE PUSH1 0x20 ADD DUP6 DUP2 MSTORE PUSH1 0x20 ADD DUP5 DUP2 MSTORE POP PUSH1 0x6 PUSH0 DUP4 DUP2 MSTORE PUSH1 0x20 ADD SWAP1 DUP2 MSTORE PUSH1 0x20 ADD PUSH0 KECCAK256 PUSH0 DUP3 ADD MLOAD DUP2 PUSH0 ADD PUSH0 PUSH2 0x100 EXP DUP2 SLOAD DUP2 PUSH20 0xFFFFFFFFFFFFFFFFFFFFFFFFFFFFFFFFFFFFFFFF MUL NOT AND SWAP1 DUP4 PUSH20 0xFFFFFFFFFFFFFFFFFFFFFFFFFFFFFFFFFFFFFFFF AND MUL OR SWAP1 SSTORE POP PUSH1 0x20 DUP3 ADD MLOAD DUP2 PUSH1 0x1 ADD SSTORE PUSH1 0x40 DUP3 ADD MLOAD DUP2 PUSH1 0x2 ADD SSTORE PUSH1 0x60 DUP3 ADD MLOAD DUP2 PUSH1 0x3 ADD PUSH0 PUSH2 0x100 EXP DUP2 SLOAD DUP2 PUSH1 0xFF MUL NOT AND SWAP1 DUP4 PUSH1 0x5 DUP2 GT ISZERO PUSH3 0x40B JUMPI PUSH3 0x40A PUSH3 0xCFC JUMP JUMPDEST JUMPDEST MUL OR SWAP1 SSTORE POP PUSH1 0x80 DUP3 ADD MLOAD DUP2 PUSH1 0x3 ADD PUSH1 0x1 PUSH2 0x100 EXP DUP2 SLOAD DUP2 PUSH20 0xFFFFFFFFFFFFFFFFFFFFFFFFFFFFFFFFFFFFFFFF MUL NOT AND SWAP1 DUP4 PUSH20 0xFFFFFFFFFFFFFFFFFFFFFFFFFFFFFFFFFFFFFFFF AND MUL OR SWAP1 SSTORE POP PUSH1 0xA0 DUP3 ADD MLOAD DUP2 PUSH1 0x4 ADD SSTORE PUSH1 0xC0 DUP3 ADD MLOAD DUP2 PUSH1 0x5 ADD SSTORE PUSH1 0xE0 DUP3 ADD MLOAD DUP2 PUSH1 0x6 ADD SSTORE SWAP1 POP POP POP POP POP POP JUMP JUMPDEST PUSH0 DUP1 DUP3 SLT ISZERO PUSH3 0x49A JUMPI DUP2 PUSH3 0x494 SWAP1 PUSH3 0xD29 JUMP JUMPDEST PUSH3 0x49C JUMP JUMPDEST DUP2 JUMPDEST SWAP1 POP SWAP2 SWAP1 POP JUMP JUMPDEST PUSH0 DUP3 DUP3 PUSH1 0x40 MLOAD PUSH1 0x20 ADD PUSH3 0x4B9 SWAP3 SWAP2 SWAP1 PUSH3 0xD74 JUMP JUMPDEST PUSH1 0x40 MLOAD PUSH1 0x20 DUP2 DUP4 SUB SUB DUP2 MSTORE SWAP1 PUSH1 0x40 MSTORE DUP1 MLOAD SWAP1 PUSH1 0x20 ADD KECCAK256 PUSH0 SHR SWAP1 POP SWAP3 SWAP2 POP POP JUMP JUMPDEST PUSH0 PUSH1 0x40 MLOAD SWAP1 POP SWAP1 JUMP JUMPDEST PUSH0 DUP1 REVERT JUMPDEST PUSH0 DUP1 REVERT JUMPDEST PUSH0 DUP1 REVERT JUMPDEST PUSH0 DUP1 REVERT JUMPDEST PUSH0 PUSH1 0x1F NOT PUSH1 0x1F DUP4 ADD AND SWAP1 POP SWAP2 SWAP1 POP JUMP JUMPDEST PUSH32 0x4E487B7100000000000000000000000000000000000000000000000000000000 PUSH0 MSTORE PUSH1 0x41 PUSH1 0x4 MSTORE PUSH1 0x24 PUSH0 REVERT JUMPDEST PUSH3 0x53A DUP3 PUSH3 0x4F2 JUMP JUMPDEST DUP2 ADD DUP2 DUP2 LT PUSH8 0xFFFFFFFFFFFFFFFF DUP3 GT OR ISZERO PUSH3 0x55C JUMPI PUSH3 0x55B PUSH3 0x502 JUMP JUMPDEST JUMPDEST DUP1 PUSH1 0x40 MSTORE POP POP POP JUMP JUMPDEST PUSH0 PUSH3 0x570 PUSH3 0x4D9 JUMP JUMPDEST SWAP1 POP PUSH3 0x57E DUP3 DUP3 PUSH3 0x52F JUMP JUMPDEST SWAP2 SWAP1 POP JUMP JUMPDEST PUSH0 PUSH8 0xFFFFFFFFFFFFFFFF DUP3 GT ISZERO PUSH3 0x5A0 JUMPI PUSH3 0x59F PUSH3 0x502 JUMP JUMPDEST JUMPDEST PUSH3 0x5AB DUP3 PUSH3 0x4F2 JUMP JUMPDEST SWAP1 POP PUSH1 0x20 DUP2 ADD SWAP1 POP SWAP2 SWAP1 POP JUMP JUMPDEST PUSH0 JUMPDEST DUP4 DUP2 LT ISZERO PUSH3 0x5D7 JUMPI DUP1 DUP3 ADD MLOAD DUP2 DUP5 ADD MSTORE PUSH1 0x20 DUP2 ADD SWAP1 POP PUSH3 0x5BA JUMP JUMPDEST PUSH0 DUP5 DUP5 ADD MSTORE POP POP POP POP JUMP JUMPDEST PUSH0 PUSH3 0x5F8 PUSH3 0x5F2 DUP5 PUSH3 0x583 JUMP JUMPDEST PUSH3 0x565 JUMP JUMPDEST SWAP1 POP DUP3 DUP2 MSTORE PUSH1 0x20 DUP2 ADD DUP5 DUP5 DUP5 ADD GT ISZERO PUSH3 0x617 JUMPI PUSH3 0x616 PUSH3 0x4EE JUMP JUMPDEST JUMPDEST PUSH3 0x624 DUP5 DUP3 DUP6 PUSH3 0x5B8 JUMP JUMPDEST POP SWAP4 SWAP3 POP POP POP JUMP JUMPDEST PUSH0 DUP3 PUSH1 0x1F DUP4 ADD SLT PUSH3 0x643 JUMPI PUSH3 0x642 PUSH3 0x4EA JUMP JUMPDEST JUMPDEST DUP2 MLOAD PUSH3 0x655 DUP5 DUP3 PUSH1 0x20 DUP7 ADD PUSH3 0x5E2 JUMP JUMPDEST SWAP2 POP POP SWAP3 SWAP2 POP POP JUMP JUMPDEST PUSH0 DUP2 SWAP1 POP SWAP2 SWAP1 POP JUMP JUMPDEST PUSH3 0x672 DUP2 PUSH3 0x65E JUMP JUMPDEST DUP2 EQ PUSH3 0x67D JUMPI PUSH0 DUP1 REVERT JUMPDEST POP JUMP JUMPDEST PUSH0 DUP2 MLOAD SWAP1 POP PUSH3 0x690 DUP2 PUSH3 0x667 JUMP JUMPDEST SWAP3 SWAP2 POP POP JUMP JUMPDEST PUSH0 DUP1 PUSH0 PUSH1 0x60 DUP5 DUP7 SUB SLT ISZERO PUSH3 0x6B0 JUMPI PUSH3 0x6AF PUSH3 0x4E2 JUMP JUMPDEST JUMPDEST PUSH0 DUP5 ADD MLOAD PUSH8 0xFFFFFFFFFFFFFFFF DUP2 GT ISZERO PUSH3 0x6D0 JUMPI PUSH3 0x6CF PUSH3 0x4E6 JUMP JUMPDEST JUMPDEST PUSH3 0x6DE DUP7 DUP3 DUP8 ADD PUSH3 0x62C JUMP JUMPDEST SWAP4 POP POP PUSH1 0x20 PUSH3 0x6F1 DUP7 DUP3 DUP8 ADD PUSH3 0x680 JUMP JUMPDEST SWAP3 POP POP PUSH1 0x40 PUSH3 0x704 DUP7 DUP3 DUP8 ADD PUSH3 0x680 JUMP JUMPDEST SWAP2 POP POP SWAP3 POP SWAP3 POP SWAP3 JUMP JUMPDEST PUSH0 DUP2 MLOAD SWAP1 POP SWAP2 SWAP1 POP JUMP JUMPDEST PUSH32 0x4E487B7100000000000000000000000000000000000000000000000000000000 PUSH0 MSTORE PUSH1 0x22 PUSH1 0x4 MSTORE PUSH1 0x24 PUSH0 REVERT JUMPDEST PUSH0 PUSH1 0x2 DUP3 DIV SWAP1 POP PUSH1 0x1 DUP3 AND DUP1 PUSH3 0x75D JUMPI PUSH1 0x7F DUP3 AND SWAP2 POP JUMPDEST PUSH1 0x20 DUP3 LT DUP2 SUB PUSH3 0x773 JUMPI PUSH3 0x772 PUSH3 0x718 JUMP JUMPDEST JUMPDEST POP SWAP2 SWAP1 POP JUMP JUMPDEST PUSH0 DUP2 SWAP1 POP DUP2 PUSH0 MSTORE PUSH1 0x20 PUSH0 KECCAK256 SWAP1 POP SWAP2 SWAP1 POP JUMP JUMPDEST PUSH0 PUSH1 0x20 PUSH1 0x1F DUP4 ADD DIV SWAP1 POP SWAP2 SWAP1 POP JUMP JUMPDEST PUSH0 DUP3 DUP3 SHL SWAP1 POP SWAP3 SWAP2 POP POP JUMP JUMPDEST PUSH0 PUSH1 0x8 DUP4 MUL PUSH3 0x7D7 PUSH32 0xFFFFFFFFFFFFFFFFFFFFFFFFFFFFFFFFFFFFFFFFFFFFFFFFFFFFFFFFFFFFFFFF DUP3 PUSH3 0x79A JUMP JUMPDEST PUSH3 0x7E3 DUP7 DUP4 PUSH3 0x79A JUMP JUMPDEST SWAP6 POP DUP1 NOT DUP5 AND SWAP4 POP DUP1 DUP7 AND DUP5 OR SWAP3 POP POP POP SWAP4 SWAP3 POP POP POP JUMP JUMPDEST PUSH0 DUP2 SWAP1 POP SWAP2 SWAP1 POP JUMP JUMPDEST PUSH0 PUSH3 0x824 PUSH3 0x81E PUSH3 0x818 DUP5 PUSH3 0x65E JUMP JUMPDEST PUSH3 0x7FB JUMP JUMPDEST PUSH3 0x65E JUMP JUMPDEST SWAP1 POP SWAP2 SWAP1 POP JUMP JUMPDEST PUSH0 DUP2 SWAP1 POP SWAP2 SWAP1 POP JUMP JUMPDEST PUSH3 0x83F DUP4 PUSH3 0x804 JUMP JUMPDEST PUSH3 0x857 PUSH3 0x84E DUP3 PUSH3 0x82B JUMP JUMPDEST DUP5 DUP5 SLOAD PUSH3 0x7A6 JUMP JUMPDEST DUP3 SSTORE POP POP POP POP JUMP JUMPDEST PUSH0 SWAP1 JUMP JUMPDEST PUSH3 0x86D PUSH3 0x85F JUMP JUMPDEST PUSH3 0x87A DUP2 DUP5 DUP5 PUSH3 0x834 JUMP JUMPDEST POP POP POP JUMP JUMPDEST JUMPDEST DUP2 DUP2 LT ISZERO PUSH3 0x8A1 JUMPI PUSH3 0x895 PUSH0 DUP3 PUSH3 0x863 JUMP JUMPDEST PUSH1 0x1 DUP2 ADD SWAP1 POP PUSH3 0x880 JUMP JUMPDEST POP POP JUMP JUMPDEST PUSH1 0x1F DUP3 GT ISZERO PUSH3 0x8F0 JUMPI PUSH3 0x8BA DUP2 PUSH3 0x779 JUMP JUMPDEST PUSH3 0x8C5 DUP5 PUSH3 0x78B JUMP JUMPDEST DUP2 ADD PUSH1 0x20 DUP6 LT ISZERO PUSH3 0x8D5 JUMPI DUP2 SWAP1 POP JUMPDEST PUSH3 0x8ED PUSH3 0x8E4 DUP6 PUSH3 0x78B JUMP JUMPDEST DUP4 ADD DUP3 PUSH3 0x87F JUMP JUMPDEST POP POP JUMPDEST POP POP POP JUMP JUMPDEST PUSH0 DUP3 DUP3 SHR SWAP1 POP SWAP3 SWAP2 POP POP JUMP JUMPDEST PUSH0 PUSH3 0x912 PUSH0 NOT DUP5 PUSH1 0x8 MUL PUSH3 0x8F5 JUMP JUMPDEST NOT DUP1 DUP4 AND SWAP2 POP POP SWAP3 SWAP2 POP POP JUMP JUMPDEST PUSH0 PUSH3 0x92C DUP4 DUP4 PUSH3 0x901 JUMP JUMPDEST SWAP2 POP DUP3 PUSH1 0x2 MUL DUP3 OR SWAP1 POP SWAP3 SWAP2 POP POP JUMP JUMPDEST PUSH3 0x947 DUP3 PUSH3 0x70E JUMP JUMPDEST PUSH8 0xFFFFFFFFFFFFFFFF DUP2 GT ISZERO PUSH3 0x963 JUMPI PUSH3 0x962 PUSH3 0x502 JUMP JUMPDEST JUMPDEST PUSH3 0x96F DUP3 SLOAD PUSH3 0x745 JUMP JUMPDEST PUSH3 0x97C DUP3 DUP3 DUP6 PUSH3 0x8A5 JUMP JUMPDEST PUSH0 PUSH1 0x20 SWAP1 POP PUSH1 0x1F DUP4 GT PUSH1 0x1 DUP2 EQ PUSH3 0x9B2 JUMPI PUSH0 DUP5 ISZERO PUSH3 0x99D JUMPI DUP3 DUP8 ADD MLOAD SWAP1 POP JUMPDEST PUSH3 0x9A9 DUP6 DUP3 PUSH3 0x91F JUMP JUMPDEST DUP7 SSTORE POP PUSH3 0xA18 JUMP JUMPDEST PUSH1 0x1F NOT DUP5 AND PUSH3 0x9C2 DUP7 PUSH3 0x779 JUMP JUMPDEST PUSH0 JUMPDEST DUP3 DUP2 LT ISZERO PUSH3 0x9EB JUMPI DUP5 DUP10 ADD MLOAD DUP3 SSTORE PUSH1 0x1 DUP3 ADD SWAP2 POP PUSH1 0x20 DUP6 ADD SWAP5 POP PUSH1 0x20 DUP2 ADD SWAP1 POP PUSH3 0x9C4 JUMP JUMPDEST DUP7 DUP4 LT ISZERO PUSH3 0xA0B JUMPI DUP5 DUP10 ADD MLOAD PUSH3 0xA07 PUSH1 0x1F DUP10 AND DUP3 PUSH3 0x901 JUMP JUMPDEST DUP4 SSTORE POP JUMPDEST PUSH1 0x1 PUSH1 0x2 DUP9 MUL ADD DUP9 SSTORE POP POP POP JUMPDEST POP POP POP POP POP POP JUMP JUMPDEST PUSH0 DUP3 DUP3 MSTORE PUSH1 0x20 DUP3 ADD SWAP1 POP SWAP3 SWAP2 POP POP JUMP JUMPDEST PUSH32 0x477269642064696D656E73696F6E73206D757374206265206772656174657220 PUSH0 DUP3 ADD MSTORE PUSH32 0x7468616E207A65726F0000000000000000000000000000000000000000000000 PUSH1 0x20 DUP3 ADD MSTORE POP JUMP JUMPDEST PUSH0 PUSH3 0xA8C PUSH1 0x29 DUP4 PUSH3 0xA20 JUMP JUMPDEST SWAP2 POP PUSH3 0xA99 DUP3 PUSH3 0xA30 JUMP JUMPDEST PUSH1 0x40 DUP3 ADD SWAP1 POP SWAP2 SWAP1 POP JUMP JUMPDEST PUSH0 PUSH1 0x20 DUP3 ADD SWAP1 POP DUP2 DUP2 SUB PUSH0 DUP4 ADD MSTORE PUSH3 0xABD DUP2 PUSH3 0xA7E JUMP JUMPDEST SWAP1 POP SWAP2 SWAP1 POP JUMP JUMPDEST PUSH0 DUP2 SWAP1 POP SWAP2 SWAP1 POP JUMP JUMPDEST PUSH32 0x4E487B7100000000000000000000000000000000000000000000000000000000 PUSH0 MSTORE PUSH1 0x12 PUSH1 0x4 MSTORE PUSH1 0x24 PUSH0 REVERT JUMPDEST PUSH32 0x4E487B7100000000000000000000000000000000000000000000000000000000 PUSH0 MSTORE PUSH1 0x11 PUSH1 0x4 MSTORE PUSH1 0x24 PUSH0 REVERT JUMPDEST PUSH0 PUSH3 0xB33 DUP3 PUSH3 0xAC4 JUMP JUMPDEST SWAP2 POP PUSH3 0xB40 DUP4 PUSH3 0xAC4 JUMP JUMPDEST SWAP3 POP DUP3 PUSH3 0xB53 JUMPI PUSH3 0xB52 PUSH3 0xACD JUMP JUMPDEST JUMPDEST PUSH1 0x1 PUSH0 SUB DUP4 EQ PUSH32 0x8000000000000000000000000000000000000000000000000000000000000000 DUP4 EQ AND ISZERO PUSH3 0xB8E JUMPI PUSH3 0xB8D PUSH3 0xAFA JUMP JUMPDEST JUMPDEST DUP3 DUP3 SDIV SWAP1 POP SWAP3 SWAP2 POP POP JUMP JUMPDEST PUSH0 PUSH3 0xBA5 DUP3 PUSH3 0xAC4 JUMP JUMPDEST SWAP2 POP PUSH3 0xBB2 DUP4 PUSH3 0xAC4 JUMP JUMPDEST SWAP3 POP DUP3 DUP3 SUB SWAP1 POP DUP2 DUP2 SLT PUSH0 DUP5 SLT AND DUP3 DUP3 SGT PUSH0 DUP6 SLT ISZERO AND OR ISZERO PUSH3 0xBDA JUMPI PUSH3 0xBD9 PUSH3 0xAFA JUMP JUMPDEST JUMPDEST SWAP3 SWAP2 POP POP JUMP JUMPDEST PUSH0 PUSH3 0xBEC DUP3 PUSH3 0xAC4 JUMP JUMPDEST SWAP2 POP PUSH3 0xBF9 DUP4 PUSH3 0xAC4 JUMP JUMPDEST SWAP3 POP DUP3 DUP3 ADD SWAP1 POP DUP3 DUP2 SLT ISZERO PUSH0 DUP4 SLT AND DUP4 DUP3 SLT PUSH0 DUP5 SLT ISZERO AND OR ISZERO PUSH3 0xC22 JUMPI PUSH3 0xC21 PUSH3 0xAFA JUMP JUMPDEST JUMPDEST SWAP3 SWAP2 POP POP JUMP JUMPDEST PUSH0 DUP2 SWAP1 POP SWAP2 SWAP1 POP JUMP JUMPDEST PUSH3 0xC46 PUSH3 0xC40 DUP3 PUSH3 0x65E JUMP JUMPDEST PUSH3 0xC28 JUMP JUMPDEST DUP3 MSTORE POP POP JUMP JUMPDEST PUSH0 DUP2 SWAP1 POP SWAP2 SWAP1 POP JUMP JUMPDEST PUSH3 0xC6A PUSH3 0xC64 DUP3 PUSH3 0xAC4 JUMP JUMPDEST PUSH3 0xC4C JUMP JUMPDEST DUP3 MSTORE POP POP JUMP JUMPDEST PUSH0 PUSH3 0xC7D DUP3 DUP8 PUSH3 0xC31 JUMP JUMPDEST PUSH1 0x20 DUP3 ADD SWAP2 POP PUSH3 0xC8F DUP3 DUP7 PUSH3 0xC31 JUMP JUMPDEST PUSH1 0x20 DUP3 ADD SWAP2 POP PUSH3 0xCA1 DUP3 DUP6 PUSH3 0xC55 JUMP JUMPDEST PUSH1 0x20 DUP3 ADD SWAP2 POP PUSH3 0xCB3 DUP3 DUP5 PUSH3 0xC55 JUMP JUMPDEST PUSH1 0x20 DUP3 ADD SWAP2 POP DUP2 SWAP1 POP SWAP6 SWAP5 POP POP POP POP POP JUMP JUMPDEST PUSH0 PUSH3 0xCD1 DUP3 PUSH3 0x65E JUMP JUMPDEST SWAP2 POP PUSH3 0xCDE DUP4 PUSH3 0x65E JUMP JUMPDEST SWAP3 POP DUP3 PUSH3 0xCF1 JUMPI PUSH3 0xCF0 PUSH3 0xACD JUMP JUMPDEST JUMPDEST DUP3 DUP3 MOD SWAP1 POP SWAP3 SWAP2 POP POP JUMP JUMPDEST PUSH32 0x4E487B7100000000000000000000000000000000000000000000000000000000 PUSH0 MSTORE PUSH1 0x21 PUSH1 0x4 MSTORE PUSH1 0x24 PUSH0 REVERT JUMPDEST PUSH0 PUSH3 0xD35 DUP3 PUSH3 0xAC4 JUMP JUMPDEST SWAP2 POP PUSH32 0x8000000000000000000000000000000000000000000000000000000000000000 DUP3 SUB PUSH3 0xD6A JUMPI PUSH3 0xD69 PUSH3 0xAFA JUMP JUMPDEST JUMPDEST DUP2 PUSH0 SUB SWAP1 POP SWAP2 SWAP1 POP JUMP JUMPDEST PUSH0 PUSH3 0xD81 DUP3 DUP6 PUSH3 0xC31 JUMP JUMPDEST PUSH1 0x20 DUP3 ADD SWAP2 POP PUSH3 0xD93 DUP3 DUP5 PUSH3 0xC31 JUMP JUMPDEST PUSH1 0x20 DUP3 ADD SWAP2 POP DUP2 SWAP1 POP SWAP4 SWAP3 POP POP POP JUMP JUMPDEST PUSH2 0x420F DUP1 PUSH3 0xDB1 PUSH0 CODECOPY PUSH0 RETURN INVALID PUSH1 0x80 PUSH1 0x40 MSTORE PUSH1 0x4 CALLDATASIZE LT PUSH2 0x134 JUMPI PUSH0 CALLDATALOAD PUSH1 0xE0 SHR DUP1 PUSH4 0x76E5BB59 GT PUSH2 0xAA JUMPI DUP1 PUSH4 0xC1336871 GT PUSH2 0x6E JUMPI DUP1 PUSH4 0xC1336871 EQ PUSH2 0x3A9 JUMPI DUP1 PUSH4 0xD9CF6A26 EQ PUSH2 0x3E5 JUMPI DUP1 PUSH4 0xE12E99A2 EQ PUSH2 0x40F JUMPI DUP1 PUSH4 0xE18C3C56 EQ PUSH2 0x437 JUMPI DUP1 PUSH4 0xE3824E21 EQ PUSH2 0x473 JUMPI DUP1 PUSH4 0xFBEC6F21 EQ PUSH2 0x49B JUMPI PUSH2 0x134 JUMP JUMPDEST DUP1 PUSH4 0x76E5BB59 EQ PUSH2 0x2EF JUMPI DUP1 PUSH4 0x96F61C11 EQ PUSH2 0x319 JUMPI DUP1 PUSH4 0x9C281582 EQ PUSH2 0x32F JUMPI DUP1 PUSH4 0x9DF5A2D0 EQ PUSH2 0x36B JUMPI DUP1 PUSH4 0xB7F685F9 EQ PUSH2 0x381 JUMPI PUSH2 0x134 JUMP JUMPDEST DUP1 PUSH4 0x2C725DF8 GT PUSH2 0xFC JUMPI DUP1 PUSH4 0x2C725DF8 EQ PUSH2 0x207 JUMPI DUP1 PUSH4 0x2F7B8AF4 EQ PUSH2 0x231 JUMPI DUP1 PUSH4 0x40F77B31 EQ PUSH2 0x23B JUMPI DUP1 PUSH4 0x511A8861 EQ PUSH2 0x263 JUMPI DUP1 PUSH4 0x6312974B EQ PUSH2 0x28B JUMPI DUP1 PUSH4 0x704044DC EQ PUSH2 0x2B3 JUMPI PUSH2 0x134 JUMP JUMPDEST DUP1 PUSH4 0x30D11F6 EQ PUSH2 0x138 JUMPI DUP1 PUSH4 0x199F6403 EQ PUSH2 0x162 JUMPI DUP1 PUSH4 0x1C4718E9 EQ PUSH2 0x18A JUMPI DUP1 PUSH4 0x1D16F2B7 EQ PUSH2 0x1B2 JUMPI DUP1 PUSH4 0x22EB20A3 EQ PUSH2 0x1DC JUMPI JUMPDEST PUSH0 DUP1 REVERT JUMPDEST CALLVALUE DUP1 ISZERO PUSH2 0x143 JUMPI PUSH0 DUP1 REVERT JUMPDEST POP PUSH2 0x14C PUSH2 0x4C5 JUMP JUMPDEST PUSH1 0x40 MLOAD PUSH2 0x159 SWAP2 SWAP1 PUSH2 0x29C5 JUMP JUMPDEST PUSH1 0x40 MLOAD DUP1 SWAP2 SUB SWAP1 RETURN JUMPDEST CALLVALUE DUP1 ISZERO PUSH2 0x16D JUMPI PUSH0 DUP1 REVERT JUMPDEST POP PUSH2 0x188 PUSH1 0x4 DUP1 CALLDATASIZE SUB DUP2 ADD SWAP1 PUSH2 0x183 SWAP2 SWAP1 PUSH2 0x2A20 JUMP JUMPDEST PUSH2 0x570 JUMP JUMPDEST STOP JUMPDEST CALLVALUE DUP1 ISZERO PUSH2 0x195 JUMPI PUSH0 DUP1 REVERT JUMPDEST POP PUSH2 0x1B0 PUSH1 0x4 DUP1 CALLDATASIZE SUB DUP2 ADD SWAP1 PUSH2 0x1AB SWAP2 SWAP1 PUSH2 0x2A7E JUMP JUMPDEST PUSH2 0x6A8 JUMP JUMPDEST STOP JUMPDEST CALLVALUE DUP1 ISZERO PUSH2 0x1BD JUMPI PUSH0 DUP1 REVERT JUMPDEST POP PUSH2 0x1C6 PUSH2 0x9C2 JUMP JUMPDEST PUSH1 0x40 MLOAD PUSH2 0x1D3 SWAP2 SWAP1 PUSH2 0x2AB8 JUMP JUMPDEST PUSH1 0x40 MLOAD DUP1 SWAP2 SUB SWAP1 RETURN JUMPDEST CALLVALUE DUP1 ISZERO PUSH2 0x1E7 JUMPI PUSH0 DUP1 REVERT JUMPDEST POP PUSH2 0x1F0 PUSH2 0x9E7 JUMP JUMPDEST PUSH1 0x40 MLOAD PUSH2 0x1FE SWAP3 SWAP2 SWAP1 PUSH2 0x2AE0 JUMP JUMPDEST PUSH1 0x40 MLOAD DUP1 SWAP2 SUB SWAP1 RETURN JUMPDEST CALLVALUE DUP1 ISZERO PUSH2 0x212 JUMPI PUSH0 DUP1 REVERT JUMPDEST POP PUSH2 0x21B PUSH2 0x9F7 JUMP JUMPDEST PUSH1 0x40 MLOAD PUSH2 0x228 SWAP2 SWAP1 PUSH2 0x29C5 JUMP JUMPDEST PUSH1 0x40 MLOAD DUP1 SWAP2 SUB SWAP1 RETURN JUMPDEST PUSH2 0x239 PUSH2 0xAA2 JUMP JUMPDEST STOP JUMPDEST CALLVALUE DUP1 ISZERO PUSH2 0x246 JUMPI PUSH0 DUP1 REVERT JUMPDEST POP PUSH2 0x261 PUSH1 0x4 DUP1 CALLDATASIZE SUB DUP2 ADD SWAP1 PUSH2 0x25C SWAP2 SWAP1 PUSH2 0x2A7E JUMP JUMPDEST PUSH2 0xB53 JUMP JUMPDEST STOP JUMPDEST CALLVALUE DUP1 ISZERO PUSH2 0x26E JUMPI PUSH0 DUP1 REVERT JUMPDEST POP PUSH2 0x289 PUSH1 0x4 DUP1 CALLDATASIZE SUB DUP2 ADD SWAP1 PUSH2 0x284 SWAP2 SWAP1 PUSH2 0x2B07 JUMP JUMPDEST PUSH2 0x1122 JUMP JUMPDEST STOP JUMPDEST CALLVALUE DUP1 ISZERO PUSH2 0x296 JUMPI PUSH0 DUP1 REVERT JUMPDEST POP PUSH2 0x2B1 PUSH1 0x4 DUP1 CALLDATASIZE SUB DUP2 ADD SWAP1 PUSH2 0x2AC SWAP2 SWAP1 PUSH2 0x2C95 JUMP JUMPDEST PUSH2 0x11DB JUMP JUMPDEST STOP JUMPDEST CALLVALUE DUP1 ISZERO PUSH2 0x2BE JUMPI PUSH0 DUP1 REVERT JUMPDEST POP PUSH2 0x2D9 PUSH1 0x4 DUP1 CALLDATASIZE SUB DUP2 ADD SWAP1 PUSH2 0x2D4 SWAP2 SWAP1 PUSH2 0x2A7E JUMP JUMPDEST PUSH2 0x12FA JUMP JUMPDEST PUSH1 0x40 MLOAD PUSH2 0x2E6 SWAP2 SWAP1 PUSH2 0x2AB8 JUMP JUMPDEST PUSH1 0x40 MLOAD DUP1 SWAP2 SUB SWAP1 RETURN JUMPDEST CALLVALUE DUP1 ISZERO PUSH2 0x2FA JUMPI PUSH0 DUP1 REVERT JUMPDEST POP PUSH2 0x303 PUSH2 0x1335 JUMP JUMPDEST PUSH1 0x40 MLOAD PUSH2 0x310 SWAP2 SWAP1 PUSH2 0x2EA7 JUMP JUMPDEST PUSH1 0x40 MLOAD DUP1 SWAP2 SUB SWAP1 RETURN JUMPDEST CALLVALUE DUP1 ISZERO PUSH2 0x324 JUMPI PUSH0 DUP1 REVERT JUMPDEST POP PUSH2 0x32D PUSH2 0x1502 JUMP JUMPDEST STOP JUMPDEST CALLVALUE DUP1 ISZERO PUSH2 0x33A JUMPI PUSH0 DUP1 REVERT JUMPDEST POP PUSH2 0x355 PUSH1 0x4 DUP1 CALLDATASIZE SUB DUP2 ADD SWAP1 PUSH2 0x350 SWAP2 SWAP1 PUSH2 0x2B07 JUMP JUMPDEST PUSH2 0x15C9 JUMP JUMPDEST PUSH1 0x40 MLOAD PUSH2 0x362 SWAP2 SWAP1 PUSH2 0x2F67 JUMP JUMPDEST PUSH1 0x40 MLOAD DUP1 SWAP2 SUB SWAP1 RETURN JUMPDEST CALLVALUE DUP1 ISZERO PUSH2 0x376 JUMPI PUSH0 DUP1 REVERT JUMPDEST POP PUSH2 0x37F PUSH2 0x1715 JUMP JUMPDEST STOP JUMPDEST CALLVALUE DUP1 ISZERO PUSH2 0x38C JUMPI PUSH0 DUP1 REVERT JUMPDEST POP PUSH2 0x3A7 PUSH1 0x4 DUP1 CALLDATASIZE SUB DUP2 ADD SWAP1 PUSH2 0x3A2 SWAP2 SWAP1 PUSH2 0x32B2 JUMP JUMPDEST PUSH2 0x18C1 JUMP JUMPDEST STOP JUMPDEST CALLVALUE DUP1 ISZERO PUSH2 0x3B4 JUMPI PUSH0 DUP1 REVERT JUMPDEST POP PUSH2 0x3CF PUSH1 0x4 DUP1 CALLDATASIZE SUB DUP2 ADD SWAP1 PUSH2 0x3CA SWAP2 SWAP1 PUSH2 0x2A7E JUMP JUMPDEST PUSH2 0x1A8E JUMP JUMPDEST PUSH1 0x40 MLOAD PUSH2 0x3DC SWAP2 SWAP1 PUSH2 0x342E JUMP JUMPDEST PUSH1 0x40 MLOAD DUP1 SWAP2 SUB SWAP1 RETURN JUMPDEST CALLVALUE DUP1 ISZERO PUSH2 0x3F0 JUMPI PUSH0 DUP1 REVERT JUMPDEST POP PUSH2 0x3F9 PUSH2 0x1EFF JUMP JUMPDEST PUSH1 0x40 MLOAD PUSH2 0x406 SWAP2 SWAP1 PUSH2 0x3629 JUMP JUMPDEST PUSH1 0x40 MLOAD DUP1 SWAP2 SUB SWAP1 RETURN JUMPDEST CALLVALUE DUP1 ISZERO PUSH2 0x41A JUMPI PUSH0 DUP1 REVERT JUMPDEST POP PUSH2 0x435 PUSH1 0x4 DUP1 CALLDATASIZE SUB DUP2 ADD SWAP1 PUSH2 0x430 SWAP2 SWAP1 PUSH2 0x3649 JUMP JUMPDEST PUSH2 0x2092 JUMP JUMPDEST STOP JUMPDEST CALLVALUE DUP1 ISZERO PUSH2 0x442 JUMPI PUSH0 DUP1 REVERT JUMPDEST POP PUSH2 0x45D PUSH1 0x4 DUP1 CALLDATASIZE SUB DUP2 ADD SWAP1 PUSH2 0x458 SWAP2 SWAP1 PUSH2 0x2A7E JUMP JUMPDEST PUSH2 0x2306 JUMP JUMPDEST PUSH1 0x40 MLOAD PUSH2 0x46A SWAP2 SWAP1 PUSH2 0x3687 JUMP JUMPDEST PUSH1 0x40 MLOAD DUP1 SWAP2 SUB SWAP1 RETURN JUMPDEST CALLVALUE DUP1 ISZERO PUSH2 0x47E JUMPI PUSH0 DUP1 REVERT JUMPDEST POP PUSH2 0x499 PUSH1 0x4 DUP1 CALLDATASIZE SUB DUP2 ADD SWAP1 PUSH2 0x494 SWAP2 SWAP1 PUSH2 0x2C95 JUMP JUMPDEST PUSH2 0x23A5 JUMP JUMPDEST STOP JUMPDEST CALLVALUE DUP1 ISZERO PUSH2 0x4A6 JUMPI PUSH0 DUP1 REVERT JUMPDEST POP PUSH2 0x4AF PUSH2 0x24C4 JUMP JUMPDEST PUSH1 0x40 MLOAD PUSH2 0x4BC SWAP2 SWAP1 PUSH2 0x2AB8 JUMP JUMPDEST PUSH1 0x40 MLOAD DUP1 SWAP2 SUB SWAP1 RETURN JUMPDEST PUSH1 0x60 PUSH0 JUMPDEST PUSH1 0x7 DUP1 SLOAD SWAP1 POP DUP2 LT ISZERO PUSH2 0x56C JUMPI PUSH1 0x7 DUP2 DUP2 SLOAD DUP2 LT PUSH2 0x4EA JUMPI PUSH2 0x4E9 PUSH2 0x36A0 JUMP JUMPDEST JUMPDEST SWAP1 PUSH0 MSTORE PUSH1 0x20 PUSH0 KECCAK256 ADD PUSH0 SWAP1 SLOAD SWAP1 PUSH2 0x100 EXP SWAP1 DIV PUSH20 0xFFFFFFFFFFFFFFFFFFFFFFFFFFFFFFFFFFFFFFFF AND DUP3 DUP3 DUP2 MLOAD DUP2 LT PUSH2 0x525 JUMPI PUSH2 0x524 PUSH2 0x36A0 JUMP JUMPDEST JUMPDEST PUSH1 0x20 MUL PUSH1 0x20 ADD ADD SWAP1 PUSH20 0xFFFFFFFFFFFFFFFFFFFFFFFFFFFFFFFFFFFFFFFF AND SWAP1 DUP2 PUSH20 0xFFFFFFFFFFFFFFFFFFFFFFFFFFFFFFFFFFFFFFFF AND DUP2 MSTORE POP POP DUP1 DUP1 PUSH1 0x1 ADD SWAP2 POP POP PUSH2 0x4C9 JUMP JUMPDEST POP SWAP1 JUMP JUMPDEST PUSH0 PUSH1 0x1 SWAP1 SLOAD SWAP1 PUSH2 0x100 EXP SWAP1 DIV PUSH20 0xFFFFFFFFFFFFFFFFFFFFFFFFFFFFFFFFFFFFFFFF AND PUSH20 0xFFFFFFFFFFFFFFFFFFFFFFFFFFFFFFFFFFFFFFFF AND CALLER PUSH20 0xFFFFFFFFFFFFFFFFFFFFFFFFFFFFFFFFFFFFFFFF AND EQ PUSH2 0x5FF JUMPI PUSH1 0x40 MLOAD PUSH32 0x8C379A000000000000000000000000000000000000000000000000000000000 DUP2 MSTORE PUSH1 0x4 ADD PUSH2 0x5F6 SWAP1 PUSH2 0x3727 JUMP JUMPDEST PUSH1 0x40 MLOAD DUP1 SWAP2 SUB SWAP1 REVERT JUMPDEST PUSH0 DUP1 SLOAD SWAP1 PUSH2 0x100 EXP SWAP1 DIV PUSH1 0xFF AND ISZERO PUSH2 0x64C JUMPI PUSH1 0x40 MLOAD PUSH32 0x8C379A000000000000000000000000000000000000000000000000000000000 DUP2 MSTORE PUSH1 0x4 ADD PUSH2 0x643 SWAP1 PUSH2 0x378F JUMP JUMPDEST PUSH1 0x40 MLOAD DUP1 SWAP2 SUB SWAP1 REVERT JUMPDEST DUP1 PUSH1 0x1 PUSH0 PUSH2 0x100 EXP DUP2 SLOAD DUP2 PUSH20 0xFFFFFFFFFFFFFFFFFFFFFFFFFFFFFFFFFFFFFFFF MUL NOT AND SWAP1 DUP4 PUSH20 0xFFFFFFFFFFFFFFFFFFFFFFFFFFFFFFFFFFFFFFFF AND MUL OR SWAP1 SSTORE POP PUSH1 0x1 PUSH0 DUP1 PUSH2 0x100 EXP DUP2 SLOAD DUP2 PUSH1 0xFF MUL NOT AND SWAP1 DUP4 ISZERO ISZERO MUL OR SWAP1 SSTORE POP POP JUMP JUMPDEST PUSH0 PUSH1 0x1 PUSH0 SWAP1 SLOAD SWAP1 PUSH2 0x100 EXP SWAP1 DIV PUSH20 0xFFFFFFFFFFFFFFFFFFFFFFFFFFFFFFFFFFFFFFFF AND SWAP1 POP PUSH0 PUSH20 0xFFFFFFFFFFFFFFFFFFFFFFFFFFFFFFFFFFFFFFFF AND PUSH1 0x6 PUSH0 DUP5 DUP2 MSTORE PUSH1 0x20 ADD SWAP1 DUP2 MSTORE PUSH1 0x20 ADD PUSH0 KECCAK256 PUSH0 ADD PUSH0 SWAP1 SLOAD SWAP1 PUSH2 0x100 EXP SWAP1 DIV PUSH20 0xFFFFFFFFFFFFFFFFFFFFFFFFFFFFFFFFFFFFFFFF AND PUSH20 0xFFFFFFFFFFFFFFFFFFFFFFFFFFFFFFFFFFFFFFFF AND SUB PUSH2 0x804 JUMPI DUP1 PUSH20 0xFFFFFFFFFFFFFFFFFFFFFFFFFFFFFFFFFFFFFFFF AND PUSH4 0x9DC29FAC CALLER PUSH1 0x6 PUSH0 DUP7 DUP2 MSTORE PUSH1 0x20 ADD SWAP1 DUP2 MSTORE PUSH1 0x20 ADD PUSH0 KECCAK256 PUSH1 0x1 ADD SLOAD PUSH1 0x40 MLOAD DUP4 PUSH4 0xFFFFFFFF AND PUSH1 0xE0 SHL DUP2 MSTORE PUSH1 0x4 ADD PUSH2 0x781 SWAP3 SWAP2 SWAP1 PUSH2 0x37AD JUMP JUMPDEST PUSH0 PUSH1 0x40 MLOAD DUP1 DUP4 SUB DUP2 PUSH0 DUP8 DUP1 EXTCODESIZE ISZERO DUP1 ISZERO PUSH2 0x798 JUMPI PUSH0 DUP1 REVERT JUMPDEST POP GAS CALL ISZERO DUP1 ISZERO PUSH2 0x7AA JUMPI RETURNDATASIZE PUSH0 DUP1 RETURNDATACOPY RETURNDATASIZE PUSH0 REVERT JUMPDEST POP POP POP POP CALLER PUSH1 0x6 PUSH0 DUP5 DUP2 MSTORE PUSH1 0x20 ADD SWAP1 DUP2 MSTORE PUSH1 0x20 ADD PUSH0 KECCAK256 PUSH0 ADD PUSH0 PUSH2 0x100 EXP DUP2 SLOAD DUP2 PUSH20 0xFFFFFFFFFFFFFFFFFFFFFFFFFFFFFFFFFFFFFFFF MUL NOT AND SWAP1 DUP4 PUSH20 0xFFFFFFFFFFFFFFFFFFFFFFFFFFFFFFFFFFFFFFFF AND MUL OR SWAP1 SSTORE POP PUSH2 0x9BE JUMP JUMPDEST PUSH0 PUSH20 0xFFFFFFFFFFFFFFFFFFFFFFFFFFFFFFFFFFFFFFFF AND PUSH1 0x6 PUSH0 DUP5 DUP2 MSTORE PUSH1 0x20 ADD SWAP1 DUP2 MSTORE PUSH1 0x20 ADD PUSH0 KECCAK256 PUSH0 ADD PUSH0 SWAP1 SLOAD SWAP1 PUSH2 0x100 EXP SWAP1 DIV PUSH20 0xFFFFFFFFFFFFFFFFFFFFFFFFFFFFFFFFFFFFFFFF AND PUSH20 0xFFFFFFFFFFFFFFFFFFFFFFFFFFFFFFFFFFFFFFFF AND EQ PUSH2 0x98B JUMPI PUSH0 DUP2 PUSH20 0xFFFFFFFFFFFFFFFFFFFFFFFFFFFFFFFFFFFFFFFF AND PUSH4 0xA9059CBB PUSH1 0x6 PUSH0 DUP7 DUP2 MSTORE PUSH1 0x20 ADD SWAP1 DUP2 MSTORE PUSH1 0x20 ADD PUSH0 KECCAK256 PUSH0 ADD PUSH0 SWAP1 SLOAD SWAP1 PUSH2 0x100 EXP SWAP1 DIV PUSH20 0xFFFFFFFFFFFFFFFFFFFFFFFFFFFFFFFFFFFFFFFF AND PUSH1 0x6 PUSH0 DUP8 DUP2 MSTORE PUSH1 0x20 ADD SWAP1 DUP2 MSTORE PUSH1 0x20 ADD PUSH0 KECCAK256 PUSH1 0x2 ADD SLOAD PUSH1 0x40 MLOAD DUP4 PUSH4 0xFFFFFFFF AND PUSH1 0xE0 SHL DUP2 MSTORE PUSH1 0x4 ADD PUSH2 0x8EB SWAP3 SWAP2 SWAP1 PUSH2 0x37AD JUMP JUMPDEST PUSH1 0x20 PUSH1 0x40 MLOAD DUP1 DUP4 SUB DUP2 PUSH0 DUP8 GAS CALL ISZERO DUP1 ISZERO PUSH2 0x907 JUMPI RETURNDATASIZE PUSH0 DUP1 RETURNDATACOPY RETURNDATASIZE PUSH0 REVERT JUMPDEST POP POP POP POP PUSH1 0x40 MLOAD RETURNDATASIZE PUSH1 0x1F NOT PUSH1 0x1F DUP3 ADD AND DUP3 ADD DUP1 PUSH1 0x40 MSTORE POP DUP2 ADD SWAP1 PUSH2 0x92B SWAP2 SWAP1 PUSH2 0x3809 JUMP JUMPDEST SWAP1 POP DUP1 ISZERO PUSH2 0x985 JUMPI CALLER PUSH1 0x6 PUSH0 DUP6 DUP2 MSTORE PUSH1 0x20 ADD SWAP1 DUP2 MSTORE PUSH1 0x20 ADD PUSH0 KECCAK256 PUSH0 ADD PUSH0 PUSH2 0x100 EXP DUP2 SLOAD DUP2 PUSH20 0xFFFFFFFFFFFFFFFFFFFFFFFFFFFFFFFFFFFFFFFF MUL NOT AND SWAP1 DUP4 PUSH20 0xFFFFFFFFFFFFFFFFFFFFFFFFFFFFFFFFFFFFFFFF AND MUL OR SWAP1 SSTORE POP JUMPDEST POP PUSH2 0x9BD JUMP JUMPDEST PUSH1 0x40 MLOAD PUSH32 0x1AB7AE5600000000000000000000000000000000000000000000000000000000 DUP2 MSTORE PUSH1 0x4 ADD PUSH1 0x40 MLOAD DUP1 SWAP2 SUB SWAP1 REVERT JUMPDEST JUMPDEST POP POP JUMP JUMPDEST PUSH0 PUSH1 0x1 SWAP1 SLOAD SWAP1 PUSH2 0x100 EXP SWAP1 DIV PUSH20 0xFFFFFFFFFFFFFFFFFFFFFFFFFFFFFFFFFFFFFFFF AND DUP2 JUMP JUMPDEST PUSH0 DUP1 PUSH1 0x2 SLOAD PUSH1 0x3 SLOAD SWAP2 POP SWAP2 POP SWAP1 SWAP2 JUMP JUMPDEST PUSH1 0x60 PUSH0 JUMPDEST PUSH1 0x8 DUP1 SLOAD SWAP1 POP DUP2 LT ISZERO PUSH2 0xA9E JUMPI PUSH1 0x8 DUP2 DUP2 SLOAD DUP2 LT PUSH2 0xA1C JUMPI PUSH2 0xA1B PUSH2 0x36A0 JUMP JUMPDEST JUMPDEST SWAP1 PUSH0 MSTORE PUSH1 0x20 PUSH0 KECCAK256 ADD PUSH0 SWAP1 SLOAD SWAP1 PUSH2 0x100 EXP SWAP1 DIV PUSH20 0xFFFFFFFFFFFFFFFFFFFFFFFFFFFFFFFFFFFFFFFF AND DUP3 DUP3 DUP2 MLOAD DUP2 LT PUSH2 0xA57 JUMPI PUSH2 0xA56 PUSH2 0x36A0 JUMP JUMPDEST JUMPDEST PUSH1 0x20 MUL PUSH1 0x20 ADD ADD SWAP1 PUSH20 0xFFFFFFFFFFFFFFFFFFFFFFFFFFFFFFFFFFFFFFFF AND SWAP1 DUP2 PUSH20 0xFFFFFFFFFFFFFFFFFFFFFFFFFFFFFFFFFFFFFFFF AND DUP2 MSTORE POP POP DUP1 DUP1 PUSH1 0x1 ADD SWAP2 POP POP PUSH2 0x9FB JUMP JUMPDEST POP SWAP1 JUMP JUMPDEST PUSH0 PUSH1 0x1 PUSH0 SWAP1 SLOAD SWAP1 PUSH2 0x100 EXP SWAP1 DIV PUSH20 0xFFFFFFFFFFFFFFFFFFFFFFFFFFFFFFFFFFFFFFFF AND SWAP1 POP DUP1 PUSH20 0xFFFFFFFFFFFFFFFFFFFFFFFFFFFFFFFFFFFFFFFF AND PUSH4 0x40C10F19 CALLER PUSH8 0xDE0B6B3A7640000 PUSH3 0x186A0 CALLVALUE PUSH2 0xAFC SWAP2 SWAP1 PUSH2 0x3861 JUMP JUMPDEST PUSH2 0xB06 SWAP2 SWAP1 PUSH2 0x38CF JUMP JUMPDEST PUSH1 0x40 MLOAD DUP4 PUSH4 0xFFFFFFFF AND PUSH1 0xE0 SHL DUP2 MSTORE PUSH1 0x4 ADD PUSH2 0xB23 SWAP3 SWAP2 SWAP1 PUSH2 0x37AD JUMP JUMPDEST PUSH0 PUSH1 0x40 MLOAD DUP1 DUP4 SUB DUP2 PUSH0 DUP8 DUP1 EXTCODESIZE ISZERO DUP1 ISZERO PUSH2 0xB3A JUMPI PUSH0 DUP1 REVERT JUMPDEST POP GAS CALL ISZERO DUP1 ISZERO PUSH2 0xB4C JUMPI RETURNDATASIZE PUSH0 DUP1 RETURNDATACOPY RETURNDATASIZE PUSH0 REVERT JUMPDEST POP POP POP POP POP JUMP JUMPDEST CALLER PUSH20 0xFFFFFFFFFFFFFFFFFFFFFFFFFFFFFFFFFFFFFFFF AND PUSH1 0x6 PUSH0 DUP4 DUP2 MSTORE PUSH1 0x20 ADD SWAP1 DUP2 MSTORE PUSH1 0x20 ADD PUSH0 KECCAK256 PUSH0 ADD PUSH0 SWAP1 SLOAD SWAP1 PUSH2 0x100 EXP SWAP1 DIV PUSH20 0xFFFFFFFFFFFFFFFFFFFFFFFFFFFFFFFFFFFFFFFF AND PUSH20 0xFFFFFFFFFFFFFFFFFFFFFFFFFFFFFFFFFFFFFFFF AND EQ PUSH2 0xBF3 JUMPI PUSH1 0x40 MLOAD PUSH32 0x8C379A000000000000000000000000000000000000000000000000000000000 DUP2 MSTORE PUSH1 0x4 ADD PUSH2 0xBEA SWAP1 PUSH2 0x3949 JUMP JUMPDEST PUSH1 0x40 MLOAD DUP1 SWAP2 SUB SWAP1 REVERT JUMPDEST PUSH0 PUSH20 0xFFFFFFFFFFFFFFFFFFFFFFFFFFFFFFFFFFFFFFFF AND PUSH1 0x6 PUSH0 DUP4 DUP2 MSTORE PUSH1 0x20 ADD SWAP1 DUP2 MSTORE PUSH1 0x20 ADD PUSH0 KECCAK256 PUSH1 0x3 ADD PUSH1 0x1 SWAP1 SLOAD SWAP1 PUSH2 0x100 EXP SWAP1 DIV PUSH20 0xFFFFFFFFFFFFFFFFFFFFFFFFFFFFFFFFFFFFFFFF AND PUSH20 0xFFFFFFFFFFFFFFFFFFFFFFFFFFFFFFFFFFFFFFFF AND SUB PUSH2 0xC95 JUMPI PUSH1 0x40 MLOAD PUSH32 0x8C379A000000000000000000000000000000000000000000000000000000000 DUP2 MSTORE PUSH1 0x4 ADD PUSH2 0xC8C SWAP1 PUSH2 0x39B1 JUMP JUMPDEST PUSH1 0x40 MLOAD DUP1 SWAP2 SUB SWAP1 REVERT JUMPDEST PUSH0 PUSH1 0x6 PUSH0 DUP4 DUP2 MSTORE PUSH1 0x20 ADD SWAP1 DUP2 MSTORE PUSH1 0x20 ADD PUSH0 KECCAK256 PUSH1 0x3 ADD PUSH1 0x1 SWAP1 SLOAD SWAP1 PUSH2 0x100 EXP SWAP1 DIV PUSH20 0xFFFFFFFFFFFFFFFFFFFFFFFFFFFFFFFFFFFFFFFF AND SWAP1 POP PUSH0 DUP2 PUSH20 0xFFFFFFFFFFFFFFFFFFFFFFFFFFFFFFFFFFFFFFFF AND PUSH4 0x48361490 PUSH1 0x40 MLOAD DUP2 PUSH4 0xFFFFFFFF AND PUSH1 0xE0 SHL DUP2 MSTORE PUSH1 0x4 ADD PUSH0 PUSH1 0x40 MLOAD DUP1 DUP4 SUB DUP2 DUP7 GAS STATICCALL ISZERO DUP1 ISZERO PUSH2 0xD16 JUMPI RETURNDATASIZE PUSH0 DUP1 RETURNDATACOPY RETURNDATASIZE PUSH0 REVERT JUMPDEST POP POP POP POP PUSH1 0x40 MLOAD RETURNDATASIZE PUSH0 DUP3 RETURNDATACOPY RETURNDATASIZE PUSH1 0x1F NOT PUSH1 0x1F DUP3 ADD AND DUP3 ADD DUP1 PUSH1 0x40 MSTORE POP DUP2 ADD SWAP1 PUSH2 0xD3E SWAP2 SWAP1 PUSH2 0x3B08 JUMP JUMPDEST SWAP1 POP PUSH0 DUP3 PUSH20 0xFFFFFFFFFFFFFFFFFFFFFFFFFFFFFFFFFFFFFFFF AND PUSH4 0x737D6A6C PUSH1 0x40 MLOAD DUP2 PUSH4 0xFFFFFFFF AND PUSH1 0xE0 SHL DUP2 MSTORE PUSH1 0x4 ADD PUSH0 PUSH1 0x40 MLOAD DUP1 DUP4 SUB DUP2 DUP7 GAS STATICCALL ISZERO DUP1 ISZERO PUSH2 0xD89 JUMPI RETURNDATASIZE PUSH0 DUP1 RETURNDATACOPY RETURNDATASIZE PUSH0 REVERT JUMPDEST POP POP POP POP PUSH1 0x40 MLOAD RETURNDATASIZE PUSH0 DUP3 RETURNDATACOPY RETURNDATASIZE PUSH1 0x1F NOT PUSH1 0x1F DUP3 ADD AND DUP3 ADD DUP1 PUSH1 0x40 MSTORE POP DUP2 ADD SWAP1 PUSH2 0xDB1 SWAP2 SWAP1 PUSH2 0x3B08 JUMP JUMPDEST SWAP1 POP PUSH0 DUP1 JUMPDEST DUP4 MLOAD DUP2 LT ISZERO PUSH2 0xF3F JUMPI PUSH0 DUP5 DUP3 DUP2 MLOAD DUP2 LT PUSH2 0xDD3 JUMPI PUSH2 0xDD2 PUSH2 0x36A0 JUMP JUMPDEST JUMPDEST PUSH1 0x20 MUL PUSH1 0x20 ADD ADD MLOAD PUSH0 ADD MLOAD SWAP1 POP DUP5 DUP3 DUP2 MLOAD DUP2 LT PUSH2 0xDF3 JUMPI PUSH2 0xDF2 PUSH2 0x36A0 JUMP JUMPDEST JUMPDEST PUSH1 0x20 MUL PUSH1 0x20 ADD ADD MLOAD PUSH1 0x20 ADD MLOAD DUP2 PUSH20 0xFFFFFFFFFFFFFFFFFFFFFFFFFFFFFFFFFFFFFFFF AND PUSH4 0x70A08231 CALLER PUSH1 0x40 MLOAD DUP3 PUSH4 0xFFFFFFFF AND PUSH1 0xE0 SHL DUP2 MSTORE PUSH1 0x4 ADD PUSH2 0xE38 SWAP2 SWAP1 PUSH2 0x2AB8 JUMP JUMPDEST PUSH1 0x20 PUSH1 0x40 MLOAD DUP1 DUP4 SUB DUP2 DUP7 GAS STATICCALL ISZERO DUP1 ISZERO PUSH2 0xE53 JUMPI RETURNDATASIZE PUSH0 DUP1 RETURNDATACOPY RETURNDATASIZE PUSH0 REVERT JUMPDEST POP POP POP POP PUSH1 0x40 MLOAD RETURNDATASIZE PUSH1 0x1F NOT PUSH1 0x1F DUP3 ADD AND DUP3 ADD DUP1 PUSH1 0x40 MSTORE POP DUP2 ADD SWAP1 PUSH2 0xE77 SWAP2 SWAP1 PUSH2 0x3B4F JUMP JUMPDEST PUSH2 0xE81 SWAP2 SWAP1 PUSH2 0x38CF JUMP JUMPDEST DUP4 LT PUSH2 0xF2D JUMPI DUP5 DUP3 DUP2 MLOAD DUP2 LT PUSH2 0xE9A JUMPI PUSH2 0xE99 PUSH2 0x36A0 JUMP JUMPDEST JUMPDEST PUSH1 0x20 MUL PUSH1 0x20 ADD ADD MLOAD PUSH1 0x20 ADD MLOAD DUP2 PUSH20 0xFFFFFFFFFFFFFFFFFFFFFFFFFFFFFFFFFFFFFFFF AND PUSH4 0x70A08231 CALLER PUSH1 0x40 MLOAD DUP3 PUSH4 0xFFFFFFFF AND PUSH1 0xE0 SHL DUP2 MSTORE PUSH1 0x4 ADD PUSH2 0xEDF SWAP2 SWAP1 PUSH2 0x2AB8 JUMP JUMPDEST PUSH1 0x20 PUSH1 0x40 MLOAD DUP1 DUP4 SUB DUP2 DUP7 GAS STATICCALL ISZERO DUP1 ISZERO PUSH2 0xEFA JUMPI RETURNDATASIZE PUSH0 DUP1 RETURNDATACOPY RETURNDATASIZE PUSH0 REVERT JUMPDEST POP POP POP POP PUSH1 0x40 MLOAD RETURNDATASIZE PUSH1 0x1F NOT PUSH1 0x1F DUP3 ADD AND DUP3 ADD DUP1 PUSH1 0x40 MSTORE POP DUP2 ADD SWAP1 PUSH2 0xF1E SWAP2 SWAP1 PUSH2 0x3B4F JUMP JUMPDEST PUSH2 0xF28 SWAP2 SWAP1 PUSH2 0x38CF JUMP JUMPDEST PUSH2 0xF2F JUMP JUMPDEST DUP3 JUMPDEST SWAP3 POP POP DUP1 DUP1 PUSH1 0x1 ADD SWAP2 POP POP PUSH2 0xDB6 JUMP JUMPDEST POP PUSH0 PUSH1 0xA PUSH1 0x6 PUSH0 DUP9 DUP2 MSTORE PUSH1 0x20 ADD SWAP1 DUP2 MSTORE PUSH1 0x20 ADD PUSH0 KECCAK256 PUSH1 0x4 ADD SLOAD NUMBER PUSH2 0xF63 SWAP2 SWAP1 PUSH2 0x3B7A JUMP JUMPDEST PUSH2 0xF6D SWAP2 SWAP1 PUSH2 0x38CF JUMP JUMPDEST SWAP1 POP PUSH0 DUP2 DUP4 LT PUSH2 0xF7D JUMPI DUP2 PUSH2 0xF7F JUMP JUMPDEST DUP3 JUMPDEST SWAP1 POP PUSH0 JUMPDEST DUP6 MLOAD DUP2 LT ISZERO PUSH2 0x104C JUMPI PUSH0 DUP7 DUP3 DUP2 MLOAD DUP2 LT PUSH2 0xFA0 JUMPI PUSH2 0xF9F PUSH2 0x36A0 JUMP JUMPDEST JUMPDEST PUSH1 0x20 MUL PUSH1 0x20 ADD ADD MLOAD PUSH0 ADD MLOAD SWAP1 POP DUP1 PUSH20 0xFFFFFFFFFFFFFFFFFFFFFFFFFFFFFFFFFFFFFFFF AND PUSH4 0x9DC29FAC CALLER DUP10 DUP6 DUP2 MLOAD DUP2 LT PUSH2 0xFDD JUMPI PUSH2 0xFDC PUSH2 0x36A0 JUMP JUMPDEST JUMPDEST PUSH1 0x20 MUL PUSH1 0x20 ADD ADD MLOAD PUSH1 0x20 ADD MLOAD DUP7 PUSH2 0xFF4 SWAP2 SWAP1 PUSH2 0x3861 JUMP JUMPDEST PUSH1 0x40 MLOAD DUP4 PUSH4 0xFFFFFFFF AND PUSH1 0xE0 SHL DUP2 MSTORE PUSH1 0x4 ADD PUSH2 0x1011 SWAP3 SWAP2 SWAP1 PUSH2 0x37AD JUMP JUMPDEST PUSH0 PUSH1 0x40 MLOAD DUP1 DUP4 SUB DUP2 PUSH0 DUP8 DUP1 EXTCODESIZE ISZERO DUP1 ISZERO PUSH2 0x1028 JUMPI PUSH0 DUP1 REVERT JUMPDEST POP GAS CALL ISZERO DUP1 ISZERO PUSH2 0x103A JUMPI RETURNDATASIZE PUSH0 DUP1 RETURNDATACOPY RETURNDATASIZE PUSH0 REVERT JUMPDEST POP POP POP POP POP DUP1 DUP1 PUSH1 0x1 ADD SWAP2 POP POP PUSH2 0xF83 JUMP JUMPDEST POP PUSH0 JUMPDEST DUP5 MLOAD DUP2 LT ISZERO PUSH2 0x1118 JUMPI PUSH0 DUP6 DUP3 DUP2 MLOAD DUP2 LT PUSH2 0x106C JUMPI PUSH2 0x106B PUSH2 0x36A0 JUMP JUMPDEST JUMPDEST PUSH1 0x20 MUL PUSH1 0x20 ADD ADD MLOAD PUSH0 ADD MLOAD SWAP1 POP DUP1 PUSH20 0xFFFFFFFFFFFFFFFFFFFFFFFFFFFFFFFFFFFFFFFF AND PUSH4 0x40C10F19 CALLER DUP9 DUP6 DUP2 MLOAD DUP2 LT PUSH2 0x10A9 JUMPI PUSH2 0x10A8 PUSH2 0x36A0 JUMP JUMPDEST JUMPDEST PUSH1 0x20 MUL PUSH1 0x20 ADD ADD MLOAD PUSH1 0x20 ADD MLOAD DUP7 PUSH2 0x10C0 SWAP2 SWAP1 PUSH2 0x3861 JUMP JUMPDEST PUSH1 0x40 MLOAD DUP4 PUSH4 0xFFFFFFFF AND PUSH1 0xE0 SHL DUP2 MSTORE PUSH1 0x4 ADD PUSH2 0x10DD SWAP3 SWAP2 SWAP1 PUSH2 0x37AD JUMP JUMPDEST PUSH0 PUSH1 0x40 MLOAD DUP1 DUP4 SUB DUP2 PUSH0 DUP8 DUP1 EXTCODESIZE ISZERO DUP1 ISZERO PUSH2 0x10F4 JUMPI PUSH0 DUP1 REVERT JUMPDEST POP GAS CALL ISZERO DUP1 ISZERO PUSH2 0x1106 JUMPI RETURNDATASIZE PUSH0 DUP1 RETURNDATACOPY RETURNDATASIZE PUSH0 REVERT JUMPDEST POP POP POP POP POP DUP1 DUP1 PUSH1 0x1 ADD SWAP2 POP POP PUSH2 0x104F JUMP JUMPDEST POP POP POP POP POP POP POP POP JUMP JUMPDEST CALLER PUSH20 0xFFFFFFFFFFFFFFFFFFFFFFFFFFFFFFFFFFFFFFFF AND PUSH1 0x6 PUSH0 DUP4 DUP2 MSTORE PUSH1 0x20 ADD SWAP1 DUP2 MSTORE PUSH1 0x20 ADD PUSH0 KECCAK256 PUSH0 ADD PUSH0 SWAP1 SLOAD SWAP1 PUSH2 0x100 EXP SWAP1 DIV PUSH20 0xFFFFFFFFFFFFFFFFFFFFFFFFFFFFFFFFFFFFFFFF AND PUSH20 0xFFFFFFFFFFFFFFFFFFFFFFFFFFFFFFFFFFFFFFFF AND SUB PUSH2 0x11A5 JUMPI DUP2 PUSH1 0x6 PUSH0 DUP4 DUP2 MSTORE PUSH1 0x20 ADD SWAP1 DUP2 MSTORE PUSH1 0x20 ADD PUSH0 KECCAK256 PUSH1 0x2 ADD DUP2 SWAP1 SSTORE POP PUSH2 0x11D7 JUMP JUMPDEST PUSH1 0x40 MLOAD PUSH32 0x3D693ADA00000000000000000000000000000000000000000000000000000000 DUP2 MSTORE PUSH1 0x4 ADD PUSH1 0x40 MLOAD DUP1 SWAP2 SUB SWAP1 REVERT JUMPDEST POP POP JUMP JUMPDEST PUSH0 PUSH1 0x1 SWAP1 SLOAD SWAP1 PUSH2 0x100 EXP SWAP1 DIV PUSH20 0xFFFFFFFFFFFFFFFFFFFFFFFFFFFFFFFFFFFFFFFF AND PUSH20 0xFFFFFFFFFFFFFFFFFFFFFFFFFFFFFFFFFFFFFFFF AND CALLER PUSH20 0xFFFFFFFFFFFFFFFFFFFFFFFFFFFFFFFFFFFFFFFF AND EQ PUSH2 0x126A JUMPI PUSH1 0x40 MLOAD PUSH32 0x8C379A000000000000000000000000000000000000000000000000000000000 DUP2 MSTORE PUSH1 0x4 ADD PUSH2 0x1261 SWAP1 PUSH2 0x3727 JUMP JUMPDEST PUSH1 0x40 MLOAD DUP1 SWAP2 SUB SWAP1 REVERT JUMPDEST PUSH0 JUMPDEST DUP2 MLOAD DUP2 LT ISZERO PUSH2 0x12F6 JUMPI DUP2 DUP2 DUP2 MLOAD DUP2 LT PUSH2 0x1288 JUMPI PUSH2 0x1287 PUSH2 0x36A0 JUMP JUMPDEST JUMPDEST PUSH1 0x20 MUL PUSH1 0x20 ADD ADD MLOAD PUSH1 0x8 DUP3 DUP2 SLOAD DUP2 LT PUSH2 0x12A4 JUMPI PUSH2 0x12A3 PUSH2 0x36A0 JUMP JUMPDEST JUMPDEST SWAP1 PUSH0 MSTORE PUSH1 0x20 PUSH0 KECCAK256 ADD PUSH0 PUSH2 0x100 EXP DUP2 SLOAD DUP2 PUSH20 0xFFFFFFFFFFFFFFFFFFFFFFFFFFFFFFFFFFFFFFFF MUL NOT AND SWAP1 DUP4 PUSH20 0xFFFFFFFFFFFFFFFFFFFFFFFFFFFFFFFFFFFFFFFF AND MUL OR SWAP1 SSTORE POP DUP1 DUP1 PUSH1 0x1 ADD SWAP2 POP POP PUSH2 0x126C JUMP JUMPDEST POP POP JUMP JUMPDEST PUSH0 PUSH1 0x6 PUSH0 DUP4 DUP2 MSTORE PUSH1 0x20 ADD SWAP1 DUP2 MSTORE PUSH1 0x20 ADD PUSH0 KECCAK256 PUSH0 ADD PUSH0 SWAP1 SLOAD SWAP1 PUSH2 0x100 EXP SWAP1 DIV PUSH20 0xFFFFFFFFFFFFFFFFFFFFFFFFFFFFFFFFFFFFFFFF AND SWAP1 POP SWAP2 SWAP1 POP JUMP JUMPDEST PUSH1 0x60 PUSH0 PUSH1 0x9 SLOAD PUSH8 0xFFFFFFFFFFFFFFFF DUP2 GT ISZERO PUSH2 0x1354 JUMPI PUSH2 0x1353 PUSH2 0x2B59 JUMP JUMPDEST JUMPDEST PUSH1 0x40 MLOAD SWAP1 DUP1 DUP3 MSTORE DUP1 PUSH1 0x20 MUL PUSH1 0x20 ADD DUP3 ADD PUSH1 0x40 MSTORE DUP1 ISZERO PUSH2 0x138D JUMPI DUP2 PUSH1 0x20 ADD JUMPDEST PUSH2 0x137A PUSH2 0x27D4 JUMP JUMPDEST DUP2 MSTORE PUSH1 0x20 ADD SWAP1 PUSH1 0x1 SWAP1 SUB SWAP1 DUP2 PUSH2 0x1372 JUMPI SWAP1 POP JUMPDEST POP SWAP1 POP PUSH0 JUMPDEST PUSH1 0x9 SLOAD DUP2 LT ISZERO PUSH2 0x14FA JUMPI PUSH1 0x6 PUSH0 DUP3 DUP2 MSTORE PUSH1 0x20 ADD SWAP1 DUP2 MSTORE PUSH1 0x20 ADD PUSH0 KECCAK256 PUSH1 0x40 MLOAD DUP1 PUSH2 0x100 ADD PUSH1 0x40 MSTORE SWAP1 DUP2 PUSH0 DUP3 ADD PUSH0 SWAP1 SLOAD SWAP1 PUSH2 0x100 EXP SWAP1 DIV PUSH20 0xFFFFFFFFFFFFFFFFFFFFFFFFFFFFFFFFFFFFFFFF AND PUSH20 0xFFFFFFFFFFFFFFFFFFFFFFFFFFFFFFFFFFFFFFFF AND PUSH20 0xFFFFFFFFFFFFFFFFFFFFFFFFFFFFFFFFFFFFFFFF AND DUP2 MSTORE PUSH1 0x20 ADD PUSH1 0x1 DUP3 ADD SLOAD DUP2 MSTORE PUSH1 0x20 ADD PUSH1 0x2 DUP3 ADD SLOAD DUP2 MSTORE PUSH1 0x20 ADD PUSH1 0x3 DUP3 ADD PUSH0 SWAP1 SLOAD SWAP1 PUSH2 0x100 EXP SWAP1 DIV PUSH1 0xFF AND PUSH1 0x5 DUP2 GT ISZERO PUSH2 0x1445 JUMPI PUSH2 0x1444 PUSH2 0x2D14 JUMP JUMPDEST JUMPDEST PUSH1 0x5 DUP2 GT ISZERO PUSH2 0x1457 JUMPI PUSH2 0x1456 PUSH2 0x2D14 JUMP JUMPDEST JUMPDEST DUP2 MSTORE PUSH1 0x20 ADD PUSH1 0x3 DUP3 ADD PUSH1 0x1 SWAP1 SLOAD SWAP1 PUSH2 0x100 EXP SWAP1 DIV PUSH20 0xFFFFFFFFFFFFFFFFFFFFFFFFFFFFFFFFFFFFFFFF AND PUSH20 0xFFFFFFFFFFFFFFFFFFFFFFFFFFFFFFFFFFFFFFFF AND PUSH20 0xFFFFFFFFFFFFFFFFFFFFFFFFFFFFFFFFFFFFFFFF AND DUP2 MSTORE PUSH1 0x20 ADD PUSH1 0x4 DUP3 ADD SLOAD DUP2 MSTORE PUSH1 0x20 ADD PUSH1 0x5 DUP3 ADD SLOAD DUP2 MSTORE PUSH1 0x20 ADD PUSH1 0x6 DUP3 ADD SLOAD DUP2 MSTORE POP POP DUP3 DUP3 DUP2 MLOAD DUP2 LT PUSH2 0x14E2 JUMPI PUSH2 0x14E1 PUSH2 0x36A0 JUMP JUMPDEST JUMPDEST PUSH1 0x20 MUL PUSH1 0x20 ADD ADD DUP2 SWAP1 MSTORE POP DUP1 DUP1 PUSH1 0x1 ADD SWAP2 POP POP PUSH2 0x1392 JUMP JUMPDEST POP DUP1 SWAP2 POP POP SWAP1 JUMP JUMPDEST PUSH0 PUSH1 0x3 SLOAD GT DUP1 ISZERO PUSH2 0x1514 JUMPI POP PUSH0 PUSH1 0x2 SLOAD GT JUMPDEST PUSH2 0x1553 JUMPI PUSH1 0x40 MLOAD PUSH32 0x8C379A000000000000000000000000000000000000000000000000000000000 DUP2 MSTORE PUSH1 0x4 ADD PUSH2 0x154A SWAP1 PUSH2 0x3C1D JUMP JUMPDEST PUSH1 0x40 MLOAD DUP1 SWAP2 SUB SWAP1 REVERT JUMPDEST PUSH0 PUSH1 0x2 PUSH1 0x3 SLOAD PUSH2 0x1563 SWAP2 SWAP1 PUSH2 0x3C44 JUMP JUMPDEST SWAP1 POP PUSH0 PUSH1 0x2 DUP1 SLOAD PUSH2 0x1574 SWAP2 SWAP1 PUSH2 0x3C44 JUMP JUMPDEST SWAP1 POP PUSH0 JUMPDEST PUSH1 0x3 SLOAD DUP2 LT ISZERO PUSH2 0x15C4 JUMPI PUSH0 JUMPDEST PUSH1 0x2 SLOAD DUP2 LT ISZERO PUSH2 0x15B6 JUMPI PUSH0 PUSH2 0x159B DUP4 DUP4 DUP8 DUP8 PUSH2 0x24E9 JUMP JUMPDEST SWAP1 POP PUSH2 0x15A8 DUP4 DUP4 DUP4 PUSH2 0x25F4 JUMP JUMPDEST POP DUP1 DUP1 PUSH1 0x1 ADD SWAP2 POP POP PUSH2 0x1584 JUMP JUMPDEST POP DUP1 DUP1 PUSH1 0x1 ADD SWAP2 POP POP PUSH2 0x1578 JUMP JUMPDEST POP POP POP JUMP JUMPDEST PUSH2 0x15D1 PUSH2 0x27D4 JUMP JUMPDEST PUSH1 0x6 PUSH0 PUSH2 0x15DE DUP6 DUP6 PUSH2 0x277F JUMP JUMPDEST DUP2 MSTORE PUSH1 0x20 ADD SWAP1 DUP2 MSTORE PUSH1 0x20 ADD PUSH0 KECCAK256 PUSH1 0x40 MLOAD DUP1 PUSH2 0x100 ADD PUSH1 0x40 MSTORE SWAP1 DUP2 PUSH0 DUP3 ADD PUSH0 SWAP1 SLOAD SWAP1 PUSH2 0x100 EXP SWAP1 DIV PUSH20 0xFFFFFFFFFFFFFFFFFFFFFFFFFFFFFFFFFFFFFFFF AND PUSH20 0xFFFFFFFFFFFFFFFFFFFFFFFFFFFFFFFFFFFFFFFF AND PUSH20 0xFFFFFFFFFFFFFFFFFFFFFFFFFFFFFFFFFFFFFFFF AND DUP2 MSTORE PUSH1 0x20 ADD PUSH1 0x1 DUP3 ADD SLOAD DUP2 MSTORE PUSH1 0x20 ADD PUSH1 0x2 DUP3 ADD SLOAD DUP2 MSTORE PUSH1 0x20 ADD PUSH1 0x3 DUP3 ADD PUSH0 SWAP1 SLOAD SWAP1 PUSH2 0x100 EXP SWAP1 DIV PUSH1 0xFF AND PUSH1 0x5 DUP2 GT ISZERO PUSH2 0x1683 JUMPI PUSH2 0x1682 PUSH2 0x2D14 JUMP JUMPDEST JUMPDEST PUSH1 0x5 DUP2 GT ISZERO PUSH2 0x1695 JUMPI PUSH2 0x1694 PUSH2 0x2D14 JUMP JUMPDEST JUMPDEST DUP2 MSTORE PUSH1 0x20 ADD PUSH1 0x3 DUP3 ADD PUSH1 0x1 SWAP1 SLOAD SWAP1 PUSH2 0x100 EXP SWAP1 DIV PUSH20 0xFFFFFFFFFFFFFFFFFFFFFFFFFFFFFFFFFFFFFFFF AND PUSH20 0xFFFFFFFFFFFFFFFFFFFFFFFFFFFFFFFFFFFFFFFF AND PUSH20 0xFFFFFFFFFFFFFFFFFFFFFFFFFFFFFFFFFFFFFFFF AND DUP2 MSTORE PUSH1 0x20 ADD PUSH1 0x4 DUP3 ADD SLOAD DUP2 MSTORE PUSH1 0x20 ADD PUSH1 0x5 DUP3 ADD SLOAD DUP2 MSTORE PUSH1 0x20 ADD PUSH1 0x6 DUP3 ADD SLOAD DUP2 MSTORE POP POP SWAP1 POP SWAP3 SWAP2 POP POP JUMP JUMPDEST CALLER PUSH20 0xFFFFFFFFFFFFFFFFFFFFFFFFFFFFFFFFFFFFFFFF AND PUSH0 PUSH1 0x1 SWAP1 SLOAD SWAP1 PUSH2 0x100 EXP SWAP1 DIV PUSH20 0xFFFFFFFFFFFFFFFFFFFFFFFFFFFFFFFFFFFFFFFF AND PUSH20 0xFFFFFFFFFFFFFFFFFFFFFFFFFFFFFFFFFFFFFFFF AND EQ PUSH2 0x17A4 JUMPI PUSH1 0x40 MLOAD PUSH32 0x8C379A000000000000000000000000000000000000000000000000000000000 DUP2 MSTORE PUSH1 0x4 ADD PUSH2 0x179B SWAP1 PUSH2 0x3727 JUMP JUMPDEST PUSH1 0x40 MLOAD DUP1 SWAP2 SUB SWAP1 REVERT JUMPDEST PUSH0 JUMPDEST PUSH1 0x9 SLOAD DUP2 LT ISZERO PUSH2 0x1853 JUMPI PUSH1 0x6 PUSH0 DUP3 DUP2 MSTORE PUSH1 0x20 ADD SWAP1 DUP2 MSTORE PUSH1 0x20 ADD PUSH0 KECCAK256 PUSH0 DUP1 DUP3 ADD PUSH0 PUSH2 0x100 EXP DUP2 SLOAD SWAP1 PUSH20 0xFFFFFFFFFFFFFFFFFFFFFFFFFFFFFFFFFFFFFFFF MUL NOT AND SWAP1 SSTORE PUSH1 0x1 DUP3 ADD PUSH0 SWAP1 SSTORE PUSH1 0x2 DUP3 ADD PUSH0 SWAP1 SSTORE PUSH1 0x3 DUP3 ADD PUSH0 PUSH2 0x100 EXP DUP2 SLOAD SWAP1 PUSH1 0xFF MUL NOT AND SWAP1 SSTORE PUSH1 0x3 DUP3 ADD PUSH1 0x1 PUSH2 0x100 EXP DUP2 SLOAD SWAP1 PUSH20 0xFFFFFFFFFFFFFFFFFFFFFFFFFFFFFFFFFFFFFFFF MUL NOT AND SWAP1 SSTORE PUSH1 0x4 DUP3 ADD PUSH0 SWAP1 SSTORE PUSH1 0x5 DUP3 ADD PUSH0 SWAP1 SSTORE PUSH1 0x6 DUP3 ADD PUSH0 SWAP1 SSTORE POP POP DUP1 DUP1 PUSH1 0x1 ADD SWAP2 POP POP PUSH2 0x17A6 JUMP JUMPDEST POP PUSH0 PUSH1 0x9 DUP2 SWAP1 SSTORE POP PUSH0 JUMPDEST PUSH1 0xA SLOAD DUP2 LT ISZERO PUSH2 0x18B7 JUMPI PUSH1 0x5 PUSH0 DUP3 DUP2 MSTORE PUSH1 0x20 ADD SWAP1 DUP2 MSTORE PUSH1 0x20 ADD PUSH0 KECCAK256 PUSH0 DUP1 DUP3 ADD PUSH0 PUSH2 0x100 EXP DUP2 SLOAD SWAP1 PUSH1 0xFF MUL NOT AND SWAP1 SSTORE PUSH1 0x1 DUP3 ADD PUSH0 PUSH2 0x189A SWAP2 SWAP1 PUSH2 0x284F JUMP JUMPDEST PUSH1 0x2 DUP3 ADD PUSH0 SWAP1 SSTORE PUSH1 0x3 DUP3 ADD PUSH0 SWAP1 SSTORE POP POP DUP1 DUP1 PUSH1 0x1 ADD SWAP2 POP POP PUSH2 0x185D JUMP JUMPDEST POP PUSH0 PUSH1 0xA DUP2 SWAP1 SSTORE POP JUMP JUMPDEST PUSH0 PUSH1 0x1 SWAP1 SLOAD SWAP1 PUSH2 0x100 EXP SWAP1 DIV PUSH20 0xFFFFFFFFFFFFFFFFFFFFFFFFFFFFFFFFFFFFFFFF AND PUSH20 0xFFFFFFFFFFFFFFFFFFFFFFFFFFFFFFFFFFFFFFFF AND CALLER PUSH20 0xFFFFFFFFFFFFFFFFFFFFFFFFFFFFFFFFFFFFFFFF AND EQ PUSH2 0x1950 JUMPI PUSH1 0x40 MLOAD PUSH32 0x8C379A000000000000000000000000000000000000000000000000000000000 DUP2 MSTORE PUSH1 0x4 ADD PUSH2 0x1947 SWAP1 PUSH2 0x3727 JUMP JUMPDEST PUSH1 0x40 MLOAD DUP1 SWAP2 SUB SWAP1 REVERT JUMPDEST PUSH0 JUMPDEST DUP5 MLOAD DUP2 LT ISZERO PUSH2 0x1A87 JUMPI PUSH1 0x40 MLOAD DUP1 PUSH1 0x80 ADD PUSH1 0x40 MSTORE DUP1 DUP7 DUP4 DUP2 MLOAD DUP2 LT PUSH2 0x1979 JUMPI PUSH2 0x1978 PUSH2 0x36A0 JUMP JUMPDEST JUMPDEST PUSH1 0x20 MUL PUSH1 0x20 ADD ADD MLOAD PUSH1 0x4 DUP2 GT ISZERO PUSH2 0x1993 JUMPI PUSH2 0x1992 PUSH2 0x2D14 JUMP JUMPDEST JUMPDEST DUP2 MSTORE PUSH1 0x20 ADD DUP6 DUP4 DUP2 MLOAD DUP2 LT PUSH2 0x19AB JUMPI PUSH2 0x19AA PUSH2 0x36A0 JUMP JUMPDEST JUMPDEST PUSH1 0x20 MUL PUSH1 0x20 ADD ADD MLOAD DUP2 MSTORE PUSH1 0x20 ADD DUP5 DUP4 DUP2 MLOAD DUP2 LT PUSH2 0x19CB JUMPI PUSH2 0x19CA PUSH2 0x36A0 JUMP JUMPDEST JUMPDEST PUSH1 0x20 MUL PUSH1 0x20 ADD ADD MLOAD DUP2 MSTORE PUSH1 0x20 ADD DUP4 DUP4 DUP2 MLOAD DUP2 LT PUSH2 0x19EB JUMPI PUSH2 0x19EA PUSH2 0x36A0 JUMP JUMPDEST JUMPDEST PUSH1 0x20 MUL PUSH1 0x20 ADD ADD MLOAD DUP2 MSTORE POP PUSH1 0x5 PUSH0 PUSH1 0xA SLOAD DUP2 MSTORE PUSH1 0x20 ADD SWAP1 DUP2 MSTORE PUSH1 0x20 ADD PUSH0 KECCAK256 PUSH0 DUP3 ADD MLOAD DUP2 PUSH0 ADD PUSH0 PUSH2 0x100 EXP DUP2 SLOAD DUP2 PUSH1 0xFF MUL NOT AND SWAP1 DUP4 PUSH1 0x4 DUP2 GT ISZERO PUSH2 0x1A31 JUMPI PUSH2 0x1A30 PUSH2 0x2D14 JUMP JUMPDEST JUMPDEST MUL OR SWAP1 SSTORE POP PUSH1 0x20 DUP3 ADD MLOAD DUP2 PUSH1 0x1 ADD SWAP1 DUP2 PUSH2 0x1A4B SWAP2 SWAP1 PUSH2 0x3EA6 JUMP JUMPDEST POP PUSH1 0x40 DUP3 ADD MLOAD DUP2 PUSH1 0x2 ADD SSTORE PUSH1 0x60 DUP3 ADD MLOAD DUP2 PUSH1 0x3 ADD SSTORE SWAP1 POP POP PUSH1 0xA PUSH0 DUP2 SLOAD DUP1 SWAP3 SWAP2 SWAP1 PUSH2 0x1A75 SWAP1 PUSH2 0x3F75 JUMP JUMPDEST SWAP2 SWAP1 POP SSTORE POP DUP1 DUP1 PUSH1 0x1 ADD SWAP2 POP POP PUSH2 0x1952 JUMP JUMPDEST POP POP POP POP POP JUMP JUMPDEST PUSH1 0x60 CALLER PUSH20 0xFFFFFFFFFFFFFFFFFFFFFFFFFFFFFFFFFFFFFFFF AND PUSH1 0x6 PUSH0 DUP5 DUP2 MSTORE PUSH1 0x20 ADD SWAP1 DUP2 MSTORE PUSH1 0x20 ADD PUSH0 KECCAK256 PUSH0 ADD PUSH0 SWAP1 SLOAD SWAP1 PUSH2 0x100 EXP SWAP1 DIV PUSH20 0xFFFFFFFFFFFFFFFFFFFFFFFFFFFFFFFFFFFFFFFF AND PUSH20 0xFFFFFFFFFFFFFFFFFFFFFFFFFFFFFFFFFFFFFFFF AND EQ PUSH2 0x1B30 JUMPI PUSH1 0x40 MLOAD PUSH32 0x8C379A000000000000000000000000000000000000000000000000000000000 DUP2 MSTORE PUSH1 0x4 ADD PUSH2 0x1B27 SWAP1 PUSH2 0x3949 JUMP JUMPDEST PUSH1 0x40 MLOAD DUP1 SWAP2 SUB SWAP1 REVERT JUMPDEST PUSH0 PUSH20 0xFFFFFFFFFFFFFFFFFFFFFFFFFFFFFFFFFFFFFFFF AND PUSH1 0x6 PUSH0 DUP5 DUP2 MSTORE PUSH1 0x20 ADD SWAP1 DUP2 MSTORE PUSH1 0x20 ADD PUSH0 KECCAK256 PUSH1 0x3 ADD PUSH1 0x1 SWAP1 SLOAD SWAP1 PUSH2 0x100 EXP SWAP1 DIV PUSH20 0xFFFFFFFFFFFFFFFFFFFFFFFFFFFFFFFFFFFFFFFF AND PUSH20 0xFFFFFFFFFFFFFFFFFFFFFFFFFFFFFFFFFFFFFFFF AND SUB PUSH2 0x1BD2 JUMPI PUSH1 0x40 MLOAD PUSH32 0x8C379A000000000000000000000000000000000000000000000000000000000 DUP2 MSTORE PUSH1 0x4 ADD PUSH2 0x1BC9 SWAP1 PUSH2 0x39B1 JUMP JUMPDEST PUSH1 0x40 MLOAD DUP1 SWAP2 SUB SWAP1 REVERT JUMPDEST PUSH0 PUSH1 0x6 PUSH0 DUP5 DUP2 MSTORE PUSH1 0x20 ADD SWAP1 DUP2 MSTORE PUSH1 0x20 ADD PUSH0 KECCAK256 PUSH1 0x3 ADD PUSH1 0x1 SWAP1 SLOAD SWAP1 PUSH2 0x100 EXP SWAP1 DIV PUSH20 0xFFFFFFFFFFFFFFFFFFFFFFFFFFFFFFFFFFFFFFFF AND SWAP1 POP PUSH0 DUP2 PUSH20 0xFFFFFFFFFFFFFFFFFFFFFFFFFFFFFFFFFFFFFFFF AND PUSH4 0x48361490 PUSH1 0x40 MLOAD DUP2 PUSH4 0xFFFFFFFF AND PUSH1 0xE0 SHL DUP2 MSTORE PUSH1 0x4 ADD PUSH0 PUSH1 0x40 MLOAD DUP1 DUP4 SUB DUP2 DUP7 GAS STATICCALL ISZERO DUP1 ISZERO PUSH2 0x1C53 JUMPI RETURNDATASIZE PUSH0 DUP1 RETURNDATACOPY RETURNDATASIZE PUSH0 REVERT JUMPDEST POP POP POP POP PUSH1 0x40 MLOAD RETURNDATASIZE PUSH0 DUP3 RETURNDATACOPY RETURNDATASIZE PUSH1 0x1F NOT PUSH1 0x1F DUP3 ADD AND DUP3 ADD DUP1 PUSH1 0x40 MSTORE POP DUP2 ADD SWAP1 PUSH2 0x1C7B SWAP2 SWAP1 PUSH2 0x3B08 JUMP JUMPDEST SWAP1 POP PUSH0 DUP3 PUSH20 0xFFFFFFFFFFFFFFFFFFFFFFFFFFFFFFFFFFFFFFFF AND PUSH4 0x737D6A6C PUSH1 0x40 MLOAD DUP2 PUSH4 0xFFFFFFFF AND PUSH1 0xE0 SHL DUP2 MSTORE PUSH1 0x4 ADD PUSH0 PUSH1 0x40 MLOAD DUP1 DUP4 SUB DUP2 DUP7 GAS STATICCALL ISZERO DUP1 ISZERO PUSH2 0x1CC6 JUMPI RETURNDATASIZE PUSH0 DUP1 RETURNDATACOPY RETURNDATASIZE PUSH0 REVERT JUMPDEST POP POP POP POP PUSH1 0x40 MLOAD RETURNDATASIZE PUSH0 DUP3 RETURNDATACOPY RETURNDATASIZE PUSH1 0x1F NOT PUSH1 0x1F DUP3 ADD AND DUP3 ADD DUP1 PUSH1 0x40 MSTORE POP DUP2 ADD SWAP1 PUSH2 0x1CEE SWAP2 SWAP1 PUSH2 0x3B08 JUMP JUMPDEST SWAP1 POP PUSH0 PUSH32 0xFFFFFFFFFFFFFFFFFFFFFFFFFFFFFFFFFFFFFFFFFFFFFFFFFFFFFFFFFFFFFFFF SWAP1 POP PUSH0 JUMPDEST DUP4 MLOAD DUP2 LT ISZERO PUSH2 0x1DFF JUMPI PUSH0 DUP5 DUP3 DUP2 MLOAD DUP2 LT PUSH2 0x1D33 JUMPI PUSH2 0x1D32 PUSH2 0x36A0 JUMP JUMPDEST JUMPDEST PUSH1 0x20 MUL PUSH1 0x20 ADD ADD MLOAD PUSH0 ADD MLOAD SWAP1 POP PUSH0 DUP6 DUP4 DUP2 MLOAD DUP2 LT PUSH2 0x1D54 JUMPI PUSH2 0x1D53 PUSH2 0x36A0 JUMP JUMPDEST JUMPDEST PUSH1 0x20 MUL PUSH1 0x20 ADD ADD MLOAD PUSH1 0x20 ADD MLOAD DUP3 PUSH20 0xFFFFFFFFFFFFFFFFFFFFFFFFFFFFFFFFFFFFFFFF AND PUSH4 0x70A08231 CALLER PUSH1 0x40 MLOAD DUP3 PUSH4 0xFFFFFFFF AND PUSH1 0xE0 SHL DUP2 MSTORE PUSH1 0x4 ADD PUSH2 0x1D99 SWAP2 SWAP1 PUSH2 0x2AB8 JUMP JUMPDEST PUSH1 0x20 PUSH1 0x40 MLOAD DUP1 DUP4 SUB DUP2 DUP7 GAS STATICCALL ISZERO DUP1 ISZERO PUSH2 0x1DB4 JUMPI RETURNDATASIZE PUSH0 DUP1 RETURNDATACOPY RETURNDATASIZE PUSH0 REVERT JUMPDEST POP POP POP POP PUSH1 0x40 MLOAD RETURNDATASIZE PUSH1 0x1F NOT PUSH1 0x1F DUP3 ADD AND DUP3 ADD DUP1 PUSH1 0x40 MSTORE POP DUP2 ADD SWAP1 PUSH2 0x1DD8 SWAP2 SWAP1 PUSH2 0x3B4F JUMP JUMPDEST PUSH2 0x1DE2 SWAP2 SWAP1 PUSH2 0x38CF JUMP JUMPDEST SWAP1 POP DUP4 DUP2 LT ISZERO PUSH2 0x1DF0 JUMPI DUP1 SWAP4 POP JUMPDEST POP POP DUP1 DUP1 PUSH1 0x1 ADD SWAP2 POP POP PUSH2 0x1D16 JUMP JUMPDEST POP PUSH0 PUSH1 0xA PUSH1 0x6 PUSH0 DUP10 DUP2 MSTORE PUSH1 0x20 ADD SWAP1 DUP2 MSTORE PUSH1 0x20 ADD PUSH0 KECCAK256 PUSH1 0x4 ADD SLOAD NUMBER PUSH2 0x1E23 SWAP2 SWAP1 PUSH2 0x3B7A JUMP JUMPDEST PUSH2 0x1E2D SWAP2 SWAP1 PUSH2 0x38CF JUMP JUMPDEST SWAP1 POP PUSH0 DUP2 DUP4 LT PUSH2 0x1E3D JUMPI DUP2 PUSH2 0x1E3F JUMP JUMPDEST DUP3 JUMPDEST SWAP1 POP PUSH0 DUP5 MLOAD PUSH8 0xFFFFFFFFFFFFFFFF DUP2 GT ISZERO PUSH2 0x1E5D JUMPI PUSH2 0x1E5C PUSH2 0x2B59 JUMP JUMPDEST JUMPDEST PUSH1 0x40 MLOAD SWAP1 DUP1 DUP3 MSTORE DUP1 PUSH1 0x20 MUL PUSH1 0x20 ADD DUP3 ADD PUSH1 0x40 MSTORE DUP1 ISZERO PUSH2 0x1E8B JUMPI DUP2 PUSH1 0x20 ADD PUSH1 0x20 DUP3 MUL DUP1 CALLDATASIZE DUP4 CALLDATACOPY DUP1 DUP3 ADD SWAP2 POP POP SWAP1 POP JUMPDEST POP SWAP1 POP PUSH0 JUMPDEST DUP6 MLOAD DUP2 LT ISZERO PUSH2 0x1EEF JUMPI DUP6 DUP2 DUP2 MLOAD DUP2 LT PUSH2 0x1EAC JUMPI PUSH2 0x1EAB PUSH2 0x36A0 JUMP JUMPDEST JUMPDEST PUSH1 0x20 MUL PUSH1 0x20 ADD ADD MLOAD PUSH1 0x20 ADD MLOAD DUP4 PUSH2 0x1EC3 SWAP2 SWAP1 PUSH2 0x3861 JUMP JUMPDEST DUP3 DUP3 DUP2 MLOAD DUP2 LT PUSH2 0x1ED6 JUMPI PUSH2 0x1ED5 PUSH2 0x36A0 JUMP JUMPDEST JUMPDEST PUSH1 0x20 MUL PUSH1 0x20 ADD ADD DUP2 DUP2 MSTORE POP POP DUP1 DUP1 PUSH1 0x1 ADD SWAP2 POP POP PUSH2 0x1E90 JUMP JUMPDEST POP DUP1 SWAP8 POP POP POP POP POP POP POP POP SWAP2 SWAP1 POP JUMP JUMPDEST PUSH1 0x60 PUSH0 PUSH1 0xA SLOAD PUSH8 0xFFFFFFFFFFFFFFFF DUP2 GT ISZERO PUSH2 0x1F1E JUMPI PUSH2 0x1F1D PUSH2 0x2B59 JUMP JUMPDEST JUMPDEST PUSH1 0x40 MLOAD SWAP1 DUP1 DUP3 MSTORE DUP1 PUSH1 0x20 MUL PUSH1 0x20 ADD DUP3 ADD PUSH1 0x40 MSTORE DUP1 ISZERO PUSH2 0x1F57 JUMPI DUP2 PUSH1 0x20 ADD JUMPDEST PUSH2 0x1F44 PUSH2 0x288C JUMP JUMPDEST DUP2 MSTORE PUSH1 0x20 ADD SWAP1 PUSH1 0x1 SWAP1 SUB SWAP1 DUP2 PUSH2 0x1F3C JUMPI SWAP1 POP JUMPDEST POP SWAP1 POP PUSH0 JUMPDEST PUSH1 0xA SLOAD DUP2 LT ISZERO PUSH2 0x208A JUMPI PUSH1 0x5 PUSH0 DUP3 DUP2 MSTORE PUSH1 0x20 ADD SWAP1 DUP2 MSTORE PUSH1 0x20 ADD PUSH0 KECCAK256 PUSH1 0x40 MLOAD DUP1 PUSH1 0x80 ADD PUSH1 0x40 MSTORE SWAP1 DUP2 PUSH0 DUP3 ADD PUSH0 SWAP1 SLOAD SWAP1 PUSH2 0x100 EXP SWAP1 DIV PUSH1 0xFF AND PUSH1 0x4 DUP2 GT ISZERO PUSH2 0x1FA5 JUMPI PUSH2 0x1FA4 PUSH2 0x2D14 JUMP JUMPDEST JUMPDEST PUSH1 0x4 DUP2 GT ISZERO PUSH2 0x1FB7 JUMPI PUSH2 0x1FB6 PUSH2 0x2D14 JUMP JUMPDEST JUMPDEST DUP2 MSTORE PUSH1 0x20 ADD PUSH1 0x1 DUP3 ADD DUP1 SLOAD PUSH2 0x1FCB SWAP1 PUSH2 0x3CD9 JUMP JUMPDEST DUP1 PUSH1 0x1F ADD PUSH1 0x20 DUP1 SWAP2 DIV MUL PUSH1 0x20 ADD PUSH1 0x40 MLOAD SWAP1 DUP2 ADD PUSH1 0x40 MSTORE DUP1 SWAP3 SWAP2 SWAP1 DUP2 DUP2 MSTORE PUSH1 0x20 ADD DUP3 DUP1 SLOAD PUSH2 0x1FF7 SWAP1 PUSH2 0x3CD9 JUMP JUMPDEST DUP1 ISZERO PUSH2 0x2042 JUMPI DUP1 PUSH1 0x1F LT PUSH2 0x2019 JUMPI PUSH2 0x100 DUP1 DUP4 SLOAD DIV MUL DUP4 MSTORE SWAP2 PUSH1 0x20 ADD SWAP2 PUSH2 0x2042 JUMP JUMPDEST DUP3 ADD SWAP2 SWAP1 PUSH0 MSTORE PUSH1 0x20 PUSH0 KECCAK256 SWAP1 JUMPDEST DUP2 SLOAD DUP2 MSTORE SWAP1 PUSH1 0x1 ADD SWAP1 PUSH1 0x20 ADD DUP1 DUP4 GT PUSH2 0x2025 JUMPI DUP3 SWAP1 SUB PUSH1 0x1F AND DUP3 ADD SWAP2 JUMPDEST POP POP POP POP POP DUP2 MSTORE PUSH1 0x20 ADD PUSH1 0x2 DUP3 ADD SLOAD DUP2 MSTORE PUSH1 0x20 ADD PUSH1 0x3 DUP3 ADD SLOAD DUP2 MSTORE POP POP DUP3 DUP3 DUP2 MLOAD DUP2 LT PUSH2 0x2072 JUMPI PUSH2 0x2071 PUSH2 0x36A0 JUMP JUMPDEST JUMPDEST PUSH1 0x20 MUL PUSH1 0x20 ADD ADD DUP2 SWAP1 MSTORE POP DUP1 DUP1 PUSH1 0x1 ADD SWAP2 POP POP PUSH2 0x1F5C JUMP JUMPDEST POP DUP1 SWAP2 POP POP SWAP1 JUMP JUMPDEST PUSH0 DUP2 SWAP1 POP DUP1 PUSH20 0xFFFFFFFFFFFFFFFFFFFFFFFFFFFFFFFFFFFFFFFF AND PUSH4 0x63A2B02B PUSH1 0x40 MLOAD DUP2 PUSH4 0xFFFFFFFF AND PUSH1 0xE0 SHL DUP2 MSTORE PUSH1 0x4 ADD PUSH1 0x20 PUSH1 0x40 MLOAD DUP1 DUP4 SUB DUP2 DUP7 GAS STATICCALL ISZERO DUP1 ISZERO PUSH2 0x20DF JUMPI RETURNDATASIZE PUSH0 DUP1 RETURNDATACOPY RETURNDATASIZE PUSH0 REVERT JUMPDEST POP POP POP POP PUSH1 0x40 MLOAD RETURNDATASIZE PUSH1 0x1F NOT PUSH1 0x1F DUP3 ADD AND DUP3 ADD DUP1 PUSH1 0x40 MSTORE POP DUP2 ADD SWAP1 PUSH2 0x2103 SWAP2 SWAP1 PUSH2 0x3809 JUMP JUMPDEST ISZERO PUSH2 0x2179 JUMPI DUP2 PUSH1 0x6 PUSH0 DUP6 DUP2 MSTORE PUSH1 0x20 ADD SWAP1 DUP2 MSTORE PUSH1 0x20 ADD PUSH0 KECCAK256 PUSH1 0x3 ADD PUSH1 0x1 PUSH2 0x100 EXP DUP2 SLOAD DUP2 PUSH20 0xFFFFFFFFFFFFFFFFFFFFFFFFFFFFFFFFFFFFFFFF MUL NOT AND SWAP1 DUP4 PUSH20 0xFFFFFFFFFFFFFFFFFFFFFFFFFFFFFFFFFFFFFFFF AND MUL OR SWAP1 SSTORE POP NUMBER PUSH1 0x6 PUSH0 DUP6 DUP2 MSTORE PUSH1 0x20 ADD SWAP1 DUP2 MSTORE PUSH1 0x20 ADD PUSH0 KECCAK256 PUSH1 0x4 ADD DUP2 SWAP1 SSTORE POP PUSH2 0x2301 JUMP JUMPDEST CALLER PUSH20 0xFFFFFFFFFFFFFFFFFFFFFFFFFFFFFFFFFFFFFFFF AND PUSH1 0x6 PUSH0 DUP6 DUP2 MSTORE PUSH1 0x20 ADD SWAP1 DUP2 MSTORE PUSH1 0x20 ADD PUSH0 KECCAK256 PUSH0 ADD PUSH0 SWAP1 SLOAD SWAP1 PUSH2 0x100 EXP SWAP1 DIV PUSH20 0xFFFFFFFFFFFFFFFFFFFFFFFFFFFFFFFFFFFFFFFF AND PUSH20 0xFFFFFFFFFFFFFFFFFFFFFFFFFFFFFFFFFFFFFFFF AND SUB PUSH2 0x22CE JUMPI DUP1 PUSH20 0xFFFFFFFFFFFFFFFFFFFFFFFFFFFFFFFFFFFFFFFF AND PUSH4 0x23B872DD CALLER ADDRESS PUSH1 0x1 PUSH1 0x40 MLOAD DUP5 PUSH4 0xFFFFFFFF AND PUSH1 0xE0 SHL DUP2 MSTORE PUSH1 0x4 ADD PUSH2 0x221C SWAP4 SWAP3 SWAP2 SWAP1 PUSH2 0x3FF5 JUMP JUMPDEST PUSH1 0x20 PUSH1 0x40 MLOAD DUP1 DUP4 SUB DUP2 PUSH0 DUP8 GAS CALL ISZERO DUP1 ISZERO PUSH2 0x2238 JUMPI RETURNDATASIZE PUSH0 DUP1 RETURNDATACOPY RETURNDATASIZE PUSH0 REVERT JUMPDEST POP POP POP POP PUSH1 0x40 MLOAD RETURNDATASIZE PUSH1 0x1F NOT PUSH1 0x1F DUP3 ADD AND DUP3 ADD DUP1 PUSH1 0x40 MSTORE POP DUP2 ADD SWAP1 PUSH2 0x225C SWAP2 SWAP1 PUSH2 0x3809 JUMP JUMPDEST POP DUP2 PUSH1 0x6 PUSH0 DUP6 DUP2 MSTORE PUSH1 0x20 ADD SWAP1 DUP2 MSTORE PUSH1 0x20 ADD PUSH0 KECCAK256 PUSH1 0x3 ADD PUSH1 0x1 PUSH2 0x100 EXP DUP2 SLOAD DUP2 PUSH20 0xFFFFFFFFFFFFFFFFFFFFFFFFFFFFFFFFFFFFFFFF MUL NOT AND SWAP1 DUP4 PUSH20 0xFFFFFFFFFFFFFFFFFFFFFFFFFFFFFFFFFFFFFFFF AND MUL OR SWAP1 SSTORE POP NUMBER PUSH1 0x6 PUSH0 DUP6 DUP2 MSTORE PUSH1 0x20 ADD SWAP1 DUP2 MSTORE PUSH1 0x20 ADD PUSH0 KECCAK256 PUSH1 0x4 ADD DUP2 SWAP1 SSTORE POP PUSH2 0x2300 JUMP JUMPDEST PUSH1 0x40 MLOAD PUSH32 0x3D693ADA00000000000000000000000000000000000000000000000000000000 DUP2 MSTORE PUSH1 0x4 ADD PUSH1 0x40 MLOAD DUP1 SWAP2 SUB SWAP1 REVERT JUMPDEST JUMPDEST POP POP POP JUMP JUMPDEST PUSH0 DUP1 PUSH20 0xFFFFFFFFFFFFFFFFFFFFFFFFFFFFFFFFFFFFFFFF AND PUSH1 0x6 PUSH0 DUP5 DUP2 MSTORE PUSH1 0x20 ADD SWAP1 DUP2 MSTORE PUSH1 0x20 ADD PUSH0 KECCAK256 PUSH0 ADD PUSH0 SWAP1 SLOAD SWAP1 PUSH2 0x100 EXP SWAP1 DIV PUSH20 0xFFFFFFFFFFFFFFFFFFFFFFFFFFFFFFFFFFFFFFFF AND PUSH20 0xFFFFFFFFFFFFFFFFFFFFFFFFFFFFFFFFFFFFFFFF AND SUB PUSH2 0x2388 JUMPI PUSH1 0x6 PUSH0 DUP4 DUP2 MSTORE PUSH1 0x20 ADD SWAP1 DUP2 MSTORE PUSH1 0x20 ADD PUSH0 KECCAK256 PUSH1 0x1 ADD SLOAD SWAP1 POP PUSH2 0x23A0 JUMP JUMPDEST PUSH1 0x6 PUSH0 DUP4 DUP2 MSTORE PUSH1 0x20 ADD SWAP1 DUP2 MSTORE PUSH1 0x20 ADD PUSH0 KECCAK256 PUSH1 0x2 ADD SLOAD SWAP1 POP JUMPDEST SWAP2 SWAP1 POP JUMP JUMPDEST PUSH0 PUSH1 0x1 SWAP1 SLOAD SWAP1 PUSH2 0x100 EXP SWAP1 DIV PUSH20 0xFFFFFFFFFFFFFFFFFFFFFFFFFFFFFFFFFFFFFFFF AND PUSH20 0xFFFFFFFFFFFFFFFFFFFFFFFFFFFFFFFFFFFFFFFF AND CALLER PUSH20 0xFFFFFFFFFFFFFFFFFFFFFFFFFFFFFFFFFFFFFFFF AND EQ PUSH2 0x2434 JUMPI PUSH1 0x40 MLOAD PUSH32 0x8C379A000000000000000000000000000000000000000000000000000000000 DUP2 MSTORE PUSH1 0x4 ADD PUSH2 0x242B SWAP1 PUSH2 0x3727 JUMP JUMPDEST PUSH1 0x40 MLOAD DUP1 SWAP2 SUB SWAP1 REVERT JUMPDEST PUSH0 JUMPDEST DUP2 MLOAD DUP2 LT ISZERO PUSH2 0x24C0 JUMPI DUP2 DUP2 DUP2 MLOAD DUP2 LT PUSH2 0x2452 JUMPI PUSH2 0x2451 PUSH2 0x36A0 JUMP JUMPDEST JUMPDEST PUSH1 0x20 MUL PUSH1 0x20 ADD ADD MLOAD PUSH1 0x7 DUP3 DUP2 SLOAD DUP2 LT PUSH2 0x246E JUMPI PUSH2 0x246D PUSH2 0x36A0 JUMP JUMPDEST JUMPDEST SWAP1 PUSH0 MSTORE PUSH1 0x20 PUSH0 KECCAK256 ADD PUSH0 PUSH2 0x100 EXP DUP2 SLOAD DUP2 PUSH20 0xFFFFFFFFFFFFFFFFFFFFFFFFFFFFFFFFFFFFFFFF MUL NOT AND SWAP1 DUP4 PUSH20 0xFFFFFFFFFFFFFFFFFFFFFFFFFFFFFFFFFFFFFFFF AND MUL OR SWAP1 SSTORE POP DUP1 DUP1 PUSH1 0x1 ADD SWAP2 POP POP PUSH2 0x2436 JUMP JUMPDEST POP POP JUMP JUMPDEST PUSH1 0x1 PUSH0 SWAP1 SLOAD SWAP1 PUSH2 0x100 EXP SWAP1 DIV PUSH20 0xFFFFFFFFFFFFFFFFFFFFFFFFFFFFFFFFFFFFFFFF AND DUP2 JUMP JUMPDEST PUSH0 DUP1 PUSH2 0x24FF DUP4 DUP7 PUSH2 0x24FA SWAP2 SWAP1 PUSH2 0x402A JUMP JUMPDEST PUSH2 0x27B3 JUMP JUMPDEST PUSH2 0x2513 DUP6 DUP9 PUSH2 0x250E SWAP2 SWAP1 PUSH2 0x402A JUMP JUMPDEST PUSH2 0x27B3 JUMP JUMPDEST PUSH2 0x251D SWAP2 SWAP1 PUSH2 0x406A JUMP JUMPDEST SWAP1 POP PUSH1 0x2 DUP2 SLT ISZERO PUSH2 0x2532 JUMPI PUSH1 0x5 SWAP2 POP POP PUSH2 0x25EC JUMP JUMPDEST PUSH1 0x4 DUP2 SLT ISZERO PUSH2 0x2545 JUMPI PUSH1 0x4 SWAP2 POP POP PUSH2 0x25EC JUMP JUMPDEST PUSH1 0x6 DUP2 SLT ISZERO PUSH2 0x2558 JUMPI PUSH1 0x1 SWAP2 POP POP PUSH2 0x25EC JUMP JUMPDEST PUSH0 PUSH1 0x64 TIMESTAMP PREVRANDAO DUP10 DUP10 PUSH1 0x40 MLOAD PUSH1 0x20 ADD PUSH2 0x2572 SWAP5 SWAP4 SWAP3 SWAP2 SWAP1 PUSH2 0x40EB JUMP JUMPDEST PUSH1 0x40 MLOAD PUSH1 0x20 DUP2 DUP4 SUB SUB DUP2 MSTORE SWAP1 PUSH1 0x40 MSTORE DUP1 MLOAD SWAP1 PUSH1 0x20 ADD KECCAK256 PUSH0 SHR PUSH2 0x2594 SWAP2 SWAP1 PUSH2 0x4138 JUMP JUMPDEST SWAP1 POP PUSH1 0x14 DUP2 LT ISZERO PUSH2 0x25AA JUMPI PUSH1 0x2 SWAP3 POP POP POP PUSH2 0x25EC JUMP JUMPDEST PUSH1 0x28 DUP2 LT ISZERO PUSH2 0x25BE JUMPI PUSH1 0x3 SWAP3 POP POP POP PUSH2 0x25EC JUMP JUMPDEST PUSH1 0x3C DUP2 LT ISZERO PUSH2 0x25D2 JUMPI PUSH1 0x4 SWAP3 POP POP POP PUSH2 0x25EC JUMP JUMPDEST PUSH1 0x50 DUP2 LT ISZERO PUSH2 0x25E6 JUMPI PUSH1 0x1 SWAP3 POP POP POP PUSH2 0x25EC JUMP JUMPDEST PUSH0 SWAP3 POP POP POP JUMPDEST SWAP5 SWAP4 POP POP POP POP JUMP JUMPDEST PUSH0 PUSH2 0x25FF DUP5 DUP5 PUSH2 0x277F JUMP JUMPDEST SWAP1 POP PUSH1 0x40 MLOAD DUP1 PUSH2 0x100 ADD PUSH1 0x40 MSTORE DUP1 PUSH0 PUSH20 0xFFFFFFFFFFFFFFFFFFFFFFFFFFFFFFFFFFFFFFFF AND DUP2 MSTORE PUSH1 0x20 ADD PUSH0 DUP2 MSTORE PUSH1 0x20 ADD PUSH0 DUP2 MSTORE PUSH1 0x20 ADD DUP4 PUSH1 0x5 DUP2 GT ISZERO PUSH2 0x2648 JUMPI PUSH2 0x2647 PUSH2 0x2D14 JUMP JUMPDEST JUMPDEST DUP2 MSTORE PUSH1 0x20 ADD PUSH0 PUSH20 0xFFFFFFFFFFFFFFFFFFFFFFFFFFFFFFFFFFFFFFFF AND DUP2 MSTORE PUSH1 0x20 ADD TIMESTAMP DUP2 MSTORE PUSH1 0x20 ADD DUP6 DUP2 MSTORE PUSH1 0x20 ADD DUP5 DUP2 MSTORE POP PUSH1 0x6 PUSH0 DUP4 DUP2 MSTORE PUSH1 0x20 ADD SWAP1 DUP2 MSTORE PUSH1 0x20 ADD PUSH0 KECCAK256 PUSH0 DUP3 ADD MLOAD DUP2 PUSH0 ADD PUSH0 PUSH2 0x100 EXP DUP2 SLOAD DUP2 PUSH20 0xFFFFFFFFFFFFFFFFFFFFFFFFFFFFFFFFFFFFFFFF MUL NOT AND SWAP1 DUP4 PUSH20 0xFFFFFFFFFFFFFFFFFFFFFFFFFFFFFFFFFFFFFFFF AND MUL OR SWAP1 SSTORE POP PUSH1 0x20 DUP3 ADD MLOAD DUP2 PUSH1 0x1 ADD SSTORE PUSH1 0x40 DUP3 ADD MLOAD DUP2 PUSH1 0x2 ADD SSTORE PUSH1 0x60 DUP3 ADD MLOAD DUP2 PUSH1 0x3 ADD PUSH0 PUSH2 0x100 EXP DUP2 SLOAD DUP2 PUSH1 0xFF MUL NOT AND SWAP1 DUP4 PUSH1 0x5 DUP2 GT ISZERO PUSH2 0x270C JUMPI PUSH2 0x270B PUSH2 0x2D14 JUMP JUMPDEST JUMPDEST MUL OR SWAP1 SSTORE POP PUSH1 0x80 DUP3 ADD MLOAD DUP2 PUSH1 0x3 ADD PUSH1 0x1 PUSH2 0x100 EXP DUP2 SLOAD DUP2 PUSH20 0xFFFFFFFFFFFFFFFFFFFFFFFFFFFFFFFFFFFFFFFF MUL NOT AND SWAP1 DUP4 PUSH20 0xFFFFFFFFFFFFFFFFFFFFFFFFFFFFFFFFFFFFFFFF AND MUL OR SWAP1 SSTORE POP PUSH1 0xA0 DUP3 ADD MLOAD DUP2 PUSH1 0x4 ADD SSTORE PUSH1 0xC0 DUP3 ADD MLOAD DUP2 PUSH1 0x5 ADD SSTORE PUSH1 0xE0 DUP3 ADD MLOAD DUP2 PUSH1 0x6 ADD SSTORE SWAP1 POP POP POP POP POP POP JUMP JUMPDEST PUSH0 DUP3 DUP3 PUSH1 0x40 MLOAD PUSH1 0x20 ADD PUSH2 0x2793 SWAP3 SWAP2 SWAP1 PUSH2 0x4168 JUMP JUMPDEST PUSH1 0x40 MLOAD PUSH1 0x20 DUP2 DUP4 SUB SUB DUP2 MSTORE SWAP1 PUSH1 0x40 MSTORE DUP1 MLOAD SWAP1 PUSH1 0x20 ADD KECCAK256 PUSH0 SHR SWAP1 POP SWAP3 SWAP2 POP POP JUMP JUMPDEST PUSH0 DUP1 DUP3 SLT ISZERO PUSH2 0x27CB JUMPI DUP2 PUSH2 0x27C6 SWAP1 PUSH2 0x4193 JUMP JUMPDEST PUSH2 0x27CD JUMP JUMPDEST DUP2 JUMPDEST SWAP1 POP SWAP2 SWAP1 POP JUMP JUMPDEST PUSH1 0x40 MLOAD DUP1 PUSH2 0x100 ADD PUSH1 0x40 MSTORE DUP1 PUSH0 PUSH20 0xFFFFFFFFFFFFFFFFFFFFFFFFFFFFFFFFFFFFFFFF AND DUP2 MSTORE PUSH1 0x20 ADD PUSH0 DUP2 MSTORE PUSH1 0x20 ADD PUSH0 DUP2 MSTORE PUSH1 0x20 ADD PUSH0 PUSH1 0x5 DUP2 GT ISZERO PUSH2 0x281B JUMPI PUSH2 0x281A PUSH2 0x2D14 JUMP JUMPDEST JUMPDEST DUP2 MSTORE PUSH1 0x20 ADD PUSH0 PUSH20 0xFFFFFFFFFFFFFFFFFFFFFFFFFFFFFFFFFFFFFFFF AND DUP2 MSTORE PUSH1 0x20 ADD PUSH0 DUP2 MSTORE PUSH1 0x20 ADD PUSH0 DUP2 MSTORE PUSH1 0x20 ADD PUSH0 DUP2 MSTORE POP SWAP1 JUMP JUMPDEST POP DUP1 SLOAD PUSH2 0x285B SWAP1 PUSH2 0x3CD9 JUMP JUMPDEST PUSH0 DUP3 SSTORE DUP1 PUSH1 0x1F LT PUSH2 0x286C JUMPI POP PUSH2 0x2889 JUMP JUMPDEST PUSH1 0x1F ADD PUSH1 0x20 SWAP1 DIV SWAP1 PUSH0 MSTORE PUSH1 0x20 PUSH0 KECCAK256 SWAP1 DUP2 ADD SWAP1 PUSH2 0x2888 SWAP2 SWAP1 PUSH2 0x28C3 JUMP JUMPDEST JUMPDEST POP JUMP JUMPDEST PUSH1 0x40 MLOAD DUP1 PUSH1 0x80 ADD PUSH1 0x40 MSTORE DUP1 PUSH0 PUSH1 0x4 DUP2 GT ISZERO PUSH2 0x28AA JUMPI PUSH2 0x28A9 PUSH2 0x2D14 JUMP JUMPDEST JUMPDEST DUP2 MSTORE PUSH1 0x20 ADD PUSH1 0x60 DUP2 MSTORE PUSH1 0x20 ADD PUSH0 DUP2 MSTORE PUSH1 0x20 ADD PUSH0 DUP2 MSTORE POP SWAP1 JUMP JUMPDEST JUMPDEST DUP1 DUP3 GT ISZERO PUSH2 0x28DA JUMPI PUSH0 DUP2 PUSH0 SWAP1 SSTORE POP PUSH1 0x1 ADD PUSH2 0x28C4 JUMP JUMPDEST POP SWAP1 JUMP JUMPDEST PUSH0 DUP2 MLOAD SWAP1 POP SWAP2 SWAP1 POP JUMP JUMPDEST PUSH0 DUP3 DUP3 MSTORE PUSH1 0x20 DUP3 ADD SWAP1 POP SWAP3 SWAP2 POP POP JUMP JUMPDEST PUSH0 DUP2 SWAP1 POP PUSH1 0x20 DUP3 ADD SWAP1 POP SWAP2 SWAP1 POP JUMP JUMPDEST PUSH0 PUSH20 0xFFFFFFFFFFFFFFFFFFFFFFFFFFFFFFFFFFFFFFFF DUP3 AND SWAP1 POP SWAP2 SWAP1 POP JUMP JUMPDEST PUSH0 PUSH2 0x2930 DUP3 PUSH2 0x2907 JUMP JUMPDEST SWAP1 POP SWAP2 SWAP1 POP JUMP JUMPDEST PUSH2 0x2940 DUP2 PUSH2 0x2926 JUMP JUMPDEST DUP3 MSTORE POP POP JUMP JUMPDEST PUSH0 PUSH2 0x2951 DUP4 DUP4 PUSH2 0x2937 JUMP JUMPDEST PUSH1 0x20 DUP4 ADD SWAP1 POP SWAP3 SWAP2 POP POP JUMP JUMPDEST PUSH0 PUSH1 0x20 DUP3 ADD SWAP1 POP SWAP2 SWAP1 POP JUMP JUMPDEST PUSH0 PUSH2 0x2973 DUP3 PUSH2 0x28DE JUMP JUMPDEST PUSH2 0x297D DUP2 DUP6 PUSH2 0x28E8 JUMP JUMPDEST SWAP4 POP PUSH2 0x2988 DUP4 PUSH2 0x28F8 JUMP JUMPDEST DUP1 PUSH0 JUMPDEST DUP4 DUP2 LT ISZERO PUSH2 0x29B8 JUMPI DUP2 MLOAD PUSH2 0x299F DUP9 DUP3 PUSH2 0x2946 JUMP JUMPDEST SWAP8 POP PUSH2 0x29AA DUP4 PUSH2 0x295D JUMP JUMPDEST SWAP3 POP POP PUSH1 0x1 DUP2 ADD SWAP1 POP PUSH2 0x298B JUMP JUMPDEST POP DUP6 SWAP4 POP POP POP POP SWAP3 SWAP2 POP POP JUMP JUMPDEST PUSH0 PUSH1 0x20 DUP3 ADD SWAP1 POP DUP2 DUP2 SUB PUSH0 DUP4 ADD MSTORE PUSH2 0x29DD DUP2 DUP5 PUSH2 0x2969 JUMP JUMPDEST SWAP1 POP SWAP3 SWAP2 POP POP JUMP JUMPDEST PUSH0 PUSH1 0x40 MLOAD SWAP1 POP SWAP1 JUMP JUMPDEST PUSH0 DUP1 REVERT JUMPDEST PUSH0 DUP1 REVERT JUMPDEST PUSH2 0x29FF DUP2 PUSH2 0x2926 JUMP JUMPDEST DUP2 EQ PUSH2 0x2A09 JUMPI PUSH0 DUP1 REVERT JUMPDEST POP JUMP JUMPDEST PUSH0 DUP2 CALLDATALOAD SWAP1 POP PUSH2 0x2A1A DUP2 PUSH2 0x29F6 JUMP JUMPDEST SWAP3 SWAP2 POP POP JUMP JUMPDEST PUSH0 PUSH1 0x20 DUP3 DUP5 SUB SLT ISZERO PUSH2 0x2A35 JUMPI PUSH2 0x2A34 PUSH2 0x29EE JUMP JUMPDEST JUMPDEST PUSH0 PUSH2 0x2A42 DUP5 DUP3 DUP6 ADD PUSH2 0x2A0C JUMP JUMPDEST SWAP2 POP POP SWAP3 SWAP2 POP POP JUMP JUMPDEST PUSH0 DUP2 SWAP1 POP SWAP2 SWAP1 POP JUMP JUMPDEST PUSH2 0x2A5D DUP2 PUSH2 0x2A4B JUMP JUMPDEST DUP2 EQ PUSH2 0x2A67 JUMPI PUSH0 DUP1 REVERT JUMPDEST POP JUMP JUMPDEST PUSH0 DUP2 CALLDATALOAD SWAP1 POP PUSH2 0x2A78 DUP2 PUSH2 0x2A54 JUMP JUMPDEST SWAP3 SWAP2 POP POP JUMP JUMPDEST PUSH0 PUSH1 0x20 DUP3 DUP5 SUB SLT ISZERO PUSH2 0x2A93 JUMPI PUSH2 0x2A92 PUSH2 0x29EE JUMP JUMPDEST JUMPDEST PUSH0 PUSH2 0x2AA0 DUP5 DUP3 DUP6 ADD PUSH2 0x2A6A JUMP JUMPDEST SWAP2 POP POP SWAP3 SWAP2 POP POP JUMP JUMPDEST PUSH2 0x2AB2 DUP2 PUSH2 0x2926 JUMP JUMPDEST DUP3 MSTORE POP POP JUMP JUMPDEST PUSH0 PUSH1 0x20 DUP3 ADD SWAP1 POP PUSH2 0x2ACB PUSH0 DUP4 ADD DUP5 PUSH2 0x2AA9 JUMP JUMPDEST SWAP3 SWAP2 POP POP JUMP JUMPDEST PUSH2 0x2ADA DUP2 PUSH2 0x2A4B JUMP JUMPDEST DUP3 MSTORE POP POP JUMP JUMPDEST PUSH0 PUSH1 0x40 DUP3 ADD SWAP1 POP PUSH2 0x2AF3 PUSH0 DUP4 ADD DUP6 PUSH2 0x2AD1 JUMP JUMPDEST PUSH2 0x2B00 PUSH1 0x20 DUP4 ADD DUP5 PUSH2 0x2AD1 JUMP JUMPDEST SWAP4 SWAP3 POP POP POP JUMP JUMPDEST PUSH0 DUP1 PUSH1 0x40 DUP4 DUP6 SUB SLT ISZERO PUSH2 0x2B1D JUMPI PUSH2 0x2B1C PUSH2 0x29EE JUMP JUMPDEST JUMPDEST PUSH0 PUSH2 0x2B2A DUP6 DUP3 DUP7 ADD PUSH2 0x2A6A JUMP JUMPDEST SWAP3 POP POP PUSH1 0x20 PUSH2 0x2B3B DUP6 DUP3 DUP7 ADD PUSH2 0x2A6A JUMP JUMPDEST SWAP2 POP POP SWAP3 POP SWAP3 SWAP1 POP JUMP JUMPDEST PUSH0 DUP1 REVERT JUMPDEST PUSH0 PUSH1 0x1F NOT PUSH1 0x1F DUP4 ADD AND SWAP1 POP SWAP2 SWAP1 POP JUMP JUMPDEST PUSH32 0x4E487B7100000000000000000000000000000000000000000000000000000000 PUSH0 MSTORE PUSH1 0x41 PUSH1 0x4 MSTORE PUSH1 0x24 PUSH0 REVERT JUMPDEST PUSH2 0x2B8F DUP3 PUSH2 0x2B49 JUMP JUMPDEST DUP2 ADD DUP2 DUP2 LT PUSH8 0xFFFFFFFFFFFFFFFF DUP3 GT OR ISZERO PUSH2 0x2BAE JUMPI PUSH2 0x2BAD PUSH2 0x2B59 JUMP JUMPDEST JUMPDEST DUP1 PUSH1 0x40 MSTORE POP POP POP JUMP JUMPDEST PUSH0 PUSH2 0x2BC0 PUSH2 0x29E5 JUMP JUMPDEST SWAP1 POP PUSH2 0x2BCC DUP3 DUP3 PUSH2 0x2B86 JUMP JUMPDEST SWAP2 SWAP1 POP JUMP JUMPDEST PUSH0 PUSH8 0xFFFFFFFFFFFFFFFF DUP3 GT ISZERO PUSH2 0x2BEB JUMPI PUSH2 0x2BEA PUSH2 0x2B59 JUMP JUMPDEST JUMPDEST PUSH1 0x20 DUP3 MUL SWAP1 POP PUSH1 0x20 DUP2 ADD SWAP1 POP SWAP2 SWAP1 POP JUMP JUMPDEST PUSH0 DUP1 REVERT JUMPDEST PUSH0 PUSH2 0x2C12 PUSH2 0x2C0D DUP5 PUSH2 0x2BD1 JUMP JUMPDEST PUSH2 0x2BB7 JUMP JUMPDEST SWAP1 POP DUP1 DUP4 DUP3 MSTORE PUSH1 0x20 DUP3 ADD SWAP1 POP PUSH1 0x20 DUP5 MUL DUP4 ADD DUP6 DUP2 GT ISZERO PUSH2 0x2C35 JUMPI PUSH2 0x2C34 PUSH2 0x2BFC JUMP JUMPDEST JUMPDEST DUP4 JUMPDEST DUP2 DUP2 LT ISZERO PUSH2 0x2C5E JUMPI DUP1 PUSH2 0x2C4A DUP9 DUP3 PUSH2 0x2A0C JUMP JUMPDEST DUP5 MSTORE PUSH1 0x20 DUP5 ADD SWAP4 POP POP PUSH1 0x20 DUP2 ADD SWAP1 POP PUSH2 0x2C37 JUMP JUMPDEST POP POP POP SWAP4 SWAP3 POP POP POP JUMP JUMPDEST PUSH0 DUP3 PUSH1 0x1F DUP4 ADD SLT PUSH2 0x2C7C JUMPI PUSH2 0x2C7B PUSH2 0x2B45 JUMP JUMPDEST JUMPDEST DUP2 CALLDATALOAD PUSH2 0x2C8C DUP5 DUP3 PUSH1 0x20 DUP7 ADD PUSH2 0x2C00 JUMP JUMPDEST SWAP2 POP POP SWAP3 SWAP2 POP POP JUMP JUMPDEST PUSH0 PUSH1 0x20 DUP3 DUP5 SUB SLT ISZERO PUSH2 0x2CAA JUMPI PUSH2 0x2CA9 PUSH2 0x29EE JUMP JUMPDEST JUMPDEST PUSH0 DUP3 ADD CALLDATALOAD PUSH8 0xFFFFFFFFFFFFFFFF DUP2 GT ISZERO PUSH2 0x2CC7 JUMPI PUSH2 0x2CC6 PUSH2 0x29F2 JUMP JUMPDEST JUMPDEST PUSH2 0x2CD3 DUP5 DUP3 DUP6 ADD PUSH2 0x2C68 JUMP JUMPDEST SWAP2 POP POP SWAP3 SWAP2 POP POP JUMP JUMPDEST PUSH0 DUP2 MLOAD SWAP1 POP SWAP2 SWAP1 POP JUMP JUMPDEST PUSH0 DUP3 DUP3 MSTORE PUSH1 0x20 DUP3 ADD SWAP1 POP SWAP3 SWAP2 POP POP JUMP JUMPDEST PUSH0 DUP2 SWAP1 POP PUSH1 0x20 DUP3 ADD SWAP1 POP SWAP2 SWAP1 POP JUMP JUMPDEST PUSH2 0x2D0E DUP2 PUSH2 0x2A4B JUMP JUMPDEST DUP3 MSTORE POP POP JUMP JUMPDEST PUSH32 0x4E487B7100000000000000000000000000000000000000000000000000000000 PUSH0 MSTORE PUSH1 0x21 PUSH1 0x4 MSTORE PUSH1 0x24 PUSH0 REVERT JUMPDEST PUSH1 0x6 DUP2 LT PUSH2 0x2D52 JUMPI PUSH2 0x2D51 PUSH2 0x2D14 JUMP JUMPDEST JUMPDEST POP JUMP JUMPDEST PUSH0 DUP2 SWAP1 POP PUSH2 0x2D62 DUP3 PUSH2 0x2D41 JUMP JUMPDEST SWAP2 SWAP1 POP JUMP JUMPDEST PUSH0 PUSH2 0x2D71 DUP3 PUSH2 0x2D55 JUMP JUMPDEST SWAP1 POP SWAP2 SWAP1 POP JUMP JUMPDEST PUSH2 0x2D81 DUP2 PUSH2 0x2D67 JUMP JUMPDEST DUP3 MSTORE POP POP JUMP JUMPDEST PUSH2 0x100 DUP3 ADD PUSH0 DUP3 ADD MLOAD PUSH2 0x2D9C PUSH0 DUP6 ADD DUP3 PUSH2 0x2937 JUMP JUMPDEST POP PUSH1 0x20 DUP3 ADD MLOAD PUSH2 0x2DAF PUSH1 0x20 DUP6 ADD DUP3 PUSH2 0x2D05 JUMP JUMPDEST POP PUSH1 0x40 DUP3 ADD MLOAD PUSH2 0x2DC2 PUSH1 0x40 DUP6 ADD DUP3 PUSH2 0x2D05 JUMP JUMPDEST POP PUSH1 0x60 DUP3 ADD MLOAD PUSH2 0x2DD5 PUSH1 0x60 DUP6 ADD DUP3 PUSH2 0x2D78 JUMP JUMPDEST POP PUSH1 0x80 DUP3 ADD MLOAD PUSH2 0x2DE8 PUSH1 0x80 DUP6 ADD DUP3 PUSH2 0x2937 JUMP JUMPDEST POP PUSH1 0xA0 DUP3 ADD MLOAD PUSH2 0x2DFB PUSH1 0xA0 DUP6 ADD DUP3 PUSH2 0x2D05 JUMP JUMPDEST POP PUSH1 0xC0 DUP3 ADD MLOAD PUSH2 0x2E0E PUSH1 0xC0 DUP6 ADD DUP3 PUSH2 0x2D05 JUMP JUMPDEST POP PUSH1 0xE0 DUP3 ADD MLOAD PUSH2 0x2E21 PUSH1 0xE0 DUP6 ADD DUP3 PUSH2 0x2D05 JUMP JUMPDEST POP POP POP POP JUMP JUMPDEST PUSH0 PUSH2 0x2E32 DUP4 DUP4 PUSH2 0x2D87 JUMP JUMPDEST PUSH2 0x100 DUP4 ADD SWAP1 POP SWAP3 SWAP2 POP POP JUMP JUMPDEST PUSH0 PUSH1 0x20 DUP3 ADD SWAP1 POP SWAP2 SWAP1 POP JUMP JUMPDEST PUSH0 PUSH2 0x2E55 DUP3 PUSH2 0x2CDC JUMP JUMPDEST PUSH2 0x2E5F DUP2 DUP6 PUSH2 0x2CE6 JUMP JUMPDEST SWAP4 POP PUSH2 0x2E6A DUP4 PUSH2 0x2CF6 JUMP JUMPDEST DUP1 PUSH0 JUMPDEST DUP4 DUP2 LT ISZERO PUSH2 0x2E9A JUMPI DUP2 MLOAD PUSH2 0x2E81 DUP9 DUP3 PUSH2 0x2E27 JUMP JUMPDEST SWAP8 POP PUSH2 0x2E8C DUP4 PUSH2 0x2E3F JUMP JUMPDEST SWAP3 POP POP PUSH1 0x1 DUP2 ADD SWAP1 POP PUSH2 0x2E6D JUMP JUMPDEST POP DUP6 SWAP4 POP POP POP POP SWAP3 SWAP2 POP POP JUMP JUMPDEST PUSH0 PUSH1 0x20 DUP3 ADD SWAP1 POP DUP2 DUP2 SUB PUSH0 DUP4 ADD MSTORE PUSH2 0x2EBF DUP2 DUP5 PUSH2 0x2E4B JUMP JUMPDEST SWAP1 POP SWAP3 SWAP2 POP POP JUMP JUMPDEST PUSH2 0x100 DUP3 ADD PUSH0 DUP3 ADD MLOAD PUSH2 0x2EDC PUSH0 DUP6 ADD DUP3 PUSH2 0x2937 JUMP JUMPDEST POP PUSH1 0x20 DUP3 ADD MLOAD PUSH2 0x2EEF PUSH1 0x20 DUP6 ADD DUP3 PUSH2 0x2D05 JUMP JUMPDEST POP PUSH1 0x40 DUP3 ADD MLOAD PUSH2 0x2F02 PUSH1 0x40 DUP6 ADD DUP3 PUSH2 0x2D05 JUMP JUMPDEST POP PUSH1 0x60 DUP3 ADD MLOAD PUSH2 0x2F15 PUSH1 0x60 DUP6 ADD DUP3 PUSH2 0x2D78 JUMP JUMPDEST POP PUSH1 0x80 DUP3 ADD MLOAD PUSH2 0x2F28 PUSH1 0x80 DUP6 ADD DUP3 PUSH2 0x2937 JUMP JUMPDEST POP PUSH1 0xA0 DUP3 ADD MLOAD PUSH2 0x2F3B PUSH1 0xA0 DUP6 ADD DUP3 PUSH2 0x2D05 JUMP JUMPDEST POP PUSH1 0xC0 DUP3 ADD MLOAD PUSH2 0x2F4E PUSH1 0xC0 DUP6 ADD DUP3 PUSH2 0x2D05 JUMP JUMPDEST POP PUSH1 0xE0 DUP3 ADD MLOAD PUSH2 0x2F61 PUSH1 0xE0 DUP6 ADD DUP3 PUSH2 0x2D05 JUMP JUMPDEST POP POP POP POP JUMP JUMPDEST PUSH0 PUSH2 0x100 DUP3 ADD SWAP1 POP PUSH2 0x2F7B PUSH0 DUP4 ADD DUP5 PUSH2 0x2EC7 JUMP JUMPDEST SWAP3 SWAP2 POP POP JUMP JUMPDEST PUSH0 PUSH8 0xFFFFFFFFFFFFFFFF DUP3 GT ISZERO PUSH2 0x2F9B JUMPI PUSH2 0x2F9A PUSH2 0x2B59 JUMP JUMPDEST JUMPDEST PUSH1 0x20 DUP3 MUL SWAP1 POP PUSH1 0x20 DUP2 ADD SWAP1 POP SWAP2 SWAP1 POP JUMP JUMPDEST PUSH1 0x5 DUP2 LT PUSH2 0x2FB8 JUMPI PUSH0 DUP1 REVERT JUMPDEST POP JUMP JUMPDEST PUSH0 DUP2 CALLDATALOAD SWAP1 POP PUSH2 0x2FC9 DUP2 PUSH2 0x2FAC JUMP JUMPDEST SWAP3 SWAP2 POP POP JUMP JUMPDEST PUSH0 PUSH2 0x2FE1 PUSH2 0x2FDC DUP5 PUSH2 0x2F81 JUMP JUMPDEST PUSH2 0x2BB7 JUMP JUMPDEST SWAP1 POP DUP1 DUP4 DUP3 MSTORE PUSH1 0x20 DUP3 ADD SWAP1 POP PUSH1 0x20 DUP5 MUL DUP4 ADD DUP6 DUP2 GT ISZERO PUSH2 0x3004 JUMPI PUSH2 0x3003 PUSH2 0x2BFC JUMP JUMPDEST JUMPDEST DUP4 JUMPDEST DUP2 DUP2 LT ISZERO PUSH2 0x302D JUMPI DUP1 PUSH2 0x3019 DUP9 DUP3 PUSH2 0x2FBB JUMP JUMPDEST DUP5 MSTORE PUSH1 0x20 DUP5 ADD SWAP4 POP POP PUSH1 0x20 DUP2 ADD SWAP1 POP PUSH2 0x3006 JUMP JUMPDEST POP POP POP SWAP4 SWAP3 POP POP POP JUMP JUMPDEST PUSH0 DUP3 PUSH1 0x1F DUP4 ADD SLT PUSH2 0x304B JUMPI PUSH2 0x304A PUSH2 0x2B45 JUMP JUMPDEST JUMPDEST DUP2 CALLDATALOAD PUSH2 0x305B DUP5 DUP3 PUSH1 0x20 DUP7 ADD PUSH2 0x2FCF JUMP JUMPDEST SWAP2 POP POP SWAP3 SWAP2 POP POP JUMP JUMPDEST PUSH0 PUSH8 0xFFFFFFFFFFFFFFFF DUP3 GT ISZERO PUSH2 0x307E JUMPI PUSH2 0x307D PUSH2 0x2B59 JUMP JUMPDEST JUMPDEST PUSH1 0x20 DUP3 MUL SWAP1 POP PUSH1 0x20 DUP2 ADD SWAP1 POP SWAP2 SWAP1 POP JUMP JUMPDEST PUSH0 DUP1 REVERT JUMPDEST PUSH0 PUSH8 0xFFFFFFFFFFFFFFFF DUP3 GT ISZERO PUSH2 0x30AD JUMPI PUSH2 0x30AC PUSH2 0x2B59 JUMP JUMPDEST JUMPDEST PUSH2 0x30B6 DUP3 PUSH2 0x2B49 JUMP JUMPDEST SWAP1 POP PUSH1 0x20 DUP2 ADD SWAP1 POP SWAP2 SWAP1 POP JUMP JUMPDEST DUP3 DUP2 DUP4 CALLDATACOPY PUSH0 DUP4 DUP4 ADD MSTORE POP POP POP JUMP JUMPDEST PUSH0 PUSH2 0x30E3 PUSH2 0x30DE DUP5 PUSH2 0x3093 JUMP JUMPDEST PUSH2 0x2BB7 JUMP JUMPDEST SWAP1 POP DUP3 DUP2 MSTORE PUSH1 0x20 DUP2 ADD DUP5 DUP5 DUP5 ADD GT ISZERO PUSH2 0x30FF JUMPI PUSH2 0x30FE PUSH2 0x308F JUMP JUMPDEST JUMPDEST PUSH2 0x310A DUP5 DUP3 DUP6 PUSH2 0x30C3 JUMP JUMPDEST POP SWAP4 SWAP3 POP POP POP JUMP JUMPDEST PUSH0 DUP3 PUSH1 0x1F DUP4 ADD SLT PUSH2 0x3126 JUMPI PUSH2 0x3125 PUSH2 0x2B45 JUMP JUMPDEST JUMPDEST DUP2 CALLDATALOAD PUSH2 0x3136 DUP5 DUP3 PUSH1 0x20 DUP7 ADD PUSH2 0x30D1 JUMP JUMPDEST SWAP2 POP POP SWAP3 SWAP2 POP POP JUMP JUMPDEST PUSH0 PUSH2 0x3151 PUSH2 0x314C DUP5 PUSH2 0x3064 JUMP JUMPDEST PUSH2 0x2BB7 JUMP JUMPDEST SWAP1 POP DUP1 DUP4 DUP3 MSTORE PUSH1 0x20 DUP3 ADD SWAP1 POP PUSH1 0x20 DUP5 MUL DUP4 ADD DUP6 DUP2 GT ISZERO PUSH2 0x3174 JUMPI PUSH2 0x3173 PUSH2 0x2BFC JUMP JUMPDEST JUMPDEST DUP4 JUMPDEST DUP2 DUP2 LT ISZERO PUSH2 0x31BB JUMPI DUP1 CALLDATALOAD PUSH8 0xFFFFFFFFFFFFFFFF DUP2 GT ISZERO PUSH2 0x3199 JUMPI PUSH2 0x3198 PUSH2 0x2B45 JUMP JUMPDEST JUMPDEST DUP1 DUP7 ADD PUSH2 0x31A6 DUP10 DUP3 PUSH2 0x3112 JUMP JUMPDEST DUP6 MSTORE PUSH1 0x20 DUP6 ADD SWAP5 POP POP POP PUSH1 0x20 DUP2 ADD SWAP1 POP PUSH2 0x3176 JUMP JUMPDEST POP POP POP SWAP4 SWAP3 POP POP POP JUMP JUMPDEST PUSH0 DUP3 PUSH1 0x1F DUP4 ADD SLT PUSH2 0x31D9 JUMPI PUSH2 0x31D8 PUSH2 0x2B45 JUMP JUMPDEST JUMPDEST DUP2 CALLDATALOAD PUSH2 0x31E9 DUP5 DUP3 PUSH1 0x20 DUP7 ADD PUSH2 0x313F JUMP JUMPDEST SWAP2 POP POP SWAP3 SWAP2 POP POP JUMP JUMPDEST PUSH0 PUSH8 0xFFFFFFFFFFFFFFFF DUP3 GT ISZERO PUSH2 0x320C JUMPI PUSH2 0x320B PUSH2 0x2B59 JUMP JUMPDEST JUMPDEST PUSH1 0x20 DUP3 MUL SWAP1 POP PUSH1 0x20 DUP2 ADD SWAP1 POP SWAP2 SWAP1 POP JUMP JUMPDEST PUSH0 PUSH2 0x322F PUSH2 0x322A DUP5 PUSH2 0x31F2 JUMP JUMPDEST PUSH2 0x2BB7 JUMP JUMPDEST SWAP1 POP DUP1 DUP4 DUP3 MSTORE PUSH1 0x20 DUP3 ADD SWAP1 POP PUSH1 0x20 DUP5 MUL DUP4 ADD DUP6 DUP2 GT ISZERO PUSH2 0x3252 JUMPI PUSH2 0x3251 PUSH2 0x2BFC JUMP JUMPDEST JUMPDEST DUP4 JUMPDEST DUP2 DUP2 LT ISZERO PUSH2 0x327B JUMPI DUP1 PUSH2 0x3267 DUP9 DUP3 PUSH2 0x2A6A JUMP JUMPDEST DUP5 MSTORE PUSH1 0x20 DUP5 ADD SWAP4 POP POP PUSH1 0x20 DUP2 ADD SWAP1 POP PUSH2 0x3254 JUMP JUMPDEST POP POP POP SWAP4 SWAP3 POP POP POP JUMP JUMPDEST PUSH0 DUP3 PUSH1 0x1F DUP4 ADD SLT PUSH2 0x3299 JUMPI PUSH2 0x3298 PUSH2 0x2B45 JUMP JUMPDEST JUMPDEST DUP2 CALLDATALOAD PUSH2 0x32A9 DUP5 DUP3 PUSH1 0x20 DUP7 ADD PUSH2 0x321D JUMP JUMPDEST SWAP2 POP POP SWAP3 SWAP2 POP POP JUMP JUMPDEST PUSH0 DUP1 PUSH0 DUP1 PUSH1 0x80 DUP6 DUP8 SUB SLT ISZERO PUSH2 0x32CA JUMPI PUSH2 0x32C9 PUSH2 0x29EE JUMP JUMPDEST JUMPDEST PUSH0 DUP6 ADD CALLDATALOAD PUSH8 0xFFFFFFFFFFFFFFFF DUP2 GT ISZERO PUSH2 0x32E7 JUMPI PUSH2 0x32E6 PUSH2 0x29F2 JUMP JUMPDEST JUMPDEST PUSH2 0x32F3 DUP8 DUP3 DUP9 ADD PUSH2 0x3037 JUMP JUMPDEST SWAP5 POP POP PUSH1 0x20 DUP6 ADD CALLDATALOAD PUSH8 0xFFFFFFFFFFFFFFFF DUP2 GT ISZERO PUSH2 0x3314 JUMPI PUSH2 0x3313 PUSH2 0x29F2 JUMP JUMPDEST JUMPDEST PUSH2 0x3320 DUP8 DUP3 DUP9 ADD PUSH2 0x31C5 JUMP JUMPDEST SWAP4 POP POP PUSH1 0x40 DUP6 ADD CALLDATALOAD PUSH8 0xFFFFFFFFFFFFFFFF DUP2 GT ISZERO PUSH2 0x3341 JUMPI PUSH2 0x3340 PUSH2 0x29F2 JUMP JUMPDEST JUMPDEST PUSH2 0x334D DUP8 DUP3 DUP9 ADD PUSH2 0x3285 JUMP JUMPDEST SWAP3 POP POP PUSH1 0x60 DUP6 ADD CALLDATALOAD PUSH8 0xFFFFFFFFFFFFFFFF DUP2 GT ISZERO PUSH2 0x336E JUMPI PUSH2 0x336D PUSH2 0x29F2 JUMP JUMPDEST JUMPDEST PUSH2 0x337A DUP8 DUP3 DUP9 ADD PUSH2 0x3285 JUMP JUMPDEST SWAP2 POP POP SWAP3 SWAP6 SWAP2 SWAP5 POP SWAP3 POP JUMP JUMPDEST PUSH0 DUP2 MLOAD SWAP1 POP SWAP2 SWAP1 POP JUMP JUMPDEST PUSH0 DUP3 DUP3 MSTORE PUSH1 0x20 DUP3 ADD SWAP1 POP SWAP3 SWAP2 POP POP JUMP JUMPDEST PUSH0 DUP2 SWAP1 POP PUSH1 0x20 DUP3 ADD SWAP1 POP SWAP2 SWAP1 POP JUMP JUMPDEST PUSH0 PUSH2 0x33BA DUP4 DUP4 PUSH2 0x2D05 JUMP JUMPDEST PUSH1 0x20 DUP4 ADD SWAP1 POP SWAP3 SWAP2 POP POP JUMP JUMPDEST PUSH0 PUSH1 0x20 DUP3 ADD SWAP1 POP SWAP2 SWAP1 POP JUMP JUMPDEST PUSH0 PUSH2 0x33DC DUP3 PUSH2 0x3386 JUMP JUMPDEST PUSH2 0x33E6 DUP2 DUP6 PUSH2 0x3390 JUMP JUMPDEST SWAP4 POP PUSH2 0x33F1 DUP4 PUSH2 0x33A0 JUMP JUMPDEST DUP1 PUSH0 JUMPDEST DUP4 DUP2 LT ISZERO PUSH2 0x3421 JUMPI DUP2 MLOAD PUSH2 0x3408 DUP9 DUP3 PUSH2 0x33AF JUMP JUMPDEST SWAP8 POP PUSH2 0x3413 DUP4 PUSH2 0x33C6 JUMP JUMPDEST SWAP3 POP POP PUSH1 0x1 DUP2 ADD SWAP1 POP PUSH2 0x33F4 JUMP JUMPDEST POP DUP6 SWAP4 POP POP POP POP SWAP3 SWAP2 POP POP JUMP JUMPDEST PUSH0 PUSH1 0x20 DUP3 ADD SWAP1 POP DUP2 DUP2 SUB PUSH0 DUP4 ADD MSTORE PUSH2 0x3446 DUP2 DUP5 PUSH2 0x33D2 JUMP JUMPDEST SWAP1 POP SWAP3 SWAP2 POP POP JUMP JUMPDEST PUSH0 DUP2 MLOAD SWAP1 POP SWAP2 SWAP1 POP JUMP JUMPDEST PUSH0 DUP3 DUP3 MSTORE PUSH1 0x20 DUP3 ADD SWAP1 POP SWAP3 SWAP2 POP POP JUMP JUMPDEST PUSH0 DUP2 SWAP1 POP PUSH1 0x20 DUP3 ADD SWAP1 POP SWAP2 SWAP1 POP JUMP JUMPDEST PUSH1 0x5 DUP2 LT PUSH2 0x3488 JUMPI PUSH2 0x3487 PUSH2 0x2D14 JUMP JUMPDEST JUMPDEST POP JUMP JUMPDEST PUSH0 DUP2 SWAP1 POP PUSH2 0x3498 DUP3 PUSH2 0x3477 JUMP JUMPDEST SWAP2 SWAP1 POP JUMP JUMPDEST PUSH0 PUSH2 0x34A7 DUP3 PUSH2 0x348B JUMP JUMPDEST SWAP1 POP SWAP2 SWAP1 POP JUMP JUMPDEST PUSH2 0x34B7 DUP2 PUSH2 0x349D JUMP JUMPDEST DUP3 MSTORE POP POP JUMP JUMPDEST PUSH0 DUP2 MLOAD SWAP1 POP SWAP2 SWAP1 POP JUMP JUMPDEST PUSH0 DUP3 DUP3 MSTORE PUSH1 0x20 DUP3 ADD SWAP1 POP SWAP3 SWAP2 POP POP JUMP JUMPDEST PUSH0 JUMPDEST DUP4 DUP2 LT ISZERO PUSH2 0x34F4 JUMPI DUP1 DUP3 ADD MLOAD DUP2 DUP5 ADD MSTORE PUSH1 0x20 DUP2 ADD SWAP1 POP PUSH2 0x34D9 JUMP JUMPDEST PUSH0 DUP5 DUP5 ADD MSTORE POP POP POP POP JUMP JUMPDEST PUSH0 PUSH2 0x3509 DUP3 PUSH2 0x34BD JUMP JUMPDEST PUSH2 0x3513 DUP2 DUP6 PUSH2 0x34C7 JUMP JUMPDEST SWAP4 POP PUSH2 0x3523 DUP2 DUP6 PUSH1 0x20 DUP7 ADD PUSH2 0x34D7 JUMP JUMPDEST PUSH2 0x352C DUP2 PUSH2 0x2B49 JUMP JUMPDEST DUP5 ADD SWAP2 POP POP SWAP3 SWAP2 POP POP JUMP JUMPDEST PUSH0 PUSH1 0x80 DUP4 ADD PUSH0 DUP4 ADD MLOAD PUSH2 0x354C PUSH0 DUP7 ADD DUP3 PUSH2 0x34AE JUMP JUMPDEST POP PUSH1 0x20 DUP4 ADD MLOAD DUP5 DUP3 SUB PUSH1 0x20 DUP7 ADD MSTORE PUSH2 0x3564 DUP3 DUP3 PUSH2 0x34FF JUMP JUMPDEST SWAP2 POP POP PUSH1 0x40 DUP4 ADD MLOAD PUSH2 0x3579 PUSH1 0x40 DUP7 ADD DUP3 PUSH2 0x2D05 JUMP JUMPDEST POP PUSH1 0x60 DUP4 ADD MLOAD PUSH2 0x358C PUSH1 0x60 DUP7 ADD DUP3 PUSH2 0x2D05 JUMP JUMPDEST POP DUP1 SWAP2 POP POP SWAP3 SWAP2 POP POP JUMP JUMPDEST PUSH0 PUSH2 0x35A2 DUP4 DUP4 PUSH2 0x3537 JUMP JUMPDEST SWAP1 POP SWAP3 SWAP2 POP POP JUMP JUMPDEST PUSH0 PUSH1 0x20 DUP3 ADD SWAP1 POP SWAP2 SWAP1 POP JUMP JUMPDEST PUSH0 PUSH2 0x35C0 DUP3 PUSH2 0x344E JUMP JUMPDEST PUSH2 0x35CA DUP2 DUP6 PUSH2 0x3458 JUMP JUMPDEST SWAP4 POP DUP4 PUSH1 0x20 DUP3 MUL DUP6 ADD PUSH2 0x35DC DUP6 PUSH2 0x3468 JUMP JUMPDEST DUP1 PUSH0 JUMPDEST DUP6 DUP2 LT ISZERO PUSH2 0x3617 JUMPI DUP5 DUP5 SUB DUP10 MSTORE DUP2 MLOAD PUSH2 0x35F8 DUP6 DUP3 PUSH2 0x3597 JUMP JUMPDEST SWAP5 POP PUSH2 0x3603 DUP4 PUSH2 0x35AA JUMP JUMPDEST SWAP3 POP PUSH1 0x20 DUP11 ADD SWAP10 POP POP PUSH1 0x1 DUP2 ADD SWAP1 POP PUSH2 0x35DF JUMP JUMPDEST POP DUP3 SWAP8 POP DUP8 SWAP6 POP POP POP POP POP POP SWAP3 SWAP2 POP POP JUMP JUMPDEST PUSH0 PUSH1 0x20 DUP3 ADD SWAP1 POP DUP2 DUP2 SUB PUSH0 DUP4 ADD MSTORE PUSH2 0x3641 DUP2 DUP5 PUSH2 0x35B6 JUMP JUMPDEST SWAP1 POP SWAP3 SWAP2 POP POP JUMP JUMPDEST PUSH0 DUP1 PUSH1 0x40 DUP4 DUP6 SUB SLT ISZERO PUSH2 0x365F JUMPI PUSH2 0x365E PUSH2 0x29EE JUMP JUMPDEST JUMPDEST PUSH0 PUSH2 0x366C DUP6 DUP3 DUP7 ADD PUSH2 0x2A6A JUMP JUMPDEST SWAP3 POP POP PUSH1 0x20 PUSH2 0x367D DUP6 DUP3 DUP7 ADD PUSH2 0x2A0C JUMP JUMPDEST SWAP2 POP POP SWAP3 POP SWAP3 SWAP1 POP JUMP JUMPDEST PUSH0 PUSH1 0x20 DUP3 ADD SWAP1 POP PUSH2 0x369A PUSH0 DUP4 ADD DUP5 PUSH2 0x2AD1 JUMP JUMPDEST SWAP3 SWAP2 POP POP JUMP JUMPDEST PUSH32 0x4E487B7100000000000000000000000000000000000000000000000000000000 PUSH0 MSTORE PUSH1 0x32 PUSH1 0x4 MSTORE PUSH1 0x24 PUSH0 REVERT JUMPDEST PUSH0 DUP3 DUP3 MSTORE PUSH1 0x20 DUP3 ADD SWAP1 POP SWAP3 SWAP2 POP POP JUMP JUMPDEST PUSH32 0x4E6F7420616C6C6F776564000000000000000000000000000000000000000000 PUSH0 DUP3 ADD MSTORE POP JUMP JUMPDEST PUSH0 PUSH2 0x3711 PUSH1 0xB DUP4 PUSH2 0x36CD JUMP JUMPDEST SWAP2 POP PUSH2 0x371C DUP3 PUSH2 0x36DD JUMP JUMPDEST PUSH1 0x20 DUP3 ADD SWAP1 POP SWAP2 SWAP1 POP JUMP JUMPDEST PUSH0 PUSH1 0x20 DUP3 ADD SWAP1 POP DUP2 DUP2 SUB PUSH0 DUP4 ADD MSTORE PUSH2 0x373E DUP2 PUSH2 0x3705 JUMP JUMPDEST SWAP1 POP SWAP2 SWAP1 POP JUMP JUMPDEST PUSH32 0x4E61746976652063757272656E637920616C7265616479207365740000000000 PUSH0 DUP3 ADD MSTORE POP JUMP JUMPDEST PUSH0 PUSH2 0x3779 PUSH1 0x1B DUP4 PUSH2 0x36CD JUMP JUMPDEST SWAP2 POP PUSH2 0x3784 DUP3 PUSH2 0x3745 JUMP JUMPDEST PUSH1 0x20 DUP3 ADD SWAP1 POP SWAP2 SWAP1 POP JUMP JUMPDEST PUSH0 PUSH1 0x20 DUP3 ADD SWAP1 POP DUP2 DUP2 SUB PUSH0 DUP4 ADD MSTORE PUSH2 0x37A6 DUP2 PUSH2 0x376D JUMP JUMPDEST SWAP1 POP SWAP2 SWAP1 POP JUMP JUMPDEST PUSH0 PUSH1 0x40 DUP3 ADD SWAP1 POP PUSH2 0x37C0 PUSH0 DUP4 ADD DUP6 PUSH2 0x2AA9 JUMP JUMPDEST PUSH2 0x37CD PUSH1 0x20 DUP4 ADD DUP5 PUSH2 0x2AD1 JUMP JUMPDEST SWAP4 SWAP3 POP POP POP JUMP JUMPDEST PUSH0 DUP2 ISZERO ISZERO SWAP1 POP SWAP2 SWAP1 POP JUMP JUMPDEST PUSH2 0x37E8 DUP2 PUSH2 0x37D4 JUMP JUMPDEST DUP2 EQ PUSH2 0x37F2 JUMPI PUSH0 DUP1 REVERT JUMPDEST POP JUMP JUMPDEST PUSH0 DUP2 MLOAD SWAP1 POP PUSH2 0x3803 DUP2 PUSH2 0x37DF JUMP JUMPDEST SWAP3 SWAP2 POP POP JUMP JUMPDEST PUSH0 PUSH1 0x20 DUP3 DUP5 SUB SLT ISZERO PUSH2 0x381E JUMPI PUSH2 0x381D PUSH2 0x29EE JUMP JUMPDEST JUMPDEST PUSH0 PUSH2 0x382B DUP5 DUP3 DUP6 ADD PUSH2 0x37F5 JUMP JUMPDEST SWAP2 POP POP SWAP3 SWAP2 POP POP JUMP JUMPDEST PUSH32 0x4E487B7100000000000000000000000000000000000000000000000000000000 PUSH0 MSTORE PUSH1 0x11 PUSH1 0x4 MSTORE PUSH1 0x24 PUSH0 REVERT JUMPDEST PUSH0 PUSH2 0x386B DUP3 PUSH2 0x2A4B JUMP JUMPDEST SWAP2 POP PUSH2 0x3876 DUP4 PUSH2 0x2A4B JUMP JUMPDEST SWAP3 POP DUP3 DUP3 MUL PUSH2 0x3884 DUP2 PUSH2 0x2A4B JUMP JUMPDEST SWAP2 POP DUP3 DUP3 DIV DUP5 EQ DUP4 ISZERO OR PUSH2 0x389B JUMPI PUSH2 0x389A PUSH2 0x3834 JUMP JUMPDEST JUMPDEST POP SWAP3 SWAP2 POP POP JUMP JUMPDEST PUSH32 0x4E487B7100000000000000000000000000000000000000000000000000000000 PUSH0 MSTORE PUSH1 0x12 PUSH1 0x4 MSTORE PUSH1 0x24 PUSH0 REVERT JUMPDEST PUSH0 PUSH2 0x38D9 DUP3 PUSH2 0x2A4B JUMP JUMPDEST SWAP2 POP PUSH2 0x38E4 DUP4 PUSH2 0x2A4B JUMP JUMPDEST SWAP3 POP DUP3 PUSH2 0x38F4 JUMPI PUSH2 0x38F3 PUSH2 0x38A2 JUMP JUMPDEST JUMPDEST DUP3 DUP3 DIV SWAP1 POP SWAP3 SWAP2 POP POP JUMP JUMPDEST PUSH32 0x4E6F74206F776E65720000000000000000000000000000000000000000000000 PUSH0 DUP3 ADD MSTORE POP JUMP JUMPDEST PUSH0 PUSH2 0x3933 PUSH1 0x9 DUP4 PUSH2 0x36CD JUMP JUMPDEST SWAP2 POP PUSH2 0x393E DUP3 PUSH2 0x38FF JUMP JUMPDEST PUSH1 0x20 DUP3 ADD SWAP1 POP SWAP2 SWAP1 POP JUMP JUMPDEST PUSH0 PUSH1 0x20 DUP3 ADD SWAP1 POP DUP2 DUP2 SUB PUSH0 DUP4 ADD MSTORE PUSH2 0x3960 DUP2 PUSH2 0x3927 JUMP JUMPDEST SWAP1 POP SWAP2 SWAP1 POP JUMP JUMPDEST PUSH32 0x526563697065206973206E6F7420736574000000000000000000000000000000 PUSH0 DUP3 ADD MSTORE POP JUMP JUMPDEST PUSH0 PUSH2 0x399B PUSH1 0x11 DUP4 PUSH2 0x36CD JUMP JUMPDEST SWAP2 POP PUSH2 0x39A6 DUP3 PUSH2 0x3967 JUMP JUMPDEST PUSH1 0x20 DUP3 ADD SWAP1 POP SWAP2 SWAP1 POP JUMP JUMPDEST PUSH0 PUSH1 0x20 DUP3 ADD SWAP1 POP DUP2 DUP2 SUB PUSH0 DUP4 ADD MSTORE PUSH2 0x39C8 DUP2 PUSH2 0x398F JUMP JUMPDEST SWAP1 POP SWAP2 SWAP1 POP JUMP JUMPDEST PUSH0 PUSH8 0xFFFFFFFFFFFFFFFF DUP3 GT ISZERO PUSH2 0x39E9 JUMPI PUSH2 0x39E8 PUSH2 0x2B59 JUMP JUMPDEST JUMPDEST PUSH1 0x20 DUP3 MUL SWAP1 POP PUSH1 0x20 DUP2 ADD SWAP1 POP SWAP2 SWAP1 POP JUMP JUMPDEST PUSH0 DUP1 REVERT JUMPDEST PUSH0 DUP2 MLOAD SWAP1 POP PUSH2 0x3A0C DUP2 PUSH2 0x29F6 JUMP JUMPDEST SWAP3 SWAP2 POP POP JUMP JUMPDEST PUSH0 DUP2 MLOAD SWAP1 POP PUSH2 0x3A20 DUP2 PUSH2 0x2A54 JUMP JUMPDEST SWAP3 SWAP2 POP POP JUMP JUMPDEST PUSH0 PUSH1 0x40 DUP3 DUP5 SUB SLT ISZERO PUSH2 0x3A3B JUMPI PUSH2 0x3A3A PUSH2 0x39FA JUMP JUMPDEST JUMPDEST PUSH2 0x3A45 PUSH1 0x40 PUSH2 0x2BB7 JUMP JUMPDEST SWAP1 POP PUSH0 PUSH2 0x3A54 DUP5 DUP3 DUP6 ADD PUSH2 0x39FE JUMP JUMPDEST PUSH0 DUP4 ADD MSTORE POP PUSH1 0x20 PUSH2 0x3A67 DUP5 DUP3 DUP6 ADD PUSH2 0x3A12 JUMP JUMPDEST PUSH1 0x20 DUP4 ADD MSTORE POP SWAP3 SWAP2 POP POP JUMP JUMPDEST PUSH0 PUSH2 0x3A85 PUSH2 0x3A80 DUP5 PUSH2 0x39CF JUMP JUMPDEST PUSH2 0x2BB7 JUMP JUMPDEST SWAP1 POP DUP1 DUP4 DUP3 MSTORE PUSH1 0x20 DUP3 ADD SWAP1 POP PUSH1 0x40 DUP5 MUL DUP4 ADD DUP6 DUP2 GT ISZERO PUSH2 0x3AA8 JUMPI PUSH2 0x3AA7 PUSH2 0x2BFC JUMP JUMPDEST JUMPDEST DUP4 JUMPDEST DUP2 DUP2 LT ISZERO PUSH2 0x3AD1 JUMPI DUP1 PUSH2 0x3ABD DUP9 DUP3 PUSH2 0x3A26 JUMP JUMPDEST DUP5 MSTORE PUSH1 0x20 DUP5 ADD SWAP4 POP POP PUSH1 0x40 DUP2 ADD SWAP1 POP PUSH2 0x3AAA JUMP JUMPDEST POP POP POP SWAP4 SWAP3 POP POP POP JUMP JUMPDEST PUSH0 DUP3 PUSH1 0x1F DUP4 ADD SLT PUSH2 0x3AEF JUMPI PUSH2 0x3AEE PUSH2 0x2B45 JUMP JUMPDEST JUMPDEST DUP2 MLOAD PUSH2 0x3AFF DUP5 DUP3 PUSH1 0x20 DUP7 ADD PUSH2 0x3A73 JUMP JUMPDEST SWAP2 POP POP SWAP3 SWAP2 POP POP JUMP JUMPDEST PUSH0 PUSH1 0x20 DUP3 DUP5 SUB SLT ISZERO PUSH2 0x3B1D JUMPI PUSH2 0x3B1C PUSH2 0x29EE JUMP JUMPDEST JUMPDEST PUSH0 DUP3 ADD MLOAD PUSH8 0xFFFFFFFFFFFFFFFF DUP2 GT ISZERO PUSH2 0x3B3A JUMPI PUSH2 0x3B39 PUSH2 0x29F2 JUMP JUMPDEST JUMPDEST PUSH2 0x3B46 DUP5 DUP3 DUP6 ADD PUSH2 0x3ADB JUMP JUMPDEST SWAP2 POP POP SWAP3 SWAP2 POP POP JUMP JUMPDEST PUSH0 PUSH1 0x20 DUP3 DUP5 SUB SLT ISZERO PUSH2 0x3B64 JUMPI PUSH2 0x3B63 PUSH2 0x29EE JUMP JUMPDEST JUMPDEST PUSH0 PUSH2 0x3B71 DUP5 DUP3 DUP6 ADD PUSH2 0x3A12 JUMP JUMPDEST SWAP2 POP POP SWAP3 SWAP2 POP POP JUMP JUMPDEST PUSH0 PUSH2 0x3B84 DUP3 PUSH2 0x2A4B JUMP JUMPDEST SWAP2 POP PUSH2 0x3B8F DUP4 PUSH2 0x2A4B JUMP JUMPDEST SWAP3 POP DUP3 DUP3 SUB SWAP1 POP DUP2 DUP2 GT ISZERO PUSH2 0x3BA7 JUMPI PUSH2 0x3BA6 PUSH2 0x3834 JUMP JUMPDEST JUMPDEST SWAP3 SWAP2 POP POP JUMP JUMPDEST PUSH32 0x477269642064696D656E73696F6E73206D757374206265206772656174657220 PUSH0 DUP3 ADD MSTORE PUSH32 0x7468616E207A65726F0000000000000000000000000000000000000000000000 PUSH1 0x20 DUP3 ADD MSTORE POP JUMP JUMPDEST PUSH0 PUSH2 0x3C07 PUSH1 0x29 DUP4 PUSH2 0x36CD JUMP JUMPDEST SWAP2 POP PUSH2 0x3C12 DUP3 PUSH2 0x3BAD JUMP JUMPDEST PUSH1 0x40 DUP3 ADD SWAP1 POP SWAP2 SWAP1 POP JUMP JUMPDEST PUSH0 PUSH1 0x20 DUP3 ADD SWAP1 POP DUP2 DUP2 SUB PUSH0 DUP4 ADD MSTORE PUSH2 0x3C34 DUP2 PUSH2 0x3BFB JUMP JUMPDEST SWAP1 POP SWAP2 SWAP1 POP JUMP JUMPDEST PUSH0 DUP2 SWAP1 POP SWAP2 SWAP1 POP JUMP JUMPDEST PUSH0 PUSH2 0x3C4E DUP3 PUSH2 0x3C3B JUMP JUMPDEST SWAP2 POP PUSH2 0x3C59 DUP4 PUSH2 0x3C3B JUMP JUMPDEST SWAP3 POP DUP3 PUSH2 0x3C69 JUMPI PUSH2 0x3C68 PUSH2 0x38A2 JUMP JUMPDEST JUMPDEST PUSH1 0x1 PUSH0 SUB DUP4 EQ PUSH32 0x8000000000000000000000000000000000000000000000000000000000000000 DUP4 EQ AND ISZERO PUSH2 0x3CA1 JUMPI PUSH2 0x3CA0 PUSH2 0x3834 JUMP JUMPDEST JUMPDEST DUP3 DUP3 SDIV SWAP1 POP SWAP3 SWAP2 POP POP JUMP JUMPDEST PUSH32 0x4E487B7100000000000000000000000000000000000000000000000000000000 PUSH0 MSTORE PUSH1 0x22 PUSH1 0x4 MSTORE PUSH1 0x24 PUSH0 REVERT JUMPDEST PUSH0 PUSH1 0x2 DUP3 DIV SWAP1 POP PUSH1 0x1 DUP3 AND DUP1 PUSH2 0x3CF0 JUMPI PUSH1 0x7F DUP3 AND SWAP2 POP JUMPDEST PUSH1 0x20 DUP3 LT DUP2 SUB PUSH2 0x3D03 JUMPI PUSH2 0x3D02 PUSH2 0x3CAC JUMP JUMPDEST JUMPDEST POP SWAP2 SWAP1 POP JUMP JUMPDEST PUSH0 DUP2 SWAP1 POP DUP2 PUSH0 MSTORE PUSH1 0x20 PUSH0 KECCAK256 SWAP1 POP SWAP2 SWAP1 POP JUMP JUMPDEST PUSH0 PUSH1 0x20 PUSH1 0x1F DUP4 ADD DIV SWAP1 POP SWAP2 SWAP1 POP JUMP JUMPDEST PUSH0 DUP3 DUP3 SHL SWAP1 POP SWAP3 SWAP2 POP POP JUMP JUMPDEST PUSH0 PUSH1 0x8 DUP4 MUL PUSH2 0x3D65 PUSH32 0xFFFFFFFFFFFFFFFFFFFFFFFFFFFFFFFFFFFFFFFFFFFFFFFFFFFFFFFFFFFFFFFF DUP3 PUSH2 0x3D2A JUMP JUMPDEST PUSH2 0x3D6F DUP7 DUP4 PUSH2 0x3D2A JUMP JUMPDEST SWAP6 POP DUP1 NOT DUP5 AND SWAP4 POP DUP1 DUP7 AND DUP5 OR SWAP3 POP POP POP SWAP4 SWAP3 POP POP POP JUMP JUMPDEST PUSH0 DUP2 SWAP1 POP SWAP2 SWAP1 POP JUMP JUMPDEST PUSH0 PUSH2 0x3DAA PUSH2 0x3DA5 PUSH2 0x3DA0 DUP5 PUSH2 0x2A4B JUMP JUMPDEST PUSH2 0x3D87 JUMP JUMPDEST PUSH2 0x2A4B JUMP JUMPDEST SWAP1 POP SWAP2 SWAP1 POP JUMP JUMPDEST PUSH0 DUP2 SWAP1 POP SWAP2 SWAP1 POP JUMP JUMPDEST PUSH2 0x3DC3 DUP4 PUSH2 0x3D90 JUMP JUMPDEST PUSH2 0x3DD7 PUSH2 0x3DCF DUP3 PUSH2 0x3DB1 JUMP JUMPDEST DUP5 DUP5 SLOAD PUSH2 0x3D36 JUMP JUMPDEST DUP3 SSTORE POP POP POP POP JUMP JUMPDEST PUSH0 SWAP1 JUMP JUMPDEST PUSH2 0x3DEB PUSH2 0x3DDF JUMP JUMPDEST PUSH2 0x3DF6 DUP2 DUP5 DUP5 PUSH2 0x3DBA JUMP JUMPDEST POP POP POP JUMP JUMPDEST JUMPDEST DUP2 DUP2 LT ISZERO PUSH2 0x3E19 JUMPI PUSH2 0x3E0E PUSH0 DUP3 PUSH2 0x3DE3 JUMP JUMPDEST PUSH1 0x1 DUP2 ADD SWAP1 POP PUSH2 0x3DFC JUMP JUMPDEST POP POP JUMP JUMPDEST PUSH1 0x1F DUP3 GT ISZERO PUSH2 0x3E5E JUMPI PUSH2 0x3E2F DUP2 PUSH2 0x3D09 JUMP JUMPDEST PUSH2 0x3E38 DUP5 PUSH2 0x3D1B JUMP JUMPDEST DUP2 ADD PUSH1 0x20 DUP6 LT ISZERO PUSH2 0x3E47 JUMPI DUP2 SWAP1 POP JUMPDEST PUSH2 0x3E5B PUSH2 0x3E53 DUP6 PUSH2 0x3D1B JUMP JUMPDEST DUP4 ADD DUP3 PUSH2 0x3DFB JUMP JUMPDEST POP POP JUMPDEST POP POP POP JUMP JUMPDEST PUSH0 DUP3 DUP3 SHR SWAP1 POP SWAP3 SWAP2 POP POP JUMP JUMPDEST PUSH0 PUSH2 0x3E7E PUSH0 NOT DUP5 PUSH1 0x8 MUL PUSH2 0x3E63 JUMP JUMPDEST NOT DUP1 DUP4 AND SWAP2 POP POP SWAP3 SWAP2 POP POP JUMP JUMPDEST PUSH0 PUSH2 0x3E96 DUP4 DUP4 PUSH2 0x3E6F JUMP JUMPDEST SWAP2 POP DUP3 PUSH1 0x2 MUL DUP3 OR SWAP1 POP SWAP3 SWAP2 POP POP JUMP JUMPDEST PUSH2 0x3EAF DUP3 PUSH2 0x34BD JUMP JUMPDEST PUSH8 0xFFFFFFFFFFFFFFFF DUP2 GT ISZERO PUSH2 0x3EC8 JUMPI PUSH2 0x3EC7 PUSH2 0x2B59 JUMP JUMPDEST JUMPDEST PUSH2 0x3ED2 DUP3 SLOAD PUSH2 0x3CD9 JUMP JUMPDEST PUSH2 0x3EDD DUP3 DUP3 DUP6 PUSH2 0x3E1D JUMP JUMPDEST PUSH0 PUSH1 0x20 SWAP1 POP PUSH1 0x1F DUP4 GT PUSH1 0x1 DUP2 EQ PUSH2 0x3F0E JUMPI PUSH0 DUP5 ISZERO PUSH2 0x3EFC JUMPI DUP3 DUP8 ADD MLOAD SWAP1 POP JUMPDEST PUSH2 0x3F06 DUP6 DUP3 PUSH2 0x3E8B JUMP JUMPDEST DUP7 SSTORE POP PUSH2 0x3F6D JUMP JUMPDEST PUSH1 0x1F NOT DUP5 AND PUSH2 0x3F1C DUP7 PUSH2 0x3D09 JUMP JUMPDEST PUSH0 JUMPDEST DUP3 DUP2 LT ISZERO PUSH2 0x3F43 JUMPI DUP5 DUP10 ADD MLOAD DUP3 SSTORE PUSH1 0x1 DUP3 ADD SWAP2 POP PUSH1 0x20 DUP6 ADD SWAP5 POP PUSH1 0x20 DUP2 ADD SWAP1 POP PUSH2 0x3F1E JUMP JUMPDEST DUP7 DUP4 LT ISZERO PUSH2 0x3F60 JUMPI DUP5 DUP10 ADD MLOAD PUSH2 0x3F5C PUSH1 0x1F DUP10 AND DUP3 PUSH2 0x3E6F JUMP JUMPDEST DUP4 SSTORE POP JUMPDEST PUSH1 0x1 PUSH1 0x2 DUP9 MUL ADD DUP9 SSTORE POP POP POP JUMPDEST POP POP POP POP POP POP JUMP JUMPDEST PUSH0 PUSH2 0x3F7F DUP3 PUSH2 0x2A4B JUMP JUMPDEST SWAP2 POP PUSH32 0xFFFFFFFFFFFFFFFFFFFFFFFFFFFFFFFFFFFFFFFFFFFFFFFFFFFFFFFFFFFFFFFF DUP3 SUB PUSH2 0x3FB1 JUMPI PUSH2 0x3FB0 PUSH2 0x3834 JUMP JUMPDEST JUMPDEST PUSH1 0x1 DUP3 ADD SWAP1 POP SWAP2 SWAP1 POP JUMP JUMPDEST PUSH0 DUP2 SWAP1 POP SWAP2 SWAP1 POP JUMP JUMPDEST PUSH0 PUSH2 0x3FDF PUSH2 0x3FDA PUSH2 0x3FD5 DUP5 PUSH2 0x3FBC JUMP JUMPDEST PUSH2 0x3D87 JUMP JUMPDEST PUSH2 0x2A4B JUMP JUMPDEST SWAP1 POP SWAP2 SWAP1 POP JUMP JUMPDEST PUSH2 0x3FEF DUP2 PUSH2 0x3FC5 JUMP JUMPDEST DUP3 MSTORE POP POP JUMP JUMPDEST PUSH0 PUSH1 0x60 DUP3 ADD SWAP1 POP PUSH2 0x4008 PUSH0 DUP4 ADD DUP7 PUSH2 0x2AA9 JUMP JUMPDEST PUSH2 0x4015 PUSH1 0x20 DUP4 ADD DUP6 PUSH2 0x2AA9 JUMP JUMPDEST PUSH2 0x4022 PUSH1 0x40 DUP4 ADD DUP5 PUSH2 0x3FE6 JUMP JUMPDEST SWAP5 SWAP4 POP POP POP POP JUMP JUMPDEST PUSH0 PUSH2 0x4034 DUP3 PUSH2 0x3C3B JUMP JUMPDEST SWAP2 POP PUSH2 0x403F DUP4 PUSH2 0x3C3B JUMP JUMPDEST SWAP3 POP DUP3 DUP3 SUB SWAP1 POP DUP2 DUP2 SLT PUSH0 DUP5 SLT AND DUP3 DUP3 SGT PUSH0 DUP6 SLT ISZERO AND OR ISZERO PUSH2 0x4064 JUMPI PUSH2 0x4063 PUSH2 0x3834 JUMP JUMPDEST JUMPDEST SWAP3 SWAP2 POP POP JUMP JUMPDEST PUSH0 PUSH2 0x4074 DUP3 PUSH2 0x3C3B JUMP JUMPDEST SWAP2 POP PUSH2 0x407F DUP4 PUSH2 0x3C3B JUMP JUMPDEST SWAP3 POP DUP3 DUP3 ADD SWAP1 POP DUP3 DUP2 SLT ISZERO PUSH0 DUP4 SLT AND DUP4 DUP3 SLT PUSH0 DUP5 SLT ISZERO AND OR ISZERO PUSH2 0x40A5 JUMPI PUSH2 0x40A4 PUSH2 0x3834 JUMP JUMPDEST JUMPDEST SWAP3 SWAP2 POP POP JUMP JUMPDEST PUSH0 DUP2 SWAP1 POP SWAP2 SWAP1 POP JUMP JUMPDEST PUSH2 0x40C5 PUSH2 0x40C0 DUP3 PUSH2 0x2A4B JUMP JUMPDEST PUSH2 0x40AB JUMP JUMPDEST DUP3 MSTORE POP POP JUMP JUMPDEST PUSH0 DUP2 SWAP1 POP SWAP2 SWAP1 POP JUMP JUMPDEST PUSH2 0x40E5 PUSH2 0x40E0 DUP3 PUSH2 0x3C3B JUMP JUMPDEST PUSH2 0x40CB JUMP JUMPDEST DUP3 MSTORE POP POP JUMP JUMPDEST PUSH0 PUSH2 0x40F6 DUP3 DUP8 PUSH2 0x40B4 JUMP JUMPDEST PUSH1 0x20 DUP3 ADD SWAP2 POP PUSH2 0x4106 DUP3 DUP7 PUSH2 0x40B4 JUMP JUMPDEST PUSH1 0x20 DUP3 ADD SWAP2 POP PUSH2 0x4116 DUP3 DUP6 PUSH2 0x40D4 JUMP JUMPDEST PUSH1 0x20 DUP3 ADD SWAP2 POP PUSH2 0x4126 DUP3 DUP5 PUSH2 0x40D4 JUMP JUMPDEST PUSH1 0x20 DUP3 ADD SWAP2 POP DUP2 SWAP1 POP SWAP6 SWAP5 POP POP POP POP POP JUMP JUMPDEST PUSH0 PUSH2 0x4142 DUP3 PUSH2 0x2A4B JUMP JUMPDEST SWAP2 POP PUSH2 0x414D DUP4 PUSH2 0x2A4B JUMP JUMPDEST SWAP3 POP DUP3 PUSH2 0x415D JUMPI PUSH2 0x415C PUSH2 0x38A2 JUMP JUMPDEST JUMPDEST DUP3 DUP3 MOD SWAP1 POP SWAP3 SWAP2 POP POP JUMP JUMPDEST PUSH0 PUSH2 0x4173 DUP3 DUP6 PUSH2 0x40B4 JUMP JUMPDEST PUSH1 0x20 DUP3 ADD SWAP2 POP PUSH2 0x4183 DUP3 DUP5 PUSH2 0x40B4 JUMP JUMPDEST PUSH1 0x20 DUP3 ADD SWAP2 POP DUP2 SWAP1 POP SWAP4 SWAP3 POP POP POP JUMP JUMPDEST PUSH0 PUSH2 0x419D DUP3 PUSH2 0x3C3B JUMP JUMPDEST SWAP2 POP PUSH32 0x8000000000000000000000000000000000000000000000000000000000000000 DUP3 SUB PUSH2 0x41CF JUMPI PUSH2 0x41CE PUSH2 0x3834 JUMP JUMPDEST JUMPDEST DUP2 PUSH0 SUB SWAP1 POP SWAP2 SWAP1 POP JUMP INVALID LOG2 PUSH5 0x6970667358 0x22 SLT KECCAK256 0xDF NOT PUSH13 0x449C500CE60216A17B9A136059 PUSH29 0xA6F17666449B7CFEC9AB23CF7D7F4164736F6C63430008170033000000 "
		},
		"gasEstimates": {
			"creation": {
				"codeDepositCost": "3382200",
				"executionCost": "infinite",
				"totalCost": "infinite"
			},
			"external": {
				"__createBuildings__(uint8[],string[],uint256[],uint256[])": "infinite",
				"__destroyAll__()": "infinite",
				"__getReceipes__()": "infinite",
				"__getResources__()": "infinite",
				"__setNativeCurrency__(address)": "53398",
				"__setReceipes__(address[])": "infinite",
				"__setResources__(address[])": "infinite",
				"buyGold()": "infinite",
				"buyLandfield(uint256)": "infinite",
				"claimResource(uint256)": "infinite",
				"generateIsland()": "infinite",
				"getBuildings()": "infinite",
				"getDimensions()": "infinite",
				"getLandfield(uint256,uint256)": "infinite",
				"getLandfieldPrice(uint256)": "infinite",
				"getLandfieldProduction(uint256)": "infinite",
				"getLandfields()": "infinite",
				"getOwnership(uint256)": "2990",
				"gold()": "2640",
				"islandAddr()": "2648",
				"setRecipe(uint256,address)": "infinite",
				"setSellPrice(uint256,uint256)": "infinite"
			},
			"internal": {
				"abs(int256)": "187",
				"determineTerrain(int256,int256,int256,int256)": "infinite",
				"getKey(uint256,uint256)": "infinite",
				"setLandfield(int256,int256,enum World.TerrainType)": "infinite"
			}
		},
		"methodIdentifiers": {
			"__createBuildings__(uint8[],string[],uint256[],uint256[])": "b7f685f9",
			"__destroyAll__()": "9df5a2d0",
			"__getReceipes__()": "2c725df8",
			"__getResources__()": "030d11f6",
			"__setNativeCurrency__(address)": "199f6403",
			"__setReceipes__(address[])": "6312974b",
			"__setResources__(address[])": "e3824e21",
			"buyGold()": "2f7b8af4",
			"buyLandfield(uint256)": "1c4718e9",
			"claimResource(uint256)": "40f77b31",
			"generateIsland()": "96f61c11",
			"getBuildings()": "d9cf6a26",
			"getDimensions()": "22eb20a3",
			"getLandfield(uint256,uint256)": "9c281582",
			"getLandfieldPrice(uint256)": "e18c3c56",
			"getLandfieldProduction(uint256)": "c1336871",
			"getLandfields()": "76e5bb59",
			"getOwnership(uint256)": "704044dc",
			"gold()": "fbec6f21",
			"islandAddr()": "1d16f2b7",
			"setRecipe(uint256,address)": "e12e99a2",
			"setSellPrice(uint256,uint256)": "511a8861"
		}
	},
	"abi": [
		{
			"inputs": [
				{
					"internalType": "string",
					"name": "worldName",
					"type": "string"
				},
				{
					"internalType": "uint256",
					"name": "width",
					"type": "uint256"
				},
				{
					"internalType": "uint256",
					"name": "height",
					"type": "uint256"
				}
			],
			"stateMutability": "nonpayable",
			"type": "constructor"
		},
		{
			"inputs": [],
			"name": "CantBuy",
			"type": "error"
		},
		{
			"inputs": [],
			"name": "IncorrectPayment",
			"type": "error"
		},
		{
			"inputs": [],
			"name": "NotAllowed",
			"type": "error"
		},
		{
			"inputs": [
				{
					"internalType": "enum World.BuildingType[]",
					"name": "buildingType",
					"type": "uint8[]"
				},
				{
					"internalType": "string[]",
					"name": "name",
					"type": "string[]"
				},
				{
					"internalType": "uint256[]",
					"name": "x",
					"type": "uint256[]"
				},
				{
					"internalType": "uint256[]",
					"name": "y",
					"type": "uint256[]"
				}
			],
			"name": "__createBuildings__",
			"outputs": [],
			"stateMutability": "nonpayable",
			"type": "function"
		},
		{
			"inputs": [],
			"name": "__destroyAll__",
			"outputs": [],
			"stateMutability": "nonpayable",
			"type": "function"
		},
		{
			"inputs": [],
			"name": "__getReceipes__",
			"outputs": [
				{
					"internalType": "address[]",
					"name": "receipes_",
					"type": "address[]"
				}
			],
			"stateMutability": "view",
			"type": "function"
		},
		{
			"inputs": [],
			"name": "__getResources__",
			"outputs": [
				{
					"internalType": "address[]",
					"name": "resources_",
					"type": "address[]"
				}
			],
			"stateMutability": "view",
			"type": "function"
		},
		{
			"inputs": [
				{
					"internalType": "address",
					"name": "goldAddr",
					"type": "address"
				}
			],
			"name": "__setNativeCurrency__",
			"outputs": [],
			"stateMutability": "nonpayable",
			"type": "function"
		},
		{
			"inputs": [
				{
					"internalType": "address[]",
					"name": "receipes_",
					"type": "address[]"
				}
			],
			"name": "__setReceipes__",
			"outputs": [],
			"stateMutability": "nonpayable",
			"type": "function"
		},
		{
			"inputs": [
				{
					"internalType": "address[]",
					"name": "resources_",
					"type": "address[]"
				}
			],
			"name": "__setResources__",
			"outputs": [],
			"stateMutability": "nonpayable",
			"type": "function"
		},
		{
			"inputs": [],
			"name": "buyGold",
			"outputs": [],
			"stateMutability": "payable",
			"type": "function"
		},
		{
			"inputs": [
				{
					"internalType": "uint256",
					"name": "id",
					"type": "uint256"
				}
			],
			"name": "buyLandfield",
			"outputs": [],
			"stateMutability": "nonpayable",
			"type": "function"
		},
		{
			"inputs": [
				{
					"internalType": "uint256",
					"name": "landfieldId",
					"type": "uint256"
				}
			],
			"name": "claimResource",
			"outputs": [],
			"stateMutability": "nonpayable",
			"type": "function"
		},
		{
			"inputs": [],
			"name": "generateIsland",
			"outputs": [],
			"stateMutability": "nonpayable",
			"type": "function"
		},
		{
			"inputs": [],
			"name": "getBuildings",
			"outputs": [
				{
					"components": [
						{
							"internalType": "enum World.BuildingType",
							"name": "buildingType",
							"type": "uint8"
						},
						{
							"internalType": "string",
							"name": "name",
							"type": "string"
						},
						{
							"internalType": "uint256",
							"name": "x",
							"type": "uint256"
						},
						{
							"internalType": "uint256",
							"name": "y",
							"type": "uint256"
						}
					],
					"internalType": "struct World.Building[]",
					"name": "",
					"type": "tuple[]"
				}
			],
			"stateMutability": "view",
			"type": "function"
		},
		{
			"inputs": [],
			"name": "getDimensions",
			"outputs": [
				{
					"internalType": "uint256",
					"name": "",
					"type": "uint256"
				},
				{
					"internalType": "uint256",
					"name": "",
					"type": "uint256"
				}
			],
			"stateMutability": "view",
			"type": "function"
		},
		{
			"inputs": [
				{
					"internalType": "uint256",
					"name": "x",
					"type": "uint256"
				},
				{
					"internalType": "uint256",
					"name": "y",
					"type": "uint256"
				}
			],
			"name": "getLandfield",
			"outputs": [
				{
					"components": [
						{
							"internalType": "address",
							"name": "owner",
							"type": "address"
						},
						{
							"internalType": "uint256",
							"name": "price",
							"type": "uint256"
						},
						{
							"internalType": "uint256",
							"name": "sellPrice",
							"type": "uint256"
						},
						{
							"internalType": "enum World.TerrainType",
							"name": "terrainType",
							"type": "uint8"
						},
						{
							"internalType": "address",
							"name": "recipe",
							"type": "address"
						},
						{
							"internalType": "uint256",
							"name": "lastClaim",
							"type": "uint256"
						},
						{
							"internalType": "uint256",
							"name": "x",
							"type": "uint256"
						},
						{
							"internalType": "uint256",
							"name": "y",
							"type": "uint256"
						}
					],
					"internalType": "struct World.Landfield",
					"name": "",
					"type": "tuple"
				}
			],
			"stateMutability": "view",
			"type": "function"
		},
		{
			"inputs": [
				{
					"internalType": "uint256",
					"name": "id",
					"type": "uint256"
				}
			],
			"name": "getLandfieldPrice",
			"outputs": [
				{
					"internalType": "uint256",
					"name": "",
					"type": "uint256"
				}
			],
			"stateMutability": "view",
			"type": "function"
		},
		{
			"inputs": [
				{
					"internalType": "uint256",
					"name": "landfieldId",
					"type": "uint256"
				}
			],
			"name": "getLandfieldProduction",
			"outputs": [
				{
					"internalType": "uint256[]",
					"name": "",
					"type": "uint256[]"
				}
			],
			"stateMutability": "view",
			"type": "function"
		},
		{
			"inputs": [],
			"name": "getLandfields",
			"outputs": [
				{
					"components": [
						{
							"internalType": "address",
							"name": "owner",
							"type": "address"
						},
						{
							"internalType": "uint256",
							"name": "price",
							"type": "uint256"
						},
						{
							"internalType": "uint256",
							"name": "sellPrice",
							"type": "uint256"
						},
						{
							"internalType": "enum World.TerrainType",
							"name": "terrainType",
							"type": "uint8"
						},
						{
							"internalType": "address",
							"name": "recipe",
							"type": "address"
						},
						{
							"internalType": "uint256",
							"name": "lastClaim",
							"type": "uint256"
						},
						{
							"internalType": "uint256",
							"name": "x",
							"type": "uint256"
						},
						{
							"internalType": "uint256",
							"name": "y",
							"type": "uint256"
						}
					],
					"internalType": "struct World.Landfield[]",
					"name": "",
					"type": "tuple[]"
				}
			],
			"stateMutability": "view",
			"type": "function"
		},
		{
			"inputs": [
				{
					"internalType": "uint256",
					"name": "landfieldId",
					"type": "uint256"
				}
			],
			"name": "getOwnership",
			"outputs": [
				{
					"internalType": "address",
					"name": "",
					"type": "address"
				}
			],
			"stateMutability": "view",
			"type": "function"
		},
		{
			"inputs": [],
			"name": "gold",
			"outputs": [
				{
					"internalType": "address",
					"name": "",
					"type": "address"
				}
			],
			"stateMutability": "view",
			"type": "function"
		},
		{
			"inputs": [],
			"name": "islandAddr",
			"outputs": [
				{
					"internalType": "address",
					"name": "",
					"type": "address"
				}
			],
			"stateMutability": "view",
			"type": "function"
		},
		{
			"inputs": [
				{
					"internalType": "uint256",
					"name": "landfieldId",
					"type": "uint256"
				},
				{
					"internalType": "address",
					"name": "recipe",
					"type": "address"
				}
			],
			"name": "setRecipe",
			"outputs": [],
			"stateMutability": "nonpayable",
			"type": "function"
		},
		{
			"inputs": [
				{
					"internalType": "uint256",
					"name": "sellPrice",
					"type": "uint256"
				},
				{
					"internalType": "uint256",
					"name": "landfieldId",
					"type": "uint256"
				}
			],
			"name": "setSellPrice",
			"outputs": [],
			"stateMutability": "nonpayable",
			"type": "function"
		}
	]
}